{
	"GMD_flat.sol": {
		"GMD": {
			"abi": [
				{
					"inputs": [],
					"stateMutability": "nonpayable",
					"type": "constructor"
				},
				{
					"anonymous": false,
					"inputs": [
						{
							"indexed": true,
							"internalType": "address",
							"name": "owner",
							"type": "address"
						},
						{
							"indexed": true,
							"internalType": "address",
							"name": "spender",
							"type": "address"
						},
						{
							"indexed": false,
							"internalType": "uint256",
							"name": "value",
							"type": "uint256"
						}
					],
					"name": "Approval",
					"type": "event"
				},
				{
					"anonymous": false,
					"inputs": [
						{
							"indexed": true,
							"internalType": "address",
							"name": "previousOwner",
							"type": "address"
						},
						{
							"indexed": true,
							"internalType": "address",
							"name": "newOwner",
							"type": "address"
						}
					],
					"name": "OwnershipTransferred",
					"type": "event"
				},
				{
					"anonymous": false,
					"inputs": [
						{
							"indexed": true,
							"internalType": "address",
							"name": "from",
							"type": "address"
						},
						{
							"indexed": true,
							"internalType": "address",
							"name": "to",
							"type": "address"
						},
						{
							"indexed": false,
							"internalType": "uint256",
							"name": "value",
							"type": "uint256"
						}
					],
					"name": "Transfer",
					"type": "event"
				},
				{
					"inputs": [],
					"name": "USDC",
					"outputs": [
						{
							"internalType": "contract IERC20",
							"name": "",
							"type": "address"
						}
					],
					"stateMutability": "view",
					"type": "function"
				},
				{
					"inputs": [
						{
							"internalType": "address",
							"name": "owner",
							"type": "address"
						},
						{
							"internalType": "address",
							"name": "spender",
							"type": "address"
						}
					],
					"name": "allowance",
					"outputs": [
						{
							"internalType": "uint256",
							"name": "",
							"type": "uint256"
						}
					],
					"stateMutability": "view",
					"type": "function"
				},
				{
					"inputs": [
						{
							"internalType": "address",
							"name": "spender",
							"type": "address"
						},
						{
							"internalType": "uint256",
							"name": "amount",
							"type": "uint256"
						}
					],
					"name": "approve",
					"outputs": [
						{
							"internalType": "bool",
							"name": "",
							"type": "bool"
						}
					],
					"stateMutability": "nonpayable",
					"type": "function"
				},
				{
					"inputs": [
						{
							"internalType": "address",
							"name": "account",
							"type": "address"
						}
					],
					"name": "balanceOf",
					"outputs": [
						{
							"internalType": "uint256",
							"name": "",
							"type": "uint256"
						}
					],
					"stateMutability": "view",
					"type": "function"
				},
				{
					"inputs": [
						{
							"internalType": "uint256",
							"name": "_amount",
							"type": "uint256"
						}
					],
					"name": "burn",
					"outputs": [],
					"stateMutability": "nonpayable",
					"type": "function"
				},
				{
					"inputs": [],
					"name": "claim",
					"outputs": [],
					"stateMutability": "nonpayable",
					"type": "function"
				},
				{
					"inputs": [
						{
							"internalType": "address",
							"name": "_address",
							"type": "address"
						}
					],
					"name": "claimableTokens",
					"outputs": [
						{
							"internalType": "uint256",
							"name": "",
							"type": "uint256"
						}
					],
					"stateMutability": "view",
					"type": "function"
				},
				{
					"inputs": [],
					"name": "decimals",
					"outputs": [
						{
							"internalType": "uint8",
							"name": "",
							"type": "uint8"
						}
					],
					"stateMutability": "view",
					"type": "function"
				},
				{
					"inputs": [
						{
							"internalType": "address",
							"name": "spender",
							"type": "address"
						},
						{
							"internalType": "uint256",
							"name": "subtractedValue",
							"type": "uint256"
						}
					],
					"name": "decreaseAllowance",
					"outputs": [
						{
							"internalType": "bool",
							"name": "",
							"type": "bool"
						}
					],
					"stateMutability": "nonpayable",
					"type": "function"
				},
				{
					"inputs": [
						{
							"internalType": "address",
							"name": "spender",
							"type": "address"
						},
						{
							"internalType": "uint256",
							"name": "addedValue",
							"type": "uint256"
						}
					],
					"name": "increaseAllowance",
					"outputs": [
						{
							"internalType": "bool",
							"name": "",
							"type": "bool"
						}
					],
					"stateMutability": "nonpayable",
					"type": "function"
				},
				{
					"inputs": [
						{
							"internalType": "uint256",
							"name": "_amount",
							"type": "uint256"
						}
					],
					"name": "mint",
					"outputs": [],
					"stateMutability": "nonpayable",
					"type": "function"
				},
				{
					"inputs": [],
					"name": "mintCap",
					"outputs": [
						{
							"internalType": "uint256",
							"name": "",
							"type": "uint256"
						}
					],
					"stateMutability": "view",
					"type": "function"
				},
				{
					"inputs": [],
					"name": "mintOpen",
					"outputs": [
						{
							"internalType": "bool",
							"name": "",
							"type": "bool"
						}
					],
					"stateMutability": "view",
					"type": "function"
				},
				{
					"inputs": [],
					"name": "mintPrice",
					"outputs": [
						{
							"internalType": "uint256",
							"name": "",
							"type": "uint256"
						}
					],
					"stateMutability": "view",
					"type": "function"
				},
				{
					"inputs": [],
					"name": "name",
					"outputs": [
						{
							"internalType": "string",
							"name": "",
							"type": "string"
						}
					],
					"stateMutability": "view",
					"type": "function"
				},
				{
					"inputs": [],
					"name": "owner",
					"outputs": [
						{
							"internalType": "address",
							"name": "",
							"type": "address"
						}
					],
					"stateMutability": "view",
					"type": "function"
				},
				{
					"inputs": [],
					"name": "recoverTreasuryTokens",
					"outputs": [],
					"stateMutability": "nonpayable",
					"type": "function"
				},
				{
					"inputs": [],
					"name": "remainingMintableTokens",
					"outputs": [
						{
							"internalType": "uint256",
							"name": "",
							"type": "uint256"
						}
					],
					"stateMutability": "view",
					"type": "function"
				},
				{
					"inputs": [
						{
							"internalType": "address",
							"name": "_address",
							"type": "address"
						}
					],
					"name": "remainingVestedTime",
					"outputs": [
						{
							"internalType": "uint256",
							"name": "",
							"type": "uint256"
						}
					],
					"stateMutability": "view",
					"type": "function"
				},
				{
					"inputs": [],
					"name": "renounceOwnership",
					"outputs": [],
					"stateMutability": "nonpayable",
					"type": "function"
				},
				{
					"inputs": [
						{
							"internalType": "uint256",
							"name": "_mintCap",
							"type": "uint256"
						}
					],
					"name": "setMintCap",
					"outputs": [],
					"stateMutability": "nonpayable",
					"type": "function"
				},
				{
					"inputs": [
						{
							"internalType": "uint256",
							"name": "_mintPrice",
							"type": "uint256"
						}
					],
					"name": "setMintPrice",
					"outputs": [],
					"stateMutability": "nonpayable",
					"type": "function"
				},
				{
					"inputs": [
						{
							"internalType": "bool",
							"name": "_mintOpen",
							"type": "bool"
						}
					],
					"name": "setOpenMint",
					"outputs": [],
					"stateMutability": "nonpayable",
					"type": "function"
				},
				{
					"inputs": [
						{
							"internalType": "uint256",
							"name": "_period",
							"type": "uint256"
						}
					],
					"name": "setVestingPeriod",
					"outputs": [],
					"stateMutability": "nonpayable",
					"type": "function"
				},
				{
					"inputs": [],
					"name": "symbol",
					"outputs": [
						{
							"internalType": "string",
							"name": "",
							"type": "string"
						}
					],
					"stateMutability": "view",
					"type": "function"
				},
				{
					"inputs": [],
					"name": "totalSupply",
					"outputs": [
						{
							"internalType": "uint256",
							"name": "",
							"type": "uint256"
						}
					],
					"stateMutability": "view",
					"type": "function"
				},
				{
					"inputs": [
						{
							"internalType": "address",
							"name": "to",
							"type": "address"
						},
						{
							"internalType": "uint256",
							"name": "amount",
							"type": "uint256"
						}
					],
					"name": "transfer",
					"outputs": [
						{
							"internalType": "bool",
							"name": "",
							"type": "bool"
						}
					],
					"stateMutability": "nonpayable",
					"type": "function"
				},
				{
					"inputs": [
						{
							"internalType": "address",
							"name": "from",
							"type": "address"
						},
						{
							"internalType": "address",
							"name": "to",
							"type": "address"
						},
						{
							"internalType": "uint256",
							"name": "amount",
							"type": "uint256"
						}
					],
					"name": "transferFrom",
					"outputs": [
						{
							"internalType": "bool",
							"name": "",
							"type": "bool"
						}
					],
					"stateMutability": "nonpayable",
					"type": "function"
				},
				{
					"inputs": [
						{
							"internalType": "address",
							"name": "newOwner",
							"type": "address"
						}
					],
					"name": "transferOwnership",
					"outputs": [],
					"stateMutability": "nonpayable",
					"type": "function"
				},
				{
					"inputs": [
						{
							"internalType": "address",
							"name": "",
							"type": "address"
						}
					],
					"name": "userInfo",
					"outputs": [
						{
							"internalType": "uint256",
							"name": "totalMinted",
							"type": "uint256"
						},
						{
							"internalType": "uint256",
							"name": "lastInteractionTime",
							"type": "uint256"
						},
						{
							"internalType": "uint256",
							"name": "VestPeriod",
							"type": "uint256"
						}
					],
					"stateMutability": "view",
					"type": "function"
				},
				{
					"inputs": [],
					"name": "vestingPeriod",
					"outputs": [
						{
							"internalType": "uint256",
							"name": "",
							"type": "uint256"
						}
					],
					"stateMutability": "view",
					"type": "function"
				}
			],
			"devdoc": {
				"kind": "dev",
				"methods": {
					"allowance(address,address)": {
						"details": "See {IERC20-allowance}."
					},
					"approve(address,uint256)": {
						"details": "See {IERC20-approve}. NOTE: If `amount` is the maximum `uint256`, the allowance is not updated on `transferFrom`. This is semantically equivalent to an infinite approval. Requirements: - `spender` cannot be the zero address."
					},
					"balanceOf(address)": {
						"details": "See {IERC20-balanceOf}."
					},
					"decimals()": {
						"details": "Returns the number of decimals used to get its user representation. For example, if `decimals` equals `2`, a balance of `505` tokens should be displayed to a user as `5.05` (`505 / 10 ** 2`). Tokens usually opt for a value of 18, imitating the relationship between Ether and Wei. This is the value {ERC20} uses, unless this function is overridden; NOTE: This information is only used for _display_ purposes: it in no way affects any of the arithmetic of the contract, including {IERC20-balanceOf} and {IERC20-transfer}."
					},
					"decreaseAllowance(address,uint256)": {
						"details": "Atomically decreases the allowance granted to `spender` by the caller. This is an alternative to {approve} that can be used as a mitigation for problems described in {IERC20-approve}. Emits an {Approval} event indicating the updated allowance. Requirements: - `spender` cannot be the zero address. - `spender` must have allowance for the caller of at least `subtractedValue`."
					},
					"increaseAllowance(address,uint256)": {
						"details": "Atomically increases the allowance granted to `spender` by the caller. This is an alternative to {approve} that can be used as a mitigation for problems described in {IERC20-approve}. Emits an {Approval} event indicating the updated allowance. Requirements: - `spender` cannot be the zero address."
					},
					"name()": {
						"details": "Returns the name of the token."
					},
					"owner()": {
						"details": "Returns the address of the current owner."
					},
					"renounceOwnership()": {
						"details": "Leaves the contract without owner. It will not be possible to call `onlyOwner` functions anymore. Can only be called by the current owner. NOTE: Renouncing ownership will leave the contract without an owner, thereby removing any functionality that is only available to the owner."
					},
					"symbol()": {
						"details": "Returns the symbol of the token, usually a shorter version of the name."
					},
					"totalSupply()": {
						"details": "See {IERC20-totalSupply}."
					},
					"transfer(address,uint256)": {
						"details": "See {IERC20-transfer}. Requirements: - `to` cannot be the zero address. - the caller must have a balance of at least `amount`."
					},
					"transferFrom(address,address,uint256)": {
						"details": "See {IERC20-transferFrom}. Emits an {Approval} event indicating the updated allowance. This is not required by the EIP. See the note at the beginning of {ERC20}. NOTE: Does not update the allowance if the current allowance is the maximum `uint256`. Requirements: - `from` and `to` cannot be the zero address. - `from` must have a balance of at least `amount`. - the caller must have allowance for ``from``'s tokens of at least `amount`."
					},
					"transferOwnership(address)": {
						"details": "Transfers ownership of the contract to a new account (`newOwner`). Can only be called by the current owner."
					}
				},
				"version": 1
			},
			"evm": {
				"assembly": "    /* \"GMD_flat.sol\":44114:48135  contract GMD is ERC20(\"GMD\", \"GMD\"), Ownable , ReentrancyGuard{ ... */\n  mstore(0x40, 0x80)\n    /* \"GMD_flat.sol\":44530:44534  1000 */\n  0x03e8\n    /* \"GMD_flat.sol\":44503:44534  uint256 public mintPrice = 1000 */\n  0x08\n  sstore\n    /* \"GMD_flat.sol\":44565:44566  0 */\n  0x00\n    /* \"GMD_flat.sol\":44540:44566  uint256 public mintCap = 0 */\n  0x09\n  sstore\n    /* \"GMD_flat.sol\":44603:44609  5 days */\n  0x069780\n    /* \"GMD_flat.sol\":44572:44609  uint256 public vestingPeriod = 5 days */\n  0x0a\n  sstore\n    /* \"GMD_flat.sol\":44615:44643  bool public mintOpen = false */\n  0x0b\n  dup1\n  sload\n  not(sub(shl(0xa8, 0x01), 0x01))\n    /* \"GMD_flat.sol\":44649:44720  IERC20 public USDC = IERC20(0xFF970A61A04b1cA14834A43f5dE4533eBDDB5CC8) */\n  and\n  0xff970a61a04b1ca14834a43f5de4533ebddb5cc800\n  or\n  swap1\n  sstore\n    /* \"GMD_flat.sol\":44184:44258  constructor() {... */\n  callvalue\n  dup1\n  iszero\n  tag_1\n  jumpi\n  0x00\n  dup1\n  revert\ntag_1:\n  pop\n    /* \"GMD_flat.sol\":33407:33520  constructor(string memory name_, string memory symbol_) {... */\n  mload(0x40)\n  dup1\n  0x40\n  add\n  0x40\n  mstore\n  dup1\n  0x03\n  dup2\n  mstore\n  0x20\n  add\n  shl(0xea, 0x11d351)\n  dup2\n  mstore\n  pop\n  mload(0x40)\n  dup1\n  0x40\n  add\n  0x40\n  mstore\n  dup1\n  0x03\n  dup2\n  mstore\n  0x20\n  add\n  shl(0xea, 0x11d351)\n  dup2\n  mstore\n  pop\n    /* \"GMD_flat.sol\":33481:33486  name_ */\n  dup2\n    /* \"GMD_flat.sol\":33473:33478  _name */\n  0x03\n    /* \"GMD_flat.sol\":33473:33486  _name = name_ */\n  swap1\n  dup1\n  mload\n  swap1\n  0x20\n  add\n  swap1\n  tag_7\n  swap3\n  swap2\n  swap1\n  tag_8\n  jump\t// in\ntag_7:\n  pop\n    /* \"GMD_flat.sol\":33496:33513  _symbol = symbol_ */\n  dup1\n  mload\n  tag_9\n  swap1\n    /* \"GMD_flat.sol\":33496:33503  _symbol */\n  0x04\n  swap1\n    /* \"GMD_flat.sol\":33496:33513  _symbol = symbol_ */\n  0x20\n  dup5\n  add\n  swap1\n  tag_8\n  jump\t// in\ntag_9:\n  pop\n    /* \"GMD_flat.sol\":33407:33520  constructor(string memory name_, string memory symbol_) {... */\n  pop\n  pop\n    /* \"GMD_flat.sol\":21928:21960  _transferOwnership(_msgSender()) */\n  tag_11\n    /* \"GMD_flat.sol\":21947:21959  _msgSender() */\n  tag_12\n    /* \"GMD_flat.sol\":21947:21957  _msgSender */\n  shl(0x20, tag_13)\n    /* \"GMD_flat.sol\":21947:21959  _msgSender() */\n  0x20\n  shr\n  jump\t// in\ntag_12:\n    /* \"GMD_flat.sol\":21928:21946  _transferOwnership */\n  tag_14\n    /* \"GMD_flat.sol\":21928:21960  _transferOwnership(_msgSender()) */\n  jump\t// in\ntag_11:\n    /* \"GMD_flat.sol\":1734:1735  1 */\n  0x01\n    /* \"GMD_flat.sol\":1839:1846  _status */\n  0x06\n    /* \"GMD_flat.sol\":1839:1861  _status = _NOT_ENTERED */\n  sstore\n    /* \"GMD_flat.sol\":44208:44251  _mint(msg.sender, 50000 * 10 ** decimals()) */\n  tag_17\n    /* \"GMD_flat.sol\":44214:44224  msg.sender */\n  caller\n    /* \"GMD_flat.sol\":44234:44250  10 ** decimals() */\n  tag_20\n    /* \"GMD_flat.sol\":34604:34606  18 */\n  0x12\n    /* \"GMD_flat.sol\":44234:44236  10 */\n  0x0a\n    /* \"GMD_flat.sol\":44234:44250  10 ** decimals() */\n  tag_21\n  jump\t// in\ntag_20:\n    /* \"GMD_flat.sol\":44226:44250  50000 * 10 ** decimals() */\n  tag_22\n  swap1\n    /* \"GMD_flat.sol\":44226:44231  50000 */\n  0xc350\n    /* \"GMD_flat.sol\":44226:44250  50000 * 10 ** decimals() */\n  tag_23\n  jump\t// in\ntag_22:\n    /* \"GMD_flat.sol\":44208:44213  _mint */\n  tag_24\n    /* \"GMD_flat.sol\":44208:44251  _mint(msg.sender, 50000 * 10 ** decimals()) */\n  jump\t// in\ntag_17:\n    /* \"GMD_flat.sol\":44114:48135  contract GMD is ERC20(\"GMD\", \"GMD\"), Ownable , ReentrancyGuard{ ... */\n  jump(tag_58)\n    /* \"GMD_flat.sol\":20796:20892  function _msgSender() internal view virtual returns (address) {... */\ntag_13:\n    /* \"GMD_flat.sol\":20875:20885  msg.sender */\n  caller\n  swap1\n    /* \"GMD_flat.sol\":20796:20892  function _msgSender() internal view virtual returns (address) {... */\n  jump\t// out\n    /* \"GMD_flat.sol\":23425:23612  function _transferOwnership(address newOwner) internal virtual {... */\ntag_14:\n    /* \"GMD_flat.sol\":23517:23523  _owner */\n  0x05\n  dup1\n  sload\n  sub(shl(0xa0, 0x01), 0x01)\n    /* \"GMD_flat.sol\":23533:23550  _owner = newOwner */\n  dup4\n  dup2\n  and\n  not(sub(shl(0xa0, 0x01), 0x01))\n  dup4\n  and\n  dup2\n  or\n  swap1\n  swap4\n  sstore\n    /* \"GMD_flat.sol\":23565:23605  OwnershipTransferred(oldOwner, newOwner) */\n  mload(0x40)\n    /* \"GMD_flat.sol\":23517:23523  _owner */\n  swap2\n  and\n  swap2\n    /* \"GMD_flat.sol\":23533:23550  _owner = newOwner */\n  swap1\n    /* \"GMD_flat.sol\":23517:23523  _owner */\n  dup3\n  swap1\n    /* \"GMD_flat.sol\":23565:23605  OwnershipTransferred(oldOwner, newOwner) */\n  0x8be0079c531659141344cd1fd0a4f28419497f9722a3daafe3b4186f6b6457e0\n  swap1\n    /* \"GMD_flat.sol\":23498:23514  address oldOwner */\n  0x00\n  swap1\n    /* \"GMD_flat.sol\":23565:23605  OwnershipTransferred(oldOwner, newOwner) */\n  log3\n    /* \"GMD_flat.sol\":23488:23612  {... */\n  pop\n    /* \"GMD_flat.sol\":23425:23612  function _transferOwnership(address newOwner) internal virtual {... */\n  pop\n  jump\t// out\n    /* \"GMD_flat.sol\":39831:40220  function _mint(address account, uint256 amount) internal virtual {... */\ntag_24:\n  sub(shl(0xa0, 0x01), 0x01)\n    /* \"GMD_flat.sol\":39914:39935  account != address(0) */\n  dup3\n  and\n    /* \"GMD_flat.sol\":39906:39971  require(account != address(0), \"ERC20: mint to the zero address\") */\n  tag_30\n  jumpi\n  mload(0x40)\n  shl(0xe5, 0x461bcd)\n  dup2\n  mstore\n    /* \"#utility.yul\":1904:1906   */\n  0x20\n    /* \"GMD_flat.sol\":39906:39971  require(account != address(0), \"ERC20: mint to the zero address\") */\n  0x04\n  dup3\n  add\n    /* \"#utility.yul\":1886:1907   */\n  mstore\n    /* \"#utility.yul\":1943:1945   */\n  0x1f\n    /* \"#utility.yul\":1923:1941   */\n  0x24\n  dup3\n  add\n    /* \"#utility.yul\":1916:1946   */\n  mstore\n    /* \"#utility.yul\":1982:2015   */\n  0x45524332303a206d696e7420746f20746865207a65726f206164647265737300\n    /* \"#utility.yul\":1962:1980   */\n  0x44\n  dup3\n  add\n    /* \"#utility.yul\":1955:2016   */\n  mstore\n    /* \"#utility.yul\":2033:2051   */\n  0x64\n  add\n    /* \"GMD_flat.sol\":39906:39971  require(account != address(0), \"ERC20: mint to the zero address\") */\n  mload(0x40)\n  dup1\n  swap2\n  sub\n  swap1\n  revert\ntag_30:\n    /* \"GMD_flat.sol\":40058:40064  amount */\n  dup1\n    /* \"GMD_flat.sol\":40042:40054  _totalSupply */\n  0x02\n  0x00\n    /* \"GMD_flat.sol\":40042:40064  _totalSupply += amount */\n  dup3\n  dup3\n  sload\n  tag_35\n  swap2\n  swap1\n  tag_36\n  jump\t// in\ntag_35:\n  swap1\n  swap2\n  sstore\n  pop\n  pop\n  sub(shl(0xa0, 0x01), 0x01)\n    /* \"GMD_flat.sol\":40074:40092  _balances[account] */\n  dup3\n  and\n    /* \"GMD_flat.sol\":40074:40083  _balances */\n  0x00\n    /* \"GMD_flat.sol\":40074:40092  _balances[account] */\n  swap1\n  dup2\n  mstore\n  0x20\n  dup2\n  swap1\n  mstore\n  0x40\n  dup2\n  keccak256\n    /* \"GMD_flat.sol\":40074:40102  _balances[account] += amount */\n  dup1\n  sload\n    /* \"GMD_flat.sol\":40096:40102  amount */\n  dup4\n  swap3\n    /* \"GMD_flat.sol\":40074:40083  _balances */\n  swap1\n    /* \"GMD_flat.sol\":40074:40102  _balances[account] += amount */\n  tag_37\n  swap1\n    /* \"GMD_flat.sol\":40096:40102  amount */\n  dup5\n  swap1\n    /* \"GMD_flat.sol\":40074:40102  _balances[account] += amount */\n  tag_36\n  jump\t// in\ntag_37:\n  swap1\n  swap2\n  sstore\n  pop\n  pop\n    /* \"GMD_flat.sol\":40117:40154  Transfer(address(0), account, amount) */\n  mload(0x40)\n    /* \"#utility.yul\":2341:2366   */\n  dup2\n  dup2\n  mstore\n  sub(shl(0xa0, 0x01), 0x01)\n    /* \"GMD_flat.sol\":40117:40154  Transfer(address(0), account, amount) */\n  dup4\n  and\n  swap1\n    /* \"GMD_flat.sol\":40134:40135  0 */\n  0x00\n  swap1\n    /* \"GMD_flat.sol\":40117:40154  Transfer(address(0), account, amount) */\n  0xddf252ad1be2c89b69c2b068fc378daa952ba7f163c4a11628f55a4df523b3ef\n  swap1\n    /* \"#utility.yul\":2329:2331   */\n  0x20\n    /* \"#utility.yul\":2314:2332   */\n  add\n    /* \"GMD_flat.sol\":40117:40154  Transfer(address(0), account, amount) */\n  mload(0x40)\n  dup1\n  swap2\n  sub\n  swap1\n  log3\n    /* \"GMD_flat.sol\":39831:40220  function _mint(address account, uint256 amount) internal virtual {... */\n  pop\n  pop\n  jump\t// out\n    /* \"GMD_flat.sol\":44114:48135  contract GMD is ERC20(\"GMD\", \"GMD\"), Ownable , ReentrancyGuard{ ... */\ntag_8:\n  dup3\n  dup1\n  sload\n  tag_44\n  swap1\n  tag_45\n  jump\t// in\ntag_44:\n  swap1\n  0x00\n  mstore\n  keccak256(0x00, 0x20)\n  swap1\n  0x1f\n  add\n  0x20\n  swap1\n  div\n  dup2\n  add\n  swap3\n  dup3\n  tag_47\n  jumpi\n  0x00\n  dup6\n  sstore\n  jump(tag_50)\ntag_47:\n  dup3\n  0x1f\n  lt\n  tag_48\n  jumpi\n  dup1\n  mload\n  not(0xff)\n  and\n  dup4\n  dup1\n  add\n  or\n  dup6\n  sstore\n  jump(tag_50)\ntag_48:\n  dup3\n  dup1\n  add\n  0x01\n  add\n  dup6\n  sstore\n  dup3\n  iszero\n  tag_50\n  jumpi\n  swap2\n  dup3\n  add\ntag_49:\n  dup3\n  dup2\n  gt\n  iszero\n  tag_50\n  jumpi\n  dup3\n  mload\n  dup3\n  sstore\n  swap2\n  0x20\n  add\n  swap2\n  swap1\n  0x01\n  add\n  swap1\n  jump(tag_49)\ntag_50:\n  pop\n  tag_51\n  swap3\n  swap2\n  pop\n  tag_52\n  jump\t// in\ntag_51:\n  pop\n  swap1\n  jump\t// out\ntag_52:\ntag_53:\n  dup1\n  dup3\n  gt\n  iszero\n  tag_51\n  jumpi\n  0x00\n  dup2\n  sstore\n  0x01\n  add\n  jump(tag_53)\n    /* \"#utility.yul\":14:141   */\ntag_55:\n    /* \"#utility.yul\":75:85   */\n  0x4e487b71\n    /* \"#utility.yul\":70:73   */\n  0xe0\n    /* \"#utility.yul\":66:86   */\n  shl\n    /* \"#utility.yul\":63:64   */\n  0x00\n    /* \"#utility.yul\":56:87   */\n  mstore\n    /* \"#utility.yul\":106:110   */\n  0x11\n    /* \"#utility.yul\":103:104   */\n  0x04\n    /* \"#utility.yul\":96:111   */\n  mstore\n    /* \"#utility.yul\":130:134   */\n  0x24\n    /* \"#utility.yul\":127:128   */\n  0x00\n    /* \"#utility.yul\":120:135   */\n  revert\n    /* \"#utility.yul\":146:568   */\ntag_56:\n    /* \"#utility.yul\":235:236   */\n  0x01\n    /* \"#utility.yul\":278:283   */\n  dup2\n    /* \"#utility.yul\":235:236   */\n  dup2\n    /* \"#utility.yul\":292:562   */\ntag_61:\n    /* \"#utility.yul\":313:320   */\n  dup1\n    /* \"#utility.yul\":303:311   */\n  dup6\n    /* \"#utility.yul\":300:321   */\n  gt\n    /* \"#utility.yul\":292:562   */\n  iszero\n  tag_63\n  jumpi\n    /* \"#utility.yul\":372:376   */\n  dup2\n    /* \"#utility.yul\":368:369   */\n  0x00\n    /* \"#utility.yul\":364:370   */\n  not\n    /* \"#utility.yul\":360:377   */\n  div\n    /* \"#utility.yul\":354:358   */\n  dup3\n    /* \"#utility.yul\":351:378   */\n  gt\n    /* \"#utility.yul\":348:401   */\n  iszero\n  tag_65\n  jumpi\n    /* \"#utility.yul\":381:399   */\n  tag_65\n  tag_55\n  jump\t// in\ntag_65:\n    /* \"#utility.yul\":431:438   */\n  dup1\n    /* \"#utility.yul\":421:429   */\n  dup6\n    /* \"#utility.yul\":417:439   */\n  and\n    /* \"#utility.yul\":414:469   */\n  iszero\n  tag_66\n  jumpi\n    /* \"#utility.yul\":451:467   */\n  swap2\n  dup2\n  mul\n  swap2\n    /* \"#utility.yul\":414:469   */\ntag_66:\n    /* \"#utility.yul\":530:552   */\n  swap4\n  dup5\n  shr\n  swap4\n    /* \"#utility.yul\":490:505   */\n  swap1\n  dup1\n  mul\n  swap1\n    /* \"#utility.yul\":292:562   */\n  jump(tag_61)\ntag_63:\n    /* \"#utility.yul\":296:299   */\n  pop\n    /* \"#utility.yul\":146:568   */\n  swap3\n  pop\n  swap3\n  swap1\n  pop\n  jump\t// out\n    /* \"#utility.yul\":573:1379   */\ntag_57:\n    /* \"#utility.yul\":622:627   */\n  0x00\n    /* \"#utility.yul\":652:660   */\n  dup3\n    /* \"#utility.yul\":642:722   */\n  tag_68\n  jumpi\n  pop\n    /* \"#utility.yul\":693:694   */\n  0x01\n    /* \"#utility.yul\":707:712   */\n  jump(tag_67)\n    /* \"#utility.yul\":642:722   */\ntag_68:\n    /* \"#utility.yul\":741:745   */\n  dup2\n    /* \"#utility.yul\":731:807   */\n  tag_69\n  jumpi\n  pop\n    /* \"#utility.yul\":778:779   */\n  0x00\n    /* \"#utility.yul\":792:797   */\n  jump(tag_67)\n    /* \"#utility.yul\":731:807   */\ntag_69:\n    /* \"#utility.yul\":823:827   */\n  dup2\n    /* \"#utility.yul\":841:842   */\n  0x01\n    /* \"#utility.yul\":836:895   */\n  dup2\n  eq\n  tag_71\n  jumpi\n    /* \"#utility.yul\":909:910   */\n  0x02\n    /* \"#utility.yul\":904:1034   */\n  dup2\n  eq\n  tag_72\n  jumpi\n    /* \"#utility.yul\":816:1034   */\n  jump(tag_70)\n    /* \"#utility.yul\":836:895   */\ntag_71:\n    /* \"#utility.yul\":866:867   */\n  0x01\n    /* \"#utility.yul\":857:867   */\n  swap2\n  pop\n    /* \"#utility.yul\":880:885   */\n  pop\n  jump(tag_67)\n    /* \"#utility.yul\":904:1034   */\ntag_72:\n    /* \"#utility.yul\":941:944   */\n  0xff\n    /* \"#utility.yul\":931:939   */\n  dup5\n    /* \"#utility.yul\":928:945   */\n  gt\n    /* \"#utility.yul\":925:968   */\n  iszero\n  tag_74\n  jumpi\n    /* \"#utility.yul\":948:966   */\n  tag_74\n  tag_55\n  jump\t// in\ntag_74:\n  pop\n  pop\n    /* \"#utility.yul\":1004:1005   */\n  0x01\n    /* \"#utility.yul\":990:1006   */\n  dup3\n  shl\n    /* \"#utility.yul\":1019:1024   */\n  jump(tag_67)\n    /* \"#utility.yul\":816:1034   */\ntag_70:\n  pop\n    /* \"#utility.yul\":1118:1120   */\n  0x20\n    /* \"#utility.yul\":1108:1116   */\n  dup4\n    /* \"#utility.yul\":1105:1121   */\n  lt\n    /* \"#utility.yul\":1099:1102   */\n  0x0133\n    /* \"#utility.yul\":1093:1097   */\n  dup4\n    /* \"#utility.yul\":1090:1103   */\n  lt\n    /* \"#utility.yul\":1086:1122   */\n  and\n    /* \"#utility.yul\":1080:1082   */\n  0x4e\n    /* \"#utility.yul\":1070:1078   */\n  dup5\n    /* \"#utility.yul\":1067:1083   */\n  lt\n    /* \"#utility.yul\":1062:1064   */\n  0x0b\n    /* \"#utility.yul\":1056:1060   */\n  dup5\n    /* \"#utility.yul\":1053:1065   */\n  lt\n    /* \"#utility.yul\":1049:1084   */\n  and\n    /* \"#utility.yul\":1046:1123   */\n  or\n    /* \"#utility.yul\":1043:1202   */\n  iszero\n  tag_75\n  jumpi\n  pop\n    /* \"#utility.yul\":1155:1174   */\n  dup2\n  dup2\n  exp\n    /* \"#utility.yul\":1187:1192   */\n  jump(tag_67)\n    /* \"#utility.yul\":1043:1202   */\ntag_75:\n    /* \"#utility.yul\":1234:1268   */\n  tag_76\n    /* \"#utility.yul\":1259:1267   */\n  dup4\n    /* \"#utility.yul\":1253:1257   */\n  dup4\n    /* \"#utility.yul\":1234:1268   */\n  tag_56\n  jump\t// in\ntag_76:\n    /* \"#utility.yul\":1304:1310   */\n  dup1\n    /* \"#utility.yul\":1300:1301   */\n  0x00\n    /* \"#utility.yul\":1296:1302   */\n  not\n    /* \"#utility.yul\":1292:1311   */\n  div\n    /* \"#utility.yul\":1283:1290   */\n  dup3\n    /* \"#utility.yul\":1280:1312   */\n  gt\n    /* \"#utility.yul\":1277:1335   */\n  iszero\n  tag_78\n  jumpi\n    /* \"#utility.yul\":1315:1333   */\n  tag_78\n  tag_55\n  jump\t// in\ntag_78:\n    /* \"#utility.yul\":1353:1373   */\n  mul\n  swap1\n  pop\n    /* \"#utility.yul\":573:1379   */\ntag_67:\n  swap3\n  swap2\n  pop\n  pop\n  jump\t// out\n    /* \"#utility.yul\":1384:1524   */\ntag_21:\n    /* \"#utility.yul\":1442:1447   */\n  0x00\n    /* \"#utility.yul\":1471:1518   */\n  tag_80\n    /* \"#utility.yul\":1512:1516   */\n  0xff\n    /* \"#utility.yul\":1502:1510   */\n  dup5\n    /* \"#utility.yul\":1498:1517   */\n  and\n    /* \"#utility.yul\":1492:1496   */\n  dup4\n    /* \"#utility.yul\":1471:1518   */\n  tag_57\n  jump\t// in\ntag_80:\n    /* \"#utility.yul\":1462:1518   */\n  swap4\n    /* \"#utility.yul\":1384:1524   */\n  swap3\n  pop\n  pop\n  pop\n  jump\t// out\n    /* \"#utility.yul\":1529:1697   */\ntag_23:\n    /* \"#utility.yul\":1569:1576   */\n  0x00\n    /* \"#utility.yul\":1635:1636   */\n  dup2\n    /* \"#utility.yul\":1631:1632   */\n  0x00\n    /* \"#utility.yul\":1627:1633   */\n  not\n    /* \"#utility.yul\":1623:1637   */\n  div\n    /* \"#utility.yul\":1620:1621   */\n  dup4\n    /* \"#utility.yul\":1617:1638   */\n  gt\n    /* \"#utility.yul\":1612:1613   */\n  dup3\n    /* \"#utility.yul\":1605:1614   */\n  iszero\n    /* \"#utility.yul\":1598:1615   */\n  iszero\n    /* \"#utility.yul\":1594:1639   */\n  and\n    /* \"#utility.yul\":1591:1662   */\n  iszero\n  tag_83\n  jumpi\n    /* \"#utility.yul\":1642:1660   */\n  tag_83\n  tag_55\n  jump\t// in\ntag_83:\n  pop\n    /* \"#utility.yul\":1682:1691   */\n  mul\n  swap1\n    /* \"#utility.yul\":1529:1697   */\n  jump\t// out\n    /* \"#utility.yul\":2062:2190   */\ntag_36:\n    /* \"#utility.yul\":2102:2105   */\n  0x00\n    /* \"#utility.yul\":2133:2134   */\n  dup3\n    /* \"#utility.yul\":2129:2135   */\n  not\n    /* \"#utility.yul\":2126:2127   */\n  dup3\n    /* \"#utility.yul\":2123:2136   */\n  gt\n    /* \"#utility.yul\":2120:2159   */\n  iszero\n  tag_87\n  jumpi\n    /* \"#utility.yul\":2139:2157   */\n  tag_87\n  tag_55\n  jump\t// in\ntag_87:\n  pop\n    /* \"#utility.yul\":2175:2184   */\n  add\n  swap1\n    /* \"#utility.yul\":2062:2190   */\n  jump\t// out\n    /* \"#utility.yul\":2377:2757   */\ntag_45:\n    /* \"#utility.yul\":2456:2457   */\n  0x01\n    /* \"#utility.yul\":2452:2464   */\n  dup2\n  dup2\n  shr\n  swap1\n    /* \"#utility.yul\":2499:2511   */\n  dup3\n  and\n  dup1\n    /* \"#utility.yul\":2520:2581   */\n  tag_90\n  jumpi\n    /* \"#utility.yul\":2574:2578   */\n  0x7f\n    /* \"#utility.yul\":2566:2572   */\n  dup3\n    /* \"#utility.yul\":2562:2579   */\n  and\n    /* \"#utility.yul\":2552:2579   */\n  swap2\n  pop\n    /* \"#utility.yul\":2520:2581   */\ntag_90:\n    /* \"#utility.yul\":2627:2629   */\n  0x20\n    /* \"#utility.yul\":2619:2625   */\n  dup3\n    /* \"#utility.yul\":2616:2630   */\n  lt\n    /* \"#utility.yul\":2596:2614   */\n  dup2\n    /* \"#utility.yul\":2593:2631   */\n  eq\n    /* \"#utility.yul\":2590:2751   */\n  iszero\n  tag_91\n  jumpi\n    /* \"#utility.yul\":2673:2683   */\n  0x4e487b71\n    /* \"#utility.yul\":2668:2671   */\n  0xe0\n    /* \"#utility.yul\":2664:2684   */\n  shl\n    /* \"#utility.yul\":2661:2662   */\n  0x00\n    /* \"#utility.yul\":2654:2685   */\n  mstore\n    /* \"#utility.yul\":2708:2712   */\n  0x22\n    /* \"#utility.yul\":2705:2706   */\n  0x04\n    /* \"#utility.yul\":2698:2713   */\n  mstore\n    /* \"#utility.yul\":2736:2740   */\n  0x24\n    /* \"#utility.yul\":2733:2734   */\n  0x00\n    /* \"#utility.yul\":2726:2741   */\n  revert\n    /* \"#utility.yul\":2590:2751   */\ntag_91:\n  pop\n    /* \"#utility.yul\":2377:2757   */\n  swap2\n  swap1\n  pop\n  jump\t// out\ntag_58:\n    /* \"GMD_flat.sol\":44114:48135  contract GMD is ERC20(\"GMD\", \"GMD\"), Ownable , ReentrancyGuard{ ... */\n  dataSize(sub_0)\n  dup1\n  dataOffset(sub_0)\n  0x00\n  codecopy\n  0x00\n  return\nstop\n\nsub_0: assembly {\n        /* \"GMD_flat.sol\":44114:48135  contract GMD is ERC20(\"GMD\", \"GMD\"), Ownable , ReentrancyGuard{ ... */\n      mstore(0x40, 0x80)\n      callvalue\n      dup1\n      iszero\n      tag_1\n      jumpi\n      0x00\n      dup1\n      revert\n    tag_1:\n      pop\n      jumpi(tag_2, lt(calldatasize, 0x04))\n      shr(0xe0, calldataload(0x00))\n      dup1\n      0x70a08231\n      gt\n      tag_34\n      jumpi\n      dup1\n      0xa0712d68\n      gt\n      tag_35\n      jumpi\n      dup1\n      0xe2af30f4\n      gt\n      tag_36\n      jumpi\n      dup1\n      0xe2af30f4\n      eq\n      tag_30\n      jumpi\n      dup1\n      0xe2e5c15c\n      eq\n      tag_31\n      jumpi\n      dup1\n      0xf2fde38b\n      eq\n      tag_32\n      jumpi\n      dup1\n      0xf4a0a528\n      eq\n      tag_33\n      jumpi\n      0x00\n      dup1\n      revert\n    tag_36:\n      dup1\n      0xa0712d68\n      eq\n      tag_26\n      jumpi\n      dup1\n      0xa457c2d7\n      eq\n      tag_27\n      jumpi\n      dup1\n      0xa9059cbb\n      eq\n      tag_28\n      jumpi\n      dup1\n      0xdd62ed3e\n      eq\n      tag_29\n      jumpi\n      0x00\n      dup1\n      revert\n    tag_35:\n      dup1\n      0x84d24226\n      gt\n      tag_37\n      jumpi\n      dup1\n      0x84d24226\n      eq\n      tag_22\n      jumpi\n      dup1\n      0x89a30271\n      eq\n      tag_23\n      jumpi\n      dup1\n      0x8da5cb5b\n      eq\n      tag_24\n      jumpi\n      dup1\n      0x95d89b41\n      eq\n      tag_25\n      jumpi\n      0x00\n      dup1\n      revert\n    tag_37:\n      dup1\n      0x70a08231\n      eq\n      tag_18\n      jumpi\n      dup1\n      0x715018a6\n      eq\n      tag_19\n      jumpi\n      dup1\n      0x7313ee5a\n      eq\n      tag_20\n      jumpi\n      dup1\n      0x76c71ca1\n      eq\n      tag_21\n      jumpi\n      0x00\n      dup1\n      revert\n    tag_34:\n      dup1\n      0x313ce567\n      gt\n      tag_38\n      jumpi\n      dup1\n      0x42966c68\n      gt\n      tag_39\n      jumpi\n      dup1\n      0x42966c68\n      eq\n      tag_14\n      jumpi\n      dup1\n      0x4e274514\n      eq\n      tag_15\n      jumpi\n      dup1\n      0x4e71d92d\n      eq\n      tag_16\n      jumpi\n      dup1\n      0x6817c76c\n      eq\n      tag_17\n      jumpi\n      0x00\n      dup1\n      revert\n    tag_39:\n      dup1\n      0x313ce567\n      eq\n      tag_10\n      jumpi\n      dup1\n      0x39509351\n      eq\n      tag_11\n      jumpi\n      dup1\n      0x4070a0c9\n      eq\n      tag_12\n      jumpi\n      dup1\n      0x40bee0ed\n      eq\n      tag_13\n      jumpi\n      0x00\n      dup1\n      revert\n    tag_38:\n      dup1\n      0x18160ddd\n      gt\n      tag_40\n      jumpi\n      dup1\n      0x18160ddd\n      eq\n      tag_6\n      jumpi\n      dup1\n      0x1959a002\n      eq\n      tag_7\n      jumpi\n      dup1\n      0x23b872dd\n      eq\n      tag_8\n      jumpi\n      dup1\n      0x24bbd049\n      eq\n      tag_9\n      jumpi\n      0x00\n      dup1\n      revert\n    tag_40:\n      dup1\n      0x03c824da\n      eq\n      tag_3\n      jumpi\n      dup1\n      0x06fdde03\n      eq\n      tag_4\n      jumpi\n      dup1\n      0x095ea7b3\n      eq\n      tag_5\n      jumpi\n    tag_2:\n      0x00\n      dup1\n      revert\n        /* \"GMD_flat.sol\":47774:48132  function remainingVestedTime(address _address) external view returns(uint256){... */\n    tag_3:\n      tag_41\n      tag_42\n      calldatasize\n      0x04\n      tag_43\n      jump\t// in\n    tag_42:\n      tag_44\n      jump\t// in\n    tag_41:\n      mload(0x40)\n        /* \"#utility.yul\":529:554   */\n      swap1\n      dup2\n      mstore\n        /* \"#utility.yul\":517:519   */\n      0x20\n        /* \"#utility.yul\":502:520   */\n      add\n        /* \"GMD_flat.sol\":47774:48132  function remainingVestedTime(address _address) external view returns(uint256){... */\n    tag_45:\n      mload(0x40)\n      dup1\n      swap2\n      sub\n      swap1\n      return\n        /* \"GMD_flat.sol\":33585:33683  function name() public view virtual override returns (string memory) {... */\n    tag_4:\n      tag_47\n      tag_48\n      jump\t// in\n    tag_47:\n      mload(0x40)\n      tag_45\n      swap2\n      swap1\n      tag_50\n      jump\t// in\n        /* \"GMD_flat.sol\":35862:36059  function approve(address spender, uint256 amount) public virtual override returns (bool) {... */\n    tag_5:\n      tag_51\n      tag_52\n      calldatasize\n      0x04\n      tag_53\n      jump\t// in\n    tag_52:\n      tag_54\n      jump\t// in\n    tag_51:\n      mload(0x40)\n        /* \"#utility.yul\":1640:1654   */\n      swap1\n      iszero\n        /* \"#utility.yul\":1633:1655   */\n      iszero\n        /* \"#utility.yul\":1615:1656   */\n      dup2\n      mstore\n        /* \"#utility.yul\":1603:1605   */\n      0x20\n        /* \"#utility.yul\":1588:1606   */\n      add\n        /* \"GMD_flat.sol\":35862:36059  function approve(address spender, uint256 amount) public virtual override returns (bool) {... */\n      tag_45\n        /* \"#utility.yul\":1475:1662   */\n      jump\n        /* \"GMD_flat.sol\":34673:34779  function totalSupply() public view virtual override returns (uint256) {... */\n    tag_6:\n        /* \"GMD_flat.sol\":34760:34772  _totalSupply */\n      sload(0x02)\n        /* \"GMD_flat.sol\":34673:34779  function totalSupply() public view virtual override returns (uint256) {... */\n      jump(tag_41)\n        /* \"GMD_flat.sol\":44452:44496  mapping(address => UserInfo) public userInfo */\n    tag_7:\n      tag_60\n      tag_61\n      calldatasize\n      0x04\n      tag_43\n      jump\t// in\n    tag_61:\n      mstore(0x20, 0x07)\n      0x00\n      swap1\n      dup2\n      mstore\n      0x40\n      swap1\n      keccak256\n      dup1\n      sload\n      0x01\n      dup3\n      add\n      sload\n      0x02\n      swap1\n      swap3\n      add\n      sload\n      swap1\n      swap2\n      swap1\n      dup4\n      jump\n    tag_60:\n      0x40\n      dup1\n      mload\n        /* \"#utility.yul\":1869:1894   */\n      swap4\n      dup5\n      mstore\n        /* \"#utility.yul\":1925:1927   */\n      0x20\n        /* \"#utility.yul\":1910:1928   */\n      dup5\n      add\n        /* \"#utility.yul\":1903:1937   */\n      swap3\n      swap1\n      swap3\n      mstore\n        /* \"#utility.yul\":1953:1971   */\n      swap1\n      dup3\n      add\n        /* \"#utility.yul\":1946:1980   */\n      mstore\n        /* \"#utility.yul\":1857:1859   */\n      0x60\n        /* \"#utility.yul\":1842:1860   */\n      add\n        /* \"GMD_flat.sol\":44452:44496  mapping(address => UserInfo) public userInfo */\n      tag_45\n        /* \"#utility.yul\":1667:1986   */\n      jump\n        /* \"GMD_flat.sol\":36621:36907  function transferFrom(... */\n    tag_8:\n      tag_51\n      tag_66\n      calldatasize\n      0x04\n      tag_67\n      jump\t// in\n    tag_66:\n      tag_68\n      jump\t// in\n        /* \"GMD_flat.sol\":44615:44643  bool public mintOpen = false */\n    tag_9:\n      sload(0x0b)\n      tag_51\n      swap1\n      0xff\n      and\n      dup2\n      jump\n        /* \"GMD_flat.sol\":34522:34613  function decimals() public view virtual override returns (uint8) {... */\n    tag_10:\n      mload(0x40)\n        /* \"GMD_flat.sol\":34604:34606  18 */\n      0x12\n        /* \"#utility.yul\":2466:2502   */\n      dup2\n      mstore\n        /* \"#utility.yul\":2454:2456   */\n      0x20\n        /* \"#utility.yul\":2439:2457   */\n      add\n        /* \"GMD_flat.sol\":34522:34613  function decimals() public view virtual override returns (uint8) {... */\n      tag_45\n        /* \"#utility.yul\":2324:2508   */\n      jump\n        /* \"GMD_flat.sol\":37302:37536  function increaseAllowance(address spender, uint256 addedValue) public virtual returns (bool) {... */\n    tag_11:\n      tag_51\n      tag_78\n      calldatasize\n      0x04\n      tag_53\n      jump\t// in\n    tag_78:\n      tag_79\n      jump\t// in\n        /* \"GMD_flat.sol\":44818:44910  function setMintCap(uint256 _mintCap) external onlyOwner {... */\n    tag_12:\n      tag_81\n      tag_82\n      calldatasize\n      0x04\n      tag_83\n      jump\t// in\n    tag_82:\n      tag_84\n      jump\t// in\n    tag_81:\n      stop\n        /* \"GMD_flat.sol\":45102:45275  function setVestingPeriod(uint256 _period) external onlyOwner {... */\n    tag_13:\n      tag_81\n      tag_86\n      calldatasize\n      0x04\n      tag_83\n      jump\t// in\n    tag_86:\n      tag_87\n      jump\t// in\n        /* \"GMD_flat.sol\":44728:44812  function burn(uint256 _amount) external  {... */\n    tag_14:\n      tag_81\n      tag_89\n      calldatasize\n      0x04\n      tag_83\n      jump\t// in\n    tag_89:\n      tag_90\n      jump\t// in\n        /* \"GMD_flat.sol\":45863:45989  function recoverTreasuryTokens() external onlyOwner {... */\n    tag_15:\n      tag_81\n      tag_92\n      jump\t// in\n        /* \"GMD_flat.sol\":46781:47633  function claim() external nonReentrant {... */\n    tag_16:\n      tag_81\n      tag_94\n      jump\t// in\n        /* \"GMD_flat.sol\":44503:44534  uint256 public mintPrice = 1000 */\n    tag_17:\n      tag_41\n      sload(0x08)\n      dup2\n      jump\n        /* \"GMD_flat.sol\":34837:34962  function balanceOf(address account) public view virtual override returns (uint256) {... */\n    tag_18:\n      tag_41\n      tag_99\n      calldatasize\n      0x04\n      tag_43\n      jump\t// in\n    tag_99:\n      sub(shl(0xa0, 0x01), 0x01)\n        /* \"GMD_flat.sol\":34937:34955  _balances[account] */\n      and\n        /* \"GMD_flat.sol\":34911:34918  uint256 */\n      0x00\n        /* \"GMD_flat.sol\":34937:34955  _balances[account] */\n      swap1\n      dup2\n      mstore\n      0x20\n      dup2\n      swap1\n      mstore\n      0x40\n      swap1\n      keccak256\n      sload\n      swap1\n        /* \"GMD_flat.sol\":34837:34962  function balanceOf(address account) public view virtual override returns (uint256) {... */\n      jump\n        /* \"GMD_flat.sol\":22823:22924  function renounceOwnership() public virtual onlyOwner {... */\n    tag_19:\n      tag_81\n      tag_103\n      jump\t// in\n        /* \"GMD_flat.sol\":44572:44609  uint256 public vestingPeriod = 5 days */\n    tag_20:\n      tag_41\n      sload(0x0a)\n      dup2\n      jump\n        /* \"GMD_flat.sol\":44540:44566  uint256 public mintCap = 0 */\n    tag_21:\n      tag_41\n      sload(0x09)\n      dup2\n      jump\n        /* \"GMD_flat.sol\":45281:45757  function claimableTokens(address _address) external view returns(uint256) {... */\n    tag_22:\n      tag_41\n      tag_111\n      calldatasize\n      0x04\n      tag_43\n      jump\t// in\n    tag_111:\n      tag_112\n      jump\t// in\n        /* \"GMD_flat.sol\":44649:44720  IERC20 public USDC = IERC20(0xFF970A61A04b1cA14834A43f5dE4533eBDDB5CC8) */\n    tag_23:\n      sload(0x0b)\n      tag_114\n      swap1\n      0x0100\n      swap1\n      div\n      sub(shl(0xa0, 0x01), 0x01)\n      and\n      dup2\n      jump\n    tag_114:\n      mload(0x40)\n      sub(shl(0xa0, 0x01), 0x01)\n        /* \"#utility.yul\":2876:2908   */\n      swap1\n      swap2\n      and\n        /* \"#utility.yul\":2858:2909   */\n      dup2\n      mstore\n        /* \"#utility.yul\":2846:2848   */\n      0x20\n        /* \"#utility.yul\":2831:2849   */\n      add\n        /* \"GMD_flat.sol\":44649:44720  IERC20 public USDC = IERC20(0xFF970A61A04b1cA14834A43f5dE4533eBDDB5CC8) */\n      tag_45\n        /* \"#utility.yul\":2698:2915   */\n      jump\n        /* \"GMD_flat.sol\":22193:22278  function owner() public view virtual returns (address) {... */\n    tag_24:\n        /* \"GMD_flat.sol\":22265:22271  _owner */\n      and(sub(shl(0xa0, 0x01), 0x01), sload(0x05))\n        /* \"GMD_flat.sol\":22193:22278  function owner() public view virtual returns (address) {... */\n      jump(tag_114)\n        /* \"GMD_flat.sol\":33796:33898  function symbol() public view virtual override returns (string memory) {... */\n    tag_25:\n      tag_47\n      tag_123\n      jump\t// in\n        /* \"GMD_flat.sol\":45996:46775  function mint(uint256 _amount) external nonReentrant {... */\n    tag_26:\n      tag_81\n      tag_126\n      calldatasize\n      0x04\n      tag_83\n      jump\t// in\n    tag_126:\n      tag_127\n      jump\t// in\n        /* \"GMD_flat.sol\":38023:38450  function decreaseAllowance(address spender, uint256 subtractedValue) public virtual returns (bool) {... */\n    tag_27:\n      tag_51\n      tag_129\n      calldatasize\n      0x04\n      tag_53\n      jump\t// in\n    tag_129:\n      tag_130\n      jump\t// in\n        /* \"GMD_flat.sol\":35158:35347  function transfer(address to, uint256 amount) public virtual override returns (bool) {... */\n    tag_28:\n      tag_51\n      tag_133\n      calldatasize\n      0x04\n      tag_53\n      jump\t// in\n    tag_133:\n      tag_134\n      jump\t// in\n        /* \"GMD_flat.sol\":35405:35554  function allowance(address owner, address spender) public view virtual override returns (uint256) {... */\n    tag_29:\n      tag_41\n      tag_137\n      calldatasize\n      0x04\n      tag_138\n      jump\t// in\n    tag_137:\n      tag_139\n      jump\t// in\n        /* \"GMD_flat.sol\":45764:45857  function setOpenMint(bool _mintOpen) external onlyOwner {... */\n    tag_30:\n      tag_81\n      tag_142\n      calldatasize\n      0x04\n      tag_143\n      jump\t// in\n    tag_142:\n      tag_144\n      jump\t// in\n        /* \"GMD_flat.sol\":47639:47768  function remainingMintableTokens() external view returns(uint256){... */\n    tag_31:\n      tag_41\n      tag_146\n      jump\t// in\n        /* \"GMD_flat.sol\":23073:23271  function transferOwnership(address newOwner) public virtual onlyOwner {... */\n    tag_32:\n      tag_81\n      tag_149\n      calldatasize\n      0x04\n      tag_43\n      jump\t// in\n    tag_149:\n      tag_150\n      jump\t// in\n        /* \"GMD_flat.sol\":44921:45096  function setMintPrice(uint256 _mintPrice) external onlyOwner {... */\n    tag_33:\n      tag_81\n      tag_152\n      calldatasize\n      0x04\n      tag_83\n      jump\t// in\n    tag_152:\n      tag_153\n      jump\t// in\n        /* \"GMD_flat.sol\":47774:48132  function remainingVestedTime(address _address) external view returns(uint256){... */\n    tag_44:\n      sub(shl(0xa0, 0x01), 0x01)\n        /* \"GMD_flat.sol\":47900:47918  userInfo[_address] */\n      dup2\n      and\n        /* \"GMD_flat.sol\":47843:47850  uint256 */\n      0x00\n        /* \"GMD_flat.sol\":47900:47918  userInfo[_address] */\n      swap1\n      dup2\n      mstore\n        /* \"GMD_flat.sol\":47900:47908  userInfo */\n      0x07\n        /* \"GMD_flat.sol\":47900:47918  userInfo[_address] */\n      0x20\n      mstore\n      0x40\n      dup2\n      keccak256\n        /* \"GMD_flat.sol\":47900:47938  userInfo[_address].lastInteractionTime */\n      0x01\n      add\n      sload\n        /* \"GMD_flat.sol\":47843:47850  uint256 */\n      dup2\n      swap1\n        /* \"GMD_flat.sol\":47880:47939  block.timestamp.sub(userInfo[_address].lastInteractionTime) */\n      tag_155\n      swap1\n        /* \"GMD_flat.sol\":47880:47895  block.timestamp */\n      timestamp\n      swap1\n        /* \"GMD_flat.sol\":47880:47899  block.timestamp.sub */\n      tag_156\n        /* \"GMD_flat.sol\":47880:47939  block.timestamp.sub(userInfo[_address].lastInteractionTime) */\n      jump\t// in\n    tag_155:\n      sub(shl(0xa0, 0x01), 0x01)\n        /* \"GMD_flat.sol\":47965:47983  userInfo[_address] */\n      dup5\n      and\n      0x00\n      swap1\n      dup2\n      mstore\n        /* \"GMD_flat.sol\":47965:47973  userInfo */\n      0x07\n        /* \"GMD_flat.sol\":47965:47983  userInfo[_address] */\n      0x20\n      mstore\n      0x40\n      swap1\n      keccak256\n        /* \"GMD_flat.sol\":47965:47994  userInfo[_address].VestPeriod */\n      0x02\n      add\n      sload\n        /* \"GMD_flat.sol\":47861:47939  uint256 timePass = block.timestamp.sub(userInfo[_address].lastInteractionTime) */\n      swap1\n      swap2\n      pop\n        /* \"GMD_flat.sol\":47953:47994  timePass >= userInfo[_address].VestPeriod */\n      dup2\n      lt\n        /* \"GMD_flat.sol\":47949:48117  if (timePass >= userInfo[_address].VestPeriod){... */\n      tag_157\n      jumpi\n      pop\n        /* \"GMD_flat.sol\":48016:48017  0 */\n      0x00\n      swap3\n        /* \"GMD_flat.sol\":47774:48132  function remainingVestedTime(address _address) external view returns(uint256){... */\n      swap2\n      pop\n      pop\n      jump\t// out\n        /* \"GMD_flat.sol\":47949:48117  if (timePass >= userInfo[_address].VestPeriod){... */\n    tag_157:\n      sub(shl(0xa0, 0x01), 0x01)\n        /* \"GMD_flat.sol\":48063:48081  userInfo[_address] */\n      dup4\n      and\n      0x00\n      swap1\n      dup2\n      mstore\n        /* \"GMD_flat.sol\":48063:48071  userInfo */\n      0x07\n        /* \"GMD_flat.sol\":48063:48081  userInfo[_address] */\n      0x20\n      mstore\n      0x40\n      swap1\n      keccak256\n        /* \"GMD_flat.sol\":48063:48092  userInfo[_address].VestPeriod */\n      0x02\n      add\n      sload\n        /* \"GMD_flat.sol\":48063:48106  userInfo[_address].VestPeriod.sub(timePass) */\n      tag_159\n      swap1\n        /* \"GMD_flat.sol\":48097:48105  timePass */\n      dup3\n        /* \"GMD_flat.sol\":48063:48096  userInfo[_address].VestPeriod.sub */\n      tag_156\n        /* \"GMD_flat.sol\":48063:48106  userInfo[_address].VestPeriod.sub(timePass) */\n      jump\t// in\n    tag_159:\n        /* \"GMD_flat.sol\":48056:48106  return userInfo[_address].VestPeriod.sub(timePass) */\n      swap4\n        /* \"GMD_flat.sol\":47774:48132  function remainingVestedTime(address _address) external view returns(uint256){... */\n      swap3\n      pop\n      pop\n      pop\n      jump\t// out\n        /* \"GMD_flat.sol\":47949:48117  if (timePass >= userInfo[_address].VestPeriod){... */\n    tag_158:\n        /* \"GMD_flat.sol\":47851:48132  {... */\n      pop\n        /* \"GMD_flat.sol\":47774:48132  function remainingVestedTime(address _address) external view returns(uint256){... */\n      swap2\n      swap1\n      pop\n      jump\t// out\n        /* \"GMD_flat.sol\":33585:33683  function name() public view virtual override returns (string memory) {... */\n    tag_48:\n        /* \"GMD_flat.sol\":33639:33652  string memory */\n      0x60\n        /* \"GMD_flat.sol\":33671:33676  _name */\n      0x03\n        /* \"GMD_flat.sol\":33664:33676  return _name */\n      dup1\n      sload\n      tag_161\n      swap1\n      tag_162\n      jump\t// in\n    tag_161:\n      dup1\n      0x1f\n      add\n      0x20\n      dup1\n      swap2\n      div\n      mul\n      0x20\n      add\n      mload(0x40)\n      swap1\n      dup2\n      add\n      0x40\n      mstore\n      dup1\n      swap3\n      swap2\n      swap1\n      dup2\n      dup2\n      mstore\n      0x20\n      add\n      dup3\n      dup1\n      sload\n      tag_163\n      swap1\n      tag_162\n      jump\t// in\n    tag_163:\n      dup1\n      iszero\n      tag_164\n      jumpi\n      dup1\n      0x1f\n      lt\n      tag_165\n      jumpi\n      0x0100\n      dup1\n      dup4\n      sload\n      div\n      mul\n      dup4\n      mstore\n      swap2\n      0x20\n      add\n      swap2\n      jump(tag_164)\n    tag_165:\n      dup3\n      add\n      swap2\n      swap1\n      0x00\n      mstore\n      keccak256(0x00, 0x20)\n      swap1\n    tag_166:\n      dup2\n      sload\n      dup2\n      mstore\n      swap1\n      0x01\n      add\n      swap1\n      0x20\n      add\n      dup1\n      dup4\n      gt\n      tag_166\n      jumpi\n      dup3\n      swap1\n      sub\n      0x1f\n      and\n      dup3\n      add\n      swap2\n    tag_164:\n      pop\n      pop\n      pop\n      pop\n      pop\n      swap1\n      pop\n        /* \"GMD_flat.sol\":33585:33683  function name() public view virtual override returns (string memory) {... */\n      swap1\n      jump\t// out\n        /* \"GMD_flat.sol\":35862:36059  function approve(address spender, uint256 amount) public virtual override returns (bool) {... */\n    tag_54:\n        /* \"GMD_flat.sol\":35945:35949  bool */\n      0x00\n        /* \"GMD_flat.sol\":20875:20885  msg.sender */\n      caller\n        /* \"GMD_flat.sol\":35999:36031  _approve(owner, spender, amount) */\n      tag_170\n        /* \"GMD_flat.sol\":20875:20885  msg.sender */\n      dup2\n        /* \"GMD_flat.sol\":36015:36022  spender */\n      dup6\n        /* \"GMD_flat.sol\":36024:36030  amount */\n      dup6\n        /* \"GMD_flat.sol\":35999:36007  _approve */\n      tag_171\n        /* \"GMD_flat.sol\":35999:36031  _approve(owner, spender, amount) */\n      jump\t// in\n    tag_170:\n      pop\n        /* \"GMD_flat.sol\":36048:36052  true */\n      0x01\n      swap4\n        /* \"GMD_flat.sol\":35862:36059  function approve(address spender, uint256 amount) public virtual override returns (bool) {... */\n      swap3\n      pop\n      pop\n      pop\n      jump\t// out\n        /* \"GMD_flat.sol\":36621:36907  function transferFrom(... */\n    tag_68:\n        /* \"GMD_flat.sol\":36748:36752  bool */\n      0x00\n        /* \"GMD_flat.sol\":20875:20885  msg.sender */\n      caller\n        /* \"GMD_flat.sol\":36804:36842  _spendAllowance(from, spender, amount) */\n      tag_175\n        /* \"GMD_flat.sol\":36820:36824  from */\n      dup6\n        /* \"GMD_flat.sol\":20875:20885  msg.sender */\n      dup3\n        /* \"GMD_flat.sol\":36835:36841  amount */\n      dup6\n        /* \"GMD_flat.sol\":36804:36819  _spendAllowance */\n      tag_176\n        /* \"GMD_flat.sol\":36804:36842  _spendAllowance(from, spender, amount) */\n      jump\t// in\n    tag_175:\n        /* \"GMD_flat.sol\":36852:36879  _transfer(from, to, amount) */\n      tag_177\n        /* \"GMD_flat.sol\":36862:36866  from */\n      dup6\n        /* \"GMD_flat.sol\":36868:36870  to */\n      dup6\n        /* \"GMD_flat.sol\":36872:36878  amount */\n      dup6\n        /* \"GMD_flat.sol\":36852:36861  _transfer */\n      tag_178\n        /* \"GMD_flat.sol\":36852:36879  _transfer(from, to, amount) */\n      jump\t// in\n    tag_177:\n      pop\n        /* \"GMD_flat.sol\":36896:36900  true */\n      0x01\n      swap5\n        /* \"GMD_flat.sol\":36621:36907  function transferFrom(... */\n      swap4\n      pop\n      pop\n      pop\n      pop\n      jump\t// out\n        /* \"GMD_flat.sol\":37302:37536  function increaseAllowance(address spender, uint256 addedValue) public virtual returns (bool) {... */\n    tag_79:\n        /* \"GMD_flat.sol\":37390:37394  bool */\n      0x00\n        /* \"GMD_flat.sol\":20875:20885  msg.sender */\n      caller\n        /* \"GMD_flat.sol\":37444:37508  _approve(owner, spender, allowance(owner, spender) + addedValue) */\n      tag_170\n        /* \"GMD_flat.sol\":20875:20885  msg.sender */\n      dup2\n        /* \"GMD_flat.sol\":37460:37467  spender */\n      dup6\n        /* \"GMD_flat.sol\":37497:37507  addedValue */\n      dup6\n        /* \"GMD_flat.sol\":37469:37494  allowance(owner, spender) */\n      tag_183\n        /* \"GMD_flat.sol\":20875:20885  msg.sender */\n      dup4\n        /* \"GMD_flat.sol\":37460:37467  spender */\n      dup4\n        /* \"GMD_flat.sol\":37469:37478  allowance */\n      tag_139\n        /* \"GMD_flat.sol\":37469:37494  allowance(owner, spender) */\n      jump\t// in\n    tag_183:\n        /* \"GMD_flat.sol\":37469:37507  allowance(owner, spender) + addedValue */\n      tag_184\n      swap2\n      swap1\n      tag_185\n      jump\t// in\n    tag_184:\n        /* \"GMD_flat.sol\":37444:37452  _approve */\n      tag_171\n        /* \"GMD_flat.sol\":37444:37508  _approve(owner, spender, allowance(owner, spender) + addedValue) */\n      jump\t// in\n        /* \"GMD_flat.sol\":44818:44910  function setMintCap(uint256 _mintCap) external onlyOwner {... */\n    tag_84:\n        /* \"GMD_flat.sol\":22086:22099  _checkOwner() */\n      tag_187\n        /* \"GMD_flat.sol\":22086:22097  _checkOwner */\n      tag_188\n        /* \"GMD_flat.sol\":22086:22099  _checkOwner() */\n      jump\t// in\n    tag_187:\n        /* \"GMD_flat.sol\":44885:44892  mintCap */\n      0x09\n        /* \"GMD_flat.sol\":44885:44903  mintCap = _mintCap */\n      sstore\n        /* \"GMD_flat.sol\":44818:44910  function setMintCap(uint256 _mintCap) external onlyOwner {... */\n      jump\t// out\n        /* \"GMD_flat.sol\":45102:45275  function setVestingPeriod(uint256 _period) external onlyOwner {... */\n    tag_87:\n        /* \"GMD_flat.sol\":22086:22099  _checkOwner() */\n      tag_191\n        /* \"GMD_flat.sol\":22086:22097  _checkOwner */\n      tag_188\n        /* \"GMD_flat.sol\":22086:22099  _checkOwner() */\n      jump\t// in\n    tag_191:\n        /* \"GMD_flat.sol\":45193:45199  3 days */\n      0x03f480\n        /* \"GMD_flat.sol\":45182:45189  _period */\n      dup2\n        /* \"GMD_flat.sol\":45182:45199  _period >= 3 days */\n      lt\n      iszero\n        /* \"GMD_flat.sol\":45182:45218  _period >= 3 days &&_period <=5 days */\n      dup1\n      iszero\n      tag_193\n      jumpi\n      pop\n        /* \"GMD_flat.sol\":45212:45218  5 days */\n      0x069780\n        /* \"GMD_flat.sol\":45202:45209  _period */\n      dup2\n        /* \"GMD_flat.sol\":45202:45218  _period <=5 days */\n      gt\n      iszero\n        /* \"GMD_flat.sol\":45182:45218  _period >= 3 days &&_period <=5 days */\n    tag_193:\n        /* \"GMD_flat.sol\":45174:45235  require(_period >= 3 days &&_period <=5 days, \"not in range\") */\n      tag_194\n      jumpi\n      mload(0x40)\n      shl(0xe5, 0x461bcd)\n      dup2\n      mstore\n        /* \"#utility.yul\":4614:4616   */\n      0x20\n        /* \"GMD_flat.sol\":45174:45235  require(_period >= 3 days &&_period <=5 days, \"not in range\") */\n      0x04\n      dup3\n      add\n        /* \"#utility.yul\":4596:4617   */\n      mstore\n        /* \"#utility.yul\":4653:4655   */\n      0x0c\n        /* \"#utility.yul\":4633:4651   */\n      0x24\n      dup3\n      add\n        /* \"#utility.yul\":4626:4656   */\n      mstore\n      shl(0xa0, 0x6e6f7420696e2072616e6765)\n        /* \"#utility.yul\":4672:4690   */\n      0x44\n      dup3\n      add\n        /* \"#utility.yul\":4665:4707   */\n      mstore\n        /* \"#utility.yul\":4724:4742   */\n      0x64\n      add\n        /* \"GMD_flat.sol\":45174:45235  require(_period >= 3 days &&_period <=5 days, \"not in range\") */\n    tag_195:\n      mload(0x40)\n      dup1\n      swap2\n      sub\n      swap1\n      revert\n    tag_194:\n        /* \"GMD_flat.sol\":45245:45258  vestingPeriod */\n      0x0a\n        /* \"GMD_flat.sol\":45245:45268  vestingPeriod = _period */\n      sstore\n        /* \"GMD_flat.sol\":45102:45275  function setVestingPeriod(uint256 _period) external onlyOwner {... */\n      jump\t// out\n        /* \"GMD_flat.sol\":44728:44812  function burn(uint256 _amount) external  {... */\n    tag_90:\n        /* \"GMD_flat.sol\":44779:44805  _burn(msg.sender, _amount) */\n      tag_198\n        /* \"GMD_flat.sol\":44785:44795  msg.sender */\n      caller\n        /* \"GMD_flat.sol\":44797:44804  _amount */\n      dup3\n        /* \"GMD_flat.sol\":44779:44784  _burn */\n      tag_199\n        /* \"GMD_flat.sol\":44779:44805  _burn(msg.sender, _amount) */\n      jump\t// in\n    tag_198:\n        /* \"GMD_flat.sol\":44728:44812  function burn(uint256 _amount) external  {... */\n      pop\n      jump\t// out\n        /* \"GMD_flat.sol\":45863:45989  function recoverTreasuryTokens() external onlyOwner {... */\n    tag_92:\n        /* \"GMD_flat.sol\":22086:22099  _checkOwner() */\n      tag_201\n        /* \"GMD_flat.sol\":22086:22097  _checkOwner */\n      tag_188\n        /* \"GMD_flat.sol\":22086:22099  _checkOwner() */\n      jump\t// in\n    tag_201:\n        /* \"GMD_flat.sol\":45925:45982  USDC.safeTransfer(owner(), USDC.balanceOf(address(this))) */\n      tag_203\n        /* \"GMD_flat.sol\":45943:45950  owner() */\n      tag_204\n        /* \"GMD_flat.sol\":22265:22271  _owner */\n      and(sub(shl(0xa0, 0x01), 0x01), sload(0x05))\n      swap1\n        /* \"GMD_flat.sol\":22193:22278  function owner() public view virtual returns (address) {... */\n      jump\n        /* \"GMD_flat.sol\":45943:45950  owner() */\n    tag_204:\n        /* \"GMD_flat.sol\":45952:45956  USDC */\n      sload(0x0b)\n        /* \"GMD_flat.sol\":45952:45981  USDC.balanceOf(address(this)) */\n      mload(0x40)\n      shl(0xe0, 0x70a08231)\n      dup2\n      mstore\n        /* \"GMD_flat.sol\":45975:45979  this */\n      address\n        /* \"GMD_flat.sol\":45952:45981  USDC.balanceOf(address(this)) */\n      0x04\n      dup3\n      add\n        /* \"#utility.yul\":2858:2909   */\n      mstore\n        /* \"GMD_flat.sol\":45952:45956  USDC */\n      0x0100\n      swap1\n      swap2\n      div\n      sub(shl(0xa0, 0x01), 0x01)\n      and\n      swap1\n        /* \"GMD_flat.sol\":45952:45966  USDC.balanceOf */\n      0x70a08231\n      swap1\n        /* \"#utility.yul\":2831:2849   */\n      0x24\n      add\n        /* \"GMD_flat.sol\":45952:45981  USDC.balanceOf(address(this)) */\n      0x20\n      mload(0x40)\n      dup1\n      dup4\n      sub\n      dup2\n      dup7\n      gas\n      staticcall\n      iszero\n      dup1\n      iszero\n      tag_207\n      jumpi\n      returndatasize\n      0x00\n      dup1\n      returndatacopy\n      revert(0x00, returndatasize)\n    tag_207:\n      pop\n      pop\n      pop\n      pop\n      mload(0x40)\n      returndatasize\n      not(0x1f)\n      0x1f\n      dup3\n      add\n      and\n      dup3\n      add\n      dup1\n      0x40\n      mstore\n      pop\n      dup2\n      add\n      swap1\n      tag_208\n      swap2\n      swap1\n      tag_209\n      jump\t// in\n    tag_208:\n        /* \"GMD_flat.sol\":45925:45929  USDC */\n      sload(0x0b)\n      0x0100\n      swap1\n      div\n      sub(shl(0xa0, 0x01), 0x01)\n      and\n      swap2\n      swap1\n        /* \"GMD_flat.sol\":45925:45942  USDC.safeTransfer */\n      tag_210\n        /* \"GMD_flat.sol\":45925:45982  USDC.safeTransfer(owner(), USDC.balanceOf(address(this))) */\n      jump\t// in\n    tag_203:\n        /* \"GMD_flat.sol\":45863:45989  function recoverTreasuryTokens() external onlyOwner {... */\n      jump\t// out\n        /* \"GMD_flat.sol\":46781:47633  function claim() external nonReentrant {... */\n    tag_94:\n        /* \"GMD_flat.sol\":1777:1778  2 */\n      0x02\n        /* \"GMD_flat.sol\":2358:2365  _status */\n      sload(0x06)\n        /* \"GMD_flat.sol\":2358:2377  _status != _ENTERED */\n      eq\n      iszero\n        /* \"GMD_flat.sol\":2350:2413  require(_status != _ENTERED, \"ReentrancyGuard: reentrant call\") */\n      tag_212\n      jumpi\n      mload(0x40)\n      shl(0xe5, 0x461bcd)\n      dup2\n      mstore\n        /* \"#utility.yul\":5144:5146   */\n      0x20\n        /* \"GMD_flat.sol\":2350:2413  require(_status != _ENTERED, \"ReentrancyGuard: reentrant call\") */\n      0x04\n      dup3\n      add\n        /* \"#utility.yul\":5126:5147   */\n      mstore\n        /* \"#utility.yul\":5183:5185   */\n      0x1f\n        /* \"#utility.yul\":5163:5181   */\n      0x24\n      dup3\n      add\n        /* \"#utility.yul\":5156:5186   */\n      mstore\n        /* \"#utility.yul\":5222:5255   */\n      0x5265656e7472616e637947756172643a207265656e7472616e742063616c6c00\n        /* \"#utility.yul\":5202:5220   */\n      0x44\n      dup3\n      add\n        /* \"#utility.yul\":5195:5256   */\n      mstore\n        /* \"#utility.yul\":5273:5291   */\n      0x64\n      add\n        /* \"GMD_flat.sol\":2350:2413  require(_status != _ENTERED, \"ReentrancyGuard: reentrant call\") */\n      tag_195\n        /* \"#utility.yul\":4942:5297   */\n      jump\n        /* \"GMD_flat.sol\":2350:2413  require(_status != _ENTERED, \"ReentrancyGuard: reentrant call\") */\n    tag_212:\n        /* \"GMD_flat.sol\":1777:1778  2 */\n      0x02\n        /* \"GMD_flat.sol\":2488:2495  _status */\n      0x06\n        /* \"GMD_flat.sol\":2488:2506  _status = _ENTERED */\n      sstore\n        /* \"GMD_flat.sol\":46848:46858  msg.sender */\n      caller\n        /* \"GMD_flat.sol\":46874:46875  0 */\n      0x00\n        /* \"GMD_flat.sol\":46839:46859  userInfo[msg.sender] */\n      swap1\n      dup2\n      mstore\n        /* \"GMD_flat.sol\":46839:46847  userInfo */\n      0x07\n        /* \"GMD_flat.sol\":46839:46859  userInfo[msg.sender] */\n      0x20\n      mstore\n      0x40\n      swap1\n      keccak256\n        /* \"GMD_flat.sol\":46839:46871  userInfo[msg.sender].totalMinted */\n      sload\n        /* \"GMD_flat.sol\":46831:46887  require(userInfo[msg.sender].totalMinted > 0, \"no mint\") */\n      tag_216\n      jumpi\n      mload(0x40)\n      shl(0xe5, 0x461bcd)\n      dup2\n      mstore\n        /* \"#utility.yul\":5504:5506   */\n      0x20\n        /* \"GMD_flat.sol\":46831:46887  require(userInfo[msg.sender].totalMinted > 0, \"no mint\") */\n      0x04\n      dup3\n      add\n        /* \"#utility.yul\":5486:5507   */\n      mstore\n        /* \"#utility.yul\":5543:5544   */\n      0x07\n        /* \"#utility.yul\":5523:5541   */\n      0x24\n      dup3\n      add\n        /* \"#utility.yul\":5516:5545   */\n      mstore\n      shl(0xca, 0x1b9bc81b5a5b9d)\n        /* \"#utility.yul\":5561:5579   */\n      0x44\n      dup3\n      add\n        /* \"#utility.yul\":5554:5591   */\n      mstore\n        /* \"#utility.yul\":5608:5626   */\n      0x64\n      add\n        /* \"GMD_flat.sol\":46831:46887  require(userInfo[msg.sender].totalMinted > 0, \"no mint\") */\n      tag_195\n        /* \"#utility.yul\":5302:5632   */\n      jump\n        /* \"GMD_flat.sol\":46831:46887  require(userInfo[msg.sender].totalMinted > 0, \"no mint\") */\n    tag_216:\n        /* \"GMD_flat.sol\":46945:46955  msg.sender */\n      caller\n        /* \"GMD_flat.sol\":46897:46913  uint256 timePass */\n      0x00\n        /* \"GMD_flat.sol\":46936:46956  userInfo[msg.sender] */\n      swap1\n      dup2\n      mstore\n        /* \"GMD_flat.sol\":46936:46944  userInfo */\n      0x07\n        /* \"GMD_flat.sol\":46936:46956  userInfo[msg.sender] */\n      0x20\n      mstore\n      0x40\n      dup2\n      keccak256\n        /* \"GMD_flat.sol\":46936:46976  userInfo[msg.sender].lastInteractionTime */\n      0x01\n      add\n      sload\n        /* \"GMD_flat.sol\":46916:46977  block.timestamp.sub(userInfo[msg.sender].lastInteractionTime) */\n      tag_219\n      swap1\n        /* \"GMD_flat.sol\":46916:46931  block.timestamp */\n      timestamp\n      swap1\n        /* \"GMD_flat.sol\":46916:46935  block.timestamp.sub */\n      tag_156\n        /* \"GMD_flat.sol\":46916:46977  block.timestamp.sub(userInfo[msg.sender].lastInteractionTime) */\n      jump\t// in\n    tag_219:\n        /* \"GMD_flat.sol\":47039:47049  msg.sender */\n      caller\n        /* \"GMD_flat.sol\":46987:47004  uint256 claimable */\n      0x00\n        /* \"GMD_flat.sol\":47030:47050  userInfo[msg.sender] */\n      swap1\n      dup2\n      mstore\n        /* \"GMD_flat.sol\":47030:47038  userInfo */\n      0x07\n        /* \"GMD_flat.sol\":47030:47050  userInfo[msg.sender] */\n      0x20\n      mstore\n      0x40\n      dup2\n      keccak256\n        /* \"GMD_flat.sol\":47030:47061  userInfo[msg.sender].VestPeriod */\n      0x02\n      add\n      sload\n        /* \"GMD_flat.sol\":46897:46977  uint256 timePass = block.timestamp.sub(userInfo[msg.sender].lastInteractionTime) */\n      swap2\n      swap3\n      pop\n        /* \"GMD_flat.sol\":46987:47004  uint256 claimable */\n      swap1\n        /* \"GMD_flat.sol\":47018:47061  timePass >= userInfo[msg.sender].VestPeriod */\n      dup3\n      lt\n        /* \"GMD_flat.sol\":47014:47420  if (timePass >= userInfo[msg.sender].VestPeriod){... */\n      tag_220\n      jumpi\n      pop\n        /* \"GMD_flat.sol\":47097:47107  msg.sender */\n      caller\n        /* \"GMD_flat.sol\":47088:47108  userInfo[msg.sender] */\n      0x00\n      swap1\n      dup2\n      mstore\n        /* \"GMD_flat.sol\":47088:47096  userInfo */\n      0x07\n        /* \"GMD_flat.sol\":47088:47108  userInfo[msg.sender] */\n      0x20\n      mstore\n      0x40\n      dup2\n      keccak256\n        /* \"GMD_flat.sol\":47088:47120  userInfo[msg.sender].totalMinted */\n      dup1\n      sload\n        /* \"GMD_flat.sol\":47134:47165  userInfo[msg.sender].VestPeriod */\n      0x02\n      swap1\n      swap2\n      add\n        /* \"GMD_flat.sol\":47134:47169  userInfo[msg.sender].VestPeriod = 0 */\n      swap2\n      swap1\n      swap2\n      sstore\n        /* \"GMD_flat.sol\":47014:47420  if (timePass >= userInfo[msg.sender].VestPeriod){... */\n      jump(tag_221)\n    tag_220:\n        /* \"GMD_flat.sol\":47280:47290  msg.sender */\n      caller\n        /* \"GMD_flat.sol\":47271:47291  userInfo[msg.sender] */\n      0x00\n      swap1\n      dup2\n      mstore\n        /* \"GMD_flat.sol\":47271:47279  userInfo */\n      0x07\n        /* \"GMD_flat.sol\":47271:47291  userInfo[msg.sender] */\n      0x20\n      mstore\n      0x40\n      swap1\n      keccak256\n        /* \"GMD_flat.sol\":47271:47302  userInfo[msg.sender].VestPeriod */\n      0x02\n      dup2\n      add\n      sload\n        /* \"GMD_flat.sol\":47220:47252  userInfo[msg.sender].totalMinted */\n      swap1\n      sload\n        /* \"GMD_flat.sol\":47220:47303  userInfo[msg.sender].totalMinted.mul(timePass).div(userInfo[msg.sender].VestPeriod) */\n      tag_222\n      swap2\n        /* \"GMD_flat.sol\":47271:47302  userInfo[msg.sender].VestPeriod */\n      swap1\n        /* \"GMD_flat.sol\":47220:47266  userInfo[msg.sender].totalMinted.mul(timePass) */\n      tag_223\n      swap1\n        /* \"GMD_flat.sol\":47257:47265  timePass */\n      dup6\n        /* \"GMD_flat.sol\":47220:47256  userInfo[msg.sender].totalMinted.mul */\n      tag_224\n        /* \"GMD_flat.sol\":47220:47266  userInfo[msg.sender].totalMinted.mul(timePass) */\n      jump\t// in\n    tag_223:\n        /* \"GMD_flat.sol\":47220:47270  userInfo[msg.sender].totalMinted.mul(timePass).div */\n      swap1\n      tag_225\n        /* \"GMD_flat.sol\":47220:47303  userInfo[msg.sender].totalMinted.mul(timePass).div(userInfo[msg.sender].VestPeriod) */\n      jump\t// in\n    tag_222:\n        /* \"GMD_flat.sol\":47360:47370  msg.sender */\n      caller\n        /* \"GMD_flat.sol\":47351:47371  userInfo[msg.sender] */\n      0x00\n      swap1\n      dup2\n      mstore\n        /* \"GMD_flat.sol\":47351:47359  userInfo */\n      0x07\n        /* \"GMD_flat.sol\":47351:47371  userInfo[msg.sender] */\n      0x20\n      mstore\n      0x40\n      swap1\n      keccak256\n        /* \"GMD_flat.sol\":47351:47382  userInfo[msg.sender].VestPeriod */\n      0x02\n      add\n      sload\n        /* \"GMD_flat.sol\":47208:47303  claimable = userInfo[msg.sender].totalMinted.mul(timePass).div(userInfo[msg.sender].VestPeriod) */\n      swap1\n      swap2\n      pop\n        /* \"GMD_flat.sol\":47351:47396  userInfo[msg.sender].VestPeriod.sub(timePass) */\n      tag_226\n      swap1\n        /* \"GMD_flat.sol\":47387:47395  timePass */\n      dup4\n        /* \"GMD_flat.sol\":47351:47386  userInfo[msg.sender].VestPeriod.sub */\n      tag_156\n        /* \"GMD_flat.sol\":47351:47396  userInfo[msg.sender].VestPeriod.sub(timePass) */\n      jump\t// in\n    tag_226:\n        /* \"GMD_flat.sol\":47326:47336  msg.sender */\n      caller\n        /* \"GMD_flat.sol\":47317:47337  userInfo[msg.sender] */\n      0x00\n      swap1\n      dup2\n      mstore\n        /* \"GMD_flat.sol\":47317:47325  userInfo */\n      0x07\n        /* \"GMD_flat.sol\":47317:47337  userInfo[msg.sender] */\n      0x20\n      mstore\n      0x40\n      swap1\n      keccak256\n        /* \"GMD_flat.sol\":47317:47348  userInfo[msg.sender].VestPeriod */\n      0x02\n      add\n        /* \"GMD_flat.sol\":47317:47396  userInfo[msg.sender].VestPeriod = userInfo[msg.sender].VestPeriod.sub(timePass) */\n      sstore\n        /* \"GMD_flat.sol\":47014:47420  if (timePass >= userInfo[msg.sender].VestPeriod){... */\n    tag_221:\n        /* \"GMD_flat.sol\":47473:47483  msg.sender */\n      caller\n        /* \"GMD_flat.sol\":47464:47484  userInfo[msg.sender] */\n      0x00\n      swap1\n      dup2\n      mstore\n        /* \"GMD_flat.sol\":47464:47472  userInfo */\n      0x07\n        /* \"GMD_flat.sol\":47464:47484  userInfo[msg.sender] */\n      0x20\n      mstore\n      0x40\n      swap1\n      keccak256\n        /* \"GMD_flat.sol\":47464:47496  userInfo[msg.sender].totalMinted */\n      sload\n        /* \"GMD_flat.sol\":47464:47511  userInfo[msg.sender].totalMinted.sub(claimable) */\n      tag_227\n      swap1\n        /* \"GMD_flat.sol\":47501:47510  claimable */\n      dup3\n        /* \"GMD_flat.sol\":47464:47500  userInfo[msg.sender].totalMinted.sub */\n      tag_156\n        /* \"GMD_flat.sol\":47464:47511  userInfo[msg.sender].totalMinted.sub(claimable) */\n      jump\t// in\n    tag_227:\n        /* \"GMD_flat.sol\":47438:47448  msg.sender */\n      caller\n        /* \"GMD_flat.sol\":47429:47449  userInfo[msg.sender] */\n      0x00\n      dup2\n      dup2\n      mstore\n        /* \"GMD_flat.sol\":47429:47437  userInfo */\n      0x07\n        /* \"GMD_flat.sol\":47429:47449  userInfo[msg.sender] */\n      0x20\n      mstore\n      0x40\n      swap1\n      dup2\n      swap1\n      keccak256\n        /* \"GMD_flat.sol\":47429:47511  userInfo[msg.sender].totalMinted = userInfo[msg.sender].totalMinted.sub(claimable) */\n      swap3\n      dup4\n      sstore\n        /* \"GMD_flat.sol\":47564:47579  block.timestamp */\n      timestamp\n        /* \"GMD_flat.sol\":47521:47561  userInfo[msg.sender].lastInteractionTime */\n      0x01\n      swap1\n      swap4\n      add\n        /* \"GMD_flat.sol\":47521:47579  userInfo[msg.sender].lastInteractionTime = block.timestamp */\n      swap3\n      swap1\n      swap3\n      sstore\n        /* \"GMD_flat.sol\":47590:47626  this.transfer(msg.sender, claimable) */\n      swap1\n      mload\n      shl(0xe0, 0xa9059cbb)\n      dup2\n      mstore\n      0x04\n      dup2\n      add\n        /* \"#utility.yul\":5811:5862   */\n      swap2\n      swap1\n      swap2\n      mstore\n        /* \"#utility.yul\":5878:5896   */\n      0x24\n      dup2\n      add\n        /* \"#utility.yul\":5871:5905   */\n      dup3\n      swap1\n      mstore\n        /* \"GMD_flat.sol\":47590:47594  this */\n      address\n      swap1\n        /* \"GMD_flat.sol\":47590:47603  this.transfer */\n      0xa9059cbb\n      swap1\n        /* \"#utility.yul\":5784:5802   */\n      0x44\n      add\n        /* \"GMD_flat.sol\":47590:47626  this.transfer(msg.sender, claimable) */\n      0x20\n      mload(0x40)\n      dup1\n      dup4\n      sub\n      dup2\n      0x00\n      dup8\n      gas\n      call\n      iszero\n      dup1\n      iszero\n      tag_231\n      jumpi\n      returndatasize\n      0x00\n      dup1\n      returndatacopy\n      revert(0x00, returndatasize)\n    tag_231:\n      pop\n      pop\n      pop\n      pop\n      mload(0x40)\n      returndatasize\n      not(0x1f)\n      0x1f\n      dup3\n      add\n      and\n      dup3\n      add\n      dup1\n      0x40\n      mstore\n      pop\n      dup2\n      add\n      swap1\n      tag_232\n      swap2\n      swap1\n      tag_233\n      jump\t// in\n    tag_232:\n      pop\n      pop\n        /* \"GMD_flat.sol\":1734:1735  1 */\n      0x01\n        /* \"GMD_flat.sol\":2661:2668  _status */\n      0x06\n        /* \"GMD_flat.sol\":2661:2683  _status = _NOT_ENTERED */\n      sstore\n      pop\n        /* \"GMD_flat.sol\":46781:47633  function claim() external nonReentrant {... */\n      jump\t// out\n        /* \"GMD_flat.sol\":22823:22924  function renounceOwnership() public virtual onlyOwner {... */\n    tag_103:\n        /* \"GMD_flat.sol\":22086:22099  _checkOwner() */\n      tag_236\n        /* \"GMD_flat.sol\":22086:22097  _checkOwner */\n      tag_188\n        /* \"GMD_flat.sol\":22086:22099  _checkOwner() */\n      jump\t// in\n    tag_236:\n        /* \"GMD_flat.sol\":22887:22917  _transferOwnership(address(0)) */\n      tag_203\n        /* \"GMD_flat.sol\":22914:22915  0 */\n      0x00\n        /* \"GMD_flat.sol\":22887:22905  _transferOwnership */\n      tag_239\n        /* \"GMD_flat.sol\":22887:22917  _transferOwnership(address(0)) */\n      jump\t// in\n        /* \"GMD_flat.sol\":45281:45757  function claimableTokens(address _address) external view returns(uint256) {... */\n    tag_112:\n      sub(shl(0xa0, 0x01), 0x01)\n        /* \"GMD_flat.sol\":45404:45422  userInfo[_address] */\n      dup2\n      and\n        /* \"GMD_flat.sol\":45346:45353  uint256 */\n      0x00\n        /* \"GMD_flat.sol\":45404:45422  userInfo[_address] */\n      swap1\n      dup2\n      mstore\n        /* \"GMD_flat.sol\":45404:45412  userInfo */\n      0x07\n        /* \"GMD_flat.sol\":45404:45422  userInfo[_address] */\n      0x20\n      mstore\n      0x40\n      dup2\n      keccak256\n        /* \"GMD_flat.sol\":45404:45442  userInfo[_address].lastInteractionTime */\n      0x01\n      add\n      sload\n        /* \"GMD_flat.sol\":45346:45353  uint256 */\n      dup2\n      swap1\n        /* \"GMD_flat.sol\":45384:45443  block.timestamp.sub(userInfo[_address].lastInteractionTime) */\n      tag_241\n      swap1\n        /* \"GMD_flat.sol\":45384:45399  block.timestamp */\n      timestamp\n      swap1\n        /* \"GMD_flat.sol\":45384:45403  block.timestamp.sub */\n      tag_156\n        /* \"GMD_flat.sol\":45384:45443  block.timestamp.sub(userInfo[_address].lastInteractionTime) */\n      jump\t// in\n    tag_241:\n        /* \"GMD_flat.sol\":45505:45515  msg.sender */\n      caller\n        /* \"GMD_flat.sol\":45453:45470  uint256 claimable */\n      0x00\n        /* \"GMD_flat.sol\":45496:45516  userInfo[msg.sender] */\n      swap1\n      dup2\n      mstore\n        /* \"GMD_flat.sol\":45496:45504  userInfo */\n      0x07\n        /* \"GMD_flat.sol\":45496:45516  userInfo[msg.sender] */\n      0x20\n      mstore\n      0x40\n      dup2\n      keccak256\n        /* \"GMD_flat.sol\":45496:45527  userInfo[msg.sender].VestPeriod */\n      0x02\n      add\n      sload\n        /* \"GMD_flat.sol\":45365:45443  uint256 timePass = block.timestamp.sub(userInfo[_address].lastInteractionTime) */\n      swap2\n      swap3\n      pop\n        /* \"GMD_flat.sol\":45453:45470  uint256 claimable */\n      swap1\n        /* \"GMD_flat.sol\":45484:45527  timePass >= userInfo[msg.sender].VestPeriod */\n      dup3\n      lt\n        /* \"GMD_flat.sol\":45480:45725  if (timePass >= userInfo[msg.sender].VestPeriod){... */\n      tag_242\n      jumpi\n      pop\n      sub(shl(0xa0, 0x01), 0x01)\n        /* \"GMD_flat.sol\":45554:45572  userInfo[_address] */\n      dup4\n      and\n      0x00\n      swap1\n      dup2\n      mstore\n        /* \"GMD_flat.sol\":45554:45562  userInfo */\n      0x07\n        /* \"GMD_flat.sol\":45554:45572  userInfo[_address] */\n      0x20\n      mstore\n      0x40\n      swap1\n      keccak256\n        /* \"GMD_flat.sol\":45554:45584  userInfo[_address].totalMinted */\n      sload\n        /* \"GMD_flat.sol\":45480:45725  if (timePass >= userInfo[msg.sender].VestPeriod){... */\n      jump(tag_159)\n    tag_242:\n      sub(shl(0xa0, 0x01), 0x01)\n        /* \"GMD_flat.sol\":45684:45702  userInfo[_address] */\n      dup5\n      and\n      0x00\n      swap1\n      dup2\n      mstore\n        /* \"GMD_flat.sol\":45684:45692  userInfo */\n      0x07\n        /* \"GMD_flat.sol\":45684:45702  userInfo[_address] */\n      0x20\n      mstore\n      0x40\n      swap1\n      keccak256\n        /* \"GMD_flat.sol\":45684:45713  userInfo[_address].VestPeriod */\n      0x02\n      dup2\n      add\n      sload\n        /* \"GMD_flat.sol\":45635:45665  userInfo[_address].totalMinted */\n      swap1\n      sload\n        /* \"GMD_flat.sol\":45635:45714  userInfo[_address].totalMinted.mul(timePass).div(userInfo[_address].VestPeriod) */\n      tag_244\n      swap2\n        /* \"GMD_flat.sol\":45684:45713  userInfo[_address].VestPeriod */\n      swap1\n        /* \"GMD_flat.sol\":45635:45679  userInfo[_address].totalMinted.mul(timePass) */\n      tag_223\n      swap1\n        /* \"GMD_flat.sol\":45670:45678  timePass */\n      dup6\n        /* \"GMD_flat.sol\":45635:45669  userInfo[_address].totalMinted.mul */\n      tag_224\n        /* \"GMD_flat.sol\":45635:45679  userInfo[_address].totalMinted.mul(timePass) */\n      jump\t// in\n        /* \"GMD_flat.sol\":45635:45714  userInfo[_address].totalMinted.mul(timePass).div(userInfo[_address].VestPeriod) */\n    tag_244:\n        /* \"GMD_flat.sol\":45623:45714  claimable = userInfo[_address].totalMinted.mul(timePass).div(userInfo[_address].VestPeriod) */\n      swap5\n        /* \"GMD_flat.sol\":45741:45750  claimable */\n      swap4\n      pop\n      pop\n      pop\n      pop\n        /* \"GMD_flat.sol\":45281:45757  function claimableTokens(address _address) external view returns(uint256) {... */\n      jump\t// out\n        /* \"GMD_flat.sol\":33796:33898  function symbol() public view virtual override returns (string memory) {... */\n    tag_123:\n        /* \"GMD_flat.sol\":33852:33865  string memory */\n      0x60\n        /* \"GMD_flat.sol\":33884:33891  _symbol */\n      0x04\n        /* \"GMD_flat.sol\":33877:33891  return _symbol */\n      dup1\n      sload\n      tag_161\n      swap1\n      tag_162\n      jump\t// in\n        /* \"GMD_flat.sol\":45996:46775  function mint(uint256 _amount) external nonReentrant {... */\n    tag_127:\n        /* \"GMD_flat.sol\":1777:1778  2 */\n      0x02\n        /* \"GMD_flat.sol\":2358:2365  _status */\n      sload(0x06)\n        /* \"GMD_flat.sol\":2358:2377  _status != _ENTERED */\n      eq\n      iszero\n        /* \"GMD_flat.sol\":2350:2413  require(_status != _ENTERED, \"ReentrancyGuard: reentrant call\") */\n      tag_254\n      jumpi\n      mload(0x40)\n      shl(0xe5, 0x461bcd)\n      dup2\n      mstore\n        /* \"#utility.yul\":5144:5146   */\n      0x20\n        /* \"GMD_flat.sol\":2350:2413  require(_status != _ENTERED, \"ReentrancyGuard: reentrant call\") */\n      0x04\n      dup3\n      add\n        /* \"#utility.yul\":5126:5147   */\n      mstore\n        /* \"#utility.yul\":5183:5185   */\n      0x1f\n        /* \"#utility.yul\":5163:5181   */\n      0x24\n      dup3\n      add\n        /* \"#utility.yul\":5156:5186   */\n      mstore\n        /* \"#utility.yul\":5222:5255   */\n      0x5265656e7472616e637947756172643a207265656e7472616e742063616c6c00\n        /* \"#utility.yul\":5202:5220   */\n      0x44\n      dup3\n      add\n        /* \"#utility.yul\":5195:5256   */\n      mstore\n        /* \"#utility.yul\":5273:5291   */\n      0x64\n      add\n        /* \"GMD_flat.sol\":2350:2413  require(_status != _ENTERED, \"ReentrancyGuard: reentrant call\") */\n      tag_195\n        /* \"#utility.yul\":4942:5297   */\n      jump\n        /* \"GMD_flat.sol\":2350:2413  require(_status != _ENTERED, \"ReentrancyGuard: reentrant call\") */\n    tag_254:\n        /* \"GMD_flat.sol\":1777:1778  2 */\n      0x02\n        /* \"GMD_flat.sol\":2488:2495  _status */\n      0x06\n        /* \"GMD_flat.sol\":2488:2506  _status = _ENTERED */\n      sstore\n        /* \"GMD_flat.sol\":46079:46089  2000000000 */\n      0x77359400\n        /* \"GMD_flat.sol\":46068:46089  _amount <= 2000000000 */\n      dup2\n      gt\n      iszero\n        /* \"GMD_flat.sol\":46060:46114  require(_amount <= 2000000000, \"max 2000 usdc per tx\") */\n      tag_257\n      jumpi\n      mload(0x40)\n      shl(0xe5, 0x461bcd)\n      dup2\n      mstore\n        /* \"#utility.yul\":6368:6370   */\n      0x20\n        /* \"GMD_flat.sol\":46060:46114  require(_amount <= 2000000000, \"max 2000 usdc per tx\") */\n      0x04\n      dup3\n      add\n        /* \"#utility.yul\":6350:6371   */\n      mstore\n        /* \"#utility.yul\":6407:6409   */\n      0x14\n        /* \"#utility.yul\":6387:6405   */\n      0x24\n      dup3\n      add\n        /* \"#utility.yul\":6380:6410   */\n      mstore\n      shl(0x63, 0x0dac2f0406460606040eae6c8c640e0cae440e8f)\n        /* \"#utility.yul\":6426:6444   */\n      0x44\n      dup3\n      add\n        /* \"#utility.yul\":6419:6469   */\n      mstore\n        /* \"#utility.yul\":6486:6504   */\n      0x64\n      add\n        /* \"GMD_flat.sol\":46060:46114  require(_amount <= 2000000000, \"max 2000 usdc per tx\") */\n      tag_195\n        /* \"#utility.yul\":6166:6510   */\n      jump\n        /* \"GMD_flat.sol\":46060:46114  require(_amount <= 2000000000, \"max 2000 usdc per tx\") */\n    tag_257:\n        /* \"GMD_flat.sol\":46132:46140  mintOpen */\n      and(0xff, sload(0x0b))\n        /* \"GMD_flat.sol\":46124:46160  require(mintOpen, \"mint not opened\") */\n      tag_260\n      jumpi\n      mload(0x40)\n      shl(0xe5, 0x461bcd)\n      dup2\n      mstore\n        /* \"#utility.yul\":6717:6719   */\n      0x20\n        /* \"GMD_flat.sol\":46124:46160  require(mintOpen, \"mint not opened\") */\n      0x04\n      dup3\n      add\n        /* \"#utility.yul\":6699:6720   */\n      mstore\n        /* \"#utility.yul\":6756:6758   */\n      0x0f\n        /* \"#utility.yul\":6736:6754   */\n      0x24\n      dup3\n      add\n        /* \"#utility.yul\":6729:6759   */\n      mstore\n      shl(0x8a, 0x1b5a5b9d081b9bdd081bdc195b9959)\n        /* \"#utility.yul\":6775:6793   */\n      0x44\n      dup3\n      add\n        /* \"#utility.yul\":6768:6813   */\n      mstore\n        /* \"#utility.yul\":6830:6848   */\n      0x64\n      add\n        /* \"GMD_flat.sol\":46124:46160  require(mintOpen, \"mint not opened\") */\n      tag_195\n        /* \"#utility.yul\":6515:6854   */\n      jump\n        /* \"GMD_flat.sol\":46124:46160  require(mintOpen, \"mint not opened\") */\n    tag_260:\n        /* \"GMD_flat.sol\":46178:46182  USDC */\n      sload(0x0b)\n        /* \"GMD_flat.sol\":46178:46204  USDC.balanceOf(msg.sender) */\n      mload(0x40)\n      shl(0xe0, 0x70a08231)\n      dup2\n      mstore\n        /* \"GMD_flat.sol\":46193:46203  msg.sender */\n      caller\n        /* \"GMD_flat.sol\":46178:46204  USDC.balanceOf(msg.sender) */\n      0x04\n      dup3\n      add\n        /* \"#utility.yul\":2858:2909   */\n      mstore\n        /* \"GMD_flat.sol\":46208:46215  _amount */\n      dup3\n      swap2\n        /* \"GMD_flat.sol\":46178:46182  USDC */\n      0x0100\n      swap1\n      div\n      sub(shl(0xa0, 0x01), 0x01)\n      and\n      swap1\n        /* \"GMD_flat.sol\":46178:46192  USDC.balanceOf */\n      0x70a08231\n      swap1\n        /* \"#utility.yul\":2831:2849   */\n      0x24\n      add\n        /* \"GMD_flat.sol\":46178:46204  USDC.balanceOf(msg.sender) */\n      0x20\n      mload(0x40)\n      dup1\n      dup4\n      sub\n      dup2\n      dup7\n      gas\n      staticcall\n      iszero\n      dup1\n      iszero\n      tag_265\n      jumpi\n      returndatasize\n      0x00\n      dup1\n      returndatacopy\n      revert(0x00, returndatasize)\n    tag_265:\n      pop\n      pop\n      pop\n      pop\n      mload(0x40)\n      returndatasize\n      not(0x1f)\n      0x1f\n      dup3\n      add\n      and\n      dup3\n      add\n      dup1\n      0x40\n      mstore\n      pop\n      dup2\n      add\n      swap1\n      tag_266\n      swap2\n      swap1\n      tag_209\n      jump\t// in\n    tag_266:\n        /* \"GMD_flat.sol\":46178:46215  USDC.balanceOf(msg.sender) >= _amount */\n      lt\n      iszero\n        /* \"GMD_flat.sol\":46170:46240  require(USDC.balanceOf(msg.sender) >= _amount, \"USDC balance too low\") */\n      tag_267\n      jumpi\n      mload(0x40)\n      shl(0xe5, 0x461bcd)\n      dup2\n      mstore\n        /* \"#utility.yul\":7061:7063   */\n      0x20\n        /* \"GMD_flat.sol\":46170:46240  require(USDC.balanceOf(msg.sender) >= _amount, \"USDC balance too low\") */\n      0x04\n      dup3\n      add\n        /* \"#utility.yul\":7043:7064   */\n      mstore\n        /* \"#utility.yul\":7100:7102   */\n      0x14\n        /* \"#utility.yul\":7080:7098   */\n      0x24\n      dup3\n      add\n        /* \"#utility.yul\":7073:7103   */\n      mstore\n      shl(0x60, 0x555344432062616c616e636520746f6f206c6f77)\n        /* \"#utility.yul\":7119:7137   */\n      0x44\n      dup3\n      add\n        /* \"#utility.yul\":7112:7162   */\n      mstore\n        /* \"#utility.yul\":7179:7197   */\n      0x64\n      add\n        /* \"GMD_flat.sol\":46170:46240  require(USDC.balanceOf(msg.sender) >= _amount, \"USDC balance too low\") */\n      tag_195\n        /* \"#utility.yul\":6859:7203   */\n      jump\n        /* \"GMD_flat.sol\":46170:46240  require(USDC.balanceOf(msg.sender) >= _amount, \"USDC balance too low\") */\n    tag_267:\n        /* \"GMD_flat.sol\":46250:46267  uint256 _amountin */\n      0x00\n        /* \"GMD_flat.sol\":46270:46289  _amount.mul(10**12) */\n      tag_270\n        /* \"GMD_flat.sol\":46270:46277  _amount */\n      dup3\n        /* \"GMD_flat.sol\":46282:46288  10**12 */\n      0xe8d4a51000\n        /* \"GMD_flat.sol\":46270:46281  _amount.mul */\n      tag_224\n        /* \"GMD_flat.sol\":46270:46289  _amount.mul(10**12) */\n      jump\t// in\n    tag_270:\n        /* \"GMD_flat.sol\":46250:46289  uint256 _amountin = _amount.mul(10**12) */\n      swap1\n      pop\n        /* \"GMD_flat.sol\":46299:46316  uint256 amountOut */\n      0x00\n        /* \"GMD_flat.sol\":46319:46353  _amountin.mul(1000).div(mintPrice) */\n      tag_271\n        /* \"GMD_flat.sol\":46343:46352  mintPrice */\n      sload(0x08)\n        /* \"GMD_flat.sol\":46319:46338  _amountin.mul(1000) */\n      tag_223\n        /* \"GMD_flat.sol\":46333:46337  1000 */\n      0x03e8\n        /* \"GMD_flat.sol\":46319:46328  _amountin */\n      dup6\n        /* \"GMD_flat.sol\":46319:46332  _amountin.mul */\n      tag_224\n      swap1\n        /* \"GMD_flat.sol\":46319:46338  _amountin.mul(1000) */\n      swap2\n      swap1\n      0xffffffff\n      and\n      jump\t// in\n        /* \"GMD_flat.sol\":46319:46353  _amountin.mul(1000).div(mintPrice) */\n    tag_271:\n        /* \"GMD_flat.sol\":46299:46353  uint256 amountOut = _amountin.mul(1000).div(mintPrice) */\n      swap1\n      pop\n        /* \"GMD_flat.sol\":46417:46424  mintCap */\n      sload(0x09)\n        /* \"GMD_flat.sol\":46380:46413  this.totalSupply().add(amountOut) */\n      tag_273\n        /* \"GMD_flat.sol\":46403:46412  amountOut */\n      dup3\n        /* \"GMD_flat.sol\":46380:46384  this */\n      address\n      sub(shl(0xa0, 0x01), 0x01)\n        /* \"GMD_flat.sol\":46380:46396  this.totalSupply */\n      and\n      0x18160ddd\n        /* \"GMD_flat.sol\":46380:46398  this.totalSupply() */\n      mload(0x40)\n      dup2\n      0xffffffff\n      and\n      0xe0\n      shl\n      dup2\n      mstore\n      0x04\n      add\n      0x20\n      mload(0x40)\n      dup1\n      dup4\n      sub\n      dup2\n      dup7\n      gas\n      staticcall\n      iszero\n      dup1\n      iszero\n      tag_275\n      jumpi\n      returndatasize\n      0x00\n      dup1\n      returndatacopy\n      revert(0x00, returndatasize)\n    tag_275:\n      pop\n      pop\n      pop\n      pop\n      mload(0x40)\n      returndatasize\n      not(0x1f)\n      0x1f\n      dup3\n      add\n      and\n      dup3\n      add\n      dup1\n      0x40\n      mstore\n      pop\n      dup2\n      add\n      swap1\n      tag_276\n      swap2\n      swap1\n      tag_209\n      jump\t// in\n    tag_276:\n        /* \"GMD_flat.sol\":46380:46402  this.totalSupply().add */\n      swap1\n      tag_277\n        /* \"GMD_flat.sol\":46380:46413  this.totalSupply().add(amountOut) */\n      jump\t// in\n    tag_273:\n        /* \"GMD_flat.sol\":46380:46424  this.totalSupply().add(amountOut) <= mintCap */\n      gt\n      iszero\n        /* \"GMD_flat.sol\":46372:46442  require(this.totalSupply().add(amountOut) <= mintCap, \"over mint cap\") */\n      tag_278\n      jumpi\n      mload(0x40)\n      shl(0xe5, 0x461bcd)\n      dup2\n      mstore\n        /* \"#utility.yul\":7410:7412   */\n      0x20\n        /* \"GMD_flat.sol\":46372:46442  require(this.totalSupply().add(amountOut) <= mintCap, \"over mint cap\") */\n      0x04\n      dup3\n      add\n        /* \"#utility.yul\":7392:7413   */\n      mstore\n        /* \"#utility.yul\":7449:7451   */\n      0x0d\n        /* \"#utility.yul\":7429:7447   */\n      0x24\n      dup3\n      add\n        /* \"#utility.yul\":7422:7452   */\n      mstore\n      shl(0x9c, 0x06f766572206d696e742063617)\n        /* \"#utility.yul\":7468:7486   */\n      0x44\n      dup3\n      add\n        /* \"#utility.yul\":7461:7504   */\n      mstore\n        /* \"#utility.yul\":7521:7539   */\n      0x64\n      add\n        /* \"GMD_flat.sol\":46372:46442  require(this.totalSupply().add(amountOut) <= mintCap, \"over mint cap\") */\n      tag_195\n        /* \"#utility.yul\":7208:7545   */\n      jump\n        /* \"GMD_flat.sol\":46372:46442  require(this.totalSupply().add(amountOut) <= mintCap, \"over mint cap\") */\n    tag_278:\n        /* \"GMD_flat.sol\":46496:46506  msg.sender */\n      caller\n        /* \"GMD_flat.sol\":46487:46507  userInfo[msg.sender] */\n      0x00\n      swap1\n      dup2\n      mstore\n        /* \"GMD_flat.sol\":46487:46495  userInfo */\n      0x07\n        /* \"GMD_flat.sol\":46487:46507  userInfo[msg.sender] */\n      0x20\n      mstore\n      0x40\n      swap1\n      keccak256\n        /* \"GMD_flat.sol\":46487:46519  userInfo[msg.sender].totalMinted */\n      sload\n        /* \"GMD_flat.sol\":46487:46534  userInfo[msg.sender].totalMinted.add(amountOut) */\n      tag_281\n      swap1\n        /* \"GMD_flat.sol\":46524:46533  amountOut */\n      dup3\n        /* \"GMD_flat.sol\":46487:46523  userInfo[msg.sender].totalMinted.add */\n      tag_277\n        /* \"GMD_flat.sol\":46487:46534  userInfo[msg.sender].totalMinted.add(amountOut) */\n      jump\t// in\n    tag_281:\n        /* \"GMD_flat.sol\":46461:46471  msg.sender */\n      caller\n        /* \"GMD_flat.sol\":46452:46472  userInfo[msg.sender] */\n      0x00\n      swap1\n      dup2\n      mstore\n        /* \"GMD_flat.sol\":46452:46460  userInfo */\n      0x07\n        /* \"GMD_flat.sol\":46452:46472  userInfo[msg.sender] */\n      0x20\n      mstore\n      0x40\n      swap1\n      keccak256\n        /* \"GMD_flat.sol\":46452:46534  userInfo[msg.sender].totalMinted = userInfo[msg.sender].totalMinted.add(amountOut) */\n      swap1\n      dup2\n      sstore\n        /* \"GMD_flat.sol\":46587:46602  block.timestamp */\n      timestamp\n        /* \"GMD_flat.sol\":46544:46584  userInfo[msg.sender].lastInteractionTime */\n      0x01\n      dup3\n      add\n        /* \"GMD_flat.sol\":46544:46602  userInfo[msg.sender].lastInteractionTime = block.timestamp */\n      sstore\n        /* \"GMD_flat.sol\":46646:46659  vestingPeriod */\n      sload(0x0a)\n        /* \"GMD_flat.sol\":46612:46643  userInfo[msg.sender].VestPeriod */\n      0x02\n      swap1\n      swap2\n      add\n        /* \"GMD_flat.sol\":46612:46659  userInfo[msg.sender].VestPeriod = vestingPeriod */\n      sstore\n        /* \"GMD_flat.sol\":46670:46701  _mint(address(this), amountOut) */\n      tag_282\n        /* \"GMD_flat.sol\":46684:46688  this */\n      address\n        /* \"GMD_flat.sol\":46691:46700  amountOut */\n      dup3\n        /* \"GMD_flat.sol\":46670:46675  _mint */\n      tag_283\n        /* \"GMD_flat.sol\":46670:46701  _mint(address(this), amountOut) */\n      jump\t// in\n    tag_282:\n        /* \"GMD_flat.sol\":46711:46715  USDC */\n      sload(0x0b)\n        /* \"GMD_flat.sol\":46711:46768  USDC.safeTransferFrom(msg.sender, address(this), _amount) */\n      tag_232\n      swap1\n        /* \"GMD_flat.sol\":46711:46715  USDC */\n      0x0100\n      swap1\n      div\n      sub(shl(0xa0, 0x01), 0x01)\n      and\n        /* \"GMD_flat.sol\":46733:46743  msg.sender */\n      caller\n        /* \"GMD_flat.sol\":46753:46757  this */\n      address\n        /* \"GMD_flat.sol\":46760:46767  _amount */\n      dup7\n        /* \"GMD_flat.sol\":46711:46732  USDC.safeTransferFrom */\n      tag_285\n        /* \"GMD_flat.sol\":46711:46768  USDC.safeTransferFrom(msg.sender, address(this), _amount) */\n      jump\t// in\n        /* \"GMD_flat.sol\":38023:38450  function decreaseAllowance(address spender, uint256 subtractedValue) public virtual returns (bool) {... */\n    tag_130:\n        /* \"GMD_flat.sol\":38116:38120  bool */\n      0x00\n        /* \"GMD_flat.sol\":20875:20885  msg.sender */\n      caller\n        /* \"GMD_flat.sol\":38116:38120  bool */\n      dup2\n        /* \"GMD_flat.sol\":38197:38222  allowance(owner, spender) */\n      tag_288\n        /* \"GMD_flat.sol\":20875:20885  msg.sender */\n      dup3\n        /* \"GMD_flat.sol\":38214:38221  spender */\n      dup7\n        /* \"GMD_flat.sol\":38197:38206  allowance */\n      tag_139\n        /* \"GMD_flat.sol\":38197:38222  allowance(owner, spender) */\n      jump\t// in\n    tag_288:\n        /* \"GMD_flat.sol\":38170:38222  uint256 currentAllowance = allowance(owner, spender) */\n      swap1\n      pop\n        /* \"GMD_flat.sol\":38260:38275  subtractedValue */\n      dup4\n        /* \"GMD_flat.sol\":38240:38256  currentAllowance */\n      dup2\n        /* \"GMD_flat.sol\":38240:38275  currentAllowance >= subtractedValue */\n      lt\n      iszero\n        /* \"GMD_flat.sol\":38232:38317  require(currentAllowance >= subtractedValue, \"ERC20: decreased allowance below zero\") */\n      tag_289\n      jumpi\n      mload(0x40)\n      shl(0xe5, 0x461bcd)\n      dup2\n      mstore\n        /* \"#utility.yul\":7752:7754   */\n      0x20\n        /* \"GMD_flat.sol\":38232:38317  require(currentAllowance >= subtractedValue, \"ERC20: decreased allowance below zero\") */\n      0x04\n      dup3\n      add\n        /* \"#utility.yul\":7734:7755   */\n      mstore\n        /* \"#utility.yul\":7791:7793   */\n      0x25\n        /* \"#utility.yul\":7771:7789   */\n      0x24\n      dup3\n      add\n        /* \"#utility.yul\":7764:7794   */\n      mstore\n        /* \"#utility.yul\":7830:7864   */\n      0x45524332303a2064656372656173656420616c6c6f77616e63652062656c6f77\n        /* \"#utility.yul\":7810:7828   */\n      0x44\n      dup3\n      add\n        /* \"#utility.yul\":7803:7865   */\n      mstore\n      shl(0xd8, 0x207a65726f)\n        /* \"#utility.yul\":7881:7899   */\n      0x64\n      dup3\n      add\n        /* \"#utility.yul\":7874:7909   */\n      mstore\n        /* \"#utility.yul\":7926:7945   */\n      0x84\n      add\n        /* \"GMD_flat.sol\":38232:38317  require(currentAllowance >= subtractedValue, \"ERC20: decreased allowance below zero\") */\n      tag_195\n        /* \"#utility.yul\":7550:7951   */\n      jump\n        /* \"GMD_flat.sol\":38232:38317  require(currentAllowance >= subtractedValue, \"ERC20: decreased allowance below zero\") */\n    tag_289:\n        /* \"GMD_flat.sol\":38351:38411  _approve(owner, spender, currentAllowance - subtractedValue) */\n      tag_177\n        /* \"GMD_flat.sol\":38360:38365  owner */\n      dup3\n        /* \"GMD_flat.sol\":38367:38374  spender */\n      dup7\n        /* \"GMD_flat.sol\":38395:38410  subtractedValue */\n      dup7\n        /* \"GMD_flat.sol\":38376:38392  currentAllowance */\n      dup5\n        /* \"GMD_flat.sol\":38376:38410  currentAllowance - subtractedValue */\n      sub\n        /* \"GMD_flat.sol\":38351:38359  _approve */\n      tag_171\n        /* \"GMD_flat.sol\":38351:38411  _approve(owner, spender, currentAllowance - subtractedValue) */\n      jump\t// in\n        /* \"GMD_flat.sol\":35158:35347  function transfer(address to, uint256 amount) public virtual override returns (bool) {... */\n    tag_134:\n        /* \"GMD_flat.sol\":35237:35241  bool */\n      0x00\n        /* \"GMD_flat.sol\":20875:20885  msg.sender */\n      caller\n        /* \"GMD_flat.sol\":35291:35319  _transfer(owner, to, amount) */\n      tag_170\n        /* \"GMD_flat.sol\":20875:20885  msg.sender */\n      dup2\n        /* \"GMD_flat.sol\":35308:35310  to */\n      dup6\n        /* \"GMD_flat.sol\":35312:35318  amount */\n      dup6\n        /* \"GMD_flat.sol\":35291:35300  _transfer */\n      tag_178\n        /* \"GMD_flat.sol\":35291:35319  _transfer(owner, to, amount) */\n      jump\t// in\n        /* \"GMD_flat.sol\":35405:35554  function allowance(address owner, address spender) public view virtual override returns (uint256) {... */\n    tag_139:\n      sub(shl(0xa0, 0x01), 0x01)\n        /* \"GMD_flat.sol\":35520:35538  _allowances[owner] */\n      swap2\n      dup3\n      and\n        /* \"GMD_flat.sol\":35494:35501  uint256 */\n      0x00\n        /* \"GMD_flat.sol\":35520:35538  _allowances[owner] */\n      swap1\n      dup2\n      mstore\n        /* \"GMD_flat.sol\":35520:35531  _allowances */\n      0x01\n        /* \"GMD_flat.sol\":35520:35538  _allowances[owner] */\n      0x20\n      swap1\n      dup2\n      mstore\n      0x40\n      dup1\n      dup4\n      keccak256\n        /* \"GMD_flat.sol\":35520:35547  _allowances[owner][spender] */\n      swap4\n      swap1\n      swap5\n      and\n      dup3\n      mstore\n      swap2\n      swap1\n      swap2\n      mstore\n      keccak256\n      sload\n      swap1\n        /* \"GMD_flat.sol\":35405:35554  function allowance(address owner, address spender) public view virtual override returns (uint256) {... */\n      jump\t// out\n        /* \"GMD_flat.sol\":45764:45857  function setOpenMint(bool _mintOpen) external onlyOwner {... */\n    tag_144:\n        /* \"GMD_flat.sol\":22086:22099  _checkOwner() */\n      tag_298\n        /* \"GMD_flat.sol\":22086:22097  _checkOwner */\n      tag_188\n        /* \"GMD_flat.sol\":22086:22099  _checkOwner() */\n      jump\t// in\n    tag_298:\n        /* \"GMD_flat.sol\":45830:45838  mintOpen */\n      0x0b\n        /* \"GMD_flat.sol\":45830:45850  mintOpen = _mintOpen */\n      dup1\n      sload\n      not(0xff)\n      and\n      swap2\n      iszero\n      iszero\n      swap2\n      swap1\n      swap2\n      or\n      swap1\n      sstore\n        /* \"GMD_flat.sol\":45764:45857  function setOpenMint(bool _mintOpen) external onlyOwner {... */\n      jump\t// out\n        /* \"GMD_flat.sol\":47639:47768  function remainingMintableTokens() external view returns(uint256){... */\n    tag_146:\n        /* \"GMD_flat.sol\":47696:47703  uint256 */\n      0x00\n        /* \"GMD_flat.sol\":47730:47761  mintCap.sub(this.totalSupply()) */\n      tag_301\n        /* \"GMD_flat.sol\":47742:47746  this */\n      address\n      sub(shl(0xa0, 0x01), 0x01)\n        /* \"GMD_flat.sol\":47742:47758  this.totalSupply */\n      and\n      0x18160ddd\n        /* \"GMD_flat.sol\":47742:47760  this.totalSupply() */\n      mload(0x40)\n      dup2\n      0xffffffff\n      and\n      0xe0\n      shl\n      dup2\n      mstore\n      0x04\n      add\n      0x20\n      mload(0x40)\n      dup1\n      dup4\n      sub\n      dup2\n      dup7\n      gas\n      staticcall\n      iszero\n      dup1\n      iszero\n      tag_303\n      jumpi\n      returndatasize\n      0x00\n      dup1\n      returndatacopy\n      revert(0x00, returndatasize)\n    tag_303:\n      pop\n      pop\n      pop\n      pop\n      mload(0x40)\n      returndatasize\n      not(0x1f)\n      0x1f\n      dup3\n      add\n      and\n      dup3\n      add\n      dup1\n      0x40\n      mstore\n      pop\n      dup2\n      add\n      swap1\n      tag_304\n      swap2\n      swap1\n      tag_209\n      jump\t// in\n    tag_304:\n        /* \"GMD_flat.sol\":47730:47737  mintCap */\n      sload(0x09)\n      swap1\n        /* \"GMD_flat.sol\":47730:47741  mintCap.sub */\n      tag_156\n        /* \"GMD_flat.sol\":47730:47761  mintCap.sub(this.totalSupply()) */\n      jump\t// in\n    tag_301:\n        /* \"GMD_flat.sol\":47723:47761  return mintCap.sub(this.totalSupply()) */\n      swap1\n      pop\n        /* \"GMD_flat.sol\":47639:47768  function remainingMintableTokens() external view returns(uint256){... */\n      swap1\n      jump\t// out\n        /* \"GMD_flat.sol\":23073:23271  function transferOwnership(address newOwner) public virtual onlyOwner {... */\n    tag_150:\n        /* \"GMD_flat.sol\":22086:22099  _checkOwner() */\n      tag_306\n        /* \"GMD_flat.sol\":22086:22097  _checkOwner */\n      tag_188\n        /* \"GMD_flat.sol\":22086:22099  _checkOwner() */\n      jump\t// in\n    tag_306:\n      sub(shl(0xa0, 0x01), 0x01)\n        /* \"GMD_flat.sol\":23161:23183  newOwner != address(0) */\n      dup2\n      and\n        /* \"GMD_flat.sol\":23153:23226  require(newOwner != address(0), \"Ownable: new owner is the zero address\") */\n      tag_308\n      jumpi\n      mload(0x40)\n      shl(0xe5, 0x461bcd)\n      dup2\n      mstore\n        /* \"#utility.yul\":8158:8160   */\n      0x20\n        /* \"GMD_flat.sol\":23153:23226  require(newOwner != address(0), \"Ownable: new owner is the zero address\") */\n      0x04\n      dup3\n      add\n        /* \"#utility.yul\":8140:8161   */\n      mstore\n        /* \"#utility.yul\":8197:8199   */\n      0x26\n        /* \"#utility.yul\":8177:8195   */\n      0x24\n      dup3\n      add\n        /* \"#utility.yul\":8170:8200   */\n      mstore\n        /* \"#utility.yul\":8236:8270   */\n      0x4f776e61626c653a206e6577206f776e657220697320746865207a65726f2061\n        /* \"#utility.yul\":8216:8234   */\n      0x44\n      dup3\n      add\n        /* \"#utility.yul\":8209:8271   */\n      mstore\n      shl(0xd0, 0x646472657373)\n        /* \"#utility.yul\":8287:8305   */\n      0x64\n      dup3\n      add\n        /* \"#utility.yul\":8280:8316   */\n      mstore\n        /* \"#utility.yul\":8333:8352   */\n      0x84\n      add\n        /* \"GMD_flat.sol\":23153:23226  require(newOwner != address(0), \"Ownable: new owner is the zero address\") */\n      tag_195\n        /* \"#utility.yul\":7956:8358   */\n      jump\n        /* \"GMD_flat.sol\":23153:23226  require(newOwner != address(0), \"Ownable: new owner is the zero address\") */\n    tag_308:\n        /* \"GMD_flat.sol\":23236:23264  _transferOwnership(newOwner) */\n      tag_198\n        /* \"GMD_flat.sol\":23255:23263  newOwner */\n      dup2\n        /* \"GMD_flat.sol\":23236:23254  _transferOwnership */\n      tag_239\n        /* \"GMD_flat.sol\":23236:23264  _transferOwnership(newOwner) */\n      jump\t// in\n        /* \"GMD_flat.sol\":44921:45096  function setMintPrice(uint256 _mintPrice) external onlyOwner {... */\n    tag_153:\n        /* \"GMD_flat.sol\":22086:22099  _checkOwner() */\n      tag_313\n        /* \"GMD_flat.sol\":22086:22097  _checkOwner */\n      tag_188\n        /* \"GMD_flat.sol\":22086:22099  _checkOwner() */\n      jump\t// in\n    tag_313:\n        /* \"GMD_flat.sol\":45014:45023  mintPrice */\n      sload(0x08)\n        /* \"GMD_flat.sol\":45000:45010  _mintPrice */\n      dup2\n        /* \"GMD_flat.sol\":45000:45023  _mintPrice >= mintPrice */\n      lt\n      iszero\n        /* \"GMD_flat.sol\":44992:45057  require(_mintPrice >= mintPrice, \"can't be lower than last mint\") */\n      tag_315\n      jumpi\n      mload(0x40)\n      shl(0xe5, 0x461bcd)\n      dup2\n      mstore\n        /* \"#utility.yul\":8565:8567   */\n      0x20\n        /* \"GMD_flat.sol\":44992:45057  require(_mintPrice >= mintPrice, \"can't be lower than last mint\") */\n      0x04\n      dup3\n      add\n        /* \"#utility.yul\":8547:8568   */\n      mstore\n        /* \"#utility.yul\":8604:8606   */\n      0x1d\n        /* \"#utility.yul\":8584:8602   */\n      0x24\n      dup3\n      add\n        /* \"#utility.yul\":8577:8607   */\n      mstore\n        /* \"#utility.yul\":8643:8674   */\n      0x63616e2774206265206c6f776572207468616e206c617374206d696e74000000\n        /* \"#utility.yul\":8623:8641   */\n      0x44\n      dup3\n      add\n        /* \"#utility.yul\":8616:8675   */\n      mstore\n        /* \"#utility.yul\":8692:8710   */\n      0x64\n      add\n        /* \"GMD_flat.sol\":44992:45057  require(_mintPrice >= mintPrice, \"can't be lower than last mint\") */\n      tag_195\n        /* \"#utility.yul\":8363:8716   */\n      jump\n        /* \"GMD_flat.sol\":44992:45057  require(_mintPrice >= mintPrice, \"can't be lower than last mint\") */\n    tag_315:\n        /* \"GMD_flat.sol\":45067:45076  mintPrice */\n      0x08\n        /* \"GMD_flat.sol\":45067:45089  mintPrice = _mintPrice */\n      sstore\n        /* \"GMD_flat.sol\":44921:45096  function setMintPrice(uint256 _mintPrice) external onlyOwner {... */\n      jump\t// out\n        /* \"GMD_flat.sol\":5843:5939  function sub(uint256 a, uint256 b) internal pure returns (uint256) {... */\n    tag_156:\n        /* \"GMD_flat.sol\":5901:5908  uint256 */\n      0x00\n        /* \"GMD_flat.sol\":5927:5932  a - b */\n      tag_159\n        /* \"GMD_flat.sol\":5931:5932  b */\n      dup3\n        /* \"GMD_flat.sol\":5927:5928  a */\n      dup5\n        /* \"GMD_flat.sol\":5927:5932  a - b */\n      tag_320\n      jump\t// in\n        /* \"GMD_flat.sol\":41539:41909  function _approve(... */\n    tag_171:\n      sub(shl(0xa0, 0x01), 0x01)\n        /* \"GMD_flat.sol\":41670:41689  owner != address(0) */\n      dup4\n      and\n        /* \"GMD_flat.sol\":41662:41730  require(owner != address(0), \"ERC20: approve from the zero address\") */\n      tag_323\n      jumpi\n      mload(0x40)\n      shl(0xe5, 0x461bcd)\n      dup2\n      mstore\n        /* \"#utility.yul\":9053:9055   */\n      0x20\n        /* \"GMD_flat.sol\":41662:41730  require(owner != address(0), \"ERC20: approve from the zero address\") */\n      0x04\n      dup3\n      add\n        /* \"#utility.yul\":9035:9056   */\n      mstore\n        /* \"#utility.yul\":9092:9094   */\n      0x24\n        /* \"#utility.yul\":9072:9090   */\n      dup1\n      dup3\n      add\n        /* \"#utility.yul\":9065:9095   */\n      mstore\n        /* \"#utility.yul\":9131:9165   */\n      0x45524332303a20617070726f76652066726f6d20746865207a65726f20616464\n        /* \"#utility.yul\":9111:9129   */\n      0x44\n      dup3\n      add\n        /* \"#utility.yul\":9104:9166   */\n      mstore\n      shl(0xe0, 0x72657373)\n        /* \"#utility.yul\":9182:9200   */\n      0x64\n      dup3\n      add\n        /* \"#utility.yul\":9175:9209   */\n      mstore\n        /* \"#utility.yul\":9226:9245   */\n      0x84\n      add\n        /* \"GMD_flat.sol\":41662:41730  require(owner != address(0), \"ERC20: approve from the zero address\") */\n      tag_195\n        /* \"#utility.yul\":8851:9251   */\n      jump\n        /* \"GMD_flat.sol\":41662:41730  require(owner != address(0), \"ERC20: approve from the zero address\") */\n    tag_323:\n      sub(shl(0xa0, 0x01), 0x01)\n        /* \"GMD_flat.sol\":41748:41769  spender != address(0) */\n      dup3\n      and\n        /* \"GMD_flat.sol\":41740:41808  require(spender != address(0), \"ERC20: approve to the zero address\") */\n      tag_326\n      jumpi\n      mload(0x40)\n      shl(0xe5, 0x461bcd)\n      dup2\n      mstore\n        /* \"#utility.yul\":9458:9460   */\n      0x20\n        /* \"GMD_flat.sol\":41740:41808  require(spender != address(0), \"ERC20: approve to the zero address\") */\n      0x04\n      dup3\n      add\n        /* \"#utility.yul\":9440:9461   */\n      mstore\n        /* \"#utility.yul\":9497:9499   */\n      0x22\n        /* \"#utility.yul\":9477:9495   */\n      0x24\n      dup3\n      add\n        /* \"#utility.yul\":9470:9500   */\n      mstore\n        /* \"#utility.yul\":9536:9570   */\n      0x45524332303a20617070726f766520746f20746865207a65726f206164647265\n        /* \"#utility.yul\":9516:9534   */\n      0x44\n      dup3\n      add\n        /* \"#utility.yul\":9509:9571   */\n      mstore\n      shl(0xf0, 0x7373)\n        /* \"#utility.yul\":9587:9605   */\n      0x64\n      dup3\n      add\n        /* \"#utility.yul\":9580:9612   */\n      mstore\n        /* \"#utility.yul\":9629:9648   */\n      0x84\n      add\n        /* \"GMD_flat.sol\":41740:41808  require(spender != address(0), \"ERC20: approve to the zero address\") */\n      tag_195\n        /* \"#utility.yul\":9256:9654   */\n      jump\n        /* \"GMD_flat.sol\":41740:41808  require(spender != address(0), \"ERC20: approve to the zero address\") */\n    tag_326:\n      sub(shl(0xa0, 0x01), 0x01)\n        /* \"GMD_flat.sol\":41819:41837  _allowances[owner] */\n      dup4\n      dup2\n      and\n      0x00\n      dup2\n      dup2\n      mstore\n        /* \"GMD_flat.sol\":41819:41830  _allowances */\n      0x01\n        /* \"GMD_flat.sol\":41819:41837  _allowances[owner] */\n      0x20\n      swap1\n      dup2\n      mstore\n      0x40\n      dup1\n      dup4\n      keccak256\n        /* \"GMD_flat.sol\":41819:41846  _allowances[owner][spender] */\n      swap5\n      dup8\n      and\n      dup1\n      dup5\n      mstore\n      swap5\n      dup3\n      mstore\n      swap2\n      dup3\n      swap1\n      keccak256\n        /* \"GMD_flat.sol\":41819:41855  _allowances[owner][spender] = amount */\n      dup6\n      swap1\n      sstore\n        /* \"GMD_flat.sol\":41870:41902  Approval(owner, spender, amount) */\n      swap1\n      mload\n        /* \"#utility.yul\":529:554   */\n      dup5\n      dup2\n      mstore\n        /* \"GMD_flat.sol\":41870:41902  Approval(owner, spender, amount) */\n      0x8c5be1e5ebec7d5bd14f71427d1e84f3dd0314c0f7b2291e5b200ac8c7c3b925\n      swap2\n        /* \"#utility.yul\":502:520   */\n      add\n        /* \"GMD_flat.sol\":41870:41902  Approval(owner, spender, amount) */\n    tag_329:\n      mload(0x40)\n      dup1\n      swap2\n      sub\n      swap1\n      log3\n        /* \"GMD_flat.sol\":41539:41909  function _approve(... */\n      pop\n      pop\n      pop\n      jump\t// out\n        /* \"GMD_flat.sol\":42190:42631  function _spendAllowance(... */\n    tag_176:\n        /* \"GMD_flat.sol\":42320:42344  uint256 currentAllowance */\n      0x00\n        /* \"GMD_flat.sol\":42347:42372  allowance(owner, spender) */\n      tag_331\n        /* \"GMD_flat.sol\":42357:42362  owner */\n      dup5\n        /* \"GMD_flat.sol\":42364:42371  spender */\n      dup5\n        /* \"GMD_flat.sol\":42347:42356  allowance */\n      tag_139\n        /* \"GMD_flat.sol\":42347:42372  allowance(owner, spender) */\n      jump\t// in\n    tag_331:\n        /* \"GMD_flat.sol\":42320:42372  uint256 currentAllowance = allowance(owner, spender) */\n      swap1\n      pop\n      not(0x00)\n        /* \"GMD_flat.sol\":42386:42402  currentAllowance */\n      dup2\n        /* \"GMD_flat.sol\":42386:42423  currentAllowance != type(uint256).max */\n      eq\n        /* \"GMD_flat.sol\":42382:42625  if (currentAllowance != type(uint256).max) {... */\n      tag_336\n      jumpi\n        /* \"GMD_flat.sol\":42467:42473  amount */\n      dup2\n        /* \"GMD_flat.sol\":42447:42463  currentAllowance */\n      dup2\n        /* \"GMD_flat.sol\":42447:42473  currentAllowance >= amount */\n      lt\n      iszero\n        /* \"GMD_flat.sol\":42439:42507  require(currentAllowance >= amount, \"ERC20: insufficient allowance\") */\n      tag_333\n      jumpi\n      mload(0x40)\n      shl(0xe5, 0x461bcd)\n      dup2\n      mstore\n        /* \"#utility.yul\":9861:9863   */\n      0x20\n        /* \"GMD_flat.sol\":42439:42507  require(currentAllowance >= amount, \"ERC20: insufficient allowance\") */\n      0x04\n      dup3\n      add\n        /* \"#utility.yul\":9843:9864   */\n      mstore\n        /* \"#utility.yul\":9900:9902   */\n      0x1d\n        /* \"#utility.yul\":9880:9898   */\n      0x24\n      dup3\n      add\n        /* \"#utility.yul\":9873:9903   */\n      mstore\n        /* \"#utility.yul\":9939:9970   */\n      0x45524332303a20696e73756666696369656e7420616c6c6f77616e6365000000\n        /* \"#utility.yul\":9919:9937   */\n      0x44\n      dup3\n      add\n        /* \"#utility.yul\":9912:9971   */\n      mstore\n        /* \"#utility.yul\":9988:10006   */\n      0x64\n      add\n        /* \"GMD_flat.sol\":42439:42507  require(currentAllowance >= amount, \"ERC20: insufficient allowance\") */\n      tag_195\n        /* \"#utility.yul\":9659:10012   */\n      jump\n        /* \"GMD_flat.sol\":42439:42507  require(currentAllowance >= amount, \"ERC20: insufficient allowance\") */\n    tag_333:\n        /* \"GMD_flat.sol\":42549:42600  _approve(owner, spender, currentAllowance - amount) */\n      tag_336\n        /* \"GMD_flat.sol\":42558:42563  owner */\n      dup5\n        /* \"GMD_flat.sol\":42565:42572  spender */\n      dup5\n        /* \"GMD_flat.sol\":42593:42599  amount */\n      dup5\n        /* \"GMD_flat.sol\":42574:42590  currentAllowance */\n      dup5\n        /* \"GMD_flat.sol\":42574:42599  currentAllowance - amount */\n      sub\n        /* \"GMD_flat.sol\":42549:42557  _approve */\n      tag_171\n        /* \"GMD_flat.sol\":42549:42600  _approve(owner, spender, currentAllowance - amount) */\n      jump\t// in\n    tag_336:\n        /* \"GMD_flat.sol\":42310:42631  {... */\n      pop\n        /* \"GMD_flat.sol\":42190:42631  function _spendAllowance(... */\n      pop\n      pop\n      pop\n      jump\t// out\n        /* \"GMD_flat.sol\":38904:39555  function _transfer(... */\n    tag_178:\n      sub(shl(0xa0, 0x01), 0x01)\n        /* \"GMD_flat.sol\":39030:39048  from != address(0) */\n      dup4\n      and\n        /* \"GMD_flat.sol\":39022:39090  require(from != address(0), \"ERC20: transfer from the zero address\") */\n      tag_338\n      jumpi\n      mload(0x40)\n      shl(0xe5, 0x461bcd)\n      dup2\n      mstore\n        /* \"#utility.yul\":10219:10221   */\n      0x20\n        /* \"GMD_flat.sol\":39022:39090  require(from != address(0), \"ERC20: transfer from the zero address\") */\n      0x04\n      dup3\n      add\n        /* \"#utility.yul\":10201:10222   */\n      mstore\n        /* \"#utility.yul\":10258:10260   */\n      0x25\n        /* \"#utility.yul\":10238:10256   */\n      0x24\n      dup3\n      add\n        /* \"#utility.yul\":10231:10261   */\n      mstore\n        /* \"#utility.yul\":10297:10331   */\n      0x45524332303a207472616e736665722066726f6d20746865207a65726f206164\n        /* \"#utility.yul\":10277:10295   */\n      0x44\n      dup3\n      add\n        /* \"#utility.yul\":10270:10332   */\n      mstore\n      shl(0xd8, 0x6472657373)\n        /* \"#utility.yul\":10348:10366   */\n      0x64\n      dup3\n      add\n        /* \"#utility.yul\":10341:10376   */\n      mstore\n        /* \"#utility.yul\":10393:10412   */\n      0x84\n      add\n        /* \"GMD_flat.sol\":39022:39090  require(from != address(0), \"ERC20: transfer from the zero address\") */\n      tag_195\n        /* \"#utility.yul\":10017:10418   */\n      jump\n        /* \"GMD_flat.sol\":39022:39090  require(from != address(0), \"ERC20: transfer from the zero address\") */\n    tag_338:\n      sub(shl(0xa0, 0x01), 0x01)\n        /* \"GMD_flat.sol\":39108:39124  to != address(0) */\n      dup3\n      and\n        /* \"GMD_flat.sol\":39100:39164  require(to != address(0), \"ERC20: transfer to the zero address\") */\n      tag_341\n      jumpi\n      mload(0x40)\n      shl(0xe5, 0x461bcd)\n      dup2\n      mstore\n        /* \"#utility.yul\":10625:10627   */\n      0x20\n        /* \"GMD_flat.sol\":39100:39164  require(to != address(0), \"ERC20: transfer to the zero address\") */\n      0x04\n      dup3\n      add\n        /* \"#utility.yul\":10607:10628   */\n      mstore\n        /* \"#utility.yul\":10664:10666   */\n      0x23\n        /* \"#utility.yul\":10644:10662   */\n      0x24\n      dup3\n      add\n        /* \"#utility.yul\":10637:10667   */\n      mstore\n        /* \"#utility.yul\":10703:10737   */\n      0x45524332303a207472616e7366657220746f20746865207a65726f2061646472\n        /* \"#utility.yul\":10683:10701   */\n      0x44\n      dup3\n      add\n        /* \"#utility.yul\":10676:10738   */\n      mstore\n      shl(0xe8, 0x657373)\n        /* \"#utility.yul\":10754:10772   */\n      0x64\n      dup3\n      add\n        /* \"#utility.yul\":10747:10780   */\n      mstore\n        /* \"#utility.yul\":10797:10816   */\n      0x84\n      add\n        /* \"GMD_flat.sol\":39100:39164  require(to != address(0), \"ERC20: transfer to the zero address\") */\n      tag_195\n        /* \"#utility.yul\":10423:10822   */\n      jump\n        /* \"GMD_flat.sol\":39100:39164  require(to != address(0), \"ERC20: transfer to the zero address\") */\n    tag_341:\n      sub(shl(0xa0, 0x01), 0x01)\n        /* \"GMD_flat.sol\":39246:39261  _balances[from] */\n      dup4\n      and\n        /* \"GMD_flat.sol\":39224:39243  uint256 fromBalance */\n      0x00\n        /* \"GMD_flat.sol\":39246:39261  _balances[from] */\n      swap1\n      dup2\n      mstore\n      0x20\n      dup2\n      swap1\n      mstore\n      0x40\n      swap1\n      keccak256\n      sload\n        /* \"GMD_flat.sol\":39279:39300  fromBalance >= amount */\n      dup2\n      dup2\n      lt\n      iszero\n        /* \"GMD_flat.sol\":39271:39343  require(fromBalance >= amount, \"ERC20: transfer amount exceeds balance\") */\n      tag_346\n      jumpi\n      mload(0x40)\n      shl(0xe5, 0x461bcd)\n      dup2\n      mstore\n        /* \"#utility.yul\":11029:11031   */\n      0x20\n        /* \"GMD_flat.sol\":39271:39343  require(fromBalance >= amount, \"ERC20: transfer amount exceeds balance\") */\n      0x04\n      dup3\n      add\n        /* \"#utility.yul\":11011:11032   */\n      mstore\n        /* \"#utility.yul\":11068:11070   */\n      0x26\n        /* \"#utility.yul\":11048:11066   */\n      0x24\n      dup3\n      add\n        /* \"#utility.yul\":11041:11071   */\n      mstore\n        /* \"#utility.yul\":11107:11141   */\n      0x45524332303a207472616e7366657220616d6f756e7420657863656564732062\n        /* \"#utility.yul\":11087:11105   */\n      0x44\n      dup3\n      add\n        /* \"#utility.yul\":11080:11142   */\n      mstore\n      shl(0xd0, 0x616c616e6365)\n        /* \"#utility.yul\":11158:11176   */\n      0x64\n      dup3\n      add\n        /* \"#utility.yul\":11151:11187   */\n      mstore\n        /* \"#utility.yul\":11204:11223   */\n      0x84\n      add\n        /* \"GMD_flat.sol\":39271:39343  require(fromBalance >= amount, \"ERC20: transfer amount exceeds balance\") */\n      tag_195\n        /* \"#utility.yul\":10827:11229   */\n      jump\n        /* \"GMD_flat.sol\":39271:39343  require(fromBalance >= amount, \"ERC20: transfer amount exceeds balance\") */\n    tag_346:\n      sub(shl(0xa0, 0x01), 0x01)\n        /* \"GMD_flat.sol\":39377:39392  _balances[from] */\n      dup1\n      dup6\n      and\n        /* \"GMD_flat.sol\":39377:39386  _balances */\n      0x00\n        /* \"GMD_flat.sol\":39377:39392  _balances[from] */\n      swap1\n      dup2\n      mstore\n      0x20\n      dup2\n      swap1\n      mstore\n      0x40\n      dup1\n      dup3\n      keccak256\n        /* \"GMD_flat.sol\":39395:39415  fromBalance - amount */\n      dup6\n      dup6\n      sub\n        /* \"GMD_flat.sol\":39377:39415  _balances[from] = fromBalance - amount */\n      swap1\n      sstore\n        /* \"GMD_flat.sol\":39435:39448  _balances[to] */\n      swap2\n      dup6\n      and\n      dup2\n      mstore\n      swap1\n      dup2\n      keccak256\n        /* \"GMD_flat.sol\":39435:39458  _balances[to] += amount */\n      dup1\n      sload\n        /* \"GMD_flat.sol\":39409:39415  amount */\n      dup5\n      swap3\n        /* \"GMD_flat.sol\":39377:39386  _balances */\n      swap1\n        /* \"GMD_flat.sol\":39435:39458  _balances[to] += amount */\n      tag_349\n      swap1\n        /* \"GMD_flat.sol\":39409:39415  amount */\n      dup5\n      swap1\n        /* \"GMD_flat.sol\":39435:39458  _balances[to] += amount */\n      tag_185\n      jump\t// in\n    tag_349:\n      swap3\n      pop\n      pop\n      dup2\n      swap1\n      sstore\n      pop\n        /* \"GMD_flat.sol\":39489:39491  to */\n      dup3\n      sub(shl(0xa0, 0x01), 0x01)\n        /* \"GMD_flat.sol\":39474:39500  Transfer(from, to, amount) */\n      and\n        /* \"GMD_flat.sol\":39483:39487  from */\n      dup5\n      sub(shl(0xa0, 0x01), 0x01)\n        /* \"GMD_flat.sol\":39474:39500  Transfer(from, to, amount) */\n      and\n      0xddf252ad1be2c89b69c2b068fc378daa952ba7f163c4a11628f55a4df523b3ef\n        /* \"GMD_flat.sol\":39493:39499  amount */\n      dup5\n        /* \"GMD_flat.sol\":39474:39500  Transfer(from, to, amount) */\n      mload(0x40)\n      tag_350\n      swap2\n        /* \"#utility.yul\":529:554   */\n      dup2\n      mstore\n        /* \"#utility.yul\":517:519   */\n      0x20\n        /* \"#utility.yul\":502:520   */\n      add\n      swap1\n        /* \"#utility.yul\":383:560   */\n      jump\n        /* \"GMD_flat.sol\":39474:39500  Transfer(from, to, amount) */\n    tag_350:\n      mload(0x40)\n      dup1\n      swap2\n      sub\n      swap1\n      log3\n        /* \"GMD_flat.sol\":39511:39548  _afterTokenTransfer(from, to, amount) */\n      tag_336\n        /* \"GMD_flat.sol\":40540:41116  function _burn(address account, uint256 amount) internal virtual {... */\n      jump\n        /* \"GMD_flat.sol\":22351:22481  function _checkOwner() internal view virtual {... */\n    tag_188:\n        /* \"GMD_flat.sol\":22265:22271  _owner */\n      and(sub(shl(0xa0, 0x01), 0x01), sload(0x05))\n        /* \"GMD_flat.sol\":20875:20885  msg.sender */\n      caller\n        /* \"GMD_flat.sol\":22414:22437  owner() == _msgSender() */\n      eq\n        /* \"GMD_flat.sol\":22406:22474  require(owner() == _msgSender(), \"Ownable: caller is not the owner\") */\n      tag_203\n      jumpi\n      mload(0x40)\n      shl(0xe5, 0x461bcd)\n      dup2\n      mstore\n        /* \"#utility.yul\":11436:11438   */\n      0x20\n        /* \"GMD_flat.sol\":22406:22474  require(owner() == _msgSender(), \"Ownable: caller is not the owner\") */\n      0x04\n      dup3\n      add\n        /* \"#utility.yul\":11418:11439   */\n      dup2\n      swap1\n      mstore\n        /* \"#utility.yul\":11455:11473   */\n      0x24\n      dup3\n      add\n        /* \"#utility.yul\":11448:11478   */\n      mstore\n        /* \"#utility.yul\":11514:11548   */\n      0x4f776e61626c653a2063616c6c6572206973206e6f7420746865206f776e6572\n        /* \"#utility.yul\":11494:11512   */\n      0x44\n      dup3\n      add\n        /* \"#utility.yul\":11487:11549   */\n      mstore\n        /* \"#utility.yul\":11566:11584   */\n      0x64\n      add\n        /* \"GMD_flat.sol\":22406:22474  require(owner() == _msgSender(), \"Ownable: caller is not the owner\") */\n      tag_195\n        /* \"#utility.yul\":11234:11590   */\n      jump\n        /* \"GMD_flat.sol\":40540:41116  function _burn(address account, uint256 amount) internal virtual {... */\n    tag_199:\n      sub(shl(0xa0, 0x01), 0x01)\n        /* \"GMD_flat.sol\":40623:40644  account != address(0) */\n      dup3\n      and\n        /* \"GMD_flat.sol\":40615:40682  require(account != address(0), \"ERC20: burn from the zero address\") */\n      tag_360\n      jumpi\n      mload(0x40)\n      shl(0xe5, 0x461bcd)\n      dup2\n      mstore\n        /* \"#utility.yul\":11797:11799   */\n      0x20\n        /* \"GMD_flat.sol\":40615:40682  require(account != address(0), \"ERC20: burn from the zero address\") */\n      0x04\n      dup3\n      add\n        /* \"#utility.yul\":11779:11800   */\n      mstore\n        /* \"#utility.yul\":11836:11838   */\n      0x21\n        /* \"#utility.yul\":11816:11834   */\n      0x24\n      dup3\n      add\n        /* \"#utility.yul\":11809:11839   */\n      mstore\n        /* \"#utility.yul\":11875:11909   */\n      0x45524332303a206275726e2066726f6d20746865207a65726f20616464726573\n        /* \"#utility.yul\":11855:11873   */\n      0x44\n      dup3\n      add\n        /* \"#utility.yul\":11848:11910   */\n      mstore\n      shl(0xf8, 0x73)\n        /* \"#utility.yul\":11926:11944   */\n      0x64\n      dup3\n      add\n        /* \"#utility.yul\":11919:11950   */\n      mstore\n        /* \"#utility.yul\":11967:11986   */\n      0x84\n      add\n        /* \"GMD_flat.sol\":40615:40682  require(account != address(0), \"ERC20: burn from the zero address\") */\n      tag_195\n        /* \"#utility.yul\":11595:11992   */\n      jump\n        /* \"GMD_flat.sol\":40615:40682  require(account != address(0), \"ERC20: burn from the zero address\") */\n    tag_360:\n      sub(shl(0xa0, 0x01), 0x01)\n        /* \"GMD_flat.sol\":40778:40796  _balances[account] */\n      dup3\n      and\n        /* \"GMD_flat.sol\":40753:40775  uint256 accountBalance */\n      0x00\n        /* \"GMD_flat.sol\":40778:40796  _balances[account] */\n      swap1\n      dup2\n      mstore\n      0x20\n      dup2\n      swap1\n      mstore\n      0x40\n      swap1\n      keccak256\n      sload\n        /* \"GMD_flat.sol\":40814:40838  accountBalance >= amount */\n      dup2\n      dup2\n      lt\n      iszero\n        /* \"GMD_flat.sol\":40806:40877  require(accountBalance >= amount, \"ERC20: burn amount exceeds balance\") */\n      tag_364\n      jumpi\n      mload(0x40)\n      shl(0xe5, 0x461bcd)\n      dup2\n      mstore\n        /* \"#utility.yul\":12199:12201   */\n      0x20\n        /* \"GMD_flat.sol\":40806:40877  require(accountBalance >= amount, \"ERC20: burn amount exceeds balance\") */\n      0x04\n      dup3\n      add\n        /* \"#utility.yul\":12181:12202   */\n      mstore\n        /* \"#utility.yul\":12238:12240   */\n      0x22\n        /* \"#utility.yul\":12218:12236   */\n      0x24\n      dup3\n      add\n        /* \"#utility.yul\":12211:12241   */\n      mstore\n        /* \"#utility.yul\":12277:12311   */\n      0x45524332303a206275726e20616d6f756e7420657863656564732062616c616e\n        /* \"#utility.yul\":12257:12275   */\n      0x44\n      dup3\n      add\n        /* \"#utility.yul\":12250:12312   */\n      mstore\n      shl(0xf0, 0x6365)\n        /* \"#utility.yul\":12328:12346   */\n      0x64\n      dup3\n      add\n        /* \"#utility.yul\":12321:12353   */\n      mstore\n        /* \"#utility.yul\":12370:12389   */\n      0x84\n      add\n        /* \"GMD_flat.sol\":40806:40877  require(accountBalance >= amount, \"ERC20: burn amount exceeds balance\") */\n      tag_195\n        /* \"#utility.yul\":11997:12395   */\n      jump\n        /* \"GMD_flat.sol\":40806:40877  require(accountBalance >= amount, \"ERC20: burn amount exceeds balance\") */\n    tag_364:\n      sub(shl(0xa0, 0x01), 0x01)\n        /* \"GMD_flat.sol\":40911:40929  _balances[account] */\n      dup4\n      and\n        /* \"GMD_flat.sol\":40911:40920  _balances */\n      0x00\n        /* \"GMD_flat.sol\":40911:40929  _balances[account] */\n      swap1\n      dup2\n      mstore\n      0x20\n      dup2\n      swap1\n      mstore\n      0x40\n      dup2\n      keccak256\n        /* \"GMD_flat.sol\":40932:40955  accountBalance - amount */\n      dup4\n      dup4\n      sub\n        /* \"GMD_flat.sol\":40911:40955  _balances[account] = accountBalance - amount */\n      swap1\n      sstore\n        /* \"GMD_flat.sol\":40975:40987  _totalSupply */\n      0x02\n        /* \"GMD_flat.sol\":40975:40997  _totalSupply -= amount */\n      dup1\n      sload\n        /* \"GMD_flat.sol\":40949:40955  amount */\n      dup5\n      swap3\n        /* \"GMD_flat.sol\":40911:40920  _balances */\n      swap1\n        /* \"GMD_flat.sol\":40975:40997  _totalSupply -= amount */\n      tag_367\n      swap1\n        /* \"GMD_flat.sol\":40949:40955  amount */\n      dup5\n      swap1\n        /* \"GMD_flat.sol\":40975:40997  _totalSupply -= amount */\n      tag_320\n      jump\t// in\n    tag_367:\n      swap1\n      swap2\n      sstore\n      pop\n      pop\n        /* \"GMD_flat.sol\":41013:41050  Transfer(account, address(0), amount) */\n      mload(0x40)\n        /* \"#utility.yul\":529:554   */\n      dup3\n      dup2\n      mstore\n        /* \"GMD_flat.sol\":41039:41040  0 */\n      0x00\n      swap1\n      sub(shl(0xa0, 0x01), 0x01)\n        /* \"GMD_flat.sol\":41013:41050  Transfer(account, address(0), amount) */\n      dup6\n      and\n      swap1\n      0xddf252ad1be2c89b69c2b068fc378daa952ba7f163c4a11628f55a4df523b3ef\n      swap1\n        /* \"#utility.yul\":517:519   */\n      0x20\n        /* \"#utility.yul\":502:520   */\n      add\n        /* \"GMD_flat.sol\":41013:41050  Transfer(account, address(0), amount) */\n      tag_329\n        /* \"#utility.yul\":383:560   */\n      jump\n        /* \"GMD_flat.sol\":41061:41109  _afterTokenTransfer(account, address(0), amount) */\n    tag_369:\n        /* \"GMD_flat.sol\":40605:41116  {... */\n      pop\n        /* \"GMD_flat.sol\":40540:41116  function _burn(address account, uint256 amount) internal virtual {... */\n      pop\n      pop\n      jump\t// out\n        /* \"GMD_flat.sol\":27102:27307  function safeTransfer(... */\n    tag_210:\n        /* \"GMD_flat.sol\":27241:27299  abi.encodeWithSelector(token.transfer.selector, to, value) */\n      mload(0x40)\n      sub(shl(0xa0, 0x01), 0x01)\n        /* \"#utility.yul\":5829:5861   */\n      dup4\n      and\n        /* \"GMD_flat.sol\":27241:27299  abi.encodeWithSelector(token.transfer.selector, to, value) */\n      0x24\n      dup3\n      add\n        /* \"#utility.yul\":5811:5862   */\n      mstore\n        /* \"#utility.yul\":5878:5896   */\n      0x44\n      dup2\n      add\n        /* \"#utility.yul\":5871:5905   */\n      dup3\n      swap1\n      mstore\n        /* \"GMD_flat.sol\":27214:27300  _callOptionalReturn(token, abi.encodeWithSelector(token.transfer.selector, to, value)) */\n      tag_369\n      swap1\n        /* \"GMD_flat.sol\":27234:27239  token */\n      dup5\n      swap1\n      shl(0xe0, 0xa9059cbb)\n        /* \"GMD_flat.sol\":27264:27287  token.transfer.selector */\n      swap1\n        /* \"#utility.yul\":5784:5802   */\n      0x64\n      add\n        /* \"GMD_flat.sol\":27241:27299  abi.encodeWithSelector(token.transfer.selector, to, value) */\n    tag_372:\n      0x40\n      dup1\n      mload\n      not(0x1f)\n      dup2\n      dup5\n      sub\n      add\n      dup2\n      mstore\n      swap2\n      swap1\n      mstore\n      0x20\n      dup2\n      add\n      dup1\n      mload\n      sub(shl(0xe0, 0x01), 0x01)\n      and\n      not(sub(shl(0xe0, 0x01), 0x01))\n      swap1\n      swap4\n      and\n      swap3\n      swap1\n      swap3\n      or\n      swap1\n      swap2\n      mstore\n        /* \"GMD_flat.sol\":27214:27233  _callOptionalReturn */\n      tag_373\n        /* \"GMD_flat.sol\":27214:27300  _callOptionalReturn(token, abi.encodeWithSelector(token.transfer.selector, to, value)) */\n      jump\t// in\n        /* \"GMD_flat.sol\":6186:6282  function mul(uint256 a, uint256 b) internal pure returns (uint256) {... */\n    tag_224:\n        /* \"GMD_flat.sol\":6244:6251  uint256 */\n      0x00\n        /* \"GMD_flat.sol\":6270:6275  a * b */\n      tag_159\n        /* \"GMD_flat.sol\":6274:6275  b */\n      dup3\n        /* \"GMD_flat.sol\":6270:6271  a */\n      dup5\n        /* \"GMD_flat.sol\":6270:6275  a * b */\n      tag_376\n      jump\t// in\n        /* \"GMD_flat.sol\":6571:6667  function div(uint256 a, uint256 b) internal pure returns (uint256) {... */\n    tag_225:\n        /* \"GMD_flat.sol\":6629:6636  uint256 */\n      0x00\n        /* \"GMD_flat.sol\":6655:6660  a / b */\n      tag_159\n        /* \"GMD_flat.sol\":6659:6660  b */\n      dup3\n        /* \"GMD_flat.sol\":6655:6656  a */\n      dup5\n        /* \"GMD_flat.sol\":6655:6660  a / b */\n      tag_379\n      jump\t// in\n        /* \"GMD_flat.sol\":23425:23612  function _transferOwnership(address newOwner) internal virtual {... */\n    tag_239:\n        /* \"GMD_flat.sol\":23517:23523  _owner */\n      0x05\n      dup1\n      sload\n      sub(shl(0xa0, 0x01), 0x01)\n        /* \"GMD_flat.sol\":23533:23550  _owner = newOwner */\n      dup4\n      dup2\n      and\n      not(sub(shl(0xa0, 0x01), 0x01))\n      dup4\n      and\n      dup2\n      or\n      swap1\n      swap4\n      sstore\n        /* \"GMD_flat.sol\":23565:23605  OwnershipTransferred(oldOwner, newOwner) */\n      mload(0x40)\n        /* \"GMD_flat.sol\":23517:23523  _owner */\n      swap2\n      and\n      swap2\n        /* \"GMD_flat.sol\":23533:23550  _owner = newOwner */\n      swap1\n        /* \"GMD_flat.sol\":23517:23523  _owner */\n      dup3\n      swap1\n        /* \"GMD_flat.sol\":23565:23605  OwnershipTransferred(oldOwner, newOwner) */\n      0x8be0079c531659141344cd1fd0a4f28419497f9722a3daafe3b4186f6b6457e0\n      swap1\n        /* \"GMD_flat.sol\":23498:23514  address oldOwner */\n      0x00\n      swap1\n        /* \"GMD_flat.sol\":23565:23605  OwnershipTransferred(oldOwner, newOwner) */\n      log3\n        /* \"GMD_flat.sol\":23488:23612  {... */\n      pop\n        /* \"GMD_flat.sol\":23425:23612  function _transferOwnership(address newOwner) internal virtual {... */\n      pop\n      jump\t// out\n        /* \"GMD_flat.sol\":5476:5572  function add(uint256 a, uint256 b) internal pure returns (uint256) {... */\n    tag_277:\n        /* \"GMD_flat.sol\":5534:5541  uint256 */\n      0x00\n        /* \"GMD_flat.sol\":5560:5565  a + b */\n      tag_159\n        /* \"GMD_flat.sol\":5564:5565  b */\n      dup3\n        /* \"GMD_flat.sol\":5560:5561  a */\n      dup5\n        /* \"GMD_flat.sol\":5560:5565  a + b */\n      tag_185\n      jump\t// in\n        /* \"GMD_flat.sol\":39831:40220  function _mint(address account, uint256 amount) internal virtual {... */\n    tag_283:\n      sub(shl(0xa0, 0x01), 0x01)\n        /* \"GMD_flat.sol\":39914:39935  account != address(0) */\n      dup3\n      and\n        /* \"GMD_flat.sol\":39906:39971  require(account != address(0), \"ERC20: mint to the zero address\") */\n      tag_384\n      jumpi\n      mload(0x40)\n      shl(0xe5, 0x461bcd)\n      dup2\n      mstore\n        /* \"#utility.yul\":12997:12999   */\n      0x20\n        /* \"GMD_flat.sol\":39906:39971  require(account != address(0), \"ERC20: mint to the zero address\") */\n      0x04\n      dup3\n      add\n        /* \"#utility.yul\":12979:13000   */\n      mstore\n        /* \"#utility.yul\":13036:13038   */\n      0x1f\n        /* \"#utility.yul\":13016:13034   */\n      0x24\n      dup3\n      add\n        /* \"#utility.yul\":13009:13039   */\n      mstore\n        /* \"#utility.yul\":13075:13108   */\n      0x45524332303a206d696e7420746f20746865207a65726f206164647265737300\n        /* \"#utility.yul\":13055:13073   */\n      0x44\n      dup3\n      add\n        /* \"#utility.yul\":13048:13109   */\n      mstore\n        /* \"#utility.yul\":13126:13144   */\n      0x64\n      add\n        /* \"GMD_flat.sol\":39906:39971  require(account != address(0), \"ERC20: mint to the zero address\") */\n      tag_195\n        /* \"#utility.yul\":12795:13150   */\n      jump\n        /* \"GMD_flat.sol\":39906:39971  require(account != address(0), \"ERC20: mint to the zero address\") */\n    tag_384:\n        /* \"GMD_flat.sol\":40058:40064  amount */\n      dup1\n        /* \"GMD_flat.sol\":40042:40054  _totalSupply */\n      0x02\n      0x00\n        /* \"GMD_flat.sol\":40042:40064  _totalSupply += amount */\n      dup3\n      dup3\n      sload\n      tag_388\n      swap2\n      swap1\n      tag_185\n      jump\t// in\n    tag_388:\n      swap1\n      swap2\n      sstore\n      pop\n      pop\n      sub(shl(0xa0, 0x01), 0x01)\n        /* \"GMD_flat.sol\":40074:40092  _balances[account] */\n      dup3\n      and\n        /* \"GMD_flat.sol\":40074:40083  _balances */\n      0x00\n        /* \"GMD_flat.sol\":40074:40092  _balances[account] */\n      swap1\n      dup2\n      mstore\n      0x20\n      dup2\n      swap1\n      mstore\n      0x40\n      dup2\n      keccak256\n        /* \"GMD_flat.sol\":40074:40102  _balances[account] += amount */\n      dup1\n      sload\n        /* \"GMD_flat.sol\":40096:40102  amount */\n      dup4\n      swap3\n        /* \"GMD_flat.sol\":40074:40083  _balances */\n      swap1\n        /* \"GMD_flat.sol\":40074:40102  _balances[account] += amount */\n      tag_389\n      swap1\n        /* \"GMD_flat.sol\":40096:40102  amount */\n      dup5\n      swap1\n        /* \"GMD_flat.sol\":40074:40102  _balances[account] += amount */\n      tag_185\n      jump\t// in\n    tag_389:\n      swap1\n      swap2\n      sstore\n      pop\n      pop\n        /* \"GMD_flat.sol\":40117:40154  Transfer(address(0), account, amount) */\n      mload(0x40)\n        /* \"#utility.yul\":529:554   */\n      dup2\n      dup2\n      mstore\n      sub(shl(0xa0, 0x01), 0x01)\n        /* \"GMD_flat.sol\":40117:40154  Transfer(address(0), account, amount) */\n      dup4\n      and\n      swap1\n        /* \"GMD_flat.sol\":40134:40135  0 */\n      0x00\n      swap1\n        /* \"GMD_flat.sol\":40117:40154  Transfer(address(0), account, amount) */\n      0xddf252ad1be2c89b69c2b068fc378daa952ba7f163c4a11628f55a4df523b3ef\n      swap1\n        /* \"#utility.yul\":517:519   */\n      0x20\n        /* \"#utility.yul\":502:520   */\n      add\n        /* \"GMD_flat.sol\":40117:40154  Transfer(address(0), account, amount) */\n      mload(0x40)\n      dup1\n      swap2\n      sub\n      swap1\n      log3\n        /* \"GMD_flat.sol\":39831:40220  function _mint(address account, uint256 amount) internal virtual {... */\n      pop\n      pop\n      jump\t// out\n        /* \"GMD_flat.sol\":27313:27554  function safeTransferFrom(... */\n    tag_285:\n        /* \"GMD_flat.sol\":27478:27546  abi.encodeWithSelector(token.transferFrom.selector, from, to, value) */\n      mload(0x40)\n      sub(shl(0xa0, 0x01), 0x01)\n        /* \"#utility.yul\":13413:13428   */\n      dup1\n      dup6\n      and\n        /* \"GMD_flat.sol\":27478:27546  abi.encodeWithSelector(token.transferFrom.selector, from, to, value) */\n      0x24\n      dup4\n      add\n        /* \"#utility.yul\":13395:13429   */\n      mstore\n        /* \"#utility.yul\":13465:13480   */\n      dup4\n      and\n        /* \"#utility.yul\":13445:13463   */\n      0x44\n      dup3\n      add\n        /* \"#utility.yul\":13438:13481   */\n      mstore\n        /* \"#utility.yul\":13497:13515   */\n      0x64\n      dup2\n      add\n        /* \"#utility.yul\":13490:13524   */\n      dup3\n      swap1\n      mstore\n        /* \"GMD_flat.sol\":27451:27547  _callOptionalReturn(token, abi.encodeWithSelector(token.transferFrom.selector, from, to, value)) */\n      tag_336\n      swap1\n        /* \"GMD_flat.sol\":27471:27476  token */\n      dup6\n      swap1\n      shl(0xe0, 0x23b872dd)\n        /* \"GMD_flat.sol\":27501:27528  token.transferFrom.selector */\n      swap1\n        /* \"#utility.yul\":13330:13348   */\n      0x84\n      add\n        /* \"GMD_flat.sol\":27478:27546  abi.encodeWithSelector(token.transferFrom.selector, from, to, value) */\n      tag_372\n        /* \"#utility.yul\":13155:13530   */\n      jump\n        /* \"GMD_flat.sol\":30086:30792  function _callOptionalReturn(IERC20 token, bytes memory data) private {... */\n    tag_373:\n        /* \"GMD_flat.sol\":30505:30528  bytes memory returndata */\n      0x00\n        /* \"GMD_flat.sol\":30531:30600  address(token).functionCall(data, \"SafeERC20: low-level call failed\") */\n      tag_399\n        /* \"GMD_flat.sol\":30559:30563  data */\n      dup3\n        /* \"GMD_flat.sol\":30531:30600  address(token).functionCall(data, \"SafeERC20: low-level call failed\") */\n      mload(0x40)\n      dup1\n      0x40\n      add\n      0x40\n      mstore\n      dup1\n      0x20\n      dup2\n      mstore\n      0x20\n      add\n      0x5361666545524332303a206c6f772d6c6576656c2063616c6c206661696c6564\n      dup2\n      mstore\n      pop\n        /* \"GMD_flat.sol\":30539:30544  token */\n      dup6\n      sub(shl(0xa0, 0x01), 0x01)\n        /* \"GMD_flat.sol\":30531:30558  address(token).functionCall */\n      and\n      tag_400\n      swap1\n        /* \"GMD_flat.sol\":30531:30600  address(token).functionCall(data, \"SafeERC20: low-level call failed\") */\n      swap3\n      swap2\n      swap1\n      0xffffffff\n      and\n      jump\t// in\n    tag_399:\n        /* \"GMD_flat.sol\":30614:30631  returndata.length */\n      dup1\n      mload\n        /* \"GMD_flat.sol\":30505:30600  bytes memory returndata = address(token).functionCall(data, \"SafeERC20: low-level call failed\") */\n      swap1\n      swap2\n      pop\n        /* \"GMD_flat.sol\":30614:30635  returndata.length > 0 */\n      iszero\n        /* \"GMD_flat.sol\":30610:30786  if (returndata.length > 0) {... */\n      tag_369\n      jumpi\n        /* \"GMD_flat.sol\":30709:30719  returndata */\n      dup1\n        /* \"GMD_flat.sol\":30698:30728  abi.decode(returndata, (bool)) */\n      dup1\n      0x20\n      add\n      swap1\n      mload\n      dup2\n      add\n      swap1\n      tag_402\n      swap2\n      swap1\n      tag_233\n      jump\t// in\n    tag_402:\n        /* \"GMD_flat.sol\":30690:30775  require(abi.decode(returndata, (bool)), \"SafeERC20: ERC20 operation did not succeed\") */\n      tag_369\n      jumpi\n      mload(0x40)\n      shl(0xe5, 0x461bcd)\n      dup2\n      mstore\n        /* \"#utility.yul\":13737:13739   */\n      0x20\n        /* \"GMD_flat.sol\":30690:30775  require(abi.decode(returndata, (bool)), \"SafeERC20: ERC20 operation did not succeed\") */\n      0x04\n      dup3\n      add\n        /* \"#utility.yul\":13719:13740   */\n      mstore\n        /* \"#utility.yul\":13776:13778   */\n      0x2a\n        /* \"#utility.yul\":13756:13774   */\n      0x24\n      dup3\n      add\n        /* \"#utility.yul\":13749:13779   */\n      mstore\n        /* \"#utility.yul\":13815:13849   */\n      0x5361666545524332303a204552433230206f7065726174696f6e20646964206e\n        /* \"#utility.yul\":13795:13813   */\n      0x44\n      dup3\n      add\n        /* \"#utility.yul\":13788:13850   */\n      mstore\n      shl(0xb2, 0x1bdd081cdd58d8d95959)\n        /* \"#utility.yul\":13866:13884   */\n      0x64\n      dup3\n      add\n        /* \"#utility.yul\":13859:13899   */\n      mstore\n        /* \"#utility.yul\":13916:13935   */\n      0x84\n      add\n        /* \"GMD_flat.sol\":30690:30775  require(abi.decode(returndata, (bool)), \"SafeERC20: ERC20 operation did not succeed\") */\n      tag_195\n        /* \"#utility.yul\":13535:13941   */\n      jump\n        /* \"GMD_flat.sol\":13387:13610  function functionCall(... */\n    tag_400:\n        /* \"GMD_flat.sol\":13520:13532  bytes memory */\n      0x60\n        /* \"GMD_flat.sol\":13551:13603  functionCallWithValue(target, data, 0, errorMessage) */\n      tag_244\n        /* \"GMD_flat.sol\":13573:13579  target */\n      dup5\n        /* \"GMD_flat.sol\":13581:13585  data */\n      dup5\n        /* \"GMD_flat.sol\":13587:13588  0 */\n      0x00\n        /* \"GMD_flat.sol\":13590:13602  errorMessage */\n      dup6\n        /* \"GMD_flat.sol\":13520:13532  bytes memory */\n      dup6\n      sub(shl(0xa0, 0x01), 0x01)\n        /* \"GMD_flat.sol\":10991:11010  account.code.length */\n      dup6\n      and\n      extcodesize\n        /* \"GMD_flat.sol\":14754:14814  require(isContract(target), \"Address: call to non-contract\") */\n      tag_415\n      jumpi\n      mload(0x40)\n      shl(0xe5, 0x461bcd)\n      dup2\n      mstore\n        /* \"#utility.yul\":14555:14557   */\n      0x20\n        /* \"GMD_flat.sol\":14754:14814  require(isContract(target), \"Address: call to non-contract\") */\n      0x04\n      dup3\n      add\n        /* \"#utility.yul\":14537:14558   */\n      mstore\n        /* \"#utility.yul\":14594:14596   */\n      0x1d\n        /* \"#utility.yul\":14574:14592   */\n      0x24\n      dup3\n      add\n        /* \"#utility.yul\":14567:14597   */\n      mstore\n        /* \"#utility.yul\":14633:14664   */\n      0x416464726573733a2063616c6c20746f206e6f6e2d636f6e7472616374000000\n        /* \"#utility.yul\":14613:14631   */\n      0x44\n      dup3\n      add\n        /* \"#utility.yul\":14606:14665   */\n      mstore\n        /* \"#utility.yul\":14682:14700   */\n      0x64\n      add\n        /* \"GMD_flat.sol\":14754:14814  require(isContract(target), \"Address: call to non-contract\") */\n      tag_195\n        /* \"#utility.yul\":14353:14706   */\n      jump\n        /* \"GMD_flat.sol\":14754:14814  require(isContract(target), \"Address: call to non-contract\") */\n    tag_415:\n        /* \"GMD_flat.sol\":14826:14838  bool success */\n      0x00\n        /* \"GMD_flat.sol\":14840:14863  bytes memory returndata */\n      dup1\n        /* \"GMD_flat.sol\":14867:14873  target */\n      dup7\n      sub(shl(0xa0, 0x01), 0x01)\n        /* \"GMD_flat.sol\":14867:14878  target.call */\n      and\n        /* \"GMD_flat.sol\":14886:14891  value */\n      dup6\n        /* \"GMD_flat.sol\":14893:14897  data */\n      dup8\n        /* \"GMD_flat.sol\":14867:14898  target.call{value: value}(data) */\n      mload(0x40)\n      tag_418\n      swap2\n      swap1\n      tag_419\n      jump\t// in\n    tag_418:\n      0x00\n      mload(0x40)\n      dup1\n      dup4\n      sub\n      dup2\n      dup6\n      dup8\n      gas\n      call\n      swap3\n      pop\n      pop\n      pop\n      returndatasize\n      dup1\n      0x00\n      dup2\n      eq\n      tag_422\n      jumpi\n      mload(0x40)\n      swap2\n      pop\n      and(add(returndatasize, 0x3f), not(0x1f))\n      dup3\n      add\n      0x40\n      mstore\n      returndatasize\n      dup3\n      mstore\n      returndatasize\n      0x00\n      0x20\n      dup5\n      add\n      returndatacopy\n      jump(tag_421)\n    tag_422:\n      0x60\n      swap2\n      pop\n    tag_421:\n      pop\n        /* \"GMD_flat.sol\":14825:14898  (bool success, bytes memory returndata) = target.call{value: value}(data) */\n      swap2\n      pop\n      swap2\n      pop\n        /* \"GMD_flat.sol\":14915:14966  verifyCallResult(success, returndata, errorMessage) */\n      tag_423\n        /* \"GMD_flat.sol\":14932:14939  success */\n      dup3\n        /* \"GMD_flat.sol\":14941:14951  returndata */\n      dup3\n        /* \"GMD_flat.sol\":14953:14965  errorMessage */\n      dup7\n        /* \"GMD_flat.sol\":14915:14931  verifyCallResult */\n      tag_424\n        /* \"GMD_flat.sol\":14915:14966  verifyCallResult(success, returndata, errorMessage) */\n      jump\t// in\n    tag_423:\n        /* \"GMD_flat.sol\":14908:14966  return verifyCallResult(success, returndata, errorMessage) */\n      swap8\n        /* \"GMD_flat.sol\":14474:14973  function functionCallWithValue(... */\n      swap7\n      pop\n      pop\n      pop\n      pop\n      pop\n      pop\n      pop\n      jump\t// out\n        /* \"GMD_flat.sol\":17087:17829  function verifyCallResult(... */\n    tag_424:\n        /* \"GMD_flat.sol\":17233:17245  bytes memory */\n      0x60\n        /* \"GMD_flat.sol\":17261:17268  success */\n      dup4\n        /* \"GMD_flat.sol\":17257:17823  if (success) {... */\n      iszero\n      tag_427\n      jumpi\n      pop\n        /* \"GMD_flat.sol\":17291:17301  returndata */\n      dup2\n        /* \"GMD_flat.sol\":17284:17301  return returndata */\n      jump(tag_159)\n        /* \"GMD_flat.sol\":17257:17823  if (success) {... */\n    tag_427:\n        /* \"GMD_flat.sol\":17402:17419  returndata.length */\n      dup3\n      mload\n        /* \"GMD_flat.sol\":17402:17423  returndata.length > 0 */\n      iszero\n        /* \"GMD_flat.sol\":17398:17813  if (returndata.length > 0) {... */\n      tag_429\n      jumpi\n        /* \"GMD_flat.sol\":17646:17656  returndata */\n      dup3\n        /* \"GMD_flat.sol\":17640:17657  mload(returndata) */\n      mload\n        /* \"GMD_flat.sol\":17706:17721  returndata_size */\n      dup1\n        /* \"GMD_flat.sol\":17693:17703  returndata */\n      dup5\n        /* \"GMD_flat.sol\":17689:17691  32 */\n      0x20\n        /* \"GMD_flat.sol\":17685:17704  add(32, returndata) */\n      add\n        /* \"GMD_flat.sol\":17678:17722  revert(add(32, returndata), returndata_size) */\n      revert\n        /* \"GMD_flat.sol\":17398:17813  if (returndata.length > 0) {... */\n    tag_429:\n        /* \"GMD_flat.sol\":17785:17797  errorMessage */\n      dup2\n        /* \"GMD_flat.sol\":17778:17798  revert(errorMessage) */\n      mload(0x40)\n      shl(0xe5, 0x461bcd)\n      dup2\n      mstore\n      0x04\n      add\n      tag_195\n      swap2\n      swap1\n      tag_50\n      jump\t// in\n        /* \"#utility.yul\":14:187   */\n    tag_432:\n        /* \"#utility.yul\":82:102   */\n      dup1\n      calldataload\n      sub(shl(0xa0, 0x01), 0x01)\n        /* \"#utility.yul\":131:162   */\n      dup2\n      and\n        /* \"#utility.yul\":121:163   */\n      dup2\n      eq\n        /* \"#utility.yul\":111:181   */\n      tag_438\n      jumpi\n        /* \"#utility.yul\":177:178   */\n      0x00\n        /* \"#utility.yul\":174:175   */\n      dup1\n        /* \"#utility.yul\":167:179   */\n      revert\n        /* \"#utility.yul\":111:181   */\n    tag_438:\n        /* \"#utility.yul\":14:187   */\n      swap2\n      swap1\n      pop\n      jump\t// out\n        /* \"#utility.yul\":192:378   */\n    tag_43:\n        /* \"#utility.yul\":251:257   */\n      0x00\n        /* \"#utility.yul\":304:306   */\n      0x20\n        /* \"#utility.yul\":292:301   */\n      dup3\n        /* \"#utility.yul\":283:290   */\n      dup5\n        /* \"#utility.yul\":279:302   */\n      sub\n        /* \"#utility.yul\":275:307   */\n      slt\n        /* \"#utility.yul\":272:324   */\n      iszero\n      tag_440\n      jumpi\n        /* \"#utility.yul\":320:321   */\n      0x00\n        /* \"#utility.yul\":317:318   */\n      dup1\n        /* \"#utility.yul\":310:322   */\n      revert\n        /* \"#utility.yul\":272:324   */\n    tag_440:\n        /* \"#utility.yul\":343:372   */\n      tag_159\n        /* \"#utility.yul\":362:371   */\n      dup3\n        /* \"#utility.yul\":343:372   */\n      tag_432\n      jump\t// in\n        /* \"#utility.yul\":565:823   */\n    tag_433:\n        /* \"#utility.yul\":637:638   */\n      0x00\n        /* \"#utility.yul\":647:760   */\n    tag_444:\n        /* \"#utility.yul\":661:667   */\n      dup4\n        /* \"#utility.yul\":658:659   */\n      dup2\n        /* \"#utility.yul\":655:668   */\n      lt\n        /* \"#utility.yul\":647:760   */\n      iszero\n      tag_446\n      jumpi\n        /* \"#utility.yul\":737:748   */\n      dup2\n      dup2\n      add\n        /* \"#utility.yul\":731:749   */\n      mload\n        /* \"#utility.yul\":718:729   */\n      dup4\n      dup3\n      add\n        /* \"#utility.yul\":711:750   */\n      mstore\n        /* \"#utility.yul\":683:685   */\n      0x20\n        /* \"#utility.yul\":676:686   */\n      add\n        /* \"#utility.yul\":647:760   */\n      jump(tag_444)\n    tag_446:\n        /* \"#utility.yul\":778:784   */\n      dup4\n        /* \"#utility.yul\":775:776   */\n      dup2\n        /* \"#utility.yul\":772:785   */\n      gt\n        /* \"#utility.yul\":769:817   */\n      iszero\n      tag_336\n      jumpi\n      pop\n      pop\n        /* \"#utility.yul\":813:814   */\n      0x00\n        /* \"#utility.yul\":795:811   */\n      swap2\n      add\n        /* \"#utility.yul\":788:815   */\n      mstore\n        /* \"#utility.yul\":565:823   */\n      jump\t// out\n        /* \"#utility.yul\":828:1211   */\n    tag_50:\n        /* \"#utility.yul\":977:979   */\n      0x20\n        /* \"#utility.yul\":966:975   */\n      dup2\n        /* \"#utility.yul\":959:980   */\n      mstore\n        /* \"#utility.yul\":940:944   */\n      0x00\n        /* \"#utility.yul\":1009:1015   */\n      dup3\n        /* \"#utility.yul\":1003:1016   */\n      mload\n        /* \"#utility.yul\":1052:1058   */\n      dup1\n        /* \"#utility.yul\":1047:1049   */\n      0x20\n        /* \"#utility.yul\":1036:1045   */\n      dup5\n        /* \"#utility.yul\":1032:1050   */\n      add\n        /* \"#utility.yul\":1025:1059   */\n      mstore\n        /* \"#utility.yul\":1068:1134   */\n      tag_449\n        /* \"#utility.yul\":1127:1133   */\n      dup2\n        /* \"#utility.yul\":1122:1124   */\n      0x40\n        /* \"#utility.yul\":1111:1120   */\n      dup6\n        /* \"#utility.yul\":1107:1125   */\n      add\n        /* \"#utility.yul\":1102:1104   */\n      0x20\n        /* \"#utility.yul\":1094:1100   */\n      dup8\n        /* \"#utility.yul\":1090:1105   */\n      add\n        /* \"#utility.yul\":1068:1134   */\n      tag_433\n      jump\t// in\n    tag_449:\n        /* \"#utility.yul\":1195:1197   */\n      0x1f\n        /* \"#utility.yul\":1174:1189   */\n      add\n      not(0x1f)\n        /* \"#utility.yul\":1170:1199   */\n      and\n        /* \"#utility.yul\":1155:1200   */\n      swap2\n      swap1\n      swap2\n      add\n        /* \"#utility.yul\":1202:1204   */\n      0x40\n        /* \"#utility.yul\":1151:1205   */\n      add\n      swap3\n        /* \"#utility.yul\":828:1211   */\n      swap2\n      pop\n      pop\n      jump\t// out\n        /* \"#utility.yul\":1216:1470   */\n    tag_53:\n        /* \"#utility.yul\":1284:1290   */\n      0x00\n        /* \"#utility.yul\":1292:1298   */\n      dup1\n        /* \"#utility.yul\":1345:1347   */\n      0x40\n        /* \"#utility.yul\":1333:1342   */\n      dup4\n        /* \"#utility.yul\":1324:1331   */\n      dup6\n        /* \"#utility.yul\":1320:1343   */\n      sub\n        /* \"#utility.yul\":1316:1348   */\n      slt\n        /* \"#utility.yul\":1313:1365   */\n      iszero\n      tag_451\n      jumpi\n        /* \"#utility.yul\":1361:1362   */\n      0x00\n        /* \"#utility.yul\":1358:1359   */\n      dup1\n        /* \"#utility.yul\":1351:1363   */\n      revert\n        /* \"#utility.yul\":1313:1365   */\n    tag_451:\n        /* \"#utility.yul\":1384:1413   */\n      tag_452\n        /* \"#utility.yul\":1403:1412   */\n      dup4\n        /* \"#utility.yul\":1384:1413   */\n      tag_432\n      jump\t// in\n    tag_452:\n        /* \"#utility.yul\":1374:1413   */\n      swap5\n        /* \"#utility.yul\":1460:1462   */\n      0x20\n        /* \"#utility.yul\":1445:1463   */\n      swap4\n      swap1\n      swap4\n      add\n        /* \"#utility.yul\":1432:1464   */\n      calldataload\n      swap4\n      pop\n      pop\n      pop\n        /* \"#utility.yul\":1216:1470   */\n      jump\t// out\n        /* \"#utility.yul\":1991:2319   */\n    tag_67:\n        /* \"#utility.yul\":2068:2074   */\n      0x00\n        /* \"#utility.yul\":2076:2082   */\n      dup1\n        /* \"#utility.yul\":2084:2090   */\n      0x00\n        /* \"#utility.yul\":2137:2139   */\n      0x60\n        /* \"#utility.yul\":2125:2134   */\n      dup5\n        /* \"#utility.yul\":2116:2123   */\n      dup7\n        /* \"#utility.yul\":2112:2135   */\n      sub\n        /* \"#utility.yul\":2108:2140   */\n      slt\n        /* \"#utility.yul\":2105:2157   */\n      iszero\n      tag_456\n      jumpi\n        /* \"#utility.yul\":2153:2154   */\n      0x00\n        /* \"#utility.yul\":2150:2151   */\n      dup1\n        /* \"#utility.yul\":2143:2155   */\n      revert\n        /* \"#utility.yul\":2105:2157   */\n    tag_456:\n        /* \"#utility.yul\":2176:2205   */\n      tag_457\n        /* \"#utility.yul\":2195:2204   */\n      dup5\n        /* \"#utility.yul\":2176:2205   */\n      tag_432\n      jump\t// in\n    tag_457:\n        /* \"#utility.yul\":2166:2205   */\n      swap3\n      pop\n        /* \"#utility.yul\":2224:2262   */\n      tag_458\n        /* \"#utility.yul\":2258:2260   */\n      0x20\n        /* \"#utility.yul\":2247:2256   */\n      dup6\n        /* \"#utility.yul\":2243:2261   */\n      add\n        /* \"#utility.yul\":2224:2262   */\n      tag_432\n      jump\t// in\n    tag_458:\n        /* \"#utility.yul\":2214:2262   */\n      swap2\n      pop\n        /* \"#utility.yul\":2309:2311   */\n      0x40\n        /* \"#utility.yul\":2298:2307   */\n      dup5\n        /* \"#utility.yul\":2294:2312   */\n      add\n        /* \"#utility.yul\":2281:2313   */\n      calldataload\n        /* \"#utility.yul\":2271:2313   */\n      swap1\n      pop\n        /* \"#utility.yul\":1991:2319   */\n      swap3\n      pop\n      swap3\n      pop\n      swap3\n      jump\t// out\n        /* \"#utility.yul\":2513:2693   */\n    tag_83:\n        /* \"#utility.yul\":2572:2578   */\n      0x00\n        /* \"#utility.yul\":2625:2627   */\n      0x20\n        /* \"#utility.yul\":2613:2622   */\n      dup3\n        /* \"#utility.yul\":2604:2611   */\n      dup5\n        /* \"#utility.yul\":2600:2623   */\n      sub\n        /* \"#utility.yul\":2596:2628   */\n      slt\n        /* \"#utility.yul\":2593:2645   */\n      iszero\n      tag_461\n      jumpi\n        /* \"#utility.yul\":2641:2642   */\n      0x00\n        /* \"#utility.yul\":2638:2639   */\n      dup1\n        /* \"#utility.yul\":2631:2643   */\n      revert\n        /* \"#utility.yul\":2593:2645   */\n    tag_461:\n      pop\n        /* \"#utility.yul\":2664:2687   */\n      calldataload\n      swap2\n        /* \"#utility.yul\":2513:2693   */\n      swap1\n      pop\n      jump\t// out\n        /* \"#utility.yul\":3128:3388   */\n    tag_138:\n        /* \"#utility.yul\":3196:3202   */\n      0x00\n        /* \"#utility.yul\":3204:3210   */\n      dup1\n        /* \"#utility.yul\":3257:3259   */\n      0x40\n        /* \"#utility.yul\":3245:3254   */\n      dup4\n        /* \"#utility.yul\":3236:3243   */\n      dup6\n        /* \"#utility.yul\":3232:3255   */\n      sub\n        /* \"#utility.yul\":3228:3260   */\n      slt\n        /* \"#utility.yul\":3225:3277   */\n      iszero\n      tag_465\n      jumpi\n        /* \"#utility.yul\":3273:3274   */\n      0x00\n        /* \"#utility.yul\":3270:3271   */\n      dup1\n        /* \"#utility.yul\":3263:3275   */\n      revert\n        /* \"#utility.yul\":3225:3277   */\n    tag_465:\n        /* \"#utility.yul\":3296:3325   */\n      tag_466\n        /* \"#utility.yul\":3315:3324   */\n      dup4\n        /* \"#utility.yul\":3296:3325   */\n      tag_432\n      jump\t// in\n    tag_466:\n        /* \"#utility.yul\":3286:3325   */\n      swap2\n      pop\n        /* \"#utility.yul\":3344:3382   */\n      tag_467\n        /* \"#utility.yul\":3378:3380   */\n      0x20\n        /* \"#utility.yul\":3367:3376   */\n      dup5\n        /* \"#utility.yul\":3363:3381   */\n      add\n        /* \"#utility.yul\":3344:3382   */\n      tag_432\n      jump\t// in\n    tag_467:\n        /* \"#utility.yul\":3334:3382   */\n      swap1\n      pop\n        /* \"#utility.yul\":3128:3388   */\n      swap3\n      pop\n      swap3\n      swap1\n      pop\n      jump\t// out\n        /* \"#utility.yul\":3393:3511   */\n    tag_434:\n        /* \"#utility.yul\":3479:3484   */\n      dup1\n        /* \"#utility.yul\":3472:3485   */\n      iszero\n        /* \"#utility.yul\":3465:3486   */\n      iszero\n        /* \"#utility.yul\":3458:3463   */\n      dup2\n        /* \"#utility.yul\":3455:3487   */\n      eq\n        /* \"#utility.yul\":3445:3505   */\n      tag_198\n      jumpi\n        /* \"#utility.yul\":3501:3502   */\n      0x00\n        /* \"#utility.yul\":3498:3499   */\n      dup1\n        /* \"#utility.yul\":3491:3503   */\n      revert\n        /* \"#utility.yul\":3516:3757   */\n    tag_143:\n        /* \"#utility.yul\":3572:3578   */\n      0x00\n        /* \"#utility.yul\":3625:3627   */\n      0x20\n        /* \"#utility.yul\":3613:3622   */\n      dup3\n        /* \"#utility.yul\":3604:3611   */\n      dup5\n        /* \"#utility.yul\":3600:3623   */\n      sub\n        /* \"#utility.yul\":3596:3628   */\n      slt\n        /* \"#utility.yul\":3593:3645   */\n      iszero\n      tag_471\n      jumpi\n        /* \"#utility.yul\":3641:3642   */\n      0x00\n        /* \"#utility.yul\":3638:3639   */\n      dup1\n        /* \"#utility.yul\":3631:3643   */\n      revert\n        /* \"#utility.yul\":3593:3645   */\n    tag_471:\n        /* \"#utility.yul\":3680:3689   */\n      dup2\n        /* \"#utility.yul\":3667:3690   */\n      calldataload\n        /* \"#utility.yul\":3699:3727   */\n      tag_159\n        /* \"#utility.yul\":3721:3726   */\n      dup2\n        /* \"#utility.yul\":3699:3727   */\n      tag_434\n      jump\t// in\n        /* \"#utility.yul\":3762:4142   */\n    tag_162:\n        /* \"#utility.yul\":3841:3842   */\n      0x01\n        /* \"#utility.yul\":3837:3849   */\n      dup2\n      dup2\n      shr\n      swap1\n        /* \"#utility.yul\":3884:3896   */\n      dup3\n      and\n      dup1\n        /* \"#utility.yul\":3905:3966   */\n      tag_474\n      jumpi\n        /* \"#utility.yul\":3959:3963   */\n      0x7f\n        /* \"#utility.yul\":3951:3957   */\n      dup3\n        /* \"#utility.yul\":3947:3964   */\n      and\n        /* \"#utility.yul\":3937:3964   */\n      swap2\n      pop\n        /* \"#utility.yul\":3905:3966   */\n    tag_474:\n        /* \"#utility.yul\":4012:4014   */\n      0x20\n        /* \"#utility.yul\":4004:4010   */\n      dup3\n        /* \"#utility.yul\":4001:4015   */\n      lt\n        /* \"#utility.yul\":3981:3999   */\n      dup2\n        /* \"#utility.yul\":3978:4016   */\n      eq\n        /* \"#utility.yul\":3975:4136   */\n      iszero\n      tag_158\n      jumpi\n        /* \"#utility.yul\":4058:4068   */\n      0x4e487b71\n        /* \"#utility.yul\":4053:4056   */\n      0xe0\n        /* \"#utility.yul\":4049:4069   */\n      shl\n        /* \"#utility.yul\":4046:4047   */\n      0x00\n        /* \"#utility.yul\":4039:4070   */\n      mstore\n        /* \"#utility.yul\":4093:4097   */\n      0x22\n        /* \"#utility.yul\":4090:4091   */\n      0x04\n        /* \"#utility.yul\":4083:4098   */\n      mstore\n        /* \"#utility.yul\":4121:4125   */\n      0x24\n        /* \"#utility.yul\":4118:4119   */\n      0x00\n        /* \"#utility.yul\":4111:4126   */\n      revert\n        /* \"#utility.yul\":4147:4274   */\n    tag_435:\n        /* \"#utility.yul\":4208:4218   */\n      0x4e487b71\n        /* \"#utility.yul\":4203:4206   */\n      0xe0\n        /* \"#utility.yul\":4199:4219   */\n      shl\n        /* \"#utility.yul\":4196:4197   */\n      0x00\n        /* \"#utility.yul\":4189:4220   */\n      mstore\n        /* \"#utility.yul\":4239:4243   */\n      0x11\n        /* \"#utility.yul\":4236:4237   */\n      0x04\n        /* \"#utility.yul\":4229:4244   */\n      mstore\n        /* \"#utility.yul\":4263:4267   */\n      0x24\n        /* \"#utility.yul\":4260:4261   */\n      0x00\n        /* \"#utility.yul\":4253:4268   */\n      revert\n        /* \"#utility.yul\":4279:4407   */\n    tag_185:\n        /* \"#utility.yul\":4319:4322   */\n      0x00\n        /* \"#utility.yul\":4350:4351   */\n      dup3\n        /* \"#utility.yul\":4346:4352   */\n      not\n        /* \"#utility.yul\":4343:4344   */\n      dup3\n        /* \"#utility.yul\":4340:4353   */\n      gt\n        /* \"#utility.yul\":4337:4376   */\n      iszero\n      tag_479\n      jumpi\n        /* \"#utility.yul\":4356:4374   */\n      tag_479\n      tag_435\n      jump\t// in\n    tag_479:\n      pop\n        /* \"#utility.yul\":4392:4401   */\n      add\n      swap1\n        /* \"#utility.yul\":4279:4407   */\n      jump\t// out\n        /* \"#utility.yul\":4753:4937   */\n    tag_209:\n        /* \"#utility.yul\":4823:4829   */\n      0x00\n        /* \"#utility.yul\":4876:4878   */\n      0x20\n        /* \"#utility.yul\":4864:4873   */\n      dup3\n        /* \"#utility.yul\":4855:4862   */\n      dup5\n        /* \"#utility.yul\":4851:4874   */\n      sub\n        /* \"#utility.yul\":4847:4879   */\n      slt\n        /* \"#utility.yul\":4844:4896   */\n      iszero\n      tag_482\n      jumpi\n        /* \"#utility.yul\":4892:4893   */\n      0x00\n        /* \"#utility.yul\":4889:4890   */\n      dup1\n        /* \"#utility.yul\":4882:4894   */\n      revert\n        /* \"#utility.yul\":4844:4896   */\n    tag_482:\n      pop\n        /* \"#utility.yul\":4915:4931   */\n      mload\n      swap2\n        /* \"#utility.yul\":4753:4937   */\n      swap1\n      pop\n      jump\t// out\n        /* \"#utility.yul\":5916:6161   */\n    tag_233:\n        /* \"#utility.yul\":5983:5989   */\n      0x00\n        /* \"#utility.yul\":6036:6038   */\n      0x20\n        /* \"#utility.yul\":6024:6033   */\n      dup3\n        /* \"#utility.yul\":6015:6022   */\n      dup5\n        /* \"#utility.yul\":6011:6034   */\n      sub\n        /* \"#utility.yul\":6007:6039   */\n      slt\n        /* \"#utility.yul\":6004:6056   */\n      iszero\n      tag_487\n      jumpi\n        /* \"#utility.yul\":6052:6053   */\n      0x00\n        /* \"#utility.yul\":6049:6050   */\n      dup1\n        /* \"#utility.yul\":6042:6054   */\n      revert\n        /* \"#utility.yul\":6004:6056   */\n    tag_487:\n        /* \"#utility.yul\":6084:6093   */\n      dup2\n        /* \"#utility.yul\":6078:6094   */\n      mload\n        /* \"#utility.yul\":6103:6131   */\n      tag_159\n        /* \"#utility.yul\":6125:6130   */\n      dup2\n        /* \"#utility.yul\":6103:6131   */\n      tag_434\n      jump\t// in\n        /* \"#utility.yul\":8721:8846   */\n    tag_320:\n        /* \"#utility.yul\":8761:8765   */\n      0x00\n        /* \"#utility.yul\":8789:8790   */\n      dup3\n        /* \"#utility.yul\":8786:8787   */\n      dup3\n        /* \"#utility.yul\":8783:8791   */\n      lt\n        /* \"#utility.yul\":8780:8814   */\n      iszero\n      tag_498\n      jumpi\n        /* \"#utility.yul\":8794:8812   */\n      tag_498\n      tag_435\n      jump\t// in\n    tag_498:\n      pop\n        /* \"#utility.yul\":8831:8840   */\n      sub\n      swap1\n        /* \"#utility.yul\":8721:8846   */\n      jump\t// out\n        /* \"#utility.yul\":12400:12568   */\n    tag_376:\n        /* \"#utility.yul\":12440:12447   */\n      0x00\n        /* \"#utility.yul\":12506:12507   */\n      dup2\n        /* \"#utility.yul\":12502:12503   */\n      0x00\n        /* \"#utility.yul\":12498:12504   */\n      not\n        /* \"#utility.yul\":12494:12508   */\n      div\n        /* \"#utility.yul\":12491:12492   */\n      dup4\n        /* \"#utility.yul\":12488:12509   */\n      gt\n        /* \"#utility.yul\":12483:12484   */\n      dup3\n        /* \"#utility.yul\":12476:12485   */\n      iszero\n        /* \"#utility.yul\":12469:12486   */\n      iszero\n        /* \"#utility.yul\":12465:12510   */\n      and\n        /* \"#utility.yul\":12462:12533   */\n      iszero\n      tag_510\n      jumpi\n        /* \"#utility.yul\":12513:12531   */\n      tag_510\n      tag_435\n      jump\t// in\n    tag_510:\n      pop\n        /* \"#utility.yul\":12553:12562   */\n      mul\n      swap1\n        /* \"#utility.yul\":12400:12568   */\n      jump\t// out\n        /* \"#utility.yul\":12573:12790   */\n    tag_379:\n        /* \"#utility.yul\":12613:12614   */\n      0x00\n        /* \"#utility.yul\":12639:12640   */\n      dup3\n        /* \"#utility.yul\":12629:12761   */\n      tag_512\n      jumpi\n        /* \"#utility.yul\":12683:12693   */\n      0x4e487b71\n        /* \"#utility.yul\":12678:12681   */\n      0xe0\n        /* \"#utility.yul\":12674:12694   */\n      shl\n        /* \"#utility.yul\":12671:12672   */\n      0x00\n        /* \"#utility.yul\":12664:12695   */\n      mstore\n        /* \"#utility.yul\":12718:12722   */\n      0x12\n        /* \"#utility.yul\":12715:12716   */\n      0x04\n        /* \"#utility.yul\":12708:12723   */\n      mstore\n        /* \"#utility.yul\":12746:12750   */\n      0x24\n        /* \"#utility.yul\":12743:12744   */\n      0x00\n        /* \"#utility.yul\":12736:12751   */\n      revert\n        /* \"#utility.yul\":12629:12761   */\n    tag_512:\n      pop\n        /* \"#utility.yul\":12775:12784   */\n      div\n      swap1\n        /* \"#utility.yul\":12573:12790   */\n      jump\t// out\n        /* \"#utility.yul\":14711:14985   */\n    tag_419:\n        /* \"#utility.yul\":14840:14843   */\n      0x00\n        /* \"#utility.yul\":14878:14884   */\n      dup3\n        /* \"#utility.yul\":14872:14885   */\n      mload\n        /* \"#utility.yul\":14894:14947   */\n      tag_519\n        /* \"#utility.yul\":14940:14946   */\n      dup2\n        /* \"#utility.yul\":14935:14938   */\n      dup5\n        /* \"#utility.yul\":14928:14932   */\n      0x20\n        /* \"#utility.yul\":14920:14926   */\n      dup8\n        /* \"#utility.yul\":14916:14933   */\n      add\n        /* \"#utility.yul\":14894:14947   */\n      tag_433\n      jump\t// in\n    tag_519:\n        /* \"#utility.yul\":14963:14979   */\n      swap2\n      swap1\n      swap2\n      add\n      swap3\n        /* \"#utility.yul\":14711:14985   */\n      swap2\n      pop\n      pop\n      jump\t// out\n\n    auxdata: 0xa264697066735822122068beebd826f5acc009cf8449158ab291b92cbb341a3b8696ec07df7ba811460c64736f6c634300080c0033\n}\n",
				"bytecode": {
					"linkReferences": {},
					"object": "60806040526103e8600855600060095562069780600a55600b80546001600160a81b03191674ff970a61a04b1ca14834a43f5de4533ebddb5cc8001790553480156200004a57600080fd5b506040518060400160405280600381526020016211d35160ea1b8152506040518060400160405280600381526020016211d35160ea1b81525081600390805190602001906200009b9291906200023e565b508051620000b19060049060208401906200023e565b505050620000ce620000c86200010060201b60201c565b62000104565b6001600655620000fa33620000e66012600a620003f9565b620000f49061c35062000411565b62000156565b6200048b565b3390565b600580546001600160a01b038381166001600160a01b0319831681179093556040519116919082907f8be0079c531659141344cd1fd0a4f28419497f9722a3daafe3b4186f6b6457e090600090a35050565b6001600160a01b038216620001b15760405162461bcd60e51b815260206004820152601f60248201527f45524332303a206d696e7420746f20746865207a65726f206164647265737300604482015260640160405180910390fd5b8060026000828254620001c5919062000433565b90915550506001600160a01b03821660009081526020819052604081208054839290620001f490849062000433565b90915550506040518181526001600160a01b038316906000907fddf252ad1be2c89b69c2b068fc378daa952ba7f163c4a11628f55a4df523b3ef9060200160405180910390a35050565b8280546200024c906200044e565b90600052602060002090601f016020900481019282620002705760008555620002bb565b82601f106200028b57805160ff1916838001178555620002bb565b82800160010185558215620002bb579182015b82811115620002bb5782518255916020019190600101906200029e565b50620002c9929150620002cd565b5090565b5b80821115620002c95760008155600101620002ce565b634e487b7160e01b600052601160045260246000fd5b600181815b808511156200033b5781600019048211156200031f576200031f620002e4565b808516156200032d57918102915b93841c9390800290620002ff565b509250929050565b6000826200035457506001620003f3565b816200036357506000620003f3565b81600181146200037c57600281146200038757620003a7565b6001915050620003f3565b60ff8411156200039b576200039b620002e4565b50506001821b620003f3565b5060208310610133831016604e8410600b8410161715620003cc575081810a620003f3565b620003d88383620002fa565b8060001904821115620003ef57620003ef620002e4565b0290505b92915050565b60006200040a60ff84168362000343565b9392505050565b60008160001904831182151516156200042e576200042e620002e4565b500290565b60008219821115620004495762000449620002e4565b500190565b600181811c908216806200046357607f821691505b602082108114156200048557634e487b7160e01b600052602260045260246000fd5b50919050565b611a5a806200049b6000396000f3fe608060405234801561001057600080fd5b50600436106101e55760003560e01c806370a082311161010f578063a0712d68116100a2578063e2af30f411610071578063e2af30f41461041b578063e2e5c15c1461042e578063f2fde38b14610436578063f4a0a5281461044957600080fd5b8063a0712d68146103cf578063a457c2d7146103e2578063a9059cbb146103f5578063dd62ed3e1461040857600080fd5b806384d24226116100de57806384d242261461037357806389a30271146103865780638da5cb5b146103b657806395d89b41146103c757600080fd5b806370a0823114610330578063715018a6146103595780637313ee5a1461036157806376c71ca11461036a57600080fd5b8063313ce5671161018757806342966c681161015657806342966c68146103045780634e274514146103175780634e71d92d1461031f5780636817c76c1461032757600080fd5b8063313ce567146102ba57806339509351146102c95780634070a0c9146102dc57806340bee0ed146102f157600080fd5b806318160ddd116101c357806318160ddd146102485780631959a0021461025057806323b872dd1461029a57806324bbd049146102ad57600080fd5b806303c824da146101ea57806306fdde0314610210578063095ea7b314610225575b600080fd5b6101fd6101f83660046117c0565b61045c565b6040519081526020015b60405180910390f35b6102186104e6565b6040516102079190611807565b61023861023336600461183a565b610578565b6040519015158152602001610207565b6002546101fd565b61027f61025e3660046117c0565b60076020526000908152604090208054600182015460029092015490919083565b60408051938452602084019290925290820152606001610207565b6102386102a8366004611864565b610590565b600b546102389060ff1681565b60405160128152602001610207565b6102386102d736600461183a565b6105b4565b6102ef6102ea3660046118a0565b6105d6565b005b6102ef6102ff3660046118a0565b6105e3565b6102ef6103123660046118a0565b610646565b6102ef610653565b6102ef6106fa565b6101fd60085481565b6101fd61033e3660046117c0565b6001600160a01b031660009081526020819052604090205490565b6102ef6108fd565b6101fd600a5481565b6101fd60095481565b6101fd6103813660046117c0565b61090f565b600b5461039e9061010090046001600160a01b031681565b6040516001600160a01b039091168152602001610207565b6005546001600160a01b031661039e565b6102186109aa565b6102ef6103dd3660046118a0565b6109b9565b6102386103f036600461183a565b610c97565b61023861040336600461183a565b610d12565b6101fd6104163660046118b9565b610d20565b6102ef6104293660046118fa565b610d4b565b6101fd610d66565b6102ef6104443660046117c0565b610ddb565b6102ef6104573660046118a0565b610e51565b6001600160a01b0381166000908152600760205260408120600101548190610485904290610eb0565b6001600160a01b03841660009081526007602052604090206002015490915081106104b35750600092915050565b6001600160a01b0383166000908152600760205260409020600201546104d99082610eb0565b9392505050565b50919050565b6060600380546104f590611917565b80601f016020809104026020016040519081016040528092919081815260200182805461052190611917565b801561056e5780601f106105435761010080835404028352916020019161056e565b820191906000526020600020905b81548152906001019060200180831161055157829003601f168201915b5050505050905090565b600033610586818585610ebc565b5060019392505050565b60003361059e858285610fe1565b6105a985858561105b565b506001949350505050565b6000336105868185856105c78383610d20565b6105d19190611962565b610ebc565b6105de611229565b600955565b6105eb611229565b6203f48081101580156106015750620697808111155b6106415760405162461bcd60e51b815260206004820152600c60248201526b6e6f7420696e2072616e676560a01b60448201526064015b60405180910390fd5b600a55565b6106503382611283565b50565b61065b611229565b6106f86106706005546001600160a01b031690565b600b546040516370a0823160e01b81523060048201526101009091046001600160a01b0316906370a0823190602401602060405180830381865afa1580156106bc573d6000803e3d6000fd5b505050506040513d601f19601f820116820180604052508101906106e0919061197a565b600b5461010090046001600160a01b031691906113ce565b565b6002600654141561074d5760405162461bcd60e51b815260206004820152601f60248201527f5265656e7472616e637947756172643a207265656e7472616e742063616c6c006044820152606401610638565b6002600655336000908152600760205260409020546107985760405162461bcd60e51b81526020600482015260076024820152661b9bc81b5a5b9d60ca1b6044820152606401610638565b336000908152600760205260408120600101546107b6904290610eb0565b336000908152600760205260408120600201549192509082106107f357503360009081526007602052604081208054600290910191909155610852565b3360009081526007602052604090206002810154905461081e91906108189085611431565b9061143d565b3360009081526007602052604090206002015490915061083e9083610eb0565b336000908152600760205260409020600201555b3360009081526007602052604090205461086c9082610eb0565b336000818152600760205260409081902092835542600190930192909255905163a9059cbb60e01b8152600481019190915260248101829052309063a9059cbb906044016020604051808303816000875af11580156108cf573d6000803e3d6000fd5b505050506040513d601f19601f820116820180604052508101906108f39190611993565b5050600160065550565b610905611229565b6106f86000611449565b6001600160a01b0381166000908152600760205260408120600101548190610938904290610eb0565b3360009081526007602052604081206002015491925090821061097457506001600160a01b0383166000908152600760205260409020546104d9565b6001600160a01b0384166000908152600760205260409020600281015490546109a291906108189085611431565b949350505050565b6060600480546104f590611917565b60026006541415610a0c5760405162461bcd60e51b815260206004820152601f60248201527f5265656e7472616e637947756172643a207265656e7472616e742063616c6c006044820152606401610638565b60026006556377359400811115610a5c5760405162461bcd60e51b81526020600482015260146024820152730dac2f0406460606040eae6c8c640e0cae440e8f60631b6044820152606401610638565b600b5460ff16610aa05760405162461bcd60e51b815260206004820152600f60248201526e1b5a5b9d081b9bdd081bdc195b9959608a1b6044820152606401610638565b600b546040516370a0823160e01b8152336004820152829161010090046001600160a01b0316906370a0823190602401602060405180830381865afa158015610aed573d6000803e3d6000fd5b505050506040513d601f19601f82011682018060405250810190610b11919061197a565b1015610b565760405162461bcd60e51b8152602060048201526014602482015273555344432062616c616e636520746f6f206c6f7760601b6044820152606401610638565b6000610b678264e8d4a51000611431565b90506000610b866008546108186103e88561143190919063ffffffff16565b9050600954610bf782306001600160a01b03166318160ddd6040518163ffffffff1660e01b8152600401602060405180830381865afa158015610bcd573d6000803e3d6000fd5b505050506040513d601f19601f82011682018060405250810190610bf1919061197a565b9061149b565b1115610c355760405162461bcd60e51b815260206004820152600d60248201526c06f766572206d696e742063617609c1b6044820152606401610638565b33600090815260076020526040902054610c4f908261149b565b336000908152600760205260409020908155426001820155600a54600290910155610c7a30826114a7565b600b546108f39061010090046001600160a01b0316333086611586565b60003381610ca58286610d20565b905083811015610d055760405162461bcd60e51b815260206004820152602560248201527f45524332303a2064656372656173656420616c6c6f77616e63652062656c6f77604482015264207a65726f60d81b6064820152608401610638565b6105a98286868403610ebc565b60003361058681858561105b565b6001600160a01b03918216600090815260016020908152604080832093909416825291909152205490565b610d53611229565b600b805460ff1916911515919091179055565b6000610dd6306001600160a01b03166318160ddd6040518163ffffffff1660e01b8152600401602060405180830381865afa158015610da9573d6000803e3d6000fd5b505050506040513d601f19601f82011682018060405250810190610dcd919061197a565b60095490610eb0565b905090565b610de3611229565b6001600160a01b038116610e485760405162461bcd60e51b815260206004820152602660248201527f4f776e61626c653a206e6577206f776e657220697320746865207a65726f206160448201526564647265737360d01b6064820152608401610638565b61065081611449565b610e59611229565b600854811015610eab5760405162461bcd60e51b815260206004820152601d60248201527f63616e2774206265206c6f776572207468616e206c617374206d696e740000006044820152606401610638565b600855565b60006104d982846119b0565b6001600160a01b038316610f1e5760405162461bcd60e51b8152602060048201526024808201527f45524332303a20617070726f76652066726f6d20746865207a65726f206164646044820152637265737360e01b6064820152608401610638565b6001600160a01b038216610f7f5760405162461bcd60e51b815260206004820152602260248201527f45524332303a20617070726f766520746f20746865207a65726f206164647265604482015261737360f01b6064820152608401610638565b6001600160a01b0383811660008181526001602090815260408083209487168084529482529182902085905590518481527f8c5be1e5ebec7d5bd14f71427d1e84f3dd0314c0f7b2291e5b200ac8c7c3b92591015b60405180910390a3505050565b6000610fed8484610d20565b9050600019811461105557818110156110485760405162461bcd60e51b815260206004820152601d60248201527f45524332303a20696e73756666696369656e7420616c6c6f77616e63650000006044820152606401610638565b6110558484848403610ebc565b50505050565b6001600160a01b0383166110bf5760405162461bcd60e51b815260206004820152602560248201527f45524332303a207472616e736665722066726f6d20746865207a65726f206164604482015264647265737360d81b6064820152608401610638565b6001600160a01b0382166111215760405162461bcd60e51b815260206004820152602360248201527f45524332303a207472616e7366657220746f20746865207a65726f206164647260448201526265737360e81b6064820152608401610638565b6001600160a01b038316600090815260208190526040902054818110156111995760405162461bcd60e51b815260206004820152602660248201527f45524332303a207472616e7366657220616d6f756e7420657863656564732062604482015265616c616e636560d01b6064820152608401610638565b6001600160a01b038085166000908152602081905260408082208585039055918516815290812080548492906111d0908490611962565b92505081905550826001600160a01b0316846001600160a01b03167fddf252ad1be2c89b69c2b068fc378daa952ba7f163c4a11628f55a4df523b3ef8460405161121c91815260200190565b60405180910390a3611055565b6005546001600160a01b031633146106f85760405162461bcd60e51b815260206004820181905260248201527f4f776e61626c653a2063616c6c6572206973206e6f7420746865206f776e65726044820152606401610638565b6001600160a01b0382166112e35760405162461bcd60e51b815260206004820152602160248201527f45524332303a206275726e2066726f6d20746865207a65726f206164647265736044820152607360f81b6064820152608401610638565b6001600160a01b038216600090815260208190526040902054818110156113575760405162461bcd60e51b815260206004820152602260248201527f45524332303a206275726e20616d6f756e7420657863656564732062616c616e604482015261636560f01b6064820152608401610638565b6001600160a01b03831660009081526020819052604081208383039055600280548492906113869084906119b0565b90915550506040518281526000906001600160a01b038516907fddf252ad1be2c89b69c2b068fc378daa952ba7f163c4a11628f55a4df523b3ef90602001610fd4565b505050565b6040516001600160a01b0383166024820152604481018290526113c990849063a9059cbb60e01b906064015b60408051601f198184030181529190526020810180516001600160e01b03166001600160e01b0319909316929092179091526115be565b60006104d982846119c7565b60006104d982846119e6565b600580546001600160a01b038381166001600160a01b0319831681179093556040519116919082907f8be0079c531659141344cd1fd0a4f28419497f9722a3daafe3b4186f6b6457e090600090a35050565b60006104d98284611962565b6001600160a01b0382166114fd5760405162461bcd60e51b815260206004820152601f60248201527f45524332303a206d696e7420746f20746865207a65726f2061646472657373006044820152606401610638565b806002600082825461150f9190611962565b90915550506001600160a01b0382166000908152602081905260408120805483929061153c908490611962565b90915550506040518181526001600160a01b038316906000907fddf252ad1be2c89b69c2b068fc378daa952ba7f163c4a11628f55a4df523b3ef9060200160405180910390a35050565b6040516001600160a01b03808516602483015283166044820152606481018290526110559085906323b872dd60e01b906084016113fa565b6000611613826040518060400160405280602081526020017f5361666545524332303a206c6f772d6c6576656c2063616c6c206661696c6564815250856001600160a01b03166116909092919063ffffffff16565b8051909150156113c957808060200190518101906116319190611993565b6113c95760405162461bcd60e51b815260206004820152602a60248201527f5361666545524332303a204552433230206f7065726174696f6e20646964206e6044820152691bdd081cdd58d8d9595960b21b6064820152608401610638565b60606109a28484600085856001600160a01b0385163b6116f25760405162461bcd60e51b815260206004820152601d60248201527f416464726573733a2063616c6c20746f206e6f6e2d636f6e74726163740000006044820152606401610638565b600080866001600160a01b0316858760405161170e9190611a08565b60006040518083038185875af1925050503d806000811461174b576040519150601f19603f3d011682016040523d82523d6000602084013e611750565b606091505b509150915061176082828661176b565b979650505050505050565b6060831561177a5750816104d9565b82511561178a5782518084602001fd5b8160405162461bcd60e51b81526004016106389190611807565b80356001600160a01b03811681146117bb57600080fd5b919050565b6000602082840312156117d257600080fd5b6104d9826117a4565b60005b838110156117f65781810151838201526020016117de565b838111156110555750506000910152565b60208152600082518060208401526118268160408501602087016117db565b601f01601f19169190910160400192915050565b6000806040838503121561184d57600080fd5b611856836117a4565b946020939093013593505050565b60008060006060848603121561187957600080fd5b611882846117a4565b9250611890602085016117a4565b9150604084013590509250925092565b6000602082840312156118b257600080fd5b5035919050565b600080604083850312156118cc57600080fd5b6118d5836117a4565b91506118e3602084016117a4565b90509250929050565b801515811461065057600080fd5b60006020828403121561190c57600080fd5b81356104d9816118ec565b600181811c9082168061192b57607f821691505b602082108114156104e057634e487b7160e01b600052602260045260246000fd5b634e487b7160e01b600052601160045260246000fd5b600082198211156119755761197561194c565b500190565b60006020828403121561198c57600080fd5b5051919050565b6000602082840312156119a557600080fd5b81516104d9816118ec565b6000828210156119c2576119c261194c565b500390565b60008160001904831182151516156119e1576119e161194c565b500290565b600082611a0357634e487b7160e01b600052601260045260246000fd5b500490565b60008251611a1a8184602087016117db565b919091019291505056fea264697066735822122068beebd826f5acc009cf8449158ab291b92cbb341a3b8696ec07df7ba811460c64736f6c634300080c0033",
					"opcodes": "PUSH1 0x80 PUSH1 0x40 MSTORE PUSH2 0x3E8 PUSH1 0x8 SSTORE PUSH1 0x0 PUSH1 0x9 SSTORE PUSH3 0x69780 PUSH1 0xA SSTORE PUSH1 0xB DUP1 SLOAD PUSH1 0x1 PUSH1 0x1 PUSH1 0xA8 SHL SUB NOT AND PUSH21 0xFF970A61A04B1CA14834A43F5DE4533EBDDB5CC800 OR SWAP1 SSTORE CALLVALUE DUP1 ISZERO PUSH3 0x4A JUMPI PUSH1 0x0 DUP1 REVERT JUMPDEST POP PUSH1 0x40 MLOAD DUP1 PUSH1 0x40 ADD PUSH1 0x40 MSTORE DUP1 PUSH1 0x3 DUP2 MSTORE PUSH1 0x20 ADD PUSH3 0x11D351 PUSH1 0xEA SHL DUP2 MSTORE POP PUSH1 0x40 MLOAD DUP1 PUSH1 0x40 ADD PUSH1 0x40 MSTORE DUP1 PUSH1 0x3 DUP2 MSTORE PUSH1 0x20 ADD PUSH3 0x11D351 PUSH1 0xEA SHL DUP2 MSTORE POP DUP2 PUSH1 0x3 SWAP1 DUP1 MLOAD SWAP1 PUSH1 0x20 ADD SWAP1 PUSH3 0x9B SWAP3 SWAP2 SWAP1 PUSH3 0x23E JUMP JUMPDEST POP DUP1 MLOAD PUSH3 0xB1 SWAP1 PUSH1 0x4 SWAP1 PUSH1 0x20 DUP5 ADD SWAP1 PUSH3 0x23E JUMP JUMPDEST POP POP POP PUSH3 0xCE PUSH3 0xC8 PUSH3 0x100 PUSH1 0x20 SHL PUSH1 0x20 SHR JUMP JUMPDEST PUSH3 0x104 JUMP JUMPDEST PUSH1 0x1 PUSH1 0x6 SSTORE PUSH3 0xFA CALLER PUSH3 0xE6 PUSH1 0x12 PUSH1 0xA PUSH3 0x3F9 JUMP JUMPDEST PUSH3 0xF4 SWAP1 PUSH2 0xC350 PUSH3 0x411 JUMP JUMPDEST PUSH3 0x156 JUMP JUMPDEST PUSH3 0x48B JUMP JUMPDEST CALLER SWAP1 JUMP JUMPDEST PUSH1 0x5 DUP1 SLOAD PUSH1 0x1 PUSH1 0x1 PUSH1 0xA0 SHL SUB DUP4 DUP2 AND PUSH1 0x1 PUSH1 0x1 PUSH1 0xA0 SHL SUB NOT DUP4 AND DUP2 OR SWAP1 SWAP4 SSTORE PUSH1 0x40 MLOAD SWAP2 AND SWAP2 SWAP1 DUP3 SWAP1 PUSH32 0x8BE0079C531659141344CD1FD0A4F28419497F9722A3DAAFE3B4186F6B6457E0 SWAP1 PUSH1 0x0 SWAP1 LOG3 POP POP JUMP JUMPDEST PUSH1 0x1 PUSH1 0x1 PUSH1 0xA0 SHL SUB DUP3 AND PUSH3 0x1B1 JUMPI PUSH1 0x40 MLOAD PUSH3 0x461BCD PUSH1 0xE5 SHL DUP2 MSTORE PUSH1 0x20 PUSH1 0x4 DUP3 ADD MSTORE PUSH1 0x1F PUSH1 0x24 DUP3 ADD MSTORE PUSH32 0x45524332303A206D696E7420746F20746865207A65726F206164647265737300 PUSH1 0x44 DUP3 ADD MSTORE PUSH1 0x64 ADD PUSH1 0x40 MLOAD DUP1 SWAP2 SUB SWAP1 REVERT JUMPDEST DUP1 PUSH1 0x2 PUSH1 0x0 DUP3 DUP3 SLOAD PUSH3 0x1C5 SWAP2 SWAP1 PUSH3 0x433 JUMP JUMPDEST SWAP1 SWAP2 SSTORE POP POP PUSH1 0x1 PUSH1 0x1 PUSH1 0xA0 SHL SUB DUP3 AND PUSH1 0x0 SWAP1 DUP2 MSTORE PUSH1 0x20 DUP2 SWAP1 MSTORE PUSH1 0x40 DUP2 KECCAK256 DUP1 SLOAD DUP4 SWAP3 SWAP1 PUSH3 0x1F4 SWAP1 DUP5 SWAP1 PUSH3 0x433 JUMP JUMPDEST SWAP1 SWAP2 SSTORE POP POP PUSH1 0x40 MLOAD DUP2 DUP2 MSTORE PUSH1 0x1 PUSH1 0x1 PUSH1 0xA0 SHL SUB DUP4 AND SWAP1 PUSH1 0x0 SWAP1 PUSH32 0xDDF252AD1BE2C89B69C2B068FC378DAA952BA7F163C4A11628F55A4DF523B3EF SWAP1 PUSH1 0x20 ADD PUSH1 0x40 MLOAD DUP1 SWAP2 SUB SWAP1 LOG3 POP POP JUMP JUMPDEST DUP3 DUP1 SLOAD PUSH3 0x24C SWAP1 PUSH3 0x44E JUMP JUMPDEST SWAP1 PUSH1 0x0 MSTORE PUSH1 0x20 PUSH1 0x0 KECCAK256 SWAP1 PUSH1 0x1F ADD PUSH1 0x20 SWAP1 DIV DUP2 ADD SWAP3 DUP3 PUSH3 0x270 JUMPI PUSH1 0x0 DUP6 SSTORE PUSH3 0x2BB JUMP JUMPDEST DUP3 PUSH1 0x1F LT PUSH3 0x28B JUMPI DUP1 MLOAD PUSH1 0xFF NOT AND DUP4 DUP1 ADD OR DUP6 SSTORE PUSH3 0x2BB JUMP JUMPDEST DUP3 DUP1 ADD PUSH1 0x1 ADD DUP6 SSTORE DUP3 ISZERO PUSH3 0x2BB JUMPI SWAP2 DUP3 ADD JUMPDEST DUP3 DUP2 GT ISZERO PUSH3 0x2BB JUMPI DUP3 MLOAD DUP3 SSTORE SWAP2 PUSH1 0x20 ADD SWAP2 SWAP1 PUSH1 0x1 ADD SWAP1 PUSH3 0x29E JUMP JUMPDEST POP PUSH3 0x2C9 SWAP3 SWAP2 POP PUSH3 0x2CD JUMP JUMPDEST POP SWAP1 JUMP JUMPDEST JUMPDEST DUP1 DUP3 GT ISZERO PUSH3 0x2C9 JUMPI PUSH1 0x0 DUP2 SSTORE PUSH1 0x1 ADD PUSH3 0x2CE JUMP JUMPDEST PUSH4 0x4E487B71 PUSH1 0xE0 SHL PUSH1 0x0 MSTORE PUSH1 0x11 PUSH1 0x4 MSTORE PUSH1 0x24 PUSH1 0x0 REVERT JUMPDEST PUSH1 0x1 DUP2 DUP2 JUMPDEST DUP1 DUP6 GT ISZERO PUSH3 0x33B JUMPI DUP2 PUSH1 0x0 NOT DIV DUP3 GT ISZERO PUSH3 0x31F JUMPI PUSH3 0x31F PUSH3 0x2E4 JUMP JUMPDEST DUP1 DUP6 AND ISZERO PUSH3 0x32D JUMPI SWAP2 DUP2 MUL SWAP2 JUMPDEST SWAP4 DUP5 SHR SWAP4 SWAP1 DUP1 MUL SWAP1 PUSH3 0x2FF JUMP JUMPDEST POP SWAP3 POP SWAP3 SWAP1 POP JUMP JUMPDEST PUSH1 0x0 DUP3 PUSH3 0x354 JUMPI POP PUSH1 0x1 PUSH3 0x3F3 JUMP JUMPDEST DUP2 PUSH3 0x363 JUMPI POP PUSH1 0x0 PUSH3 0x3F3 JUMP JUMPDEST DUP2 PUSH1 0x1 DUP2 EQ PUSH3 0x37C JUMPI PUSH1 0x2 DUP2 EQ PUSH3 0x387 JUMPI PUSH3 0x3A7 JUMP JUMPDEST PUSH1 0x1 SWAP2 POP POP PUSH3 0x3F3 JUMP JUMPDEST PUSH1 0xFF DUP5 GT ISZERO PUSH3 0x39B JUMPI PUSH3 0x39B PUSH3 0x2E4 JUMP JUMPDEST POP POP PUSH1 0x1 DUP3 SHL PUSH3 0x3F3 JUMP JUMPDEST POP PUSH1 0x20 DUP4 LT PUSH2 0x133 DUP4 LT AND PUSH1 0x4E DUP5 LT PUSH1 0xB DUP5 LT AND OR ISZERO PUSH3 0x3CC JUMPI POP DUP2 DUP2 EXP PUSH3 0x3F3 JUMP JUMPDEST PUSH3 0x3D8 DUP4 DUP4 PUSH3 0x2FA JUMP JUMPDEST DUP1 PUSH1 0x0 NOT DIV DUP3 GT ISZERO PUSH3 0x3EF JUMPI PUSH3 0x3EF PUSH3 0x2E4 JUMP JUMPDEST MUL SWAP1 POP JUMPDEST SWAP3 SWAP2 POP POP JUMP JUMPDEST PUSH1 0x0 PUSH3 0x40A PUSH1 0xFF DUP5 AND DUP4 PUSH3 0x343 JUMP JUMPDEST SWAP4 SWAP3 POP POP POP JUMP JUMPDEST PUSH1 0x0 DUP2 PUSH1 0x0 NOT DIV DUP4 GT DUP3 ISZERO ISZERO AND ISZERO PUSH3 0x42E JUMPI PUSH3 0x42E PUSH3 0x2E4 JUMP JUMPDEST POP MUL SWAP1 JUMP JUMPDEST PUSH1 0x0 DUP3 NOT DUP3 GT ISZERO PUSH3 0x449 JUMPI PUSH3 0x449 PUSH3 0x2E4 JUMP JUMPDEST POP ADD SWAP1 JUMP JUMPDEST PUSH1 0x1 DUP2 DUP2 SHR SWAP1 DUP3 AND DUP1 PUSH3 0x463 JUMPI PUSH1 0x7F DUP3 AND SWAP2 POP JUMPDEST PUSH1 0x20 DUP3 LT DUP2 EQ ISZERO PUSH3 0x485 JUMPI PUSH4 0x4E487B71 PUSH1 0xE0 SHL PUSH1 0x0 MSTORE PUSH1 0x22 PUSH1 0x4 MSTORE PUSH1 0x24 PUSH1 0x0 REVERT JUMPDEST POP SWAP2 SWAP1 POP JUMP JUMPDEST PUSH2 0x1A5A DUP1 PUSH3 0x49B PUSH1 0x0 CODECOPY PUSH1 0x0 RETURN INVALID PUSH1 0x80 PUSH1 0x40 MSTORE CALLVALUE DUP1 ISZERO PUSH2 0x10 JUMPI PUSH1 0x0 DUP1 REVERT JUMPDEST POP PUSH1 0x4 CALLDATASIZE LT PUSH2 0x1E5 JUMPI PUSH1 0x0 CALLDATALOAD PUSH1 0xE0 SHR DUP1 PUSH4 0x70A08231 GT PUSH2 0x10F JUMPI DUP1 PUSH4 0xA0712D68 GT PUSH2 0xA2 JUMPI DUP1 PUSH4 0xE2AF30F4 GT PUSH2 0x71 JUMPI DUP1 PUSH4 0xE2AF30F4 EQ PUSH2 0x41B JUMPI DUP1 PUSH4 0xE2E5C15C EQ PUSH2 0x42E JUMPI DUP1 PUSH4 0xF2FDE38B EQ PUSH2 0x436 JUMPI DUP1 PUSH4 0xF4A0A528 EQ PUSH2 0x449 JUMPI PUSH1 0x0 DUP1 REVERT JUMPDEST DUP1 PUSH4 0xA0712D68 EQ PUSH2 0x3CF JUMPI DUP1 PUSH4 0xA457C2D7 EQ PUSH2 0x3E2 JUMPI DUP1 PUSH4 0xA9059CBB EQ PUSH2 0x3F5 JUMPI DUP1 PUSH4 0xDD62ED3E EQ PUSH2 0x408 JUMPI PUSH1 0x0 DUP1 REVERT JUMPDEST DUP1 PUSH4 0x84D24226 GT PUSH2 0xDE JUMPI DUP1 PUSH4 0x84D24226 EQ PUSH2 0x373 JUMPI DUP1 PUSH4 0x89A30271 EQ PUSH2 0x386 JUMPI DUP1 PUSH4 0x8DA5CB5B EQ PUSH2 0x3B6 JUMPI DUP1 PUSH4 0x95D89B41 EQ PUSH2 0x3C7 JUMPI PUSH1 0x0 DUP1 REVERT JUMPDEST DUP1 PUSH4 0x70A08231 EQ PUSH2 0x330 JUMPI DUP1 PUSH4 0x715018A6 EQ PUSH2 0x359 JUMPI DUP1 PUSH4 0x7313EE5A EQ PUSH2 0x361 JUMPI DUP1 PUSH4 0x76C71CA1 EQ PUSH2 0x36A JUMPI PUSH1 0x0 DUP1 REVERT JUMPDEST DUP1 PUSH4 0x313CE567 GT PUSH2 0x187 JUMPI DUP1 PUSH4 0x42966C68 GT PUSH2 0x156 JUMPI DUP1 PUSH4 0x42966C68 EQ PUSH2 0x304 JUMPI DUP1 PUSH4 0x4E274514 EQ PUSH2 0x317 JUMPI DUP1 PUSH4 0x4E71D92D EQ PUSH2 0x31F JUMPI DUP1 PUSH4 0x6817C76C EQ PUSH2 0x327 JUMPI PUSH1 0x0 DUP1 REVERT JUMPDEST DUP1 PUSH4 0x313CE567 EQ PUSH2 0x2BA JUMPI DUP1 PUSH4 0x39509351 EQ PUSH2 0x2C9 JUMPI DUP1 PUSH4 0x4070A0C9 EQ PUSH2 0x2DC JUMPI DUP1 PUSH4 0x40BEE0ED EQ PUSH2 0x2F1 JUMPI PUSH1 0x0 DUP1 REVERT JUMPDEST DUP1 PUSH4 0x18160DDD GT PUSH2 0x1C3 JUMPI DUP1 PUSH4 0x18160DDD EQ PUSH2 0x248 JUMPI DUP1 PUSH4 0x1959A002 EQ PUSH2 0x250 JUMPI DUP1 PUSH4 0x23B872DD EQ PUSH2 0x29A JUMPI DUP1 PUSH4 0x24BBD049 EQ PUSH2 0x2AD JUMPI PUSH1 0x0 DUP1 REVERT JUMPDEST DUP1 PUSH4 0x3C824DA EQ PUSH2 0x1EA JUMPI DUP1 PUSH4 0x6FDDE03 EQ PUSH2 0x210 JUMPI DUP1 PUSH4 0x95EA7B3 EQ PUSH2 0x225 JUMPI JUMPDEST PUSH1 0x0 DUP1 REVERT JUMPDEST PUSH2 0x1FD PUSH2 0x1F8 CALLDATASIZE PUSH1 0x4 PUSH2 0x17C0 JUMP JUMPDEST PUSH2 0x45C JUMP JUMPDEST PUSH1 0x40 MLOAD SWAP1 DUP2 MSTORE PUSH1 0x20 ADD JUMPDEST PUSH1 0x40 MLOAD DUP1 SWAP2 SUB SWAP1 RETURN JUMPDEST PUSH2 0x218 PUSH2 0x4E6 JUMP JUMPDEST PUSH1 0x40 MLOAD PUSH2 0x207 SWAP2 SWAP1 PUSH2 0x1807 JUMP JUMPDEST PUSH2 0x238 PUSH2 0x233 CALLDATASIZE PUSH1 0x4 PUSH2 0x183A JUMP JUMPDEST PUSH2 0x578 JUMP JUMPDEST PUSH1 0x40 MLOAD SWAP1 ISZERO ISZERO DUP2 MSTORE PUSH1 0x20 ADD PUSH2 0x207 JUMP JUMPDEST PUSH1 0x2 SLOAD PUSH2 0x1FD JUMP JUMPDEST PUSH2 0x27F PUSH2 0x25E CALLDATASIZE PUSH1 0x4 PUSH2 0x17C0 JUMP JUMPDEST PUSH1 0x7 PUSH1 0x20 MSTORE PUSH1 0x0 SWAP1 DUP2 MSTORE PUSH1 0x40 SWAP1 KECCAK256 DUP1 SLOAD PUSH1 0x1 DUP3 ADD SLOAD PUSH1 0x2 SWAP1 SWAP3 ADD SLOAD SWAP1 SWAP2 SWAP1 DUP4 JUMP JUMPDEST PUSH1 0x40 DUP1 MLOAD SWAP4 DUP5 MSTORE PUSH1 0x20 DUP5 ADD SWAP3 SWAP1 SWAP3 MSTORE SWAP1 DUP3 ADD MSTORE PUSH1 0x60 ADD PUSH2 0x207 JUMP JUMPDEST PUSH2 0x238 PUSH2 0x2A8 CALLDATASIZE PUSH1 0x4 PUSH2 0x1864 JUMP JUMPDEST PUSH2 0x590 JUMP JUMPDEST PUSH1 0xB SLOAD PUSH2 0x238 SWAP1 PUSH1 0xFF AND DUP2 JUMP JUMPDEST PUSH1 0x40 MLOAD PUSH1 0x12 DUP2 MSTORE PUSH1 0x20 ADD PUSH2 0x207 JUMP JUMPDEST PUSH2 0x238 PUSH2 0x2D7 CALLDATASIZE PUSH1 0x4 PUSH2 0x183A JUMP JUMPDEST PUSH2 0x5B4 JUMP JUMPDEST PUSH2 0x2EF PUSH2 0x2EA CALLDATASIZE PUSH1 0x4 PUSH2 0x18A0 JUMP JUMPDEST PUSH2 0x5D6 JUMP JUMPDEST STOP JUMPDEST PUSH2 0x2EF PUSH2 0x2FF CALLDATASIZE PUSH1 0x4 PUSH2 0x18A0 JUMP JUMPDEST PUSH2 0x5E3 JUMP JUMPDEST PUSH2 0x2EF PUSH2 0x312 CALLDATASIZE PUSH1 0x4 PUSH2 0x18A0 JUMP JUMPDEST PUSH2 0x646 JUMP JUMPDEST PUSH2 0x2EF PUSH2 0x653 JUMP JUMPDEST PUSH2 0x2EF PUSH2 0x6FA JUMP JUMPDEST PUSH2 0x1FD PUSH1 0x8 SLOAD DUP2 JUMP JUMPDEST PUSH2 0x1FD PUSH2 0x33E CALLDATASIZE PUSH1 0x4 PUSH2 0x17C0 JUMP JUMPDEST PUSH1 0x1 PUSH1 0x1 PUSH1 0xA0 SHL SUB AND PUSH1 0x0 SWAP1 DUP2 MSTORE PUSH1 0x20 DUP2 SWAP1 MSTORE PUSH1 0x40 SWAP1 KECCAK256 SLOAD SWAP1 JUMP JUMPDEST PUSH2 0x2EF PUSH2 0x8FD JUMP JUMPDEST PUSH2 0x1FD PUSH1 0xA SLOAD DUP2 JUMP JUMPDEST PUSH2 0x1FD PUSH1 0x9 SLOAD DUP2 JUMP JUMPDEST PUSH2 0x1FD PUSH2 0x381 CALLDATASIZE PUSH1 0x4 PUSH2 0x17C0 JUMP JUMPDEST PUSH2 0x90F JUMP JUMPDEST PUSH1 0xB SLOAD PUSH2 0x39E SWAP1 PUSH2 0x100 SWAP1 DIV PUSH1 0x1 PUSH1 0x1 PUSH1 0xA0 SHL SUB AND DUP2 JUMP JUMPDEST PUSH1 0x40 MLOAD PUSH1 0x1 PUSH1 0x1 PUSH1 0xA0 SHL SUB SWAP1 SWAP2 AND DUP2 MSTORE PUSH1 0x20 ADD PUSH2 0x207 JUMP JUMPDEST PUSH1 0x5 SLOAD PUSH1 0x1 PUSH1 0x1 PUSH1 0xA0 SHL SUB AND PUSH2 0x39E JUMP JUMPDEST PUSH2 0x218 PUSH2 0x9AA JUMP JUMPDEST PUSH2 0x2EF PUSH2 0x3DD CALLDATASIZE PUSH1 0x4 PUSH2 0x18A0 JUMP JUMPDEST PUSH2 0x9B9 JUMP JUMPDEST PUSH2 0x238 PUSH2 0x3F0 CALLDATASIZE PUSH1 0x4 PUSH2 0x183A JUMP JUMPDEST PUSH2 0xC97 JUMP JUMPDEST PUSH2 0x238 PUSH2 0x403 CALLDATASIZE PUSH1 0x4 PUSH2 0x183A JUMP JUMPDEST PUSH2 0xD12 JUMP JUMPDEST PUSH2 0x1FD PUSH2 0x416 CALLDATASIZE PUSH1 0x4 PUSH2 0x18B9 JUMP JUMPDEST PUSH2 0xD20 JUMP JUMPDEST PUSH2 0x2EF PUSH2 0x429 CALLDATASIZE PUSH1 0x4 PUSH2 0x18FA JUMP JUMPDEST PUSH2 0xD4B JUMP JUMPDEST PUSH2 0x1FD PUSH2 0xD66 JUMP JUMPDEST PUSH2 0x2EF PUSH2 0x444 CALLDATASIZE PUSH1 0x4 PUSH2 0x17C0 JUMP JUMPDEST PUSH2 0xDDB JUMP JUMPDEST PUSH2 0x2EF PUSH2 0x457 CALLDATASIZE PUSH1 0x4 PUSH2 0x18A0 JUMP JUMPDEST PUSH2 0xE51 JUMP JUMPDEST PUSH1 0x1 PUSH1 0x1 PUSH1 0xA0 SHL SUB DUP2 AND PUSH1 0x0 SWAP1 DUP2 MSTORE PUSH1 0x7 PUSH1 0x20 MSTORE PUSH1 0x40 DUP2 KECCAK256 PUSH1 0x1 ADD SLOAD DUP2 SWAP1 PUSH2 0x485 SWAP1 TIMESTAMP SWAP1 PUSH2 0xEB0 JUMP JUMPDEST PUSH1 0x1 PUSH1 0x1 PUSH1 0xA0 SHL SUB DUP5 AND PUSH1 0x0 SWAP1 DUP2 MSTORE PUSH1 0x7 PUSH1 0x20 MSTORE PUSH1 0x40 SWAP1 KECCAK256 PUSH1 0x2 ADD SLOAD SWAP1 SWAP2 POP DUP2 LT PUSH2 0x4B3 JUMPI POP PUSH1 0x0 SWAP3 SWAP2 POP POP JUMP JUMPDEST PUSH1 0x1 PUSH1 0x1 PUSH1 0xA0 SHL SUB DUP4 AND PUSH1 0x0 SWAP1 DUP2 MSTORE PUSH1 0x7 PUSH1 0x20 MSTORE PUSH1 0x40 SWAP1 KECCAK256 PUSH1 0x2 ADD SLOAD PUSH2 0x4D9 SWAP1 DUP3 PUSH2 0xEB0 JUMP JUMPDEST SWAP4 SWAP3 POP POP POP JUMP JUMPDEST POP SWAP2 SWAP1 POP JUMP JUMPDEST PUSH1 0x60 PUSH1 0x3 DUP1 SLOAD PUSH2 0x4F5 SWAP1 PUSH2 0x1917 JUMP JUMPDEST DUP1 PUSH1 0x1F ADD PUSH1 0x20 DUP1 SWAP2 DIV MUL PUSH1 0x20 ADD PUSH1 0x40 MLOAD SWAP1 DUP2 ADD PUSH1 0x40 MSTORE DUP1 SWAP3 SWAP2 SWAP1 DUP2 DUP2 MSTORE PUSH1 0x20 ADD DUP3 DUP1 SLOAD PUSH2 0x521 SWAP1 PUSH2 0x1917 JUMP JUMPDEST DUP1 ISZERO PUSH2 0x56E JUMPI DUP1 PUSH1 0x1F LT PUSH2 0x543 JUMPI PUSH2 0x100 DUP1 DUP4 SLOAD DIV MUL DUP4 MSTORE SWAP2 PUSH1 0x20 ADD SWAP2 PUSH2 0x56E JUMP JUMPDEST DUP3 ADD SWAP2 SWAP1 PUSH1 0x0 MSTORE PUSH1 0x20 PUSH1 0x0 KECCAK256 SWAP1 JUMPDEST DUP2 SLOAD DUP2 MSTORE SWAP1 PUSH1 0x1 ADD SWAP1 PUSH1 0x20 ADD DUP1 DUP4 GT PUSH2 0x551 JUMPI DUP3 SWAP1 SUB PUSH1 0x1F AND DUP3 ADD SWAP2 JUMPDEST POP POP POP POP POP SWAP1 POP SWAP1 JUMP JUMPDEST PUSH1 0x0 CALLER PUSH2 0x586 DUP2 DUP6 DUP6 PUSH2 0xEBC JUMP JUMPDEST POP PUSH1 0x1 SWAP4 SWAP3 POP POP POP JUMP JUMPDEST PUSH1 0x0 CALLER PUSH2 0x59E DUP6 DUP3 DUP6 PUSH2 0xFE1 JUMP JUMPDEST PUSH2 0x5A9 DUP6 DUP6 DUP6 PUSH2 0x105B JUMP JUMPDEST POP PUSH1 0x1 SWAP5 SWAP4 POP POP POP POP JUMP JUMPDEST PUSH1 0x0 CALLER PUSH2 0x586 DUP2 DUP6 DUP6 PUSH2 0x5C7 DUP4 DUP4 PUSH2 0xD20 JUMP JUMPDEST PUSH2 0x5D1 SWAP2 SWAP1 PUSH2 0x1962 JUMP JUMPDEST PUSH2 0xEBC JUMP JUMPDEST PUSH2 0x5DE PUSH2 0x1229 JUMP JUMPDEST PUSH1 0x9 SSTORE JUMP JUMPDEST PUSH2 0x5EB PUSH2 0x1229 JUMP JUMPDEST PUSH3 0x3F480 DUP2 LT ISZERO DUP1 ISZERO PUSH2 0x601 JUMPI POP PUSH3 0x69780 DUP2 GT ISZERO JUMPDEST PUSH2 0x641 JUMPI PUSH1 0x40 MLOAD PUSH3 0x461BCD PUSH1 0xE5 SHL DUP2 MSTORE PUSH1 0x20 PUSH1 0x4 DUP3 ADD MSTORE PUSH1 0xC PUSH1 0x24 DUP3 ADD MSTORE PUSH12 0x6E6F7420696E2072616E6765 PUSH1 0xA0 SHL PUSH1 0x44 DUP3 ADD MSTORE PUSH1 0x64 ADD JUMPDEST PUSH1 0x40 MLOAD DUP1 SWAP2 SUB SWAP1 REVERT JUMPDEST PUSH1 0xA SSTORE JUMP JUMPDEST PUSH2 0x650 CALLER DUP3 PUSH2 0x1283 JUMP JUMPDEST POP JUMP JUMPDEST PUSH2 0x65B PUSH2 0x1229 JUMP JUMPDEST PUSH2 0x6F8 PUSH2 0x670 PUSH1 0x5 SLOAD PUSH1 0x1 PUSH1 0x1 PUSH1 0xA0 SHL SUB AND SWAP1 JUMP JUMPDEST PUSH1 0xB SLOAD PUSH1 0x40 MLOAD PUSH4 0x70A08231 PUSH1 0xE0 SHL DUP2 MSTORE ADDRESS PUSH1 0x4 DUP3 ADD MSTORE PUSH2 0x100 SWAP1 SWAP2 DIV PUSH1 0x1 PUSH1 0x1 PUSH1 0xA0 SHL SUB AND SWAP1 PUSH4 0x70A08231 SWAP1 PUSH1 0x24 ADD PUSH1 0x20 PUSH1 0x40 MLOAD DUP1 DUP4 SUB DUP2 DUP7 GAS STATICCALL ISZERO DUP1 ISZERO PUSH2 0x6BC JUMPI RETURNDATASIZE PUSH1 0x0 DUP1 RETURNDATACOPY RETURNDATASIZE PUSH1 0x0 REVERT JUMPDEST POP POP POP POP PUSH1 0x40 MLOAD RETURNDATASIZE PUSH1 0x1F NOT PUSH1 0x1F DUP3 ADD AND DUP3 ADD DUP1 PUSH1 0x40 MSTORE POP DUP2 ADD SWAP1 PUSH2 0x6E0 SWAP2 SWAP1 PUSH2 0x197A JUMP JUMPDEST PUSH1 0xB SLOAD PUSH2 0x100 SWAP1 DIV PUSH1 0x1 PUSH1 0x1 PUSH1 0xA0 SHL SUB AND SWAP2 SWAP1 PUSH2 0x13CE JUMP JUMPDEST JUMP JUMPDEST PUSH1 0x2 PUSH1 0x6 SLOAD EQ ISZERO PUSH2 0x74D JUMPI PUSH1 0x40 MLOAD PUSH3 0x461BCD PUSH1 0xE5 SHL DUP2 MSTORE PUSH1 0x20 PUSH1 0x4 DUP3 ADD MSTORE PUSH1 0x1F PUSH1 0x24 DUP3 ADD MSTORE PUSH32 0x5265656E7472616E637947756172643A207265656E7472616E742063616C6C00 PUSH1 0x44 DUP3 ADD MSTORE PUSH1 0x64 ADD PUSH2 0x638 JUMP JUMPDEST PUSH1 0x2 PUSH1 0x6 SSTORE CALLER PUSH1 0x0 SWAP1 DUP2 MSTORE PUSH1 0x7 PUSH1 0x20 MSTORE PUSH1 0x40 SWAP1 KECCAK256 SLOAD PUSH2 0x798 JUMPI PUSH1 0x40 MLOAD PUSH3 0x461BCD PUSH1 0xE5 SHL DUP2 MSTORE PUSH1 0x20 PUSH1 0x4 DUP3 ADD MSTORE PUSH1 0x7 PUSH1 0x24 DUP3 ADD MSTORE PUSH7 0x1B9BC81B5A5B9D PUSH1 0xCA SHL PUSH1 0x44 DUP3 ADD MSTORE PUSH1 0x64 ADD PUSH2 0x638 JUMP JUMPDEST CALLER PUSH1 0x0 SWAP1 DUP2 MSTORE PUSH1 0x7 PUSH1 0x20 MSTORE PUSH1 0x40 DUP2 KECCAK256 PUSH1 0x1 ADD SLOAD PUSH2 0x7B6 SWAP1 TIMESTAMP SWAP1 PUSH2 0xEB0 JUMP JUMPDEST CALLER PUSH1 0x0 SWAP1 DUP2 MSTORE PUSH1 0x7 PUSH1 0x20 MSTORE PUSH1 0x40 DUP2 KECCAK256 PUSH1 0x2 ADD SLOAD SWAP2 SWAP3 POP SWAP1 DUP3 LT PUSH2 0x7F3 JUMPI POP CALLER PUSH1 0x0 SWAP1 DUP2 MSTORE PUSH1 0x7 PUSH1 0x20 MSTORE PUSH1 0x40 DUP2 KECCAK256 DUP1 SLOAD PUSH1 0x2 SWAP1 SWAP2 ADD SWAP2 SWAP1 SWAP2 SSTORE PUSH2 0x852 JUMP JUMPDEST CALLER PUSH1 0x0 SWAP1 DUP2 MSTORE PUSH1 0x7 PUSH1 0x20 MSTORE PUSH1 0x40 SWAP1 KECCAK256 PUSH1 0x2 DUP2 ADD SLOAD SWAP1 SLOAD PUSH2 0x81E SWAP2 SWAP1 PUSH2 0x818 SWAP1 DUP6 PUSH2 0x1431 JUMP JUMPDEST SWAP1 PUSH2 0x143D JUMP JUMPDEST CALLER PUSH1 0x0 SWAP1 DUP2 MSTORE PUSH1 0x7 PUSH1 0x20 MSTORE PUSH1 0x40 SWAP1 KECCAK256 PUSH1 0x2 ADD SLOAD SWAP1 SWAP2 POP PUSH2 0x83E SWAP1 DUP4 PUSH2 0xEB0 JUMP JUMPDEST CALLER PUSH1 0x0 SWAP1 DUP2 MSTORE PUSH1 0x7 PUSH1 0x20 MSTORE PUSH1 0x40 SWAP1 KECCAK256 PUSH1 0x2 ADD SSTORE JUMPDEST CALLER PUSH1 0x0 SWAP1 DUP2 MSTORE PUSH1 0x7 PUSH1 0x20 MSTORE PUSH1 0x40 SWAP1 KECCAK256 SLOAD PUSH2 0x86C SWAP1 DUP3 PUSH2 0xEB0 JUMP JUMPDEST CALLER PUSH1 0x0 DUP2 DUP2 MSTORE PUSH1 0x7 PUSH1 0x20 MSTORE PUSH1 0x40 SWAP1 DUP2 SWAP1 KECCAK256 SWAP3 DUP4 SSTORE TIMESTAMP PUSH1 0x1 SWAP1 SWAP4 ADD SWAP3 SWAP1 SWAP3 SSTORE SWAP1 MLOAD PUSH4 0xA9059CBB PUSH1 0xE0 SHL DUP2 MSTORE PUSH1 0x4 DUP2 ADD SWAP2 SWAP1 SWAP2 MSTORE PUSH1 0x24 DUP2 ADD DUP3 SWAP1 MSTORE ADDRESS SWAP1 PUSH4 0xA9059CBB SWAP1 PUSH1 0x44 ADD PUSH1 0x20 PUSH1 0x40 MLOAD DUP1 DUP4 SUB DUP2 PUSH1 0x0 DUP8 GAS CALL ISZERO DUP1 ISZERO PUSH2 0x8CF JUMPI RETURNDATASIZE PUSH1 0x0 DUP1 RETURNDATACOPY RETURNDATASIZE PUSH1 0x0 REVERT JUMPDEST POP POP POP POP PUSH1 0x40 MLOAD RETURNDATASIZE PUSH1 0x1F NOT PUSH1 0x1F DUP3 ADD AND DUP3 ADD DUP1 PUSH1 0x40 MSTORE POP DUP2 ADD SWAP1 PUSH2 0x8F3 SWAP2 SWAP1 PUSH2 0x1993 JUMP JUMPDEST POP POP PUSH1 0x1 PUSH1 0x6 SSTORE POP JUMP JUMPDEST PUSH2 0x905 PUSH2 0x1229 JUMP JUMPDEST PUSH2 0x6F8 PUSH1 0x0 PUSH2 0x1449 JUMP JUMPDEST PUSH1 0x1 PUSH1 0x1 PUSH1 0xA0 SHL SUB DUP2 AND PUSH1 0x0 SWAP1 DUP2 MSTORE PUSH1 0x7 PUSH1 0x20 MSTORE PUSH1 0x40 DUP2 KECCAK256 PUSH1 0x1 ADD SLOAD DUP2 SWAP1 PUSH2 0x938 SWAP1 TIMESTAMP SWAP1 PUSH2 0xEB0 JUMP JUMPDEST CALLER PUSH1 0x0 SWAP1 DUP2 MSTORE PUSH1 0x7 PUSH1 0x20 MSTORE PUSH1 0x40 DUP2 KECCAK256 PUSH1 0x2 ADD SLOAD SWAP2 SWAP3 POP SWAP1 DUP3 LT PUSH2 0x974 JUMPI POP PUSH1 0x1 PUSH1 0x1 PUSH1 0xA0 SHL SUB DUP4 AND PUSH1 0x0 SWAP1 DUP2 MSTORE PUSH1 0x7 PUSH1 0x20 MSTORE PUSH1 0x40 SWAP1 KECCAK256 SLOAD PUSH2 0x4D9 JUMP JUMPDEST PUSH1 0x1 PUSH1 0x1 PUSH1 0xA0 SHL SUB DUP5 AND PUSH1 0x0 SWAP1 DUP2 MSTORE PUSH1 0x7 PUSH1 0x20 MSTORE PUSH1 0x40 SWAP1 KECCAK256 PUSH1 0x2 DUP2 ADD SLOAD SWAP1 SLOAD PUSH2 0x9A2 SWAP2 SWAP1 PUSH2 0x818 SWAP1 DUP6 PUSH2 0x1431 JUMP JUMPDEST SWAP5 SWAP4 POP POP POP POP JUMP JUMPDEST PUSH1 0x60 PUSH1 0x4 DUP1 SLOAD PUSH2 0x4F5 SWAP1 PUSH2 0x1917 JUMP JUMPDEST PUSH1 0x2 PUSH1 0x6 SLOAD EQ ISZERO PUSH2 0xA0C JUMPI PUSH1 0x40 MLOAD PUSH3 0x461BCD PUSH1 0xE5 SHL DUP2 MSTORE PUSH1 0x20 PUSH1 0x4 DUP3 ADD MSTORE PUSH1 0x1F PUSH1 0x24 DUP3 ADD MSTORE PUSH32 0x5265656E7472616E637947756172643A207265656E7472616E742063616C6C00 PUSH1 0x44 DUP3 ADD MSTORE PUSH1 0x64 ADD PUSH2 0x638 JUMP JUMPDEST PUSH1 0x2 PUSH1 0x6 SSTORE PUSH4 0x77359400 DUP2 GT ISZERO PUSH2 0xA5C JUMPI PUSH1 0x40 MLOAD PUSH3 0x461BCD PUSH1 0xE5 SHL DUP2 MSTORE PUSH1 0x20 PUSH1 0x4 DUP3 ADD MSTORE PUSH1 0x14 PUSH1 0x24 DUP3 ADD MSTORE PUSH20 0xDAC2F0406460606040EAE6C8C640E0CAE440E8F PUSH1 0x63 SHL PUSH1 0x44 DUP3 ADD MSTORE PUSH1 0x64 ADD PUSH2 0x638 JUMP JUMPDEST PUSH1 0xB SLOAD PUSH1 0xFF AND PUSH2 0xAA0 JUMPI PUSH1 0x40 MLOAD PUSH3 0x461BCD PUSH1 0xE5 SHL DUP2 MSTORE PUSH1 0x20 PUSH1 0x4 DUP3 ADD MSTORE PUSH1 0xF PUSH1 0x24 DUP3 ADD MSTORE PUSH15 0x1B5A5B9D081B9BDD081BDC195B9959 PUSH1 0x8A SHL PUSH1 0x44 DUP3 ADD MSTORE PUSH1 0x64 ADD PUSH2 0x638 JUMP JUMPDEST PUSH1 0xB SLOAD PUSH1 0x40 MLOAD PUSH4 0x70A08231 PUSH1 0xE0 SHL DUP2 MSTORE CALLER PUSH1 0x4 DUP3 ADD MSTORE DUP3 SWAP2 PUSH2 0x100 SWAP1 DIV PUSH1 0x1 PUSH1 0x1 PUSH1 0xA0 SHL SUB AND SWAP1 PUSH4 0x70A08231 SWAP1 PUSH1 0x24 ADD PUSH1 0x20 PUSH1 0x40 MLOAD DUP1 DUP4 SUB DUP2 DUP7 GAS STATICCALL ISZERO DUP1 ISZERO PUSH2 0xAED JUMPI RETURNDATASIZE PUSH1 0x0 DUP1 RETURNDATACOPY RETURNDATASIZE PUSH1 0x0 REVERT JUMPDEST POP POP POP POP PUSH1 0x40 MLOAD RETURNDATASIZE PUSH1 0x1F NOT PUSH1 0x1F DUP3 ADD AND DUP3 ADD DUP1 PUSH1 0x40 MSTORE POP DUP2 ADD SWAP1 PUSH2 0xB11 SWAP2 SWAP1 PUSH2 0x197A JUMP JUMPDEST LT ISZERO PUSH2 0xB56 JUMPI PUSH1 0x40 MLOAD PUSH3 0x461BCD PUSH1 0xE5 SHL DUP2 MSTORE PUSH1 0x20 PUSH1 0x4 DUP3 ADD MSTORE PUSH1 0x14 PUSH1 0x24 DUP3 ADD MSTORE PUSH20 0x555344432062616C616E636520746F6F206C6F77 PUSH1 0x60 SHL PUSH1 0x44 DUP3 ADD MSTORE PUSH1 0x64 ADD PUSH2 0x638 JUMP JUMPDEST PUSH1 0x0 PUSH2 0xB67 DUP3 PUSH5 0xE8D4A51000 PUSH2 0x1431 JUMP JUMPDEST SWAP1 POP PUSH1 0x0 PUSH2 0xB86 PUSH1 0x8 SLOAD PUSH2 0x818 PUSH2 0x3E8 DUP6 PUSH2 0x1431 SWAP1 SWAP2 SWAP1 PUSH4 0xFFFFFFFF AND JUMP JUMPDEST SWAP1 POP PUSH1 0x9 SLOAD PUSH2 0xBF7 DUP3 ADDRESS PUSH1 0x1 PUSH1 0x1 PUSH1 0xA0 SHL SUB AND PUSH4 0x18160DDD PUSH1 0x40 MLOAD DUP2 PUSH4 0xFFFFFFFF AND PUSH1 0xE0 SHL DUP2 MSTORE PUSH1 0x4 ADD PUSH1 0x20 PUSH1 0x40 MLOAD DUP1 DUP4 SUB DUP2 DUP7 GAS STATICCALL ISZERO DUP1 ISZERO PUSH2 0xBCD JUMPI RETURNDATASIZE PUSH1 0x0 DUP1 RETURNDATACOPY RETURNDATASIZE PUSH1 0x0 REVERT JUMPDEST POP POP POP POP PUSH1 0x40 MLOAD RETURNDATASIZE PUSH1 0x1F NOT PUSH1 0x1F DUP3 ADD AND DUP3 ADD DUP1 PUSH1 0x40 MSTORE POP DUP2 ADD SWAP1 PUSH2 0xBF1 SWAP2 SWAP1 PUSH2 0x197A JUMP JUMPDEST SWAP1 PUSH2 0x149B JUMP JUMPDEST GT ISZERO PUSH2 0xC35 JUMPI PUSH1 0x40 MLOAD PUSH3 0x461BCD PUSH1 0xE5 SHL DUP2 MSTORE PUSH1 0x20 PUSH1 0x4 DUP3 ADD MSTORE PUSH1 0xD PUSH1 0x24 DUP3 ADD MSTORE PUSH13 0x6F766572206D696E742063617 PUSH1 0x9C SHL PUSH1 0x44 DUP3 ADD MSTORE PUSH1 0x64 ADD PUSH2 0x638 JUMP JUMPDEST CALLER PUSH1 0x0 SWAP1 DUP2 MSTORE PUSH1 0x7 PUSH1 0x20 MSTORE PUSH1 0x40 SWAP1 KECCAK256 SLOAD PUSH2 0xC4F SWAP1 DUP3 PUSH2 0x149B JUMP JUMPDEST CALLER PUSH1 0x0 SWAP1 DUP2 MSTORE PUSH1 0x7 PUSH1 0x20 MSTORE PUSH1 0x40 SWAP1 KECCAK256 SWAP1 DUP2 SSTORE TIMESTAMP PUSH1 0x1 DUP3 ADD SSTORE PUSH1 0xA SLOAD PUSH1 0x2 SWAP1 SWAP2 ADD SSTORE PUSH2 0xC7A ADDRESS DUP3 PUSH2 0x14A7 JUMP JUMPDEST PUSH1 0xB SLOAD PUSH2 0x8F3 SWAP1 PUSH2 0x100 SWAP1 DIV PUSH1 0x1 PUSH1 0x1 PUSH1 0xA0 SHL SUB AND CALLER ADDRESS DUP7 PUSH2 0x1586 JUMP JUMPDEST PUSH1 0x0 CALLER DUP2 PUSH2 0xCA5 DUP3 DUP7 PUSH2 0xD20 JUMP JUMPDEST SWAP1 POP DUP4 DUP2 LT ISZERO PUSH2 0xD05 JUMPI PUSH1 0x40 MLOAD PUSH3 0x461BCD PUSH1 0xE5 SHL DUP2 MSTORE PUSH1 0x20 PUSH1 0x4 DUP3 ADD MSTORE PUSH1 0x25 PUSH1 0x24 DUP3 ADD MSTORE PUSH32 0x45524332303A2064656372656173656420616C6C6F77616E63652062656C6F77 PUSH1 0x44 DUP3 ADD MSTORE PUSH5 0x207A65726F PUSH1 0xD8 SHL PUSH1 0x64 DUP3 ADD MSTORE PUSH1 0x84 ADD PUSH2 0x638 JUMP JUMPDEST PUSH2 0x5A9 DUP3 DUP7 DUP7 DUP5 SUB PUSH2 0xEBC JUMP JUMPDEST PUSH1 0x0 CALLER PUSH2 0x586 DUP2 DUP6 DUP6 PUSH2 0x105B JUMP JUMPDEST PUSH1 0x1 PUSH1 0x1 PUSH1 0xA0 SHL SUB SWAP2 DUP3 AND PUSH1 0x0 SWAP1 DUP2 MSTORE PUSH1 0x1 PUSH1 0x20 SWAP1 DUP2 MSTORE PUSH1 0x40 DUP1 DUP4 KECCAK256 SWAP4 SWAP1 SWAP5 AND DUP3 MSTORE SWAP2 SWAP1 SWAP2 MSTORE KECCAK256 SLOAD SWAP1 JUMP JUMPDEST PUSH2 0xD53 PUSH2 0x1229 JUMP JUMPDEST PUSH1 0xB DUP1 SLOAD PUSH1 0xFF NOT AND SWAP2 ISZERO ISZERO SWAP2 SWAP1 SWAP2 OR SWAP1 SSTORE JUMP JUMPDEST PUSH1 0x0 PUSH2 0xDD6 ADDRESS PUSH1 0x1 PUSH1 0x1 PUSH1 0xA0 SHL SUB AND PUSH4 0x18160DDD PUSH1 0x40 MLOAD DUP2 PUSH4 0xFFFFFFFF AND PUSH1 0xE0 SHL DUP2 MSTORE PUSH1 0x4 ADD PUSH1 0x20 PUSH1 0x40 MLOAD DUP1 DUP4 SUB DUP2 DUP7 GAS STATICCALL ISZERO DUP1 ISZERO PUSH2 0xDA9 JUMPI RETURNDATASIZE PUSH1 0x0 DUP1 RETURNDATACOPY RETURNDATASIZE PUSH1 0x0 REVERT JUMPDEST POP POP POP POP PUSH1 0x40 MLOAD RETURNDATASIZE PUSH1 0x1F NOT PUSH1 0x1F DUP3 ADD AND DUP3 ADD DUP1 PUSH1 0x40 MSTORE POP DUP2 ADD SWAP1 PUSH2 0xDCD SWAP2 SWAP1 PUSH2 0x197A JUMP JUMPDEST PUSH1 0x9 SLOAD SWAP1 PUSH2 0xEB0 JUMP JUMPDEST SWAP1 POP SWAP1 JUMP JUMPDEST PUSH2 0xDE3 PUSH2 0x1229 JUMP JUMPDEST PUSH1 0x1 PUSH1 0x1 PUSH1 0xA0 SHL SUB DUP2 AND PUSH2 0xE48 JUMPI PUSH1 0x40 MLOAD PUSH3 0x461BCD PUSH1 0xE5 SHL DUP2 MSTORE PUSH1 0x20 PUSH1 0x4 DUP3 ADD MSTORE PUSH1 0x26 PUSH1 0x24 DUP3 ADD MSTORE PUSH32 0x4F776E61626C653A206E6577206F776E657220697320746865207A65726F2061 PUSH1 0x44 DUP3 ADD MSTORE PUSH6 0x646472657373 PUSH1 0xD0 SHL PUSH1 0x64 DUP3 ADD MSTORE PUSH1 0x84 ADD PUSH2 0x638 JUMP JUMPDEST PUSH2 0x650 DUP2 PUSH2 0x1449 JUMP JUMPDEST PUSH2 0xE59 PUSH2 0x1229 JUMP JUMPDEST PUSH1 0x8 SLOAD DUP2 LT ISZERO PUSH2 0xEAB JUMPI PUSH1 0x40 MLOAD PUSH3 0x461BCD PUSH1 0xE5 SHL DUP2 MSTORE PUSH1 0x20 PUSH1 0x4 DUP3 ADD MSTORE PUSH1 0x1D PUSH1 0x24 DUP3 ADD MSTORE PUSH32 0x63616E2774206265206C6F776572207468616E206C617374206D696E74000000 PUSH1 0x44 DUP3 ADD MSTORE PUSH1 0x64 ADD PUSH2 0x638 JUMP JUMPDEST PUSH1 0x8 SSTORE JUMP JUMPDEST PUSH1 0x0 PUSH2 0x4D9 DUP3 DUP5 PUSH2 0x19B0 JUMP JUMPDEST PUSH1 0x1 PUSH1 0x1 PUSH1 0xA0 SHL SUB DUP4 AND PUSH2 0xF1E JUMPI PUSH1 0x40 MLOAD PUSH3 0x461BCD PUSH1 0xE5 SHL DUP2 MSTORE PUSH1 0x20 PUSH1 0x4 DUP3 ADD MSTORE PUSH1 0x24 DUP1 DUP3 ADD MSTORE PUSH32 0x45524332303A20617070726F76652066726F6D20746865207A65726F20616464 PUSH1 0x44 DUP3 ADD MSTORE PUSH4 0x72657373 PUSH1 0xE0 SHL PUSH1 0x64 DUP3 ADD MSTORE PUSH1 0x84 ADD PUSH2 0x638 JUMP JUMPDEST PUSH1 0x1 PUSH1 0x1 PUSH1 0xA0 SHL SUB DUP3 AND PUSH2 0xF7F JUMPI PUSH1 0x40 MLOAD PUSH3 0x461BCD PUSH1 0xE5 SHL DUP2 MSTORE PUSH1 0x20 PUSH1 0x4 DUP3 ADD MSTORE PUSH1 0x22 PUSH1 0x24 DUP3 ADD MSTORE PUSH32 0x45524332303A20617070726F766520746F20746865207A65726F206164647265 PUSH1 0x44 DUP3 ADD MSTORE PUSH2 0x7373 PUSH1 0xF0 SHL PUSH1 0x64 DUP3 ADD MSTORE PUSH1 0x84 ADD PUSH2 0x638 JUMP JUMPDEST PUSH1 0x1 PUSH1 0x1 PUSH1 0xA0 SHL SUB DUP4 DUP2 AND PUSH1 0x0 DUP2 DUP2 MSTORE PUSH1 0x1 PUSH1 0x20 SWAP1 DUP2 MSTORE PUSH1 0x40 DUP1 DUP4 KECCAK256 SWAP5 DUP8 AND DUP1 DUP5 MSTORE SWAP5 DUP3 MSTORE SWAP2 DUP3 SWAP1 KECCAK256 DUP6 SWAP1 SSTORE SWAP1 MLOAD DUP5 DUP2 MSTORE PUSH32 0x8C5BE1E5EBEC7D5BD14F71427D1E84F3DD0314C0F7B2291E5B200AC8C7C3B925 SWAP2 ADD JUMPDEST PUSH1 0x40 MLOAD DUP1 SWAP2 SUB SWAP1 LOG3 POP POP POP JUMP JUMPDEST PUSH1 0x0 PUSH2 0xFED DUP5 DUP5 PUSH2 0xD20 JUMP JUMPDEST SWAP1 POP PUSH1 0x0 NOT DUP2 EQ PUSH2 0x1055 JUMPI DUP2 DUP2 LT ISZERO PUSH2 0x1048 JUMPI PUSH1 0x40 MLOAD PUSH3 0x461BCD PUSH1 0xE5 SHL DUP2 MSTORE PUSH1 0x20 PUSH1 0x4 DUP3 ADD MSTORE PUSH1 0x1D PUSH1 0x24 DUP3 ADD MSTORE PUSH32 0x45524332303A20696E73756666696369656E7420616C6C6F77616E6365000000 PUSH1 0x44 DUP3 ADD MSTORE PUSH1 0x64 ADD PUSH2 0x638 JUMP JUMPDEST PUSH2 0x1055 DUP5 DUP5 DUP5 DUP5 SUB PUSH2 0xEBC JUMP JUMPDEST POP POP POP POP JUMP JUMPDEST PUSH1 0x1 PUSH1 0x1 PUSH1 0xA0 SHL SUB DUP4 AND PUSH2 0x10BF JUMPI PUSH1 0x40 MLOAD PUSH3 0x461BCD PUSH1 0xE5 SHL DUP2 MSTORE PUSH1 0x20 PUSH1 0x4 DUP3 ADD MSTORE PUSH1 0x25 PUSH1 0x24 DUP3 ADD MSTORE PUSH32 0x45524332303A207472616E736665722066726F6D20746865207A65726F206164 PUSH1 0x44 DUP3 ADD MSTORE PUSH5 0x6472657373 PUSH1 0xD8 SHL PUSH1 0x64 DUP3 ADD MSTORE PUSH1 0x84 ADD PUSH2 0x638 JUMP JUMPDEST PUSH1 0x1 PUSH1 0x1 PUSH1 0xA0 SHL SUB DUP3 AND PUSH2 0x1121 JUMPI PUSH1 0x40 MLOAD PUSH3 0x461BCD PUSH1 0xE5 SHL DUP2 MSTORE PUSH1 0x20 PUSH1 0x4 DUP3 ADD MSTORE PUSH1 0x23 PUSH1 0x24 DUP3 ADD MSTORE PUSH32 0x45524332303A207472616E7366657220746F20746865207A65726F2061646472 PUSH1 0x44 DUP3 ADD MSTORE PUSH3 0x657373 PUSH1 0xE8 SHL PUSH1 0x64 DUP3 ADD MSTORE PUSH1 0x84 ADD PUSH2 0x638 JUMP JUMPDEST PUSH1 0x1 PUSH1 0x1 PUSH1 0xA0 SHL SUB DUP4 AND PUSH1 0x0 SWAP1 DUP2 MSTORE PUSH1 0x20 DUP2 SWAP1 MSTORE PUSH1 0x40 SWAP1 KECCAK256 SLOAD DUP2 DUP2 LT ISZERO PUSH2 0x1199 JUMPI PUSH1 0x40 MLOAD PUSH3 0x461BCD PUSH1 0xE5 SHL DUP2 MSTORE PUSH1 0x20 PUSH1 0x4 DUP3 ADD MSTORE PUSH1 0x26 PUSH1 0x24 DUP3 ADD MSTORE PUSH32 0x45524332303A207472616E7366657220616D6F756E7420657863656564732062 PUSH1 0x44 DUP3 ADD MSTORE PUSH6 0x616C616E6365 PUSH1 0xD0 SHL PUSH1 0x64 DUP3 ADD MSTORE PUSH1 0x84 ADD PUSH2 0x638 JUMP JUMPDEST PUSH1 0x1 PUSH1 0x1 PUSH1 0xA0 SHL SUB DUP1 DUP6 AND PUSH1 0x0 SWAP1 DUP2 MSTORE PUSH1 0x20 DUP2 SWAP1 MSTORE PUSH1 0x40 DUP1 DUP3 KECCAK256 DUP6 DUP6 SUB SWAP1 SSTORE SWAP2 DUP6 AND DUP2 MSTORE SWAP1 DUP2 KECCAK256 DUP1 SLOAD DUP5 SWAP3 SWAP1 PUSH2 0x11D0 SWAP1 DUP5 SWAP1 PUSH2 0x1962 JUMP JUMPDEST SWAP3 POP POP DUP2 SWAP1 SSTORE POP DUP3 PUSH1 0x1 PUSH1 0x1 PUSH1 0xA0 SHL SUB AND DUP5 PUSH1 0x1 PUSH1 0x1 PUSH1 0xA0 SHL SUB AND PUSH32 0xDDF252AD1BE2C89B69C2B068FC378DAA952BA7F163C4A11628F55A4DF523B3EF DUP5 PUSH1 0x40 MLOAD PUSH2 0x121C SWAP2 DUP2 MSTORE PUSH1 0x20 ADD SWAP1 JUMP JUMPDEST PUSH1 0x40 MLOAD DUP1 SWAP2 SUB SWAP1 LOG3 PUSH2 0x1055 JUMP JUMPDEST PUSH1 0x5 SLOAD PUSH1 0x1 PUSH1 0x1 PUSH1 0xA0 SHL SUB AND CALLER EQ PUSH2 0x6F8 JUMPI PUSH1 0x40 MLOAD PUSH3 0x461BCD PUSH1 0xE5 SHL DUP2 MSTORE PUSH1 0x20 PUSH1 0x4 DUP3 ADD DUP2 SWAP1 MSTORE PUSH1 0x24 DUP3 ADD MSTORE PUSH32 0x4F776E61626C653A2063616C6C6572206973206E6F7420746865206F776E6572 PUSH1 0x44 DUP3 ADD MSTORE PUSH1 0x64 ADD PUSH2 0x638 JUMP JUMPDEST PUSH1 0x1 PUSH1 0x1 PUSH1 0xA0 SHL SUB DUP3 AND PUSH2 0x12E3 JUMPI PUSH1 0x40 MLOAD PUSH3 0x461BCD PUSH1 0xE5 SHL DUP2 MSTORE PUSH1 0x20 PUSH1 0x4 DUP3 ADD MSTORE PUSH1 0x21 PUSH1 0x24 DUP3 ADD MSTORE PUSH32 0x45524332303A206275726E2066726F6D20746865207A65726F20616464726573 PUSH1 0x44 DUP3 ADD MSTORE PUSH1 0x73 PUSH1 0xF8 SHL PUSH1 0x64 DUP3 ADD MSTORE PUSH1 0x84 ADD PUSH2 0x638 JUMP JUMPDEST PUSH1 0x1 PUSH1 0x1 PUSH1 0xA0 SHL SUB DUP3 AND PUSH1 0x0 SWAP1 DUP2 MSTORE PUSH1 0x20 DUP2 SWAP1 MSTORE PUSH1 0x40 SWAP1 KECCAK256 SLOAD DUP2 DUP2 LT ISZERO PUSH2 0x1357 JUMPI PUSH1 0x40 MLOAD PUSH3 0x461BCD PUSH1 0xE5 SHL DUP2 MSTORE PUSH1 0x20 PUSH1 0x4 DUP3 ADD MSTORE PUSH1 0x22 PUSH1 0x24 DUP3 ADD MSTORE PUSH32 0x45524332303A206275726E20616D6F756E7420657863656564732062616C616E PUSH1 0x44 DUP3 ADD MSTORE PUSH2 0x6365 PUSH1 0xF0 SHL PUSH1 0x64 DUP3 ADD MSTORE PUSH1 0x84 ADD PUSH2 0x638 JUMP JUMPDEST PUSH1 0x1 PUSH1 0x1 PUSH1 0xA0 SHL SUB DUP4 AND PUSH1 0x0 SWAP1 DUP2 MSTORE PUSH1 0x20 DUP2 SWAP1 MSTORE PUSH1 0x40 DUP2 KECCAK256 DUP4 DUP4 SUB SWAP1 SSTORE PUSH1 0x2 DUP1 SLOAD DUP5 SWAP3 SWAP1 PUSH2 0x1386 SWAP1 DUP5 SWAP1 PUSH2 0x19B0 JUMP JUMPDEST SWAP1 SWAP2 SSTORE POP POP PUSH1 0x40 MLOAD DUP3 DUP2 MSTORE PUSH1 0x0 SWAP1 PUSH1 0x1 PUSH1 0x1 PUSH1 0xA0 SHL SUB DUP6 AND SWAP1 PUSH32 0xDDF252AD1BE2C89B69C2B068FC378DAA952BA7F163C4A11628F55A4DF523B3EF SWAP1 PUSH1 0x20 ADD PUSH2 0xFD4 JUMP JUMPDEST POP POP POP JUMP JUMPDEST PUSH1 0x40 MLOAD PUSH1 0x1 PUSH1 0x1 PUSH1 0xA0 SHL SUB DUP4 AND PUSH1 0x24 DUP3 ADD MSTORE PUSH1 0x44 DUP2 ADD DUP3 SWAP1 MSTORE PUSH2 0x13C9 SWAP1 DUP5 SWAP1 PUSH4 0xA9059CBB PUSH1 0xE0 SHL SWAP1 PUSH1 0x64 ADD JUMPDEST PUSH1 0x40 DUP1 MLOAD PUSH1 0x1F NOT DUP2 DUP5 SUB ADD DUP2 MSTORE SWAP2 SWAP1 MSTORE PUSH1 0x20 DUP2 ADD DUP1 MLOAD PUSH1 0x1 PUSH1 0x1 PUSH1 0xE0 SHL SUB AND PUSH1 0x1 PUSH1 0x1 PUSH1 0xE0 SHL SUB NOT SWAP1 SWAP4 AND SWAP3 SWAP1 SWAP3 OR SWAP1 SWAP2 MSTORE PUSH2 0x15BE JUMP JUMPDEST PUSH1 0x0 PUSH2 0x4D9 DUP3 DUP5 PUSH2 0x19C7 JUMP JUMPDEST PUSH1 0x0 PUSH2 0x4D9 DUP3 DUP5 PUSH2 0x19E6 JUMP JUMPDEST PUSH1 0x5 DUP1 SLOAD PUSH1 0x1 PUSH1 0x1 PUSH1 0xA0 SHL SUB DUP4 DUP2 AND PUSH1 0x1 PUSH1 0x1 PUSH1 0xA0 SHL SUB NOT DUP4 AND DUP2 OR SWAP1 SWAP4 SSTORE PUSH1 0x40 MLOAD SWAP2 AND SWAP2 SWAP1 DUP3 SWAP1 PUSH32 0x8BE0079C531659141344CD1FD0A4F28419497F9722A3DAAFE3B4186F6B6457E0 SWAP1 PUSH1 0x0 SWAP1 LOG3 POP POP JUMP JUMPDEST PUSH1 0x0 PUSH2 0x4D9 DUP3 DUP5 PUSH2 0x1962 JUMP JUMPDEST PUSH1 0x1 PUSH1 0x1 PUSH1 0xA0 SHL SUB DUP3 AND PUSH2 0x14FD JUMPI PUSH1 0x40 MLOAD PUSH3 0x461BCD PUSH1 0xE5 SHL DUP2 MSTORE PUSH1 0x20 PUSH1 0x4 DUP3 ADD MSTORE PUSH1 0x1F PUSH1 0x24 DUP3 ADD MSTORE PUSH32 0x45524332303A206D696E7420746F20746865207A65726F206164647265737300 PUSH1 0x44 DUP3 ADD MSTORE PUSH1 0x64 ADD PUSH2 0x638 JUMP JUMPDEST DUP1 PUSH1 0x2 PUSH1 0x0 DUP3 DUP3 SLOAD PUSH2 0x150F SWAP2 SWAP1 PUSH2 0x1962 JUMP JUMPDEST SWAP1 SWAP2 SSTORE POP POP PUSH1 0x1 PUSH1 0x1 PUSH1 0xA0 SHL SUB DUP3 AND PUSH1 0x0 SWAP1 DUP2 MSTORE PUSH1 0x20 DUP2 SWAP1 MSTORE PUSH1 0x40 DUP2 KECCAK256 DUP1 SLOAD DUP4 SWAP3 SWAP1 PUSH2 0x153C SWAP1 DUP5 SWAP1 PUSH2 0x1962 JUMP JUMPDEST SWAP1 SWAP2 SSTORE POP POP PUSH1 0x40 MLOAD DUP2 DUP2 MSTORE PUSH1 0x1 PUSH1 0x1 PUSH1 0xA0 SHL SUB DUP4 AND SWAP1 PUSH1 0x0 SWAP1 PUSH32 0xDDF252AD1BE2C89B69C2B068FC378DAA952BA7F163C4A11628F55A4DF523B3EF SWAP1 PUSH1 0x20 ADD PUSH1 0x40 MLOAD DUP1 SWAP2 SUB SWAP1 LOG3 POP POP JUMP JUMPDEST PUSH1 0x40 MLOAD PUSH1 0x1 PUSH1 0x1 PUSH1 0xA0 SHL SUB DUP1 DUP6 AND PUSH1 0x24 DUP4 ADD MSTORE DUP4 AND PUSH1 0x44 DUP3 ADD MSTORE PUSH1 0x64 DUP2 ADD DUP3 SWAP1 MSTORE PUSH2 0x1055 SWAP1 DUP6 SWAP1 PUSH4 0x23B872DD PUSH1 0xE0 SHL SWAP1 PUSH1 0x84 ADD PUSH2 0x13FA JUMP JUMPDEST PUSH1 0x0 PUSH2 0x1613 DUP3 PUSH1 0x40 MLOAD DUP1 PUSH1 0x40 ADD PUSH1 0x40 MSTORE DUP1 PUSH1 0x20 DUP2 MSTORE PUSH1 0x20 ADD PUSH32 0x5361666545524332303A206C6F772D6C6576656C2063616C6C206661696C6564 DUP2 MSTORE POP DUP6 PUSH1 0x1 PUSH1 0x1 PUSH1 0xA0 SHL SUB AND PUSH2 0x1690 SWAP1 SWAP3 SWAP2 SWAP1 PUSH4 0xFFFFFFFF AND JUMP JUMPDEST DUP1 MLOAD SWAP1 SWAP2 POP ISZERO PUSH2 0x13C9 JUMPI DUP1 DUP1 PUSH1 0x20 ADD SWAP1 MLOAD DUP2 ADD SWAP1 PUSH2 0x1631 SWAP2 SWAP1 PUSH2 0x1993 JUMP JUMPDEST PUSH2 0x13C9 JUMPI PUSH1 0x40 MLOAD PUSH3 0x461BCD PUSH1 0xE5 SHL DUP2 MSTORE PUSH1 0x20 PUSH1 0x4 DUP3 ADD MSTORE PUSH1 0x2A PUSH1 0x24 DUP3 ADD MSTORE PUSH32 0x5361666545524332303A204552433230206F7065726174696F6E20646964206E PUSH1 0x44 DUP3 ADD MSTORE PUSH10 0x1BDD081CDD58D8D95959 PUSH1 0xB2 SHL PUSH1 0x64 DUP3 ADD MSTORE PUSH1 0x84 ADD PUSH2 0x638 JUMP JUMPDEST PUSH1 0x60 PUSH2 0x9A2 DUP5 DUP5 PUSH1 0x0 DUP6 DUP6 PUSH1 0x1 PUSH1 0x1 PUSH1 0xA0 SHL SUB DUP6 AND EXTCODESIZE PUSH2 0x16F2 JUMPI PUSH1 0x40 MLOAD PUSH3 0x461BCD PUSH1 0xE5 SHL DUP2 MSTORE PUSH1 0x20 PUSH1 0x4 DUP3 ADD MSTORE PUSH1 0x1D PUSH1 0x24 DUP3 ADD MSTORE PUSH32 0x416464726573733A2063616C6C20746F206E6F6E2D636F6E7472616374000000 PUSH1 0x44 DUP3 ADD MSTORE PUSH1 0x64 ADD PUSH2 0x638 JUMP JUMPDEST PUSH1 0x0 DUP1 DUP7 PUSH1 0x1 PUSH1 0x1 PUSH1 0xA0 SHL SUB AND DUP6 DUP8 PUSH1 0x40 MLOAD PUSH2 0x170E SWAP2 SWAP1 PUSH2 0x1A08 JUMP JUMPDEST PUSH1 0x0 PUSH1 0x40 MLOAD DUP1 DUP4 SUB DUP2 DUP6 DUP8 GAS CALL SWAP3 POP POP POP RETURNDATASIZE DUP1 PUSH1 0x0 DUP2 EQ PUSH2 0x174B JUMPI PUSH1 0x40 MLOAD SWAP2 POP PUSH1 0x1F NOT PUSH1 0x3F RETURNDATASIZE ADD AND DUP3 ADD PUSH1 0x40 MSTORE RETURNDATASIZE DUP3 MSTORE RETURNDATASIZE PUSH1 0x0 PUSH1 0x20 DUP5 ADD RETURNDATACOPY PUSH2 0x1750 JUMP JUMPDEST PUSH1 0x60 SWAP2 POP JUMPDEST POP SWAP2 POP SWAP2 POP PUSH2 0x1760 DUP3 DUP3 DUP7 PUSH2 0x176B JUMP JUMPDEST SWAP8 SWAP7 POP POP POP POP POP POP POP JUMP JUMPDEST PUSH1 0x60 DUP4 ISZERO PUSH2 0x177A JUMPI POP DUP2 PUSH2 0x4D9 JUMP JUMPDEST DUP3 MLOAD ISZERO PUSH2 0x178A JUMPI DUP3 MLOAD DUP1 DUP5 PUSH1 0x20 ADD REVERT JUMPDEST DUP2 PUSH1 0x40 MLOAD PUSH3 0x461BCD PUSH1 0xE5 SHL DUP2 MSTORE PUSH1 0x4 ADD PUSH2 0x638 SWAP2 SWAP1 PUSH2 0x1807 JUMP JUMPDEST DUP1 CALLDATALOAD PUSH1 0x1 PUSH1 0x1 PUSH1 0xA0 SHL SUB DUP2 AND DUP2 EQ PUSH2 0x17BB JUMPI PUSH1 0x0 DUP1 REVERT JUMPDEST SWAP2 SWAP1 POP JUMP JUMPDEST PUSH1 0x0 PUSH1 0x20 DUP3 DUP5 SUB SLT ISZERO PUSH2 0x17D2 JUMPI PUSH1 0x0 DUP1 REVERT JUMPDEST PUSH2 0x4D9 DUP3 PUSH2 0x17A4 JUMP JUMPDEST PUSH1 0x0 JUMPDEST DUP4 DUP2 LT ISZERO PUSH2 0x17F6 JUMPI DUP2 DUP2 ADD MLOAD DUP4 DUP3 ADD MSTORE PUSH1 0x20 ADD PUSH2 0x17DE JUMP JUMPDEST DUP4 DUP2 GT ISZERO PUSH2 0x1055 JUMPI POP POP PUSH1 0x0 SWAP2 ADD MSTORE JUMP JUMPDEST PUSH1 0x20 DUP2 MSTORE PUSH1 0x0 DUP3 MLOAD DUP1 PUSH1 0x20 DUP5 ADD MSTORE PUSH2 0x1826 DUP2 PUSH1 0x40 DUP6 ADD PUSH1 0x20 DUP8 ADD PUSH2 0x17DB JUMP JUMPDEST PUSH1 0x1F ADD PUSH1 0x1F NOT AND SWAP2 SWAP1 SWAP2 ADD PUSH1 0x40 ADD SWAP3 SWAP2 POP POP JUMP JUMPDEST PUSH1 0x0 DUP1 PUSH1 0x40 DUP4 DUP6 SUB SLT ISZERO PUSH2 0x184D JUMPI PUSH1 0x0 DUP1 REVERT JUMPDEST PUSH2 0x1856 DUP4 PUSH2 0x17A4 JUMP JUMPDEST SWAP5 PUSH1 0x20 SWAP4 SWAP1 SWAP4 ADD CALLDATALOAD SWAP4 POP POP POP JUMP JUMPDEST PUSH1 0x0 DUP1 PUSH1 0x0 PUSH1 0x60 DUP5 DUP7 SUB SLT ISZERO PUSH2 0x1879 JUMPI PUSH1 0x0 DUP1 REVERT JUMPDEST PUSH2 0x1882 DUP5 PUSH2 0x17A4 JUMP JUMPDEST SWAP3 POP PUSH2 0x1890 PUSH1 0x20 DUP6 ADD PUSH2 0x17A4 JUMP JUMPDEST SWAP2 POP PUSH1 0x40 DUP5 ADD CALLDATALOAD SWAP1 POP SWAP3 POP SWAP3 POP SWAP3 JUMP JUMPDEST PUSH1 0x0 PUSH1 0x20 DUP3 DUP5 SUB SLT ISZERO PUSH2 0x18B2 JUMPI PUSH1 0x0 DUP1 REVERT JUMPDEST POP CALLDATALOAD SWAP2 SWAP1 POP JUMP JUMPDEST PUSH1 0x0 DUP1 PUSH1 0x40 DUP4 DUP6 SUB SLT ISZERO PUSH2 0x18CC JUMPI PUSH1 0x0 DUP1 REVERT JUMPDEST PUSH2 0x18D5 DUP4 PUSH2 0x17A4 JUMP JUMPDEST SWAP2 POP PUSH2 0x18E3 PUSH1 0x20 DUP5 ADD PUSH2 0x17A4 JUMP JUMPDEST SWAP1 POP SWAP3 POP SWAP3 SWAP1 POP JUMP JUMPDEST DUP1 ISZERO ISZERO DUP2 EQ PUSH2 0x650 JUMPI PUSH1 0x0 DUP1 REVERT JUMPDEST PUSH1 0x0 PUSH1 0x20 DUP3 DUP5 SUB SLT ISZERO PUSH2 0x190C JUMPI PUSH1 0x0 DUP1 REVERT JUMPDEST DUP2 CALLDATALOAD PUSH2 0x4D9 DUP2 PUSH2 0x18EC JUMP JUMPDEST PUSH1 0x1 DUP2 DUP2 SHR SWAP1 DUP3 AND DUP1 PUSH2 0x192B JUMPI PUSH1 0x7F DUP3 AND SWAP2 POP JUMPDEST PUSH1 0x20 DUP3 LT DUP2 EQ ISZERO PUSH2 0x4E0 JUMPI PUSH4 0x4E487B71 PUSH1 0xE0 SHL PUSH1 0x0 MSTORE PUSH1 0x22 PUSH1 0x4 MSTORE PUSH1 0x24 PUSH1 0x0 REVERT JUMPDEST PUSH4 0x4E487B71 PUSH1 0xE0 SHL PUSH1 0x0 MSTORE PUSH1 0x11 PUSH1 0x4 MSTORE PUSH1 0x24 PUSH1 0x0 REVERT JUMPDEST PUSH1 0x0 DUP3 NOT DUP3 GT ISZERO PUSH2 0x1975 JUMPI PUSH2 0x1975 PUSH2 0x194C JUMP JUMPDEST POP ADD SWAP1 JUMP JUMPDEST PUSH1 0x0 PUSH1 0x20 DUP3 DUP5 SUB SLT ISZERO PUSH2 0x198C JUMPI PUSH1 0x0 DUP1 REVERT JUMPDEST POP MLOAD SWAP2 SWAP1 POP JUMP JUMPDEST PUSH1 0x0 PUSH1 0x20 DUP3 DUP5 SUB SLT ISZERO PUSH2 0x19A5 JUMPI PUSH1 0x0 DUP1 REVERT JUMPDEST DUP2 MLOAD PUSH2 0x4D9 DUP2 PUSH2 0x18EC JUMP JUMPDEST PUSH1 0x0 DUP3 DUP3 LT ISZERO PUSH2 0x19C2 JUMPI PUSH2 0x19C2 PUSH2 0x194C JUMP JUMPDEST POP SUB SWAP1 JUMP JUMPDEST PUSH1 0x0 DUP2 PUSH1 0x0 NOT DIV DUP4 GT DUP3 ISZERO ISZERO AND ISZERO PUSH2 0x19E1 JUMPI PUSH2 0x19E1 PUSH2 0x194C JUMP JUMPDEST POP MUL SWAP1 JUMP JUMPDEST PUSH1 0x0 DUP3 PUSH2 0x1A03 JUMPI PUSH4 0x4E487B71 PUSH1 0xE0 SHL PUSH1 0x0 MSTORE PUSH1 0x12 PUSH1 0x4 MSTORE PUSH1 0x24 PUSH1 0x0 REVERT JUMPDEST POP DIV SWAP1 JUMP JUMPDEST PUSH1 0x0 DUP3 MLOAD PUSH2 0x1A1A DUP2 DUP5 PUSH1 0x20 DUP8 ADD PUSH2 0x17DB JUMP JUMPDEST SWAP2 SWAP1 SWAP2 ADD SWAP3 SWAP2 POP POP JUMP INVALID LOG2 PUSH5 0x6970667358 0x22 SLT KECCAK256 PUSH9 0xBEEBD826F5ACC009CF DUP5 0x49 ISZERO DUP11 0xB2 SWAP2 0xB9 0x2C 0xBB CALLVALUE BYTE EXTCODESIZE DUP7 SWAP7 0xEC SMOD 0xDF PUSH28 0xA811460C64736F6C634300080C003300000000000000000000000000 "
				},
				"gasEstimates": {
					"creation": {
						"codeDepositCost": "1349200",
						"executionCost": "infinite",
						"totalCost": "infinite"
					},
					"external": {
						"USDC()": "2415",
						"allowance(address,address)": "infinite",
						"approve(address,uint256)": "24693",
						"balanceOf(address)": "2575",
						"burn(uint256)": "50906",
						"claim()": "infinite",
						"claimableTokens(address)": "infinite",
						"decimals()": "223",
						"decreaseAllowance(address,uint256)": "27018",
						"increaseAllowance(address,uint256)": "27047",
						"mint(uint256)": "infinite",
						"mintCap()": "2396",
						"mintOpen()": "2422",
						"mintPrice()": "2395",
						"name()": "infinite",
						"owner()": "2420",
						"recoverTreasuryTokens()": "infinite",
						"remainingMintableTokens()": "infinite",
						"remainingVestedTime(address)": "infinite",
						"renounceOwnership()": "infinite",
						"setMintCap(uint256)": "24578",
						"setMintPrice(uint256)": "26724",
						"setOpenMint(bool)": "26731",
						"setVestingPeriod(uint256)": "24660",
						"symbol()": "infinite",
						"totalSupply()": "2327",
						"transfer(address,uint256)": "51271",
						"transferFrom(address,address,uint256)": "infinite",
						"transferOwnership(address)": "28424",
						"userInfo(address)": "6862",
						"vestingPeriod()": "2374"
					}
				},
				"methodIdentifiers": {
					"USDC()": "89a30271",
					"allowance(address,address)": "dd62ed3e",
					"approve(address,uint256)": "095ea7b3",
					"balanceOf(address)": "70a08231",
					"burn(uint256)": "42966c68",
					"claim()": "4e71d92d",
					"claimableTokens(address)": "84d24226",
					"decimals()": "313ce567",
					"decreaseAllowance(address,uint256)": "a457c2d7",
					"increaseAllowance(address,uint256)": "39509351",
					"mint(uint256)": "a0712d68",
					"mintCap()": "76c71ca1",
					"mintOpen()": "24bbd049",
					"mintPrice()": "6817c76c",
					"name()": "06fdde03",
					"owner()": "8da5cb5b",
					"recoverTreasuryTokens()": "4e274514",
					"remainingMintableTokens()": "e2e5c15c",
					"remainingVestedTime(address)": "03c824da",
					"renounceOwnership()": "715018a6",
					"setMintCap(uint256)": "4070a0c9",
					"setMintPrice(uint256)": "f4a0a528",
					"setOpenMint(bool)": "e2af30f4",
					"setVestingPeriod(uint256)": "40bee0ed",
					"symbol()": "95d89b41",
					"totalSupply()": "18160ddd",
					"transfer(address,uint256)": "a9059cbb",
					"transferFrom(address,address,uint256)": "23b872dd",
					"transferOwnership(address)": "f2fde38b",
					"userInfo(address)": "1959a002",
					"vestingPeriod()": "7313ee5a"
				}
			},
			"storageLayout": {
				"storage": [
					{
						"astId": 1200,
						"contract": "GMD_flat.sol:GMD",
						"label": "_balances",
						"offset": 0,
						"slot": "0",
						"type": "t_mapping(t_address,t_uint256)"
					},
					{
						"astId": 1206,
						"contract": "GMD_flat.sol:GMD",
						"label": "_allowances",
						"offset": 0,
						"slot": "1",
						"type": "t_mapping(t_address,t_mapping(t_address,t_uint256))"
					},
					{
						"astId": 1208,
						"contract": "GMD_flat.sol:GMD",
						"label": "_totalSupply",
						"offset": 0,
						"slot": "2",
						"type": "t_uint256"
					},
					{
						"astId": 1210,
						"contract": "GMD_flat.sol:GMD",
						"label": "_name",
						"offset": 0,
						"slot": "3",
						"type": "t_string_storage"
					},
					{
						"astId": 1212,
						"contract": "GMD_flat.sol:GMD",
						"label": "_symbol",
						"offset": 0,
						"slot": "4",
						"type": "t_string_storage"
					},
					{
						"astId": 706,
						"contract": "GMD_flat.sol:GMD",
						"label": "_owner",
						"offset": 0,
						"slot": "5",
						"type": "t_address"
					},
					{
						"astId": 10,
						"contract": "GMD_flat.sol:GMD",
						"label": "_status",
						"offset": 0,
						"slot": "6",
						"type": "t_uint256"
					},
					{
						"astId": 1813,
						"contract": "GMD_flat.sol:GMD",
						"label": "userInfo",
						"offset": 0,
						"slot": "7",
						"type": "t_mapping(t_address,t_struct(UserInfo)1808_storage)"
					},
					{
						"astId": 1816,
						"contract": "GMD_flat.sol:GMD",
						"label": "mintPrice",
						"offset": 0,
						"slot": "8",
						"type": "t_uint256"
					},
					{
						"astId": 1819,
						"contract": "GMD_flat.sol:GMD",
						"label": "mintCap",
						"offset": 0,
						"slot": "9",
						"type": "t_uint256"
					},
					{
						"astId": 1822,
						"contract": "GMD_flat.sol:GMD",
						"label": "vestingPeriod",
						"offset": 0,
						"slot": "10",
						"type": "t_uint256"
					},
					{
						"astId": 1825,
						"contract": "GMD_flat.sol:GMD",
						"label": "mintOpen",
						"offset": 0,
						"slot": "11",
						"type": "t_bool"
					},
					{
						"astId": 1831,
						"contract": "GMD_flat.sol:GMD",
						"label": "USDC",
						"offset": 1,
						"slot": "11",
						"type": "t_contract(IERC20)888"
					}
				],
				"types": {
					"t_address": {
						"encoding": "inplace",
						"label": "address",
						"numberOfBytes": "20"
					},
					"t_bool": {
						"encoding": "inplace",
						"label": "bool",
						"numberOfBytes": "1"
					},
					"t_contract(IERC20)888": {
						"encoding": "inplace",
						"label": "contract IERC20",
						"numberOfBytes": "20"
					},
					"t_mapping(t_address,t_mapping(t_address,t_uint256))": {
						"encoding": "mapping",
						"key": "t_address",
						"label": "mapping(address => mapping(address => uint256))",
						"numberOfBytes": "32",
						"value": "t_mapping(t_address,t_uint256)"
					},
					"t_mapping(t_address,t_struct(UserInfo)1808_storage)": {
						"encoding": "mapping",
						"key": "t_address",
						"label": "mapping(address => struct GMD.UserInfo)",
						"numberOfBytes": "32",
						"value": "t_struct(UserInfo)1808_storage"
					},
					"t_mapping(t_address,t_uint256)": {
						"encoding": "mapping",
						"key": "t_address",
						"label": "mapping(address => uint256)",
						"numberOfBytes": "32",
						"value": "t_uint256"
					},
					"t_string_storage": {
						"encoding": "bytes",
						"label": "string",
						"numberOfBytes": "32"
					},
					"t_struct(UserInfo)1808_storage": {
						"encoding": "inplace",
						"label": "struct GMD.UserInfo",
						"members": [
							{
								"astId": 1803,
								"contract": "GMD_flat.sol:GMD",
								"label": "totalMinted",
								"offset": 0,
								"slot": "0",
								"type": "t_uint256"
							},
							{
								"astId": 1805,
								"contract": "GMD_flat.sol:GMD",
								"label": "lastInteractionTime",
								"offset": 0,
								"slot": "1",
								"type": "t_uint256"
							},
							{
								"astId": 1807,
								"contract": "GMD_flat.sol:GMD",
								"label": "VestPeriod",
								"offset": 0,
								"slot": "2",
								"type": "t_uint256"
							}
						],
						"numberOfBytes": "96"
					},
					"t_uint256": {
						"encoding": "inplace",
						"label": "uint256",
						"numberOfBytes": "32"
					}
				}
			},
			"userdoc": {
				"kind": "user",
				"methods": {},
				"version": 1
			}
		}
	}
}