{
	"contracts/final/GMD.sol": {
		"GMD": {
			"abi": [
				{
					"inputs": [],
					"stateMutability": "nonpayable",
					"type": "constructor"
				},
				{
					"anonymous": false,
					"inputs": [
						{
							"indexed": true,
							"internalType": "address",
							"name": "owner",
							"type": "address"
						},
						{
							"indexed": true,
							"internalType": "address",
							"name": "spender",
							"type": "address"
						},
						{
							"indexed": false,
							"internalType": "uint256",
							"name": "value",
							"type": "uint256"
						}
					],
					"name": "Approval",
					"type": "event"
				},
				{
					"anonymous": false,
					"inputs": [
						{
							"indexed": true,
							"internalType": "address",
							"name": "previousOwner",
							"type": "address"
						},
						{
							"indexed": true,
							"internalType": "address",
							"name": "newOwner",
							"type": "address"
						}
					],
					"name": "OwnershipTransferred",
					"type": "event"
				},
				{
					"anonymous": false,
					"inputs": [
						{
							"indexed": true,
							"internalType": "address",
							"name": "from",
							"type": "address"
						},
						{
							"indexed": true,
							"internalType": "address",
							"name": "to",
							"type": "address"
						},
						{
							"indexed": false,
							"internalType": "uint256",
							"name": "value",
							"type": "uint256"
						}
					],
					"name": "Transfer",
					"type": "event"
				},
				{
					"inputs": [],
					"name": "USDC",
					"outputs": [
						{
							"internalType": "contract IERC20",
							"name": "",
							"type": "address"
						}
					],
					"stateMutability": "view",
					"type": "function"
				},
				{
					"inputs": [
						{
							"internalType": "address",
							"name": "owner",
							"type": "address"
						},
						{
							"internalType": "address",
							"name": "spender",
							"type": "address"
						}
					],
					"name": "allowance",
					"outputs": [
						{
							"internalType": "uint256",
							"name": "",
							"type": "uint256"
						}
					],
					"stateMutability": "view",
					"type": "function"
				},
				{
					"inputs": [
						{
							"internalType": "address",
							"name": "spender",
							"type": "address"
						},
						{
							"internalType": "uint256",
							"name": "amount",
							"type": "uint256"
						}
					],
					"name": "approve",
					"outputs": [
						{
							"internalType": "bool",
							"name": "",
							"type": "bool"
						}
					],
					"stateMutability": "nonpayable",
					"type": "function"
				},
				{
					"inputs": [
						{
							"internalType": "address",
							"name": "account",
							"type": "address"
						}
					],
					"name": "balanceOf",
					"outputs": [
						{
							"internalType": "uint256",
							"name": "",
							"type": "uint256"
						}
					],
					"stateMutability": "view",
					"type": "function"
				},
				{
					"inputs": [
						{
							"internalType": "uint256",
							"name": "_amount",
							"type": "uint256"
						}
					],
					"name": "burn",
					"outputs": [],
					"stateMutability": "nonpayable",
					"type": "function"
				},
				{
					"inputs": [],
					"name": "claim",
					"outputs": [],
					"stateMutability": "nonpayable",
					"type": "function"
				},
				{
					"inputs": [
						{
							"internalType": "address",
							"name": "_address",
							"type": "address"
						}
					],
					"name": "claimableTokens",
					"outputs": [
						{
							"internalType": "uint256",
							"name": "",
							"type": "uint256"
						}
					],
					"stateMutability": "view",
					"type": "function"
				},
				{
					"inputs": [],
					"name": "decimals",
					"outputs": [
						{
							"internalType": "uint8",
							"name": "",
							"type": "uint8"
						}
					],
					"stateMutability": "view",
					"type": "function"
				},
				{
					"inputs": [
						{
							"internalType": "address",
							"name": "spender",
							"type": "address"
						},
						{
							"internalType": "uint256",
							"name": "subtractedValue",
							"type": "uint256"
						}
					],
					"name": "decreaseAllowance",
					"outputs": [
						{
							"internalType": "bool",
							"name": "",
							"type": "bool"
						}
					],
					"stateMutability": "nonpayable",
					"type": "function"
				},
				{
					"inputs": [
						{
							"internalType": "address",
							"name": "spender",
							"type": "address"
						},
						{
							"internalType": "uint256",
							"name": "addedValue",
							"type": "uint256"
						}
					],
					"name": "increaseAllowance",
					"outputs": [
						{
							"internalType": "bool",
							"name": "",
							"type": "bool"
						}
					],
					"stateMutability": "nonpayable",
					"type": "function"
				},
				{
					"inputs": [
						{
							"internalType": "uint256",
							"name": "_amount",
							"type": "uint256"
						}
					],
					"name": "mint",
					"outputs": [],
					"stateMutability": "nonpayable",
					"type": "function"
				},
				{
					"inputs": [],
					"name": "mintCap",
					"outputs": [
						{
							"internalType": "uint256",
							"name": "",
							"type": "uint256"
						}
					],
					"stateMutability": "view",
					"type": "function"
				},
				{
					"inputs": [],
					"name": "mintOpen",
					"outputs": [
						{
							"internalType": "bool",
							"name": "",
							"type": "bool"
						}
					],
					"stateMutability": "view",
					"type": "function"
				},
				{
					"inputs": [],
					"name": "mintPrice",
					"outputs": [
						{
							"internalType": "uint256",
							"name": "",
							"type": "uint256"
						}
					],
					"stateMutability": "view",
					"type": "function"
				},
				{
					"inputs": [],
					"name": "name",
					"outputs": [
						{
							"internalType": "string",
							"name": "",
							"type": "string"
						}
					],
					"stateMutability": "view",
					"type": "function"
				},
				{
					"inputs": [],
					"name": "owner",
					"outputs": [
						{
							"internalType": "address",
							"name": "",
							"type": "address"
						}
					],
					"stateMutability": "view",
					"type": "function"
				},
				{
					"inputs": [],
					"name": "recoverTreasuryTokens",
					"outputs": [],
					"stateMutability": "nonpayable",
					"type": "function"
				},
				{
					"inputs": [],
					"name": "remainingMintableTokens",
					"outputs": [
						{
							"internalType": "uint256",
							"name": "",
							"type": "uint256"
						}
					],
					"stateMutability": "view",
					"type": "function"
				},
				{
					"inputs": [],
					"name": "remainingVestedTime",
					"outputs": [
						{
							"internalType": "uint256",
							"name": "",
							"type": "uint256"
						}
					],
					"stateMutability": "view",
					"type": "function"
				},
				{
					"inputs": [],
					"name": "renounceOwnership",
					"outputs": [],
					"stateMutability": "nonpayable",
					"type": "function"
				},
				{
					"inputs": [
						{
							"internalType": "uint256",
							"name": "_mintCap",
							"type": "uint256"
						}
					],
					"name": "setMintCap",
					"outputs": [],
					"stateMutability": "nonpayable",
					"type": "function"
				},
				{
					"inputs": [
						{
							"internalType": "uint256",
							"name": "_mintPrice",
							"type": "uint256"
						}
					],
					"name": "setMintPrice",
					"outputs": [],
					"stateMutability": "nonpayable",
					"type": "function"
				},
				{
					"inputs": [
						{
							"internalType": "bool",
							"name": "_mintOpen",
							"type": "bool"
						}
					],
					"name": "setOpenMint",
					"outputs": [],
					"stateMutability": "nonpayable",
					"type": "function"
				},
				{
					"inputs": [
						{
							"internalType": "uint256",
							"name": "_period",
							"type": "uint256"
						}
					],
					"name": "setVestingPeriod",
					"outputs": [],
					"stateMutability": "nonpayable",
					"type": "function"
				},
				{
					"inputs": [],
					"name": "symbol",
					"outputs": [
						{
							"internalType": "string",
							"name": "",
							"type": "string"
						}
					],
					"stateMutability": "view",
					"type": "function"
				},
				{
					"inputs": [],
					"name": "totalSupply",
					"outputs": [
						{
							"internalType": "uint256",
							"name": "",
							"type": "uint256"
						}
					],
					"stateMutability": "view",
					"type": "function"
				},
				{
					"inputs": [
						{
							"internalType": "address",
							"name": "to",
							"type": "address"
						},
						{
							"internalType": "uint256",
							"name": "amount",
							"type": "uint256"
						}
					],
					"name": "transfer",
					"outputs": [
						{
							"internalType": "bool",
							"name": "",
							"type": "bool"
						}
					],
					"stateMutability": "nonpayable",
					"type": "function"
				},
				{
					"inputs": [
						{
							"internalType": "address",
							"name": "from",
							"type": "address"
						},
						{
							"internalType": "address",
							"name": "to",
							"type": "address"
						},
						{
							"internalType": "uint256",
							"name": "amount",
							"type": "uint256"
						}
					],
					"name": "transferFrom",
					"outputs": [
						{
							"internalType": "bool",
							"name": "",
							"type": "bool"
						}
					],
					"stateMutability": "nonpayable",
					"type": "function"
				},
				{
					"inputs": [
						{
							"internalType": "address",
							"name": "newOwner",
							"type": "address"
						}
					],
					"name": "transferOwnership",
					"outputs": [],
					"stateMutability": "nonpayable",
					"type": "function"
				},
				{
					"inputs": [
						{
							"internalType": "address",
							"name": "",
							"type": "address"
						}
					],
					"name": "userInfo",
					"outputs": [
						{
							"internalType": "uint256",
							"name": "totalMinted",
							"type": "uint256"
						},
						{
							"internalType": "uint256",
							"name": "lastInteractionTime",
							"type": "uint256"
						},
						{
							"internalType": "uint256",
							"name": "VestPeriod",
							"type": "uint256"
						}
					],
					"stateMutability": "view",
					"type": "function"
				},
				{
					"inputs": [],
					"name": "vestingPeriod",
					"outputs": [
						{
							"internalType": "uint256",
							"name": "",
							"type": "uint256"
						}
					],
					"stateMutability": "view",
					"type": "function"
				}
			],
			"devdoc": {
				"kind": "dev",
				"methods": {
					"allowance(address,address)": {
						"details": "See {IERC20-allowance}."
					},
					"approve(address,uint256)": {
						"details": "See {IERC20-approve}. NOTE: If `amount` is the maximum `uint256`, the allowance is not updated on `transferFrom`. This is semantically equivalent to an infinite approval. Requirements: - `spender` cannot be the zero address."
					},
					"balanceOf(address)": {
						"details": "See {IERC20-balanceOf}."
					},
					"decimals()": {
						"details": "Returns the number of decimals used to get its user representation. For example, if `decimals` equals `2`, a balance of `505` tokens should be displayed to a user as `5.05` (`505 / 10 ** 2`). Tokens usually opt for a value of 18, imitating the relationship between Ether and Wei. This is the value {ERC20} uses, unless this function is overridden; NOTE: This information is only used for _display_ purposes: it in no way affects any of the arithmetic of the contract, including {IERC20-balanceOf} and {IERC20-transfer}."
					},
					"decreaseAllowance(address,uint256)": {
						"details": "Atomically decreases the allowance granted to `spender` by the caller. This is an alternative to {approve} that can be used as a mitigation for problems described in {IERC20-approve}. Emits an {Approval} event indicating the updated allowance. Requirements: - `spender` cannot be the zero address. - `spender` must have allowance for the caller of at least `subtractedValue`."
					},
					"increaseAllowance(address,uint256)": {
						"details": "Atomically increases the allowance granted to `spender` by the caller. This is an alternative to {approve} that can be used as a mitigation for problems described in {IERC20-approve}. Emits an {Approval} event indicating the updated allowance. Requirements: - `spender` cannot be the zero address."
					},
					"name()": {
						"details": "Returns the name of the token."
					},
					"owner()": {
						"details": "Returns the address of the current owner."
					},
					"renounceOwnership()": {
						"details": "Leaves the contract without owner. It will not be possible to call `onlyOwner` functions anymore. Can only be called by the current owner. NOTE: Renouncing ownership will leave the contract without an owner, thereby removing any functionality that is only available to the owner."
					},
					"symbol()": {
						"details": "Returns the symbol of the token, usually a shorter version of the name."
					},
					"totalSupply()": {
						"details": "See {IERC20-totalSupply}."
					},
					"transfer(address,uint256)": {
						"details": "See {IERC20-transfer}. Requirements: - `to` cannot be the zero address. - the caller must have a balance of at least `amount`."
					},
					"transferFrom(address,address,uint256)": {
						"details": "See {IERC20-transferFrom}. Emits an {Approval} event indicating the updated allowance. This is not required by the EIP. See the note at the beginning of {ERC20}. NOTE: Does not update the allowance if the current allowance is the maximum `uint256`. Requirements: - `from` and `to` cannot be the zero address. - `from` must have a balance of at least `amount`. - the caller must have allowance for ``from``'s tokens of at least `amount`."
					},
					"transferOwnership(address)": {
						"details": "Transfers ownership of the contract to a new account (`newOwner`). Can only be called by the current owner."
					}
				},
				"version": 1
			},
			"evm": {
				"assembly": "    /* \"contracts/final/GMD.sol\":365:4431  contract GMD is ERC20(\"GMD\", \"GMD\"), Ownable , ReentrancyGuard{ ... */\n  mstore(0x40, 0x80)\n    /* \"contracts/final/GMD.sol\":797:801  1000 */\n  0x03e8\n    /* \"contracts/final/GMD.sol\":770:801  uint256 public mintPrice = 1000 */\n  0x08\n  sstore\n    /* \"contracts/final/GMD.sol\":833:834  0 */\n  0x00\n    /* \"contracts/final/GMD.sol\":808:834  uint256 public mintCap = 0 */\n  0x09\n  sstore\n    /* \"contracts/final/GMD.sol\":872:878  5 days */\n  0x069780\n    /* \"contracts/final/GMD.sol\":841:878  uint256 public vestingPeriod = 5 days */\n  0x0a\n  sstore\n    /* \"contracts/final/GMD.sol\":885:913  bool public mintOpen = false */\n  0x0b\n  dup1\n  sload\n  not(sub(shl(0xa8, 0x01), 0x01))\n    /* \"contracts/final/GMD.sol\":920:991  IERC20 public USDC = IERC20(0xFF970A61A04b1cA14834A43f5dE4533eBDDB5CC8) */\n  and\n  0xff970a61a04b1ca14834a43f5de4533ebddb5cc800\n  or\n  swap1\n  sstore\n    /* \"contracts/final/GMD.sol\":437:513  constructor() {... */\n  callvalue\n  dup1\n  iszero\n  tag_1\n  jumpi\n  0x00\n  dup1\n  revert\ntag_1:\n  pop\n    /* \"@openzeppelin/contracts/token/ERC20/ERC20.sol\":1978:2091  constructor(string memory name_, string memory symbol_) {... */\n  mload(0x40)\n  dup1\n  0x40\n  add\n  0x40\n  mstore\n  dup1\n  0x03\n  dup2\n  mstore\n  0x20\n  add\n  shl(0xea, 0x11d351)\n  dup2\n  mstore\n  pop\n  mload(0x40)\n  dup1\n  0x40\n  add\n  0x40\n  mstore\n  dup1\n  0x03\n  dup2\n  mstore\n  0x20\n  add\n  shl(0xea, 0x11d351)\n  dup2\n  mstore\n  pop\n    /* \"@openzeppelin/contracts/token/ERC20/ERC20.sol\":2052:2057  name_ */\n  dup2\n    /* \"@openzeppelin/contracts/token/ERC20/ERC20.sol\":2044:2049  _name */\n  0x03\n    /* \"@openzeppelin/contracts/token/ERC20/ERC20.sol\":2044:2057  _name = name_ */\n  swap1\n  dup1\n  mload\n  swap1\n  0x20\n  add\n  swap1\n  tag_7\n  swap3\n  swap2\n  swap1\n  tag_8\n  jump\t// in\ntag_7:\n  pop\n    /* \"@openzeppelin/contracts/token/ERC20/ERC20.sol\":2067:2084  _symbol = symbol_ */\n  dup1\n  mload\n  tag_9\n  swap1\n    /* \"@openzeppelin/contracts/token/ERC20/ERC20.sol\":2067:2074  _symbol */\n  0x04\n  swap1\n    /* \"@openzeppelin/contracts/token/ERC20/ERC20.sol\":2067:2084  _symbol = symbol_ */\n  0x20\n  dup5\n  add\n  swap1\n  tag_8\n  jump\t// in\ntag_9:\n  pop\n    /* \"@openzeppelin/contracts/token/ERC20/ERC20.sol\":1978:2091  constructor(string memory name_, string memory symbol_) {... */\n  pop\n  pop\n    /* \"@openzeppelin/contracts/access/Ownable.sol\":936:968  _transferOwnership(_msgSender()) */\n  tag_11\n    /* \"@openzeppelin/contracts/access/Ownable.sol\":955:967  _msgSender() */\n  tag_12\n    /* \"@openzeppelin/contracts/access/Ownable.sol\":955:965  _msgSender */\n  shl(0x20, tag_13)\n    /* \"@openzeppelin/contracts/access/Ownable.sol\":955:967  _msgSender() */\n  0x20\n  shr\n  jump\t// in\ntag_12:\n    /* \"@openzeppelin/contracts/access/Ownable.sol\":936:954  _transferOwnership */\n  tag_14\n    /* \"@openzeppelin/contracts/access/Ownable.sol\":936:968  _transferOwnership(_msgSender()) */\n  jump\t// in\ntag_11:\n    /* \"@openzeppelin/contracts/security/ReentrancyGuard.sol\":1701:1702  1 */\n  0x01\n    /* \"@openzeppelin/contracts/security/ReentrancyGuard.sol\":1806:1813  _status */\n  0x06\n    /* \"@openzeppelin/contracts/security/ReentrancyGuard.sol\":1806:1828  _status = _NOT_ENTERED */\n  sstore\n    /* \"contracts/final/GMD.sol\":462:505  _mint(msg.sender, 50000 * 10 ** decimals()) */\n  tag_17\n    /* \"contracts/final/GMD.sol\":468:478  msg.sender */\n  caller\n    /* \"contracts/final/GMD.sol\":488:504  10 ** decimals() */\n  tag_20\n    /* \"@openzeppelin/contracts/token/ERC20/ERC20.sol\":3175:3177  18 */\n  0x12\n    /* \"contracts/final/GMD.sol\":488:490  10 */\n  0x0a\n    /* \"contracts/final/GMD.sol\":488:504  10 ** decimals() */\n  tag_21\n  jump\t// in\ntag_20:\n    /* \"contracts/final/GMD.sol\":480:504  50000 * 10 ** decimals() */\n  tag_22\n  swap1\n    /* \"contracts/final/GMD.sol\":480:485  50000 */\n  0xc350\n    /* \"contracts/final/GMD.sol\":480:504  50000 * 10 ** decimals() */\n  tag_23\n  jump\t// in\ntag_22:\n    /* \"contracts/final/GMD.sol\":462:467  _mint */\n  tag_24\n    /* \"contracts/final/GMD.sol\":462:505  _mint(msg.sender, 50000 * 10 ** decimals()) */\n  jump\t// in\ntag_17:\n    /* \"contracts/final/GMD.sol\":365:4431  contract GMD is ERC20(\"GMD\", \"GMD\"), Ownable , ReentrancyGuard{ ... */\n  jump(tag_58)\n    /* \"@openzeppelin/contracts/utils/Context.sol\":640:736  function _msgSender() internal view virtual returns (address) {... */\ntag_13:\n    /* \"@openzeppelin/contracts/utils/Context.sol\":719:729  msg.sender */\n  caller\n  swap1\n    /* \"@openzeppelin/contracts/utils/Context.sol\":640:736  function _msgSender() internal view virtual returns (address) {... */\n  jump\t// out\n    /* \"@openzeppelin/contracts/access/Ownable.sol\":2433:2620  function _transferOwnership(address newOwner) internal virtual {... */\ntag_14:\n    /* \"@openzeppelin/contracts/access/Ownable.sol\":2525:2531  _owner */\n  0x05\n  dup1\n  sload\n  sub(shl(0xa0, 0x01), 0x01)\n    /* \"@openzeppelin/contracts/access/Ownable.sol\":2541:2558  _owner = newOwner */\n  dup4\n  dup2\n  and\n  not(sub(shl(0xa0, 0x01), 0x01))\n  dup4\n  and\n  dup2\n  or\n  swap1\n  swap4\n  sstore\n    /* \"@openzeppelin/contracts/access/Ownable.sol\":2573:2613  OwnershipTransferred(oldOwner, newOwner) */\n  mload(0x40)\n    /* \"@openzeppelin/contracts/access/Ownable.sol\":2525:2531  _owner */\n  swap2\n  and\n  swap2\n    /* \"@openzeppelin/contracts/access/Ownable.sol\":2541:2558  _owner = newOwner */\n  swap1\n    /* \"@openzeppelin/contracts/access/Ownable.sol\":2525:2531  _owner */\n  dup3\n  swap1\n    /* \"@openzeppelin/contracts/access/Ownable.sol\":2573:2613  OwnershipTransferred(oldOwner, newOwner) */\n  0x8be0079c531659141344cd1fd0a4f28419497f9722a3daafe3b4186f6b6457e0\n  swap1\n    /* \"@openzeppelin/contracts/access/Ownable.sol\":2506:2522  address oldOwner */\n  0x00\n  swap1\n    /* \"@openzeppelin/contracts/access/Ownable.sol\":2573:2613  OwnershipTransferred(oldOwner, newOwner) */\n  log3\n    /* \"@openzeppelin/contracts/access/Ownable.sol\":2496:2620  {... */\n  pop\n    /* \"@openzeppelin/contracts/access/Ownable.sol\":2433:2620  function _transferOwnership(address newOwner) internal virtual {... */\n  pop\n  jump\t// out\n    /* \"@openzeppelin/contracts/token/ERC20/ERC20.sol\":8402:8791  function _mint(address account, uint256 amount) internal virtual {... */\ntag_24:\n  sub(shl(0xa0, 0x01), 0x01)\n    /* \"@openzeppelin/contracts/token/ERC20/ERC20.sol\":8485:8506  account != address(0) */\n  dup3\n  and\n    /* \"@openzeppelin/contracts/token/ERC20/ERC20.sol\":8477:8542  require(account != address(0), \"ERC20: mint to the zero address\") */\n  tag_30\n  jumpi\n  mload(0x40)\n  shl(0xe5, 0x461bcd)\n  dup2\n  mstore\n    /* \"#utility.yul\":1904:1906   */\n  0x20\n    /* \"@openzeppelin/contracts/token/ERC20/ERC20.sol\":8477:8542  require(account != address(0), \"ERC20: mint to the zero address\") */\n  0x04\n  dup3\n  add\n    /* \"#utility.yul\":1886:1907   */\n  mstore\n    /* \"#utility.yul\":1943:1945   */\n  0x1f\n    /* \"#utility.yul\":1923:1941   */\n  0x24\n  dup3\n  add\n    /* \"#utility.yul\":1916:1946   */\n  mstore\n    /* \"#utility.yul\":1982:2015   */\n  0x45524332303a206d696e7420746f20746865207a65726f206164647265737300\n    /* \"#utility.yul\":1962:1980   */\n  0x44\n  dup3\n  add\n    /* \"#utility.yul\":1955:2016   */\n  mstore\n    /* \"#utility.yul\":2033:2051   */\n  0x64\n  add\n    /* \"@openzeppelin/contracts/token/ERC20/ERC20.sol\":8477:8542  require(account != address(0), \"ERC20: mint to the zero address\") */\n  mload(0x40)\n  dup1\n  swap2\n  sub\n  swap1\n  revert\ntag_30:\n    /* \"@openzeppelin/contracts/token/ERC20/ERC20.sol\":8629:8635  amount */\n  dup1\n    /* \"@openzeppelin/contracts/token/ERC20/ERC20.sol\":8613:8625  _totalSupply */\n  0x02\n  0x00\n    /* \"@openzeppelin/contracts/token/ERC20/ERC20.sol\":8613:8635  _totalSupply += amount */\n  dup3\n  dup3\n  sload\n  tag_35\n  swap2\n  swap1\n  tag_36\n  jump\t// in\ntag_35:\n  swap1\n  swap2\n  sstore\n  pop\n  pop\n  sub(shl(0xa0, 0x01), 0x01)\n    /* \"@openzeppelin/contracts/token/ERC20/ERC20.sol\":8645:8663  _balances[account] */\n  dup3\n  and\n    /* \"@openzeppelin/contracts/token/ERC20/ERC20.sol\":8645:8654  _balances */\n  0x00\n    /* \"@openzeppelin/contracts/token/ERC20/ERC20.sol\":8645:8663  _balances[account] */\n  swap1\n  dup2\n  mstore\n  0x20\n  dup2\n  swap1\n  mstore\n  0x40\n  dup2\n  keccak256\n    /* \"@openzeppelin/contracts/token/ERC20/ERC20.sol\":8645:8673  _balances[account] += amount */\n  dup1\n  sload\n    /* \"@openzeppelin/contracts/token/ERC20/ERC20.sol\":8667:8673  amount */\n  dup4\n  swap3\n    /* \"@openzeppelin/contracts/token/ERC20/ERC20.sol\":8645:8654  _balances */\n  swap1\n    /* \"@openzeppelin/contracts/token/ERC20/ERC20.sol\":8645:8673  _balances[account] += amount */\n  tag_37\n  swap1\n    /* \"@openzeppelin/contracts/token/ERC20/ERC20.sol\":8667:8673  amount */\n  dup5\n  swap1\n    /* \"@openzeppelin/contracts/token/ERC20/ERC20.sol\":8645:8673  _balances[account] += amount */\n  tag_36\n  jump\t// in\ntag_37:\n  swap1\n  swap2\n  sstore\n  pop\n  pop\n    /* \"@openzeppelin/contracts/token/ERC20/ERC20.sol\":8688:8725  Transfer(address(0), account, amount) */\n  mload(0x40)\n    /* \"#utility.yul\":2341:2366   */\n  dup2\n  dup2\n  mstore\n  sub(shl(0xa0, 0x01), 0x01)\n    /* \"@openzeppelin/contracts/token/ERC20/ERC20.sol\":8688:8725  Transfer(address(0), account, amount) */\n  dup4\n  and\n  swap1\n    /* \"@openzeppelin/contracts/token/ERC20/ERC20.sol\":8705:8706  0 */\n  0x00\n  swap1\n    /* \"@openzeppelin/contracts/token/ERC20/ERC20.sol\":8688:8725  Transfer(address(0), account, amount) */\n  0xddf252ad1be2c89b69c2b068fc378daa952ba7f163c4a11628f55a4df523b3ef\n  swap1\n    /* \"#utility.yul\":2329:2331   */\n  0x20\n    /* \"#utility.yul\":2314:2332   */\n  add\n    /* \"@openzeppelin/contracts/token/ERC20/ERC20.sol\":8688:8725  Transfer(address(0), account, amount) */\n  mload(0x40)\n  dup1\n  swap2\n  sub\n  swap1\n  log3\n    /* \"@openzeppelin/contracts/token/ERC20/ERC20.sol\":8402:8791  function _mint(address account, uint256 amount) internal virtual {... */\n  pop\n  pop\n  jump\t// out\n    /* \"contracts/final/GMD.sol\":365:4431  contract GMD is ERC20(\"GMD\", \"GMD\"), Ownable , ReentrancyGuard{ ... */\ntag_8:\n  dup3\n  dup1\n  sload\n  tag_44\n  swap1\n  tag_45\n  jump\t// in\ntag_44:\n  swap1\n  0x00\n  mstore\n  keccak256(0x00, 0x20)\n  swap1\n  0x1f\n  add\n  0x20\n  swap1\n  div\n  dup2\n  add\n  swap3\n  dup3\n  tag_47\n  jumpi\n  0x00\n  dup6\n  sstore\n  jump(tag_50)\ntag_47:\n  dup3\n  0x1f\n  lt\n  tag_48\n  jumpi\n  dup1\n  mload\n  not(0xff)\n  and\n  dup4\n  dup1\n  add\n  or\n  dup6\n  sstore\n  jump(tag_50)\ntag_48:\n  dup3\n  dup1\n  add\n  0x01\n  add\n  dup6\n  sstore\n  dup3\n  iszero\n  tag_50\n  jumpi\n  swap2\n  dup3\n  add\ntag_49:\n  dup3\n  dup2\n  gt\n  iszero\n  tag_50\n  jumpi\n  dup3\n  mload\n  dup3\n  sstore\n  swap2\n  0x20\n  add\n  swap2\n  swap1\n  0x01\n  add\n  swap1\n  jump(tag_49)\ntag_50:\n  pop\n  tag_51\n  swap3\n  swap2\n  pop\n  tag_52\n  jump\t// in\ntag_51:\n  pop\n  swap1\n  jump\t// out\ntag_52:\ntag_53:\n  dup1\n  dup3\n  gt\n  iszero\n  tag_51\n  jumpi\n  0x00\n  dup2\n  sstore\n  0x01\n  add\n  jump(tag_53)\n    /* \"#utility.yul\":14:141   */\ntag_55:\n    /* \"#utility.yul\":75:85   */\n  0x4e487b71\n    /* \"#utility.yul\":70:73   */\n  0xe0\n    /* \"#utility.yul\":66:86   */\n  shl\n    /* \"#utility.yul\":63:64   */\n  0x00\n    /* \"#utility.yul\":56:87   */\n  mstore\n    /* \"#utility.yul\":106:110   */\n  0x11\n    /* \"#utility.yul\":103:104   */\n  0x04\n    /* \"#utility.yul\":96:111   */\n  mstore\n    /* \"#utility.yul\":130:134   */\n  0x24\n    /* \"#utility.yul\":127:128   */\n  0x00\n    /* \"#utility.yul\":120:135   */\n  revert\n    /* \"#utility.yul\":146:568   */\ntag_56:\n    /* \"#utility.yul\":235:236   */\n  0x01\n    /* \"#utility.yul\":278:283   */\n  dup2\n    /* \"#utility.yul\":235:236   */\n  dup2\n    /* \"#utility.yul\":292:562   */\ntag_61:\n    /* \"#utility.yul\":313:320   */\n  dup1\n    /* \"#utility.yul\":303:311   */\n  dup6\n    /* \"#utility.yul\":300:321   */\n  gt\n    /* \"#utility.yul\":292:562   */\n  iszero\n  tag_63\n  jumpi\n    /* \"#utility.yul\":372:376   */\n  dup2\n    /* \"#utility.yul\":368:369   */\n  0x00\n    /* \"#utility.yul\":364:370   */\n  not\n    /* \"#utility.yul\":360:377   */\n  div\n    /* \"#utility.yul\":354:358   */\n  dup3\n    /* \"#utility.yul\":351:378   */\n  gt\n    /* \"#utility.yul\":348:401   */\n  iszero\n  tag_65\n  jumpi\n    /* \"#utility.yul\":381:399   */\n  tag_65\n  tag_55\n  jump\t// in\ntag_65:\n    /* \"#utility.yul\":431:438   */\n  dup1\n    /* \"#utility.yul\":421:429   */\n  dup6\n    /* \"#utility.yul\":417:439   */\n  and\n    /* \"#utility.yul\":414:469   */\n  iszero\n  tag_66\n  jumpi\n    /* \"#utility.yul\":451:467   */\n  swap2\n  dup2\n  mul\n  swap2\n    /* \"#utility.yul\":414:469   */\ntag_66:\n    /* \"#utility.yul\":530:552   */\n  swap4\n  dup5\n  shr\n  swap4\n    /* \"#utility.yul\":490:505   */\n  swap1\n  dup1\n  mul\n  swap1\n    /* \"#utility.yul\":292:562   */\n  jump(tag_61)\ntag_63:\n    /* \"#utility.yul\":296:299   */\n  pop\n    /* \"#utility.yul\":146:568   */\n  swap3\n  pop\n  swap3\n  swap1\n  pop\n  jump\t// out\n    /* \"#utility.yul\":573:1379   */\ntag_57:\n    /* \"#utility.yul\":622:627   */\n  0x00\n    /* \"#utility.yul\":652:660   */\n  dup3\n    /* \"#utility.yul\":642:722   */\n  tag_68\n  jumpi\n  pop\n    /* \"#utility.yul\":693:694   */\n  0x01\n    /* \"#utility.yul\":707:712   */\n  jump(tag_67)\n    /* \"#utility.yul\":642:722   */\ntag_68:\n    /* \"#utility.yul\":741:745   */\n  dup2\n    /* \"#utility.yul\":731:807   */\n  tag_69\n  jumpi\n  pop\n    /* \"#utility.yul\":778:779   */\n  0x00\n    /* \"#utility.yul\":792:797   */\n  jump(tag_67)\n    /* \"#utility.yul\":731:807   */\ntag_69:\n    /* \"#utility.yul\":823:827   */\n  dup2\n    /* \"#utility.yul\":841:842   */\n  0x01\n    /* \"#utility.yul\":836:895   */\n  dup2\n  eq\n  tag_71\n  jumpi\n    /* \"#utility.yul\":909:910   */\n  0x02\n    /* \"#utility.yul\":904:1034   */\n  dup2\n  eq\n  tag_72\n  jumpi\n    /* \"#utility.yul\":816:1034   */\n  jump(tag_70)\n    /* \"#utility.yul\":836:895   */\ntag_71:\n    /* \"#utility.yul\":866:867   */\n  0x01\n    /* \"#utility.yul\":857:867   */\n  swap2\n  pop\n    /* \"#utility.yul\":880:885   */\n  pop\n  jump(tag_67)\n    /* \"#utility.yul\":904:1034   */\ntag_72:\n    /* \"#utility.yul\":941:944   */\n  0xff\n    /* \"#utility.yul\":931:939   */\n  dup5\n    /* \"#utility.yul\":928:945   */\n  gt\n    /* \"#utility.yul\":925:968   */\n  iszero\n  tag_74\n  jumpi\n    /* \"#utility.yul\":948:966   */\n  tag_74\n  tag_55\n  jump\t// in\ntag_74:\n  pop\n  pop\n    /* \"#utility.yul\":1004:1005   */\n  0x01\n    /* \"#utility.yul\":990:1006   */\n  dup3\n  shl\n    /* \"#utility.yul\":1019:1024   */\n  jump(tag_67)\n    /* \"#utility.yul\":816:1034   */\ntag_70:\n  pop\n    /* \"#utility.yul\":1118:1120   */\n  0x20\n    /* \"#utility.yul\":1108:1116   */\n  dup4\n    /* \"#utility.yul\":1105:1121   */\n  lt\n    /* \"#utility.yul\":1099:1102   */\n  0x0133\n    /* \"#utility.yul\":1093:1097   */\n  dup4\n    /* \"#utility.yul\":1090:1103   */\n  lt\n    /* \"#utility.yul\":1086:1122   */\n  and\n    /* \"#utility.yul\":1080:1082   */\n  0x4e\n    /* \"#utility.yul\":1070:1078   */\n  dup5\n    /* \"#utility.yul\":1067:1083   */\n  lt\n    /* \"#utility.yul\":1062:1064   */\n  0x0b\n    /* \"#utility.yul\":1056:1060   */\n  dup5\n    /* \"#utility.yul\":1053:1065   */\n  lt\n    /* \"#utility.yul\":1049:1084   */\n  and\n    /* \"#utility.yul\":1046:1123   */\n  or\n    /* \"#utility.yul\":1043:1202   */\n  iszero\n  tag_75\n  jumpi\n  pop\n    /* \"#utility.yul\":1155:1174   */\n  dup2\n  dup2\n  exp\n    /* \"#utility.yul\":1187:1192   */\n  jump(tag_67)\n    /* \"#utility.yul\":1043:1202   */\ntag_75:\n    /* \"#utility.yul\":1234:1268   */\n  tag_76\n    /* \"#utility.yul\":1259:1267   */\n  dup4\n    /* \"#utility.yul\":1253:1257   */\n  dup4\n    /* \"#utility.yul\":1234:1268   */\n  tag_56\n  jump\t// in\ntag_76:\n    /* \"#utility.yul\":1304:1310   */\n  dup1\n    /* \"#utility.yul\":1300:1301   */\n  0x00\n    /* \"#utility.yul\":1296:1302   */\n  not\n    /* \"#utility.yul\":1292:1311   */\n  div\n    /* \"#utility.yul\":1283:1290   */\n  dup3\n    /* \"#utility.yul\":1280:1312   */\n  gt\n    /* \"#utility.yul\":1277:1335   */\n  iszero\n  tag_78\n  jumpi\n    /* \"#utility.yul\":1315:1333   */\n  tag_78\n  tag_55\n  jump\t// in\ntag_78:\n    /* \"#utility.yul\":1353:1373   */\n  mul\n  swap1\n  pop\n    /* \"#utility.yul\":573:1379   */\ntag_67:\n  swap3\n  swap2\n  pop\n  pop\n  jump\t// out\n    /* \"#utility.yul\":1384:1524   */\ntag_21:\n    /* \"#utility.yul\":1442:1447   */\n  0x00\n    /* \"#utility.yul\":1471:1518   */\n  tag_80\n    /* \"#utility.yul\":1512:1516   */\n  0xff\n    /* \"#utility.yul\":1502:1510   */\n  dup5\n    /* \"#utility.yul\":1498:1517   */\n  and\n    /* \"#utility.yul\":1492:1496   */\n  dup4\n    /* \"#utility.yul\":1471:1518   */\n  tag_57\n  jump\t// in\ntag_80:\n    /* \"#utility.yul\":1462:1518   */\n  swap4\n    /* \"#utility.yul\":1384:1524   */\n  swap3\n  pop\n  pop\n  pop\n  jump\t// out\n    /* \"#utility.yul\":1529:1697   */\ntag_23:\n    /* \"#utility.yul\":1569:1576   */\n  0x00\n    /* \"#utility.yul\":1635:1636   */\n  dup2\n    /* \"#utility.yul\":1631:1632   */\n  0x00\n    /* \"#utility.yul\":1627:1633   */\n  not\n    /* \"#utility.yul\":1623:1637   */\n  div\n    /* \"#utility.yul\":1620:1621   */\n  dup4\n    /* \"#utility.yul\":1617:1638   */\n  gt\n    /* \"#utility.yul\":1612:1613   */\n  dup3\n    /* \"#utility.yul\":1605:1614   */\n  iszero\n    /* \"#utility.yul\":1598:1615   */\n  iszero\n    /* \"#utility.yul\":1594:1639   */\n  and\n    /* \"#utility.yul\":1591:1662   */\n  iszero\n  tag_83\n  jumpi\n    /* \"#utility.yul\":1642:1660   */\n  tag_83\n  tag_55\n  jump\t// in\ntag_83:\n  pop\n    /* \"#utility.yul\":1682:1691   */\n  mul\n  swap1\n    /* \"#utility.yul\":1529:1697   */\n  jump\t// out\n    /* \"#utility.yul\":2062:2190   */\ntag_36:\n    /* \"#utility.yul\":2102:2105   */\n  0x00\n    /* \"#utility.yul\":2133:2134   */\n  dup3\n    /* \"#utility.yul\":2129:2135   */\n  not\n    /* \"#utility.yul\":2126:2127   */\n  dup3\n    /* \"#utility.yul\":2123:2136   */\n  gt\n    /* \"#utility.yul\":2120:2159   */\n  iszero\n  tag_87\n  jumpi\n    /* \"#utility.yul\":2139:2157   */\n  tag_87\n  tag_55\n  jump\t// in\ntag_87:\n  pop\n    /* \"#utility.yul\":2175:2184   */\n  add\n  swap1\n    /* \"#utility.yul\":2062:2190   */\n  jump\t// out\n    /* \"#utility.yul\":2377:2757   */\ntag_45:\n    /* \"#utility.yul\":2456:2457   */\n  0x01\n    /* \"#utility.yul\":2452:2464   */\n  dup2\n  dup2\n  shr\n  swap1\n    /* \"#utility.yul\":2499:2511   */\n  dup3\n  and\n  dup1\n    /* \"#utility.yul\":2520:2581   */\n  tag_90\n  jumpi\n    /* \"#utility.yul\":2574:2578   */\n  0x7f\n    /* \"#utility.yul\":2566:2572   */\n  dup3\n    /* \"#utility.yul\":2562:2579   */\n  and\n    /* \"#utility.yul\":2552:2579   */\n  swap2\n  pop\n    /* \"#utility.yul\":2520:2581   */\ntag_90:\n    /* \"#utility.yul\":2627:2629   */\n  0x20\n    /* \"#utility.yul\":2619:2625   */\n  dup3\n    /* \"#utility.yul\":2616:2630   */\n  lt\n    /* \"#utility.yul\":2596:2614   */\n  dup2\n    /* \"#utility.yul\":2593:2631   */\n  eq\n    /* \"#utility.yul\":2590:2751   */\n  iszero\n  tag_91\n  jumpi\n    /* \"#utility.yul\":2673:2683   */\n  0x4e487b71\n    /* \"#utility.yul\":2668:2671   */\n  0xe0\n    /* \"#utility.yul\":2664:2684   */\n  shl\n    /* \"#utility.yul\":2661:2662   */\n  0x00\n    /* \"#utility.yul\":2654:2685   */\n  mstore\n    /* \"#utility.yul\":2708:2712   */\n  0x22\n    /* \"#utility.yul\":2705:2706   */\n  0x04\n    /* \"#utility.yul\":2698:2713   */\n  mstore\n    /* \"#utility.yul\":2736:2740   */\n  0x24\n    /* \"#utility.yul\":2733:2734   */\n  0x00\n    /* \"#utility.yul\":2726:2741   */\n  revert\n    /* \"#utility.yul\":2590:2751   */\ntag_91:\n  pop\n    /* \"#utility.yul\":2377:2757   */\n  swap2\n  swap1\n  pop\n  jump\t// out\ntag_58:\n    /* \"contracts/final/GMD.sol\":365:4431  contract GMD is ERC20(\"GMD\", \"GMD\"), Ownable , ReentrancyGuard{ ... */\n  dataSize(sub_0)\n  dup1\n  dataOffset(sub_0)\n  0x00\n  codecopy\n  0x00\n  return\nstop\n\nsub_0: assembly {\n        /* \"contracts/final/GMD.sol\":365:4431  contract GMD is ERC20(\"GMD\", \"GMD\"), Ownable , ReentrancyGuard{ ... */\n      mstore(0x40, 0x80)\n      callvalue\n      dup1\n      iszero\n      tag_1\n      jumpi\n      0x00\n      dup1\n      revert\n    tag_1:\n      pop\n      jumpi(tag_2, lt(calldatasize, 0x04))\n      shr(0xe0, calldataload(0x00))\n      dup1\n      0x70a08231\n      gt\n      tag_34\n      jumpi\n      dup1\n      0xa0712d68\n      gt\n      tag_35\n      jumpi\n      dup1\n      0xe2af30f4\n      gt\n      tag_36\n      jumpi\n      dup1\n      0xe2af30f4\n      eq\n      tag_30\n      jumpi\n      dup1\n      0xe2e5c15c\n      eq\n      tag_31\n      jumpi\n      dup1\n      0xf2fde38b\n      eq\n      tag_32\n      jumpi\n      dup1\n      0xf4a0a528\n      eq\n      tag_33\n      jumpi\n      0x00\n      dup1\n      revert\n    tag_36:\n      dup1\n      0xa0712d68\n      eq\n      tag_26\n      jumpi\n      dup1\n      0xa457c2d7\n      eq\n      tag_27\n      jumpi\n      dup1\n      0xa9059cbb\n      eq\n      tag_28\n      jumpi\n      dup1\n      0xdd62ed3e\n      eq\n      tag_29\n      jumpi\n      0x00\n      dup1\n      revert\n    tag_35:\n      dup1\n      0x84d24226\n      gt\n      tag_37\n      jumpi\n      dup1\n      0x84d24226\n      eq\n      tag_22\n      jumpi\n      dup1\n      0x89a30271\n      eq\n      tag_23\n      jumpi\n      dup1\n      0x8da5cb5b\n      eq\n      tag_24\n      jumpi\n      dup1\n      0x95d89b41\n      eq\n      tag_25\n      jumpi\n      0x00\n      dup1\n      revert\n    tag_37:\n      dup1\n      0x70a08231\n      eq\n      tag_18\n      jumpi\n      dup1\n      0x715018a6\n      eq\n      tag_19\n      jumpi\n      dup1\n      0x7313ee5a\n      eq\n      tag_20\n      jumpi\n      dup1\n      0x76c71ca1\n      eq\n      tag_21\n      jumpi\n      0x00\n      dup1\n      revert\n    tag_34:\n      dup1\n      0x313ce567\n      gt\n      tag_38\n      jumpi\n      dup1\n      0x42966c68\n      gt\n      tag_39\n      jumpi\n      dup1\n      0x42966c68\n      eq\n      tag_14\n      jumpi\n      dup1\n      0x4e274514\n      eq\n      tag_15\n      jumpi\n      dup1\n      0x4e71d92d\n      eq\n      tag_16\n      jumpi\n      dup1\n      0x6817c76c\n      eq\n      tag_17\n      jumpi\n      0x00\n      dup1\n      revert\n    tag_39:\n      dup1\n      0x313ce567\n      eq\n      tag_10\n      jumpi\n      dup1\n      0x39509351\n      eq\n      tag_11\n      jumpi\n      dup1\n      0x4070a0c9\n      eq\n      tag_12\n      jumpi\n      dup1\n      0x40bee0ed\n      eq\n      tag_13\n      jumpi\n      0x00\n      dup1\n      revert\n    tag_38:\n      dup1\n      0x1959a002\n      gt\n      tag_40\n      jumpi\n      dup1\n      0x1959a002\n      eq\n      tag_6\n      jumpi\n      dup1\n      0x20f203d9\n      eq\n      tag_7\n      jumpi\n      dup1\n      0x23b872dd\n      eq\n      tag_8\n      jumpi\n      dup1\n      0x24bbd049\n      eq\n      tag_9\n      jumpi\n      0x00\n      dup1\n      revert\n    tag_40:\n      dup1\n      0x06fdde03\n      eq\n      tag_3\n      jumpi\n      dup1\n      0x095ea7b3\n      eq\n      tag_4\n      jumpi\n      dup1\n      0x18160ddd\n      eq\n      tag_5\n      jumpi\n    tag_2:\n      0x00\n      dup1\n      revert\n        /* \"@openzeppelin/contracts/token/ERC20/ERC20.sol\":2156:2254  function name() public view virtual override returns (string memory) {... */\n    tag_3:\n      tag_41\n      tag_42\n      jump\t// in\n    tag_41:\n      mload(0x40)\n      tag_43\n      swap2\n      swap1\n      tag_44\n      jump\t// in\n    tag_43:\n      mload(0x40)\n      dup1\n      swap2\n      sub\n      swap1\n      return\n        /* \"@openzeppelin/contracts/token/ERC20/ERC20.sol\":4433:4630  function approve(address spender, uint256 amount) public virtual override returns (bool) {... */\n    tag_4:\n      tag_45\n      tag_46\n      calldatasize\n      0x04\n      tag_47\n      jump\t// in\n    tag_46:\n      tag_48\n      jump\t// in\n    tag_45:\n      mload(0x40)\n        /* \"#utility.yul\":1267:1281   */\n      swap1\n      iszero\n        /* \"#utility.yul\":1260:1282   */\n      iszero\n        /* \"#utility.yul\":1242:1283   */\n      dup2\n      mstore\n        /* \"#utility.yul\":1230:1232   */\n      0x20\n        /* \"#utility.yul\":1215:1233   */\n      add\n        /* \"@openzeppelin/contracts/token/ERC20/ERC20.sol\":4433:4630  function approve(address spender, uint256 amount) public virtual override returns (bool) {... */\n      tag_43\n        /* \"#utility.yul\":1102:1289   */\n      jump\n        /* \"@openzeppelin/contracts/token/ERC20/ERC20.sol\":3244:3350  function totalSupply() public view virtual override returns (uint256) {... */\n    tag_5:\n        /* \"@openzeppelin/contracts/token/ERC20/ERC20.sol\":3331:3343  _totalSupply */\n      sload(0x02)\n        /* \"@openzeppelin/contracts/token/ERC20/ERC20.sol\":3244:3350  function totalSupply() public view virtual override returns (uint256) {... */\n    tag_51:\n      mload(0x40)\n        /* \"#utility.yul\":1440:1465   */\n      swap1\n      dup2\n      mstore\n        /* \"#utility.yul\":1428:1430   */\n      0x20\n        /* \"#utility.yul\":1413:1431   */\n      add\n        /* \"@openzeppelin/contracts/token/ERC20/ERC20.sol\":3244:3350  function totalSupply() public view virtual override returns (uint256) {... */\n      tag_43\n        /* \"#utility.yul\":1294:1471   */\n      jump\n        /* \"contracts/final/GMD.sol\":717:761  mapping(address => UserInfo) public userInfo */\n    tag_6:\n      tag_55\n      tag_56\n      calldatasize\n      0x04\n      tag_57\n      jump\t// in\n    tag_56:\n      mstore(0x20, 0x07)\n      0x00\n      swap1\n      dup2\n      mstore\n      0x40\n      swap1\n      keccak256\n      dup1\n      sload\n      0x01\n      dup3\n      add\n      sload\n      0x02\n      swap1\n      swap3\n      add\n      sload\n      swap1\n      swap2\n      swap1\n      dup4\n      jump\n    tag_55:\n      0x40\n      dup1\n      mload\n        /* \"#utility.yul\":1869:1894   */\n      swap4\n      dup5\n      mstore\n        /* \"#utility.yul\":1925:1927   */\n      0x20\n        /* \"#utility.yul\":1910:1928   */\n      dup5\n      add\n        /* \"#utility.yul\":1903:1937   */\n      swap3\n      swap1\n      swap3\n      mstore\n        /* \"#utility.yul\":1953:1971   */\n      swap1\n      dup3\n      add\n        /* \"#utility.yul\":1946:1980   */\n      mstore\n        /* \"#utility.yul\":1857:1859   */\n      0x60\n        /* \"#utility.yul\":1842:1860   */\n      add\n        /* \"contracts/final/GMD.sol\":717:761  mapping(address => UserInfo) public userInfo */\n      tag_43\n        /* \"#utility.yul\":1667:1986   */\n      jump\n        /* \"contracts/final/GMD.sol\":4069:4426  function remainingVestedTime() external view returns(uint256){... */\n    tag_7:\n      tag_51\n      tag_62\n      jump\t// in\n        /* \"@openzeppelin/contracts/token/ERC20/ERC20.sol\":5192:5478  function transferFrom(... */\n    tag_8:\n      tag_45\n      tag_65\n      calldatasize\n      0x04\n      tag_66\n      jump\t// in\n    tag_65:\n      tag_67\n      jump\t// in\n        /* \"contracts/final/GMD.sol\":885:913  bool public mintOpen = false */\n    tag_9:\n      sload(0x0b)\n      tag_45\n      swap1\n      0xff\n      and\n      dup2\n      jump\n        /* \"@openzeppelin/contracts/token/ERC20/ERC20.sol\":3093:3184  function decimals() public view virtual override returns (uint8) {... */\n    tag_10:\n      mload(0x40)\n        /* \"@openzeppelin/contracts/token/ERC20/ERC20.sol\":3175:3177  18 */\n      0x12\n        /* \"#utility.yul\":2466:2502   */\n      dup2\n      mstore\n        /* \"#utility.yul\":2454:2456   */\n      0x20\n        /* \"#utility.yul\":2439:2457   */\n      add\n        /* \"@openzeppelin/contracts/token/ERC20/ERC20.sol\":3093:3184  function decimals() public view virtual override returns (uint8) {... */\n      tag_43\n        /* \"#utility.yul\":2324:2508   */\n      jump\n        /* \"@openzeppelin/contracts/token/ERC20/ERC20.sol\":5873:6107  function increaseAllowance(address spender, uint256 addedValue) public virtual returns (bool) {... */\n    tag_11:\n      tag_45\n      tag_77\n      calldatasize\n      0x04\n      tag_47\n      jump\t// in\n    tag_77:\n      tag_78\n      jump\t// in\n        /* \"contracts/final/GMD.sol\":1096:1190  function setMintCap(uint256 _mintCap) external onlyOwner {... */\n    tag_12:\n      tag_80\n      tag_81\n      calldatasize\n      0x04\n      tag_82\n      jump\t// in\n    tag_81:\n      tag_83\n      jump\t// in\n    tag_80:\n      stop\n        /* \"contracts/final/GMD.sol\":1390:1504  function setVestingPeriod(uint256 _period) external onlyOwner {... */\n    tag_13:\n      tag_80\n      tag_85\n      calldatasize\n      0x04\n      tag_82\n      jump\t// in\n    tag_85:\n      tag_86\n      jump\t// in\n        /* \"contracts/final/GMD.sol\":1002:1088  function burn(uint256 _amount) external  {... */\n    tag_14:\n      tag_80\n      tag_88\n      calldatasize\n      0x04\n      tag_82\n      jump\t// in\n    tag_88:\n      tag_89\n      jump\t// in\n        /* \"contracts/final/GMD.sol\":2111:2239  function recoverTreasuryTokens() external onlyOwner {... */\n    tag_15:\n      tag_80\n      tag_91\n      jump\t// in\n        /* \"contracts/final/GMD.sol\":3051:3921  function claim() external nonReentrant {... */\n    tag_16:\n      tag_80\n      tag_93\n      jump\t// in\n        /* \"contracts/final/GMD.sol\":770:801  uint256 public mintPrice = 1000 */\n    tag_17:\n      tag_51\n      sload(0x08)\n      dup2\n      jump\n        /* \"@openzeppelin/contracts/token/ERC20/ERC20.sol\":3408:3533  function balanceOf(address account) public view virtual override returns (uint256) {... */\n    tag_18:\n      tag_51\n      tag_98\n      calldatasize\n      0x04\n      tag_57\n      jump\t// in\n    tag_98:\n      sub(shl(0xa0, 0x01), 0x01)\n        /* \"@openzeppelin/contracts/token/ERC20/ERC20.sol\":3508:3526  _balances[account] */\n      and\n        /* \"@openzeppelin/contracts/token/ERC20/ERC20.sol\":3482:3489  uint256 */\n      0x00\n        /* \"@openzeppelin/contracts/token/ERC20/ERC20.sol\":3508:3526  _balances[account] */\n      swap1\n      dup2\n      mstore\n      0x20\n      dup2\n      swap1\n      mstore\n      0x40\n      swap1\n      keccak256\n      sload\n      swap1\n        /* \"@openzeppelin/contracts/token/ERC20/ERC20.sol\":3408:3533  function balanceOf(address account) public view virtual override returns (uint256) {... */\n      jump\n        /* \"@openzeppelin/contracts/access/Ownable.sol\":1831:1932  function renounceOwnership() public virtual onlyOwner {... */\n    tag_19:\n      tag_80\n      tag_102\n      jump\t// in\n        /* \"contracts/final/GMD.sol\":841:878  uint256 public vestingPeriod = 5 days */\n    tag_20:\n      tag_51\n      sload(0x0a)\n      dup2\n      jump\n        /* \"contracts/final/GMD.sol\":808:834  uint256 public mintCap = 0 */\n    tag_21:\n      tag_51\n      sload(0x09)\n      dup2\n      jump\n        /* \"contracts/final/GMD.sol\":1512:1998  function claimableTokens(address _address) external view returns(uint256) {... */\n    tag_22:\n      tag_51\n      tag_110\n      calldatasize\n      0x04\n      tag_57\n      jump\t// in\n    tag_110:\n      tag_111\n      jump\t// in\n        /* \"contracts/final/GMD.sol\":920:991  IERC20 public USDC = IERC20(0xFF970A61A04b1cA14834A43f5dE4533eBDDB5CC8) */\n    tag_23:\n      sload(0x0b)\n      tag_113\n      swap1\n      0x0100\n      swap1\n      div\n      sub(shl(0xa0, 0x01), 0x01)\n      and\n      dup2\n      jump\n    tag_113:\n      mload(0x40)\n      sub(shl(0xa0, 0x01), 0x01)\n        /* \"#utility.yul\":2876:2908   */\n      swap1\n      swap2\n      and\n        /* \"#utility.yul\":2858:2909   */\n      dup2\n      mstore\n        /* \"#utility.yul\":2846:2848   */\n      0x20\n        /* \"#utility.yul\":2831:2849   */\n      add\n        /* \"contracts/final/GMD.sol\":920:991  IERC20 public USDC = IERC20(0xFF970A61A04b1cA14834A43f5dE4533eBDDB5CC8) */\n      tag_43\n        /* \"#utility.yul\":2698:2915   */\n      jump\n        /* \"@openzeppelin/contracts/access/Ownable.sol\":1201:1286  function owner() public view virtual returns (address) {... */\n    tag_24:\n        /* \"@openzeppelin/contracts/access/Ownable.sol\":1273:1279  _owner */\n      and(sub(shl(0xa0, 0x01), 0x01), sload(0x05))\n        /* \"@openzeppelin/contracts/access/Ownable.sol\":1201:1286  function owner() public view virtual returns (address) {... */\n      jump(tag_113)\n        /* \"@openzeppelin/contracts/token/ERC20/ERC20.sol\":2367:2469  function symbol() public view virtual override returns (string memory) {... */\n    tag_25:\n      tag_41\n      tag_122\n      jump\t// in\n        /* \"contracts/final/GMD.sol\":2249:3043  function mint(uint256 _amount) external nonReentrant {... */\n    tag_26:\n      tag_80\n      tag_125\n      calldatasize\n      0x04\n      tag_82\n      jump\t// in\n    tag_125:\n      tag_126\n      jump\t// in\n        /* \"@openzeppelin/contracts/token/ERC20/ERC20.sol\":6594:7021  function decreaseAllowance(address spender, uint256 subtractedValue) public virtual returns (bool) {... */\n    tag_27:\n      tag_45\n      tag_128\n      calldatasize\n      0x04\n      tag_47\n      jump\t// in\n    tag_128:\n      tag_129\n      jump\t// in\n        /* \"@openzeppelin/contracts/token/ERC20/ERC20.sol\":3729:3918  function transfer(address to, uint256 amount) public virtual override returns (bool) {... */\n    tag_28:\n      tag_45\n      tag_132\n      calldatasize\n      0x04\n      tag_47\n      jump\t// in\n    tag_132:\n      tag_133\n      jump\t// in\n        /* \"@openzeppelin/contracts/token/ERC20/ERC20.sol\":3976:4125  function allowance(address owner, address spender) public view virtual override returns (uint256) {... */\n    tag_29:\n      tag_51\n      tag_136\n      calldatasize\n      0x04\n      tag_137\n      jump\t// in\n    tag_136:\n      tag_138\n      jump\t// in\n        /* \"contracts/final/GMD.sol\":2008:2103  function setOpenMint(bool _mintOpen) external onlyOwner {... */\n    tag_30:\n      tag_80\n      tag_141\n      calldatasize\n      0x04\n      tag_142\n      jump\t// in\n    tag_141:\n      tag_143\n      jump\t// in\n        /* \"contracts/final/GMD.sol\":3929:4061  function remainingMintableTokens() external view returns(uint256){... */\n    tag_31:\n      tag_51\n      tag_145\n      jump\t// in\n        /* \"@openzeppelin/contracts/access/Ownable.sol\":2081:2279  function transferOwnership(address newOwner) public virtual onlyOwner {... */\n    tag_32:\n      tag_80\n      tag_148\n      calldatasize\n      0x04\n      tag_57\n      jump\t// in\n    tag_148:\n      tag_149\n      jump\t// in\n        /* \"contracts/final/GMD.sol\":1204:1382  function setMintPrice(uint256 _mintPrice) external onlyOwner {... */\n    tag_33:\n      tag_80\n      tag_151\n      calldatasize\n      0x04\n      tag_82\n      jump\t// in\n    tag_151:\n      tag_152\n      jump\t// in\n        /* \"@openzeppelin/contracts/token/ERC20/ERC20.sol\":2156:2254  function name() public view virtual override returns (string memory) {... */\n    tag_42:\n        /* \"@openzeppelin/contracts/token/ERC20/ERC20.sol\":2210:2223  string memory */\n      0x60\n        /* \"@openzeppelin/contracts/token/ERC20/ERC20.sol\":2242:2247  _name */\n      0x03\n        /* \"@openzeppelin/contracts/token/ERC20/ERC20.sol\":2235:2247  return _name */\n      dup1\n      sload\n      tag_154\n      swap1\n      tag_155\n      jump\t// in\n    tag_154:\n      dup1\n      0x1f\n      add\n      0x20\n      dup1\n      swap2\n      div\n      mul\n      0x20\n      add\n      mload(0x40)\n      swap1\n      dup2\n      add\n      0x40\n      mstore\n      dup1\n      swap3\n      swap2\n      swap1\n      dup2\n      dup2\n      mstore\n      0x20\n      add\n      dup3\n      dup1\n      sload\n      tag_156\n      swap1\n      tag_155\n      jump\t// in\n    tag_156:\n      dup1\n      iszero\n      tag_157\n      jumpi\n      dup1\n      0x1f\n      lt\n      tag_158\n      jumpi\n      0x0100\n      dup1\n      dup4\n      sload\n      div\n      mul\n      dup4\n      mstore\n      swap2\n      0x20\n      add\n      swap2\n      jump(tag_157)\n    tag_158:\n      dup3\n      add\n      swap2\n      swap1\n      0x00\n      mstore\n      keccak256(0x00, 0x20)\n      swap1\n    tag_159:\n      dup2\n      sload\n      dup2\n      mstore\n      swap1\n      0x01\n      add\n      swap1\n      0x20\n      add\n      dup1\n      dup4\n      gt\n      tag_159\n      jumpi\n      dup3\n      swap1\n      sub\n      0x1f\n      and\n      dup3\n      add\n      swap2\n    tag_157:\n      pop\n      pop\n      pop\n      pop\n      pop\n      swap1\n      pop\n        /* \"@openzeppelin/contracts/token/ERC20/ERC20.sol\":2156:2254  function name() public view virtual override returns (string memory) {... */\n      swap1\n      jump\t// out\n        /* \"@openzeppelin/contracts/token/ERC20/ERC20.sol\":4433:4630  function approve(address spender, uint256 amount) public virtual override returns (bool) {... */\n    tag_48:\n        /* \"@openzeppelin/contracts/token/ERC20/ERC20.sol\":4516:4520  bool */\n      0x00\n        /* \"@openzeppelin/contracts/utils/Context.sol\":719:729  msg.sender */\n      caller\n        /* \"@openzeppelin/contracts/token/ERC20/ERC20.sol\":4570:4602  _approve(owner, spender, amount) */\n      tag_163\n        /* \"@openzeppelin/contracts/utils/Context.sol\":719:729  msg.sender */\n      dup2\n        /* \"@openzeppelin/contracts/token/ERC20/ERC20.sol\":4586:4593  spender */\n      dup6\n        /* \"@openzeppelin/contracts/token/ERC20/ERC20.sol\":4595:4601  amount */\n      dup6\n        /* \"@openzeppelin/contracts/token/ERC20/ERC20.sol\":4570:4578  _approve */\n      tag_164\n        /* \"@openzeppelin/contracts/token/ERC20/ERC20.sol\":4570:4602  _approve(owner, spender, amount) */\n      jump\t// in\n    tag_163:\n      pop\n        /* \"@openzeppelin/contracts/token/ERC20/ERC20.sol\":4619:4623  true */\n      0x01\n      swap4\n        /* \"@openzeppelin/contracts/token/ERC20/ERC20.sol\":4433:4630  function approve(address spender, uint256 amount) public virtual override returns (bool) {... */\n      swap3\n      pop\n      pop\n      pop\n      jump\t// out\n        /* \"contracts/final/GMD.sol\":4069:4426  function remainingVestedTime() external view returns(uint256){... */\n    tag_62:\n        /* \"contracts/final/GMD.sol\":4189:4199  msg.sender */\n      caller\n        /* \"contracts/final/GMD.sol\":4122:4129  uint256 */\n      0x00\n        /* \"contracts/final/GMD.sol\":4180:4200  userInfo[msg.sender] */\n      swap1\n      dup2\n      mstore\n        /* \"contracts/final/GMD.sol\":4180:4188  userInfo */\n      0x07\n        /* \"contracts/final/GMD.sol\":4180:4200  userInfo[msg.sender] */\n      0x20\n      mstore\n      0x40\n      dup2\n      keccak256\n        /* \"contracts/final/GMD.sol\":4180:4220  userInfo[msg.sender].lastInteractionTime */\n      0x01\n      add\n      sload\n        /* \"contracts/final/GMD.sol\":4122:4129  uint256 */\n      dup2\n      swap1\n        /* \"contracts/final/GMD.sol\":4160:4221  block.timestamp.sub(userInfo[msg.sender].lastInteractionTime) */\n      tag_167\n      swap1\n        /* \"contracts/final/GMD.sol\":4160:4175  block.timestamp */\n      timestamp\n      swap1\n        /* \"contracts/final/GMD.sol\":4160:4179  block.timestamp.sub */\n      tag_168\n        /* \"contracts/final/GMD.sol\":4160:4221  block.timestamp.sub(userInfo[msg.sender].lastInteractionTime) */\n      jump\t// in\n    tag_167:\n        /* \"contracts/final/GMD.sol\":4257:4267  msg.sender */\n      caller\n        /* \"contracts/final/GMD.sol\":4248:4268  userInfo[msg.sender] */\n      0x00\n      swap1\n      dup2\n      mstore\n        /* \"contracts/final/GMD.sol\":4248:4256  userInfo */\n      0x07\n        /* \"contracts/final/GMD.sol\":4248:4268  userInfo[msg.sender] */\n      0x20\n      mstore\n      0x40\n      swap1\n      keccak256\n        /* \"contracts/final/GMD.sol\":4248:4279  userInfo[msg.sender].VestPeriod */\n      0x02\n      add\n      sload\n        /* \"contracts/final/GMD.sol\":4141:4221  uint256 timePass = block.timestamp.sub(userInfo[msg.sender].lastInteractionTime) */\n      swap1\n      swap2\n      pop\n        /* \"contracts/final/GMD.sol\":4236:4279  timePass >= userInfo[msg.sender].VestPeriod */\n      dup2\n      lt\n        /* \"contracts/final/GMD.sol\":4232:4409  if (timePass >= userInfo[msg.sender].VestPeriod){... */\n      tag_169\n      jumpi\n        /* \"contracts/final/GMD.sol\":4302:4303  0 */\n      0x00\n        /* \"contracts/final/GMD.sol\":4295:4303  return 0 */\n      swap2\n      pop\n      pop\n        /* \"contracts/final/GMD.sol\":4069:4426  function remainingVestedTime() external view returns(uint256){... */\n      swap1\n      jump\t// out\n        /* \"contracts/final/GMD.sol\":4232:4409  if (timePass >= userInfo[msg.sender].VestPeriod){... */\n    tag_169:\n        /* \"contracts/final/GMD.sol\":4361:4371  msg.sender */\n      caller\n        /* \"contracts/final/GMD.sol\":4352:4372  userInfo[msg.sender] */\n      0x00\n      swap1\n      dup2\n      mstore\n        /* \"contracts/final/GMD.sol\":4352:4360  userInfo */\n      0x07\n        /* \"contracts/final/GMD.sol\":4352:4372  userInfo[msg.sender] */\n      0x20\n      mstore\n      0x40\n      swap1\n      keccak256\n        /* \"contracts/final/GMD.sol\":4352:4383  userInfo[msg.sender].VestPeriod */\n      0x02\n      add\n      sload\n        /* \"contracts/final/GMD.sol\":4352:4397  userInfo[msg.sender].VestPeriod.sub(timePass) */\n      tag_171\n      swap1\n        /* \"contracts/final/GMD.sol\":4388:4396  timePass */\n      dup3\n        /* \"contracts/final/GMD.sol\":4352:4387  userInfo[msg.sender].VestPeriod.sub */\n      tag_168\n        /* \"contracts/final/GMD.sol\":4352:4397  userInfo[msg.sender].VestPeriod.sub(timePass) */\n      jump\t// in\n    tag_171:\n        /* \"contracts/final/GMD.sol\":4345:4397  return userInfo[msg.sender].VestPeriod.sub(timePass) */\n      swap2\n      pop\n      pop\n        /* \"contracts/final/GMD.sol\":4069:4426  function remainingVestedTime() external view returns(uint256){... */\n      swap1\n      jump\t// out\n        /* \"@openzeppelin/contracts/token/ERC20/ERC20.sol\":5192:5478  function transferFrom(... */\n    tag_67:\n        /* \"@openzeppelin/contracts/token/ERC20/ERC20.sol\":5319:5323  bool */\n      0x00\n        /* \"@openzeppelin/contracts/utils/Context.sol\":719:729  msg.sender */\n      caller\n        /* \"@openzeppelin/contracts/token/ERC20/ERC20.sol\":5375:5413  _spendAllowance(from, spender, amount) */\n      tag_174\n        /* \"@openzeppelin/contracts/token/ERC20/ERC20.sol\":5391:5395  from */\n      dup6\n        /* \"@openzeppelin/contracts/utils/Context.sol\":719:729  msg.sender */\n      dup3\n        /* \"@openzeppelin/contracts/token/ERC20/ERC20.sol\":5406:5412  amount */\n      dup6\n        /* \"@openzeppelin/contracts/token/ERC20/ERC20.sol\":5375:5390  _spendAllowance */\n      tag_175\n        /* \"@openzeppelin/contracts/token/ERC20/ERC20.sol\":5375:5413  _spendAllowance(from, spender, amount) */\n      jump\t// in\n    tag_174:\n        /* \"@openzeppelin/contracts/token/ERC20/ERC20.sol\":5423:5450  _transfer(from, to, amount) */\n      tag_176\n        /* \"@openzeppelin/contracts/token/ERC20/ERC20.sol\":5433:5437  from */\n      dup6\n        /* \"@openzeppelin/contracts/token/ERC20/ERC20.sol\":5439:5441  to */\n      dup6\n        /* \"@openzeppelin/contracts/token/ERC20/ERC20.sol\":5443:5449  amount */\n      dup6\n        /* \"@openzeppelin/contracts/token/ERC20/ERC20.sol\":5423:5432  _transfer */\n      tag_177\n        /* \"@openzeppelin/contracts/token/ERC20/ERC20.sol\":5423:5450  _transfer(from, to, amount) */\n      jump\t// in\n    tag_176:\n        /* \"@openzeppelin/contracts/token/ERC20/ERC20.sol\":5467:5471  true */\n      0x01\n        /* \"@openzeppelin/contracts/token/ERC20/ERC20.sol\":5460:5471  return true */\n      swap2\n      pop\n      pop\n        /* \"@openzeppelin/contracts/token/ERC20/ERC20.sol\":5192:5478  function transferFrom(... */\n    tag_172:\n      swap4\n      swap3\n      pop\n      pop\n      pop\n      jump\t// out\n        /* \"@openzeppelin/contracts/token/ERC20/ERC20.sol\":5873:6107  function increaseAllowance(address spender, uint256 addedValue) public virtual returns (bool) {... */\n    tag_78:\n        /* \"@openzeppelin/contracts/token/ERC20/ERC20.sol\":5961:5965  bool */\n      0x00\n        /* \"@openzeppelin/contracts/utils/Context.sol\":719:729  msg.sender */\n      caller\n        /* \"@openzeppelin/contracts/token/ERC20/ERC20.sol\":6015:6079  _approve(owner, spender, allowance(owner, spender) + addedValue) */\n      tag_163\n        /* \"@openzeppelin/contracts/utils/Context.sol\":719:729  msg.sender */\n      dup2\n        /* \"@openzeppelin/contracts/token/ERC20/ERC20.sol\":6031:6038  spender */\n      dup6\n        /* \"@openzeppelin/contracts/token/ERC20/ERC20.sol\":6068:6078  addedValue */\n      dup6\n        /* \"@openzeppelin/contracts/token/ERC20/ERC20.sol\":6040:6065  allowance(owner, spender) */\n      tag_182\n        /* \"@openzeppelin/contracts/utils/Context.sol\":719:729  msg.sender */\n      dup4\n        /* \"@openzeppelin/contracts/token/ERC20/ERC20.sol\":6031:6038  spender */\n      dup4\n        /* \"@openzeppelin/contracts/token/ERC20/ERC20.sol\":6040:6049  allowance */\n      tag_138\n        /* \"@openzeppelin/contracts/token/ERC20/ERC20.sol\":6040:6065  allowance(owner, spender) */\n      jump\t// in\n    tag_182:\n        /* \"@openzeppelin/contracts/token/ERC20/ERC20.sol\":6040:6078  allowance(owner, spender) + addedValue */\n      tag_183\n      swap2\n      swap1\n      tag_184\n      jump\t// in\n    tag_183:\n        /* \"@openzeppelin/contracts/token/ERC20/ERC20.sol\":6015:6023  _approve */\n      tag_164\n        /* \"@openzeppelin/contracts/token/ERC20/ERC20.sol\":6015:6079  _approve(owner, spender, allowance(owner, spender) + addedValue) */\n      jump\t// in\n        /* \"contracts/final/GMD.sol\":1096:1190  function setMintCap(uint256 _mintCap) external onlyOwner {... */\n    tag_83:\n        /* \"@openzeppelin/contracts/access/Ownable.sol\":1094:1107  _checkOwner() */\n      tag_186\n        /* \"@openzeppelin/contracts/access/Ownable.sol\":1094:1105  _checkOwner */\n      tag_187\n        /* \"@openzeppelin/contracts/access/Ownable.sol\":1094:1107  _checkOwner() */\n      jump\t// in\n    tag_186:\n        /* \"contracts/final/GMD.sol\":1164:1171  mintCap */\n      0x09\n        /* \"contracts/final/GMD.sol\":1164:1182  mintCap = _mintCap */\n      sstore\n        /* \"contracts/final/GMD.sol\":1096:1190  function setMintCap(uint256 _mintCap) external onlyOwner {... */\n      jump\t// out\n        /* \"contracts/final/GMD.sol\":1390:1504  function setVestingPeriod(uint256 _period) external onlyOwner {... */\n    tag_86:\n        /* \"@openzeppelin/contracts/access/Ownable.sol\":1094:1107  _checkOwner() */\n      tag_190\n        /* \"@openzeppelin/contracts/access/Ownable.sol\":1094:1105  _checkOwner */\n      tag_187\n        /* \"@openzeppelin/contracts/access/Ownable.sol\":1094:1107  _checkOwner() */\n      jump\t// in\n    tag_190:\n        /* \"contracts/final/GMD.sol\":1473:1486  vestingPeriod */\n      0x0a\n        /* \"contracts/final/GMD.sol\":1473:1496  vestingPeriod = _period */\n      sstore\n        /* \"contracts/final/GMD.sol\":1390:1504  function setVestingPeriod(uint256 _period) external onlyOwner {... */\n      jump\t// out\n        /* \"contracts/final/GMD.sol\":1002:1088  function burn(uint256 _amount) external  {... */\n    tag_89:\n        /* \"contracts/final/GMD.sol\":1054:1080  _burn(msg.sender, _amount) */\n      tag_193\n        /* \"contracts/final/GMD.sol\":1060:1070  msg.sender */\n      caller\n        /* \"contracts/final/GMD.sol\":1072:1079  _amount */\n      dup3\n        /* \"contracts/final/GMD.sol\":1054:1059  _burn */\n      tag_194\n        /* \"contracts/final/GMD.sol\":1054:1080  _burn(msg.sender, _amount) */\n      jump\t// in\n    tag_193:\n        /* \"contracts/final/GMD.sol\":1002:1088  function burn(uint256 _amount) external  {... */\n      pop\n      jump\t// out\n        /* \"contracts/final/GMD.sol\":2111:2239  function recoverTreasuryTokens() external onlyOwner {... */\n    tag_91:\n        /* \"@openzeppelin/contracts/access/Ownable.sol\":1094:1107  _checkOwner() */\n      tag_196\n        /* \"@openzeppelin/contracts/access/Ownable.sol\":1094:1105  _checkOwner */\n      tag_187\n        /* \"@openzeppelin/contracts/access/Ownable.sol\":1094:1107  _checkOwner() */\n      jump\t// in\n    tag_196:\n        /* \"contracts/final/GMD.sol\":2174:2231  USDC.safeTransfer(owner(), USDC.balanceOf(address(this))) */\n      tag_198\n        /* \"contracts/final/GMD.sol\":2192:2199  owner() */\n      tag_199\n        /* \"@openzeppelin/contracts/access/Ownable.sol\":1273:1279  _owner */\n      and(sub(shl(0xa0, 0x01), 0x01), sload(0x05))\n      swap1\n        /* \"@openzeppelin/contracts/access/Ownable.sol\":1201:1286  function owner() public view virtual returns (address) {... */\n      jump\n        /* \"contracts/final/GMD.sol\":2192:2199  owner() */\n    tag_199:\n        /* \"contracts/final/GMD.sol\":2201:2205  USDC */\n      sload(0x0b)\n        /* \"contracts/final/GMD.sol\":2201:2230  USDC.balanceOf(address(this)) */\n      mload(0x40)\n      shl(0xe0, 0x70a08231)\n      dup2\n      mstore\n        /* \"contracts/final/GMD.sol\":2224:2228  this */\n      address\n        /* \"contracts/final/GMD.sol\":2201:2230  USDC.balanceOf(address(this)) */\n      0x04\n      dup3\n      add\n        /* \"#utility.yul\":2858:2909   */\n      mstore\n        /* \"contracts/final/GMD.sol\":2201:2205  USDC */\n      0x0100\n      swap1\n      swap2\n      div\n      sub(shl(0xa0, 0x01), 0x01)\n      and\n      swap1\n        /* \"contracts/final/GMD.sol\":2201:2215  USDC.balanceOf */\n      0x70a08231\n      swap1\n        /* \"#utility.yul\":2831:2849   */\n      0x24\n      add\n        /* \"contracts/final/GMD.sol\":2201:2230  USDC.balanceOf(address(this)) */\n      0x20\n      mload(0x40)\n      dup1\n      dup4\n      sub\n      dup2\n      dup7\n      gas\n      staticcall\n      iszero\n      dup1\n      iszero\n      tag_202\n      jumpi\n      returndatasize\n      0x00\n      dup1\n      returndatacopy\n      revert(0x00, returndatasize)\n    tag_202:\n      pop\n      pop\n      pop\n      pop\n      mload(0x40)\n      returndatasize\n      not(0x1f)\n      0x1f\n      dup3\n      add\n      and\n      dup3\n      add\n      dup1\n      0x40\n      mstore\n      pop\n      dup2\n      add\n      swap1\n      tag_203\n      swap2\n      swap1\n      tag_204\n      jump\t// in\n    tag_203:\n        /* \"contracts/final/GMD.sol\":2174:2178  USDC */\n      sload(0x0b)\n      0x0100\n      swap1\n      div\n      sub(shl(0xa0, 0x01), 0x01)\n      and\n      swap2\n      swap1\n        /* \"contracts/final/GMD.sol\":2174:2191  USDC.safeTransfer */\n      tag_205\n        /* \"contracts/final/GMD.sol\":2174:2231  USDC.safeTransfer(owner(), USDC.balanceOf(address(this))) */\n      jump\t// in\n    tag_198:\n        /* \"contracts/final/GMD.sol\":2111:2239  function recoverTreasuryTokens() external onlyOwner {... */\n      jump\t// out\n        /* \"contracts/final/GMD.sol\":3051:3921  function claim() external nonReentrant {... */\n    tag_93:\n        /* \"@openzeppelin/contracts/security/ReentrancyGuard.sol\":1744:1745  2 */\n      0x02\n        /* \"@openzeppelin/contracts/security/ReentrancyGuard.sol\":2325:2332  _status */\n      sload(0x06)\n        /* \"@openzeppelin/contracts/security/ReentrancyGuard.sol\":2325:2344  _status != _ENTERED */\n      eq\n      iszero\n        /* \"@openzeppelin/contracts/security/ReentrancyGuard.sol\":2317:2380  require(_status != _ENTERED, \"ReentrancyGuard: reentrant call\") */\n      tag_207\n      jumpi\n      mload(0x40)\n      shl(0xe5, 0x461bcd)\n      dup2\n      mstore\n        /* \"#utility.yul\":4803:4805   */\n      0x20\n        /* \"@openzeppelin/contracts/security/ReentrancyGuard.sol\":2317:2380  require(_status != _ENTERED, \"ReentrancyGuard: reentrant call\") */\n      0x04\n      dup3\n      add\n        /* \"#utility.yul\":4785:4806   */\n      mstore\n        /* \"#utility.yul\":4842:4844   */\n      0x1f\n        /* \"#utility.yul\":4822:4840   */\n      0x24\n      dup3\n      add\n        /* \"#utility.yul\":4815:4845   */\n      mstore\n        /* \"#utility.yul\":4881:4914   */\n      0x5265656e7472616e637947756172643a207265656e7472616e742063616c6c00\n        /* \"#utility.yul\":4861:4879   */\n      0x44\n      dup3\n      add\n        /* \"#utility.yul\":4854:4915   */\n      mstore\n        /* \"#utility.yul\":4932:4950   */\n      0x64\n      add\n        /* \"@openzeppelin/contracts/security/ReentrancyGuard.sol\":2317:2380  require(_status != _ENTERED, \"ReentrancyGuard: reentrant call\") */\n    tag_208:\n      mload(0x40)\n      dup1\n      swap2\n      sub\n      swap1\n      revert\n    tag_207:\n        /* \"@openzeppelin/contracts/security/ReentrancyGuard.sol\":1744:1745  2 */\n      0x02\n        /* \"@openzeppelin/contracts/security/ReentrancyGuard.sol\":2455:2462  _status */\n      0x06\n        /* \"@openzeppelin/contracts/security/ReentrancyGuard.sol\":2455:2473  _status = _ENTERED */\n      sstore\n        /* \"contracts/final/GMD.sol\":3120:3130  msg.sender */\n      caller\n        /* \"contracts/final/GMD.sol\":3146:3147  0 */\n      0x00\n        /* \"contracts/final/GMD.sol\":3111:3131  userInfo[msg.sender] */\n      swap1\n      dup2\n      mstore\n        /* \"contracts/final/GMD.sol\":3111:3119  userInfo */\n      0x07\n        /* \"contracts/final/GMD.sol\":3111:3131  userInfo[msg.sender] */\n      0x20\n      mstore\n      0x40\n      swap1\n      keccak256\n        /* \"contracts/final/GMD.sol\":3111:3143  userInfo[msg.sender].totalMinted */\n      sload\n        /* \"contracts/final/GMD.sol\":3103:3159  require(userInfo[msg.sender].totalMinted > 0, \"no mint\") */\n      tag_211\n      jumpi\n      mload(0x40)\n      shl(0xe5, 0x461bcd)\n      dup2\n      mstore\n        /* \"#utility.yul\":5163:5165   */\n      0x20\n        /* \"contracts/final/GMD.sol\":3103:3159  require(userInfo[msg.sender].totalMinted > 0, \"no mint\") */\n      0x04\n      dup3\n      add\n        /* \"#utility.yul\":5145:5166   */\n      mstore\n        /* \"#utility.yul\":5202:5203   */\n      0x07\n        /* \"#utility.yul\":5182:5200   */\n      0x24\n      dup3\n      add\n        /* \"#utility.yul\":5175:5204   */\n      mstore\n      shl(0xca, 0x1b9bc81b5a5b9d)\n        /* \"#utility.yul\":5220:5238   */\n      0x44\n      dup3\n      add\n        /* \"#utility.yul\":5213:5250   */\n      mstore\n        /* \"#utility.yul\":5267:5285   */\n      0x64\n      add\n        /* \"contracts/final/GMD.sol\":3103:3159  require(userInfo[msg.sender].totalMinted > 0, \"no mint\") */\n      tag_208\n        /* \"#utility.yul\":4961:5291   */\n      jump\n        /* \"contracts/final/GMD.sol\":3103:3159  require(userInfo[msg.sender].totalMinted > 0, \"no mint\") */\n    tag_211:\n        /* \"contracts/final/GMD.sol\":3218:3228  msg.sender */\n      caller\n        /* \"contracts/final/GMD.sol\":3170:3186  uint256 timePass */\n      0x00\n        /* \"contracts/final/GMD.sol\":3209:3229  userInfo[msg.sender] */\n      swap1\n      dup2\n      mstore\n        /* \"contracts/final/GMD.sol\":3209:3217  userInfo */\n      0x07\n        /* \"contracts/final/GMD.sol\":3209:3229  userInfo[msg.sender] */\n      0x20\n      mstore\n      0x40\n      dup2\n      keccak256\n        /* \"contracts/final/GMD.sol\":3209:3249  userInfo[msg.sender].lastInteractionTime */\n      0x01\n      add\n      sload\n        /* \"contracts/final/GMD.sol\":3189:3250  block.timestamp.sub(userInfo[msg.sender].lastInteractionTime) */\n      tag_214\n      swap1\n        /* \"contracts/final/GMD.sol\":3189:3204  block.timestamp */\n      timestamp\n      swap1\n        /* \"contracts/final/GMD.sol\":3189:3208  block.timestamp.sub */\n      tag_168\n        /* \"contracts/final/GMD.sol\":3189:3250  block.timestamp.sub(userInfo[msg.sender].lastInteractionTime) */\n      jump\t// in\n    tag_214:\n        /* \"contracts/final/GMD.sol\":3314:3324  msg.sender */\n      caller\n        /* \"contracts/final/GMD.sol\":3261:3278  uint256 claimable */\n      0x00\n        /* \"contracts/final/GMD.sol\":3305:3325  userInfo[msg.sender] */\n      swap1\n      dup2\n      mstore\n        /* \"contracts/final/GMD.sol\":3305:3313  userInfo */\n      0x07\n        /* \"contracts/final/GMD.sol\":3305:3325  userInfo[msg.sender] */\n      0x20\n      mstore\n      0x40\n      dup2\n      keccak256\n        /* \"contracts/final/GMD.sol\":3305:3336  userInfo[msg.sender].VestPeriod */\n      0x02\n      add\n      sload\n        /* \"contracts/final/GMD.sol\":3170:3250  uint256 timePass = block.timestamp.sub(userInfo[msg.sender].lastInteractionTime) */\n      swap2\n      swap3\n      pop\n        /* \"contracts/final/GMD.sol\":3261:3278  uint256 claimable */\n      swap1\n        /* \"contracts/final/GMD.sol\":3293:3336  timePass >= userInfo[msg.sender].VestPeriod */\n      dup3\n      lt\n        /* \"contracts/final/GMD.sol\":3289:3703  if (timePass >= userInfo[msg.sender].VestPeriod){... */\n      tag_215\n      jumpi\n      pop\n        /* \"contracts/final/GMD.sol\":3373:3383  msg.sender */\n      caller\n        /* \"contracts/final/GMD.sol\":3364:3384  userInfo[msg.sender] */\n      0x00\n      swap1\n      dup2\n      mstore\n        /* \"contracts/final/GMD.sol\":3364:3372  userInfo */\n      0x07\n        /* \"contracts/final/GMD.sol\":3364:3384  userInfo[msg.sender] */\n      0x20\n      mstore\n      0x40\n      dup2\n      keccak256\n        /* \"contracts/final/GMD.sol\":3364:3396  userInfo[msg.sender].totalMinted */\n      dup1\n      sload\n        /* \"contracts/final/GMD.sol\":3411:3442  userInfo[msg.sender].VestPeriod */\n      0x02\n      swap1\n      swap2\n      add\n        /* \"contracts/final/GMD.sol\":3411:3446  userInfo[msg.sender].VestPeriod = 0 */\n      swap2\n      swap1\n      swap2\n      sstore\n        /* \"contracts/final/GMD.sol\":3289:3703  if (timePass >= userInfo[msg.sender].VestPeriod){... */\n      jump(tag_216)\n    tag_215:\n        /* \"contracts/final/GMD.sol\":3560:3570  msg.sender */\n      caller\n        /* \"contracts/final/GMD.sol\":3551:3571  userInfo[msg.sender] */\n      0x00\n      swap1\n      dup2\n      mstore\n        /* \"contracts/final/GMD.sol\":3551:3559  userInfo */\n      0x07\n        /* \"contracts/final/GMD.sol\":3551:3571  userInfo[msg.sender] */\n      0x20\n      mstore\n      0x40\n      swap1\n      keccak256\n        /* \"contracts/final/GMD.sol\":3551:3582  userInfo[msg.sender].VestPeriod */\n      0x02\n      dup2\n      add\n      sload\n        /* \"contracts/final/GMD.sol\":3500:3532  userInfo[msg.sender].totalMinted */\n      swap1\n      sload\n        /* \"contracts/final/GMD.sol\":3500:3583  userInfo[msg.sender].totalMinted.mul(timePass).div(userInfo[msg.sender].VestPeriod) */\n      tag_217\n      swap2\n        /* \"contracts/final/GMD.sol\":3551:3582  userInfo[msg.sender].VestPeriod */\n      swap1\n        /* \"contracts/final/GMD.sol\":3500:3546  userInfo[msg.sender].totalMinted.mul(timePass) */\n      tag_218\n      swap1\n        /* \"contracts/final/GMD.sol\":3537:3545  timePass */\n      dup6\n        /* \"contracts/final/GMD.sol\":3500:3536  userInfo[msg.sender].totalMinted.mul */\n      tag_219\n        /* \"contracts/final/GMD.sol\":3500:3546  userInfo[msg.sender].totalMinted.mul(timePass) */\n      jump\t// in\n    tag_218:\n        /* \"contracts/final/GMD.sol\":3500:3550  userInfo[msg.sender].totalMinted.mul(timePass).div */\n      swap1\n      tag_220\n        /* \"contracts/final/GMD.sol\":3500:3583  userInfo[msg.sender].totalMinted.mul(timePass).div(userInfo[msg.sender].VestPeriod) */\n      jump\t// in\n    tag_217:\n        /* \"contracts/final/GMD.sol\":3641:3651  msg.sender */\n      caller\n        /* \"contracts/final/GMD.sol\":3632:3652  userInfo[msg.sender] */\n      0x00\n      swap1\n      dup2\n      mstore\n        /* \"contracts/final/GMD.sol\":3632:3640  userInfo */\n      0x07\n        /* \"contracts/final/GMD.sol\":3632:3652  userInfo[msg.sender] */\n      0x20\n      mstore\n      0x40\n      swap1\n      keccak256\n        /* \"contracts/final/GMD.sol\":3632:3663  userInfo[msg.sender].VestPeriod */\n      0x02\n      add\n      sload\n        /* \"contracts/final/GMD.sol\":3488:3583  claimable = userInfo[msg.sender].totalMinted.mul(timePass).div(userInfo[msg.sender].VestPeriod) */\n      swap1\n      swap2\n      pop\n        /* \"contracts/final/GMD.sol\":3632:3677  userInfo[msg.sender].VestPeriod.sub(timePass) */\n      tag_221\n      swap1\n        /* \"contracts/final/GMD.sol\":3668:3676  timePass */\n      dup4\n        /* \"contracts/final/GMD.sol\":3632:3667  userInfo[msg.sender].VestPeriod.sub */\n      tag_168\n        /* \"contracts/final/GMD.sol\":3632:3677  userInfo[msg.sender].VestPeriod.sub(timePass) */\n      jump\t// in\n    tag_221:\n        /* \"contracts/final/GMD.sol\":3607:3617  msg.sender */\n      caller\n        /* \"contracts/final/GMD.sol\":3598:3618  userInfo[msg.sender] */\n      0x00\n      swap1\n      dup2\n      mstore\n        /* \"contracts/final/GMD.sol\":3598:3606  userInfo */\n      0x07\n        /* \"contracts/final/GMD.sol\":3598:3618  userInfo[msg.sender] */\n      0x20\n      mstore\n      0x40\n      swap1\n      keccak256\n        /* \"contracts/final/GMD.sol\":3598:3629  userInfo[msg.sender].VestPeriod */\n      0x02\n      add\n        /* \"contracts/final/GMD.sol\":3598:3677  userInfo[msg.sender].VestPeriod = userInfo[msg.sender].VestPeriod.sub(timePass) */\n      sstore\n        /* \"contracts/final/GMD.sol\":3289:3703  if (timePass >= userInfo[msg.sender].VestPeriod){... */\n    tag_216:\n        /* \"contracts/final/GMD.sol\":3757:3767  msg.sender */\n      caller\n        /* \"contracts/final/GMD.sol\":3748:3768  userInfo[msg.sender] */\n      0x00\n      swap1\n      dup2\n      mstore\n        /* \"contracts/final/GMD.sol\":3748:3756  userInfo */\n      0x07\n        /* \"contracts/final/GMD.sol\":3748:3768  userInfo[msg.sender] */\n      0x20\n      mstore\n      0x40\n      swap1\n      keccak256\n        /* \"contracts/final/GMD.sol\":3748:3780  userInfo[msg.sender].totalMinted */\n      sload\n        /* \"contracts/final/GMD.sol\":3748:3795  userInfo[msg.sender].totalMinted.sub(claimable) */\n      tag_222\n      swap1\n        /* \"contracts/final/GMD.sol\":3785:3794  claimable */\n      dup3\n        /* \"contracts/final/GMD.sol\":3748:3784  userInfo[msg.sender].totalMinted.sub */\n      tag_168\n        /* \"contracts/final/GMD.sol\":3748:3795  userInfo[msg.sender].totalMinted.sub(claimable) */\n      jump\t// in\n    tag_222:\n        /* \"contracts/final/GMD.sol\":3722:3732  msg.sender */\n      caller\n        /* \"contracts/final/GMD.sol\":3713:3733  userInfo[msg.sender] */\n      0x00\n      dup2\n      dup2\n      mstore\n        /* \"contracts/final/GMD.sol\":3713:3721  userInfo */\n      0x07\n        /* \"contracts/final/GMD.sol\":3713:3733  userInfo[msg.sender] */\n      0x20\n      mstore\n      0x40\n      swap1\n      dup2\n      swap1\n      keccak256\n        /* \"contracts/final/GMD.sol\":3713:3795  userInfo[msg.sender].totalMinted = userInfo[msg.sender].totalMinted.sub(claimable) */\n      swap3\n      dup4\n      sstore\n        /* \"contracts/final/GMD.sol\":3849:3864  block.timestamp */\n      timestamp\n        /* \"contracts/final/GMD.sol\":3806:3846  userInfo[msg.sender].lastInteractionTime */\n      0x01\n      swap1\n      swap4\n      add\n        /* \"contracts/final/GMD.sol\":3806:3864  userInfo[msg.sender].lastInteractionTime = block.timestamp */\n      swap3\n      swap1\n      swap3\n      sstore\n        /* \"contracts/final/GMD.sol\":3877:3913  this.transfer(msg.sender, claimable) */\n      swap1\n      mload\n      shl(0xe0, 0xa9059cbb)\n      dup2\n      mstore\n      0x04\n      dup2\n      add\n        /* \"#utility.yul\":5470:5521   */\n      swap2\n      swap1\n      swap2\n      mstore\n        /* \"#utility.yul\":5537:5555   */\n      0x24\n      dup2\n      add\n        /* \"#utility.yul\":5530:5564   */\n      dup3\n      swap1\n      mstore\n        /* \"contracts/final/GMD.sol\":3877:3881  this */\n      address\n      swap1\n        /* \"contracts/final/GMD.sol\":3877:3890  this.transfer */\n      0xa9059cbb\n      swap1\n        /* \"#utility.yul\":5443:5461   */\n      0x44\n      add\n        /* \"contracts/final/GMD.sol\":3877:3913  this.transfer(msg.sender, claimable) */\n      0x20\n      mload(0x40)\n      dup1\n      dup4\n      sub\n      dup2\n      0x00\n      dup8\n      gas\n      call\n      iszero\n      dup1\n      iszero\n      tag_226\n      jumpi\n      returndatasize\n      0x00\n      dup1\n      returndatacopy\n      revert(0x00, returndatasize)\n    tag_226:\n      pop\n      pop\n      pop\n      pop\n      mload(0x40)\n      returndatasize\n      not(0x1f)\n      0x1f\n      dup3\n      add\n      and\n      dup3\n      add\n      dup1\n      0x40\n      mstore\n      pop\n      dup2\n      add\n      swap1\n      tag_227\n      swap2\n      swap1\n      tag_228\n      jump\t// in\n    tag_227:\n      pop\n      pop\n        /* \"@openzeppelin/contracts/security/ReentrancyGuard.sol\":1701:1702  1 */\n      0x01\n        /* \"@openzeppelin/contracts/security/ReentrancyGuard.sol\":2628:2635  _status */\n      0x06\n        /* \"@openzeppelin/contracts/security/ReentrancyGuard.sol\":2628:2650  _status = _NOT_ENTERED */\n      sstore\n      pop\n        /* \"contracts/final/GMD.sol\":3051:3921  function claim() external nonReentrant {... */\n      jump\t// out\n        /* \"@openzeppelin/contracts/access/Ownable.sol\":1831:1932  function renounceOwnership() public virtual onlyOwner {... */\n    tag_102:\n        /* \"@openzeppelin/contracts/access/Ownable.sol\":1094:1107  _checkOwner() */\n      tag_231\n        /* \"@openzeppelin/contracts/access/Ownable.sol\":1094:1105  _checkOwner */\n      tag_187\n        /* \"@openzeppelin/contracts/access/Ownable.sol\":1094:1107  _checkOwner() */\n      jump\t// in\n    tag_231:\n        /* \"@openzeppelin/contracts/access/Ownable.sol\":1895:1925  _transferOwnership(address(0)) */\n      tag_198\n        /* \"@openzeppelin/contracts/access/Ownable.sol\":1922:1923  0 */\n      0x00\n        /* \"@openzeppelin/contracts/access/Ownable.sol\":1895:1913  _transferOwnership */\n      tag_234\n        /* \"@openzeppelin/contracts/access/Ownable.sol\":1895:1925  _transferOwnership(address(0)) */\n      jump\t// in\n        /* \"contracts/final/GMD.sol\":1512:1998  function claimableTokens(address _address) external view returns(uint256) {... */\n    tag_111:\n      sub(shl(0xa0, 0x01), 0x01)\n        /* \"contracts/final/GMD.sol\":1636:1654  userInfo[_address] */\n      dup2\n      and\n        /* \"contracts/final/GMD.sol\":1577:1584  uint256 */\n      0x00\n        /* \"contracts/final/GMD.sol\":1636:1654  userInfo[_address] */\n      swap1\n      dup2\n      mstore\n        /* \"contracts/final/GMD.sol\":1636:1644  userInfo */\n      0x07\n        /* \"contracts/final/GMD.sol\":1636:1654  userInfo[_address] */\n      0x20\n      mstore\n      0x40\n      dup2\n      keccak256\n        /* \"contracts/final/GMD.sol\":1636:1674  userInfo[_address].lastInteractionTime */\n      0x01\n      add\n      sload\n        /* \"contracts/final/GMD.sol\":1577:1584  uint256 */\n      dup2\n      swap1\n        /* \"contracts/final/GMD.sol\":1616:1675  block.timestamp.sub(userInfo[_address].lastInteractionTime) */\n      tag_236\n      swap1\n        /* \"contracts/final/GMD.sol\":1616:1631  block.timestamp */\n      timestamp\n      swap1\n        /* \"contracts/final/GMD.sol\":1616:1635  block.timestamp.sub */\n      tag_168\n        /* \"contracts/final/GMD.sol\":1616:1675  block.timestamp.sub(userInfo[_address].lastInteractionTime) */\n      jump\t// in\n    tag_236:\n        /* \"contracts/final/GMD.sol\":1739:1749  msg.sender */\n      caller\n        /* \"contracts/final/GMD.sol\":1686:1703  uint256 claimable */\n      0x00\n        /* \"contracts/final/GMD.sol\":1730:1750  userInfo[msg.sender] */\n      swap1\n      dup2\n      mstore\n        /* \"contracts/final/GMD.sol\":1730:1738  userInfo */\n      0x07\n        /* \"contracts/final/GMD.sol\":1730:1750  userInfo[msg.sender] */\n      0x20\n      mstore\n      0x40\n      dup2\n      keccak256\n        /* \"contracts/final/GMD.sol\":1730:1761  userInfo[msg.sender].VestPeriod */\n      0x02\n      add\n      sload\n        /* \"contracts/final/GMD.sol\":1597:1675  uint256 timePass = block.timestamp.sub(userInfo[_address].lastInteractionTime) */\n      swap2\n      swap3\n      pop\n        /* \"contracts/final/GMD.sol\":1686:1703  uint256 claimable */\n      swap1\n        /* \"contracts/final/GMD.sol\":1718:1761  timePass >= userInfo[msg.sender].VestPeriod */\n      dup3\n      lt\n        /* \"contracts/final/GMD.sol\":1714:1964  if (timePass >= userInfo[msg.sender].VestPeriod){... */\n      tag_237\n      jumpi\n      pop\n      sub(shl(0xa0, 0x01), 0x01)\n        /* \"contracts/final/GMD.sol\":1789:1807  userInfo[_address] */\n      dup4\n      and\n      0x00\n      swap1\n      dup2\n      mstore\n        /* \"contracts/final/GMD.sol\":1789:1797  userInfo */\n      0x07\n        /* \"contracts/final/GMD.sol\":1789:1807  userInfo[_address] */\n      0x20\n      mstore\n      0x40\n      swap1\n      keccak256\n        /* \"contracts/final/GMD.sol\":1789:1819  userInfo[_address].totalMinted */\n      sload\n        /* \"contracts/final/GMD.sol\":1714:1964  if (timePass >= userInfo[msg.sender].VestPeriod){... */\n      jump(tag_172)\n    tag_237:\n      sub(shl(0xa0, 0x01), 0x01)\n        /* \"contracts/final/GMD.sol\":1922:1940  userInfo[_address] */\n      dup5\n      and\n      0x00\n      swap1\n      dup2\n      mstore\n        /* \"contracts/final/GMD.sol\":1922:1930  userInfo */\n      0x07\n        /* \"contracts/final/GMD.sol\":1922:1940  userInfo[_address] */\n      0x20\n      mstore\n      0x40\n      swap1\n      keccak256\n        /* \"contracts/final/GMD.sol\":1922:1951  userInfo[_address].VestPeriod */\n      0x02\n      dup2\n      add\n      sload\n        /* \"contracts/final/GMD.sol\":1873:1903  userInfo[_address].totalMinted */\n      swap1\n      sload\n        /* \"contracts/final/GMD.sol\":1873:1952  userInfo[_address].totalMinted.mul(timePass).div(userInfo[_address].VestPeriod) */\n      tag_239\n      swap2\n        /* \"contracts/final/GMD.sol\":1922:1951  userInfo[_address].VestPeriod */\n      swap1\n        /* \"contracts/final/GMD.sol\":1873:1917  userInfo[_address].totalMinted.mul(timePass) */\n      tag_218\n      swap1\n        /* \"contracts/final/GMD.sol\":1908:1916  timePass */\n      dup6\n        /* \"contracts/final/GMD.sol\":1873:1907  userInfo[_address].totalMinted.mul */\n      tag_219\n        /* \"contracts/final/GMD.sol\":1873:1917  userInfo[_address].totalMinted.mul(timePass) */\n      jump\t// in\n        /* \"contracts/final/GMD.sol\":1873:1952  userInfo[_address].totalMinted.mul(timePass).div(userInfo[_address].VestPeriod) */\n    tag_239:\n        /* \"contracts/final/GMD.sol\":1861:1952  claimable = userInfo[_address].totalMinted.mul(timePass).div(userInfo[_address].VestPeriod) */\n      swap5\n        /* \"contracts/final/GMD.sol\":1981:1990  claimable */\n      swap4\n      pop\n      pop\n      pop\n      pop\n        /* \"contracts/final/GMD.sol\":1512:1998  function claimableTokens(address _address) external view returns(uint256) {... */\n      jump\t// out\n        /* \"@openzeppelin/contracts/token/ERC20/ERC20.sol\":2367:2469  function symbol() public view virtual override returns (string memory) {... */\n    tag_122:\n        /* \"@openzeppelin/contracts/token/ERC20/ERC20.sol\":2423:2436  string memory */\n      0x60\n        /* \"@openzeppelin/contracts/token/ERC20/ERC20.sol\":2455:2462  _symbol */\n      0x04\n        /* \"@openzeppelin/contracts/token/ERC20/ERC20.sol\":2448:2462  return _symbol */\n      dup1\n      sload\n      tag_154\n      swap1\n      tag_155\n      jump\t// in\n        /* \"contracts/final/GMD.sol\":2249:3043  function mint(uint256 _amount) external nonReentrant {... */\n    tag_126:\n        /* \"@openzeppelin/contracts/security/ReentrancyGuard.sol\":1744:1745  2 */\n      0x02\n        /* \"@openzeppelin/contracts/security/ReentrancyGuard.sol\":2325:2332  _status */\n      sload(0x06)\n        /* \"@openzeppelin/contracts/security/ReentrancyGuard.sol\":2325:2344  _status != _ENTERED */\n      eq\n      iszero\n        /* \"@openzeppelin/contracts/security/ReentrancyGuard.sol\":2317:2380  require(_status != _ENTERED, \"ReentrancyGuard: reentrant call\") */\n      tag_249\n      jumpi\n      mload(0x40)\n      shl(0xe5, 0x461bcd)\n      dup2\n      mstore\n        /* \"#utility.yul\":4803:4805   */\n      0x20\n        /* \"@openzeppelin/contracts/security/ReentrancyGuard.sol\":2317:2380  require(_status != _ENTERED, \"ReentrancyGuard: reentrant call\") */\n      0x04\n      dup3\n      add\n        /* \"#utility.yul\":4785:4806   */\n      mstore\n        /* \"#utility.yul\":4842:4844   */\n      0x1f\n        /* \"#utility.yul\":4822:4840   */\n      0x24\n      dup3\n      add\n        /* \"#utility.yul\":4815:4845   */\n      mstore\n        /* \"#utility.yul\":4881:4914   */\n      0x5265656e7472616e637947756172643a207265656e7472616e742063616c6c00\n        /* \"#utility.yul\":4861:4879   */\n      0x44\n      dup3\n      add\n        /* \"#utility.yul\":4854:4915   */\n      mstore\n        /* \"#utility.yul\":4932:4950   */\n      0x64\n      add\n        /* \"@openzeppelin/contracts/security/ReentrancyGuard.sol\":2317:2380  require(_status != _ENTERED, \"ReentrancyGuard: reentrant call\") */\n      tag_208\n        /* \"#utility.yul\":4601:4956   */\n      jump\n        /* \"@openzeppelin/contracts/security/ReentrancyGuard.sol\":2317:2380  require(_status != _ENTERED, \"ReentrancyGuard: reentrant call\") */\n    tag_249:\n        /* \"@openzeppelin/contracts/security/ReentrancyGuard.sol\":1744:1745  2 */\n      0x02\n        /* \"@openzeppelin/contracts/security/ReentrancyGuard.sol\":2455:2462  _status */\n      0x06\n        /* \"@openzeppelin/contracts/security/ReentrancyGuard.sol\":2455:2473  _status = _ENTERED */\n      sstore\n        /* \"contracts/final/GMD.sol\":2334:2344  2000000000 */\n      0x77359400\n        /* \"contracts/final/GMD.sol\":2323:2344  _amount <= 2000000000 */\n      dup2\n      gt\n      iszero\n        /* \"contracts/final/GMD.sol\":2315:2369  require(_amount <= 2000000000, \"max 2000 usdc per tx\") */\n      tag_252\n      jumpi\n      mload(0x40)\n      shl(0xe5, 0x461bcd)\n      dup2\n      mstore\n        /* \"#utility.yul\":6027:6029   */\n      0x20\n        /* \"contracts/final/GMD.sol\":2315:2369  require(_amount <= 2000000000, \"max 2000 usdc per tx\") */\n      0x04\n      dup3\n      add\n        /* \"#utility.yul\":6009:6030   */\n      mstore\n        /* \"#utility.yul\":6066:6068   */\n      0x14\n        /* \"#utility.yul\":6046:6064   */\n      0x24\n      dup3\n      add\n        /* \"#utility.yul\":6039:6069   */\n      mstore\n      shl(0x63, 0x0dac2f0406460606040eae6c8c640e0cae440e8f)\n        /* \"#utility.yul\":6085:6103   */\n      0x44\n      dup3\n      add\n        /* \"#utility.yul\":6078:6128   */\n      mstore\n        /* \"#utility.yul\":6145:6163   */\n      0x64\n      add\n        /* \"contracts/final/GMD.sol\":2315:2369  require(_amount <= 2000000000, \"max 2000 usdc per tx\") */\n      tag_208\n        /* \"#utility.yul\":5825:6169   */\n      jump\n        /* \"contracts/final/GMD.sol\":2315:2369  require(_amount <= 2000000000, \"max 2000 usdc per tx\") */\n    tag_252:\n        /* \"contracts/final/GMD.sol\":2388:2396  mintOpen */\n      and(0xff, sload(0x0b))\n        /* \"contracts/final/GMD.sol\":2380:2416  require(mintOpen, \"mint not opened\") */\n      tag_255\n      jumpi\n      mload(0x40)\n      shl(0xe5, 0x461bcd)\n      dup2\n      mstore\n        /* \"#utility.yul\":6376:6378   */\n      0x20\n        /* \"contracts/final/GMD.sol\":2380:2416  require(mintOpen, \"mint not opened\") */\n      0x04\n      dup3\n      add\n        /* \"#utility.yul\":6358:6379   */\n      mstore\n        /* \"#utility.yul\":6415:6417   */\n      0x0f\n        /* \"#utility.yul\":6395:6413   */\n      0x24\n      dup3\n      add\n        /* \"#utility.yul\":6388:6418   */\n      mstore\n      shl(0x8a, 0x1b5a5b9d081b9bdd081bdc195b9959)\n        /* \"#utility.yul\":6434:6452   */\n      0x44\n      dup3\n      add\n        /* \"#utility.yul\":6427:6472   */\n      mstore\n        /* \"#utility.yul\":6489:6507   */\n      0x64\n      add\n        /* \"contracts/final/GMD.sol\":2380:2416  require(mintOpen, \"mint not opened\") */\n      tag_208\n        /* \"#utility.yul\":6174:6513   */\n      jump\n        /* \"contracts/final/GMD.sol\":2380:2416  require(mintOpen, \"mint not opened\") */\n    tag_255:\n        /* \"contracts/final/GMD.sol\":2435:2439  USDC */\n      sload(0x0b)\n        /* \"contracts/final/GMD.sol\":2435:2461  USDC.balanceOf(msg.sender) */\n      mload(0x40)\n      shl(0xe0, 0x70a08231)\n      dup2\n      mstore\n        /* \"contracts/final/GMD.sol\":2450:2460  msg.sender */\n      caller\n        /* \"contracts/final/GMD.sol\":2435:2461  USDC.balanceOf(msg.sender) */\n      0x04\n      dup3\n      add\n        /* \"#utility.yul\":2858:2909   */\n      mstore\n        /* \"contracts/final/GMD.sol\":2465:2472  _amount */\n      dup3\n      swap2\n        /* \"contracts/final/GMD.sol\":2435:2439  USDC */\n      0x0100\n      swap1\n      div\n      sub(shl(0xa0, 0x01), 0x01)\n      and\n      swap1\n        /* \"contracts/final/GMD.sol\":2435:2449  USDC.balanceOf */\n      0x70a08231\n      swap1\n        /* \"#utility.yul\":2831:2849   */\n      0x24\n      add\n        /* \"contracts/final/GMD.sol\":2435:2461  USDC.balanceOf(msg.sender) */\n      0x20\n      mload(0x40)\n      dup1\n      dup4\n      sub\n      dup2\n      dup7\n      gas\n      staticcall\n      iszero\n      dup1\n      iszero\n      tag_260\n      jumpi\n      returndatasize\n      0x00\n      dup1\n      returndatacopy\n      revert(0x00, returndatasize)\n    tag_260:\n      pop\n      pop\n      pop\n      pop\n      mload(0x40)\n      returndatasize\n      not(0x1f)\n      0x1f\n      dup3\n      add\n      and\n      dup3\n      add\n      dup1\n      0x40\n      mstore\n      pop\n      dup2\n      add\n      swap1\n      tag_261\n      swap2\n      swap1\n      tag_204\n      jump\t// in\n    tag_261:\n        /* \"contracts/final/GMD.sol\":2435:2472  USDC.balanceOf(msg.sender) >= _amount */\n      lt\n      iszero\n        /* \"contracts/final/GMD.sol\":2427:2497  require(USDC.balanceOf(msg.sender) >= _amount, \"USDC balance too low\") */\n      tag_262\n      jumpi\n      mload(0x40)\n      shl(0xe5, 0x461bcd)\n      dup2\n      mstore\n        /* \"#utility.yul\":6720:6722   */\n      0x20\n        /* \"contracts/final/GMD.sol\":2427:2497  require(USDC.balanceOf(msg.sender) >= _amount, \"USDC balance too low\") */\n      0x04\n      dup3\n      add\n        /* \"#utility.yul\":6702:6723   */\n      mstore\n        /* \"#utility.yul\":6759:6761   */\n      0x14\n        /* \"#utility.yul\":6739:6757   */\n      0x24\n      dup3\n      add\n        /* \"#utility.yul\":6732:6762   */\n      mstore\n      shl(0x60, 0x555344432062616c616e636520746f6f206c6f77)\n        /* \"#utility.yul\":6778:6796   */\n      0x44\n      dup3\n      add\n        /* \"#utility.yul\":6771:6821   */\n      mstore\n        /* \"#utility.yul\":6838:6856   */\n      0x64\n      add\n        /* \"contracts/final/GMD.sol\":2427:2497  require(USDC.balanceOf(msg.sender) >= _amount, \"USDC balance too low\") */\n      tag_208\n        /* \"#utility.yul\":6518:6862   */\n      jump\n        /* \"contracts/final/GMD.sol\":2427:2497  require(USDC.balanceOf(msg.sender) >= _amount, \"USDC balance too low\") */\n    tag_262:\n        /* \"contracts/final/GMD.sol\":2508:2525  uint256 _amountin */\n      0x00\n        /* \"contracts/final/GMD.sol\":2528:2547  _amount.mul(10**12) */\n      tag_265\n        /* \"contracts/final/GMD.sol\":2528:2535  _amount */\n      dup3\n        /* \"contracts/final/GMD.sol\":2540:2546  10**12 */\n      0xe8d4a51000\n        /* \"contracts/final/GMD.sol\":2528:2539  _amount.mul */\n      tag_219\n        /* \"contracts/final/GMD.sol\":2528:2547  _amount.mul(10**12) */\n      jump\t// in\n    tag_265:\n        /* \"contracts/final/GMD.sol\":2508:2547  uint256 _amountin = _amount.mul(10**12) */\n      swap1\n      pop\n        /* \"contracts/final/GMD.sol\":2558:2575  uint256 amountOut */\n      0x00\n        /* \"contracts/final/GMD.sol\":2578:2612  _amountin.mul(1000).div(mintPrice) */\n      tag_266\n        /* \"contracts/final/GMD.sol\":2602:2611  mintPrice */\n      sload(0x08)\n        /* \"contracts/final/GMD.sol\":2578:2597  _amountin.mul(1000) */\n      tag_218\n        /* \"contracts/final/GMD.sol\":2592:2596  1000 */\n      0x03e8\n        /* \"contracts/final/GMD.sol\":2578:2587  _amountin */\n      dup6\n        /* \"contracts/final/GMD.sol\":2578:2591  _amountin.mul */\n      tag_219\n      swap1\n        /* \"contracts/final/GMD.sol\":2578:2597  _amountin.mul(1000) */\n      swap2\n      swap1\n      0xffffffff\n      and\n      jump\t// in\n        /* \"contracts/final/GMD.sol\":2578:2612  _amountin.mul(1000).div(mintPrice) */\n    tag_266:\n        /* \"contracts/final/GMD.sol\":2558:2612  uint256 amountOut = _amountin.mul(1000).div(mintPrice) */\n      swap1\n      pop\n        /* \"contracts/final/GMD.sol\":2678:2685  mintCap */\n      sload(0x09)\n        /* \"contracts/final/GMD.sol\":2641:2674  this.totalSupply().add(amountOut) */\n      tag_268\n        /* \"contracts/final/GMD.sol\":2664:2673  amountOut */\n      dup3\n        /* \"contracts/final/GMD.sol\":2641:2645  this */\n      address\n      sub(shl(0xa0, 0x01), 0x01)\n        /* \"contracts/final/GMD.sol\":2641:2657  this.totalSupply */\n      and\n      0x18160ddd\n        /* \"contracts/final/GMD.sol\":2641:2659  this.totalSupply() */\n      mload(0x40)\n      dup2\n      0xffffffff\n      and\n      0xe0\n      shl\n      dup2\n      mstore\n      0x04\n      add\n      0x20\n      mload(0x40)\n      dup1\n      dup4\n      sub\n      dup2\n      dup7\n      gas\n      staticcall\n      iszero\n      dup1\n      iszero\n      tag_270\n      jumpi\n      returndatasize\n      0x00\n      dup1\n      returndatacopy\n      revert(0x00, returndatasize)\n    tag_270:\n      pop\n      pop\n      pop\n      pop\n      mload(0x40)\n      returndatasize\n      not(0x1f)\n      0x1f\n      dup3\n      add\n      and\n      dup3\n      add\n      dup1\n      0x40\n      mstore\n      pop\n      dup2\n      add\n      swap1\n      tag_271\n      swap2\n      swap1\n      tag_204\n      jump\t// in\n    tag_271:\n        /* \"contracts/final/GMD.sol\":2641:2663  this.totalSupply().add */\n      swap1\n      tag_272\n        /* \"contracts/final/GMD.sol\":2641:2674  this.totalSupply().add(amountOut) */\n      jump\t// in\n    tag_268:\n        /* \"contracts/final/GMD.sol\":2641:2685  this.totalSupply().add(amountOut) <= mintCap */\n      gt\n      iszero\n        /* \"contracts/final/GMD.sol\":2633:2703  require(this.totalSupply().add(amountOut) <= mintCap, \"over mint cap\") */\n      tag_273\n      jumpi\n      mload(0x40)\n      shl(0xe5, 0x461bcd)\n      dup2\n      mstore\n        /* \"#utility.yul\":7069:7071   */\n      0x20\n        /* \"contracts/final/GMD.sol\":2633:2703  require(this.totalSupply().add(amountOut) <= mintCap, \"over mint cap\") */\n      0x04\n      dup3\n      add\n        /* \"#utility.yul\":7051:7072   */\n      mstore\n        /* \"#utility.yul\":7108:7110   */\n      0x0d\n        /* \"#utility.yul\":7088:7106   */\n      0x24\n      dup3\n      add\n        /* \"#utility.yul\":7081:7111   */\n      mstore\n      shl(0x9c, 0x06f766572206d696e742063617)\n        /* \"#utility.yul\":7127:7145   */\n      0x44\n      dup3\n      add\n        /* \"#utility.yul\":7120:7163   */\n      mstore\n        /* \"#utility.yul\":7180:7198   */\n      0x64\n      add\n        /* \"contracts/final/GMD.sol\":2633:2703  require(this.totalSupply().add(amountOut) <= mintCap, \"over mint cap\") */\n      tag_208\n        /* \"#utility.yul\":6867:7204   */\n      jump\n        /* \"contracts/final/GMD.sol\":2633:2703  require(this.totalSupply().add(amountOut) <= mintCap, \"over mint cap\") */\n    tag_273:\n        /* \"contracts/final/GMD.sol\":2758:2768  msg.sender */\n      caller\n        /* \"contracts/final/GMD.sol\":2749:2769  userInfo[msg.sender] */\n      0x00\n      swap1\n      dup2\n      mstore\n        /* \"contracts/final/GMD.sol\":2749:2757  userInfo */\n      0x07\n        /* \"contracts/final/GMD.sol\":2749:2769  userInfo[msg.sender] */\n      0x20\n      mstore\n      0x40\n      swap1\n      keccak256\n        /* \"contracts/final/GMD.sol\":2749:2781  userInfo[msg.sender].totalMinted */\n      sload\n        /* \"contracts/final/GMD.sol\":2749:2796  userInfo[msg.sender].totalMinted.add(amountOut) */\n      tag_276\n      swap1\n        /* \"contracts/final/GMD.sol\":2786:2795  amountOut */\n      dup3\n        /* \"contracts/final/GMD.sol\":2749:2785  userInfo[msg.sender].totalMinted.add */\n      tag_272\n        /* \"contracts/final/GMD.sol\":2749:2796  userInfo[msg.sender].totalMinted.add(amountOut) */\n      jump\t// in\n    tag_276:\n        /* \"contracts/final/GMD.sol\":2723:2733  msg.sender */\n      caller\n        /* \"contracts/final/GMD.sol\":2714:2734  userInfo[msg.sender] */\n      0x00\n      swap1\n      dup2\n      mstore\n        /* \"contracts/final/GMD.sol\":2714:2722  userInfo */\n      0x07\n        /* \"contracts/final/GMD.sol\":2714:2734  userInfo[msg.sender] */\n      0x20\n      mstore\n      0x40\n      swap1\n      keccak256\n        /* \"contracts/final/GMD.sol\":2714:2796  userInfo[msg.sender].totalMinted = userInfo[msg.sender].totalMinted.add(amountOut) */\n      swap1\n      dup2\n      sstore\n        /* \"contracts/final/GMD.sol\":2850:2865  block.timestamp */\n      timestamp\n        /* \"contracts/final/GMD.sol\":2807:2847  userInfo[msg.sender].lastInteractionTime */\n      0x01\n      dup3\n      add\n        /* \"contracts/final/GMD.sol\":2807:2865  userInfo[msg.sender].lastInteractionTime = block.timestamp */\n      sstore\n        /* \"contracts/final/GMD.sol\":2910:2923  vestingPeriod */\n      sload(0x0a)\n        /* \"contracts/final/GMD.sol\":2876:2907  userInfo[msg.sender].VestPeriod */\n      0x02\n      swap1\n      swap2\n      add\n        /* \"contracts/final/GMD.sol\":2876:2923  userInfo[msg.sender].VestPeriod = vestingPeriod */\n      sstore\n        /* \"contracts/final/GMD.sol\":2936:2967  _mint(address(this), amountOut) */\n      tag_277\n        /* \"contracts/final/GMD.sol\":2950:2954  this */\n      address\n        /* \"contracts/final/GMD.sol\":2957:2966  amountOut */\n      dup3\n        /* \"contracts/final/GMD.sol\":2936:2941  _mint */\n      tag_278\n        /* \"contracts/final/GMD.sol\":2936:2967  _mint(address(this), amountOut) */\n      jump\t// in\n    tag_277:\n        /* \"contracts/final/GMD.sol\":2978:2982  USDC */\n      sload(0x0b)\n        /* \"contracts/final/GMD.sol\":2978:3035  USDC.safeTransferFrom(msg.sender, address(this), _amount) */\n      tag_227\n      swap1\n        /* \"contracts/final/GMD.sol\":2978:2982  USDC */\n      0x0100\n      swap1\n      div\n      sub(shl(0xa0, 0x01), 0x01)\n      and\n        /* \"contracts/final/GMD.sol\":3000:3010  msg.sender */\n      caller\n        /* \"contracts/final/GMD.sol\":3020:3024  this */\n      address\n        /* \"contracts/final/GMD.sol\":3027:3034  _amount */\n      dup7\n        /* \"contracts/final/GMD.sol\":2978:2999  USDC.safeTransferFrom */\n      tag_280\n        /* \"contracts/final/GMD.sol\":2978:3035  USDC.safeTransferFrom(msg.sender, address(this), _amount) */\n      jump\t// in\n        /* \"@openzeppelin/contracts/token/ERC20/ERC20.sol\":6594:7021  function decreaseAllowance(address spender, uint256 subtractedValue) public virtual returns (bool) {... */\n    tag_129:\n        /* \"@openzeppelin/contracts/token/ERC20/ERC20.sol\":6687:6691  bool */\n      0x00\n        /* \"@openzeppelin/contracts/utils/Context.sol\":719:729  msg.sender */\n      caller\n        /* \"@openzeppelin/contracts/token/ERC20/ERC20.sol\":6687:6691  bool */\n      dup2\n        /* \"@openzeppelin/contracts/token/ERC20/ERC20.sol\":6768:6793  allowance(owner, spender) */\n      tag_283\n        /* \"@openzeppelin/contracts/utils/Context.sol\":719:729  msg.sender */\n      dup3\n        /* \"@openzeppelin/contracts/token/ERC20/ERC20.sol\":6785:6792  spender */\n      dup7\n        /* \"@openzeppelin/contracts/token/ERC20/ERC20.sol\":6768:6777  allowance */\n      tag_138\n        /* \"@openzeppelin/contracts/token/ERC20/ERC20.sol\":6768:6793  allowance(owner, spender) */\n      jump\t// in\n    tag_283:\n        /* \"@openzeppelin/contracts/token/ERC20/ERC20.sol\":6741:6793  uint256 currentAllowance = allowance(owner, spender) */\n      swap1\n      pop\n        /* \"@openzeppelin/contracts/token/ERC20/ERC20.sol\":6831:6846  subtractedValue */\n      dup4\n        /* \"@openzeppelin/contracts/token/ERC20/ERC20.sol\":6811:6827  currentAllowance */\n      dup2\n        /* \"@openzeppelin/contracts/token/ERC20/ERC20.sol\":6811:6846  currentAllowance >= subtractedValue */\n      lt\n      iszero\n        /* \"@openzeppelin/contracts/token/ERC20/ERC20.sol\":6803:6888  require(currentAllowance >= subtractedValue, \"ERC20: decreased allowance below zero\") */\n      tag_284\n      jumpi\n      mload(0x40)\n      shl(0xe5, 0x461bcd)\n      dup2\n      mstore\n        /* \"#utility.yul\":7411:7413   */\n      0x20\n        /* \"@openzeppelin/contracts/token/ERC20/ERC20.sol\":6803:6888  require(currentAllowance >= subtractedValue, \"ERC20: decreased allowance below zero\") */\n      0x04\n      dup3\n      add\n        /* \"#utility.yul\":7393:7414   */\n      mstore\n        /* \"#utility.yul\":7450:7452   */\n      0x25\n        /* \"#utility.yul\":7430:7448   */\n      0x24\n      dup3\n      add\n        /* \"#utility.yul\":7423:7453   */\n      mstore\n        /* \"#utility.yul\":7489:7523   */\n      0x45524332303a2064656372656173656420616c6c6f77616e63652062656c6f77\n        /* \"#utility.yul\":7469:7487   */\n      0x44\n      dup3\n      add\n        /* \"#utility.yul\":7462:7524   */\n      mstore\n      shl(0xd8, 0x207a65726f)\n        /* \"#utility.yul\":7540:7558   */\n      0x64\n      dup3\n      add\n        /* \"#utility.yul\":7533:7568   */\n      mstore\n        /* \"#utility.yul\":7585:7604   */\n      0x84\n      add\n        /* \"@openzeppelin/contracts/token/ERC20/ERC20.sol\":6803:6888  require(currentAllowance >= subtractedValue, \"ERC20: decreased allowance below zero\") */\n      tag_208\n        /* \"#utility.yul\":7209:7610   */\n      jump\n        /* \"@openzeppelin/contracts/token/ERC20/ERC20.sol\":6803:6888  require(currentAllowance >= subtractedValue, \"ERC20: decreased allowance below zero\") */\n    tag_284:\n        /* \"@openzeppelin/contracts/token/ERC20/ERC20.sol\":6922:6982  _approve(owner, spender, currentAllowance - subtractedValue) */\n      tag_287\n        /* \"@openzeppelin/contracts/token/ERC20/ERC20.sol\":6931:6936  owner */\n      dup3\n        /* \"@openzeppelin/contracts/token/ERC20/ERC20.sol\":6938:6945  spender */\n      dup7\n        /* \"@openzeppelin/contracts/token/ERC20/ERC20.sol\":6966:6981  subtractedValue */\n      dup7\n        /* \"@openzeppelin/contracts/token/ERC20/ERC20.sol\":6947:6963  currentAllowance */\n      dup5\n        /* \"@openzeppelin/contracts/token/ERC20/ERC20.sol\":6947:6981  currentAllowance - subtractedValue */\n      sub\n        /* \"@openzeppelin/contracts/token/ERC20/ERC20.sol\":6922:6930  _approve */\n      tag_164\n        /* \"@openzeppelin/contracts/token/ERC20/ERC20.sol\":6922:6982  _approve(owner, spender, currentAllowance - subtractedValue) */\n      jump\t// in\n    tag_287:\n      pop\n        /* \"@openzeppelin/contracts/token/ERC20/ERC20.sol\":7010:7014  true */\n      0x01\n      swap5\n        /* \"@openzeppelin/contracts/token/ERC20/ERC20.sol\":6594:7021  function decreaseAllowance(address spender, uint256 subtractedValue) public virtual returns (bool) {... */\n      swap4\n      pop\n      pop\n      pop\n      pop\n      jump\t// out\n        /* \"@openzeppelin/contracts/token/ERC20/ERC20.sol\":3729:3918  function transfer(address to, uint256 amount) public virtual override returns (bool) {... */\n    tag_133:\n        /* \"@openzeppelin/contracts/token/ERC20/ERC20.sol\":3808:3812  bool */\n      0x00\n        /* \"@openzeppelin/contracts/utils/Context.sol\":719:729  msg.sender */\n      caller\n        /* \"@openzeppelin/contracts/token/ERC20/ERC20.sol\":3862:3890  _transfer(owner, to, amount) */\n      tag_163\n        /* \"@openzeppelin/contracts/utils/Context.sol\":719:729  msg.sender */\n      dup2\n        /* \"@openzeppelin/contracts/token/ERC20/ERC20.sol\":3879:3881  to */\n      dup6\n        /* \"@openzeppelin/contracts/token/ERC20/ERC20.sol\":3883:3889  amount */\n      dup6\n        /* \"@openzeppelin/contracts/token/ERC20/ERC20.sol\":3862:3871  _transfer */\n      tag_177\n        /* \"@openzeppelin/contracts/token/ERC20/ERC20.sol\":3862:3890  _transfer(owner, to, amount) */\n      jump\t// in\n        /* \"@openzeppelin/contracts/token/ERC20/ERC20.sol\":3976:4125  function allowance(address owner, address spender) public view virtual override returns (uint256) {... */\n    tag_138:\n      sub(shl(0xa0, 0x01), 0x01)\n        /* \"@openzeppelin/contracts/token/ERC20/ERC20.sol\":4091:4109  _allowances[owner] */\n      swap2\n      dup3\n      and\n        /* \"@openzeppelin/contracts/token/ERC20/ERC20.sol\":4065:4072  uint256 */\n      0x00\n        /* \"@openzeppelin/contracts/token/ERC20/ERC20.sol\":4091:4109  _allowances[owner] */\n      swap1\n      dup2\n      mstore\n        /* \"@openzeppelin/contracts/token/ERC20/ERC20.sol\":4091:4102  _allowances */\n      0x01\n        /* \"@openzeppelin/contracts/token/ERC20/ERC20.sol\":4091:4109  _allowances[owner] */\n      0x20\n      swap1\n      dup2\n      mstore\n      0x40\n      dup1\n      dup4\n      keccak256\n        /* \"@openzeppelin/contracts/token/ERC20/ERC20.sol\":4091:4118  _allowances[owner][spender] */\n      swap4\n      swap1\n      swap5\n      and\n      dup3\n      mstore\n      swap2\n      swap1\n      swap2\n      mstore\n      keccak256\n      sload\n      swap1\n        /* \"@openzeppelin/contracts/token/ERC20/ERC20.sol\":3976:4125  function allowance(address owner, address spender) public view virtual override returns (uint256) {... */\n      jump\t// out\n        /* \"contracts/final/GMD.sol\":2008:2103  function setOpenMint(bool _mintOpen) external onlyOwner {... */\n    tag_143:\n        /* \"@openzeppelin/contracts/access/Ownable.sol\":1094:1107  _checkOwner() */\n      tag_293\n        /* \"@openzeppelin/contracts/access/Ownable.sol\":1094:1105  _checkOwner */\n      tag_187\n        /* \"@openzeppelin/contracts/access/Ownable.sol\":1094:1107  _checkOwner() */\n      jump\t// in\n    tag_293:\n        /* \"contracts/final/GMD.sol\":2075:2083  mintOpen */\n      0x0b\n        /* \"contracts/final/GMD.sol\":2075:2095  mintOpen = _mintOpen */\n      dup1\n      sload\n      not(0xff)\n      and\n      swap2\n      iszero\n      iszero\n      swap2\n      swap1\n      swap2\n      or\n      swap1\n      sstore\n        /* \"contracts/final/GMD.sol\":2008:2103  function setOpenMint(bool _mintOpen) external onlyOwner {... */\n      jump\t// out\n        /* \"contracts/final/GMD.sol\":3929:4061  function remainingMintableTokens() external view returns(uint256){... */\n    tag_145:\n        /* \"contracts/final/GMD.sol\":3986:3993  uint256 */\n      0x00\n        /* \"contracts/final/GMD.sol\":4022:4053  mintCap.sub(this.totalSupply()) */\n      tag_296\n        /* \"contracts/final/GMD.sol\":4034:4038  this */\n      address\n      sub(shl(0xa0, 0x01), 0x01)\n        /* \"contracts/final/GMD.sol\":4034:4050  this.totalSupply */\n      and\n      0x18160ddd\n        /* \"contracts/final/GMD.sol\":4034:4052  this.totalSupply() */\n      mload(0x40)\n      dup2\n      0xffffffff\n      and\n      0xe0\n      shl\n      dup2\n      mstore\n      0x04\n      add\n      0x20\n      mload(0x40)\n      dup1\n      dup4\n      sub\n      dup2\n      dup7\n      gas\n      staticcall\n      iszero\n      dup1\n      iszero\n      tag_298\n      jumpi\n      returndatasize\n      0x00\n      dup1\n      returndatacopy\n      revert(0x00, returndatasize)\n    tag_298:\n      pop\n      pop\n      pop\n      pop\n      mload(0x40)\n      returndatasize\n      not(0x1f)\n      0x1f\n      dup3\n      add\n      and\n      dup3\n      add\n      dup1\n      0x40\n      mstore\n      pop\n      dup2\n      add\n      swap1\n      tag_299\n      swap2\n      swap1\n      tag_204\n      jump\t// in\n    tag_299:\n        /* \"contracts/final/GMD.sol\":4022:4029  mintCap */\n      sload(0x09)\n      swap1\n        /* \"contracts/final/GMD.sol\":4022:4033  mintCap.sub */\n      tag_168\n        /* \"contracts/final/GMD.sol\":4022:4053  mintCap.sub(this.totalSupply()) */\n      jump\t// in\n    tag_296:\n        /* \"contracts/final/GMD.sol\":4015:4053  return mintCap.sub(this.totalSupply()) */\n      swap1\n      pop\n        /* \"contracts/final/GMD.sol\":3929:4061  function remainingMintableTokens() external view returns(uint256){... */\n      swap1\n      jump\t// out\n        /* \"@openzeppelin/contracts/access/Ownable.sol\":2081:2279  function transferOwnership(address newOwner) public virtual onlyOwner {... */\n    tag_149:\n        /* \"@openzeppelin/contracts/access/Ownable.sol\":1094:1107  _checkOwner() */\n      tag_301\n        /* \"@openzeppelin/contracts/access/Ownable.sol\":1094:1105  _checkOwner */\n      tag_187\n        /* \"@openzeppelin/contracts/access/Ownable.sol\":1094:1107  _checkOwner() */\n      jump\t// in\n    tag_301:\n      sub(shl(0xa0, 0x01), 0x01)\n        /* \"@openzeppelin/contracts/access/Ownable.sol\":2169:2191  newOwner != address(0) */\n      dup2\n      and\n        /* \"@openzeppelin/contracts/access/Ownable.sol\":2161:2234  require(newOwner != address(0), \"Ownable: new owner is the zero address\") */\n      tag_303\n      jumpi\n      mload(0x40)\n      shl(0xe5, 0x461bcd)\n      dup2\n      mstore\n        /* \"#utility.yul\":7817:7819   */\n      0x20\n        /* \"@openzeppelin/contracts/access/Ownable.sol\":2161:2234  require(newOwner != address(0), \"Ownable: new owner is the zero address\") */\n      0x04\n      dup3\n      add\n        /* \"#utility.yul\":7799:7820   */\n      mstore\n        /* \"#utility.yul\":7856:7858   */\n      0x26\n        /* \"#utility.yul\":7836:7854   */\n      0x24\n      dup3\n      add\n        /* \"#utility.yul\":7829:7859   */\n      mstore\n        /* \"#utility.yul\":7895:7929   */\n      0x4f776e61626c653a206e6577206f776e657220697320746865207a65726f2061\n        /* \"#utility.yul\":7875:7893   */\n      0x44\n      dup3\n      add\n        /* \"#utility.yul\":7868:7930   */\n      mstore\n      shl(0xd0, 0x646472657373)\n        /* \"#utility.yul\":7946:7964   */\n      0x64\n      dup3\n      add\n        /* \"#utility.yul\":7939:7975   */\n      mstore\n        /* \"#utility.yul\":7992:8011   */\n      0x84\n      add\n        /* \"@openzeppelin/contracts/access/Ownable.sol\":2161:2234  require(newOwner != address(0), \"Ownable: new owner is the zero address\") */\n      tag_208\n        /* \"#utility.yul\":7615:8017   */\n      jump\n        /* \"@openzeppelin/contracts/access/Ownable.sol\":2161:2234  require(newOwner != address(0), \"Ownable: new owner is the zero address\") */\n    tag_303:\n        /* \"@openzeppelin/contracts/access/Ownable.sol\":2244:2272  _transferOwnership(newOwner) */\n      tag_193\n        /* \"@openzeppelin/contracts/access/Ownable.sol\":2263:2271  newOwner */\n      dup2\n        /* \"@openzeppelin/contracts/access/Ownable.sol\":2244:2262  _transferOwnership */\n      tag_234\n        /* \"@openzeppelin/contracts/access/Ownable.sol\":2244:2272  _transferOwnership(newOwner) */\n      jump\t// in\n        /* \"contracts/final/GMD.sol\":1204:1382  function setMintPrice(uint256 _mintPrice) external onlyOwner {... */\n    tag_152:\n        /* \"@openzeppelin/contracts/access/Ownable.sol\":1094:1107  _checkOwner() */\n      tag_308\n        /* \"@openzeppelin/contracts/access/Ownable.sol\":1094:1105  _checkOwner */\n      tag_187\n        /* \"@openzeppelin/contracts/access/Ownable.sol\":1094:1107  _checkOwner() */\n      jump\t// in\n    tag_308:\n        /* \"contracts/final/GMD.sol\":1298:1307  mintPrice */\n      sload(0x08)\n        /* \"contracts/final/GMD.sol\":1284:1294  _mintPrice */\n      dup2\n        /* \"contracts/final/GMD.sol\":1284:1307  _mintPrice >= mintPrice */\n      lt\n      iszero\n        /* \"contracts/final/GMD.sol\":1276:1341  require(_mintPrice >= mintPrice, \"can't be lower than last mint\") */\n      tag_310\n      jumpi\n      mload(0x40)\n      shl(0xe5, 0x461bcd)\n      dup2\n      mstore\n        /* \"#utility.yul\":8224:8226   */\n      0x20\n        /* \"contracts/final/GMD.sol\":1276:1341  require(_mintPrice >= mintPrice, \"can't be lower than last mint\") */\n      0x04\n      dup3\n      add\n        /* \"#utility.yul\":8206:8227   */\n      mstore\n        /* \"#utility.yul\":8263:8265   */\n      0x1d\n        /* \"#utility.yul\":8243:8261   */\n      0x24\n      dup3\n      add\n        /* \"#utility.yul\":8236:8266   */\n      mstore\n        /* \"#utility.yul\":8302:8333   */\n      0x63616e2774206265206c6f776572207468616e206c617374206d696e74000000\n        /* \"#utility.yul\":8282:8300   */\n      0x44\n      dup3\n      add\n        /* \"#utility.yul\":8275:8334   */\n      mstore\n        /* \"#utility.yul\":8351:8369   */\n      0x64\n      add\n        /* \"contracts/final/GMD.sol\":1276:1341  require(_mintPrice >= mintPrice, \"can't be lower than last mint\") */\n      tag_208\n        /* \"#utility.yul\":8022:8375   */\n      jump\n        /* \"contracts/final/GMD.sol\":1276:1341  require(_mintPrice >= mintPrice, \"can't be lower than last mint\") */\n    tag_310:\n        /* \"contracts/final/GMD.sol\":1352:1361  mintPrice */\n      0x08\n        /* \"contracts/final/GMD.sol\":1352:1374  mintPrice = _mintPrice */\n      sstore\n        /* \"contracts/final/GMD.sol\":1204:1382  function setMintPrice(uint256 _mintPrice) external onlyOwner {... */\n      jump\t// out\n        /* \"@openzeppelin/contracts/token/ERC20/ERC20.sol\":10110:10480  function _approve(... */\n    tag_164:\n      sub(shl(0xa0, 0x01), 0x01)\n        /* \"@openzeppelin/contracts/token/ERC20/ERC20.sol\":10241:10260  owner != address(0) */\n      dup4\n      and\n        /* \"@openzeppelin/contracts/token/ERC20/ERC20.sol\":10233:10301  require(owner != address(0), \"ERC20: approve from the zero address\") */\n      tag_315\n      jumpi\n      mload(0x40)\n      shl(0xe5, 0x461bcd)\n      dup2\n      mstore\n        /* \"#utility.yul\":8582:8584   */\n      0x20\n        /* \"@openzeppelin/contracts/token/ERC20/ERC20.sol\":10233:10301  require(owner != address(0), \"ERC20: approve from the zero address\") */\n      0x04\n      dup3\n      add\n        /* \"#utility.yul\":8564:8585   */\n      mstore\n        /* \"#utility.yul\":8621:8623   */\n      0x24\n        /* \"#utility.yul\":8601:8619   */\n      dup1\n      dup3\n      add\n        /* \"#utility.yul\":8594:8624   */\n      mstore\n        /* \"#utility.yul\":8660:8694   */\n      0x45524332303a20617070726f76652066726f6d20746865207a65726f20616464\n        /* \"#utility.yul\":8640:8658   */\n      0x44\n      dup3\n      add\n        /* \"#utility.yul\":8633:8695   */\n      mstore\n      shl(0xe0, 0x72657373)\n        /* \"#utility.yul\":8711:8729   */\n      0x64\n      dup3\n      add\n        /* \"#utility.yul\":8704:8738   */\n      mstore\n        /* \"#utility.yul\":8755:8774   */\n      0x84\n      add\n        /* \"@openzeppelin/contracts/token/ERC20/ERC20.sol\":10233:10301  require(owner != address(0), \"ERC20: approve from the zero address\") */\n      tag_208\n        /* \"#utility.yul\":8380:8780   */\n      jump\n        /* \"@openzeppelin/contracts/token/ERC20/ERC20.sol\":10233:10301  require(owner != address(0), \"ERC20: approve from the zero address\") */\n    tag_315:\n      sub(shl(0xa0, 0x01), 0x01)\n        /* \"@openzeppelin/contracts/token/ERC20/ERC20.sol\":10319:10340  spender != address(0) */\n      dup3\n      and\n        /* \"@openzeppelin/contracts/token/ERC20/ERC20.sol\":10311:10379  require(spender != address(0), \"ERC20: approve to the zero address\") */\n      tag_318\n      jumpi\n      mload(0x40)\n      shl(0xe5, 0x461bcd)\n      dup2\n      mstore\n        /* \"#utility.yul\":8987:8989   */\n      0x20\n        /* \"@openzeppelin/contracts/token/ERC20/ERC20.sol\":10311:10379  require(spender != address(0), \"ERC20: approve to the zero address\") */\n      0x04\n      dup3\n      add\n        /* \"#utility.yul\":8969:8990   */\n      mstore\n        /* \"#utility.yul\":9026:9028   */\n      0x22\n        /* \"#utility.yul\":9006:9024   */\n      0x24\n      dup3\n      add\n        /* \"#utility.yul\":8999:9029   */\n      mstore\n        /* \"#utility.yul\":9065:9099   */\n      0x45524332303a20617070726f766520746f20746865207a65726f206164647265\n        /* \"#utility.yul\":9045:9063   */\n      0x44\n      dup3\n      add\n        /* \"#utility.yul\":9038:9100   */\n      mstore\n      shl(0xf0, 0x7373)\n        /* \"#utility.yul\":9116:9134   */\n      0x64\n      dup3\n      add\n        /* \"#utility.yul\":9109:9141   */\n      mstore\n        /* \"#utility.yul\":9158:9177   */\n      0x84\n      add\n        /* \"@openzeppelin/contracts/token/ERC20/ERC20.sol\":10311:10379  require(spender != address(0), \"ERC20: approve to the zero address\") */\n      tag_208\n        /* \"#utility.yul\":8785:9183   */\n      jump\n        /* \"@openzeppelin/contracts/token/ERC20/ERC20.sol\":10311:10379  require(spender != address(0), \"ERC20: approve to the zero address\") */\n    tag_318:\n      sub(shl(0xa0, 0x01), 0x01)\n        /* \"@openzeppelin/contracts/token/ERC20/ERC20.sol\":10390:10408  _allowances[owner] */\n      dup4\n      dup2\n      and\n      0x00\n      dup2\n      dup2\n      mstore\n        /* \"@openzeppelin/contracts/token/ERC20/ERC20.sol\":10390:10401  _allowances */\n      0x01\n        /* \"@openzeppelin/contracts/token/ERC20/ERC20.sol\":10390:10408  _allowances[owner] */\n      0x20\n      swap1\n      dup2\n      mstore\n      0x40\n      dup1\n      dup4\n      keccak256\n        /* \"@openzeppelin/contracts/token/ERC20/ERC20.sol\":10390:10417  _allowances[owner][spender] */\n      swap5\n      dup8\n      and\n      dup1\n      dup5\n      mstore\n      swap5\n      dup3\n      mstore\n      swap2\n      dup3\n      swap1\n      keccak256\n        /* \"@openzeppelin/contracts/token/ERC20/ERC20.sol\":10390:10426  _allowances[owner][spender] = amount */\n      dup6\n      swap1\n      sstore\n        /* \"@openzeppelin/contracts/token/ERC20/ERC20.sol\":10441:10473  Approval(owner, spender, amount) */\n      swap1\n      mload\n        /* \"#utility.yul\":1440:1465   */\n      dup5\n      dup2\n      mstore\n        /* \"@openzeppelin/contracts/token/ERC20/ERC20.sol\":10441:10473  Approval(owner, spender, amount) */\n      0x8c5be1e5ebec7d5bd14f71427d1e84f3dd0314c0f7b2291e5b200ac8c7c3b925\n      swap2\n        /* \"#utility.yul\":1413:1431   */\n      add\n        /* \"@openzeppelin/contracts/token/ERC20/ERC20.sol\":10441:10473  Approval(owner, spender, amount) */\n    tag_321:\n      mload(0x40)\n      dup1\n      swap2\n      sub\n      swap1\n      log3\n        /* \"@openzeppelin/contracts/token/ERC20/ERC20.sol\":10110:10480  function _approve(... */\n      pop\n      pop\n      pop\n      jump\t// out\n        /* \"@openzeppelin/contracts/utils/math/SafeMath.sol\":3122:3218  function sub(uint256 a, uint256 b) internal pure returns (uint256) {... */\n    tag_168:\n        /* \"@openzeppelin/contracts/utils/math/SafeMath.sol\":3180:3187  uint256 */\n      0x00\n        /* \"@openzeppelin/contracts/utils/math/SafeMath.sol\":3206:3211  a - b */\n      tag_172\n        /* \"@openzeppelin/contracts/utils/math/SafeMath.sol\":3210:3211  b */\n      dup3\n        /* \"@openzeppelin/contracts/utils/math/SafeMath.sol\":3206:3207  a */\n      dup5\n        /* \"@openzeppelin/contracts/utils/math/SafeMath.sol\":3206:3211  a - b */\n      tag_324\n      jump\t// in\n        /* \"@openzeppelin/contracts/token/ERC20/ERC20.sol\":10761:11202  function _spendAllowance(... */\n    tag_175:\n        /* \"@openzeppelin/contracts/token/ERC20/ERC20.sol\":10891:10915  uint256 currentAllowance */\n      0x00\n        /* \"@openzeppelin/contracts/token/ERC20/ERC20.sol\":10918:10943  allowance(owner, spender) */\n      tag_326\n        /* \"@openzeppelin/contracts/token/ERC20/ERC20.sol\":10928:10933  owner */\n      dup5\n        /* \"@openzeppelin/contracts/token/ERC20/ERC20.sol\":10935:10942  spender */\n      dup5\n        /* \"@openzeppelin/contracts/token/ERC20/ERC20.sol\":10918:10927  allowance */\n      tag_138\n        /* \"@openzeppelin/contracts/token/ERC20/ERC20.sol\":10918:10943  allowance(owner, spender) */\n      jump\t// in\n    tag_326:\n        /* \"@openzeppelin/contracts/token/ERC20/ERC20.sol\":10891:10943  uint256 currentAllowance = allowance(owner, spender) */\n      swap1\n      pop\n      not(0x00)\n        /* \"@openzeppelin/contracts/token/ERC20/ERC20.sol\":10957:10973  currentAllowance */\n      dup2\n        /* \"@openzeppelin/contracts/token/ERC20/ERC20.sol\":10957:10994  currentAllowance != type(uint256).max */\n      eq\n        /* \"@openzeppelin/contracts/token/ERC20/ERC20.sol\":10953:11196  if (currentAllowance != type(uint256).max) {... */\n      tag_331\n      jumpi\n        /* \"@openzeppelin/contracts/token/ERC20/ERC20.sol\":11038:11044  amount */\n      dup2\n        /* \"@openzeppelin/contracts/token/ERC20/ERC20.sol\":11018:11034  currentAllowance */\n      dup2\n        /* \"@openzeppelin/contracts/token/ERC20/ERC20.sol\":11018:11044  currentAllowance >= amount */\n      lt\n      iszero\n        /* \"@openzeppelin/contracts/token/ERC20/ERC20.sol\":11010:11078  require(currentAllowance >= amount, \"ERC20: insufficient allowance\") */\n      tag_328\n      jumpi\n      mload(0x40)\n      shl(0xe5, 0x461bcd)\n      dup2\n      mstore\n        /* \"#utility.yul\":9520:9522   */\n      0x20\n        /* \"@openzeppelin/contracts/token/ERC20/ERC20.sol\":11010:11078  require(currentAllowance >= amount, \"ERC20: insufficient allowance\") */\n      0x04\n      dup3\n      add\n        /* \"#utility.yul\":9502:9523   */\n      mstore\n        /* \"#utility.yul\":9559:9561   */\n      0x1d\n        /* \"#utility.yul\":9539:9557   */\n      0x24\n      dup3\n      add\n        /* \"#utility.yul\":9532:9562   */\n      mstore\n        /* \"#utility.yul\":9598:9629   */\n      0x45524332303a20696e73756666696369656e7420616c6c6f77616e6365000000\n        /* \"#utility.yul\":9578:9596   */\n      0x44\n      dup3\n      add\n        /* \"#utility.yul\":9571:9630   */\n      mstore\n        /* \"#utility.yul\":9647:9665   */\n      0x64\n      add\n        /* \"@openzeppelin/contracts/token/ERC20/ERC20.sol\":11010:11078  require(currentAllowance >= amount, \"ERC20: insufficient allowance\") */\n      tag_208\n        /* \"#utility.yul\":9318:9671   */\n      jump\n        /* \"@openzeppelin/contracts/token/ERC20/ERC20.sol\":11010:11078  require(currentAllowance >= amount, \"ERC20: insufficient allowance\") */\n    tag_328:\n        /* \"@openzeppelin/contracts/token/ERC20/ERC20.sol\":11120:11171  _approve(owner, spender, currentAllowance - amount) */\n      tag_331\n        /* \"@openzeppelin/contracts/token/ERC20/ERC20.sol\":11129:11134  owner */\n      dup5\n        /* \"@openzeppelin/contracts/token/ERC20/ERC20.sol\":11136:11143  spender */\n      dup5\n        /* \"@openzeppelin/contracts/token/ERC20/ERC20.sol\":11164:11170  amount */\n      dup5\n        /* \"@openzeppelin/contracts/token/ERC20/ERC20.sol\":11145:11161  currentAllowance */\n      dup5\n        /* \"@openzeppelin/contracts/token/ERC20/ERC20.sol\":11145:11170  currentAllowance - amount */\n      sub\n        /* \"@openzeppelin/contracts/token/ERC20/ERC20.sol\":11120:11128  _approve */\n      tag_164\n        /* \"@openzeppelin/contracts/token/ERC20/ERC20.sol\":11120:11171  _approve(owner, spender, currentAllowance - amount) */\n      jump\t// in\n    tag_331:\n        /* \"@openzeppelin/contracts/token/ERC20/ERC20.sol\":10881:11202  {... */\n      pop\n        /* \"@openzeppelin/contracts/token/ERC20/ERC20.sol\":10761:11202  function _spendAllowance(... */\n      pop\n      pop\n      pop\n      jump\t// out\n        /* \"@openzeppelin/contracts/token/ERC20/ERC20.sol\":7475:8126  function _transfer(... */\n    tag_177:\n      sub(shl(0xa0, 0x01), 0x01)\n        /* \"@openzeppelin/contracts/token/ERC20/ERC20.sol\":7601:7619  from != address(0) */\n      dup4\n      and\n        /* \"@openzeppelin/contracts/token/ERC20/ERC20.sol\":7593:7661  require(from != address(0), \"ERC20: transfer from the zero address\") */\n      tag_333\n      jumpi\n      mload(0x40)\n      shl(0xe5, 0x461bcd)\n      dup2\n      mstore\n        /* \"#utility.yul\":9878:9880   */\n      0x20\n        /* \"@openzeppelin/contracts/token/ERC20/ERC20.sol\":7593:7661  require(from != address(0), \"ERC20: transfer from the zero address\") */\n      0x04\n      dup3\n      add\n        /* \"#utility.yul\":9860:9881   */\n      mstore\n        /* \"#utility.yul\":9917:9919   */\n      0x25\n        /* \"#utility.yul\":9897:9915   */\n      0x24\n      dup3\n      add\n        /* \"#utility.yul\":9890:9920   */\n      mstore\n        /* \"#utility.yul\":9956:9990   */\n      0x45524332303a207472616e736665722066726f6d20746865207a65726f206164\n        /* \"#utility.yul\":9936:9954   */\n      0x44\n      dup3\n      add\n        /* \"#utility.yul\":9929:9991   */\n      mstore\n      shl(0xd8, 0x6472657373)\n        /* \"#utility.yul\":10007:10025   */\n      0x64\n      dup3\n      add\n        /* \"#utility.yul\":10000:10035   */\n      mstore\n        /* \"#utility.yul\":10052:10071   */\n      0x84\n      add\n        /* \"@openzeppelin/contracts/token/ERC20/ERC20.sol\":7593:7661  require(from != address(0), \"ERC20: transfer from the zero address\") */\n      tag_208\n        /* \"#utility.yul\":9676:10077   */\n      jump\n        /* \"@openzeppelin/contracts/token/ERC20/ERC20.sol\":7593:7661  require(from != address(0), \"ERC20: transfer from the zero address\") */\n    tag_333:\n      sub(shl(0xa0, 0x01), 0x01)\n        /* \"@openzeppelin/contracts/token/ERC20/ERC20.sol\":7679:7695  to != address(0) */\n      dup3\n      and\n        /* \"@openzeppelin/contracts/token/ERC20/ERC20.sol\":7671:7735  require(to != address(0), \"ERC20: transfer to the zero address\") */\n      tag_336\n      jumpi\n      mload(0x40)\n      shl(0xe5, 0x461bcd)\n      dup2\n      mstore\n        /* \"#utility.yul\":10284:10286   */\n      0x20\n        /* \"@openzeppelin/contracts/token/ERC20/ERC20.sol\":7671:7735  require(to != address(0), \"ERC20: transfer to the zero address\") */\n      0x04\n      dup3\n      add\n        /* \"#utility.yul\":10266:10287   */\n      mstore\n        /* \"#utility.yul\":10323:10325   */\n      0x23\n        /* \"#utility.yul\":10303:10321   */\n      0x24\n      dup3\n      add\n        /* \"#utility.yul\":10296:10326   */\n      mstore\n        /* \"#utility.yul\":10362:10396   */\n      0x45524332303a207472616e7366657220746f20746865207a65726f2061646472\n        /* \"#utility.yul\":10342:10360   */\n      0x44\n      dup3\n      add\n        /* \"#utility.yul\":10335:10397   */\n      mstore\n      shl(0xe8, 0x657373)\n        /* \"#utility.yul\":10413:10431   */\n      0x64\n      dup3\n      add\n        /* \"#utility.yul\":10406:10439   */\n      mstore\n        /* \"#utility.yul\":10456:10475   */\n      0x84\n      add\n        /* \"@openzeppelin/contracts/token/ERC20/ERC20.sol\":7671:7735  require(to != address(0), \"ERC20: transfer to the zero address\") */\n      tag_208\n        /* \"#utility.yul\":10082:10481   */\n      jump\n        /* \"@openzeppelin/contracts/token/ERC20/ERC20.sol\":7671:7735  require(to != address(0), \"ERC20: transfer to the zero address\") */\n    tag_336:\n      sub(shl(0xa0, 0x01), 0x01)\n        /* \"@openzeppelin/contracts/token/ERC20/ERC20.sol\":7817:7832  _balances[from] */\n      dup4\n      and\n        /* \"@openzeppelin/contracts/token/ERC20/ERC20.sol\":7795:7814  uint256 fromBalance */\n      0x00\n        /* \"@openzeppelin/contracts/token/ERC20/ERC20.sol\":7817:7832  _balances[from] */\n      swap1\n      dup2\n      mstore\n      0x20\n      dup2\n      swap1\n      mstore\n      0x40\n      swap1\n      keccak256\n      sload\n        /* \"@openzeppelin/contracts/token/ERC20/ERC20.sol\":7850:7871  fromBalance >= amount */\n      dup2\n      dup2\n      lt\n      iszero\n        /* \"@openzeppelin/contracts/token/ERC20/ERC20.sol\":7842:7914  require(fromBalance >= amount, \"ERC20: transfer amount exceeds balance\") */\n      tag_341\n      jumpi\n      mload(0x40)\n      shl(0xe5, 0x461bcd)\n      dup2\n      mstore\n        /* \"#utility.yul\":10688:10690   */\n      0x20\n        /* \"@openzeppelin/contracts/token/ERC20/ERC20.sol\":7842:7914  require(fromBalance >= amount, \"ERC20: transfer amount exceeds balance\") */\n      0x04\n      dup3\n      add\n        /* \"#utility.yul\":10670:10691   */\n      mstore\n        /* \"#utility.yul\":10727:10729   */\n      0x26\n        /* \"#utility.yul\":10707:10725   */\n      0x24\n      dup3\n      add\n        /* \"#utility.yul\":10700:10730   */\n      mstore\n        /* \"#utility.yul\":10766:10800   */\n      0x45524332303a207472616e7366657220616d6f756e7420657863656564732062\n        /* \"#utility.yul\":10746:10764   */\n      0x44\n      dup3\n      add\n        /* \"#utility.yul\":10739:10801   */\n      mstore\n      shl(0xd0, 0x616c616e6365)\n        /* \"#utility.yul\":10817:10835   */\n      0x64\n      dup3\n      add\n        /* \"#utility.yul\":10810:10846   */\n      mstore\n        /* \"#utility.yul\":10863:10882   */\n      0x84\n      add\n        /* \"@openzeppelin/contracts/token/ERC20/ERC20.sol\":7842:7914  require(fromBalance >= amount, \"ERC20: transfer amount exceeds balance\") */\n      tag_208\n        /* \"#utility.yul\":10486:10888   */\n      jump\n        /* \"@openzeppelin/contracts/token/ERC20/ERC20.sol\":7842:7914  require(fromBalance >= amount, \"ERC20: transfer amount exceeds balance\") */\n    tag_341:\n      sub(shl(0xa0, 0x01), 0x01)\n        /* \"@openzeppelin/contracts/token/ERC20/ERC20.sol\":7948:7963  _balances[from] */\n      dup1\n      dup6\n      and\n        /* \"@openzeppelin/contracts/token/ERC20/ERC20.sol\":7948:7957  _balances */\n      0x00\n        /* \"@openzeppelin/contracts/token/ERC20/ERC20.sol\":7948:7963  _balances[from] */\n      swap1\n      dup2\n      mstore\n      0x20\n      dup2\n      swap1\n      mstore\n      0x40\n      dup1\n      dup3\n      keccak256\n        /* \"@openzeppelin/contracts/token/ERC20/ERC20.sol\":7966:7986  fromBalance - amount */\n      dup6\n      dup6\n      sub\n        /* \"@openzeppelin/contracts/token/ERC20/ERC20.sol\":7948:7986  _balances[from] = fromBalance - amount */\n      swap1\n      sstore\n        /* \"@openzeppelin/contracts/token/ERC20/ERC20.sol\":8006:8019  _balances[to] */\n      swap2\n      dup6\n      and\n      dup2\n      mstore\n      swap1\n      dup2\n      keccak256\n        /* \"@openzeppelin/contracts/token/ERC20/ERC20.sol\":8006:8029  _balances[to] += amount */\n      dup1\n      sload\n        /* \"@openzeppelin/contracts/token/ERC20/ERC20.sol\":7980:7986  amount */\n      dup5\n      swap3\n        /* \"@openzeppelin/contracts/token/ERC20/ERC20.sol\":7948:7957  _balances */\n      swap1\n        /* \"@openzeppelin/contracts/token/ERC20/ERC20.sol\":8006:8029  _balances[to] += amount */\n      tag_344\n      swap1\n        /* \"@openzeppelin/contracts/token/ERC20/ERC20.sol\":7980:7986  amount */\n      dup5\n      swap1\n        /* \"@openzeppelin/contracts/token/ERC20/ERC20.sol\":8006:8029  _balances[to] += amount */\n      tag_184\n      jump\t// in\n    tag_344:\n      swap3\n      pop\n      pop\n      dup2\n      swap1\n      sstore\n      pop\n        /* \"@openzeppelin/contracts/token/ERC20/ERC20.sol\":8060:8062  to */\n      dup3\n      sub(shl(0xa0, 0x01), 0x01)\n        /* \"@openzeppelin/contracts/token/ERC20/ERC20.sol\":8045:8071  Transfer(from, to, amount) */\n      and\n        /* \"@openzeppelin/contracts/token/ERC20/ERC20.sol\":8054:8058  from */\n      dup5\n      sub(shl(0xa0, 0x01), 0x01)\n        /* \"@openzeppelin/contracts/token/ERC20/ERC20.sol\":8045:8071  Transfer(from, to, amount) */\n      and\n      0xddf252ad1be2c89b69c2b068fc378daa952ba7f163c4a11628f55a4df523b3ef\n        /* \"@openzeppelin/contracts/token/ERC20/ERC20.sol\":8064:8070  amount */\n      dup5\n        /* \"@openzeppelin/contracts/token/ERC20/ERC20.sol\":8045:8071  Transfer(from, to, amount) */\n      mload(0x40)\n      tag_345\n      swap2\n        /* \"#utility.yul\":1440:1465   */\n      dup2\n      mstore\n        /* \"#utility.yul\":1428:1430   */\n      0x20\n        /* \"#utility.yul\":1413:1431   */\n      add\n      swap1\n        /* \"#utility.yul\":1294:1471   */\n      jump\n        /* \"@openzeppelin/contracts/token/ERC20/ERC20.sol\":8045:8071  Transfer(from, to, amount) */\n    tag_345:\n      mload(0x40)\n      dup1\n      swap2\n      sub\n      swap1\n      log3\n        /* \"@openzeppelin/contracts/token/ERC20/ERC20.sol\":8082:8119  _afterTokenTransfer(from, to, amount) */\n      tag_331\n        /* \"@openzeppelin/contracts/token/ERC20/ERC20.sol\":9111:9687  function _burn(address account, uint256 amount) internal virtual {... */\n      jump\n        /* \"@openzeppelin/contracts/access/Ownable.sol\":1359:1489  function _checkOwner() internal view virtual {... */\n    tag_187:\n        /* \"@openzeppelin/contracts/access/Ownable.sol\":1273:1279  _owner */\n      and(sub(shl(0xa0, 0x01), 0x01), sload(0x05))\n        /* \"@openzeppelin/contracts/utils/Context.sol\":719:729  msg.sender */\n      caller\n        /* \"@openzeppelin/contracts/access/Ownable.sol\":1422:1445  owner() == _msgSender() */\n      eq\n        /* \"@openzeppelin/contracts/access/Ownable.sol\":1414:1482  require(owner() == _msgSender(), \"Ownable: caller is not the owner\") */\n      tag_198\n      jumpi\n      mload(0x40)\n      shl(0xe5, 0x461bcd)\n      dup2\n      mstore\n        /* \"#utility.yul\":11095:11097   */\n      0x20\n        /* \"@openzeppelin/contracts/access/Ownable.sol\":1414:1482  require(owner() == _msgSender(), \"Ownable: caller is not the owner\") */\n      0x04\n      dup3\n      add\n        /* \"#utility.yul\":11077:11098   */\n      dup2\n      swap1\n      mstore\n        /* \"#utility.yul\":11114:11132   */\n      0x24\n      dup3\n      add\n        /* \"#utility.yul\":11107:11137   */\n      mstore\n        /* \"#utility.yul\":11173:11207   */\n      0x4f776e61626c653a2063616c6c6572206973206e6f7420746865206f776e6572\n        /* \"#utility.yul\":11153:11171   */\n      0x44\n      dup3\n      add\n        /* \"#utility.yul\":11146:11208   */\n      mstore\n        /* \"#utility.yul\":11225:11243   */\n      0x64\n      add\n        /* \"@openzeppelin/contracts/access/Ownable.sol\":1414:1482  require(owner() == _msgSender(), \"Ownable: caller is not the owner\") */\n      tag_208\n        /* \"#utility.yul\":10893:11249   */\n      jump\n        /* \"@openzeppelin/contracts/token/ERC20/ERC20.sol\":9111:9687  function _burn(address account, uint256 amount) internal virtual {... */\n    tag_194:\n      sub(shl(0xa0, 0x01), 0x01)\n        /* \"@openzeppelin/contracts/token/ERC20/ERC20.sol\":9194:9215  account != address(0) */\n      dup3\n      and\n        /* \"@openzeppelin/contracts/token/ERC20/ERC20.sol\":9186:9253  require(account != address(0), \"ERC20: burn from the zero address\") */\n      tag_355\n      jumpi\n      mload(0x40)\n      shl(0xe5, 0x461bcd)\n      dup2\n      mstore\n        /* \"#utility.yul\":11456:11458   */\n      0x20\n        /* \"@openzeppelin/contracts/token/ERC20/ERC20.sol\":9186:9253  require(account != address(0), \"ERC20: burn from the zero address\") */\n      0x04\n      dup3\n      add\n        /* \"#utility.yul\":11438:11459   */\n      mstore\n        /* \"#utility.yul\":11495:11497   */\n      0x21\n        /* \"#utility.yul\":11475:11493   */\n      0x24\n      dup3\n      add\n        /* \"#utility.yul\":11468:11498   */\n      mstore\n        /* \"#utility.yul\":11534:11568   */\n      0x45524332303a206275726e2066726f6d20746865207a65726f20616464726573\n        /* \"#utility.yul\":11514:11532   */\n      0x44\n      dup3\n      add\n        /* \"#utility.yul\":11507:11569   */\n      mstore\n      shl(0xf8, 0x73)\n        /* \"#utility.yul\":11585:11603   */\n      0x64\n      dup3\n      add\n        /* \"#utility.yul\":11578:11609   */\n      mstore\n        /* \"#utility.yul\":11626:11645   */\n      0x84\n      add\n        /* \"@openzeppelin/contracts/token/ERC20/ERC20.sol\":9186:9253  require(account != address(0), \"ERC20: burn from the zero address\") */\n      tag_208\n        /* \"#utility.yul\":11254:11651   */\n      jump\n        /* \"@openzeppelin/contracts/token/ERC20/ERC20.sol\":9186:9253  require(account != address(0), \"ERC20: burn from the zero address\") */\n    tag_355:\n      sub(shl(0xa0, 0x01), 0x01)\n        /* \"@openzeppelin/contracts/token/ERC20/ERC20.sol\":9349:9367  _balances[account] */\n      dup3\n      and\n        /* \"@openzeppelin/contracts/token/ERC20/ERC20.sol\":9324:9346  uint256 accountBalance */\n      0x00\n        /* \"@openzeppelin/contracts/token/ERC20/ERC20.sol\":9349:9367  _balances[account] */\n      swap1\n      dup2\n      mstore\n      0x20\n      dup2\n      swap1\n      mstore\n      0x40\n      swap1\n      keccak256\n      sload\n        /* \"@openzeppelin/contracts/token/ERC20/ERC20.sol\":9385:9409  accountBalance >= amount */\n      dup2\n      dup2\n      lt\n      iszero\n        /* \"@openzeppelin/contracts/token/ERC20/ERC20.sol\":9377:9448  require(accountBalance >= amount, \"ERC20: burn amount exceeds balance\") */\n      tag_359\n      jumpi\n      mload(0x40)\n      shl(0xe5, 0x461bcd)\n      dup2\n      mstore\n        /* \"#utility.yul\":11858:11860   */\n      0x20\n        /* \"@openzeppelin/contracts/token/ERC20/ERC20.sol\":9377:9448  require(accountBalance >= amount, \"ERC20: burn amount exceeds balance\") */\n      0x04\n      dup3\n      add\n        /* \"#utility.yul\":11840:11861   */\n      mstore\n        /* \"#utility.yul\":11897:11899   */\n      0x22\n        /* \"#utility.yul\":11877:11895   */\n      0x24\n      dup3\n      add\n        /* \"#utility.yul\":11870:11900   */\n      mstore\n        /* \"#utility.yul\":11936:11970   */\n      0x45524332303a206275726e20616d6f756e7420657863656564732062616c616e\n        /* \"#utility.yul\":11916:11934   */\n      0x44\n      dup3\n      add\n        /* \"#utility.yul\":11909:11971   */\n      mstore\n      shl(0xf0, 0x6365)\n        /* \"#utility.yul\":11987:12005   */\n      0x64\n      dup3\n      add\n        /* \"#utility.yul\":11980:12012   */\n      mstore\n        /* \"#utility.yul\":12029:12048   */\n      0x84\n      add\n        /* \"@openzeppelin/contracts/token/ERC20/ERC20.sol\":9377:9448  require(accountBalance >= amount, \"ERC20: burn amount exceeds balance\") */\n      tag_208\n        /* \"#utility.yul\":11656:12054   */\n      jump\n        /* \"@openzeppelin/contracts/token/ERC20/ERC20.sol\":9377:9448  require(accountBalance >= amount, \"ERC20: burn amount exceeds balance\") */\n    tag_359:\n      sub(shl(0xa0, 0x01), 0x01)\n        /* \"@openzeppelin/contracts/token/ERC20/ERC20.sol\":9482:9500  _balances[account] */\n      dup4\n      and\n        /* \"@openzeppelin/contracts/token/ERC20/ERC20.sol\":9482:9491  _balances */\n      0x00\n        /* \"@openzeppelin/contracts/token/ERC20/ERC20.sol\":9482:9500  _balances[account] */\n      swap1\n      dup2\n      mstore\n      0x20\n      dup2\n      swap1\n      mstore\n      0x40\n      dup2\n      keccak256\n        /* \"@openzeppelin/contracts/token/ERC20/ERC20.sol\":9503:9526  accountBalance - amount */\n      dup4\n      dup4\n      sub\n        /* \"@openzeppelin/contracts/token/ERC20/ERC20.sol\":9482:9526  _balances[account] = accountBalance - amount */\n      swap1\n      sstore\n        /* \"@openzeppelin/contracts/token/ERC20/ERC20.sol\":9546:9558  _totalSupply */\n      0x02\n        /* \"@openzeppelin/contracts/token/ERC20/ERC20.sol\":9546:9568  _totalSupply -= amount */\n      dup1\n      sload\n        /* \"@openzeppelin/contracts/token/ERC20/ERC20.sol\":9520:9526  amount */\n      dup5\n      swap3\n        /* \"@openzeppelin/contracts/token/ERC20/ERC20.sol\":9482:9491  _balances */\n      swap1\n        /* \"@openzeppelin/contracts/token/ERC20/ERC20.sol\":9546:9568  _totalSupply -= amount */\n      tag_362\n      swap1\n        /* \"@openzeppelin/contracts/token/ERC20/ERC20.sol\":9520:9526  amount */\n      dup5\n      swap1\n        /* \"@openzeppelin/contracts/token/ERC20/ERC20.sol\":9546:9568  _totalSupply -= amount */\n      tag_324\n      jump\t// in\n    tag_362:\n      swap1\n      swap2\n      sstore\n      pop\n      pop\n        /* \"@openzeppelin/contracts/token/ERC20/ERC20.sol\":9584:9621  Transfer(account, address(0), amount) */\n      mload(0x40)\n        /* \"#utility.yul\":1440:1465   */\n      dup3\n      dup2\n      mstore\n        /* \"@openzeppelin/contracts/token/ERC20/ERC20.sol\":9610:9611  0 */\n      0x00\n      swap1\n      sub(shl(0xa0, 0x01), 0x01)\n        /* \"@openzeppelin/contracts/token/ERC20/ERC20.sol\":9584:9621  Transfer(account, address(0), amount) */\n      dup6\n      and\n      swap1\n      0xddf252ad1be2c89b69c2b068fc378daa952ba7f163c4a11628f55a4df523b3ef\n      swap1\n        /* \"#utility.yul\":1428:1430   */\n      0x20\n        /* \"#utility.yul\":1413:1431   */\n      add\n        /* \"@openzeppelin/contracts/token/ERC20/ERC20.sol\":9584:9621  Transfer(account, address(0), amount) */\n      tag_321\n        /* \"#utility.yul\":1294:1471   */\n      jump\n        /* \"@openzeppelin/contracts/token/ERC20/ERC20.sol\":9632:9680  _afterTokenTransfer(account, address(0), amount) */\n    tag_364:\n        /* \"@openzeppelin/contracts/token/ERC20/ERC20.sol\":9176:9687  {... */\n      pop\n        /* \"@openzeppelin/contracts/token/ERC20/ERC20.sol\":9111:9687  function _burn(address account, uint256 amount) internal virtual {... */\n      pop\n      pop\n      jump\t// out\n        /* \"@openzeppelin/contracts/token/ERC20/utils/SafeERC20.sol\":763:968  function safeTransfer(... */\n    tag_205:\n        /* \"@openzeppelin/contracts/token/ERC20/utils/SafeERC20.sol\":902:960  abi.encodeWithSelector(token.transfer.selector, to, value) */\n      mload(0x40)\n      sub(shl(0xa0, 0x01), 0x01)\n        /* \"#utility.yul\":5488:5520   */\n      dup4\n      and\n        /* \"@openzeppelin/contracts/token/ERC20/utils/SafeERC20.sol\":902:960  abi.encodeWithSelector(token.transfer.selector, to, value) */\n      0x24\n      dup3\n      add\n        /* \"#utility.yul\":5470:5521   */\n      mstore\n        /* \"#utility.yul\":5537:5555   */\n      0x44\n      dup2\n      add\n        /* \"#utility.yul\":5530:5564   */\n      dup3\n      swap1\n      mstore\n        /* \"@openzeppelin/contracts/token/ERC20/utils/SafeERC20.sol\":875:961  _callOptionalReturn(token, abi.encodeWithSelector(token.transfer.selector, to, value)) */\n      tag_364\n      swap1\n        /* \"@openzeppelin/contracts/token/ERC20/utils/SafeERC20.sol\":895:900  token */\n      dup5\n      swap1\n      shl(0xe0, 0xa9059cbb)\n        /* \"@openzeppelin/contracts/token/ERC20/utils/SafeERC20.sol\":925:948  token.transfer.selector */\n      swap1\n        /* \"#utility.yul\":5443:5461   */\n      0x64\n      add\n        /* \"@openzeppelin/contracts/token/ERC20/utils/SafeERC20.sol\":902:960  abi.encodeWithSelector(token.transfer.selector, to, value) */\n    tag_367:\n      0x40\n      dup1\n      mload\n      not(0x1f)\n      dup2\n      dup5\n      sub\n      add\n      dup2\n      mstore\n      swap2\n      swap1\n      mstore\n      0x20\n      dup2\n      add\n      dup1\n      mload\n      sub(shl(0xe0, 0x01), 0x01)\n      and\n      not(sub(shl(0xe0, 0x01), 0x01))\n      swap1\n      swap4\n      and\n      swap3\n      swap1\n      swap3\n      or\n      swap1\n      swap2\n      mstore\n        /* \"@openzeppelin/contracts/token/ERC20/utils/SafeERC20.sol\":875:894  _callOptionalReturn */\n      tag_368\n        /* \"@openzeppelin/contracts/token/ERC20/utils/SafeERC20.sol\":875:961  _callOptionalReturn(token, abi.encodeWithSelector(token.transfer.selector, to, value)) */\n      jump\t// in\n        /* \"@openzeppelin/contracts/utils/math/SafeMath.sol\":3465:3561  function mul(uint256 a, uint256 b) internal pure returns (uint256) {... */\n    tag_219:\n        /* \"@openzeppelin/contracts/utils/math/SafeMath.sol\":3523:3530  uint256 */\n      0x00\n        /* \"@openzeppelin/contracts/utils/math/SafeMath.sol\":3549:3554  a * b */\n      tag_172\n        /* \"@openzeppelin/contracts/utils/math/SafeMath.sol\":3553:3554  b */\n      dup3\n        /* \"@openzeppelin/contracts/utils/math/SafeMath.sol\":3549:3550  a */\n      dup5\n        /* \"@openzeppelin/contracts/utils/math/SafeMath.sol\":3549:3554  a * b */\n      tag_371\n      jump\t// in\n        /* \"@openzeppelin/contracts/utils/math/SafeMath.sol\":3850:3946  function div(uint256 a, uint256 b) internal pure returns (uint256) {... */\n    tag_220:\n        /* \"@openzeppelin/contracts/utils/math/SafeMath.sol\":3908:3915  uint256 */\n      0x00\n        /* \"@openzeppelin/contracts/utils/math/SafeMath.sol\":3934:3939  a / b */\n      tag_172\n        /* \"@openzeppelin/contracts/utils/math/SafeMath.sol\":3938:3939  b */\n      dup3\n        /* \"@openzeppelin/contracts/utils/math/SafeMath.sol\":3934:3935  a */\n      dup5\n        /* \"@openzeppelin/contracts/utils/math/SafeMath.sol\":3934:3939  a / b */\n      tag_374\n      jump\t// in\n        /* \"@openzeppelin/contracts/access/Ownable.sol\":2433:2620  function _transferOwnership(address newOwner) internal virtual {... */\n    tag_234:\n        /* \"@openzeppelin/contracts/access/Ownable.sol\":2525:2531  _owner */\n      0x05\n      dup1\n      sload\n      sub(shl(0xa0, 0x01), 0x01)\n        /* \"@openzeppelin/contracts/access/Ownable.sol\":2541:2558  _owner = newOwner */\n      dup4\n      dup2\n      and\n      not(sub(shl(0xa0, 0x01), 0x01))\n      dup4\n      and\n      dup2\n      or\n      swap1\n      swap4\n      sstore\n        /* \"@openzeppelin/contracts/access/Ownable.sol\":2573:2613  OwnershipTransferred(oldOwner, newOwner) */\n      mload(0x40)\n        /* \"@openzeppelin/contracts/access/Ownable.sol\":2525:2531  _owner */\n      swap2\n      and\n      swap2\n        /* \"@openzeppelin/contracts/access/Ownable.sol\":2541:2558  _owner = newOwner */\n      swap1\n        /* \"@openzeppelin/contracts/access/Ownable.sol\":2525:2531  _owner */\n      dup3\n      swap1\n        /* \"@openzeppelin/contracts/access/Ownable.sol\":2573:2613  OwnershipTransferred(oldOwner, newOwner) */\n      0x8be0079c531659141344cd1fd0a4f28419497f9722a3daafe3b4186f6b6457e0\n      swap1\n        /* \"@openzeppelin/contracts/access/Ownable.sol\":2506:2522  address oldOwner */\n      0x00\n      swap1\n        /* \"@openzeppelin/contracts/access/Ownable.sol\":2573:2613  OwnershipTransferred(oldOwner, newOwner) */\n      log3\n        /* \"@openzeppelin/contracts/access/Ownable.sol\":2496:2620  {... */\n      pop\n        /* \"@openzeppelin/contracts/access/Ownable.sol\":2433:2620  function _transferOwnership(address newOwner) internal virtual {... */\n      pop\n      jump\t// out\n        /* \"@openzeppelin/contracts/utils/math/SafeMath.sol\":2755:2851  function add(uint256 a, uint256 b) internal pure returns (uint256) {... */\n    tag_272:\n        /* \"@openzeppelin/contracts/utils/math/SafeMath.sol\":2813:2820  uint256 */\n      0x00\n        /* \"@openzeppelin/contracts/utils/math/SafeMath.sol\":2839:2844  a + b */\n      tag_172\n        /* \"@openzeppelin/contracts/utils/math/SafeMath.sol\":2843:2844  b */\n      dup3\n        /* \"@openzeppelin/contracts/utils/math/SafeMath.sol\":2839:2840  a */\n      dup5\n        /* \"@openzeppelin/contracts/utils/math/SafeMath.sol\":2839:2844  a + b */\n      tag_184\n      jump\t// in\n        /* \"@openzeppelin/contracts/token/ERC20/ERC20.sol\":8402:8791  function _mint(address account, uint256 amount) internal virtual {... */\n    tag_278:\n      sub(shl(0xa0, 0x01), 0x01)\n        /* \"@openzeppelin/contracts/token/ERC20/ERC20.sol\":8485:8506  account != address(0) */\n      dup3\n      and\n        /* \"@openzeppelin/contracts/token/ERC20/ERC20.sol\":8477:8542  require(account != address(0), \"ERC20: mint to the zero address\") */\n      tag_379\n      jumpi\n      mload(0x40)\n      shl(0xe5, 0x461bcd)\n      dup2\n      mstore\n        /* \"#utility.yul\":12656:12658   */\n      0x20\n        /* \"@openzeppelin/contracts/token/ERC20/ERC20.sol\":8477:8542  require(account != address(0), \"ERC20: mint to the zero address\") */\n      0x04\n      dup3\n      add\n        /* \"#utility.yul\":12638:12659   */\n      mstore\n        /* \"#utility.yul\":12695:12697   */\n      0x1f\n        /* \"#utility.yul\":12675:12693   */\n      0x24\n      dup3\n      add\n        /* \"#utility.yul\":12668:12698   */\n      mstore\n        /* \"#utility.yul\":12734:12767   */\n      0x45524332303a206d696e7420746f20746865207a65726f206164647265737300\n        /* \"#utility.yul\":12714:12732   */\n      0x44\n      dup3\n      add\n        /* \"#utility.yul\":12707:12768   */\n      mstore\n        /* \"#utility.yul\":12785:12803   */\n      0x64\n      add\n        /* \"@openzeppelin/contracts/token/ERC20/ERC20.sol\":8477:8542  require(account != address(0), \"ERC20: mint to the zero address\") */\n      tag_208\n        /* \"#utility.yul\":12454:12809   */\n      jump\n        /* \"@openzeppelin/contracts/token/ERC20/ERC20.sol\":8477:8542  require(account != address(0), \"ERC20: mint to the zero address\") */\n    tag_379:\n        /* \"@openzeppelin/contracts/token/ERC20/ERC20.sol\":8629:8635  amount */\n      dup1\n        /* \"@openzeppelin/contracts/token/ERC20/ERC20.sol\":8613:8625  _totalSupply */\n      0x02\n      0x00\n        /* \"@openzeppelin/contracts/token/ERC20/ERC20.sol\":8613:8635  _totalSupply += amount */\n      dup3\n      dup3\n      sload\n      tag_383\n      swap2\n      swap1\n      tag_184\n      jump\t// in\n    tag_383:\n      swap1\n      swap2\n      sstore\n      pop\n      pop\n      sub(shl(0xa0, 0x01), 0x01)\n        /* \"@openzeppelin/contracts/token/ERC20/ERC20.sol\":8645:8663  _balances[account] */\n      dup3\n      and\n        /* \"@openzeppelin/contracts/token/ERC20/ERC20.sol\":8645:8654  _balances */\n      0x00\n        /* \"@openzeppelin/contracts/token/ERC20/ERC20.sol\":8645:8663  _balances[account] */\n      swap1\n      dup2\n      mstore\n      0x20\n      dup2\n      swap1\n      mstore\n      0x40\n      dup2\n      keccak256\n        /* \"@openzeppelin/contracts/token/ERC20/ERC20.sol\":8645:8673  _balances[account] += amount */\n      dup1\n      sload\n        /* \"@openzeppelin/contracts/token/ERC20/ERC20.sol\":8667:8673  amount */\n      dup4\n      swap3\n        /* \"@openzeppelin/contracts/token/ERC20/ERC20.sol\":8645:8654  _balances */\n      swap1\n        /* \"@openzeppelin/contracts/token/ERC20/ERC20.sol\":8645:8673  _balances[account] += amount */\n      tag_384\n      swap1\n        /* \"@openzeppelin/contracts/token/ERC20/ERC20.sol\":8667:8673  amount */\n      dup5\n      swap1\n        /* \"@openzeppelin/contracts/token/ERC20/ERC20.sol\":8645:8673  _balances[account] += amount */\n      tag_184\n      jump\t// in\n    tag_384:\n      swap1\n      swap2\n      sstore\n      pop\n      pop\n        /* \"@openzeppelin/contracts/token/ERC20/ERC20.sol\":8688:8725  Transfer(address(0), account, amount) */\n      mload(0x40)\n        /* \"#utility.yul\":1440:1465   */\n      dup2\n      dup2\n      mstore\n      sub(shl(0xa0, 0x01), 0x01)\n        /* \"@openzeppelin/contracts/token/ERC20/ERC20.sol\":8688:8725  Transfer(address(0), account, amount) */\n      dup4\n      and\n      swap1\n        /* \"@openzeppelin/contracts/token/ERC20/ERC20.sol\":8705:8706  0 */\n      0x00\n      swap1\n        /* \"@openzeppelin/contracts/token/ERC20/ERC20.sol\":8688:8725  Transfer(address(0), account, amount) */\n      0xddf252ad1be2c89b69c2b068fc378daa952ba7f163c4a11628f55a4df523b3ef\n      swap1\n        /* \"#utility.yul\":1428:1430   */\n      0x20\n        /* \"#utility.yul\":1413:1431   */\n      add\n        /* \"@openzeppelin/contracts/token/ERC20/ERC20.sol\":8688:8725  Transfer(address(0), account, amount) */\n      mload(0x40)\n      dup1\n      swap2\n      sub\n      swap1\n      log3\n        /* \"@openzeppelin/contracts/token/ERC20/ERC20.sol\":8402:8791  function _mint(address account, uint256 amount) internal virtual {... */\n      pop\n      pop\n      jump\t// out\n        /* \"@openzeppelin/contracts/token/ERC20/utils/SafeERC20.sol\":974:1215  function safeTransferFrom(... */\n    tag_280:\n        /* \"@openzeppelin/contracts/token/ERC20/utils/SafeERC20.sol\":1139:1207  abi.encodeWithSelector(token.transferFrom.selector, from, to, value) */\n      mload(0x40)\n      sub(shl(0xa0, 0x01), 0x01)\n        /* \"#utility.yul\":13072:13087   */\n      dup1\n      dup6\n      and\n        /* \"@openzeppelin/contracts/token/ERC20/utils/SafeERC20.sol\":1139:1207  abi.encodeWithSelector(token.transferFrom.selector, from, to, value) */\n      0x24\n      dup4\n      add\n        /* \"#utility.yul\":13054:13088   */\n      mstore\n        /* \"#utility.yul\":13124:13139   */\n      dup4\n      and\n        /* \"#utility.yul\":13104:13122   */\n      0x44\n      dup3\n      add\n        /* \"#utility.yul\":13097:13140   */\n      mstore\n        /* \"#utility.yul\":13156:13174   */\n      0x64\n      dup2\n      add\n        /* \"#utility.yul\":13149:13183   */\n      dup3\n      swap1\n      mstore\n        /* \"@openzeppelin/contracts/token/ERC20/utils/SafeERC20.sol\":1112:1208  _callOptionalReturn(token, abi.encodeWithSelector(token.transferFrom.selector, from, to, value)) */\n      tag_331\n      swap1\n        /* \"@openzeppelin/contracts/token/ERC20/utils/SafeERC20.sol\":1132:1137  token */\n      dup6\n      swap1\n      shl(0xe0, 0x23b872dd)\n        /* \"@openzeppelin/contracts/token/ERC20/utils/SafeERC20.sol\":1162:1189  token.transferFrom.selector */\n      swap1\n        /* \"#utility.yul\":12989:13007   */\n      0x84\n      add\n        /* \"@openzeppelin/contracts/token/ERC20/utils/SafeERC20.sol\":1139:1207  abi.encodeWithSelector(token.transferFrom.selector, from, to, value) */\n      tag_367\n        /* \"#utility.yul\":12814:13189   */\n      jump\n        /* \"@openzeppelin/contracts/token/ERC20/utils/SafeERC20.sol\":3747:4453  function _callOptionalReturn(IERC20 token, bytes memory data) private {... */\n    tag_368:\n        /* \"@openzeppelin/contracts/token/ERC20/utils/SafeERC20.sol\":4166:4189  bytes memory returndata */\n      0x00\n        /* \"@openzeppelin/contracts/token/ERC20/utils/SafeERC20.sol\":4192:4261  address(token).functionCall(data, \"SafeERC20: low-level call failed\") */\n      tag_394\n        /* \"@openzeppelin/contracts/token/ERC20/utils/SafeERC20.sol\":4220:4224  data */\n      dup3\n        /* \"@openzeppelin/contracts/token/ERC20/utils/SafeERC20.sol\":4192:4261  address(token).functionCall(data, \"SafeERC20: low-level call failed\") */\n      mload(0x40)\n      dup1\n      0x40\n      add\n      0x40\n      mstore\n      dup1\n      0x20\n      dup2\n      mstore\n      0x20\n      add\n      0x5361666545524332303a206c6f772d6c6576656c2063616c6c206661696c6564\n      dup2\n      mstore\n      pop\n        /* \"@openzeppelin/contracts/token/ERC20/utils/SafeERC20.sol\":4200:4205  token */\n      dup6\n      sub(shl(0xa0, 0x01), 0x01)\n        /* \"@openzeppelin/contracts/token/ERC20/utils/SafeERC20.sol\":4192:4219  address(token).functionCall */\n      and\n      tag_395\n      swap1\n        /* \"@openzeppelin/contracts/token/ERC20/utils/SafeERC20.sol\":4192:4261  address(token).functionCall(data, \"SafeERC20: low-level call failed\") */\n      swap3\n      swap2\n      swap1\n      0xffffffff\n      and\n      jump\t// in\n    tag_394:\n        /* \"@openzeppelin/contracts/token/ERC20/utils/SafeERC20.sol\":4275:4292  returndata.length */\n      dup1\n      mload\n        /* \"@openzeppelin/contracts/token/ERC20/utils/SafeERC20.sol\":4166:4261  bytes memory returndata = address(token).functionCall(data, \"SafeERC20: low-level call failed\") */\n      swap1\n      swap2\n      pop\n        /* \"@openzeppelin/contracts/token/ERC20/utils/SafeERC20.sol\":4275:4296  returndata.length > 0 */\n      iszero\n        /* \"@openzeppelin/contracts/token/ERC20/utils/SafeERC20.sol\":4271:4447  if (returndata.length > 0) {... */\n      tag_364\n      jumpi\n        /* \"@openzeppelin/contracts/token/ERC20/utils/SafeERC20.sol\":4370:4380  returndata */\n      dup1\n        /* \"@openzeppelin/contracts/token/ERC20/utils/SafeERC20.sol\":4359:4389  abi.decode(returndata, (bool)) */\n      dup1\n      0x20\n      add\n      swap1\n      mload\n      dup2\n      add\n      swap1\n      tag_397\n      swap2\n      swap1\n      tag_228\n      jump\t// in\n    tag_397:\n        /* \"@openzeppelin/contracts/token/ERC20/utils/SafeERC20.sol\":4351:4436  require(abi.decode(returndata, (bool)), \"SafeERC20: ERC20 operation did not succeed\") */\n      tag_364\n      jumpi\n      mload(0x40)\n      shl(0xe5, 0x461bcd)\n      dup2\n      mstore\n        /* \"#utility.yul\":13396:13398   */\n      0x20\n        /* \"@openzeppelin/contracts/token/ERC20/utils/SafeERC20.sol\":4351:4436  require(abi.decode(returndata, (bool)), \"SafeERC20: ERC20 operation did not succeed\") */\n      0x04\n      dup3\n      add\n        /* \"#utility.yul\":13378:13399   */\n      mstore\n        /* \"#utility.yul\":13435:13437   */\n      0x2a\n        /* \"#utility.yul\":13415:13433   */\n      0x24\n      dup3\n      add\n        /* \"#utility.yul\":13408:13438   */\n      mstore\n        /* \"#utility.yul\":13474:13508   */\n      0x5361666545524332303a204552433230206f7065726174696f6e20646964206e\n        /* \"#utility.yul\":13454:13472   */\n      0x44\n      dup3\n      add\n        /* \"#utility.yul\":13447:13509   */\n      mstore\n      shl(0xb2, 0x1bdd081cdd58d8d95959)\n        /* \"#utility.yul\":13525:13543   */\n      0x64\n      dup3\n      add\n        /* \"#utility.yul\":13518:13558   */\n      mstore\n        /* \"#utility.yul\":13575:13594   */\n      0x84\n      add\n        /* \"@openzeppelin/contracts/token/ERC20/utils/SafeERC20.sol\":4351:4436  require(abi.decode(returndata, (bool)), \"SafeERC20: ERC20 operation did not succeed\") */\n      tag_208\n        /* \"#utility.yul\":13194:13600   */\n      jump\n        /* \"@openzeppelin/contracts/utils/Address.sol\":3861:4084  function functionCall(... */\n    tag_395:\n        /* \"@openzeppelin/contracts/utils/Address.sol\":3994:4006  bytes memory */\n      0x60\n        /* \"@openzeppelin/contracts/utils/Address.sol\":4025:4077  functionCallWithValue(target, data, 0, errorMessage) */\n      tag_239\n        /* \"@openzeppelin/contracts/utils/Address.sol\":4047:4053  target */\n      dup5\n        /* \"@openzeppelin/contracts/utils/Address.sol\":4055:4059  data */\n      dup5\n        /* \"@openzeppelin/contracts/utils/Address.sol\":4061:4062  0 */\n      0x00\n        /* \"@openzeppelin/contracts/utils/Address.sol\":4064:4076  errorMessage */\n      dup6\n        /* \"@openzeppelin/contracts/utils/Address.sol\":3994:4006  bytes memory */\n      dup6\n      sub(shl(0xa0, 0x01), 0x01)\n        /* \"@openzeppelin/contracts/utils/Address.sol\":1465:1484  account.code.length */\n      dup6\n      and\n      extcodesize\n        /* \"@openzeppelin/contracts/utils/Address.sol\":5228:5288  require(isContract(target), \"Address: call to non-contract\") */\n      tag_410\n      jumpi\n      mload(0x40)\n      shl(0xe5, 0x461bcd)\n      dup2\n      mstore\n        /* \"#utility.yul\":14214:14216   */\n      0x20\n        /* \"@openzeppelin/contracts/utils/Address.sol\":5228:5288  require(isContract(target), \"Address: call to non-contract\") */\n      0x04\n      dup3\n      add\n        /* \"#utility.yul\":14196:14217   */\n      mstore\n        /* \"#utility.yul\":14253:14255   */\n      0x1d\n        /* \"#utility.yul\":14233:14251   */\n      0x24\n      dup3\n      add\n        /* \"#utility.yul\":14226:14256   */\n      mstore\n        /* \"#utility.yul\":14292:14323   */\n      0x416464726573733a2063616c6c20746f206e6f6e2d636f6e7472616374000000\n        /* \"#utility.yul\":14272:14290   */\n      0x44\n      dup3\n      add\n        /* \"#utility.yul\":14265:14324   */\n      mstore\n        /* \"#utility.yul\":14341:14359   */\n      0x64\n      add\n        /* \"@openzeppelin/contracts/utils/Address.sol\":5228:5288  require(isContract(target), \"Address: call to non-contract\") */\n      tag_208\n        /* \"#utility.yul\":14012:14365   */\n      jump\n        /* \"@openzeppelin/contracts/utils/Address.sol\":5228:5288  require(isContract(target), \"Address: call to non-contract\") */\n    tag_410:\n        /* \"@openzeppelin/contracts/utils/Address.sol\":5300:5312  bool success */\n      0x00\n        /* \"@openzeppelin/contracts/utils/Address.sol\":5314:5337  bytes memory returndata */\n      dup1\n        /* \"@openzeppelin/contracts/utils/Address.sol\":5341:5347  target */\n      dup7\n      sub(shl(0xa0, 0x01), 0x01)\n        /* \"@openzeppelin/contracts/utils/Address.sol\":5341:5352  target.call */\n      and\n        /* \"@openzeppelin/contracts/utils/Address.sol\":5360:5365  value */\n      dup6\n        /* \"@openzeppelin/contracts/utils/Address.sol\":5367:5371  data */\n      dup8\n        /* \"@openzeppelin/contracts/utils/Address.sol\":5341:5372  target.call{value: value}(data) */\n      mload(0x40)\n      tag_413\n      swap2\n      swap1\n      tag_414\n      jump\t// in\n    tag_413:\n      0x00\n      mload(0x40)\n      dup1\n      dup4\n      sub\n      dup2\n      dup6\n      dup8\n      gas\n      call\n      swap3\n      pop\n      pop\n      pop\n      returndatasize\n      dup1\n      0x00\n      dup2\n      eq\n      tag_417\n      jumpi\n      mload(0x40)\n      swap2\n      pop\n      and(add(returndatasize, 0x3f), not(0x1f))\n      dup3\n      add\n      0x40\n      mstore\n      returndatasize\n      dup3\n      mstore\n      returndatasize\n      0x00\n      0x20\n      dup5\n      add\n      returndatacopy\n      jump(tag_416)\n    tag_417:\n      0x60\n      swap2\n      pop\n    tag_416:\n      pop\n        /* \"@openzeppelin/contracts/utils/Address.sol\":5299:5372  (bool success, bytes memory returndata) = target.call{value: value}(data) */\n      swap2\n      pop\n      swap2\n      pop\n        /* \"@openzeppelin/contracts/utils/Address.sol\":5389:5440  verifyCallResult(success, returndata, errorMessage) */\n      tag_418\n        /* \"@openzeppelin/contracts/utils/Address.sol\":5406:5413  success */\n      dup3\n        /* \"@openzeppelin/contracts/utils/Address.sol\":5415:5425  returndata */\n      dup3\n        /* \"@openzeppelin/contracts/utils/Address.sol\":5427:5439  errorMessage */\n      dup7\n        /* \"@openzeppelin/contracts/utils/Address.sol\":5389:5405  verifyCallResult */\n      tag_419\n        /* \"@openzeppelin/contracts/utils/Address.sol\":5389:5440  verifyCallResult(success, returndata, errorMessage) */\n      jump\t// in\n    tag_418:\n        /* \"@openzeppelin/contracts/utils/Address.sol\":5382:5440  return verifyCallResult(success, returndata, errorMessage) */\n      swap8\n        /* \"@openzeppelin/contracts/utils/Address.sol\":4948:5447  function functionCallWithValue(... */\n      swap7\n      pop\n      pop\n      pop\n      pop\n      pop\n      pop\n      pop\n      jump\t// out\n        /* \"@openzeppelin/contracts/utils/Address.sol\":7561:8303  function verifyCallResult(... */\n    tag_419:\n        /* \"@openzeppelin/contracts/utils/Address.sol\":7707:7719  bytes memory */\n      0x60\n        /* \"@openzeppelin/contracts/utils/Address.sol\":7735:7742  success */\n      dup4\n        /* \"@openzeppelin/contracts/utils/Address.sol\":7731:8297  if (success) {... */\n      iszero\n      tag_422\n      jumpi\n      pop\n        /* \"@openzeppelin/contracts/utils/Address.sol\":7765:7775  returndata */\n      dup2\n        /* \"@openzeppelin/contracts/utils/Address.sol\":7758:7775  return returndata */\n      jump(tag_172)\n        /* \"@openzeppelin/contracts/utils/Address.sol\":7731:8297  if (success) {... */\n    tag_422:\n        /* \"@openzeppelin/contracts/utils/Address.sol\":7876:7893  returndata.length */\n      dup3\n      mload\n        /* \"@openzeppelin/contracts/utils/Address.sol\":7876:7897  returndata.length > 0 */\n      iszero\n        /* \"@openzeppelin/contracts/utils/Address.sol\":7872:8287  if (returndata.length > 0) {... */\n      tag_424\n      jumpi\n        /* \"@openzeppelin/contracts/utils/Address.sol\":8120:8130  returndata */\n      dup3\n        /* \"@openzeppelin/contracts/utils/Address.sol\":8114:8131  mload(returndata) */\n      mload\n        /* \"@openzeppelin/contracts/utils/Address.sol\":8180:8195  returndata_size */\n      dup1\n        /* \"@openzeppelin/contracts/utils/Address.sol\":8167:8177  returndata */\n      dup5\n        /* \"@openzeppelin/contracts/utils/Address.sol\":8163:8165  32 */\n      0x20\n        /* \"@openzeppelin/contracts/utils/Address.sol\":8159:8178  add(32, returndata) */\n      add\n        /* \"@openzeppelin/contracts/utils/Address.sol\":8152:8196  revert(add(32, returndata), returndata_size) */\n      revert\n        /* \"@openzeppelin/contracts/utils/Address.sol\":7872:8287  if (returndata.length > 0) {... */\n    tag_424:\n        /* \"@openzeppelin/contracts/utils/Address.sol\":8259:8271  errorMessage */\n      dup2\n        /* \"@openzeppelin/contracts/utils/Address.sol\":8252:8272  revert(errorMessage) */\n      mload(0x40)\n      shl(0xe5, 0x461bcd)\n      dup2\n      mstore\n      0x04\n      add\n      tag_208\n      swap2\n      swap1\n      tag_44\n      jump\t// in\n        /* \"#utility.yul\":14:272   */\n    tag_427:\n        /* \"#utility.yul\":86:87   */\n      0x00\n        /* \"#utility.yul\":96:209   */\n    tag_433:\n        /* \"#utility.yul\":110:116   */\n      dup4\n        /* \"#utility.yul\":107:108   */\n      dup2\n        /* \"#utility.yul\":104:117   */\n      lt\n        /* \"#utility.yul\":96:209   */\n      iszero\n      tag_435\n      jumpi\n        /* \"#utility.yul\":186:197   */\n      dup2\n      dup2\n      add\n        /* \"#utility.yul\":180:198   */\n      mload\n        /* \"#utility.yul\":167:178   */\n      dup4\n      dup3\n      add\n        /* \"#utility.yul\":160:199   */\n      mstore\n        /* \"#utility.yul\":132:134   */\n      0x20\n        /* \"#utility.yul\":125:135   */\n      add\n        /* \"#utility.yul\":96:209   */\n      jump(tag_433)\n    tag_435:\n        /* \"#utility.yul\":227:233   */\n      dup4\n        /* \"#utility.yul\":224:225   */\n      dup2\n        /* \"#utility.yul\":221:234   */\n      gt\n        /* \"#utility.yul\":218:266   */\n      iszero\n      tag_331\n      jumpi\n      pop\n      pop\n        /* \"#utility.yul\":262:263   */\n      0x00\n        /* \"#utility.yul\":244:260   */\n      swap2\n      add\n        /* \"#utility.yul\":237:264   */\n      mstore\n        /* \"#utility.yul\":14:272   */\n      jump\t// out\n        /* \"#utility.yul\":277:660   */\n    tag_44:\n        /* \"#utility.yul\":426:428   */\n      0x20\n        /* \"#utility.yul\":415:424   */\n      dup2\n        /* \"#utility.yul\":408:429   */\n      mstore\n        /* \"#utility.yul\":389:393   */\n      0x00\n        /* \"#utility.yul\":458:464   */\n      dup3\n        /* \"#utility.yul\":452:465   */\n      mload\n        /* \"#utility.yul\":501:507   */\n      dup1\n        /* \"#utility.yul\":496:498   */\n      0x20\n        /* \"#utility.yul\":485:494   */\n      dup5\n        /* \"#utility.yul\":481:499   */\n      add\n        /* \"#utility.yul\":474:508   */\n      mstore\n        /* \"#utility.yul\":517:583   */\n      tag_438\n        /* \"#utility.yul\":576:582   */\n      dup2\n        /* \"#utility.yul\":571:573   */\n      0x40\n        /* \"#utility.yul\":560:569   */\n      dup6\n        /* \"#utility.yul\":556:574   */\n      add\n        /* \"#utility.yul\":551:553   */\n      0x20\n        /* \"#utility.yul\":543:549   */\n      dup8\n        /* \"#utility.yul\":539:554   */\n      add\n        /* \"#utility.yul\":517:583   */\n      tag_427\n      jump\t// in\n    tag_438:\n        /* \"#utility.yul\":644:646   */\n      0x1f\n        /* \"#utility.yul\":623:638   */\n      add\n      not(0x1f)\n        /* \"#utility.yul\":619:648   */\n      and\n        /* \"#utility.yul\":604:649   */\n      swap2\n      swap1\n      swap2\n      add\n        /* \"#utility.yul\":651:653   */\n      0x40\n        /* \"#utility.yul\":600:654   */\n      add\n      swap3\n        /* \"#utility.yul\":277:660   */\n      swap2\n      pop\n      pop\n      jump\t// out\n        /* \"#utility.yul\":665:838   */\n    tag_428:\n        /* \"#utility.yul\":733:753   */\n      dup1\n      calldataload\n      sub(shl(0xa0, 0x01), 0x01)\n        /* \"#utility.yul\":782:813   */\n      dup2\n      and\n        /* \"#utility.yul\":772:814   */\n      dup2\n      eq\n        /* \"#utility.yul\":762:832   */\n      tag_440\n      jumpi\n        /* \"#utility.yul\":828:829   */\n      0x00\n        /* \"#utility.yul\":825:826   */\n      dup1\n        /* \"#utility.yul\":818:830   */\n      revert\n        /* \"#utility.yul\":762:832   */\n    tag_440:\n        /* \"#utility.yul\":665:838   */\n      swap2\n      swap1\n      pop\n      jump\t// out\n        /* \"#utility.yul\":843:1097   */\n    tag_47:\n        /* \"#utility.yul\":911:917   */\n      0x00\n        /* \"#utility.yul\":919:925   */\n      dup1\n        /* \"#utility.yul\":972:974   */\n      0x40\n        /* \"#utility.yul\":960:969   */\n      dup4\n        /* \"#utility.yul\":951:958   */\n      dup6\n        /* \"#utility.yul\":947:970   */\n      sub\n        /* \"#utility.yul\":943:975   */\n      slt\n        /* \"#utility.yul\":940:992   */\n      iszero\n      tag_442\n      jumpi\n        /* \"#utility.yul\":988:989   */\n      0x00\n        /* \"#utility.yul\":985:986   */\n      dup1\n        /* \"#utility.yul\":978:990   */\n      revert\n        /* \"#utility.yul\":940:992   */\n    tag_442:\n        /* \"#utility.yul\":1011:1040   */\n      tag_443\n        /* \"#utility.yul\":1030:1039   */\n      dup4\n        /* \"#utility.yul\":1011:1040   */\n      tag_428\n      jump\t// in\n    tag_443:\n        /* \"#utility.yul\":1001:1040   */\n      swap5\n        /* \"#utility.yul\":1087:1089   */\n      0x20\n        /* \"#utility.yul\":1072:1090   */\n      swap4\n      swap1\n      swap4\n      add\n        /* \"#utility.yul\":1059:1091   */\n      calldataload\n      swap4\n      pop\n      pop\n      pop\n        /* \"#utility.yul\":843:1097   */\n      jump\t// out\n        /* \"#utility.yul\":1476:1662   */\n    tag_57:\n        /* \"#utility.yul\":1535:1541   */\n      0x00\n        /* \"#utility.yul\":1588:1590   */\n      0x20\n        /* \"#utility.yul\":1576:1585   */\n      dup3\n        /* \"#utility.yul\":1567:1574   */\n      dup5\n        /* \"#utility.yul\":1563:1586   */\n      sub\n        /* \"#utility.yul\":1559:1591   */\n      slt\n        /* \"#utility.yul\":1556:1608   */\n      iszero\n      tag_447\n      jumpi\n        /* \"#utility.yul\":1604:1605   */\n      0x00\n        /* \"#utility.yul\":1601:1602   */\n      dup1\n        /* \"#utility.yul\":1594:1606   */\n      revert\n        /* \"#utility.yul\":1556:1608   */\n    tag_447:\n        /* \"#utility.yul\":1627:1656   */\n      tag_172\n        /* \"#utility.yul\":1646:1655   */\n      dup3\n        /* \"#utility.yul\":1627:1656   */\n      tag_428\n      jump\t// in\n        /* \"#utility.yul\":1991:2319   */\n    tag_66:\n        /* \"#utility.yul\":2068:2074   */\n      0x00\n        /* \"#utility.yul\":2076:2082   */\n      dup1\n        /* \"#utility.yul\":2084:2090   */\n      0x00\n        /* \"#utility.yul\":2137:2139   */\n      0x60\n        /* \"#utility.yul\":2125:2134   */\n      dup5\n        /* \"#utility.yul\":2116:2123   */\n      dup7\n        /* \"#utility.yul\":2112:2135   */\n      sub\n        /* \"#utility.yul\":2108:2140   */\n      slt\n        /* \"#utility.yul\":2105:2157   */\n      iszero\n      tag_451\n      jumpi\n        /* \"#utility.yul\":2153:2154   */\n      0x00\n        /* \"#utility.yul\":2150:2151   */\n      dup1\n        /* \"#utility.yul\":2143:2155   */\n      revert\n        /* \"#utility.yul\":2105:2157   */\n    tag_451:\n        /* \"#utility.yul\":2176:2205   */\n      tag_452\n        /* \"#utility.yul\":2195:2204   */\n      dup5\n        /* \"#utility.yul\":2176:2205   */\n      tag_428\n      jump\t// in\n    tag_452:\n        /* \"#utility.yul\":2166:2205   */\n      swap3\n      pop\n        /* \"#utility.yul\":2224:2262   */\n      tag_453\n        /* \"#utility.yul\":2258:2260   */\n      0x20\n        /* \"#utility.yul\":2247:2256   */\n      dup6\n        /* \"#utility.yul\":2243:2261   */\n      add\n        /* \"#utility.yul\":2224:2262   */\n      tag_428\n      jump\t// in\n    tag_453:\n        /* \"#utility.yul\":2214:2262   */\n      swap2\n      pop\n        /* \"#utility.yul\":2309:2311   */\n      0x40\n        /* \"#utility.yul\":2298:2307   */\n      dup5\n        /* \"#utility.yul\":2294:2312   */\n      add\n        /* \"#utility.yul\":2281:2313   */\n      calldataload\n        /* \"#utility.yul\":2271:2313   */\n      swap1\n      pop\n        /* \"#utility.yul\":1991:2319   */\n      swap3\n      pop\n      swap3\n      pop\n      swap3\n      jump\t// out\n        /* \"#utility.yul\":2513:2693   */\n    tag_82:\n        /* \"#utility.yul\":2572:2578   */\n      0x00\n        /* \"#utility.yul\":2625:2627   */\n      0x20\n        /* \"#utility.yul\":2613:2622   */\n      dup3\n        /* \"#utility.yul\":2604:2611   */\n      dup5\n        /* \"#utility.yul\":2600:2623   */\n      sub\n        /* \"#utility.yul\":2596:2628   */\n      slt\n        /* \"#utility.yul\":2593:2645   */\n      iszero\n      tag_456\n      jumpi\n        /* \"#utility.yul\":2641:2642   */\n      0x00\n        /* \"#utility.yul\":2638:2639   */\n      dup1\n        /* \"#utility.yul\":2631:2643   */\n      revert\n        /* \"#utility.yul\":2593:2645   */\n    tag_456:\n      pop\n        /* \"#utility.yul\":2664:2687   */\n      calldataload\n      swap2\n        /* \"#utility.yul\":2513:2693   */\n      swap1\n      pop\n      jump\t// out\n        /* \"#utility.yul\":3128:3388   */\n    tag_137:\n        /* \"#utility.yul\":3196:3202   */\n      0x00\n        /* \"#utility.yul\":3204:3210   */\n      dup1\n        /* \"#utility.yul\":3257:3259   */\n      0x40\n        /* \"#utility.yul\":3245:3254   */\n      dup4\n        /* \"#utility.yul\":3236:3243   */\n      dup6\n        /* \"#utility.yul\":3232:3255   */\n      sub\n        /* \"#utility.yul\":3228:3260   */\n      slt\n        /* \"#utility.yul\":3225:3277   */\n      iszero\n      tag_460\n      jumpi\n        /* \"#utility.yul\":3273:3274   */\n      0x00\n        /* \"#utility.yul\":3270:3271   */\n      dup1\n        /* \"#utility.yul\":3263:3275   */\n      revert\n        /* \"#utility.yul\":3225:3277   */\n    tag_460:\n        /* \"#utility.yul\":3296:3325   */\n      tag_461\n        /* \"#utility.yul\":3315:3324   */\n      dup4\n        /* \"#utility.yul\":3296:3325   */\n      tag_428\n      jump\t// in\n    tag_461:\n        /* \"#utility.yul\":3286:3325   */\n      swap2\n      pop\n        /* \"#utility.yul\":3344:3382   */\n      tag_462\n        /* \"#utility.yul\":3378:3380   */\n      0x20\n        /* \"#utility.yul\":3367:3376   */\n      dup5\n        /* \"#utility.yul\":3363:3381   */\n      add\n        /* \"#utility.yul\":3344:3382   */\n      tag_428\n      jump\t// in\n    tag_462:\n        /* \"#utility.yul\":3334:3382   */\n      swap1\n      pop\n        /* \"#utility.yul\":3128:3388   */\n      swap3\n      pop\n      swap3\n      swap1\n      pop\n      jump\t// out\n        /* \"#utility.yul\":3393:3511   */\n    tag_429:\n        /* \"#utility.yul\":3479:3484   */\n      dup1\n        /* \"#utility.yul\":3472:3485   */\n      iszero\n        /* \"#utility.yul\":3465:3486   */\n      iszero\n        /* \"#utility.yul\":3458:3463   */\n      dup2\n        /* \"#utility.yul\":3455:3487   */\n      eq\n        /* \"#utility.yul\":3445:3505   */\n      tag_193\n      jumpi\n        /* \"#utility.yul\":3501:3502   */\n      0x00\n        /* \"#utility.yul\":3498:3499   */\n      dup1\n        /* \"#utility.yul\":3491:3503   */\n      revert\n        /* \"#utility.yul\":3516:3757   */\n    tag_142:\n        /* \"#utility.yul\":3572:3578   */\n      0x00\n        /* \"#utility.yul\":3625:3627   */\n      0x20\n        /* \"#utility.yul\":3613:3622   */\n      dup3\n        /* \"#utility.yul\":3604:3611   */\n      dup5\n        /* \"#utility.yul\":3600:3623   */\n      sub\n        /* \"#utility.yul\":3596:3628   */\n      slt\n        /* \"#utility.yul\":3593:3645   */\n      iszero\n      tag_466\n      jumpi\n        /* \"#utility.yul\":3641:3642   */\n      0x00\n        /* \"#utility.yul\":3638:3639   */\n      dup1\n        /* \"#utility.yul\":3631:3643   */\n      revert\n        /* \"#utility.yul\":3593:3645   */\n    tag_466:\n        /* \"#utility.yul\":3680:3689   */\n      dup2\n        /* \"#utility.yul\":3667:3690   */\n      calldataload\n        /* \"#utility.yul\":3699:3727   */\n      tag_172\n        /* \"#utility.yul\":3721:3726   */\n      dup2\n        /* \"#utility.yul\":3699:3727   */\n      tag_429\n      jump\t// in\n        /* \"#utility.yul\":3762:4142   */\n    tag_155:\n        /* \"#utility.yul\":3841:3842   */\n      0x01\n        /* \"#utility.yul\":3837:3849   */\n      dup2\n      dup2\n      shr\n      swap1\n        /* \"#utility.yul\":3884:3896   */\n      dup3\n      and\n      dup1\n        /* \"#utility.yul\":3905:3966   */\n      tag_469\n      jumpi\n        /* \"#utility.yul\":3959:3963   */\n      0x7f\n        /* \"#utility.yul\":3951:3957   */\n      dup3\n        /* \"#utility.yul\":3947:3964   */\n      and\n        /* \"#utility.yul\":3937:3964   */\n      swap2\n      pop\n        /* \"#utility.yul\":3905:3966   */\n    tag_469:\n        /* \"#utility.yul\":4012:4014   */\n      0x20\n        /* \"#utility.yul\":4004:4010   */\n      dup3\n        /* \"#utility.yul\":4001:4015   */\n      lt\n        /* \"#utility.yul\":3981:3999   */\n      dup2\n        /* \"#utility.yul\":3978:4016   */\n      eq\n        /* \"#utility.yul\":3975:4136   */\n      iszero\n      tag_470\n      jumpi\n        /* \"#utility.yul\":4058:4068   */\n      0x4e487b71\n        /* \"#utility.yul\":4053:4056   */\n      0xe0\n        /* \"#utility.yul\":4049:4069   */\n      shl\n        /* \"#utility.yul\":4046:4047   */\n      0x00\n        /* \"#utility.yul\":4039:4070   */\n      mstore\n        /* \"#utility.yul\":4093:4097   */\n      0x22\n        /* \"#utility.yul\":4090:4091   */\n      0x04\n        /* \"#utility.yul\":4083:4098   */\n      mstore\n        /* \"#utility.yul\":4121:4125   */\n      0x24\n        /* \"#utility.yul\":4118:4119   */\n      0x00\n        /* \"#utility.yul\":4111:4126   */\n      revert\n        /* \"#utility.yul\":3975:4136   */\n    tag_470:\n      pop\n        /* \"#utility.yul\":3762:4142   */\n      swap2\n      swap1\n      pop\n      jump\t// out\n        /* \"#utility.yul\":4147:4274   */\n    tag_430:\n        /* \"#utility.yul\":4208:4218   */\n      0x4e487b71\n        /* \"#utility.yul\":4203:4206   */\n      0xe0\n        /* \"#utility.yul\":4199:4219   */\n      shl\n        /* \"#utility.yul\":4196:4197   */\n      0x00\n        /* \"#utility.yul\":4189:4220   */\n      mstore\n        /* \"#utility.yul\":4239:4243   */\n      0x11\n        /* \"#utility.yul\":4236:4237   */\n      0x04\n        /* \"#utility.yul\":4229:4244   */\n      mstore\n        /* \"#utility.yul\":4263:4267   */\n      0x24\n        /* \"#utility.yul\":4260:4261   */\n      0x00\n        /* \"#utility.yul\":4253:4268   */\n      revert\n        /* \"#utility.yul\":4279:4407   */\n    tag_184:\n        /* \"#utility.yul\":4319:4322   */\n      0x00\n        /* \"#utility.yul\":4350:4351   */\n      dup3\n        /* \"#utility.yul\":4346:4352   */\n      not\n        /* \"#utility.yul\":4343:4344   */\n      dup3\n        /* \"#utility.yul\":4340:4353   */\n      gt\n        /* \"#utility.yul\":4337:4376   */\n      iszero\n      tag_474\n      jumpi\n        /* \"#utility.yul\":4356:4374   */\n      tag_474\n      tag_430\n      jump\t// in\n    tag_474:\n      pop\n        /* \"#utility.yul\":4392:4401   */\n      add\n      swap1\n        /* \"#utility.yul\":4279:4407   */\n      jump\t// out\n        /* \"#utility.yul\":4412:4596   */\n    tag_204:\n        /* \"#utility.yul\":4482:4488   */\n      0x00\n        /* \"#utility.yul\":4535:4537   */\n      0x20\n        /* \"#utility.yul\":4523:4532   */\n      dup3\n        /* \"#utility.yul\":4514:4521   */\n      dup5\n        /* \"#utility.yul\":4510:4533   */\n      sub\n        /* \"#utility.yul\":4506:4538   */\n      slt\n        /* \"#utility.yul\":4503:4555   */\n      iszero\n      tag_476\n      jumpi\n        /* \"#utility.yul\":4551:4552   */\n      0x00\n        /* \"#utility.yul\":4548:4549   */\n      dup1\n        /* \"#utility.yul\":4541:4553   */\n      revert\n        /* \"#utility.yul\":4503:4555   */\n    tag_476:\n      pop\n        /* \"#utility.yul\":4574:4590   */\n      mload\n      swap2\n        /* \"#utility.yul\":4412:4596   */\n      swap1\n      pop\n      jump\t// out\n        /* \"#utility.yul\":5575:5820   */\n    tag_228:\n        /* \"#utility.yul\":5642:5648   */\n      0x00\n        /* \"#utility.yul\":5695:5697   */\n      0x20\n        /* \"#utility.yul\":5683:5692   */\n      dup3\n        /* \"#utility.yul\":5674:5681   */\n      dup5\n        /* \"#utility.yul\":5670:5693   */\n      sub\n        /* \"#utility.yul\":5666:5698   */\n      slt\n        /* \"#utility.yul\":5663:5715   */\n      iszero\n      tag_481\n      jumpi\n        /* \"#utility.yul\":5711:5712   */\n      0x00\n        /* \"#utility.yul\":5708:5709   */\n      dup1\n        /* \"#utility.yul\":5701:5713   */\n      revert\n        /* \"#utility.yul\":5663:5715   */\n    tag_481:\n        /* \"#utility.yul\":5743:5752   */\n      dup2\n        /* \"#utility.yul\":5737:5753   */\n      mload\n        /* \"#utility.yul\":5762:5790   */\n      tag_172\n        /* \"#utility.yul\":5784:5789   */\n      dup2\n        /* \"#utility.yul\":5762:5790   */\n      tag_429\n      jump\t// in\n        /* \"#utility.yul\":9188:9313   */\n    tag_324:\n        /* \"#utility.yul\":9228:9232   */\n      0x00\n        /* \"#utility.yul\":9256:9257   */\n      dup3\n        /* \"#utility.yul\":9253:9254   */\n      dup3\n        /* \"#utility.yul\":9250:9258   */\n      lt\n        /* \"#utility.yul\":9247:9281   */\n      iszero\n      tag_494\n      jumpi\n        /* \"#utility.yul\":9261:9279   */\n      tag_494\n      tag_430\n      jump\t// in\n    tag_494:\n      pop\n        /* \"#utility.yul\":9298:9307   */\n      sub\n      swap1\n        /* \"#utility.yul\":9188:9313   */\n      jump\t// out\n        /* \"#utility.yul\":12059:12227   */\n    tag_371:\n        /* \"#utility.yul\":12099:12106   */\n      0x00\n        /* \"#utility.yul\":12165:12166   */\n      dup2\n        /* \"#utility.yul\":12161:12162   */\n      0x00\n        /* \"#utility.yul\":12157:12163   */\n      not\n        /* \"#utility.yul\":12153:12167   */\n      div\n        /* \"#utility.yul\":12150:12151   */\n      dup4\n        /* \"#utility.yul\":12147:12168   */\n      gt\n        /* \"#utility.yul\":12142:12143   */\n      dup3\n        /* \"#utility.yul\":12135:12144   */\n      iszero\n        /* \"#utility.yul\":12128:12145   */\n      iszero\n        /* \"#utility.yul\":12124:12169   */\n      and\n        /* \"#utility.yul\":12121:12192   */\n      iszero\n      tag_504\n      jumpi\n        /* \"#utility.yul\":12172:12190   */\n      tag_504\n      tag_430\n      jump\t// in\n    tag_504:\n      pop\n        /* \"#utility.yul\":12212:12221   */\n      mul\n      swap1\n        /* \"#utility.yul\":12059:12227   */\n      jump\t// out\n        /* \"#utility.yul\":12232:12449   */\n    tag_374:\n        /* \"#utility.yul\":12272:12273   */\n      0x00\n        /* \"#utility.yul\":12298:12299   */\n      dup3\n        /* \"#utility.yul\":12288:12420   */\n      tag_506\n      jumpi\n        /* \"#utility.yul\":12342:12352   */\n      0x4e487b71\n        /* \"#utility.yul\":12337:12340   */\n      0xe0\n        /* \"#utility.yul\":12333:12353   */\n      shl\n        /* \"#utility.yul\":12330:12331   */\n      0x00\n        /* \"#utility.yul\":12323:12354   */\n      mstore\n        /* \"#utility.yul\":12377:12381   */\n      0x12\n        /* \"#utility.yul\":12374:12375   */\n      0x04\n        /* \"#utility.yul\":12367:12382   */\n      mstore\n        /* \"#utility.yul\":12405:12409   */\n      0x24\n        /* \"#utility.yul\":12402:12403   */\n      0x00\n        /* \"#utility.yul\":12395:12410   */\n      revert\n        /* \"#utility.yul\":12288:12420   */\n    tag_506:\n      pop\n        /* \"#utility.yul\":12434:12443   */\n      div\n      swap1\n        /* \"#utility.yul\":12232:12449   */\n      jump\t// out\n        /* \"#utility.yul\":14370:14644   */\n    tag_414:\n        /* \"#utility.yul\":14499:14502   */\n      0x00\n        /* \"#utility.yul\":14537:14543   */\n      dup3\n        /* \"#utility.yul\":14531:14544   */\n      mload\n        /* \"#utility.yul\":14553:14606   */\n      tag_513\n        /* \"#utility.yul\":14599:14605   */\n      dup2\n        /* \"#utility.yul\":14594:14597   */\n      dup5\n        /* \"#utility.yul\":14587:14591   */\n      0x20\n        /* \"#utility.yul\":14579:14585   */\n      dup8\n        /* \"#utility.yul\":14575:14592   */\n      add\n        /* \"#utility.yul\":14553:14606   */\n      tag_427\n      jump\t// in\n    tag_513:\n        /* \"#utility.yul\":14622:14638   */\n      swap2\n      swap1\n      swap2\n      add\n      swap3\n        /* \"#utility.yul\":14370:14644   */\n      swap2\n      pop\n      pop\n      jump\t// out\n\n    auxdata: 0xa26469706673582212209b8863330d3af9427a1e210a4fadcd5c0cee1673af0f876b2fba64ef2a769c8864736f6c634300080c0033\n}\n",
				"bytecode": {
					"linkReferences": {},
					"object": "60806040526103e8600855600060095562069780600a55600b80546001600160a81b03191674ff970a61a04b1ca14834a43f5de4533ebddb5cc8001790553480156200004a57600080fd5b506040518060400160405280600381526020016211d35160ea1b8152506040518060400160405280600381526020016211d35160ea1b81525081600390805190602001906200009b9291906200023e565b508051620000b19060049060208401906200023e565b505050620000ce620000c86200010060201b60201c565b62000104565b6001600655620000fa33620000e66012600a620003f9565b620000f49061c35062000411565b62000156565b6200048b565b3390565b600580546001600160a01b038381166001600160a01b0319831681179093556040519116919082907f8be0079c531659141344cd1fd0a4f28419497f9722a3daafe3b4186f6b6457e090600090a35050565b6001600160a01b038216620001b15760405162461bcd60e51b815260206004820152601f60248201527f45524332303a206d696e7420746f20746865207a65726f206164647265737300604482015260640160405180910390fd5b8060026000828254620001c5919062000433565b90915550506001600160a01b03821660009081526020819052604081208054839290620001f490849062000433565b90915550506040518181526001600160a01b038316906000907fddf252ad1be2c89b69c2b068fc378daa952ba7f163c4a11628f55a4df523b3ef9060200160405180910390a35050565b8280546200024c906200044e565b90600052602060002090601f016020900481019282620002705760008555620002bb565b82601f106200028b57805160ff1916838001178555620002bb565b82800160010185558215620002bb579182015b82811115620002bb5782518255916020019190600101906200029e565b50620002c9929150620002cd565b5090565b5b80821115620002c95760008155600101620002ce565b634e487b7160e01b600052601160045260246000fd5b600181815b808511156200033b5781600019048211156200031f576200031f620002e4565b808516156200032d57918102915b93841c9390800290620002ff565b509250929050565b6000826200035457506001620003f3565b816200036357506000620003f3565b81600181146200037c57600281146200038757620003a7565b6001915050620003f3565b60ff8411156200039b576200039b620002e4565b50506001821b620003f3565b5060208310610133831016604e8410600b8410161715620003cc575081810a620003f3565b620003d88383620002fa565b8060001904821115620003ef57620003ef620002e4565b0290505b92915050565b60006200040a60ff84168362000343565b9392505050565b60008160001904831182151516156200042e576200042e620002e4565b500290565b60008219821115620004495762000449620002e4565b500190565b600181811c908216806200046357607f821691505b602082108114156200048557634e487b7160e01b600052602260045260246000fd5b50919050565b6119ee806200049b6000396000f3fe608060405234801561001057600080fd5b50600436106101e55760003560e01c806370a082311161010f578063a0712d68116100a2578063e2af30f411610071578063e2af30f414610410578063e2e5c15c14610423578063f2fde38b1461042b578063f4a0a5281461043e57600080fd5b8063a0712d68146103c4578063a457c2d7146103d7578063a9059cbb146103ea578063dd62ed3e146103fd57600080fd5b806384d24226116100de57806384d242261461036857806389a302711461037b5780638da5cb5b146103ab57806395d89b41146103bc57600080fd5b806370a0823114610325578063715018a61461034e5780637313ee5a1461035657806376c71ca11461035f57600080fd5b8063313ce5671161018757806342966c681161015657806342966c68146102f95780634e2745141461030c5780634e71d92d146103145780636817c76c1461031c57600080fd5b8063313ce567146102af57806339509351146102be5780634070a0c9146102d157806340bee0ed146102e657600080fd5b80631959a002116101c35780631959a0021461023d57806320f203d91461028757806323b872dd1461028f57806324bbd049146102a257600080fd5b806306fdde03146101ea578063095ea7b31461020857806318160ddd1461022b575b600080fd5b6101f2610451565b6040516101ff919061175e565b60405180910390f35b61021b6102163660046117ad565b6104e3565b60405190151581526020016101ff565b6002545b6040519081526020016101ff565b61026c61024b3660046117d7565b60076020526000908152604090208054600182015460029092015490919083565b604080519384526020840192909252908201526060016101ff565b61022f6104fb565b61021b61029d3660046117f2565b610562565b600b5461021b9060ff1681565b604051601281526020016101ff565b61021b6102cc3660046117ad565b610588565b6102e46102df36600461182e565b6105aa565b005b6102e46102f436600461182e565b6105b7565b6102e461030736600461182e565b6105c4565b6102e46105d1565b6102e4610678565b61022f60085481565b61022f6103333660046117d7565b6001600160a01b031660009081526020819052604090205490565b6102e4610880565b61022f600a5481565b61022f60095481565b61022f6103763660046117d7565b610892565b600b546103939061010090046001600160a01b031681565b6040516001600160a01b0390911681526020016101ff565b6005546001600160a01b0316610393565b6101f261092d565b6102e46103d236600461182e565b61093c565b61021b6103e53660046117ad565b610c1a565b61021b6103f83660046117ad565b610ca0565b61022f61040b366004611847565b610cae565b6102e461041e366004611888565b610cd9565b61022f610cf4565b6102e46104393660046117d7565b610d69565b6102e461044c36600461182e565b610ddf565b606060038054610460906118a5565b80601f016020809104026020016040519081016040528092919081815260200182805461048c906118a5565b80156104d95780601f106104ae576101008083540402835291602001916104d9565b820191906000526020600020905b8154815290600101906020018083116104bc57829003601f168201915b5050505050905090565b6000336104f1818585610e3e565b5060019392505050565b33600090815260076020526040812060010154819061051b904290610f63565b33600090815260076020526040902060020154909150811061053f57600091505090565b3360009081526007602052604090206002015461055c9082610f63565b91505090565b600033610570858285610f6f565b61057b858585610fe9565b60019150505b9392505050565b6000336104f181858561059b8383610cae565b6105a591906118f6565b610e3e565b6105b26111b7565b600955565b6105bf6111b7565b600a55565b6105ce3382611211565b50565b6105d96111b7565b6106766105ee6005546001600160a01b031690565b600b546040516370a0823160e01b81523060048201526101009091046001600160a01b0316906370a0823190602401602060405180830381865afa15801561063a573d6000803e3d6000fd5b505050506040513d601f19601f8201168201806040525081019061065e919061190e565b600b5461010090046001600160a01b0316919061135c565b565b600260065414156106d05760405162461bcd60e51b815260206004820152601f60248201527f5265656e7472616e637947756172643a207265656e7472616e742063616c6c0060448201526064015b60405180910390fd5b60026006553360009081526007602052604090205461071b5760405162461bcd60e51b81526020600482015260076024820152661b9bc81b5a5b9d60ca1b60448201526064016106c7565b33600090815260076020526040812060010154610739904290610f63565b33600090815260076020526040812060020154919250908210610776575033600090815260076020526040812080546002909101919091556107d5565b336000908152600760205260409020600281015490546107a1919061079b90856113bf565b906113cb565b336000908152600760205260409020600201549091506107c19083610f63565b336000908152600760205260409020600201555b336000908152600760205260409020546107ef9082610f63565b336000818152600760205260409081902092835542600190930192909255905163a9059cbb60e01b8152600481019190915260248101829052309063a9059cbb906044016020604051808303816000875af1158015610852573d6000803e3d6000fd5b505050506040513d601f19601f820116820180604052508101906108769190611927565b5050600160065550565b6108886111b7565b61067660006113d7565b6001600160a01b03811660009081526007602052604081206001015481906108bb904290610f63565b336000908152600760205260408120600201549192509082106108f757506001600160a01b038316600090815260076020526040902054610581565b6001600160a01b038416600090815260076020526040902060028101549054610925919061079b90856113bf565b949350505050565b606060048054610460906118a5565b6002600654141561098f5760405162461bcd60e51b815260206004820152601f60248201527f5265656e7472616e637947756172643a207265656e7472616e742063616c6c0060448201526064016106c7565b600260065563773594008111156109df5760405162461bcd60e51b81526020600482015260146024820152730dac2f0406460606040eae6c8c640e0cae440e8f60631b60448201526064016106c7565b600b5460ff16610a235760405162461bcd60e51b815260206004820152600f60248201526e1b5a5b9d081b9bdd081bdc195b9959608a1b60448201526064016106c7565b600b546040516370a0823160e01b8152336004820152829161010090046001600160a01b0316906370a0823190602401602060405180830381865afa158015610a70573d6000803e3d6000fd5b505050506040513d601f19601f82011682018060405250810190610a94919061190e565b1015610ad95760405162461bcd60e51b8152602060048201526014602482015273555344432062616c616e636520746f6f206c6f7760601b60448201526064016106c7565b6000610aea8264e8d4a510006113bf565b90506000610b0960085461079b6103e8856113bf90919063ffffffff16565b9050600954610b7a82306001600160a01b03166318160ddd6040518163ffffffff1660e01b8152600401602060405180830381865afa158015610b50573d6000803e3d6000fd5b505050506040513d601f19601f82011682018060405250810190610b74919061190e565b90611429565b1115610bb85760405162461bcd60e51b815260206004820152600d60248201526c06f766572206d696e742063617609c1b60448201526064016106c7565b33600090815260076020526040902054610bd29082611429565b336000908152600760205260409020908155426001820155600a54600290910155610bfd3082611435565b600b546108769061010090046001600160a01b0316333086611514565b60003381610c288286610cae565b905083811015610c885760405162461bcd60e51b815260206004820152602560248201527f45524332303a2064656372656173656420616c6c6f77616e63652062656c6f77604482015264207a65726f60d81b60648201526084016106c7565b610c958286868403610e3e565b506001949350505050565b6000336104f1818585610fe9565b6001600160a01b03918216600090815260016020908152604080832093909416825291909152205490565b610ce16111b7565b600b805460ff1916911515919091179055565b6000610d64306001600160a01b03166318160ddd6040518163ffffffff1660e01b8152600401602060405180830381865afa158015610d37573d6000803e3d6000fd5b505050506040513d601f19601f82011682018060405250810190610d5b919061190e565b60095490610f63565b905090565b610d716111b7565b6001600160a01b038116610dd65760405162461bcd60e51b815260206004820152602660248201527f4f776e61626c653a206e6577206f776e657220697320746865207a65726f206160448201526564647265737360d01b60648201526084016106c7565b6105ce816113d7565b610de76111b7565b600854811015610e395760405162461bcd60e51b815260206004820152601d60248201527f63616e2774206265206c6f776572207468616e206c617374206d696e7400000060448201526064016106c7565b600855565b6001600160a01b038316610ea05760405162461bcd60e51b8152602060048201526024808201527f45524332303a20617070726f76652066726f6d20746865207a65726f206164646044820152637265737360e01b60648201526084016106c7565b6001600160a01b038216610f015760405162461bcd60e51b815260206004820152602260248201527f45524332303a20617070726f766520746f20746865207a65726f206164647265604482015261737360f01b60648201526084016106c7565b6001600160a01b0383811660008181526001602090815260408083209487168084529482529182902085905590518481527f8c5be1e5ebec7d5bd14f71427d1e84f3dd0314c0f7b2291e5b200ac8c7c3b92591015b60405180910390a3505050565b60006105818284611944565b6000610f7b8484610cae565b90506000198114610fe35781811015610fd65760405162461bcd60e51b815260206004820152601d60248201527f45524332303a20696e73756666696369656e7420616c6c6f77616e636500000060448201526064016106c7565b610fe38484848403610e3e565b50505050565b6001600160a01b03831661104d5760405162461bcd60e51b815260206004820152602560248201527f45524332303a207472616e736665722066726f6d20746865207a65726f206164604482015264647265737360d81b60648201526084016106c7565b6001600160a01b0382166110af5760405162461bcd60e51b815260206004820152602360248201527f45524332303a207472616e7366657220746f20746865207a65726f206164647260448201526265737360e81b60648201526084016106c7565b6001600160a01b038316600090815260208190526040902054818110156111275760405162461bcd60e51b815260206004820152602660248201527f45524332303a207472616e7366657220616d6f756e7420657863656564732062604482015265616c616e636560d01b60648201526084016106c7565b6001600160a01b0380851660009081526020819052604080822085850390559185168152908120805484929061115e9084906118f6565b92505081905550826001600160a01b0316846001600160a01b03167fddf252ad1be2c89b69c2b068fc378daa952ba7f163c4a11628f55a4df523b3ef846040516111aa91815260200190565b60405180910390a3610fe3565b6005546001600160a01b031633146106765760405162461bcd60e51b815260206004820181905260248201527f4f776e61626c653a2063616c6c6572206973206e6f7420746865206f776e657260448201526064016106c7565b6001600160a01b0382166112715760405162461bcd60e51b815260206004820152602160248201527f45524332303a206275726e2066726f6d20746865207a65726f206164647265736044820152607360f81b60648201526084016106c7565b6001600160a01b038216600090815260208190526040902054818110156112e55760405162461bcd60e51b815260206004820152602260248201527f45524332303a206275726e20616d6f756e7420657863656564732062616c616e604482015261636560f01b60648201526084016106c7565b6001600160a01b0383166000908152602081905260408120838303905560028054849290611314908490611944565b90915550506040518281526000906001600160a01b038516907fddf252ad1be2c89b69c2b068fc378daa952ba7f163c4a11628f55a4df523b3ef90602001610f56565b505050565b6040516001600160a01b03831660248201526044810182905261135790849063a9059cbb60e01b906064015b60408051601f198184030181529190526020810180516001600160e01b03166001600160e01b03199093169290921790915261154c565b6000610581828461195b565b6000610581828461197a565b600580546001600160a01b038381166001600160a01b0319831681179093556040519116919082907f8be0079c531659141344cd1fd0a4f28419497f9722a3daafe3b4186f6b6457e090600090a35050565b600061058182846118f6565b6001600160a01b03821661148b5760405162461bcd60e51b815260206004820152601f60248201527f45524332303a206d696e7420746f20746865207a65726f20616464726573730060448201526064016106c7565b806002600082825461149d91906118f6565b90915550506001600160a01b038216600090815260208190526040812080548392906114ca9084906118f6565b90915550506040518181526001600160a01b038316906000907fddf252ad1be2c89b69c2b068fc378daa952ba7f163c4a11628f55a4df523b3ef9060200160405180910390a35050565b6040516001600160a01b0380851660248301528316604482015260648101829052610fe39085906323b872dd60e01b90608401611388565b60006115a1826040518060400160405280602081526020017f5361666545524332303a206c6f772d6c6576656c2063616c6c206661696c6564815250856001600160a01b031661161e9092919063ffffffff16565b80519091501561135757808060200190518101906115bf9190611927565b6113575760405162461bcd60e51b815260206004820152602a60248201527f5361666545524332303a204552433230206f7065726174696f6e20646964206e6044820152691bdd081cdd58d8d9595960b21b60648201526084016106c7565b60606109258484600085856001600160a01b0385163b6116805760405162461bcd60e51b815260206004820152601d60248201527f416464726573733a2063616c6c20746f206e6f6e2d636f6e747261637400000060448201526064016106c7565b600080866001600160a01b0316858760405161169c919061199c565b60006040518083038185875af1925050503d80600081146116d9576040519150601f19603f3d011682016040523d82523d6000602084013e6116de565b606091505b50915091506116ee8282866116f9565b979650505050505050565b60608315611708575081610581565b8251156117185782518084602001fd5b8160405162461bcd60e51b81526004016106c7919061175e565b60005b8381101561174d578181015183820152602001611735565b83811115610fe35750506000910152565b602081526000825180602084015261177d816040850160208701611732565b601f01601f19169190910160400192915050565b80356001600160a01b03811681146117a857600080fd5b919050565b600080604083850312156117c057600080fd5b6117c983611791565b946020939093013593505050565b6000602082840312156117e957600080fd5b61058182611791565b60008060006060848603121561180757600080fd5b61181084611791565b925061181e60208501611791565b9150604084013590509250925092565b60006020828403121561184057600080fd5b5035919050565b6000806040838503121561185a57600080fd5b61186383611791565b915061187160208401611791565b90509250929050565b80151581146105ce57600080fd5b60006020828403121561189a57600080fd5b81356105818161187a565b600181811c908216806118b957607f821691505b602082108114156118da57634e487b7160e01b600052602260045260246000fd5b50919050565b634e487b7160e01b600052601160045260246000fd5b60008219821115611909576119096118e0565b500190565b60006020828403121561192057600080fd5b5051919050565b60006020828403121561193957600080fd5b81516105818161187a565b600082821015611956576119566118e0565b500390565b6000816000190483118215151615611975576119756118e0565b500290565b60008261199757634e487b7160e01b600052601260045260246000fd5b500490565b600082516119ae818460208701611732565b919091019291505056fea26469706673582212209b8863330d3af9427a1e210a4fadcd5c0cee1673af0f876b2fba64ef2a769c8864736f6c634300080c0033",
					"opcodes": "PUSH1 0x80 PUSH1 0x40 MSTORE PUSH2 0x3E8 PUSH1 0x8 SSTORE PUSH1 0x0 PUSH1 0x9 SSTORE PUSH3 0x69780 PUSH1 0xA SSTORE PUSH1 0xB DUP1 SLOAD PUSH1 0x1 PUSH1 0x1 PUSH1 0xA8 SHL SUB NOT AND PUSH21 0xFF970A61A04B1CA14834A43F5DE4533EBDDB5CC800 OR SWAP1 SSTORE CALLVALUE DUP1 ISZERO PUSH3 0x4A JUMPI PUSH1 0x0 DUP1 REVERT JUMPDEST POP PUSH1 0x40 MLOAD DUP1 PUSH1 0x40 ADD PUSH1 0x40 MSTORE DUP1 PUSH1 0x3 DUP2 MSTORE PUSH1 0x20 ADD PUSH3 0x11D351 PUSH1 0xEA SHL DUP2 MSTORE POP PUSH1 0x40 MLOAD DUP1 PUSH1 0x40 ADD PUSH1 0x40 MSTORE DUP1 PUSH1 0x3 DUP2 MSTORE PUSH1 0x20 ADD PUSH3 0x11D351 PUSH1 0xEA SHL DUP2 MSTORE POP DUP2 PUSH1 0x3 SWAP1 DUP1 MLOAD SWAP1 PUSH1 0x20 ADD SWAP1 PUSH3 0x9B SWAP3 SWAP2 SWAP1 PUSH3 0x23E JUMP JUMPDEST POP DUP1 MLOAD PUSH3 0xB1 SWAP1 PUSH1 0x4 SWAP1 PUSH1 0x20 DUP5 ADD SWAP1 PUSH3 0x23E JUMP JUMPDEST POP POP POP PUSH3 0xCE PUSH3 0xC8 PUSH3 0x100 PUSH1 0x20 SHL PUSH1 0x20 SHR JUMP JUMPDEST PUSH3 0x104 JUMP JUMPDEST PUSH1 0x1 PUSH1 0x6 SSTORE PUSH3 0xFA CALLER PUSH3 0xE6 PUSH1 0x12 PUSH1 0xA PUSH3 0x3F9 JUMP JUMPDEST PUSH3 0xF4 SWAP1 PUSH2 0xC350 PUSH3 0x411 JUMP JUMPDEST PUSH3 0x156 JUMP JUMPDEST PUSH3 0x48B JUMP JUMPDEST CALLER SWAP1 JUMP JUMPDEST PUSH1 0x5 DUP1 SLOAD PUSH1 0x1 PUSH1 0x1 PUSH1 0xA0 SHL SUB DUP4 DUP2 AND PUSH1 0x1 PUSH1 0x1 PUSH1 0xA0 SHL SUB NOT DUP4 AND DUP2 OR SWAP1 SWAP4 SSTORE PUSH1 0x40 MLOAD SWAP2 AND SWAP2 SWAP1 DUP3 SWAP1 PUSH32 0x8BE0079C531659141344CD1FD0A4F28419497F9722A3DAAFE3B4186F6B6457E0 SWAP1 PUSH1 0x0 SWAP1 LOG3 POP POP JUMP JUMPDEST PUSH1 0x1 PUSH1 0x1 PUSH1 0xA0 SHL SUB DUP3 AND PUSH3 0x1B1 JUMPI PUSH1 0x40 MLOAD PUSH3 0x461BCD PUSH1 0xE5 SHL DUP2 MSTORE PUSH1 0x20 PUSH1 0x4 DUP3 ADD MSTORE PUSH1 0x1F PUSH1 0x24 DUP3 ADD MSTORE PUSH32 0x45524332303A206D696E7420746F20746865207A65726F206164647265737300 PUSH1 0x44 DUP3 ADD MSTORE PUSH1 0x64 ADD PUSH1 0x40 MLOAD DUP1 SWAP2 SUB SWAP1 REVERT JUMPDEST DUP1 PUSH1 0x2 PUSH1 0x0 DUP3 DUP3 SLOAD PUSH3 0x1C5 SWAP2 SWAP1 PUSH3 0x433 JUMP JUMPDEST SWAP1 SWAP2 SSTORE POP POP PUSH1 0x1 PUSH1 0x1 PUSH1 0xA0 SHL SUB DUP3 AND PUSH1 0x0 SWAP1 DUP2 MSTORE PUSH1 0x20 DUP2 SWAP1 MSTORE PUSH1 0x40 DUP2 KECCAK256 DUP1 SLOAD DUP4 SWAP3 SWAP1 PUSH3 0x1F4 SWAP1 DUP5 SWAP1 PUSH3 0x433 JUMP JUMPDEST SWAP1 SWAP2 SSTORE POP POP PUSH1 0x40 MLOAD DUP2 DUP2 MSTORE PUSH1 0x1 PUSH1 0x1 PUSH1 0xA0 SHL SUB DUP4 AND SWAP1 PUSH1 0x0 SWAP1 PUSH32 0xDDF252AD1BE2C89B69C2B068FC378DAA952BA7F163C4A11628F55A4DF523B3EF SWAP1 PUSH1 0x20 ADD PUSH1 0x40 MLOAD DUP1 SWAP2 SUB SWAP1 LOG3 POP POP JUMP JUMPDEST DUP3 DUP1 SLOAD PUSH3 0x24C SWAP1 PUSH3 0x44E JUMP JUMPDEST SWAP1 PUSH1 0x0 MSTORE PUSH1 0x20 PUSH1 0x0 KECCAK256 SWAP1 PUSH1 0x1F ADD PUSH1 0x20 SWAP1 DIV DUP2 ADD SWAP3 DUP3 PUSH3 0x270 JUMPI PUSH1 0x0 DUP6 SSTORE PUSH3 0x2BB JUMP JUMPDEST DUP3 PUSH1 0x1F LT PUSH3 0x28B JUMPI DUP1 MLOAD PUSH1 0xFF NOT AND DUP4 DUP1 ADD OR DUP6 SSTORE PUSH3 0x2BB JUMP JUMPDEST DUP3 DUP1 ADD PUSH1 0x1 ADD DUP6 SSTORE DUP3 ISZERO PUSH3 0x2BB JUMPI SWAP2 DUP3 ADD JUMPDEST DUP3 DUP2 GT ISZERO PUSH3 0x2BB JUMPI DUP3 MLOAD DUP3 SSTORE SWAP2 PUSH1 0x20 ADD SWAP2 SWAP1 PUSH1 0x1 ADD SWAP1 PUSH3 0x29E JUMP JUMPDEST POP PUSH3 0x2C9 SWAP3 SWAP2 POP PUSH3 0x2CD JUMP JUMPDEST POP SWAP1 JUMP JUMPDEST JUMPDEST DUP1 DUP3 GT ISZERO PUSH3 0x2C9 JUMPI PUSH1 0x0 DUP2 SSTORE PUSH1 0x1 ADD PUSH3 0x2CE JUMP JUMPDEST PUSH4 0x4E487B71 PUSH1 0xE0 SHL PUSH1 0x0 MSTORE PUSH1 0x11 PUSH1 0x4 MSTORE PUSH1 0x24 PUSH1 0x0 REVERT JUMPDEST PUSH1 0x1 DUP2 DUP2 JUMPDEST DUP1 DUP6 GT ISZERO PUSH3 0x33B JUMPI DUP2 PUSH1 0x0 NOT DIV DUP3 GT ISZERO PUSH3 0x31F JUMPI PUSH3 0x31F PUSH3 0x2E4 JUMP JUMPDEST DUP1 DUP6 AND ISZERO PUSH3 0x32D JUMPI SWAP2 DUP2 MUL SWAP2 JUMPDEST SWAP4 DUP5 SHR SWAP4 SWAP1 DUP1 MUL SWAP1 PUSH3 0x2FF JUMP JUMPDEST POP SWAP3 POP SWAP3 SWAP1 POP JUMP JUMPDEST PUSH1 0x0 DUP3 PUSH3 0x354 JUMPI POP PUSH1 0x1 PUSH3 0x3F3 JUMP JUMPDEST DUP2 PUSH3 0x363 JUMPI POP PUSH1 0x0 PUSH3 0x3F3 JUMP JUMPDEST DUP2 PUSH1 0x1 DUP2 EQ PUSH3 0x37C JUMPI PUSH1 0x2 DUP2 EQ PUSH3 0x387 JUMPI PUSH3 0x3A7 JUMP JUMPDEST PUSH1 0x1 SWAP2 POP POP PUSH3 0x3F3 JUMP JUMPDEST PUSH1 0xFF DUP5 GT ISZERO PUSH3 0x39B JUMPI PUSH3 0x39B PUSH3 0x2E4 JUMP JUMPDEST POP POP PUSH1 0x1 DUP3 SHL PUSH3 0x3F3 JUMP JUMPDEST POP PUSH1 0x20 DUP4 LT PUSH2 0x133 DUP4 LT AND PUSH1 0x4E DUP5 LT PUSH1 0xB DUP5 LT AND OR ISZERO PUSH3 0x3CC JUMPI POP DUP2 DUP2 EXP PUSH3 0x3F3 JUMP JUMPDEST PUSH3 0x3D8 DUP4 DUP4 PUSH3 0x2FA JUMP JUMPDEST DUP1 PUSH1 0x0 NOT DIV DUP3 GT ISZERO PUSH3 0x3EF JUMPI PUSH3 0x3EF PUSH3 0x2E4 JUMP JUMPDEST MUL SWAP1 POP JUMPDEST SWAP3 SWAP2 POP POP JUMP JUMPDEST PUSH1 0x0 PUSH3 0x40A PUSH1 0xFF DUP5 AND DUP4 PUSH3 0x343 JUMP JUMPDEST SWAP4 SWAP3 POP POP POP JUMP JUMPDEST PUSH1 0x0 DUP2 PUSH1 0x0 NOT DIV DUP4 GT DUP3 ISZERO ISZERO AND ISZERO PUSH3 0x42E JUMPI PUSH3 0x42E PUSH3 0x2E4 JUMP JUMPDEST POP MUL SWAP1 JUMP JUMPDEST PUSH1 0x0 DUP3 NOT DUP3 GT ISZERO PUSH3 0x449 JUMPI PUSH3 0x449 PUSH3 0x2E4 JUMP JUMPDEST POP ADD SWAP1 JUMP JUMPDEST PUSH1 0x1 DUP2 DUP2 SHR SWAP1 DUP3 AND DUP1 PUSH3 0x463 JUMPI PUSH1 0x7F DUP3 AND SWAP2 POP JUMPDEST PUSH1 0x20 DUP3 LT DUP2 EQ ISZERO PUSH3 0x485 JUMPI PUSH4 0x4E487B71 PUSH1 0xE0 SHL PUSH1 0x0 MSTORE PUSH1 0x22 PUSH1 0x4 MSTORE PUSH1 0x24 PUSH1 0x0 REVERT JUMPDEST POP SWAP2 SWAP1 POP JUMP JUMPDEST PUSH2 0x19EE DUP1 PUSH3 0x49B PUSH1 0x0 CODECOPY PUSH1 0x0 RETURN INVALID PUSH1 0x80 PUSH1 0x40 MSTORE CALLVALUE DUP1 ISZERO PUSH2 0x10 JUMPI PUSH1 0x0 DUP1 REVERT JUMPDEST POP PUSH1 0x4 CALLDATASIZE LT PUSH2 0x1E5 JUMPI PUSH1 0x0 CALLDATALOAD PUSH1 0xE0 SHR DUP1 PUSH4 0x70A08231 GT PUSH2 0x10F JUMPI DUP1 PUSH4 0xA0712D68 GT PUSH2 0xA2 JUMPI DUP1 PUSH4 0xE2AF30F4 GT PUSH2 0x71 JUMPI DUP1 PUSH4 0xE2AF30F4 EQ PUSH2 0x410 JUMPI DUP1 PUSH4 0xE2E5C15C EQ PUSH2 0x423 JUMPI DUP1 PUSH4 0xF2FDE38B EQ PUSH2 0x42B JUMPI DUP1 PUSH4 0xF4A0A528 EQ PUSH2 0x43E JUMPI PUSH1 0x0 DUP1 REVERT JUMPDEST DUP1 PUSH4 0xA0712D68 EQ PUSH2 0x3C4 JUMPI DUP1 PUSH4 0xA457C2D7 EQ PUSH2 0x3D7 JUMPI DUP1 PUSH4 0xA9059CBB EQ PUSH2 0x3EA JUMPI DUP1 PUSH4 0xDD62ED3E EQ PUSH2 0x3FD JUMPI PUSH1 0x0 DUP1 REVERT JUMPDEST DUP1 PUSH4 0x84D24226 GT PUSH2 0xDE JUMPI DUP1 PUSH4 0x84D24226 EQ PUSH2 0x368 JUMPI DUP1 PUSH4 0x89A30271 EQ PUSH2 0x37B JUMPI DUP1 PUSH4 0x8DA5CB5B EQ PUSH2 0x3AB JUMPI DUP1 PUSH4 0x95D89B41 EQ PUSH2 0x3BC JUMPI PUSH1 0x0 DUP1 REVERT JUMPDEST DUP1 PUSH4 0x70A08231 EQ PUSH2 0x325 JUMPI DUP1 PUSH4 0x715018A6 EQ PUSH2 0x34E JUMPI DUP1 PUSH4 0x7313EE5A EQ PUSH2 0x356 JUMPI DUP1 PUSH4 0x76C71CA1 EQ PUSH2 0x35F JUMPI PUSH1 0x0 DUP1 REVERT JUMPDEST DUP1 PUSH4 0x313CE567 GT PUSH2 0x187 JUMPI DUP1 PUSH4 0x42966C68 GT PUSH2 0x156 JUMPI DUP1 PUSH4 0x42966C68 EQ PUSH2 0x2F9 JUMPI DUP1 PUSH4 0x4E274514 EQ PUSH2 0x30C JUMPI DUP1 PUSH4 0x4E71D92D EQ PUSH2 0x314 JUMPI DUP1 PUSH4 0x6817C76C EQ PUSH2 0x31C JUMPI PUSH1 0x0 DUP1 REVERT JUMPDEST DUP1 PUSH4 0x313CE567 EQ PUSH2 0x2AF JUMPI DUP1 PUSH4 0x39509351 EQ PUSH2 0x2BE JUMPI DUP1 PUSH4 0x4070A0C9 EQ PUSH2 0x2D1 JUMPI DUP1 PUSH4 0x40BEE0ED EQ PUSH2 0x2E6 JUMPI PUSH1 0x0 DUP1 REVERT JUMPDEST DUP1 PUSH4 0x1959A002 GT PUSH2 0x1C3 JUMPI DUP1 PUSH4 0x1959A002 EQ PUSH2 0x23D JUMPI DUP1 PUSH4 0x20F203D9 EQ PUSH2 0x287 JUMPI DUP1 PUSH4 0x23B872DD EQ PUSH2 0x28F JUMPI DUP1 PUSH4 0x24BBD049 EQ PUSH2 0x2A2 JUMPI PUSH1 0x0 DUP1 REVERT JUMPDEST DUP1 PUSH4 0x6FDDE03 EQ PUSH2 0x1EA JUMPI DUP1 PUSH4 0x95EA7B3 EQ PUSH2 0x208 JUMPI DUP1 PUSH4 0x18160DDD EQ PUSH2 0x22B JUMPI JUMPDEST PUSH1 0x0 DUP1 REVERT JUMPDEST PUSH2 0x1F2 PUSH2 0x451 JUMP JUMPDEST PUSH1 0x40 MLOAD PUSH2 0x1FF SWAP2 SWAP1 PUSH2 0x175E JUMP JUMPDEST PUSH1 0x40 MLOAD DUP1 SWAP2 SUB SWAP1 RETURN JUMPDEST PUSH2 0x21B PUSH2 0x216 CALLDATASIZE PUSH1 0x4 PUSH2 0x17AD JUMP JUMPDEST PUSH2 0x4E3 JUMP JUMPDEST PUSH1 0x40 MLOAD SWAP1 ISZERO ISZERO DUP2 MSTORE PUSH1 0x20 ADD PUSH2 0x1FF JUMP JUMPDEST PUSH1 0x2 SLOAD JUMPDEST PUSH1 0x40 MLOAD SWAP1 DUP2 MSTORE PUSH1 0x20 ADD PUSH2 0x1FF JUMP JUMPDEST PUSH2 0x26C PUSH2 0x24B CALLDATASIZE PUSH1 0x4 PUSH2 0x17D7 JUMP JUMPDEST PUSH1 0x7 PUSH1 0x20 MSTORE PUSH1 0x0 SWAP1 DUP2 MSTORE PUSH1 0x40 SWAP1 KECCAK256 DUP1 SLOAD PUSH1 0x1 DUP3 ADD SLOAD PUSH1 0x2 SWAP1 SWAP3 ADD SLOAD SWAP1 SWAP2 SWAP1 DUP4 JUMP JUMPDEST PUSH1 0x40 DUP1 MLOAD SWAP4 DUP5 MSTORE PUSH1 0x20 DUP5 ADD SWAP3 SWAP1 SWAP3 MSTORE SWAP1 DUP3 ADD MSTORE PUSH1 0x60 ADD PUSH2 0x1FF JUMP JUMPDEST PUSH2 0x22F PUSH2 0x4FB JUMP JUMPDEST PUSH2 0x21B PUSH2 0x29D CALLDATASIZE PUSH1 0x4 PUSH2 0x17F2 JUMP JUMPDEST PUSH2 0x562 JUMP JUMPDEST PUSH1 0xB SLOAD PUSH2 0x21B SWAP1 PUSH1 0xFF AND DUP2 JUMP JUMPDEST PUSH1 0x40 MLOAD PUSH1 0x12 DUP2 MSTORE PUSH1 0x20 ADD PUSH2 0x1FF JUMP JUMPDEST PUSH2 0x21B PUSH2 0x2CC CALLDATASIZE PUSH1 0x4 PUSH2 0x17AD JUMP JUMPDEST PUSH2 0x588 JUMP JUMPDEST PUSH2 0x2E4 PUSH2 0x2DF CALLDATASIZE PUSH1 0x4 PUSH2 0x182E JUMP JUMPDEST PUSH2 0x5AA JUMP JUMPDEST STOP JUMPDEST PUSH2 0x2E4 PUSH2 0x2F4 CALLDATASIZE PUSH1 0x4 PUSH2 0x182E JUMP JUMPDEST PUSH2 0x5B7 JUMP JUMPDEST PUSH2 0x2E4 PUSH2 0x307 CALLDATASIZE PUSH1 0x4 PUSH2 0x182E JUMP JUMPDEST PUSH2 0x5C4 JUMP JUMPDEST PUSH2 0x2E4 PUSH2 0x5D1 JUMP JUMPDEST PUSH2 0x2E4 PUSH2 0x678 JUMP JUMPDEST PUSH2 0x22F PUSH1 0x8 SLOAD DUP2 JUMP JUMPDEST PUSH2 0x22F PUSH2 0x333 CALLDATASIZE PUSH1 0x4 PUSH2 0x17D7 JUMP JUMPDEST PUSH1 0x1 PUSH1 0x1 PUSH1 0xA0 SHL SUB AND PUSH1 0x0 SWAP1 DUP2 MSTORE PUSH1 0x20 DUP2 SWAP1 MSTORE PUSH1 0x40 SWAP1 KECCAK256 SLOAD SWAP1 JUMP JUMPDEST PUSH2 0x2E4 PUSH2 0x880 JUMP JUMPDEST PUSH2 0x22F PUSH1 0xA SLOAD DUP2 JUMP JUMPDEST PUSH2 0x22F PUSH1 0x9 SLOAD DUP2 JUMP JUMPDEST PUSH2 0x22F PUSH2 0x376 CALLDATASIZE PUSH1 0x4 PUSH2 0x17D7 JUMP JUMPDEST PUSH2 0x892 JUMP JUMPDEST PUSH1 0xB SLOAD PUSH2 0x393 SWAP1 PUSH2 0x100 SWAP1 DIV PUSH1 0x1 PUSH1 0x1 PUSH1 0xA0 SHL SUB AND DUP2 JUMP JUMPDEST PUSH1 0x40 MLOAD PUSH1 0x1 PUSH1 0x1 PUSH1 0xA0 SHL SUB SWAP1 SWAP2 AND DUP2 MSTORE PUSH1 0x20 ADD PUSH2 0x1FF JUMP JUMPDEST PUSH1 0x5 SLOAD PUSH1 0x1 PUSH1 0x1 PUSH1 0xA0 SHL SUB AND PUSH2 0x393 JUMP JUMPDEST PUSH2 0x1F2 PUSH2 0x92D JUMP JUMPDEST PUSH2 0x2E4 PUSH2 0x3D2 CALLDATASIZE PUSH1 0x4 PUSH2 0x182E JUMP JUMPDEST PUSH2 0x93C JUMP JUMPDEST PUSH2 0x21B PUSH2 0x3E5 CALLDATASIZE PUSH1 0x4 PUSH2 0x17AD JUMP JUMPDEST PUSH2 0xC1A JUMP JUMPDEST PUSH2 0x21B PUSH2 0x3F8 CALLDATASIZE PUSH1 0x4 PUSH2 0x17AD JUMP JUMPDEST PUSH2 0xCA0 JUMP JUMPDEST PUSH2 0x22F PUSH2 0x40B CALLDATASIZE PUSH1 0x4 PUSH2 0x1847 JUMP JUMPDEST PUSH2 0xCAE JUMP JUMPDEST PUSH2 0x2E4 PUSH2 0x41E CALLDATASIZE PUSH1 0x4 PUSH2 0x1888 JUMP JUMPDEST PUSH2 0xCD9 JUMP JUMPDEST PUSH2 0x22F PUSH2 0xCF4 JUMP JUMPDEST PUSH2 0x2E4 PUSH2 0x439 CALLDATASIZE PUSH1 0x4 PUSH2 0x17D7 JUMP JUMPDEST PUSH2 0xD69 JUMP JUMPDEST PUSH2 0x2E4 PUSH2 0x44C CALLDATASIZE PUSH1 0x4 PUSH2 0x182E JUMP JUMPDEST PUSH2 0xDDF JUMP JUMPDEST PUSH1 0x60 PUSH1 0x3 DUP1 SLOAD PUSH2 0x460 SWAP1 PUSH2 0x18A5 JUMP JUMPDEST DUP1 PUSH1 0x1F ADD PUSH1 0x20 DUP1 SWAP2 DIV MUL PUSH1 0x20 ADD PUSH1 0x40 MLOAD SWAP1 DUP2 ADD PUSH1 0x40 MSTORE DUP1 SWAP3 SWAP2 SWAP1 DUP2 DUP2 MSTORE PUSH1 0x20 ADD DUP3 DUP1 SLOAD PUSH2 0x48C SWAP1 PUSH2 0x18A5 JUMP JUMPDEST DUP1 ISZERO PUSH2 0x4D9 JUMPI DUP1 PUSH1 0x1F LT PUSH2 0x4AE JUMPI PUSH2 0x100 DUP1 DUP4 SLOAD DIV MUL DUP4 MSTORE SWAP2 PUSH1 0x20 ADD SWAP2 PUSH2 0x4D9 JUMP JUMPDEST DUP3 ADD SWAP2 SWAP1 PUSH1 0x0 MSTORE PUSH1 0x20 PUSH1 0x0 KECCAK256 SWAP1 JUMPDEST DUP2 SLOAD DUP2 MSTORE SWAP1 PUSH1 0x1 ADD SWAP1 PUSH1 0x20 ADD DUP1 DUP4 GT PUSH2 0x4BC JUMPI DUP3 SWAP1 SUB PUSH1 0x1F AND DUP3 ADD SWAP2 JUMPDEST POP POP POP POP POP SWAP1 POP SWAP1 JUMP JUMPDEST PUSH1 0x0 CALLER PUSH2 0x4F1 DUP2 DUP6 DUP6 PUSH2 0xE3E JUMP JUMPDEST POP PUSH1 0x1 SWAP4 SWAP3 POP POP POP JUMP JUMPDEST CALLER PUSH1 0x0 SWAP1 DUP2 MSTORE PUSH1 0x7 PUSH1 0x20 MSTORE PUSH1 0x40 DUP2 KECCAK256 PUSH1 0x1 ADD SLOAD DUP2 SWAP1 PUSH2 0x51B SWAP1 TIMESTAMP SWAP1 PUSH2 0xF63 JUMP JUMPDEST CALLER PUSH1 0x0 SWAP1 DUP2 MSTORE PUSH1 0x7 PUSH1 0x20 MSTORE PUSH1 0x40 SWAP1 KECCAK256 PUSH1 0x2 ADD SLOAD SWAP1 SWAP2 POP DUP2 LT PUSH2 0x53F JUMPI PUSH1 0x0 SWAP2 POP POP SWAP1 JUMP JUMPDEST CALLER PUSH1 0x0 SWAP1 DUP2 MSTORE PUSH1 0x7 PUSH1 0x20 MSTORE PUSH1 0x40 SWAP1 KECCAK256 PUSH1 0x2 ADD SLOAD PUSH2 0x55C SWAP1 DUP3 PUSH2 0xF63 JUMP JUMPDEST SWAP2 POP POP SWAP1 JUMP JUMPDEST PUSH1 0x0 CALLER PUSH2 0x570 DUP6 DUP3 DUP6 PUSH2 0xF6F JUMP JUMPDEST PUSH2 0x57B DUP6 DUP6 DUP6 PUSH2 0xFE9 JUMP JUMPDEST PUSH1 0x1 SWAP2 POP POP JUMPDEST SWAP4 SWAP3 POP POP POP JUMP JUMPDEST PUSH1 0x0 CALLER PUSH2 0x4F1 DUP2 DUP6 DUP6 PUSH2 0x59B DUP4 DUP4 PUSH2 0xCAE JUMP JUMPDEST PUSH2 0x5A5 SWAP2 SWAP1 PUSH2 0x18F6 JUMP JUMPDEST PUSH2 0xE3E JUMP JUMPDEST PUSH2 0x5B2 PUSH2 0x11B7 JUMP JUMPDEST PUSH1 0x9 SSTORE JUMP JUMPDEST PUSH2 0x5BF PUSH2 0x11B7 JUMP JUMPDEST PUSH1 0xA SSTORE JUMP JUMPDEST PUSH2 0x5CE CALLER DUP3 PUSH2 0x1211 JUMP JUMPDEST POP JUMP JUMPDEST PUSH2 0x5D9 PUSH2 0x11B7 JUMP JUMPDEST PUSH2 0x676 PUSH2 0x5EE PUSH1 0x5 SLOAD PUSH1 0x1 PUSH1 0x1 PUSH1 0xA0 SHL SUB AND SWAP1 JUMP JUMPDEST PUSH1 0xB SLOAD PUSH1 0x40 MLOAD PUSH4 0x70A08231 PUSH1 0xE0 SHL DUP2 MSTORE ADDRESS PUSH1 0x4 DUP3 ADD MSTORE PUSH2 0x100 SWAP1 SWAP2 DIV PUSH1 0x1 PUSH1 0x1 PUSH1 0xA0 SHL SUB AND SWAP1 PUSH4 0x70A08231 SWAP1 PUSH1 0x24 ADD PUSH1 0x20 PUSH1 0x40 MLOAD DUP1 DUP4 SUB DUP2 DUP7 GAS STATICCALL ISZERO DUP1 ISZERO PUSH2 0x63A JUMPI RETURNDATASIZE PUSH1 0x0 DUP1 RETURNDATACOPY RETURNDATASIZE PUSH1 0x0 REVERT JUMPDEST POP POP POP POP PUSH1 0x40 MLOAD RETURNDATASIZE PUSH1 0x1F NOT PUSH1 0x1F DUP3 ADD AND DUP3 ADD DUP1 PUSH1 0x40 MSTORE POP DUP2 ADD SWAP1 PUSH2 0x65E SWAP2 SWAP1 PUSH2 0x190E JUMP JUMPDEST PUSH1 0xB SLOAD PUSH2 0x100 SWAP1 DIV PUSH1 0x1 PUSH1 0x1 PUSH1 0xA0 SHL SUB AND SWAP2 SWAP1 PUSH2 0x135C JUMP JUMPDEST JUMP JUMPDEST PUSH1 0x2 PUSH1 0x6 SLOAD EQ ISZERO PUSH2 0x6D0 JUMPI PUSH1 0x40 MLOAD PUSH3 0x461BCD PUSH1 0xE5 SHL DUP2 MSTORE PUSH1 0x20 PUSH1 0x4 DUP3 ADD MSTORE PUSH1 0x1F PUSH1 0x24 DUP3 ADD MSTORE PUSH32 0x5265656E7472616E637947756172643A207265656E7472616E742063616C6C00 PUSH1 0x44 DUP3 ADD MSTORE PUSH1 0x64 ADD JUMPDEST PUSH1 0x40 MLOAD DUP1 SWAP2 SUB SWAP1 REVERT JUMPDEST PUSH1 0x2 PUSH1 0x6 SSTORE CALLER PUSH1 0x0 SWAP1 DUP2 MSTORE PUSH1 0x7 PUSH1 0x20 MSTORE PUSH1 0x40 SWAP1 KECCAK256 SLOAD PUSH2 0x71B JUMPI PUSH1 0x40 MLOAD PUSH3 0x461BCD PUSH1 0xE5 SHL DUP2 MSTORE PUSH1 0x20 PUSH1 0x4 DUP3 ADD MSTORE PUSH1 0x7 PUSH1 0x24 DUP3 ADD MSTORE PUSH7 0x1B9BC81B5A5B9D PUSH1 0xCA SHL PUSH1 0x44 DUP3 ADD MSTORE PUSH1 0x64 ADD PUSH2 0x6C7 JUMP JUMPDEST CALLER PUSH1 0x0 SWAP1 DUP2 MSTORE PUSH1 0x7 PUSH1 0x20 MSTORE PUSH1 0x40 DUP2 KECCAK256 PUSH1 0x1 ADD SLOAD PUSH2 0x739 SWAP1 TIMESTAMP SWAP1 PUSH2 0xF63 JUMP JUMPDEST CALLER PUSH1 0x0 SWAP1 DUP2 MSTORE PUSH1 0x7 PUSH1 0x20 MSTORE PUSH1 0x40 DUP2 KECCAK256 PUSH1 0x2 ADD SLOAD SWAP2 SWAP3 POP SWAP1 DUP3 LT PUSH2 0x776 JUMPI POP CALLER PUSH1 0x0 SWAP1 DUP2 MSTORE PUSH1 0x7 PUSH1 0x20 MSTORE PUSH1 0x40 DUP2 KECCAK256 DUP1 SLOAD PUSH1 0x2 SWAP1 SWAP2 ADD SWAP2 SWAP1 SWAP2 SSTORE PUSH2 0x7D5 JUMP JUMPDEST CALLER PUSH1 0x0 SWAP1 DUP2 MSTORE PUSH1 0x7 PUSH1 0x20 MSTORE PUSH1 0x40 SWAP1 KECCAK256 PUSH1 0x2 DUP2 ADD SLOAD SWAP1 SLOAD PUSH2 0x7A1 SWAP2 SWAP1 PUSH2 0x79B SWAP1 DUP6 PUSH2 0x13BF JUMP JUMPDEST SWAP1 PUSH2 0x13CB JUMP JUMPDEST CALLER PUSH1 0x0 SWAP1 DUP2 MSTORE PUSH1 0x7 PUSH1 0x20 MSTORE PUSH1 0x40 SWAP1 KECCAK256 PUSH1 0x2 ADD SLOAD SWAP1 SWAP2 POP PUSH2 0x7C1 SWAP1 DUP4 PUSH2 0xF63 JUMP JUMPDEST CALLER PUSH1 0x0 SWAP1 DUP2 MSTORE PUSH1 0x7 PUSH1 0x20 MSTORE PUSH1 0x40 SWAP1 KECCAK256 PUSH1 0x2 ADD SSTORE JUMPDEST CALLER PUSH1 0x0 SWAP1 DUP2 MSTORE PUSH1 0x7 PUSH1 0x20 MSTORE PUSH1 0x40 SWAP1 KECCAK256 SLOAD PUSH2 0x7EF SWAP1 DUP3 PUSH2 0xF63 JUMP JUMPDEST CALLER PUSH1 0x0 DUP2 DUP2 MSTORE PUSH1 0x7 PUSH1 0x20 MSTORE PUSH1 0x40 SWAP1 DUP2 SWAP1 KECCAK256 SWAP3 DUP4 SSTORE TIMESTAMP PUSH1 0x1 SWAP1 SWAP4 ADD SWAP3 SWAP1 SWAP3 SSTORE SWAP1 MLOAD PUSH4 0xA9059CBB PUSH1 0xE0 SHL DUP2 MSTORE PUSH1 0x4 DUP2 ADD SWAP2 SWAP1 SWAP2 MSTORE PUSH1 0x24 DUP2 ADD DUP3 SWAP1 MSTORE ADDRESS SWAP1 PUSH4 0xA9059CBB SWAP1 PUSH1 0x44 ADD PUSH1 0x20 PUSH1 0x40 MLOAD DUP1 DUP4 SUB DUP2 PUSH1 0x0 DUP8 GAS CALL ISZERO DUP1 ISZERO PUSH2 0x852 JUMPI RETURNDATASIZE PUSH1 0x0 DUP1 RETURNDATACOPY RETURNDATASIZE PUSH1 0x0 REVERT JUMPDEST POP POP POP POP PUSH1 0x40 MLOAD RETURNDATASIZE PUSH1 0x1F NOT PUSH1 0x1F DUP3 ADD AND DUP3 ADD DUP1 PUSH1 0x40 MSTORE POP DUP2 ADD SWAP1 PUSH2 0x876 SWAP2 SWAP1 PUSH2 0x1927 JUMP JUMPDEST POP POP PUSH1 0x1 PUSH1 0x6 SSTORE POP JUMP JUMPDEST PUSH2 0x888 PUSH2 0x11B7 JUMP JUMPDEST PUSH2 0x676 PUSH1 0x0 PUSH2 0x13D7 JUMP JUMPDEST PUSH1 0x1 PUSH1 0x1 PUSH1 0xA0 SHL SUB DUP2 AND PUSH1 0x0 SWAP1 DUP2 MSTORE PUSH1 0x7 PUSH1 0x20 MSTORE PUSH1 0x40 DUP2 KECCAK256 PUSH1 0x1 ADD SLOAD DUP2 SWAP1 PUSH2 0x8BB SWAP1 TIMESTAMP SWAP1 PUSH2 0xF63 JUMP JUMPDEST CALLER PUSH1 0x0 SWAP1 DUP2 MSTORE PUSH1 0x7 PUSH1 0x20 MSTORE PUSH1 0x40 DUP2 KECCAK256 PUSH1 0x2 ADD SLOAD SWAP2 SWAP3 POP SWAP1 DUP3 LT PUSH2 0x8F7 JUMPI POP PUSH1 0x1 PUSH1 0x1 PUSH1 0xA0 SHL SUB DUP4 AND PUSH1 0x0 SWAP1 DUP2 MSTORE PUSH1 0x7 PUSH1 0x20 MSTORE PUSH1 0x40 SWAP1 KECCAK256 SLOAD PUSH2 0x581 JUMP JUMPDEST PUSH1 0x1 PUSH1 0x1 PUSH1 0xA0 SHL SUB DUP5 AND PUSH1 0x0 SWAP1 DUP2 MSTORE PUSH1 0x7 PUSH1 0x20 MSTORE PUSH1 0x40 SWAP1 KECCAK256 PUSH1 0x2 DUP2 ADD SLOAD SWAP1 SLOAD PUSH2 0x925 SWAP2 SWAP1 PUSH2 0x79B SWAP1 DUP6 PUSH2 0x13BF JUMP JUMPDEST SWAP5 SWAP4 POP POP POP POP JUMP JUMPDEST PUSH1 0x60 PUSH1 0x4 DUP1 SLOAD PUSH2 0x460 SWAP1 PUSH2 0x18A5 JUMP JUMPDEST PUSH1 0x2 PUSH1 0x6 SLOAD EQ ISZERO PUSH2 0x98F JUMPI PUSH1 0x40 MLOAD PUSH3 0x461BCD PUSH1 0xE5 SHL DUP2 MSTORE PUSH1 0x20 PUSH1 0x4 DUP3 ADD MSTORE PUSH1 0x1F PUSH1 0x24 DUP3 ADD MSTORE PUSH32 0x5265656E7472616E637947756172643A207265656E7472616E742063616C6C00 PUSH1 0x44 DUP3 ADD MSTORE PUSH1 0x64 ADD PUSH2 0x6C7 JUMP JUMPDEST PUSH1 0x2 PUSH1 0x6 SSTORE PUSH4 0x77359400 DUP2 GT ISZERO PUSH2 0x9DF JUMPI PUSH1 0x40 MLOAD PUSH3 0x461BCD PUSH1 0xE5 SHL DUP2 MSTORE PUSH1 0x20 PUSH1 0x4 DUP3 ADD MSTORE PUSH1 0x14 PUSH1 0x24 DUP3 ADD MSTORE PUSH20 0xDAC2F0406460606040EAE6C8C640E0CAE440E8F PUSH1 0x63 SHL PUSH1 0x44 DUP3 ADD MSTORE PUSH1 0x64 ADD PUSH2 0x6C7 JUMP JUMPDEST PUSH1 0xB SLOAD PUSH1 0xFF AND PUSH2 0xA23 JUMPI PUSH1 0x40 MLOAD PUSH3 0x461BCD PUSH1 0xE5 SHL DUP2 MSTORE PUSH1 0x20 PUSH1 0x4 DUP3 ADD MSTORE PUSH1 0xF PUSH1 0x24 DUP3 ADD MSTORE PUSH15 0x1B5A5B9D081B9BDD081BDC195B9959 PUSH1 0x8A SHL PUSH1 0x44 DUP3 ADD MSTORE PUSH1 0x64 ADD PUSH2 0x6C7 JUMP JUMPDEST PUSH1 0xB SLOAD PUSH1 0x40 MLOAD PUSH4 0x70A08231 PUSH1 0xE0 SHL DUP2 MSTORE CALLER PUSH1 0x4 DUP3 ADD MSTORE DUP3 SWAP2 PUSH2 0x100 SWAP1 DIV PUSH1 0x1 PUSH1 0x1 PUSH1 0xA0 SHL SUB AND SWAP1 PUSH4 0x70A08231 SWAP1 PUSH1 0x24 ADD PUSH1 0x20 PUSH1 0x40 MLOAD DUP1 DUP4 SUB DUP2 DUP7 GAS STATICCALL ISZERO DUP1 ISZERO PUSH2 0xA70 JUMPI RETURNDATASIZE PUSH1 0x0 DUP1 RETURNDATACOPY RETURNDATASIZE PUSH1 0x0 REVERT JUMPDEST POP POP POP POP PUSH1 0x40 MLOAD RETURNDATASIZE PUSH1 0x1F NOT PUSH1 0x1F DUP3 ADD AND DUP3 ADD DUP1 PUSH1 0x40 MSTORE POP DUP2 ADD SWAP1 PUSH2 0xA94 SWAP2 SWAP1 PUSH2 0x190E JUMP JUMPDEST LT ISZERO PUSH2 0xAD9 JUMPI PUSH1 0x40 MLOAD PUSH3 0x461BCD PUSH1 0xE5 SHL DUP2 MSTORE PUSH1 0x20 PUSH1 0x4 DUP3 ADD MSTORE PUSH1 0x14 PUSH1 0x24 DUP3 ADD MSTORE PUSH20 0x555344432062616C616E636520746F6F206C6F77 PUSH1 0x60 SHL PUSH1 0x44 DUP3 ADD MSTORE PUSH1 0x64 ADD PUSH2 0x6C7 JUMP JUMPDEST PUSH1 0x0 PUSH2 0xAEA DUP3 PUSH5 0xE8D4A51000 PUSH2 0x13BF JUMP JUMPDEST SWAP1 POP PUSH1 0x0 PUSH2 0xB09 PUSH1 0x8 SLOAD PUSH2 0x79B PUSH2 0x3E8 DUP6 PUSH2 0x13BF SWAP1 SWAP2 SWAP1 PUSH4 0xFFFFFFFF AND JUMP JUMPDEST SWAP1 POP PUSH1 0x9 SLOAD PUSH2 0xB7A DUP3 ADDRESS PUSH1 0x1 PUSH1 0x1 PUSH1 0xA0 SHL SUB AND PUSH4 0x18160DDD PUSH1 0x40 MLOAD DUP2 PUSH4 0xFFFFFFFF AND PUSH1 0xE0 SHL DUP2 MSTORE PUSH1 0x4 ADD PUSH1 0x20 PUSH1 0x40 MLOAD DUP1 DUP4 SUB DUP2 DUP7 GAS STATICCALL ISZERO DUP1 ISZERO PUSH2 0xB50 JUMPI RETURNDATASIZE PUSH1 0x0 DUP1 RETURNDATACOPY RETURNDATASIZE PUSH1 0x0 REVERT JUMPDEST POP POP POP POP PUSH1 0x40 MLOAD RETURNDATASIZE PUSH1 0x1F NOT PUSH1 0x1F DUP3 ADD AND DUP3 ADD DUP1 PUSH1 0x40 MSTORE POP DUP2 ADD SWAP1 PUSH2 0xB74 SWAP2 SWAP1 PUSH2 0x190E JUMP JUMPDEST SWAP1 PUSH2 0x1429 JUMP JUMPDEST GT ISZERO PUSH2 0xBB8 JUMPI PUSH1 0x40 MLOAD PUSH3 0x461BCD PUSH1 0xE5 SHL DUP2 MSTORE PUSH1 0x20 PUSH1 0x4 DUP3 ADD MSTORE PUSH1 0xD PUSH1 0x24 DUP3 ADD MSTORE PUSH13 0x6F766572206D696E742063617 PUSH1 0x9C SHL PUSH1 0x44 DUP3 ADD MSTORE PUSH1 0x64 ADD PUSH2 0x6C7 JUMP JUMPDEST CALLER PUSH1 0x0 SWAP1 DUP2 MSTORE PUSH1 0x7 PUSH1 0x20 MSTORE PUSH1 0x40 SWAP1 KECCAK256 SLOAD PUSH2 0xBD2 SWAP1 DUP3 PUSH2 0x1429 JUMP JUMPDEST CALLER PUSH1 0x0 SWAP1 DUP2 MSTORE PUSH1 0x7 PUSH1 0x20 MSTORE PUSH1 0x40 SWAP1 KECCAK256 SWAP1 DUP2 SSTORE TIMESTAMP PUSH1 0x1 DUP3 ADD SSTORE PUSH1 0xA SLOAD PUSH1 0x2 SWAP1 SWAP2 ADD SSTORE PUSH2 0xBFD ADDRESS DUP3 PUSH2 0x1435 JUMP JUMPDEST PUSH1 0xB SLOAD PUSH2 0x876 SWAP1 PUSH2 0x100 SWAP1 DIV PUSH1 0x1 PUSH1 0x1 PUSH1 0xA0 SHL SUB AND CALLER ADDRESS DUP7 PUSH2 0x1514 JUMP JUMPDEST PUSH1 0x0 CALLER DUP2 PUSH2 0xC28 DUP3 DUP7 PUSH2 0xCAE JUMP JUMPDEST SWAP1 POP DUP4 DUP2 LT ISZERO PUSH2 0xC88 JUMPI PUSH1 0x40 MLOAD PUSH3 0x461BCD PUSH1 0xE5 SHL DUP2 MSTORE PUSH1 0x20 PUSH1 0x4 DUP3 ADD MSTORE PUSH1 0x25 PUSH1 0x24 DUP3 ADD MSTORE PUSH32 0x45524332303A2064656372656173656420616C6C6F77616E63652062656C6F77 PUSH1 0x44 DUP3 ADD MSTORE PUSH5 0x207A65726F PUSH1 0xD8 SHL PUSH1 0x64 DUP3 ADD MSTORE PUSH1 0x84 ADD PUSH2 0x6C7 JUMP JUMPDEST PUSH2 0xC95 DUP3 DUP7 DUP7 DUP5 SUB PUSH2 0xE3E JUMP JUMPDEST POP PUSH1 0x1 SWAP5 SWAP4 POP POP POP POP JUMP JUMPDEST PUSH1 0x0 CALLER PUSH2 0x4F1 DUP2 DUP6 DUP6 PUSH2 0xFE9 JUMP JUMPDEST PUSH1 0x1 PUSH1 0x1 PUSH1 0xA0 SHL SUB SWAP2 DUP3 AND PUSH1 0x0 SWAP1 DUP2 MSTORE PUSH1 0x1 PUSH1 0x20 SWAP1 DUP2 MSTORE PUSH1 0x40 DUP1 DUP4 KECCAK256 SWAP4 SWAP1 SWAP5 AND DUP3 MSTORE SWAP2 SWAP1 SWAP2 MSTORE KECCAK256 SLOAD SWAP1 JUMP JUMPDEST PUSH2 0xCE1 PUSH2 0x11B7 JUMP JUMPDEST PUSH1 0xB DUP1 SLOAD PUSH1 0xFF NOT AND SWAP2 ISZERO ISZERO SWAP2 SWAP1 SWAP2 OR SWAP1 SSTORE JUMP JUMPDEST PUSH1 0x0 PUSH2 0xD64 ADDRESS PUSH1 0x1 PUSH1 0x1 PUSH1 0xA0 SHL SUB AND PUSH4 0x18160DDD PUSH1 0x40 MLOAD DUP2 PUSH4 0xFFFFFFFF AND PUSH1 0xE0 SHL DUP2 MSTORE PUSH1 0x4 ADD PUSH1 0x20 PUSH1 0x40 MLOAD DUP1 DUP4 SUB DUP2 DUP7 GAS STATICCALL ISZERO DUP1 ISZERO PUSH2 0xD37 JUMPI RETURNDATASIZE PUSH1 0x0 DUP1 RETURNDATACOPY RETURNDATASIZE PUSH1 0x0 REVERT JUMPDEST POP POP POP POP PUSH1 0x40 MLOAD RETURNDATASIZE PUSH1 0x1F NOT PUSH1 0x1F DUP3 ADD AND DUP3 ADD DUP1 PUSH1 0x40 MSTORE POP DUP2 ADD SWAP1 PUSH2 0xD5B SWAP2 SWAP1 PUSH2 0x190E JUMP JUMPDEST PUSH1 0x9 SLOAD SWAP1 PUSH2 0xF63 JUMP JUMPDEST SWAP1 POP SWAP1 JUMP JUMPDEST PUSH2 0xD71 PUSH2 0x11B7 JUMP JUMPDEST PUSH1 0x1 PUSH1 0x1 PUSH1 0xA0 SHL SUB DUP2 AND PUSH2 0xDD6 JUMPI PUSH1 0x40 MLOAD PUSH3 0x461BCD PUSH1 0xE5 SHL DUP2 MSTORE PUSH1 0x20 PUSH1 0x4 DUP3 ADD MSTORE PUSH1 0x26 PUSH1 0x24 DUP3 ADD MSTORE PUSH32 0x4F776E61626C653A206E6577206F776E657220697320746865207A65726F2061 PUSH1 0x44 DUP3 ADD MSTORE PUSH6 0x646472657373 PUSH1 0xD0 SHL PUSH1 0x64 DUP3 ADD MSTORE PUSH1 0x84 ADD PUSH2 0x6C7 JUMP JUMPDEST PUSH2 0x5CE DUP2 PUSH2 0x13D7 JUMP JUMPDEST PUSH2 0xDE7 PUSH2 0x11B7 JUMP JUMPDEST PUSH1 0x8 SLOAD DUP2 LT ISZERO PUSH2 0xE39 JUMPI PUSH1 0x40 MLOAD PUSH3 0x461BCD PUSH1 0xE5 SHL DUP2 MSTORE PUSH1 0x20 PUSH1 0x4 DUP3 ADD MSTORE PUSH1 0x1D PUSH1 0x24 DUP3 ADD MSTORE PUSH32 0x63616E2774206265206C6F776572207468616E206C617374206D696E74000000 PUSH1 0x44 DUP3 ADD MSTORE PUSH1 0x64 ADD PUSH2 0x6C7 JUMP JUMPDEST PUSH1 0x8 SSTORE JUMP JUMPDEST PUSH1 0x1 PUSH1 0x1 PUSH1 0xA0 SHL SUB DUP4 AND PUSH2 0xEA0 JUMPI PUSH1 0x40 MLOAD PUSH3 0x461BCD PUSH1 0xE5 SHL DUP2 MSTORE PUSH1 0x20 PUSH1 0x4 DUP3 ADD MSTORE PUSH1 0x24 DUP1 DUP3 ADD MSTORE PUSH32 0x45524332303A20617070726F76652066726F6D20746865207A65726F20616464 PUSH1 0x44 DUP3 ADD MSTORE PUSH4 0x72657373 PUSH1 0xE0 SHL PUSH1 0x64 DUP3 ADD MSTORE PUSH1 0x84 ADD PUSH2 0x6C7 JUMP JUMPDEST PUSH1 0x1 PUSH1 0x1 PUSH1 0xA0 SHL SUB DUP3 AND PUSH2 0xF01 JUMPI PUSH1 0x40 MLOAD PUSH3 0x461BCD PUSH1 0xE5 SHL DUP2 MSTORE PUSH1 0x20 PUSH1 0x4 DUP3 ADD MSTORE PUSH1 0x22 PUSH1 0x24 DUP3 ADD MSTORE PUSH32 0x45524332303A20617070726F766520746F20746865207A65726F206164647265 PUSH1 0x44 DUP3 ADD MSTORE PUSH2 0x7373 PUSH1 0xF0 SHL PUSH1 0x64 DUP3 ADD MSTORE PUSH1 0x84 ADD PUSH2 0x6C7 JUMP JUMPDEST PUSH1 0x1 PUSH1 0x1 PUSH1 0xA0 SHL SUB DUP4 DUP2 AND PUSH1 0x0 DUP2 DUP2 MSTORE PUSH1 0x1 PUSH1 0x20 SWAP1 DUP2 MSTORE PUSH1 0x40 DUP1 DUP4 KECCAK256 SWAP5 DUP8 AND DUP1 DUP5 MSTORE SWAP5 DUP3 MSTORE SWAP2 DUP3 SWAP1 KECCAK256 DUP6 SWAP1 SSTORE SWAP1 MLOAD DUP5 DUP2 MSTORE PUSH32 0x8C5BE1E5EBEC7D5BD14F71427D1E84F3DD0314C0F7B2291E5B200AC8C7C3B925 SWAP2 ADD JUMPDEST PUSH1 0x40 MLOAD DUP1 SWAP2 SUB SWAP1 LOG3 POP POP POP JUMP JUMPDEST PUSH1 0x0 PUSH2 0x581 DUP3 DUP5 PUSH2 0x1944 JUMP JUMPDEST PUSH1 0x0 PUSH2 0xF7B DUP5 DUP5 PUSH2 0xCAE JUMP JUMPDEST SWAP1 POP PUSH1 0x0 NOT DUP2 EQ PUSH2 0xFE3 JUMPI DUP2 DUP2 LT ISZERO PUSH2 0xFD6 JUMPI PUSH1 0x40 MLOAD PUSH3 0x461BCD PUSH1 0xE5 SHL DUP2 MSTORE PUSH1 0x20 PUSH1 0x4 DUP3 ADD MSTORE PUSH1 0x1D PUSH1 0x24 DUP3 ADD MSTORE PUSH32 0x45524332303A20696E73756666696369656E7420616C6C6F77616E6365000000 PUSH1 0x44 DUP3 ADD MSTORE PUSH1 0x64 ADD PUSH2 0x6C7 JUMP JUMPDEST PUSH2 0xFE3 DUP5 DUP5 DUP5 DUP5 SUB PUSH2 0xE3E JUMP JUMPDEST POP POP POP POP JUMP JUMPDEST PUSH1 0x1 PUSH1 0x1 PUSH1 0xA0 SHL SUB DUP4 AND PUSH2 0x104D JUMPI PUSH1 0x40 MLOAD PUSH3 0x461BCD PUSH1 0xE5 SHL DUP2 MSTORE PUSH1 0x20 PUSH1 0x4 DUP3 ADD MSTORE PUSH1 0x25 PUSH1 0x24 DUP3 ADD MSTORE PUSH32 0x45524332303A207472616E736665722066726F6D20746865207A65726F206164 PUSH1 0x44 DUP3 ADD MSTORE PUSH5 0x6472657373 PUSH1 0xD8 SHL PUSH1 0x64 DUP3 ADD MSTORE PUSH1 0x84 ADD PUSH2 0x6C7 JUMP JUMPDEST PUSH1 0x1 PUSH1 0x1 PUSH1 0xA0 SHL SUB DUP3 AND PUSH2 0x10AF JUMPI PUSH1 0x40 MLOAD PUSH3 0x461BCD PUSH1 0xE5 SHL DUP2 MSTORE PUSH1 0x20 PUSH1 0x4 DUP3 ADD MSTORE PUSH1 0x23 PUSH1 0x24 DUP3 ADD MSTORE PUSH32 0x45524332303A207472616E7366657220746F20746865207A65726F2061646472 PUSH1 0x44 DUP3 ADD MSTORE PUSH3 0x657373 PUSH1 0xE8 SHL PUSH1 0x64 DUP3 ADD MSTORE PUSH1 0x84 ADD PUSH2 0x6C7 JUMP JUMPDEST PUSH1 0x1 PUSH1 0x1 PUSH1 0xA0 SHL SUB DUP4 AND PUSH1 0x0 SWAP1 DUP2 MSTORE PUSH1 0x20 DUP2 SWAP1 MSTORE PUSH1 0x40 SWAP1 KECCAK256 SLOAD DUP2 DUP2 LT ISZERO PUSH2 0x1127 JUMPI PUSH1 0x40 MLOAD PUSH3 0x461BCD PUSH1 0xE5 SHL DUP2 MSTORE PUSH1 0x20 PUSH1 0x4 DUP3 ADD MSTORE PUSH1 0x26 PUSH1 0x24 DUP3 ADD MSTORE PUSH32 0x45524332303A207472616E7366657220616D6F756E7420657863656564732062 PUSH1 0x44 DUP3 ADD MSTORE PUSH6 0x616C616E6365 PUSH1 0xD0 SHL PUSH1 0x64 DUP3 ADD MSTORE PUSH1 0x84 ADD PUSH2 0x6C7 JUMP JUMPDEST PUSH1 0x1 PUSH1 0x1 PUSH1 0xA0 SHL SUB DUP1 DUP6 AND PUSH1 0x0 SWAP1 DUP2 MSTORE PUSH1 0x20 DUP2 SWAP1 MSTORE PUSH1 0x40 DUP1 DUP3 KECCAK256 DUP6 DUP6 SUB SWAP1 SSTORE SWAP2 DUP6 AND DUP2 MSTORE SWAP1 DUP2 KECCAK256 DUP1 SLOAD DUP5 SWAP3 SWAP1 PUSH2 0x115E SWAP1 DUP5 SWAP1 PUSH2 0x18F6 JUMP JUMPDEST SWAP3 POP POP DUP2 SWAP1 SSTORE POP DUP3 PUSH1 0x1 PUSH1 0x1 PUSH1 0xA0 SHL SUB AND DUP5 PUSH1 0x1 PUSH1 0x1 PUSH1 0xA0 SHL SUB AND PUSH32 0xDDF252AD1BE2C89B69C2B068FC378DAA952BA7F163C4A11628F55A4DF523B3EF DUP5 PUSH1 0x40 MLOAD PUSH2 0x11AA SWAP2 DUP2 MSTORE PUSH1 0x20 ADD SWAP1 JUMP JUMPDEST PUSH1 0x40 MLOAD DUP1 SWAP2 SUB SWAP1 LOG3 PUSH2 0xFE3 JUMP JUMPDEST PUSH1 0x5 SLOAD PUSH1 0x1 PUSH1 0x1 PUSH1 0xA0 SHL SUB AND CALLER EQ PUSH2 0x676 JUMPI PUSH1 0x40 MLOAD PUSH3 0x461BCD PUSH1 0xE5 SHL DUP2 MSTORE PUSH1 0x20 PUSH1 0x4 DUP3 ADD DUP2 SWAP1 MSTORE PUSH1 0x24 DUP3 ADD MSTORE PUSH32 0x4F776E61626C653A2063616C6C6572206973206E6F7420746865206F776E6572 PUSH1 0x44 DUP3 ADD MSTORE PUSH1 0x64 ADD PUSH2 0x6C7 JUMP JUMPDEST PUSH1 0x1 PUSH1 0x1 PUSH1 0xA0 SHL SUB DUP3 AND PUSH2 0x1271 JUMPI PUSH1 0x40 MLOAD PUSH3 0x461BCD PUSH1 0xE5 SHL DUP2 MSTORE PUSH1 0x20 PUSH1 0x4 DUP3 ADD MSTORE PUSH1 0x21 PUSH1 0x24 DUP3 ADD MSTORE PUSH32 0x45524332303A206275726E2066726F6D20746865207A65726F20616464726573 PUSH1 0x44 DUP3 ADD MSTORE PUSH1 0x73 PUSH1 0xF8 SHL PUSH1 0x64 DUP3 ADD MSTORE PUSH1 0x84 ADD PUSH2 0x6C7 JUMP JUMPDEST PUSH1 0x1 PUSH1 0x1 PUSH1 0xA0 SHL SUB DUP3 AND PUSH1 0x0 SWAP1 DUP2 MSTORE PUSH1 0x20 DUP2 SWAP1 MSTORE PUSH1 0x40 SWAP1 KECCAK256 SLOAD DUP2 DUP2 LT ISZERO PUSH2 0x12E5 JUMPI PUSH1 0x40 MLOAD PUSH3 0x461BCD PUSH1 0xE5 SHL DUP2 MSTORE PUSH1 0x20 PUSH1 0x4 DUP3 ADD MSTORE PUSH1 0x22 PUSH1 0x24 DUP3 ADD MSTORE PUSH32 0x45524332303A206275726E20616D6F756E7420657863656564732062616C616E PUSH1 0x44 DUP3 ADD MSTORE PUSH2 0x6365 PUSH1 0xF0 SHL PUSH1 0x64 DUP3 ADD MSTORE PUSH1 0x84 ADD PUSH2 0x6C7 JUMP JUMPDEST PUSH1 0x1 PUSH1 0x1 PUSH1 0xA0 SHL SUB DUP4 AND PUSH1 0x0 SWAP1 DUP2 MSTORE PUSH1 0x20 DUP2 SWAP1 MSTORE PUSH1 0x40 DUP2 KECCAK256 DUP4 DUP4 SUB SWAP1 SSTORE PUSH1 0x2 DUP1 SLOAD DUP5 SWAP3 SWAP1 PUSH2 0x1314 SWAP1 DUP5 SWAP1 PUSH2 0x1944 JUMP JUMPDEST SWAP1 SWAP2 SSTORE POP POP PUSH1 0x40 MLOAD DUP3 DUP2 MSTORE PUSH1 0x0 SWAP1 PUSH1 0x1 PUSH1 0x1 PUSH1 0xA0 SHL SUB DUP6 AND SWAP1 PUSH32 0xDDF252AD1BE2C89B69C2B068FC378DAA952BA7F163C4A11628F55A4DF523B3EF SWAP1 PUSH1 0x20 ADD PUSH2 0xF56 JUMP JUMPDEST POP POP POP JUMP JUMPDEST PUSH1 0x40 MLOAD PUSH1 0x1 PUSH1 0x1 PUSH1 0xA0 SHL SUB DUP4 AND PUSH1 0x24 DUP3 ADD MSTORE PUSH1 0x44 DUP2 ADD DUP3 SWAP1 MSTORE PUSH2 0x1357 SWAP1 DUP5 SWAP1 PUSH4 0xA9059CBB PUSH1 0xE0 SHL SWAP1 PUSH1 0x64 ADD JUMPDEST PUSH1 0x40 DUP1 MLOAD PUSH1 0x1F NOT DUP2 DUP5 SUB ADD DUP2 MSTORE SWAP2 SWAP1 MSTORE PUSH1 0x20 DUP2 ADD DUP1 MLOAD PUSH1 0x1 PUSH1 0x1 PUSH1 0xE0 SHL SUB AND PUSH1 0x1 PUSH1 0x1 PUSH1 0xE0 SHL SUB NOT SWAP1 SWAP4 AND SWAP3 SWAP1 SWAP3 OR SWAP1 SWAP2 MSTORE PUSH2 0x154C JUMP JUMPDEST PUSH1 0x0 PUSH2 0x581 DUP3 DUP5 PUSH2 0x195B JUMP JUMPDEST PUSH1 0x0 PUSH2 0x581 DUP3 DUP5 PUSH2 0x197A JUMP JUMPDEST PUSH1 0x5 DUP1 SLOAD PUSH1 0x1 PUSH1 0x1 PUSH1 0xA0 SHL SUB DUP4 DUP2 AND PUSH1 0x1 PUSH1 0x1 PUSH1 0xA0 SHL SUB NOT DUP4 AND DUP2 OR SWAP1 SWAP4 SSTORE PUSH1 0x40 MLOAD SWAP2 AND SWAP2 SWAP1 DUP3 SWAP1 PUSH32 0x8BE0079C531659141344CD1FD0A4F28419497F9722A3DAAFE3B4186F6B6457E0 SWAP1 PUSH1 0x0 SWAP1 LOG3 POP POP JUMP JUMPDEST PUSH1 0x0 PUSH2 0x581 DUP3 DUP5 PUSH2 0x18F6 JUMP JUMPDEST PUSH1 0x1 PUSH1 0x1 PUSH1 0xA0 SHL SUB DUP3 AND PUSH2 0x148B JUMPI PUSH1 0x40 MLOAD PUSH3 0x461BCD PUSH1 0xE5 SHL DUP2 MSTORE PUSH1 0x20 PUSH1 0x4 DUP3 ADD MSTORE PUSH1 0x1F PUSH1 0x24 DUP3 ADD MSTORE PUSH32 0x45524332303A206D696E7420746F20746865207A65726F206164647265737300 PUSH1 0x44 DUP3 ADD MSTORE PUSH1 0x64 ADD PUSH2 0x6C7 JUMP JUMPDEST DUP1 PUSH1 0x2 PUSH1 0x0 DUP3 DUP3 SLOAD PUSH2 0x149D SWAP2 SWAP1 PUSH2 0x18F6 JUMP JUMPDEST SWAP1 SWAP2 SSTORE POP POP PUSH1 0x1 PUSH1 0x1 PUSH1 0xA0 SHL SUB DUP3 AND PUSH1 0x0 SWAP1 DUP2 MSTORE PUSH1 0x20 DUP2 SWAP1 MSTORE PUSH1 0x40 DUP2 KECCAK256 DUP1 SLOAD DUP4 SWAP3 SWAP1 PUSH2 0x14CA SWAP1 DUP5 SWAP1 PUSH2 0x18F6 JUMP JUMPDEST SWAP1 SWAP2 SSTORE POP POP PUSH1 0x40 MLOAD DUP2 DUP2 MSTORE PUSH1 0x1 PUSH1 0x1 PUSH1 0xA0 SHL SUB DUP4 AND SWAP1 PUSH1 0x0 SWAP1 PUSH32 0xDDF252AD1BE2C89B69C2B068FC378DAA952BA7F163C4A11628F55A4DF523B3EF SWAP1 PUSH1 0x20 ADD PUSH1 0x40 MLOAD DUP1 SWAP2 SUB SWAP1 LOG3 POP POP JUMP JUMPDEST PUSH1 0x40 MLOAD PUSH1 0x1 PUSH1 0x1 PUSH1 0xA0 SHL SUB DUP1 DUP6 AND PUSH1 0x24 DUP4 ADD MSTORE DUP4 AND PUSH1 0x44 DUP3 ADD MSTORE PUSH1 0x64 DUP2 ADD DUP3 SWAP1 MSTORE PUSH2 0xFE3 SWAP1 DUP6 SWAP1 PUSH4 0x23B872DD PUSH1 0xE0 SHL SWAP1 PUSH1 0x84 ADD PUSH2 0x1388 JUMP JUMPDEST PUSH1 0x0 PUSH2 0x15A1 DUP3 PUSH1 0x40 MLOAD DUP1 PUSH1 0x40 ADD PUSH1 0x40 MSTORE DUP1 PUSH1 0x20 DUP2 MSTORE PUSH1 0x20 ADD PUSH32 0x5361666545524332303A206C6F772D6C6576656C2063616C6C206661696C6564 DUP2 MSTORE POP DUP6 PUSH1 0x1 PUSH1 0x1 PUSH1 0xA0 SHL SUB AND PUSH2 0x161E SWAP1 SWAP3 SWAP2 SWAP1 PUSH4 0xFFFFFFFF AND JUMP JUMPDEST DUP1 MLOAD SWAP1 SWAP2 POP ISZERO PUSH2 0x1357 JUMPI DUP1 DUP1 PUSH1 0x20 ADD SWAP1 MLOAD DUP2 ADD SWAP1 PUSH2 0x15BF SWAP2 SWAP1 PUSH2 0x1927 JUMP JUMPDEST PUSH2 0x1357 JUMPI PUSH1 0x40 MLOAD PUSH3 0x461BCD PUSH1 0xE5 SHL DUP2 MSTORE PUSH1 0x20 PUSH1 0x4 DUP3 ADD MSTORE PUSH1 0x2A PUSH1 0x24 DUP3 ADD MSTORE PUSH32 0x5361666545524332303A204552433230206F7065726174696F6E20646964206E PUSH1 0x44 DUP3 ADD MSTORE PUSH10 0x1BDD081CDD58D8D95959 PUSH1 0xB2 SHL PUSH1 0x64 DUP3 ADD MSTORE PUSH1 0x84 ADD PUSH2 0x6C7 JUMP JUMPDEST PUSH1 0x60 PUSH2 0x925 DUP5 DUP5 PUSH1 0x0 DUP6 DUP6 PUSH1 0x1 PUSH1 0x1 PUSH1 0xA0 SHL SUB DUP6 AND EXTCODESIZE PUSH2 0x1680 JUMPI PUSH1 0x40 MLOAD PUSH3 0x461BCD PUSH1 0xE5 SHL DUP2 MSTORE PUSH1 0x20 PUSH1 0x4 DUP3 ADD MSTORE PUSH1 0x1D PUSH1 0x24 DUP3 ADD MSTORE PUSH32 0x416464726573733A2063616C6C20746F206E6F6E2D636F6E7472616374000000 PUSH1 0x44 DUP3 ADD MSTORE PUSH1 0x64 ADD PUSH2 0x6C7 JUMP JUMPDEST PUSH1 0x0 DUP1 DUP7 PUSH1 0x1 PUSH1 0x1 PUSH1 0xA0 SHL SUB AND DUP6 DUP8 PUSH1 0x40 MLOAD PUSH2 0x169C SWAP2 SWAP1 PUSH2 0x199C JUMP JUMPDEST PUSH1 0x0 PUSH1 0x40 MLOAD DUP1 DUP4 SUB DUP2 DUP6 DUP8 GAS CALL SWAP3 POP POP POP RETURNDATASIZE DUP1 PUSH1 0x0 DUP2 EQ PUSH2 0x16D9 JUMPI PUSH1 0x40 MLOAD SWAP2 POP PUSH1 0x1F NOT PUSH1 0x3F RETURNDATASIZE ADD AND DUP3 ADD PUSH1 0x40 MSTORE RETURNDATASIZE DUP3 MSTORE RETURNDATASIZE PUSH1 0x0 PUSH1 0x20 DUP5 ADD RETURNDATACOPY PUSH2 0x16DE JUMP JUMPDEST PUSH1 0x60 SWAP2 POP JUMPDEST POP SWAP2 POP SWAP2 POP PUSH2 0x16EE DUP3 DUP3 DUP7 PUSH2 0x16F9 JUMP JUMPDEST SWAP8 SWAP7 POP POP POP POP POP POP POP JUMP JUMPDEST PUSH1 0x60 DUP4 ISZERO PUSH2 0x1708 JUMPI POP DUP2 PUSH2 0x581 JUMP JUMPDEST DUP3 MLOAD ISZERO PUSH2 0x1718 JUMPI DUP3 MLOAD DUP1 DUP5 PUSH1 0x20 ADD REVERT JUMPDEST DUP2 PUSH1 0x40 MLOAD PUSH3 0x461BCD PUSH1 0xE5 SHL DUP2 MSTORE PUSH1 0x4 ADD PUSH2 0x6C7 SWAP2 SWAP1 PUSH2 0x175E JUMP JUMPDEST PUSH1 0x0 JUMPDEST DUP4 DUP2 LT ISZERO PUSH2 0x174D JUMPI DUP2 DUP2 ADD MLOAD DUP4 DUP3 ADD MSTORE PUSH1 0x20 ADD PUSH2 0x1735 JUMP JUMPDEST DUP4 DUP2 GT ISZERO PUSH2 0xFE3 JUMPI POP POP PUSH1 0x0 SWAP2 ADD MSTORE JUMP JUMPDEST PUSH1 0x20 DUP2 MSTORE PUSH1 0x0 DUP3 MLOAD DUP1 PUSH1 0x20 DUP5 ADD MSTORE PUSH2 0x177D DUP2 PUSH1 0x40 DUP6 ADD PUSH1 0x20 DUP8 ADD PUSH2 0x1732 JUMP JUMPDEST PUSH1 0x1F ADD PUSH1 0x1F NOT AND SWAP2 SWAP1 SWAP2 ADD PUSH1 0x40 ADD SWAP3 SWAP2 POP POP JUMP JUMPDEST DUP1 CALLDATALOAD PUSH1 0x1 PUSH1 0x1 PUSH1 0xA0 SHL SUB DUP2 AND DUP2 EQ PUSH2 0x17A8 JUMPI PUSH1 0x0 DUP1 REVERT JUMPDEST SWAP2 SWAP1 POP JUMP JUMPDEST PUSH1 0x0 DUP1 PUSH1 0x40 DUP4 DUP6 SUB SLT ISZERO PUSH2 0x17C0 JUMPI PUSH1 0x0 DUP1 REVERT JUMPDEST PUSH2 0x17C9 DUP4 PUSH2 0x1791 JUMP JUMPDEST SWAP5 PUSH1 0x20 SWAP4 SWAP1 SWAP4 ADD CALLDATALOAD SWAP4 POP POP POP JUMP JUMPDEST PUSH1 0x0 PUSH1 0x20 DUP3 DUP5 SUB SLT ISZERO PUSH2 0x17E9 JUMPI PUSH1 0x0 DUP1 REVERT JUMPDEST PUSH2 0x581 DUP3 PUSH2 0x1791 JUMP JUMPDEST PUSH1 0x0 DUP1 PUSH1 0x0 PUSH1 0x60 DUP5 DUP7 SUB SLT ISZERO PUSH2 0x1807 JUMPI PUSH1 0x0 DUP1 REVERT JUMPDEST PUSH2 0x1810 DUP5 PUSH2 0x1791 JUMP JUMPDEST SWAP3 POP PUSH2 0x181E PUSH1 0x20 DUP6 ADD PUSH2 0x1791 JUMP JUMPDEST SWAP2 POP PUSH1 0x40 DUP5 ADD CALLDATALOAD SWAP1 POP SWAP3 POP SWAP3 POP SWAP3 JUMP JUMPDEST PUSH1 0x0 PUSH1 0x20 DUP3 DUP5 SUB SLT ISZERO PUSH2 0x1840 JUMPI PUSH1 0x0 DUP1 REVERT JUMPDEST POP CALLDATALOAD SWAP2 SWAP1 POP JUMP JUMPDEST PUSH1 0x0 DUP1 PUSH1 0x40 DUP4 DUP6 SUB SLT ISZERO PUSH2 0x185A JUMPI PUSH1 0x0 DUP1 REVERT JUMPDEST PUSH2 0x1863 DUP4 PUSH2 0x1791 JUMP JUMPDEST SWAP2 POP PUSH2 0x1871 PUSH1 0x20 DUP5 ADD PUSH2 0x1791 JUMP JUMPDEST SWAP1 POP SWAP3 POP SWAP3 SWAP1 POP JUMP JUMPDEST DUP1 ISZERO ISZERO DUP2 EQ PUSH2 0x5CE JUMPI PUSH1 0x0 DUP1 REVERT JUMPDEST PUSH1 0x0 PUSH1 0x20 DUP3 DUP5 SUB SLT ISZERO PUSH2 0x189A JUMPI PUSH1 0x0 DUP1 REVERT JUMPDEST DUP2 CALLDATALOAD PUSH2 0x581 DUP2 PUSH2 0x187A JUMP JUMPDEST PUSH1 0x1 DUP2 DUP2 SHR SWAP1 DUP3 AND DUP1 PUSH2 0x18B9 JUMPI PUSH1 0x7F DUP3 AND SWAP2 POP JUMPDEST PUSH1 0x20 DUP3 LT DUP2 EQ ISZERO PUSH2 0x18DA JUMPI PUSH4 0x4E487B71 PUSH1 0xE0 SHL PUSH1 0x0 MSTORE PUSH1 0x22 PUSH1 0x4 MSTORE PUSH1 0x24 PUSH1 0x0 REVERT JUMPDEST POP SWAP2 SWAP1 POP JUMP JUMPDEST PUSH4 0x4E487B71 PUSH1 0xE0 SHL PUSH1 0x0 MSTORE PUSH1 0x11 PUSH1 0x4 MSTORE PUSH1 0x24 PUSH1 0x0 REVERT JUMPDEST PUSH1 0x0 DUP3 NOT DUP3 GT ISZERO PUSH2 0x1909 JUMPI PUSH2 0x1909 PUSH2 0x18E0 JUMP JUMPDEST POP ADD SWAP1 JUMP JUMPDEST PUSH1 0x0 PUSH1 0x20 DUP3 DUP5 SUB SLT ISZERO PUSH2 0x1920 JUMPI PUSH1 0x0 DUP1 REVERT JUMPDEST POP MLOAD SWAP2 SWAP1 POP JUMP JUMPDEST PUSH1 0x0 PUSH1 0x20 DUP3 DUP5 SUB SLT ISZERO PUSH2 0x1939 JUMPI PUSH1 0x0 DUP1 REVERT JUMPDEST DUP2 MLOAD PUSH2 0x581 DUP2 PUSH2 0x187A JUMP JUMPDEST PUSH1 0x0 DUP3 DUP3 LT ISZERO PUSH2 0x1956 JUMPI PUSH2 0x1956 PUSH2 0x18E0 JUMP JUMPDEST POP SUB SWAP1 JUMP JUMPDEST PUSH1 0x0 DUP2 PUSH1 0x0 NOT DIV DUP4 GT DUP3 ISZERO ISZERO AND ISZERO PUSH2 0x1975 JUMPI PUSH2 0x1975 PUSH2 0x18E0 JUMP JUMPDEST POP MUL SWAP1 JUMP JUMPDEST PUSH1 0x0 DUP3 PUSH2 0x1997 JUMPI PUSH4 0x4E487B71 PUSH1 0xE0 SHL PUSH1 0x0 MSTORE PUSH1 0x12 PUSH1 0x4 MSTORE PUSH1 0x24 PUSH1 0x0 REVERT JUMPDEST POP DIV SWAP1 JUMP JUMPDEST PUSH1 0x0 DUP3 MLOAD PUSH2 0x19AE DUP2 DUP5 PUSH1 0x20 DUP8 ADD PUSH2 0x1732 JUMP JUMPDEST SWAP2 SWAP1 SWAP2 ADD SWAP3 SWAP2 POP POP JUMP INVALID LOG2 PUSH5 0x6970667358 0x22 SLT KECCAK256 SWAP12 DUP9 PUSH4 0x330D3AF9 TIMESTAMP PUSH27 0x1E210A4FADCD5C0CEE1673AF0F876B2FBA64EF2A769C8864736F6C PUSH4 0x4300080C STOP CALLER "
				},
				"gasEstimates": {
					"creation": {
						"codeDepositCost": "1327600",
						"executionCost": "infinite",
						"totalCost": "infinite"
					},
					"external": {
						"USDC()": "2415",
						"allowance(address,address)": "infinite",
						"approve(address,uint256)": "24671",
						"balanceOf(address)": "2586",
						"burn(uint256)": "50906",
						"claim()": "infinite",
						"claimableTokens(address)": "infinite",
						"decimals()": "223",
						"decreaseAllowance(address,uint256)": "27018",
						"increaseAllowance(address,uint256)": "27047",
						"mint(uint256)": "infinite",
						"mintCap()": "2407",
						"mintOpen()": "2422",
						"mintPrice()": "2406",
						"name()": "infinite",
						"owner()": "2420",
						"recoverTreasuryTokens()": "infinite",
						"remainingMintableTokens()": "infinite",
						"remainingVestedTime()": "infinite",
						"renounceOwnership()": "infinite",
						"setMintCap(uint256)": "24578",
						"setMintPrice(uint256)": "26724",
						"setOpenMint(bool)": "26731",
						"setVestingPeriod(uint256)": "24600",
						"symbol()": "infinite",
						"totalSupply()": "2372",
						"transfer(address,uint256)": "51271",
						"transferFrom(address,address,uint256)": "infinite",
						"transferOwnership(address)": "28424",
						"userInfo(address)": "6840",
						"vestingPeriod()": "2385"
					}
				},
				"methodIdentifiers": {
					"USDC()": "89a30271",
					"allowance(address,address)": "dd62ed3e",
					"approve(address,uint256)": "095ea7b3",
					"balanceOf(address)": "70a08231",
					"burn(uint256)": "42966c68",
					"claim()": "4e71d92d",
					"claimableTokens(address)": "84d24226",
					"decimals()": "313ce567",
					"decreaseAllowance(address,uint256)": "a457c2d7",
					"increaseAllowance(address,uint256)": "39509351",
					"mint(uint256)": "a0712d68",
					"mintCap()": "76c71ca1",
					"mintOpen()": "24bbd049",
					"mintPrice()": "6817c76c",
					"name()": "06fdde03",
					"owner()": "8da5cb5b",
					"recoverTreasuryTokens()": "4e274514",
					"remainingMintableTokens()": "e2e5c15c",
					"remainingVestedTime()": "20f203d9",
					"renounceOwnership()": "715018a6",
					"setMintCap(uint256)": "4070a0c9",
					"setMintPrice(uint256)": "f4a0a528",
					"setOpenMint(bool)": "e2af30f4",
					"setVestingPeriod(uint256)": "40bee0ed",
					"symbol()": "95d89b41",
					"totalSupply()": "18160ddd",
					"transfer(address,uint256)": "a9059cbb",
					"transferFrom(address,address,uint256)": "23b872dd",
					"transferOwnership(address)": "f2fde38b",
					"userInfo(address)": "1959a002",
					"vestingPeriod()": "7313ee5a"
				}
			},
			"storageLayout": {
				"storage": [
					{
						"astId": 168,
						"contract": "contracts/final/GMD.sol:GMD",
						"label": "_balances",
						"offset": 0,
						"slot": "0",
						"type": "t_mapping(t_address,t_uint256)"
					},
					{
						"astId": 174,
						"contract": "contracts/final/GMD.sol:GMD",
						"label": "_allowances",
						"offset": 0,
						"slot": "1",
						"type": "t_mapping(t_address,t_mapping(t_address,t_uint256))"
					},
					{
						"astId": 176,
						"contract": "contracts/final/GMD.sol:GMD",
						"label": "_totalSupply",
						"offset": 0,
						"slot": "2",
						"type": "t_uint256"
					},
					{
						"astId": 178,
						"contract": "contracts/final/GMD.sol:GMD",
						"label": "_name",
						"offset": 0,
						"slot": "3",
						"type": "t_string_storage"
					},
					{
						"astId": 180,
						"contract": "contracts/final/GMD.sol:GMD",
						"label": "_symbol",
						"offset": 0,
						"slot": "4",
						"type": "t_string_storage"
					},
					{
						"astId": 7,
						"contract": "contracts/final/GMD.sol:GMD",
						"label": "_owner",
						"offset": 0,
						"slot": "5",
						"type": "t_address"
					},
					{
						"astId": 123,
						"contract": "contracts/final/GMD.sol:GMD",
						"label": "_status",
						"offset": 0,
						"slot": "6",
						"type": "t_uint256"
					},
					{
						"astId": 1836,
						"contract": "contracts/final/GMD.sol:GMD",
						"label": "userInfo",
						"offset": 0,
						"slot": "7",
						"type": "t_mapping(t_address,t_struct(UserInfo)1831_storage)"
					},
					{
						"astId": 1839,
						"contract": "contracts/final/GMD.sol:GMD",
						"label": "mintPrice",
						"offset": 0,
						"slot": "8",
						"type": "t_uint256"
					},
					{
						"astId": 1842,
						"contract": "contracts/final/GMD.sol:GMD",
						"label": "mintCap",
						"offset": 0,
						"slot": "9",
						"type": "t_uint256"
					},
					{
						"astId": 1845,
						"contract": "contracts/final/GMD.sol:GMD",
						"label": "vestingPeriod",
						"offset": 0,
						"slot": "10",
						"type": "t_uint256"
					},
					{
						"astId": 1848,
						"contract": "contracts/final/GMD.sol:GMD",
						"label": "mintOpen",
						"offset": 0,
						"slot": "11",
						"type": "t_bool"
					},
					{
						"astId": 1854,
						"contract": "contracts/final/GMD.sol:GMD",
						"label": "USDC",
						"offset": 1,
						"slot": "11",
						"type": "t_contract(IERC20)816"
					}
				],
				"types": {
					"t_address": {
						"encoding": "inplace",
						"label": "address",
						"numberOfBytes": "20"
					},
					"t_bool": {
						"encoding": "inplace",
						"label": "bool",
						"numberOfBytes": "1"
					},
					"t_contract(IERC20)816": {
						"encoding": "inplace",
						"label": "contract IERC20",
						"numberOfBytes": "20"
					},
					"t_mapping(t_address,t_mapping(t_address,t_uint256))": {
						"encoding": "mapping",
						"key": "t_address",
						"label": "mapping(address => mapping(address => uint256))",
						"numberOfBytes": "32",
						"value": "t_mapping(t_address,t_uint256)"
					},
					"t_mapping(t_address,t_struct(UserInfo)1831_storage)": {
						"encoding": "mapping",
						"key": "t_address",
						"label": "mapping(address => struct GMD.UserInfo)",
						"numberOfBytes": "32",
						"value": "t_struct(UserInfo)1831_storage"
					},
					"t_mapping(t_address,t_uint256)": {
						"encoding": "mapping",
						"key": "t_address",
						"label": "mapping(address => uint256)",
						"numberOfBytes": "32",
						"value": "t_uint256"
					},
					"t_string_storage": {
						"encoding": "bytes",
						"label": "string",
						"numberOfBytes": "32"
					},
					"t_struct(UserInfo)1831_storage": {
						"encoding": "inplace",
						"label": "struct GMD.UserInfo",
						"members": [
							{
								"astId": 1826,
								"contract": "contracts/final/GMD.sol:GMD",
								"label": "totalMinted",
								"offset": 0,
								"slot": "0",
								"type": "t_uint256"
							},
							{
								"astId": 1828,
								"contract": "contracts/final/GMD.sol:GMD",
								"label": "lastInteractionTime",
								"offset": 0,
								"slot": "1",
								"type": "t_uint256"
							},
							{
								"astId": 1830,
								"contract": "contracts/final/GMD.sol:GMD",
								"label": "VestPeriod",
								"offset": 0,
								"slot": "2",
								"type": "t_uint256"
							}
						],
						"numberOfBytes": "96"
					},
					"t_uint256": {
						"encoding": "inplace",
						"label": "uint256",
						"numberOfBytes": "32"
					}
				}
			},
			"userdoc": {
				"kind": "user",
				"methods": {},
				"version": 1
			}
		}
	}
}