{
	"contracts/final/gmdBTC.sol": {
		"gmdBTC": {
			"abi": [
				{
					"anonymous": false,
					"inputs": [
						{
							"indexed": true,
							"internalType": "address",
							"name": "owner",
							"type": "address"
						},
						{
							"indexed": true,
							"internalType": "address",
							"name": "spender",
							"type": "address"
						},
						{
							"indexed": false,
							"internalType": "uint256",
							"name": "value",
							"type": "uint256"
						}
					],
					"name": "Approval",
					"type": "event"
				},
				{
					"anonymous": false,
					"inputs": [
						{
							"indexed": true,
							"internalType": "address",
							"name": "previousOwner",
							"type": "address"
						},
						{
							"indexed": true,
							"internalType": "address",
							"name": "newOwner",
							"type": "address"
						}
					],
					"name": "OwnershipTransferred",
					"type": "event"
				},
				{
					"anonymous": false,
					"inputs": [
						{
							"indexed": true,
							"internalType": "address",
							"name": "from",
							"type": "address"
						},
						{
							"indexed": true,
							"internalType": "address",
							"name": "to",
							"type": "address"
						},
						{
							"indexed": false,
							"internalType": "uint256",
							"name": "value",
							"type": "uint256"
						}
					],
					"name": "Transfer",
					"type": "event"
				},
				{
					"inputs": [
						{
							"internalType": "address",
							"name": "owner",
							"type": "address"
						},
						{
							"internalType": "address",
							"name": "spender",
							"type": "address"
						}
					],
					"name": "allowance",
					"outputs": [
						{
							"internalType": "uint256",
							"name": "",
							"type": "uint256"
						}
					],
					"stateMutability": "view",
					"type": "function"
				},
				{
					"inputs": [
						{
							"internalType": "address",
							"name": "spender",
							"type": "address"
						},
						{
							"internalType": "uint256",
							"name": "amount",
							"type": "uint256"
						}
					],
					"name": "approve",
					"outputs": [
						{
							"internalType": "bool",
							"name": "",
							"type": "bool"
						}
					],
					"stateMutability": "nonpayable",
					"type": "function"
				},
				{
					"inputs": [
						{
							"internalType": "address",
							"name": "account",
							"type": "address"
						}
					],
					"name": "balanceOf",
					"outputs": [
						{
							"internalType": "uint256",
							"name": "",
							"type": "uint256"
						}
					],
					"stateMutability": "view",
					"type": "function"
				},
				{
					"inputs": [
						{
							"internalType": "address",
							"name": "_from",
							"type": "address"
						},
						{
							"internalType": "uint256",
							"name": "_amount",
							"type": "uint256"
						}
					],
					"name": "burn",
					"outputs": [],
					"stateMutability": "nonpayable",
					"type": "function"
				},
				{
					"inputs": [],
					"name": "decimals",
					"outputs": [
						{
							"internalType": "uint8",
							"name": "",
							"type": "uint8"
						}
					],
					"stateMutability": "view",
					"type": "function"
				},
				{
					"inputs": [
						{
							"internalType": "address",
							"name": "spender",
							"type": "address"
						},
						{
							"internalType": "uint256",
							"name": "subtractedValue",
							"type": "uint256"
						}
					],
					"name": "decreaseAllowance",
					"outputs": [
						{
							"internalType": "bool",
							"name": "",
							"type": "bool"
						}
					],
					"stateMutability": "nonpayable",
					"type": "function"
				},
				{
					"inputs": [
						{
							"internalType": "address",
							"name": "spender",
							"type": "address"
						},
						{
							"internalType": "uint256",
							"name": "addedValue",
							"type": "uint256"
						}
					],
					"name": "increaseAllowance",
					"outputs": [
						{
							"internalType": "bool",
							"name": "",
							"type": "bool"
						}
					],
					"stateMutability": "nonpayable",
					"type": "function"
				},
				{
					"inputs": [
						{
							"internalType": "address",
							"name": "recipient",
							"type": "address"
						},
						{
							"internalType": "uint256",
							"name": "_amount",
							"type": "uint256"
						}
					],
					"name": "mint",
					"outputs": [],
					"stateMutability": "nonpayable",
					"type": "function"
				},
				{
					"inputs": [],
					"name": "name",
					"outputs": [
						{
							"internalType": "string",
							"name": "",
							"type": "string"
						}
					],
					"stateMutability": "view",
					"type": "function"
				},
				{
					"inputs": [],
					"name": "owner",
					"outputs": [
						{
							"internalType": "address",
							"name": "",
							"type": "address"
						}
					],
					"stateMutability": "view",
					"type": "function"
				},
				{
					"inputs": [],
					"name": "renounceOwnership",
					"outputs": [],
					"stateMutability": "nonpayable",
					"type": "function"
				},
				{
					"inputs": [],
					"name": "symbol",
					"outputs": [
						{
							"internalType": "string",
							"name": "",
							"type": "string"
						}
					],
					"stateMutability": "view",
					"type": "function"
				},
				{
					"inputs": [],
					"name": "totalSupply",
					"outputs": [
						{
							"internalType": "uint256",
							"name": "",
							"type": "uint256"
						}
					],
					"stateMutability": "view",
					"type": "function"
				},
				{
					"inputs": [
						{
							"internalType": "address",
							"name": "to",
							"type": "address"
						},
						{
							"internalType": "uint256",
							"name": "amount",
							"type": "uint256"
						}
					],
					"name": "transfer",
					"outputs": [
						{
							"internalType": "bool",
							"name": "",
							"type": "bool"
						}
					],
					"stateMutability": "nonpayable",
					"type": "function"
				},
				{
					"inputs": [
						{
							"internalType": "address",
							"name": "from",
							"type": "address"
						},
						{
							"internalType": "address",
							"name": "to",
							"type": "address"
						},
						{
							"internalType": "uint256",
							"name": "amount",
							"type": "uint256"
						}
					],
					"name": "transferFrom",
					"outputs": [
						{
							"internalType": "bool",
							"name": "",
							"type": "bool"
						}
					],
					"stateMutability": "nonpayable",
					"type": "function"
				},
				{
					"inputs": [
						{
							"internalType": "address",
							"name": "newOwner",
							"type": "address"
						}
					],
					"name": "transferOwnership",
					"outputs": [],
					"stateMutability": "nonpayable",
					"type": "function"
				}
			],
			"devdoc": {
				"kind": "dev",
				"methods": {
					"allowance(address,address)": {
						"details": "See {IERC20-allowance}."
					},
					"approve(address,uint256)": {
						"details": "See {IERC20-approve}. NOTE: If `amount` is the maximum `uint256`, the allowance is not updated on `transferFrom`. This is semantically equivalent to an infinite approval. Requirements: - `spender` cannot be the zero address."
					},
					"balanceOf(address)": {
						"details": "See {IERC20-balanceOf}."
					},
					"decimals()": {
						"details": "Returns the number of decimals used to get its user representation. For example, if `decimals` equals `2`, a balance of `505` tokens should be displayed to a user as `5.05` (`505 / 10 ** 2`). Tokens usually opt for a value of 18, imitating the relationship between Ether and Wei. This is the value {ERC20} uses, unless this function is overridden; NOTE: This information is only used for _display_ purposes: it in no way affects any of the arithmetic of the contract, including {IERC20-balanceOf} and {IERC20-transfer}."
					},
					"decreaseAllowance(address,uint256)": {
						"details": "Atomically decreases the allowance granted to `spender` by the caller. This is an alternative to {approve} that can be used as a mitigation for problems described in {IERC20-approve}. Emits an {Approval} event indicating the updated allowance. Requirements: - `spender` cannot be the zero address. - `spender` must have allowance for the caller of at least `subtractedValue`."
					},
					"increaseAllowance(address,uint256)": {
						"details": "Atomically increases the allowance granted to `spender` by the caller. This is an alternative to {approve} that can be used as a mitigation for problems described in {IERC20-approve}. Emits an {Approval} event indicating the updated allowance. Requirements: - `spender` cannot be the zero address."
					},
					"name()": {
						"details": "Returns the name of the token."
					},
					"owner()": {
						"details": "Returns the address of the current owner."
					},
					"renounceOwnership()": {
						"details": "Leaves the contract without owner. It will not be possible to call `onlyOwner` functions anymore. Can only be called by the current owner. NOTE: Renouncing ownership will leave the contract without an owner, thereby removing any functionality that is only available to the owner."
					},
					"symbol()": {
						"details": "Returns the symbol of the token, usually a shorter version of the name."
					},
					"totalSupply()": {
						"details": "See {IERC20-totalSupply}."
					},
					"transfer(address,uint256)": {
						"details": "See {IERC20-transfer}. Requirements: - `to` cannot be the zero address. - the caller must have a balance of at least `amount`."
					},
					"transferFrom(address,address,uint256)": {
						"details": "See {IERC20-transferFrom}. Emits an {Approval} event indicating the updated allowance. This is not required by the EIP. See the note at the beginning of {ERC20}. NOTE: Does not update the allowance if the current allowance is the maximum `uint256`. Requirements: - `from` and `to` cannot be the zero address. - `from` must have a balance of at least `amount`. - the caller must have allowance for ``from``'s tokens of at least `amount`."
					},
					"transferOwnership(address)": {
						"details": "Transfers ownership of the contract to a new account (`newOwner`). Can only be called by the current owner."
					}
				},
				"version": 1
			},
			"evm": {
				"assembly": "    /* \"contracts/final/gmdBTC.sol\":236:567  contract gmdBTC is ERC20(\"gmdBTC\", \"gmdBTC\"), Ownable {... */\n  mstore(0x40, 0x80)\n  callvalue\n  dup1\n  iszero\n  tag_1\n  jumpi\n  0x00\n  dup1\n  revert\ntag_1:\n  pop\n    /* \"@openzeppelin/contracts/token/ERC20/ERC20.sol\":1978:2091  constructor(string memory name_, string memory symbol_) {... */\n  mload(0x40)\n  dup1\n  0x40\n  add\n  0x40\n  mstore\n  dup1\n  0x06\n  dup2\n  mstore\n  0x20\n  add\n  0x676d644254430000000000000000000000000000000000000000000000000000\n  dup2\n  mstore\n  pop\n  mload(0x40)\n  dup1\n  0x40\n  add\n  0x40\n  mstore\n  dup1\n  0x06\n  dup2\n  mstore\n  0x20\n  add\n  0x676d644254430000000000000000000000000000000000000000000000000000\n  dup2\n  mstore\n  pop\n    /* \"@openzeppelin/contracts/token/ERC20/ERC20.sol\":2052:2057  name_ */\n  dup2\n    /* \"@openzeppelin/contracts/token/ERC20/ERC20.sol\":2044:2049  _name */\n  0x03\n    /* \"@openzeppelin/contracts/token/ERC20/ERC20.sol\":2044:2057  _name = name_ */\n  swap1\n  dup1\n  mload\n  swap1\n  0x20\n  add\n  swap1\n  tag_5\n  swap3\n  swap2\n  swap1\n  tag_6\n  jump\t// in\ntag_5:\n  pop\n    /* \"@openzeppelin/contracts/token/ERC20/ERC20.sol\":2077:2084  symbol_ */\n  dup1\n    /* \"@openzeppelin/contracts/token/ERC20/ERC20.sol\":2067:2074  _symbol */\n  0x04\n    /* \"@openzeppelin/contracts/token/ERC20/ERC20.sol\":2067:2084  _symbol = symbol_ */\n  swap1\n  dup1\n  mload\n  swap1\n  0x20\n  add\n  swap1\n  tag_7\n  swap3\n  swap2\n  swap1\n  tag_6\n  jump\t// in\ntag_7:\n  pop\n    /* \"@openzeppelin/contracts/token/ERC20/ERC20.sol\":1978:2091  constructor(string memory name_, string memory symbol_) {... */\n  pop\n  pop\n    /* \"@openzeppelin/contracts/access/Ownable.sol\":936:968  _transferOwnership(_msgSender()) */\n  tag_9\n    /* \"@openzeppelin/contracts/access/Ownable.sol\":955:967  _msgSender() */\n  tag_10\n    /* \"@openzeppelin/contracts/access/Ownable.sol\":955:965  _msgSender */\n  shl(0x20, tag_11)\n    /* \"@openzeppelin/contracts/access/Ownable.sol\":955:967  _msgSender() */\n  0x20\n  shr\n  jump\t// in\ntag_10:\n    /* \"@openzeppelin/contracts/access/Ownable.sol\":936:954  _transferOwnership */\n  shl(0x20, tag_12)\n    /* \"@openzeppelin/contracts/access/Ownable.sol\":936:968  _transferOwnership(_msgSender()) */\n  0x20\n  shr\n  jump\t// in\ntag_9:\n    /* \"contracts/final/gmdBTC.sol\":236:567  contract gmdBTC is ERC20(\"gmdBTC\", \"gmdBTC\"), Ownable {... */\n  jump(tag_13)\n    /* \"@openzeppelin/contracts/utils/Context.sol\":640:736  function _msgSender() internal view virtual returns (address) {... */\ntag_11:\n    /* \"@openzeppelin/contracts/utils/Context.sol\":693:700  address */\n  0x00\n    /* \"@openzeppelin/contracts/utils/Context.sol\":719:729  msg.sender */\n  caller\n    /* \"@openzeppelin/contracts/utils/Context.sol\":712:729  return msg.sender */\n  swap1\n  pop\n    /* \"@openzeppelin/contracts/utils/Context.sol\":640:736  function _msgSender() internal view virtual returns (address) {... */\n  swap1\n  jump\t// out\n    /* \"@openzeppelin/contracts/access/Ownable.sol\":2433:2620  function _transferOwnership(address newOwner) internal virtual {... */\ntag_12:\n    /* \"@openzeppelin/contracts/access/Ownable.sol\":2506:2522  address oldOwner */\n  0x00\n    /* \"@openzeppelin/contracts/access/Ownable.sol\":2525:2531  _owner */\n  0x05\n  0x00\n  swap1\n  sload\n  swap1\n  0x0100\n  exp\n  swap1\n  div\n  0xffffffffffffffffffffffffffffffffffffffff\n  and\n    /* \"@openzeppelin/contracts/access/Ownable.sol\":2506:2531  address oldOwner = _owner */\n  swap1\n  pop\n    /* \"@openzeppelin/contracts/access/Ownable.sol\":2550:2558  newOwner */\n  dup2\n    /* \"@openzeppelin/contracts/access/Ownable.sol\":2541:2547  _owner */\n  0x05\n  0x00\n    /* \"@openzeppelin/contracts/access/Ownable.sol\":2541:2558  _owner = newOwner */\n  0x0100\n  exp\n  dup2\n  sload\n  dup2\n  0xffffffffffffffffffffffffffffffffffffffff\n  mul\n  not\n  and\n  swap1\n  dup4\n  0xffffffffffffffffffffffffffffffffffffffff\n  and\n  mul\n  or\n  swap1\n  sstore\n  pop\n    /* \"@openzeppelin/contracts/access/Ownable.sol\":2604:2612  newOwner */\n  dup2\n    /* \"@openzeppelin/contracts/access/Ownable.sol\":2573:2613  OwnershipTransferred(oldOwner, newOwner) */\n  0xffffffffffffffffffffffffffffffffffffffff\n  and\n    /* \"@openzeppelin/contracts/access/Ownable.sol\":2594:2602  oldOwner */\n  dup2\n    /* \"@openzeppelin/contracts/access/Ownable.sol\":2573:2613  OwnershipTransferred(oldOwner, newOwner) */\n  0xffffffffffffffffffffffffffffffffffffffff\n  and\n  0x8be0079c531659141344cd1fd0a4f28419497f9722a3daafe3b4186f6b6457e0\n  mload(0x40)\n  mload(0x40)\n  dup1\n  swap2\n  sub\n  swap1\n  log3\n    /* \"@openzeppelin/contracts/access/Ownable.sol\":2496:2620  {... */\n  pop\n    /* \"@openzeppelin/contracts/access/Ownable.sol\":2433:2620  function _transferOwnership(address newOwner) internal virtual {... */\n  pop\n  jump\t// out\n    /* \"contracts/final/gmdBTC.sol\":236:567  contract gmdBTC is ERC20(\"gmdBTC\", \"gmdBTC\"), Ownable {... */\ntag_6:\n  dup3\n  dup1\n  sload\n  tag_16\n  swap1\n  tag_17\n  jump\t// in\ntag_16:\n  swap1\n  0x00\n  mstore\n  keccak256(0x00, 0x20)\n  swap1\n  0x1f\n  add\n  0x20\n  swap1\n  div\n  dup2\n  add\n  swap3\n  dup3\n  tag_19\n  jumpi\n  0x00\n  dup6\n  sstore\n  jump(tag_18)\ntag_19:\n  dup3\n  0x1f\n  lt\n  tag_20\n  jumpi\n  dup1\n  mload\n  not(0xff)\n  and\n  dup4\n  dup1\n  add\n  or\n  dup6\n  sstore\n  jump(tag_18)\ntag_20:\n  dup3\n  dup1\n  add\n  0x01\n  add\n  dup6\n  sstore\n  dup3\n  iszero\n  tag_18\n  jumpi\n  swap2\n  dup3\n  add\ntag_21:\n  dup3\n  dup2\n  gt\n  iszero\n  tag_22\n  jumpi\n  dup3\n  mload\n  dup3\n  sstore\n  swap2\n  0x20\n  add\n  swap2\n  swap1\n  0x01\n  add\n  swap1\n  jump(tag_21)\ntag_22:\ntag_18:\n  pop\n  swap1\n  pop\n  tag_23\n  swap2\n  swap1\n  tag_24\n  jump\t// in\ntag_23:\n  pop\n  swap1\n  jump\t// out\ntag_24:\ntag_25:\n  dup1\n  dup3\n  gt\n  iszero\n  tag_26\n  jumpi\n  0x00\n  dup2\n  0x00\n  swap1\n  sstore\n  pop\n  0x01\n  add\n  jump(tag_25)\ntag_26:\n  pop\n  swap1\n  jump\t// out\n    /* \"#utility.yul\":7:187   */\ntag_27:\n    /* \"#utility.yul\":55:132   */\n  0x4e487b7100000000000000000000000000000000000000000000000000000000\n    /* \"#utility.yul\":52:53   */\n  0x00\n    /* \"#utility.yul\":45:133   */\n  mstore\n    /* \"#utility.yul\":152:156   */\n  0x22\n    /* \"#utility.yul\":149:150   */\n  0x04\n    /* \"#utility.yul\":142:157   */\n  mstore\n    /* \"#utility.yul\":176:180   */\n  0x24\n    /* \"#utility.yul\":173:174   */\n  0x00\n    /* \"#utility.yul\":166:181   */\n  revert\n    /* \"#utility.yul\":193:513   */\ntag_17:\n    /* \"#utility.yul\":237:243   */\n  0x00\n    /* \"#utility.yul\":274:275   */\n  0x02\n    /* \"#utility.yul\":268:272   */\n  dup3\n    /* \"#utility.yul\":264:276   */\n  div\n    /* \"#utility.yul\":254:276   */\n  swap1\n  pop\n    /* \"#utility.yul\":321:322   */\n  0x01\n    /* \"#utility.yul\":315:319   */\n  dup3\n    /* \"#utility.yul\":311:323   */\n  and\n    /* \"#utility.yul\":342:360   */\n  dup1\n    /* \"#utility.yul\":332:413   */\n  tag_31\n  jumpi\n    /* \"#utility.yul\":398:402   */\n  0x7f\n    /* \"#utility.yul\":390:396   */\n  dup3\n    /* \"#utility.yul\":386:403   */\n  and\n    /* \"#utility.yul\":376:403   */\n  swap2\n  pop\n    /* \"#utility.yul\":332:413   */\ntag_31:\n    /* \"#utility.yul\":460:462   */\n  0x20\n    /* \"#utility.yul\":452:458   */\n  dup3\n    /* \"#utility.yul\":449:463   */\n  lt\n    /* \"#utility.yul\":429:447   */\n  dup2\n    /* \"#utility.yul\":426:464   */\n  eq\n    /* \"#utility.yul\":423:507   */\n  iszero\n  tag_32\n  jumpi\n    /* \"#utility.yul\":479:497   */\n  tag_33\n  tag_27\n  jump\t// in\ntag_33:\n    /* \"#utility.yul\":423:507   */\ntag_32:\n    /* \"#utility.yul\":244:513   */\n  pop\n    /* \"#utility.yul\":193:513   */\n  swap2\n  swap1\n  pop\n  jump\t// out\n    /* \"contracts/final/gmdBTC.sol\":236:567  contract gmdBTC is ERC20(\"gmdBTC\", \"gmdBTC\"), Ownable {... */\ntag_13:\n  dataSize(sub_0)\n  dup1\n  dataOffset(sub_0)\n  0x00\n  codecopy\n  0x00\n  return\nstop\n\nsub_0: assembly {\n        /* \"contracts/final/gmdBTC.sol\":236:567  contract gmdBTC is ERC20(\"gmdBTC\", \"gmdBTC\"), Ownable {... */\n      mstore(0x40, 0x80)\n      callvalue\n      dup1\n      iszero\n      tag_1\n      jumpi\n      0x00\n      dup1\n      revert\n    tag_1:\n      pop\n      jumpi(tag_2, lt(calldatasize, 0x04))\n      shr(0xe0, calldataload(0x00))\n      dup1\n      0x715018a6\n      gt\n      tag_19\n      jumpi\n      dup1\n      0xa457c2d7\n      gt\n      tag_20\n      jumpi\n      dup1\n      0xa457c2d7\n      eq\n      tag_15\n      jumpi\n      dup1\n      0xa9059cbb\n      eq\n      tag_16\n      jumpi\n      dup1\n      0xdd62ed3e\n      eq\n      tag_17\n      jumpi\n      dup1\n      0xf2fde38b\n      eq\n      tag_18\n      jumpi\n      jump(tag_2)\n    tag_20:\n      dup1\n      0x715018a6\n      eq\n      tag_11\n      jumpi\n      dup1\n      0x8da5cb5b\n      eq\n      tag_12\n      jumpi\n      dup1\n      0x95d89b41\n      eq\n      tag_13\n      jumpi\n      dup1\n      0x9dc29fac\n      eq\n      tag_14\n      jumpi\n      jump(tag_2)\n    tag_19:\n      dup1\n      0x313ce567\n      gt\n      tag_21\n      jumpi\n      dup1\n      0x313ce567\n      eq\n      tag_7\n      jumpi\n      dup1\n      0x39509351\n      eq\n      tag_8\n      jumpi\n      dup1\n      0x40c10f19\n      eq\n      tag_9\n      jumpi\n      dup1\n      0x70a08231\n      eq\n      tag_10\n      jumpi\n      jump(tag_2)\n    tag_21:\n      dup1\n      0x06fdde03\n      eq\n      tag_3\n      jumpi\n      dup1\n      0x095ea7b3\n      eq\n      tag_4\n      jumpi\n      dup1\n      0x18160ddd\n      eq\n      tag_5\n      jumpi\n      dup1\n      0x23b872dd\n      eq\n      tag_6\n      jumpi\n    tag_2:\n      0x00\n      dup1\n      revert\n        /* \"@openzeppelin/contracts/token/ERC20/ERC20.sol\":2156:2254  function name() public view virtual override returns (string memory) {... */\n    tag_3:\n      tag_22\n      tag_23\n      jump\t// in\n    tag_22:\n      mload(0x40)\n      tag_24\n      swap2\n      swap1\n      tag_25\n      jump\t// in\n    tag_24:\n      mload(0x40)\n      dup1\n      swap2\n      sub\n      swap1\n      return\n        /* \"@openzeppelin/contracts/token/ERC20/ERC20.sol\":4433:4630  function approve(address spender, uint256 amount) public virtual override returns (bool) {... */\n    tag_4:\n      tag_26\n      0x04\n      dup1\n      calldatasize\n      sub\n      dup2\n      add\n      swap1\n      tag_27\n      swap2\n      swap1\n      tag_28\n      jump\t// in\n    tag_27:\n      tag_29\n      jump\t// in\n    tag_26:\n      mload(0x40)\n      tag_30\n      swap2\n      swap1\n      tag_31\n      jump\t// in\n    tag_30:\n      mload(0x40)\n      dup1\n      swap2\n      sub\n      swap1\n      return\n        /* \"@openzeppelin/contracts/token/ERC20/ERC20.sol\":3244:3350  function totalSupply() public view virtual override returns (uint256) {... */\n    tag_5:\n      tag_32\n      tag_33\n      jump\t// in\n    tag_32:\n      mload(0x40)\n      tag_34\n      swap2\n      swap1\n      tag_35\n      jump\t// in\n    tag_34:\n      mload(0x40)\n      dup1\n      swap2\n      sub\n      swap1\n      return\n        /* \"@openzeppelin/contracts/token/ERC20/ERC20.sol\":5192:5478  function transferFrom(... */\n    tag_6:\n      tag_36\n      0x04\n      dup1\n      calldatasize\n      sub\n      dup2\n      add\n      swap1\n      tag_37\n      swap2\n      swap1\n      tag_38\n      jump\t// in\n    tag_37:\n      tag_39\n      jump\t// in\n    tag_36:\n      mload(0x40)\n      tag_40\n      swap2\n      swap1\n      tag_31\n      jump\t// in\n    tag_40:\n      mload(0x40)\n      dup1\n      swap2\n      sub\n      swap1\n      return\n        /* \"@openzeppelin/contracts/token/ERC20/ERC20.sol\":3093:3184  function decimals() public view virtual override returns (uint8) {... */\n    tag_7:\n      tag_41\n      tag_42\n      jump\t// in\n    tag_41:\n      mload(0x40)\n      tag_43\n      swap2\n      swap1\n      tag_44\n      jump\t// in\n    tag_43:\n      mload(0x40)\n      dup1\n      swap2\n      sub\n      swap1\n      return\n        /* \"@openzeppelin/contracts/token/ERC20/ERC20.sol\":5873:6107  function increaseAllowance(address spender, uint256 addedValue) public virtual returns (bool) {... */\n    tag_8:\n      tag_45\n      0x04\n      dup1\n      calldatasize\n      sub\n      dup2\n      add\n      swap1\n      tag_46\n      swap2\n      swap1\n      tag_28\n      jump\t// in\n    tag_46:\n      tag_47\n      jump\t// in\n    tag_45:\n      mload(0x40)\n      tag_48\n      swap2\n      swap1\n      tag_31\n      jump\t// in\n    tag_48:\n      mload(0x40)\n      dup1\n      swap2\n      sub\n      swap1\n      return\n        /* \"contracts/final/gmdBTC.sol\":447:562  function mint(address recipient, uint256 _amount) external onlyOwner {... */\n    tag_9:\n      tag_49\n      0x04\n      dup1\n      calldatasize\n      sub\n      dup2\n      add\n      swap1\n      tag_50\n      swap2\n      swap1\n      tag_28\n      jump\t// in\n    tag_50:\n      tag_51\n      jump\t// in\n    tag_49:\n      stop\n        /* \"@openzeppelin/contracts/token/ERC20/ERC20.sol\":3408:3533  function balanceOf(address account) public view virtual override returns (uint256) {... */\n    tag_10:\n      tag_52\n      0x04\n      dup1\n      calldatasize\n      sub\n      dup2\n      add\n      swap1\n      tag_53\n      swap2\n      swap1\n      tag_54\n      jump\t// in\n    tag_53:\n      tag_55\n      jump\t// in\n    tag_52:\n      mload(0x40)\n      tag_56\n      swap2\n      swap1\n      tag_35\n      jump\t// in\n    tag_56:\n      mload(0x40)\n      dup1\n      swap2\n      sub\n      swap1\n      return\n        /* \"@openzeppelin/contracts/access/Ownable.sol\":1831:1932  function renounceOwnership() public virtual onlyOwner {... */\n    tag_11:\n      tag_57\n      tag_58\n      jump\t// in\n    tag_57:\n      stop\n        /* \"@openzeppelin/contracts/access/Ownable.sol\":1201:1286  function owner() public view virtual returns (address) {... */\n    tag_12:\n      tag_59\n      tag_60\n      jump\t// in\n    tag_59:\n      mload(0x40)\n      tag_61\n      swap2\n      swap1\n      tag_62\n      jump\t// in\n    tag_61:\n      mload(0x40)\n      dup1\n      swap2\n      sub\n      swap1\n      return\n        /* \"@openzeppelin/contracts/token/ERC20/ERC20.sol\":2367:2469  function symbol() public view virtual override returns (string memory) {... */\n    tag_13:\n      tag_63\n      tag_64\n      jump\t// in\n    tag_63:\n      mload(0x40)\n      tag_65\n      swap2\n      swap1\n      tag_25\n      jump\t// in\n    tag_65:\n      mload(0x40)\n      dup1\n      swap2\n      sub\n      swap1\n      return\n        /* \"contracts/final/gmdBTC.sol\":333:439  function burn(address _from, uint256 _amount) external onlyOwner  {... */\n    tag_14:\n      tag_66\n      0x04\n      dup1\n      calldatasize\n      sub\n      dup2\n      add\n      swap1\n      tag_67\n      swap2\n      swap1\n      tag_28\n      jump\t// in\n    tag_67:\n      tag_68\n      jump\t// in\n    tag_66:\n      stop\n        /* \"@openzeppelin/contracts/token/ERC20/ERC20.sol\":6594:7021  function decreaseAllowance(address spender, uint256 subtractedValue) public virtual returns (bool) {... */\n    tag_15:\n      tag_69\n      0x04\n      dup1\n      calldatasize\n      sub\n      dup2\n      add\n      swap1\n      tag_70\n      swap2\n      swap1\n      tag_28\n      jump\t// in\n    tag_70:\n      tag_71\n      jump\t// in\n    tag_69:\n      mload(0x40)\n      tag_72\n      swap2\n      swap1\n      tag_31\n      jump\t// in\n    tag_72:\n      mload(0x40)\n      dup1\n      swap2\n      sub\n      swap1\n      return\n        /* \"@openzeppelin/contracts/token/ERC20/ERC20.sol\":3729:3918  function transfer(address to, uint256 amount) public virtual override returns (bool) {... */\n    tag_16:\n      tag_73\n      0x04\n      dup1\n      calldatasize\n      sub\n      dup2\n      add\n      swap1\n      tag_74\n      swap2\n      swap1\n      tag_28\n      jump\t// in\n    tag_74:\n      tag_75\n      jump\t// in\n    tag_73:\n      mload(0x40)\n      tag_76\n      swap2\n      swap1\n      tag_31\n      jump\t// in\n    tag_76:\n      mload(0x40)\n      dup1\n      swap2\n      sub\n      swap1\n      return\n        /* \"@openzeppelin/contracts/token/ERC20/ERC20.sol\":3976:4125  function allowance(address owner, address spender) public view virtual override returns (uint256) {... */\n    tag_17:\n      tag_77\n      0x04\n      dup1\n      calldatasize\n      sub\n      dup2\n      add\n      swap1\n      tag_78\n      swap2\n      swap1\n      tag_79\n      jump\t// in\n    tag_78:\n      tag_80\n      jump\t// in\n    tag_77:\n      mload(0x40)\n      tag_81\n      swap2\n      swap1\n      tag_35\n      jump\t// in\n    tag_81:\n      mload(0x40)\n      dup1\n      swap2\n      sub\n      swap1\n      return\n        /* \"@openzeppelin/contracts/access/Ownable.sol\":2081:2279  function transferOwnership(address newOwner) public virtual onlyOwner {... */\n    tag_18:\n      tag_82\n      0x04\n      dup1\n      calldatasize\n      sub\n      dup2\n      add\n      swap1\n      tag_83\n      swap2\n      swap1\n      tag_54\n      jump\t// in\n    tag_83:\n      tag_84\n      jump\t// in\n    tag_82:\n      stop\n        /* \"@openzeppelin/contracts/token/ERC20/ERC20.sol\":2156:2254  function name() public view virtual override returns (string memory) {... */\n    tag_23:\n        /* \"@openzeppelin/contracts/token/ERC20/ERC20.sol\":2210:2223  string memory */\n      0x60\n        /* \"@openzeppelin/contracts/token/ERC20/ERC20.sol\":2242:2247  _name */\n      0x03\n        /* \"@openzeppelin/contracts/token/ERC20/ERC20.sol\":2235:2247  return _name */\n      dup1\n      sload\n      tag_86\n      swap1\n      tag_87\n      jump\t// in\n    tag_86:\n      dup1\n      0x1f\n      add\n      0x20\n      dup1\n      swap2\n      div\n      mul\n      0x20\n      add\n      mload(0x40)\n      swap1\n      dup2\n      add\n      0x40\n      mstore\n      dup1\n      swap3\n      swap2\n      swap1\n      dup2\n      dup2\n      mstore\n      0x20\n      add\n      dup3\n      dup1\n      sload\n      tag_88\n      swap1\n      tag_87\n      jump\t// in\n    tag_88:\n      dup1\n      iszero\n      tag_89\n      jumpi\n      dup1\n      0x1f\n      lt\n      tag_90\n      jumpi\n      0x0100\n      dup1\n      dup4\n      sload\n      div\n      mul\n      dup4\n      mstore\n      swap2\n      0x20\n      add\n      swap2\n      jump(tag_89)\n    tag_90:\n      dup3\n      add\n      swap2\n      swap1\n      0x00\n      mstore\n      keccak256(0x00, 0x20)\n      swap1\n    tag_91:\n      dup2\n      sload\n      dup2\n      mstore\n      swap1\n      0x01\n      add\n      swap1\n      0x20\n      add\n      dup1\n      dup4\n      gt\n      tag_91\n      jumpi\n      dup3\n      swap1\n      sub\n      0x1f\n      and\n      dup3\n      add\n      swap2\n    tag_89:\n      pop\n      pop\n      pop\n      pop\n      pop\n      swap1\n      pop\n        /* \"@openzeppelin/contracts/token/ERC20/ERC20.sol\":2156:2254  function name() public view virtual override returns (string memory) {... */\n      swap1\n      jump\t// out\n        /* \"@openzeppelin/contracts/token/ERC20/ERC20.sol\":4433:4630  function approve(address spender, uint256 amount) public virtual override returns (bool) {... */\n    tag_29:\n        /* \"@openzeppelin/contracts/token/ERC20/ERC20.sol\":4516:4520  bool */\n      0x00\n        /* \"@openzeppelin/contracts/token/ERC20/ERC20.sol\":4532:4545  address owner */\n      dup1\n        /* \"@openzeppelin/contracts/token/ERC20/ERC20.sol\":4548:4560  _msgSender() */\n      tag_93\n        /* \"@openzeppelin/contracts/token/ERC20/ERC20.sol\":4548:4558  _msgSender */\n      tag_94\n        /* \"@openzeppelin/contracts/token/ERC20/ERC20.sol\":4548:4560  _msgSender() */\n      jump\t// in\n    tag_93:\n        /* \"@openzeppelin/contracts/token/ERC20/ERC20.sol\":4532:4560  address owner = _msgSender() */\n      swap1\n      pop\n        /* \"@openzeppelin/contracts/token/ERC20/ERC20.sol\":4570:4602  _approve(owner, spender, amount) */\n      tag_95\n        /* \"@openzeppelin/contracts/token/ERC20/ERC20.sol\":4579:4584  owner */\n      dup2\n        /* \"@openzeppelin/contracts/token/ERC20/ERC20.sol\":4586:4593  spender */\n      dup6\n        /* \"@openzeppelin/contracts/token/ERC20/ERC20.sol\":4595:4601  amount */\n      dup6\n        /* \"@openzeppelin/contracts/token/ERC20/ERC20.sol\":4570:4578  _approve */\n      tag_96\n        /* \"@openzeppelin/contracts/token/ERC20/ERC20.sol\":4570:4602  _approve(owner, spender, amount) */\n      jump\t// in\n    tag_95:\n        /* \"@openzeppelin/contracts/token/ERC20/ERC20.sol\":4619:4623  true */\n      0x01\n        /* \"@openzeppelin/contracts/token/ERC20/ERC20.sol\":4612:4623  return true */\n      swap2\n      pop\n      pop\n        /* \"@openzeppelin/contracts/token/ERC20/ERC20.sol\":4433:4630  function approve(address spender, uint256 amount) public virtual override returns (bool) {... */\n      swap3\n      swap2\n      pop\n      pop\n      jump\t// out\n        /* \"@openzeppelin/contracts/token/ERC20/ERC20.sol\":3244:3350  function totalSupply() public view virtual override returns (uint256) {... */\n    tag_33:\n        /* \"@openzeppelin/contracts/token/ERC20/ERC20.sol\":3305:3312  uint256 */\n      0x00\n        /* \"@openzeppelin/contracts/token/ERC20/ERC20.sol\":3331:3343  _totalSupply */\n      sload(0x02)\n        /* \"@openzeppelin/contracts/token/ERC20/ERC20.sol\":3324:3343  return _totalSupply */\n      swap1\n      pop\n        /* \"@openzeppelin/contracts/token/ERC20/ERC20.sol\":3244:3350  function totalSupply() public view virtual override returns (uint256) {... */\n      swap1\n      jump\t// out\n        /* \"@openzeppelin/contracts/token/ERC20/ERC20.sol\":5192:5478  function transferFrom(... */\n    tag_39:\n        /* \"@openzeppelin/contracts/token/ERC20/ERC20.sol\":5319:5323  bool */\n      0x00\n        /* \"@openzeppelin/contracts/token/ERC20/ERC20.sol\":5335:5350  address spender */\n      dup1\n        /* \"@openzeppelin/contracts/token/ERC20/ERC20.sol\":5353:5365  _msgSender() */\n      tag_99\n        /* \"@openzeppelin/contracts/token/ERC20/ERC20.sol\":5353:5363  _msgSender */\n      tag_94\n        /* \"@openzeppelin/contracts/token/ERC20/ERC20.sol\":5353:5365  _msgSender() */\n      jump\t// in\n    tag_99:\n        /* \"@openzeppelin/contracts/token/ERC20/ERC20.sol\":5335:5365  address spender = _msgSender() */\n      swap1\n      pop\n        /* \"@openzeppelin/contracts/token/ERC20/ERC20.sol\":5375:5413  _spendAllowance(from, spender, amount) */\n      tag_100\n        /* \"@openzeppelin/contracts/token/ERC20/ERC20.sol\":5391:5395  from */\n      dup6\n        /* \"@openzeppelin/contracts/token/ERC20/ERC20.sol\":5397:5404  spender */\n      dup3\n        /* \"@openzeppelin/contracts/token/ERC20/ERC20.sol\":5406:5412  amount */\n      dup6\n        /* \"@openzeppelin/contracts/token/ERC20/ERC20.sol\":5375:5390  _spendAllowance */\n      tag_101\n        /* \"@openzeppelin/contracts/token/ERC20/ERC20.sol\":5375:5413  _spendAllowance(from, spender, amount) */\n      jump\t// in\n    tag_100:\n        /* \"@openzeppelin/contracts/token/ERC20/ERC20.sol\":5423:5450  _transfer(from, to, amount) */\n      tag_102\n        /* \"@openzeppelin/contracts/token/ERC20/ERC20.sol\":5433:5437  from */\n      dup6\n        /* \"@openzeppelin/contracts/token/ERC20/ERC20.sol\":5439:5441  to */\n      dup6\n        /* \"@openzeppelin/contracts/token/ERC20/ERC20.sol\":5443:5449  amount */\n      dup6\n        /* \"@openzeppelin/contracts/token/ERC20/ERC20.sol\":5423:5432  _transfer */\n      tag_103\n        /* \"@openzeppelin/contracts/token/ERC20/ERC20.sol\":5423:5450  _transfer(from, to, amount) */\n      jump\t// in\n    tag_102:\n        /* \"@openzeppelin/contracts/token/ERC20/ERC20.sol\":5467:5471  true */\n      0x01\n        /* \"@openzeppelin/contracts/token/ERC20/ERC20.sol\":5460:5471  return true */\n      swap2\n      pop\n      pop\n        /* \"@openzeppelin/contracts/token/ERC20/ERC20.sol\":5192:5478  function transferFrom(... */\n      swap4\n      swap3\n      pop\n      pop\n      pop\n      jump\t// out\n        /* \"@openzeppelin/contracts/token/ERC20/ERC20.sol\":3093:3184  function decimals() public view virtual override returns (uint8) {... */\n    tag_42:\n        /* \"@openzeppelin/contracts/token/ERC20/ERC20.sol\":3151:3156  uint8 */\n      0x00\n        /* \"@openzeppelin/contracts/token/ERC20/ERC20.sol\":3175:3177  18 */\n      0x12\n        /* \"@openzeppelin/contracts/token/ERC20/ERC20.sol\":3168:3177  return 18 */\n      swap1\n      pop\n        /* \"@openzeppelin/contracts/token/ERC20/ERC20.sol\":3093:3184  function decimals() public view virtual override returns (uint8) {... */\n      swap1\n      jump\t// out\n        /* \"@openzeppelin/contracts/token/ERC20/ERC20.sol\":5873:6107  function increaseAllowance(address spender, uint256 addedValue) public virtual returns (bool) {... */\n    tag_47:\n        /* \"@openzeppelin/contracts/token/ERC20/ERC20.sol\":5961:5965  bool */\n      0x00\n        /* \"@openzeppelin/contracts/token/ERC20/ERC20.sol\":5977:5990  address owner */\n      dup1\n        /* \"@openzeppelin/contracts/token/ERC20/ERC20.sol\":5993:6005  _msgSender() */\n      tag_106\n        /* \"@openzeppelin/contracts/token/ERC20/ERC20.sol\":5993:6003  _msgSender */\n      tag_94\n        /* \"@openzeppelin/contracts/token/ERC20/ERC20.sol\":5993:6005  _msgSender() */\n      jump\t// in\n    tag_106:\n        /* \"@openzeppelin/contracts/token/ERC20/ERC20.sol\":5977:6005  address owner = _msgSender() */\n      swap1\n      pop\n        /* \"@openzeppelin/contracts/token/ERC20/ERC20.sol\":6015:6079  _approve(owner, spender, allowance(owner, spender) + addedValue) */\n      tag_107\n        /* \"@openzeppelin/contracts/token/ERC20/ERC20.sol\":6024:6029  owner */\n      dup2\n        /* \"@openzeppelin/contracts/token/ERC20/ERC20.sol\":6031:6038  spender */\n      dup6\n        /* \"@openzeppelin/contracts/token/ERC20/ERC20.sol\":6068:6078  addedValue */\n      dup6\n        /* \"@openzeppelin/contracts/token/ERC20/ERC20.sol\":6040:6065  allowance(owner, spender) */\n      tag_108\n        /* \"@openzeppelin/contracts/token/ERC20/ERC20.sol\":6050:6055  owner */\n      dup6\n        /* \"@openzeppelin/contracts/token/ERC20/ERC20.sol\":6057:6064  spender */\n      dup10\n        /* \"@openzeppelin/contracts/token/ERC20/ERC20.sol\":6040:6049  allowance */\n      tag_80\n        /* \"@openzeppelin/contracts/token/ERC20/ERC20.sol\":6040:6065  allowance(owner, spender) */\n      jump\t// in\n    tag_108:\n        /* \"@openzeppelin/contracts/token/ERC20/ERC20.sol\":6040:6078  allowance(owner, spender) + addedValue */\n      tag_109\n      swap2\n      swap1\n      tag_110\n      jump\t// in\n    tag_109:\n        /* \"@openzeppelin/contracts/token/ERC20/ERC20.sol\":6015:6023  _approve */\n      tag_96\n        /* \"@openzeppelin/contracts/token/ERC20/ERC20.sol\":6015:6079  _approve(owner, spender, allowance(owner, spender) + addedValue) */\n      jump\t// in\n    tag_107:\n        /* \"@openzeppelin/contracts/token/ERC20/ERC20.sol\":6096:6100  true */\n      0x01\n        /* \"@openzeppelin/contracts/token/ERC20/ERC20.sol\":6089:6100  return true */\n      swap2\n      pop\n      pop\n        /* \"@openzeppelin/contracts/token/ERC20/ERC20.sol\":5873:6107  function increaseAllowance(address spender, uint256 addedValue) public virtual returns (bool) {... */\n      swap3\n      swap2\n      pop\n      pop\n      jump\t// out\n        /* \"contracts/final/gmdBTC.sol\":447:562  function mint(address recipient, uint256 _amount) external onlyOwner {... */\n    tag_51:\n        /* \"@openzeppelin/contracts/access/Ownable.sol\":1094:1107  _checkOwner() */\n      tag_112\n        /* \"@openzeppelin/contracts/access/Ownable.sol\":1094:1105  _checkOwner */\n      tag_113\n        /* \"@openzeppelin/contracts/access/Ownable.sol\":1094:1107  _checkOwner() */\n      jump\t// in\n    tag_112:\n        /* \"contracts/final/gmdBTC.sol\":527:552  _mint(recipient, _amount) */\n      tag_115\n        /* \"contracts/final/gmdBTC.sol\":533:542  recipient */\n      dup3\n        /* \"contracts/final/gmdBTC.sol\":544:551  _amount */\n      dup3\n        /* \"contracts/final/gmdBTC.sol\":527:532  _mint */\n      tag_116\n        /* \"contracts/final/gmdBTC.sol\":527:552  _mint(recipient, _amount) */\n      jump\t// in\n    tag_115:\n        /* \"contracts/final/gmdBTC.sol\":447:562  function mint(address recipient, uint256 _amount) external onlyOwner {... */\n      pop\n      pop\n      jump\t// out\n        /* \"@openzeppelin/contracts/token/ERC20/ERC20.sol\":3408:3533  function balanceOf(address account) public view virtual override returns (uint256) {... */\n    tag_55:\n        /* \"@openzeppelin/contracts/token/ERC20/ERC20.sol\":3482:3489  uint256 */\n      0x00\n        /* \"@openzeppelin/contracts/token/ERC20/ERC20.sol\":3508:3517  _balances */\n      dup1\n        /* \"@openzeppelin/contracts/token/ERC20/ERC20.sol\":3508:3526  _balances[account] */\n      0x00\n        /* \"@openzeppelin/contracts/token/ERC20/ERC20.sol\":3518:3525  account */\n      dup4\n        /* \"@openzeppelin/contracts/token/ERC20/ERC20.sol\":3508:3526  _balances[account] */\n      0xffffffffffffffffffffffffffffffffffffffff\n      and\n      0xffffffffffffffffffffffffffffffffffffffff\n      and\n      dup2\n      mstore\n      0x20\n      add\n      swap1\n      dup2\n      mstore\n      0x20\n      add\n      0x00\n      keccak256\n      sload\n        /* \"@openzeppelin/contracts/token/ERC20/ERC20.sol\":3501:3526  return _balances[account] */\n      swap1\n      pop\n        /* \"@openzeppelin/contracts/token/ERC20/ERC20.sol\":3408:3533  function balanceOf(address account) public view virtual override returns (uint256) {... */\n      swap2\n      swap1\n      pop\n      jump\t// out\n        /* \"@openzeppelin/contracts/access/Ownable.sol\":1831:1932  function renounceOwnership() public virtual onlyOwner {... */\n    tag_58:\n        /* \"@openzeppelin/contracts/access/Ownable.sol\":1094:1107  _checkOwner() */\n      tag_119\n        /* \"@openzeppelin/contracts/access/Ownable.sol\":1094:1105  _checkOwner */\n      tag_113\n        /* \"@openzeppelin/contracts/access/Ownable.sol\":1094:1107  _checkOwner() */\n      jump\t// in\n    tag_119:\n        /* \"@openzeppelin/contracts/access/Ownable.sol\":1895:1925  _transferOwnership(address(0)) */\n      tag_121\n        /* \"@openzeppelin/contracts/access/Ownable.sol\":1922:1923  0 */\n      0x00\n        /* \"@openzeppelin/contracts/access/Ownable.sol\":1895:1913  _transferOwnership */\n      tag_122\n        /* \"@openzeppelin/contracts/access/Ownable.sol\":1895:1925  _transferOwnership(address(0)) */\n      jump\t// in\n    tag_121:\n        /* \"@openzeppelin/contracts/access/Ownable.sol\":1831:1932  function renounceOwnership() public virtual onlyOwner {... */\n      jump\t// out\n        /* \"@openzeppelin/contracts/access/Ownable.sol\":1201:1286  function owner() public view virtual returns (address) {... */\n    tag_60:\n        /* \"@openzeppelin/contracts/access/Ownable.sol\":1247:1254  address */\n      0x00\n        /* \"@openzeppelin/contracts/access/Ownable.sol\":1273:1279  _owner */\n      0x05\n      0x00\n      swap1\n      sload\n      swap1\n      0x0100\n      exp\n      swap1\n      div\n      0xffffffffffffffffffffffffffffffffffffffff\n      and\n        /* \"@openzeppelin/contracts/access/Ownable.sol\":1266:1279  return _owner */\n      swap1\n      pop\n        /* \"@openzeppelin/contracts/access/Ownable.sol\":1201:1286  function owner() public view virtual returns (address) {... */\n      swap1\n      jump\t// out\n        /* \"@openzeppelin/contracts/token/ERC20/ERC20.sol\":2367:2469  function symbol() public view virtual override returns (string memory) {... */\n    tag_64:\n        /* \"@openzeppelin/contracts/token/ERC20/ERC20.sol\":2423:2436  string memory */\n      0x60\n        /* \"@openzeppelin/contracts/token/ERC20/ERC20.sol\":2455:2462  _symbol */\n      0x04\n        /* \"@openzeppelin/contracts/token/ERC20/ERC20.sol\":2448:2462  return _symbol */\n      dup1\n      sload\n      tag_125\n      swap1\n      tag_87\n      jump\t// in\n    tag_125:\n      dup1\n      0x1f\n      add\n      0x20\n      dup1\n      swap2\n      div\n      mul\n      0x20\n      add\n      mload(0x40)\n      swap1\n      dup2\n      add\n      0x40\n      mstore\n      dup1\n      swap3\n      swap2\n      swap1\n      dup2\n      dup2\n      mstore\n      0x20\n      add\n      dup3\n      dup1\n      sload\n      tag_126\n      swap1\n      tag_87\n      jump\t// in\n    tag_126:\n      dup1\n      iszero\n      tag_127\n      jumpi\n      dup1\n      0x1f\n      lt\n      tag_128\n      jumpi\n      0x0100\n      dup1\n      dup4\n      sload\n      div\n      mul\n      dup4\n      mstore\n      swap2\n      0x20\n      add\n      swap2\n      jump(tag_127)\n    tag_128:\n      dup3\n      add\n      swap2\n      swap1\n      0x00\n      mstore\n      keccak256(0x00, 0x20)\n      swap1\n    tag_129:\n      dup2\n      sload\n      dup2\n      mstore\n      swap1\n      0x01\n      add\n      swap1\n      0x20\n      add\n      dup1\n      dup4\n      gt\n      tag_129\n      jumpi\n      dup3\n      swap1\n      sub\n      0x1f\n      and\n      dup3\n      add\n      swap2\n    tag_127:\n      pop\n      pop\n      pop\n      pop\n      pop\n      swap1\n      pop\n        /* \"@openzeppelin/contracts/token/ERC20/ERC20.sol\":2367:2469  function symbol() public view virtual override returns (string memory) {... */\n      swap1\n      jump\t// out\n        /* \"contracts/final/gmdBTC.sol\":333:439  function burn(address _from, uint256 _amount) external onlyOwner  {... */\n    tag_68:\n        /* \"@openzeppelin/contracts/access/Ownable.sol\":1094:1107  _checkOwner() */\n      tag_131\n        /* \"@openzeppelin/contracts/access/Ownable.sol\":1094:1105  _checkOwner */\n      tag_113\n        /* \"@openzeppelin/contracts/access/Ownable.sol\":1094:1107  _checkOwner() */\n      jump\t// in\n    tag_131:\n        /* \"contracts/final/gmdBTC.sol\":410:431  _burn(_from, _amount) */\n      tag_133\n        /* \"contracts/final/gmdBTC.sol\":416:421  _from */\n      dup3\n        /* \"contracts/final/gmdBTC.sol\":423:430  _amount */\n      dup3\n        /* \"contracts/final/gmdBTC.sol\":410:415  _burn */\n      tag_134\n        /* \"contracts/final/gmdBTC.sol\":410:431  _burn(_from, _amount) */\n      jump\t// in\n    tag_133:\n        /* \"contracts/final/gmdBTC.sol\":333:439  function burn(address _from, uint256 _amount) external onlyOwner  {... */\n      pop\n      pop\n      jump\t// out\n        /* \"@openzeppelin/contracts/token/ERC20/ERC20.sol\":6594:7021  function decreaseAllowance(address spender, uint256 subtractedValue) public virtual returns (bool) {... */\n    tag_71:\n        /* \"@openzeppelin/contracts/token/ERC20/ERC20.sol\":6687:6691  bool */\n      0x00\n        /* \"@openzeppelin/contracts/token/ERC20/ERC20.sol\":6703:6716  address owner */\n      dup1\n        /* \"@openzeppelin/contracts/token/ERC20/ERC20.sol\":6719:6731  _msgSender() */\n      tag_136\n        /* \"@openzeppelin/contracts/token/ERC20/ERC20.sol\":6719:6729  _msgSender */\n      tag_94\n        /* \"@openzeppelin/contracts/token/ERC20/ERC20.sol\":6719:6731  _msgSender() */\n      jump\t// in\n    tag_136:\n        /* \"@openzeppelin/contracts/token/ERC20/ERC20.sol\":6703:6731  address owner = _msgSender() */\n      swap1\n      pop\n        /* \"@openzeppelin/contracts/token/ERC20/ERC20.sol\":6741:6765  uint256 currentAllowance */\n      0x00\n        /* \"@openzeppelin/contracts/token/ERC20/ERC20.sol\":6768:6793  allowance(owner, spender) */\n      tag_137\n        /* \"@openzeppelin/contracts/token/ERC20/ERC20.sol\":6778:6783  owner */\n      dup3\n        /* \"@openzeppelin/contracts/token/ERC20/ERC20.sol\":6785:6792  spender */\n      dup7\n        /* \"@openzeppelin/contracts/token/ERC20/ERC20.sol\":6768:6777  allowance */\n      tag_80\n        /* \"@openzeppelin/contracts/token/ERC20/ERC20.sol\":6768:6793  allowance(owner, spender) */\n      jump\t// in\n    tag_137:\n        /* \"@openzeppelin/contracts/token/ERC20/ERC20.sol\":6741:6793  uint256 currentAllowance = allowance(owner, spender) */\n      swap1\n      pop\n        /* \"@openzeppelin/contracts/token/ERC20/ERC20.sol\":6831:6846  subtractedValue */\n      dup4\n        /* \"@openzeppelin/contracts/token/ERC20/ERC20.sol\":6811:6827  currentAllowance */\n      dup2\n        /* \"@openzeppelin/contracts/token/ERC20/ERC20.sol\":6811:6846  currentAllowance >= subtractedValue */\n      lt\n      iszero\n        /* \"@openzeppelin/contracts/token/ERC20/ERC20.sol\":6803:6888  require(currentAllowance >= subtractedValue, \"ERC20: decreased allowance below zero\") */\n      tag_138\n      jumpi\n      mload(0x40)\n      0x08c379a000000000000000000000000000000000000000000000000000000000\n      dup2\n      mstore\n      0x04\n      add\n      tag_139\n      swap1\n      tag_140\n      jump\t// in\n    tag_139:\n      mload(0x40)\n      dup1\n      swap2\n      sub\n      swap1\n      revert\n    tag_138:\n        /* \"@openzeppelin/contracts/token/ERC20/ERC20.sol\":6922:6982  _approve(owner, spender, currentAllowance - subtractedValue) */\n      tag_141\n        /* \"@openzeppelin/contracts/token/ERC20/ERC20.sol\":6931:6936  owner */\n      dup3\n        /* \"@openzeppelin/contracts/token/ERC20/ERC20.sol\":6938:6945  spender */\n      dup7\n        /* \"@openzeppelin/contracts/token/ERC20/ERC20.sol\":6966:6981  subtractedValue */\n      dup7\n        /* \"@openzeppelin/contracts/token/ERC20/ERC20.sol\":6947:6963  currentAllowance */\n      dup5\n        /* \"@openzeppelin/contracts/token/ERC20/ERC20.sol\":6947:6981  currentAllowance - subtractedValue */\n      sub\n        /* \"@openzeppelin/contracts/token/ERC20/ERC20.sol\":6922:6930  _approve */\n      tag_96\n        /* \"@openzeppelin/contracts/token/ERC20/ERC20.sol\":6922:6982  _approve(owner, spender, currentAllowance - subtractedValue) */\n      jump\t// in\n    tag_141:\n        /* \"@openzeppelin/contracts/token/ERC20/ERC20.sol\":7010:7014  true */\n      0x01\n        /* \"@openzeppelin/contracts/token/ERC20/ERC20.sol\":7003:7014  return true */\n      swap3\n      pop\n      pop\n      pop\n        /* \"@openzeppelin/contracts/token/ERC20/ERC20.sol\":6594:7021  function decreaseAllowance(address spender, uint256 subtractedValue) public virtual returns (bool) {... */\n      swap3\n      swap2\n      pop\n      pop\n      jump\t// out\n        /* \"@openzeppelin/contracts/token/ERC20/ERC20.sol\":3729:3918  function transfer(address to, uint256 amount) public virtual override returns (bool) {... */\n    tag_75:\n        /* \"@openzeppelin/contracts/token/ERC20/ERC20.sol\":3808:3812  bool */\n      0x00\n        /* \"@openzeppelin/contracts/token/ERC20/ERC20.sol\":3824:3837  address owner */\n      dup1\n        /* \"@openzeppelin/contracts/token/ERC20/ERC20.sol\":3840:3852  _msgSender() */\n      tag_143\n        /* \"@openzeppelin/contracts/token/ERC20/ERC20.sol\":3840:3850  _msgSender */\n      tag_94\n        /* \"@openzeppelin/contracts/token/ERC20/ERC20.sol\":3840:3852  _msgSender() */\n      jump\t// in\n    tag_143:\n        /* \"@openzeppelin/contracts/token/ERC20/ERC20.sol\":3824:3852  address owner = _msgSender() */\n      swap1\n      pop\n        /* \"@openzeppelin/contracts/token/ERC20/ERC20.sol\":3862:3890  _transfer(owner, to, amount) */\n      tag_144\n        /* \"@openzeppelin/contracts/token/ERC20/ERC20.sol\":3872:3877  owner */\n      dup2\n        /* \"@openzeppelin/contracts/token/ERC20/ERC20.sol\":3879:3881  to */\n      dup6\n        /* \"@openzeppelin/contracts/token/ERC20/ERC20.sol\":3883:3889  amount */\n      dup6\n        /* \"@openzeppelin/contracts/token/ERC20/ERC20.sol\":3862:3871  _transfer */\n      tag_103\n        /* \"@openzeppelin/contracts/token/ERC20/ERC20.sol\":3862:3890  _transfer(owner, to, amount) */\n      jump\t// in\n    tag_144:\n        /* \"@openzeppelin/contracts/token/ERC20/ERC20.sol\":3907:3911  true */\n      0x01\n        /* \"@openzeppelin/contracts/token/ERC20/ERC20.sol\":3900:3911  return true */\n      swap2\n      pop\n      pop\n        /* \"@openzeppelin/contracts/token/ERC20/ERC20.sol\":3729:3918  function transfer(address to, uint256 amount) public virtual override returns (bool) {... */\n      swap3\n      swap2\n      pop\n      pop\n      jump\t// out\n        /* \"@openzeppelin/contracts/token/ERC20/ERC20.sol\":3976:4125  function allowance(address owner, address spender) public view virtual override returns (uint256) {... */\n    tag_80:\n        /* \"@openzeppelin/contracts/token/ERC20/ERC20.sol\":4065:4072  uint256 */\n      0x00\n        /* \"@openzeppelin/contracts/token/ERC20/ERC20.sol\":4091:4102  _allowances */\n      0x01\n        /* \"@openzeppelin/contracts/token/ERC20/ERC20.sol\":4091:4109  _allowances[owner] */\n      0x00\n        /* \"@openzeppelin/contracts/token/ERC20/ERC20.sol\":4103:4108  owner */\n      dup5\n        /* \"@openzeppelin/contracts/token/ERC20/ERC20.sol\":4091:4109  _allowances[owner] */\n      0xffffffffffffffffffffffffffffffffffffffff\n      and\n      0xffffffffffffffffffffffffffffffffffffffff\n      and\n      dup2\n      mstore\n      0x20\n      add\n      swap1\n      dup2\n      mstore\n      0x20\n      add\n      0x00\n      keccak256\n        /* \"@openzeppelin/contracts/token/ERC20/ERC20.sol\":4091:4118  _allowances[owner][spender] */\n      0x00\n        /* \"@openzeppelin/contracts/token/ERC20/ERC20.sol\":4110:4117  spender */\n      dup4\n        /* \"@openzeppelin/contracts/token/ERC20/ERC20.sol\":4091:4118  _allowances[owner][spender] */\n      0xffffffffffffffffffffffffffffffffffffffff\n      and\n      0xffffffffffffffffffffffffffffffffffffffff\n      and\n      dup2\n      mstore\n      0x20\n      add\n      swap1\n      dup2\n      mstore\n      0x20\n      add\n      0x00\n      keccak256\n      sload\n        /* \"@openzeppelin/contracts/token/ERC20/ERC20.sol\":4084:4118  return _allowances[owner][spender] */\n      swap1\n      pop\n        /* \"@openzeppelin/contracts/token/ERC20/ERC20.sol\":3976:4125  function allowance(address owner, address spender) public view virtual override returns (uint256) {... */\n      swap3\n      swap2\n      pop\n      pop\n      jump\t// out\n        /* \"@openzeppelin/contracts/access/Ownable.sol\":2081:2279  function transferOwnership(address newOwner) public virtual onlyOwner {... */\n    tag_84:\n        /* \"@openzeppelin/contracts/access/Ownable.sol\":1094:1107  _checkOwner() */\n      tag_147\n        /* \"@openzeppelin/contracts/access/Ownable.sol\":1094:1105  _checkOwner */\n      tag_113\n        /* \"@openzeppelin/contracts/access/Ownable.sol\":1094:1107  _checkOwner() */\n      jump\t// in\n    tag_147:\n        /* \"@openzeppelin/contracts/access/Ownable.sol\":2189:2190  0 */\n      0x00\n        /* \"@openzeppelin/contracts/access/Ownable.sol\":2169:2191  newOwner != address(0) */\n      0xffffffffffffffffffffffffffffffffffffffff\n      and\n        /* \"@openzeppelin/contracts/access/Ownable.sol\":2169:2177  newOwner */\n      dup2\n        /* \"@openzeppelin/contracts/access/Ownable.sol\":2169:2191  newOwner != address(0) */\n      0xffffffffffffffffffffffffffffffffffffffff\n      and\n      eq\n      iszero\n        /* \"@openzeppelin/contracts/access/Ownable.sol\":2161:2234  require(newOwner != address(0), \"Ownable: new owner is the zero address\") */\n      tag_149\n      jumpi\n      mload(0x40)\n      0x08c379a000000000000000000000000000000000000000000000000000000000\n      dup2\n      mstore\n      0x04\n      add\n      tag_150\n      swap1\n      tag_151\n      jump\t// in\n    tag_150:\n      mload(0x40)\n      dup1\n      swap2\n      sub\n      swap1\n      revert\n    tag_149:\n        /* \"@openzeppelin/contracts/access/Ownable.sol\":2244:2272  _transferOwnership(newOwner) */\n      tag_152\n        /* \"@openzeppelin/contracts/access/Ownable.sol\":2263:2271  newOwner */\n      dup2\n        /* \"@openzeppelin/contracts/access/Ownable.sol\":2244:2262  _transferOwnership */\n      tag_122\n        /* \"@openzeppelin/contracts/access/Ownable.sol\":2244:2272  _transferOwnership(newOwner) */\n      jump\t// in\n    tag_152:\n        /* \"@openzeppelin/contracts/access/Ownable.sol\":2081:2279  function transferOwnership(address newOwner) public virtual onlyOwner {... */\n      pop\n      jump\t// out\n        /* \"@openzeppelin/contracts/utils/Context.sol\":640:736  function _msgSender() internal view virtual returns (address) {... */\n    tag_94:\n        /* \"@openzeppelin/contracts/utils/Context.sol\":693:700  address */\n      0x00\n        /* \"@openzeppelin/contracts/utils/Context.sol\":719:729  msg.sender */\n      caller\n        /* \"@openzeppelin/contracts/utils/Context.sol\":712:729  return msg.sender */\n      swap1\n      pop\n        /* \"@openzeppelin/contracts/utils/Context.sol\":640:736  function _msgSender() internal view virtual returns (address) {... */\n      swap1\n      jump\t// out\n        /* \"@openzeppelin/contracts/token/ERC20/ERC20.sol\":10110:10480  function _approve(... */\n    tag_96:\n        /* \"@openzeppelin/contracts/token/ERC20/ERC20.sol\":10258:10259  0 */\n      0x00\n        /* \"@openzeppelin/contracts/token/ERC20/ERC20.sol\":10241:10260  owner != address(0) */\n      0xffffffffffffffffffffffffffffffffffffffff\n      and\n        /* \"@openzeppelin/contracts/token/ERC20/ERC20.sol\":10241:10246  owner */\n      dup4\n        /* \"@openzeppelin/contracts/token/ERC20/ERC20.sol\":10241:10260  owner != address(0) */\n      0xffffffffffffffffffffffffffffffffffffffff\n      and\n      eq\n      iszero\n        /* \"@openzeppelin/contracts/token/ERC20/ERC20.sol\":10233:10301  require(owner != address(0), \"ERC20: approve from the zero address\") */\n      tag_155\n      jumpi\n      mload(0x40)\n      0x08c379a000000000000000000000000000000000000000000000000000000000\n      dup2\n      mstore\n      0x04\n      add\n      tag_156\n      swap1\n      tag_157\n      jump\t// in\n    tag_156:\n      mload(0x40)\n      dup1\n      swap2\n      sub\n      swap1\n      revert\n    tag_155:\n        /* \"@openzeppelin/contracts/token/ERC20/ERC20.sol\":10338:10339  0 */\n      0x00\n        /* \"@openzeppelin/contracts/token/ERC20/ERC20.sol\":10319:10340  spender != address(0) */\n      0xffffffffffffffffffffffffffffffffffffffff\n      and\n        /* \"@openzeppelin/contracts/token/ERC20/ERC20.sol\":10319:10326  spender */\n      dup3\n        /* \"@openzeppelin/contracts/token/ERC20/ERC20.sol\":10319:10340  spender != address(0) */\n      0xffffffffffffffffffffffffffffffffffffffff\n      and\n      eq\n      iszero\n        /* \"@openzeppelin/contracts/token/ERC20/ERC20.sol\":10311:10379  require(spender != address(0), \"ERC20: approve to the zero address\") */\n      tag_158\n      jumpi\n      mload(0x40)\n      0x08c379a000000000000000000000000000000000000000000000000000000000\n      dup2\n      mstore\n      0x04\n      add\n      tag_159\n      swap1\n      tag_160\n      jump\t// in\n    tag_159:\n      mload(0x40)\n      dup1\n      swap2\n      sub\n      swap1\n      revert\n    tag_158:\n        /* \"@openzeppelin/contracts/token/ERC20/ERC20.sol\":10420:10426  amount */\n      dup1\n        /* \"@openzeppelin/contracts/token/ERC20/ERC20.sol\":10390:10401  _allowances */\n      0x01\n        /* \"@openzeppelin/contracts/token/ERC20/ERC20.sol\":10390:10408  _allowances[owner] */\n      0x00\n        /* \"@openzeppelin/contracts/token/ERC20/ERC20.sol\":10402:10407  owner */\n      dup6\n        /* \"@openzeppelin/contracts/token/ERC20/ERC20.sol\":10390:10408  _allowances[owner] */\n      0xffffffffffffffffffffffffffffffffffffffff\n      and\n      0xffffffffffffffffffffffffffffffffffffffff\n      and\n      dup2\n      mstore\n      0x20\n      add\n      swap1\n      dup2\n      mstore\n      0x20\n      add\n      0x00\n      keccak256\n        /* \"@openzeppelin/contracts/token/ERC20/ERC20.sol\":10390:10417  _allowances[owner][spender] */\n      0x00\n        /* \"@openzeppelin/contracts/token/ERC20/ERC20.sol\":10409:10416  spender */\n      dup5\n        /* \"@openzeppelin/contracts/token/ERC20/ERC20.sol\":10390:10417  _allowances[owner][spender] */\n      0xffffffffffffffffffffffffffffffffffffffff\n      and\n      0xffffffffffffffffffffffffffffffffffffffff\n      and\n      dup2\n      mstore\n      0x20\n      add\n      swap1\n      dup2\n      mstore\n      0x20\n      add\n      0x00\n      keccak256\n        /* \"@openzeppelin/contracts/token/ERC20/ERC20.sol\":10390:10426  _allowances[owner][spender] = amount */\n      dup2\n      swap1\n      sstore\n      pop\n        /* \"@openzeppelin/contracts/token/ERC20/ERC20.sol\":10457:10464  spender */\n      dup2\n        /* \"@openzeppelin/contracts/token/ERC20/ERC20.sol\":10441:10473  Approval(owner, spender, amount) */\n      0xffffffffffffffffffffffffffffffffffffffff\n      and\n        /* \"@openzeppelin/contracts/token/ERC20/ERC20.sol\":10450:10455  owner */\n      dup4\n        /* \"@openzeppelin/contracts/token/ERC20/ERC20.sol\":10441:10473  Approval(owner, spender, amount) */\n      0xffffffffffffffffffffffffffffffffffffffff\n      and\n      0x8c5be1e5ebec7d5bd14f71427d1e84f3dd0314c0f7b2291e5b200ac8c7c3b925\n        /* \"@openzeppelin/contracts/token/ERC20/ERC20.sol\":10466:10472  amount */\n      dup4\n        /* \"@openzeppelin/contracts/token/ERC20/ERC20.sol\":10441:10473  Approval(owner, spender, amount) */\n      mload(0x40)\n      tag_161\n      swap2\n      swap1\n      tag_35\n      jump\t// in\n    tag_161:\n      mload(0x40)\n      dup1\n      swap2\n      sub\n      swap1\n      log3\n        /* \"@openzeppelin/contracts/token/ERC20/ERC20.sol\":10110:10480  function _approve(... */\n      pop\n      pop\n      pop\n      jump\t// out\n        /* \"@openzeppelin/contracts/token/ERC20/ERC20.sol\":10761:11202  function _spendAllowance(... */\n    tag_101:\n        /* \"@openzeppelin/contracts/token/ERC20/ERC20.sol\":10891:10915  uint256 currentAllowance */\n      0x00\n        /* \"@openzeppelin/contracts/token/ERC20/ERC20.sol\":10918:10943  allowance(owner, spender) */\n      tag_163\n        /* \"@openzeppelin/contracts/token/ERC20/ERC20.sol\":10928:10933  owner */\n      dup5\n        /* \"@openzeppelin/contracts/token/ERC20/ERC20.sol\":10935:10942  spender */\n      dup5\n        /* \"@openzeppelin/contracts/token/ERC20/ERC20.sol\":10918:10927  allowance */\n      tag_80\n        /* \"@openzeppelin/contracts/token/ERC20/ERC20.sol\":10918:10943  allowance(owner, spender) */\n      jump\t// in\n    tag_163:\n        /* \"@openzeppelin/contracts/token/ERC20/ERC20.sol\":10891:10943  uint256 currentAllowance = allowance(owner, spender) */\n      swap1\n      pop\n        /* \"@openzeppelin/contracts/token/ERC20/ERC20.sol\":10977:10994  type(uint256).max */\n      0xffffffffffffffffffffffffffffffffffffffffffffffffffffffffffffffff\n        /* \"@openzeppelin/contracts/token/ERC20/ERC20.sol\":10957:10973  currentAllowance */\n      dup2\n        /* \"@openzeppelin/contracts/token/ERC20/ERC20.sol\":10957:10994  currentAllowance != type(uint256).max */\n      eq\n        /* \"@openzeppelin/contracts/token/ERC20/ERC20.sol\":10953:11196  if (currentAllowance != type(uint256).max) {... */\n      tag_164\n      jumpi\n        /* \"@openzeppelin/contracts/token/ERC20/ERC20.sol\":11038:11044  amount */\n      dup2\n        /* \"@openzeppelin/contracts/token/ERC20/ERC20.sol\":11018:11034  currentAllowance */\n      dup2\n        /* \"@openzeppelin/contracts/token/ERC20/ERC20.sol\":11018:11044  currentAllowance >= amount */\n      lt\n      iszero\n        /* \"@openzeppelin/contracts/token/ERC20/ERC20.sol\":11010:11078  require(currentAllowance >= amount, \"ERC20: insufficient allowance\") */\n      tag_165\n      jumpi\n      mload(0x40)\n      0x08c379a000000000000000000000000000000000000000000000000000000000\n      dup2\n      mstore\n      0x04\n      add\n      tag_166\n      swap1\n      tag_167\n      jump\t// in\n    tag_166:\n      mload(0x40)\n      dup1\n      swap2\n      sub\n      swap1\n      revert\n    tag_165:\n        /* \"@openzeppelin/contracts/token/ERC20/ERC20.sol\":11120:11171  _approve(owner, spender, currentAllowance - amount) */\n      tag_168\n        /* \"@openzeppelin/contracts/token/ERC20/ERC20.sol\":11129:11134  owner */\n      dup5\n        /* \"@openzeppelin/contracts/token/ERC20/ERC20.sol\":11136:11143  spender */\n      dup5\n        /* \"@openzeppelin/contracts/token/ERC20/ERC20.sol\":11164:11170  amount */\n      dup5\n        /* \"@openzeppelin/contracts/token/ERC20/ERC20.sol\":11145:11161  currentAllowance */\n      dup5\n        /* \"@openzeppelin/contracts/token/ERC20/ERC20.sol\":11145:11170  currentAllowance - amount */\n      sub\n        /* \"@openzeppelin/contracts/token/ERC20/ERC20.sol\":11120:11128  _approve */\n      tag_96\n        /* \"@openzeppelin/contracts/token/ERC20/ERC20.sol\":11120:11171  _approve(owner, spender, currentAllowance - amount) */\n      jump\t// in\n    tag_168:\n        /* \"@openzeppelin/contracts/token/ERC20/ERC20.sol\":10953:11196  if (currentAllowance != type(uint256).max) {... */\n    tag_164:\n        /* \"@openzeppelin/contracts/token/ERC20/ERC20.sol\":10881:11202  {... */\n      pop\n        /* \"@openzeppelin/contracts/token/ERC20/ERC20.sol\":10761:11202  function _spendAllowance(... */\n      pop\n      pop\n      pop\n      jump\t// out\n        /* \"@openzeppelin/contracts/token/ERC20/ERC20.sol\":7475:8126  function _transfer(... */\n    tag_103:\n        /* \"@openzeppelin/contracts/token/ERC20/ERC20.sol\":7617:7618  0 */\n      0x00\n        /* \"@openzeppelin/contracts/token/ERC20/ERC20.sol\":7601:7619  from != address(0) */\n      0xffffffffffffffffffffffffffffffffffffffff\n      and\n        /* \"@openzeppelin/contracts/token/ERC20/ERC20.sol\":7601:7605  from */\n      dup4\n        /* \"@openzeppelin/contracts/token/ERC20/ERC20.sol\":7601:7619  from != address(0) */\n      0xffffffffffffffffffffffffffffffffffffffff\n      and\n      eq\n      iszero\n        /* \"@openzeppelin/contracts/token/ERC20/ERC20.sol\":7593:7661  require(from != address(0), \"ERC20: transfer from the zero address\") */\n      tag_170\n      jumpi\n      mload(0x40)\n      0x08c379a000000000000000000000000000000000000000000000000000000000\n      dup2\n      mstore\n      0x04\n      add\n      tag_171\n      swap1\n      tag_172\n      jump\t// in\n    tag_171:\n      mload(0x40)\n      dup1\n      swap2\n      sub\n      swap1\n      revert\n    tag_170:\n        /* \"@openzeppelin/contracts/token/ERC20/ERC20.sol\":7693:7694  0 */\n      0x00\n        /* \"@openzeppelin/contracts/token/ERC20/ERC20.sol\":7679:7695  to != address(0) */\n      0xffffffffffffffffffffffffffffffffffffffff\n      and\n        /* \"@openzeppelin/contracts/token/ERC20/ERC20.sol\":7679:7681  to */\n      dup3\n        /* \"@openzeppelin/contracts/token/ERC20/ERC20.sol\":7679:7695  to != address(0) */\n      0xffffffffffffffffffffffffffffffffffffffff\n      and\n      eq\n      iszero\n        /* \"@openzeppelin/contracts/token/ERC20/ERC20.sol\":7671:7735  require(to != address(0), \"ERC20: transfer to the zero address\") */\n      tag_173\n      jumpi\n      mload(0x40)\n      0x08c379a000000000000000000000000000000000000000000000000000000000\n      dup2\n      mstore\n      0x04\n      add\n      tag_174\n      swap1\n      tag_175\n      jump\t// in\n    tag_174:\n      mload(0x40)\n      dup1\n      swap2\n      sub\n      swap1\n      revert\n    tag_173:\n        /* \"@openzeppelin/contracts/token/ERC20/ERC20.sol\":7746:7784  _beforeTokenTransfer(from, to, amount) */\n      tag_176\n        /* \"@openzeppelin/contracts/token/ERC20/ERC20.sol\":7767:7771  from */\n      dup4\n        /* \"@openzeppelin/contracts/token/ERC20/ERC20.sol\":7773:7775  to */\n      dup4\n        /* \"@openzeppelin/contracts/token/ERC20/ERC20.sol\":7777:7783  amount */\n      dup4\n        /* \"@openzeppelin/contracts/token/ERC20/ERC20.sol\":7746:7766  _beforeTokenTransfer */\n      tag_177\n        /* \"@openzeppelin/contracts/token/ERC20/ERC20.sol\":7746:7784  _beforeTokenTransfer(from, to, amount) */\n      jump\t// in\n    tag_176:\n        /* \"@openzeppelin/contracts/token/ERC20/ERC20.sol\":7795:7814  uint256 fromBalance */\n      0x00\n        /* \"@openzeppelin/contracts/token/ERC20/ERC20.sol\":7817:7826  _balances */\n      dup1\n        /* \"@openzeppelin/contracts/token/ERC20/ERC20.sol\":7817:7832  _balances[from] */\n      0x00\n        /* \"@openzeppelin/contracts/token/ERC20/ERC20.sol\":7827:7831  from */\n      dup6\n        /* \"@openzeppelin/contracts/token/ERC20/ERC20.sol\":7817:7832  _balances[from] */\n      0xffffffffffffffffffffffffffffffffffffffff\n      and\n      0xffffffffffffffffffffffffffffffffffffffff\n      and\n      dup2\n      mstore\n      0x20\n      add\n      swap1\n      dup2\n      mstore\n      0x20\n      add\n      0x00\n      keccak256\n      sload\n        /* \"@openzeppelin/contracts/token/ERC20/ERC20.sol\":7795:7832  uint256 fromBalance = _balances[from] */\n      swap1\n      pop\n        /* \"@openzeppelin/contracts/token/ERC20/ERC20.sol\":7865:7871  amount */\n      dup2\n        /* \"@openzeppelin/contracts/token/ERC20/ERC20.sol\":7850:7861  fromBalance */\n      dup2\n        /* \"@openzeppelin/contracts/token/ERC20/ERC20.sol\":7850:7871  fromBalance >= amount */\n      lt\n      iszero\n        /* \"@openzeppelin/contracts/token/ERC20/ERC20.sol\":7842:7914  require(fromBalance >= amount, \"ERC20: transfer amount exceeds balance\") */\n      tag_178\n      jumpi\n      mload(0x40)\n      0x08c379a000000000000000000000000000000000000000000000000000000000\n      dup2\n      mstore\n      0x04\n      add\n      tag_179\n      swap1\n      tag_180\n      jump\t// in\n    tag_179:\n      mload(0x40)\n      dup1\n      swap2\n      sub\n      swap1\n      revert\n    tag_178:\n        /* \"@openzeppelin/contracts/token/ERC20/ERC20.sol\":7980:7986  amount */\n      dup2\n        /* \"@openzeppelin/contracts/token/ERC20/ERC20.sol\":7966:7977  fromBalance */\n      dup2\n        /* \"@openzeppelin/contracts/token/ERC20/ERC20.sol\":7966:7986  fromBalance - amount */\n      sub\n        /* \"@openzeppelin/contracts/token/ERC20/ERC20.sol\":7948:7957  _balances */\n      0x00\n        /* \"@openzeppelin/contracts/token/ERC20/ERC20.sol\":7948:7963  _balances[from] */\n      dup1\n        /* \"@openzeppelin/contracts/token/ERC20/ERC20.sol\":7958:7962  from */\n      dup7\n        /* \"@openzeppelin/contracts/token/ERC20/ERC20.sol\":7948:7963  _balances[from] */\n      0xffffffffffffffffffffffffffffffffffffffff\n      and\n      0xffffffffffffffffffffffffffffffffffffffff\n      and\n      dup2\n      mstore\n      0x20\n      add\n      swap1\n      dup2\n      mstore\n      0x20\n      add\n      0x00\n      keccak256\n        /* \"@openzeppelin/contracts/token/ERC20/ERC20.sol\":7948:7986  _balances[from] = fromBalance - amount */\n      dup2\n      swap1\n      sstore\n      pop\n        /* \"@openzeppelin/contracts/token/ERC20/ERC20.sol\":8023:8029  amount */\n      dup2\n        /* \"@openzeppelin/contracts/token/ERC20/ERC20.sol\":8006:8015  _balances */\n      0x00\n        /* \"@openzeppelin/contracts/token/ERC20/ERC20.sol\":8006:8019  _balances[to] */\n      dup1\n        /* \"@openzeppelin/contracts/token/ERC20/ERC20.sol\":8016:8018  to */\n      dup6\n        /* \"@openzeppelin/contracts/token/ERC20/ERC20.sol\":8006:8019  _balances[to] */\n      0xffffffffffffffffffffffffffffffffffffffff\n      and\n      0xffffffffffffffffffffffffffffffffffffffff\n      and\n      dup2\n      mstore\n      0x20\n      add\n      swap1\n      dup2\n      mstore\n      0x20\n      add\n      0x00\n      keccak256\n      0x00\n        /* \"@openzeppelin/contracts/token/ERC20/ERC20.sol\":8006:8029  _balances[to] += amount */\n      dup3\n      dup3\n      sload\n      tag_181\n      swap2\n      swap1\n      tag_110\n      jump\t// in\n    tag_181:\n      swap3\n      pop\n      pop\n      dup2\n      swap1\n      sstore\n      pop\n        /* \"@openzeppelin/contracts/token/ERC20/ERC20.sol\":8060:8062  to */\n      dup3\n        /* \"@openzeppelin/contracts/token/ERC20/ERC20.sol\":8045:8071  Transfer(from, to, amount) */\n      0xffffffffffffffffffffffffffffffffffffffff\n      and\n        /* \"@openzeppelin/contracts/token/ERC20/ERC20.sol\":8054:8058  from */\n      dup5\n        /* \"@openzeppelin/contracts/token/ERC20/ERC20.sol\":8045:8071  Transfer(from, to, amount) */\n      0xffffffffffffffffffffffffffffffffffffffff\n      and\n      0xddf252ad1be2c89b69c2b068fc378daa952ba7f163c4a11628f55a4df523b3ef\n        /* \"@openzeppelin/contracts/token/ERC20/ERC20.sol\":8064:8070  amount */\n      dup5\n        /* \"@openzeppelin/contracts/token/ERC20/ERC20.sol\":8045:8071  Transfer(from, to, amount) */\n      mload(0x40)\n      tag_182\n      swap2\n      swap1\n      tag_35\n      jump\t// in\n    tag_182:\n      mload(0x40)\n      dup1\n      swap2\n      sub\n      swap1\n      log3\n        /* \"@openzeppelin/contracts/token/ERC20/ERC20.sol\":8082:8119  _afterTokenTransfer(from, to, amount) */\n      tag_183\n        /* \"@openzeppelin/contracts/token/ERC20/ERC20.sol\":8102:8106  from */\n      dup5\n        /* \"@openzeppelin/contracts/token/ERC20/ERC20.sol\":8108:8110  to */\n      dup5\n        /* \"@openzeppelin/contracts/token/ERC20/ERC20.sol\":8112:8118  amount */\n      dup5\n        /* \"@openzeppelin/contracts/token/ERC20/ERC20.sol\":8082:8101  _afterTokenTransfer */\n      tag_184\n        /* \"@openzeppelin/contracts/token/ERC20/ERC20.sol\":8082:8119  _afterTokenTransfer(from, to, amount) */\n      jump\t// in\n    tag_183:\n        /* \"@openzeppelin/contracts/token/ERC20/ERC20.sol\":7583:8126  {... */\n      pop\n        /* \"@openzeppelin/contracts/token/ERC20/ERC20.sol\":7475:8126  function _transfer(... */\n      pop\n      pop\n      pop\n      jump\t// out\n        /* \"@openzeppelin/contracts/access/Ownable.sol\":1359:1489  function _checkOwner() internal view virtual {... */\n    tag_113:\n        /* \"@openzeppelin/contracts/access/Ownable.sol\":1433:1445  _msgSender() */\n      tag_186\n        /* \"@openzeppelin/contracts/access/Ownable.sol\":1433:1443  _msgSender */\n      tag_94\n        /* \"@openzeppelin/contracts/access/Ownable.sol\":1433:1445  _msgSender() */\n      jump\t// in\n    tag_186:\n        /* \"@openzeppelin/contracts/access/Ownable.sol\":1422:1445  owner() == _msgSender() */\n      0xffffffffffffffffffffffffffffffffffffffff\n      and\n        /* \"@openzeppelin/contracts/access/Ownable.sol\":1422:1429  owner() */\n      tag_187\n        /* \"@openzeppelin/contracts/access/Ownable.sol\":1422:1427  owner */\n      tag_60\n        /* \"@openzeppelin/contracts/access/Ownable.sol\":1422:1429  owner() */\n      jump\t// in\n    tag_187:\n        /* \"@openzeppelin/contracts/access/Ownable.sol\":1422:1445  owner() == _msgSender() */\n      0xffffffffffffffffffffffffffffffffffffffff\n      and\n      eq\n        /* \"@openzeppelin/contracts/access/Ownable.sol\":1414:1482  require(owner() == _msgSender(), \"Ownable: caller is not the owner\") */\n      tag_188\n      jumpi\n      mload(0x40)\n      0x08c379a000000000000000000000000000000000000000000000000000000000\n      dup2\n      mstore\n      0x04\n      add\n      tag_189\n      swap1\n      tag_190\n      jump\t// in\n    tag_189:\n      mload(0x40)\n      dup1\n      swap2\n      sub\n      swap1\n      revert\n    tag_188:\n        /* \"@openzeppelin/contracts/access/Ownable.sol\":1359:1489  function _checkOwner() internal view virtual {... */\n      jump\t// out\n        /* \"@openzeppelin/contracts/token/ERC20/ERC20.sol\":8402:8791  function _mint(address account, uint256 amount) internal virtual {... */\n    tag_116:\n        /* \"@openzeppelin/contracts/token/ERC20/ERC20.sol\":8504:8505  0 */\n      0x00\n        /* \"@openzeppelin/contracts/token/ERC20/ERC20.sol\":8485:8506  account != address(0) */\n      0xffffffffffffffffffffffffffffffffffffffff\n      and\n        /* \"@openzeppelin/contracts/token/ERC20/ERC20.sol\":8485:8492  account */\n      dup3\n        /* \"@openzeppelin/contracts/token/ERC20/ERC20.sol\":8485:8506  account != address(0) */\n      0xffffffffffffffffffffffffffffffffffffffff\n      and\n      eq\n      iszero\n        /* \"@openzeppelin/contracts/token/ERC20/ERC20.sol\":8477:8542  require(account != address(0), \"ERC20: mint to the zero address\") */\n      tag_192\n      jumpi\n      mload(0x40)\n      0x08c379a000000000000000000000000000000000000000000000000000000000\n      dup2\n      mstore\n      0x04\n      add\n      tag_193\n      swap1\n      tag_194\n      jump\t// in\n    tag_193:\n      mload(0x40)\n      dup1\n      swap2\n      sub\n      swap1\n      revert\n    tag_192:\n        /* \"@openzeppelin/contracts/token/ERC20/ERC20.sol\":8553:8602  _beforeTokenTransfer(address(0), account, amount) */\n      tag_195\n        /* \"@openzeppelin/contracts/token/ERC20/ERC20.sol\":8582:8583  0 */\n      0x00\n        /* \"@openzeppelin/contracts/token/ERC20/ERC20.sol\":8586:8593  account */\n      dup4\n        /* \"@openzeppelin/contracts/token/ERC20/ERC20.sol\":8595:8601  amount */\n      dup4\n        /* \"@openzeppelin/contracts/token/ERC20/ERC20.sol\":8553:8573  _beforeTokenTransfer */\n      tag_177\n        /* \"@openzeppelin/contracts/token/ERC20/ERC20.sol\":8553:8602  _beforeTokenTransfer(address(0), account, amount) */\n      jump\t// in\n    tag_195:\n        /* \"@openzeppelin/contracts/token/ERC20/ERC20.sol\":8629:8635  amount */\n      dup1\n        /* \"@openzeppelin/contracts/token/ERC20/ERC20.sol\":8613:8625  _totalSupply */\n      0x02\n      0x00\n        /* \"@openzeppelin/contracts/token/ERC20/ERC20.sol\":8613:8635  _totalSupply += amount */\n      dup3\n      dup3\n      sload\n      tag_196\n      swap2\n      swap1\n      tag_110\n      jump\t// in\n    tag_196:\n      swap3\n      pop\n      pop\n      dup2\n      swap1\n      sstore\n      pop\n        /* \"@openzeppelin/contracts/token/ERC20/ERC20.sol\":8667:8673  amount */\n      dup1\n        /* \"@openzeppelin/contracts/token/ERC20/ERC20.sol\":8645:8654  _balances */\n      0x00\n        /* \"@openzeppelin/contracts/token/ERC20/ERC20.sol\":8645:8663  _balances[account] */\n      dup1\n        /* \"@openzeppelin/contracts/token/ERC20/ERC20.sol\":8655:8662  account */\n      dup5\n        /* \"@openzeppelin/contracts/token/ERC20/ERC20.sol\":8645:8663  _balances[account] */\n      0xffffffffffffffffffffffffffffffffffffffff\n      and\n      0xffffffffffffffffffffffffffffffffffffffff\n      and\n      dup2\n      mstore\n      0x20\n      add\n      swap1\n      dup2\n      mstore\n      0x20\n      add\n      0x00\n      keccak256\n      0x00\n        /* \"@openzeppelin/contracts/token/ERC20/ERC20.sol\":8645:8673  _balances[account] += amount */\n      dup3\n      dup3\n      sload\n      tag_197\n      swap2\n      swap1\n      tag_110\n      jump\t// in\n    tag_197:\n      swap3\n      pop\n      pop\n      dup2\n      swap1\n      sstore\n      pop\n        /* \"@openzeppelin/contracts/token/ERC20/ERC20.sol\":8709:8716  account */\n      dup2\n        /* \"@openzeppelin/contracts/token/ERC20/ERC20.sol\":8688:8725  Transfer(address(0), account, amount) */\n      0xffffffffffffffffffffffffffffffffffffffff\n      and\n        /* \"@openzeppelin/contracts/token/ERC20/ERC20.sol\":8705:8706  0 */\n      0x00\n        /* \"@openzeppelin/contracts/token/ERC20/ERC20.sol\":8688:8725  Transfer(address(0), account, amount) */\n      0xffffffffffffffffffffffffffffffffffffffff\n      and\n      0xddf252ad1be2c89b69c2b068fc378daa952ba7f163c4a11628f55a4df523b3ef\n        /* \"@openzeppelin/contracts/token/ERC20/ERC20.sol\":8718:8724  amount */\n      dup4\n        /* \"@openzeppelin/contracts/token/ERC20/ERC20.sol\":8688:8725  Transfer(address(0), account, amount) */\n      mload(0x40)\n      tag_198\n      swap2\n      swap1\n      tag_35\n      jump\t// in\n    tag_198:\n      mload(0x40)\n      dup1\n      swap2\n      sub\n      swap1\n      log3\n        /* \"@openzeppelin/contracts/token/ERC20/ERC20.sol\":8736:8784  _afterTokenTransfer(address(0), account, amount) */\n      tag_199\n        /* \"@openzeppelin/contracts/token/ERC20/ERC20.sol\":8764:8765  0 */\n      0x00\n        /* \"@openzeppelin/contracts/token/ERC20/ERC20.sol\":8768:8775  account */\n      dup4\n        /* \"@openzeppelin/contracts/token/ERC20/ERC20.sol\":8777:8783  amount */\n      dup4\n        /* \"@openzeppelin/contracts/token/ERC20/ERC20.sol\":8736:8755  _afterTokenTransfer */\n      tag_184\n        /* \"@openzeppelin/contracts/token/ERC20/ERC20.sol\":8736:8784  _afterTokenTransfer(address(0), account, amount) */\n      jump\t// in\n    tag_199:\n        /* \"@openzeppelin/contracts/token/ERC20/ERC20.sol\":8402:8791  function _mint(address account, uint256 amount) internal virtual {... */\n      pop\n      pop\n      jump\t// out\n        /* \"@openzeppelin/contracts/access/Ownable.sol\":2433:2620  function _transferOwnership(address newOwner) internal virtual {... */\n    tag_122:\n        /* \"@openzeppelin/contracts/access/Ownable.sol\":2506:2522  address oldOwner */\n      0x00\n        /* \"@openzeppelin/contracts/access/Ownable.sol\":2525:2531  _owner */\n      0x05\n      0x00\n      swap1\n      sload\n      swap1\n      0x0100\n      exp\n      swap1\n      div\n      0xffffffffffffffffffffffffffffffffffffffff\n      and\n        /* \"@openzeppelin/contracts/access/Ownable.sol\":2506:2531  address oldOwner = _owner */\n      swap1\n      pop\n        /* \"@openzeppelin/contracts/access/Ownable.sol\":2550:2558  newOwner */\n      dup2\n        /* \"@openzeppelin/contracts/access/Ownable.sol\":2541:2547  _owner */\n      0x05\n      0x00\n        /* \"@openzeppelin/contracts/access/Ownable.sol\":2541:2558  _owner = newOwner */\n      0x0100\n      exp\n      dup2\n      sload\n      dup2\n      0xffffffffffffffffffffffffffffffffffffffff\n      mul\n      not\n      and\n      swap1\n      dup4\n      0xffffffffffffffffffffffffffffffffffffffff\n      and\n      mul\n      or\n      swap1\n      sstore\n      pop\n        /* \"@openzeppelin/contracts/access/Ownable.sol\":2604:2612  newOwner */\n      dup2\n        /* \"@openzeppelin/contracts/access/Ownable.sol\":2573:2613  OwnershipTransferred(oldOwner, newOwner) */\n      0xffffffffffffffffffffffffffffffffffffffff\n      and\n        /* \"@openzeppelin/contracts/access/Ownable.sol\":2594:2602  oldOwner */\n      dup2\n        /* \"@openzeppelin/contracts/access/Ownable.sol\":2573:2613  OwnershipTransferred(oldOwner, newOwner) */\n      0xffffffffffffffffffffffffffffffffffffffff\n      and\n      0x8be0079c531659141344cd1fd0a4f28419497f9722a3daafe3b4186f6b6457e0\n      mload(0x40)\n      mload(0x40)\n      dup1\n      swap2\n      sub\n      swap1\n      log3\n        /* \"@openzeppelin/contracts/access/Ownable.sol\":2496:2620  {... */\n      pop\n        /* \"@openzeppelin/contracts/access/Ownable.sol\":2433:2620  function _transferOwnership(address newOwner) internal virtual {... */\n      pop\n      jump\t// out\n        /* \"@openzeppelin/contracts/token/ERC20/ERC20.sol\":9111:9687  function _burn(address account, uint256 amount) internal virtual {... */\n    tag_134:\n        /* \"@openzeppelin/contracts/token/ERC20/ERC20.sol\":9213:9214  0 */\n      0x00\n        /* \"@openzeppelin/contracts/token/ERC20/ERC20.sol\":9194:9215  account != address(0) */\n      0xffffffffffffffffffffffffffffffffffffffff\n      and\n        /* \"@openzeppelin/contracts/token/ERC20/ERC20.sol\":9194:9201  account */\n      dup3\n        /* \"@openzeppelin/contracts/token/ERC20/ERC20.sol\":9194:9215  account != address(0) */\n      0xffffffffffffffffffffffffffffffffffffffff\n      and\n      eq\n      iszero\n        /* \"@openzeppelin/contracts/token/ERC20/ERC20.sol\":9186:9253  require(account != address(0), \"ERC20: burn from the zero address\") */\n      tag_202\n      jumpi\n      mload(0x40)\n      0x08c379a000000000000000000000000000000000000000000000000000000000\n      dup2\n      mstore\n      0x04\n      add\n      tag_203\n      swap1\n      tag_204\n      jump\t// in\n    tag_203:\n      mload(0x40)\n      dup1\n      swap2\n      sub\n      swap1\n      revert\n    tag_202:\n        /* \"@openzeppelin/contracts/token/ERC20/ERC20.sol\":9264:9313  _beforeTokenTransfer(account, address(0), amount) */\n      tag_205\n        /* \"@openzeppelin/contracts/token/ERC20/ERC20.sol\":9285:9292  account */\n      dup3\n        /* \"@openzeppelin/contracts/token/ERC20/ERC20.sol\":9302:9303  0 */\n      0x00\n        /* \"@openzeppelin/contracts/token/ERC20/ERC20.sol\":9306:9312  amount */\n      dup4\n        /* \"@openzeppelin/contracts/token/ERC20/ERC20.sol\":9264:9284  _beforeTokenTransfer */\n      tag_177\n        /* \"@openzeppelin/contracts/token/ERC20/ERC20.sol\":9264:9313  _beforeTokenTransfer(account, address(0), amount) */\n      jump\t// in\n    tag_205:\n        /* \"@openzeppelin/contracts/token/ERC20/ERC20.sol\":9324:9346  uint256 accountBalance */\n      0x00\n        /* \"@openzeppelin/contracts/token/ERC20/ERC20.sol\":9349:9358  _balances */\n      dup1\n        /* \"@openzeppelin/contracts/token/ERC20/ERC20.sol\":9349:9367  _balances[account] */\n      0x00\n        /* \"@openzeppelin/contracts/token/ERC20/ERC20.sol\":9359:9366  account */\n      dup5\n        /* \"@openzeppelin/contracts/token/ERC20/ERC20.sol\":9349:9367  _balances[account] */\n      0xffffffffffffffffffffffffffffffffffffffff\n      and\n      0xffffffffffffffffffffffffffffffffffffffff\n      and\n      dup2\n      mstore\n      0x20\n      add\n      swap1\n      dup2\n      mstore\n      0x20\n      add\n      0x00\n      keccak256\n      sload\n        /* \"@openzeppelin/contracts/token/ERC20/ERC20.sol\":9324:9367  uint256 accountBalance = _balances[account] */\n      swap1\n      pop\n        /* \"@openzeppelin/contracts/token/ERC20/ERC20.sol\":9403:9409  amount */\n      dup2\n        /* \"@openzeppelin/contracts/token/ERC20/ERC20.sol\":9385:9399  accountBalance */\n      dup2\n        /* \"@openzeppelin/contracts/token/ERC20/ERC20.sol\":9385:9409  accountBalance >= amount */\n      lt\n      iszero\n        /* \"@openzeppelin/contracts/token/ERC20/ERC20.sol\":9377:9448  require(accountBalance >= amount, \"ERC20: burn amount exceeds balance\") */\n      tag_206\n      jumpi\n      mload(0x40)\n      0x08c379a000000000000000000000000000000000000000000000000000000000\n      dup2\n      mstore\n      0x04\n      add\n      tag_207\n      swap1\n      tag_208\n      jump\t// in\n    tag_207:\n      mload(0x40)\n      dup1\n      swap2\n      sub\n      swap1\n      revert\n    tag_206:\n        /* \"@openzeppelin/contracts/token/ERC20/ERC20.sol\":9520:9526  amount */\n      dup2\n        /* \"@openzeppelin/contracts/token/ERC20/ERC20.sol\":9503:9517  accountBalance */\n      dup2\n        /* \"@openzeppelin/contracts/token/ERC20/ERC20.sol\":9503:9526  accountBalance - amount */\n      sub\n        /* \"@openzeppelin/contracts/token/ERC20/ERC20.sol\":9482:9491  _balances */\n      0x00\n        /* \"@openzeppelin/contracts/token/ERC20/ERC20.sol\":9482:9500  _balances[account] */\n      dup1\n        /* \"@openzeppelin/contracts/token/ERC20/ERC20.sol\":9492:9499  account */\n      dup6\n        /* \"@openzeppelin/contracts/token/ERC20/ERC20.sol\":9482:9500  _balances[account] */\n      0xffffffffffffffffffffffffffffffffffffffff\n      and\n      0xffffffffffffffffffffffffffffffffffffffff\n      and\n      dup2\n      mstore\n      0x20\n      add\n      swap1\n      dup2\n      mstore\n      0x20\n      add\n      0x00\n      keccak256\n        /* \"@openzeppelin/contracts/token/ERC20/ERC20.sol\":9482:9526  _balances[account] = accountBalance - amount */\n      dup2\n      swap1\n      sstore\n      pop\n        /* \"@openzeppelin/contracts/token/ERC20/ERC20.sol\":9562:9568  amount */\n      dup2\n        /* \"@openzeppelin/contracts/token/ERC20/ERC20.sol\":9546:9558  _totalSupply */\n      0x02\n      0x00\n        /* \"@openzeppelin/contracts/token/ERC20/ERC20.sol\":9546:9568  _totalSupply -= amount */\n      dup3\n      dup3\n      sload\n      tag_209\n      swap2\n      swap1\n      tag_210\n      jump\t// in\n    tag_209:\n      swap3\n      pop\n      pop\n      dup2\n      swap1\n      sstore\n      pop\n        /* \"@openzeppelin/contracts/token/ERC20/ERC20.sol\":9610:9611  0 */\n      0x00\n        /* \"@openzeppelin/contracts/token/ERC20/ERC20.sol\":9584:9621  Transfer(account, address(0), amount) */\n      0xffffffffffffffffffffffffffffffffffffffff\n      and\n        /* \"@openzeppelin/contracts/token/ERC20/ERC20.sol\":9593:9600  account */\n      dup4\n        /* \"@openzeppelin/contracts/token/ERC20/ERC20.sol\":9584:9621  Transfer(account, address(0), amount) */\n      0xffffffffffffffffffffffffffffffffffffffff\n      and\n      0xddf252ad1be2c89b69c2b068fc378daa952ba7f163c4a11628f55a4df523b3ef\n        /* \"@openzeppelin/contracts/token/ERC20/ERC20.sol\":9614:9620  amount */\n      dup5\n        /* \"@openzeppelin/contracts/token/ERC20/ERC20.sol\":9584:9621  Transfer(account, address(0), amount) */\n      mload(0x40)\n      tag_211\n      swap2\n      swap1\n      tag_35\n      jump\t// in\n    tag_211:\n      mload(0x40)\n      dup1\n      swap2\n      sub\n      swap1\n      log3\n        /* \"@openzeppelin/contracts/token/ERC20/ERC20.sol\":9632:9680  _afterTokenTransfer(account, address(0), amount) */\n      tag_212\n        /* \"@openzeppelin/contracts/token/ERC20/ERC20.sol\":9652:9659  account */\n      dup4\n        /* \"@openzeppelin/contracts/token/ERC20/ERC20.sol\":9669:9670  0 */\n      0x00\n        /* \"@openzeppelin/contracts/token/ERC20/ERC20.sol\":9673:9679  amount */\n      dup5\n        /* \"@openzeppelin/contracts/token/ERC20/ERC20.sol\":9632:9651  _afterTokenTransfer */\n      tag_184\n        /* \"@openzeppelin/contracts/token/ERC20/ERC20.sol\":9632:9680  _afterTokenTransfer(account, address(0), amount) */\n      jump\t// in\n    tag_212:\n        /* \"@openzeppelin/contracts/token/ERC20/ERC20.sol\":9176:9687  {... */\n      pop\n        /* \"@openzeppelin/contracts/token/ERC20/ERC20.sol\":9111:9687  function _burn(address account, uint256 amount) internal virtual {... */\n      pop\n      pop\n      jump\t// out\n        /* \"@openzeppelin/contracts/token/ERC20/ERC20.sol\":11786:11907  function _beforeTokenTransfer(... */\n    tag_177:\n      pop\n      pop\n      pop\n      jump\t// out\n        /* \"@openzeppelin/contracts/token/ERC20/ERC20.sol\":12495:12615  function _afterTokenTransfer(... */\n    tag_184:\n      pop\n      pop\n      pop\n      jump\t// out\n        /* \"#utility.yul\":7:106   */\n    tag_215:\n        /* \"#utility.yul\":59:65   */\n      0x00\n        /* \"#utility.yul\":93:98   */\n      dup2\n        /* \"#utility.yul\":87:99   */\n      mload\n        /* \"#utility.yul\":77:99   */\n      swap1\n      pop\n        /* \"#utility.yul\":7:106   */\n      swap2\n      swap1\n      pop\n      jump\t// out\n        /* \"#utility.yul\":112:281   */\n    tag_216:\n        /* \"#utility.yul\":196:207   */\n      0x00\n        /* \"#utility.yul\":230:236   */\n      dup3\n        /* \"#utility.yul\":225:228   */\n      dup3\n        /* \"#utility.yul\":218:237   */\n      mstore\n        /* \"#utility.yul\":270:274   */\n      0x20\n        /* \"#utility.yul\":265:268   */\n      dup3\n        /* \"#utility.yul\":261:275   */\n      add\n        /* \"#utility.yul\":246:275   */\n      swap1\n      pop\n        /* \"#utility.yul\":112:281   */\n      swap3\n      swap2\n      pop\n      pop\n      jump\t// out\n        /* \"#utility.yul\":287:594   */\n    tag_217:\n        /* \"#utility.yul\":355:356   */\n      0x00\n        /* \"#utility.yul\":365:478   */\n    tag_266:\n        /* \"#utility.yul\":379:385   */\n      dup4\n        /* \"#utility.yul\":376:377   */\n      dup2\n        /* \"#utility.yul\":373:386   */\n      lt\n        /* \"#utility.yul\":365:478   */\n      iszero\n      tag_268\n      jumpi\n        /* \"#utility.yul\":464:465   */\n      dup1\n        /* \"#utility.yul\":459:462   */\n      dup3\n        /* \"#utility.yul\":455:466   */\n      add\n        /* \"#utility.yul\":449:467   */\n      mload\n        /* \"#utility.yul\":445:446   */\n      dup2\n        /* \"#utility.yul\":440:443   */\n      dup5\n        /* \"#utility.yul\":436:447   */\n      add\n        /* \"#utility.yul\":429:468   */\n      mstore\n        /* \"#utility.yul\":401:403   */\n      0x20\n        /* \"#utility.yul\":398:399   */\n      dup2\n        /* \"#utility.yul\":394:404   */\n      add\n        /* \"#utility.yul\":389:404   */\n      swap1\n      pop\n        /* \"#utility.yul\":365:478   */\n      jump(tag_266)\n    tag_268:\n        /* \"#utility.yul\":496:502   */\n      dup4\n        /* \"#utility.yul\":493:494   */\n      dup2\n        /* \"#utility.yul\":490:503   */\n      gt\n        /* \"#utility.yul\":487:588   */\n      iszero\n      tag_269\n      jumpi\n        /* \"#utility.yul\":576:577   */\n      0x00\n        /* \"#utility.yul\":567:573   */\n      dup5\n        /* \"#utility.yul\":562:565   */\n      dup5\n        /* \"#utility.yul\":558:574   */\n      add\n        /* \"#utility.yul\":551:578   */\n      mstore\n        /* \"#utility.yul\":487:588   */\n    tag_269:\n        /* \"#utility.yul\":336:594   */\n      pop\n        /* \"#utility.yul\":287:594   */\n      pop\n      pop\n      pop\n      jump\t// out\n        /* \"#utility.yul\":600:702   */\n    tag_218:\n        /* \"#utility.yul\":641:647   */\n      0x00\n        /* \"#utility.yul\":692:694   */\n      0x1f\n        /* \"#utility.yul\":688:695   */\n      not\n        /* \"#utility.yul\":683:685   */\n      0x1f\n        /* \"#utility.yul\":676:681   */\n      dup4\n        /* \"#utility.yul\":672:686   */\n      add\n        /* \"#utility.yul\":668:696   */\n      and\n        /* \"#utility.yul\":658:696   */\n      swap1\n      pop\n        /* \"#utility.yul\":600:702   */\n      swap2\n      swap1\n      pop\n      jump\t// out\n        /* \"#utility.yul\":708:1072   */\n    tag_219:\n        /* \"#utility.yul\":796:799   */\n      0x00\n        /* \"#utility.yul\":824:863   */\n      tag_272\n        /* \"#utility.yul\":857:862   */\n      dup3\n        /* \"#utility.yul\":824:863   */\n      tag_215\n      jump\t// in\n    tag_272:\n        /* \"#utility.yul\":879:950   */\n      tag_273\n        /* \"#utility.yul\":943:949   */\n      dup2\n        /* \"#utility.yul\":938:941   */\n      dup6\n        /* \"#utility.yul\":879:950   */\n      tag_216\n      jump\t// in\n    tag_273:\n        /* \"#utility.yul\":872:950   */\n      swap4\n      pop\n        /* \"#utility.yul\":959:1011   */\n      tag_274\n        /* \"#utility.yul\":1004:1010   */\n      dup2\n        /* \"#utility.yul\":999:1002   */\n      dup6\n        /* \"#utility.yul\":992:996   */\n      0x20\n        /* \"#utility.yul\":985:990   */\n      dup7\n        /* \"#utility.yul\":981:997   */\n      add\n        /* \"#utility.yul\":959:1011   */\n      tag_217\n      jump\t// in\n    tag_274:\n        /* \"#utility.yul\":1036:1065   */\n      tag_275\n        /* \"#utility.yul\":1058:1064   */\n      dup2\n        /* \"#utility.yul\":1036:1065   */\n      tag_218\n      jump\t// in\n    tag_275:\n        /* \"#utility.yul\":1031:1034   */\n      dup5\n        /* \"#utility.yul\":1027:1066   */\n      add\n        /* \"#utility.yul\":1020:1066   */\n      swap2\n      pop\n        /* \"#utility.yul\":800:1072   */\n      pop\n        /* \"#utility.yul\":708:1072   */\n      swap3\n      swap2\n      pop\n      pop\n      jump\t// out\n        /* \"#utility.yul\":1078:1391   */\n    tag_25:\n        /* \"#utility.yul\":1191:1195   */\n      0x00\n        /* \"#utility.yul\":1229:1231   */\n      0x20\n        /* \"#utility.yul\":1218:1227   */\n      dup3\n        /* \"#utility.yul\":1214:1232   */\n      add\n        /* \"#utility.yul\":1206:1232   */\n      swap1\n      pop\n        /* \"#utility.yul\":1278:1287   */\n      dup2\n        /* \"#utility.yul\":1272:1276   */\n      dup2\n        /* \"#utility.yul\":1268:1288   */\n      sub\n        /* \"#utility.yul\":1264:1265   */\n      0x00\n        /* \"#utility.yul\":1253:1262   */\n      dup4\n        /* \"#utility.yul\":1249:1266   */\n      add\n        /* \"#utility.yul\":1242:1289   */\n      mstore\n        /* \"#utility.yul\":1306:1384   */\n      tag_277\n        /* \"#utility.yul\":1379:1383   */\n      dup2\n        /* \"#utility.yul\":1370:1376   */\n      dup5\n        /* \"#utility.yul\":1306:1384   */\n      tag_219\n      jump\t// in\n    tag_277:\n        /* \"#utility.yul\":1298:1384   */\n      swap1\n      pop\n        /* \"#utility.yul\":1078:1391   */\n      swap3\n      swap2\n      pop\n      pop\n      jump\t// out\n        /* \"#utility.yul\":1478:1595   */\n    tag_221:\n        /* \"#utility.yul\":1587:1588   */\n      0x00\n        /* \"#utility.yul\":1584:1585   */\n      dup1\n        /* \"#utility.yul\":1577:1589   */\n      revert\n        /* \"#utility.yul\":1724:1850   */\n    tag_223:\n        /* \"#utility.yul\":1761:1768   */\n      0x00\n        /* \"#utility.yul\":1801:1843   */\n      0xffffffffffffffffffffffffffffffffffffffff\n        /* \"#utility.yul\":1794:1799   */\n      dup3\n        /* \"#utility.yul\":1790:1844   */\n      and\n        /* \"#utility.yul\":1779:1844   */\n      swap1\n      pop\n        /* \"#utility.yul\":1724:1850   */\n      swap2\n      swap1\n      pop\n      jump\t// out\n        /* \"#utility.yul\":1856:1952   */\n    tag_224:\n        /* \"#utility.yul\":1893:1900   */\n      0x00\n        /* \"#utility.yul\":1922:1946   */\n      tag_283\n        /* \"#utility.yul\":1940:1945   */\n      dup3\n        /* \"#utility.yul\":1922:1946   */\n      tag_223\n      jump\t// in\n    tag_283:\n        /* \"#utility.yul\":1911:1946   */\n      swap1\n      pop\n        /* \"#utility.yul\":1856:1952   */\n      swap2\n      swap1\n      pop\n      jump\t// out\n        /* \"#utility.yul\":1958:2080   */\n    tag_225:\n        /* \"#utility.yul\":2031:2055   */\n      tag_285\n        /* \"#utility.yul\":2049:2054   */\n      dup2\n        /* \"#utility.yul\":2031:2055   */\n      tag_224\n      jump\t// in\n    tag_285:\n        /* \"#utility.yul\":2024:2029   */\n      dup2\n        /* \"#utility.yul\":2021:2056   */\n      eq\n        /* \"#utility.yul\":2011:2074   */\n      tag_286\n      jumpi\n        /* \"#utility.yul\":2070:2071   */\n      0x00\n        /* \"#utility.yul\":2067:2068   */\n      dup1\n        /* \"#utility.yul\":2060:2072   */\n      revert\n        /* \"#utility.yul\":2011:2074   */\n    tag_286:\n        /* \"#utility.yul\":1958:2080   */\n      pop\n      jump\t// out\n        /* \"#utility.yul\":2086:2225   */\n    tag_226:\n        /* \"#utility.yul\":2132:2137   */\n      0x00\n        /* \"#utility.yul\":2170:2176   */\n      dup2\n        /* \"#utility.yul\":2157:2177   */\n      calldataload\n        /* \"#utility.yul\":2148:2177   */\n      swap1\n      pop\n        /* \"#utility.yul\":2186:2219   */\n      tag_288\n        /* \"#utility.yul\":2213:2218   */\n      dup2\n        /* \"#utility.yul\":2186:2219   */\n      tag_225\n      jump\t// in\n    tag_288:\n        /* \"#utility.yul\":2086:2225   */\n      swap3\n      swap2\n      pop\n      pop\n      jump\t// out\n        /* \"#utility.yul\":2231:2308   */\n    tag_227:\n        /* \"#utility.yul\":2268:2275   */\n      0x00\n        /* \"#utility.yul\":2297:2302   */\n      dup2\n        /* \"#utility.yul\":2286:2302   */\n      swap1\n      pop\n        /* \"#utility.yul\":2231:2308   */\n      swap2\n      swap1\n      pop\n      jump\t// out\n        /* \"#utility.yul\":2314:2436   */\n    tag_228:\n        /* \"#utility.yul\":2387:2411   */\n      tag_291\n        /* \"#utility.yul\":2405:2410   */\n      dup2\n        /* \"#utility.yul\":2387:2411   */\n      tag_227\n      jump\t// in\n    tag_291:\n        /* \"#utility.yul\":2380:2385   */\n      dup2\n        /* \"#utility.yul\":2377:2412   */\n      eq\n        /* \"#utility.yul\":2367:2430   */\n      tag_292\n      jumpi\n        /* \"#utility.yul\":2426:2427   */\n      0x00\n        /* \"#utility.yul\":2423:2424   */\n      dup1\n        /* \"#utility.yul\":2416:2428   */\n      revert\n        /* \"#utility.yul\":2367:2430   */\n    tag_292:\n        /* \"#utility.yul\":2314:2436   */\n      pop\n      jump\t// out\n        /* \"#utility.yul\":2442:2581   */\n    tag_229:\n        /* \"#utility.yul\":2488:2493   */\n      0x00\n        /* \"#utility.yul\":2526:2532   */\n      dup2\n        /* \"#utility.yul\":2513:2533   */\n      calldataload\n        /* \"#utility.yul\":2504:2533   */\n      swap1\n      pop\n        /* \"#utility.yul\":2542:2575   */\n      tag_294\n        /* \"#utility.yul\":2569:2574   */\n      dup2\n        /* \"#utility.yul\":2542:2575   */\n      tag_228\n      jump\t// in\n    tag_294:\n        /* \"#utility.yul\":2442:2581   */\n      swap3\n      swap2\n      pop\n      pop\n      jump\t// out\n        /* \"#utility.yul\":2587:3061   */\n    tag_28:\n        /* \"#utility.yul\":2655:2661   */\n      0x00\n        /* \"#utility.yul\":2663:2669   */\n      dup1\n        /* \"#utility.yul\":2712:2714   */\n      0x40\n        /* \"#utility.yul\":2700:2709   */\n      dup4\n        /* \"#utility.yul\":2691:2698   */\n      dup6\n        /* \"#utility.yul\":2687:2710   */\n      sub\n        /* \"#utility.yul\":2683:2715   */\n      slt\n        /* \"#utility.yul\":2680:2799   */\n      iszero\n      tag_296\n      jumpi\n        /* \"#utility.yul\":2718:2797   */\n      tag_297\n      tag_221\n      jump\t// in\n    tag_297:\n        /* \"#utility.yul\":2680:2799   */\n    tag_296:\n        /* \"#utility.yul\":2838:2839   */\n      0x00\n        /* \"#utility.yul\":2863:2916   */\n      tag_298\n        /* \"#utility.yul\":2908:2915   */\n      dup6\n        /* \"#utility.yul\":2899:2905   */\n      dup3\n        /* \"#utility.yul\":2888:2897   */\n      dup7\n        /* \"#utility.yul\":2884:2906   */\n      add\n        /* \"#utility.yul\":2863:2916   */\n      tag_226\n      jump\t// in\n    tag_298:\n        /* \"#utility.yul\":2853:2916   */\n      swap3\n      pop\n        /* \"#utility.yul\":2809:2926   */\n      pop\n        /* \"#utility.yul\":2965:2967   */\n      0x20\n        /* \"#utility.yul\":2991:3044   */\n      tag_299\n        /* \"#utility.yul\":3036:3043   */\n      dup6\n        /* \"#utility.yul\":3027:3033   */\n      dup3\n        /* \"#utility.yul\":3016:3025   */\n      dup7\n        /* \"#utility.yul\":3012:3034   */\n      add\n        /* \"#utility.yul\":2991:3044   */\n      tag_229\n      jump\t// in\n    tag_299:\n        /* \"#utility.yul\":2981:3044   */\n      swap2\n      pop\n        /* \"#utility.yul\":2936:3054   */\n      pop\n        /* \"#utility.yul\":2587:3061   */\n      swap3\n      pop\n      swap3\n      swap1\n      pop\n      jump\t// out\n        /* \"#utility.yul\":3067:3157   */\n    tag_230:\n        /* \"#utility.yul\":3101:3108   */\n      0x00\n        /* \"#utility.yul\":3144:3149   */\n      dup2\n        /* \"#utility.yul\":3137:3150   */\n      iszero\n        /* \"#utility.yul\":3130:3151   */\n      iszero\n        /* \"#utility.yul\":3119:3151   */\n      swap1\n      pop\n        /* \"#utility.yul\":3067:3157   */\n      swap2\n      swap1\n      pop\n      jump\t// out\n        /* \"#utility.yul\":3163:3272   */\n    tag_231:\n        /* \"#utility.yul\":3244:3265   */\n      tag_302\n        /* \"#utility.yul\":3259:3264   */\n      dup2\n        /* \"#utility.yul\":3244:3265   */\n      tag_230\n      jump\t// in\n    tag_302:\n        /* \"#utility.yul\":3239:3242   */\n      dup3\n        /* \"#utility.yul\":3232:3266   */\n      mstore\n        /* \"#utility.yul\":3163:3272   */\n      pop\n      pop\n      jump\t// out\n        /* \"#utility.yul\":3278:3488   */\n    tag_31:\n        /* \"#utility.yul\":3365:3369   */\n      0x00\n        /* \"#utility.yul\":3403:3405   */\n      0x20\n        /* \"#utility.yul\":3392:3401   */\n      dup3\n        /* \"#utility.yul\":3388:3406   */\n      add\n        /* \"#utility.yul\":3380:3406   */\n      swap1\n      pop\n        /* \"#utility.yul\":3416:3481   */\n      tag_304\n        /* \"#utility.yul\":3478:3479   */\n      0x00\n        /* \"#utility.yul\":3467:3476   */\n      dup4\n        /* \"#utility.yul\":3463:3480   */\n      add\n        /* \"#utility.yul\":3454:3460   */\n      dup5\n        /* \"#utility.yul\":3416:3481   */\n      tag_231\n      jump\t// in\n    tag_304:\n        /* \"#utility.yul\":3278:3488   */\n      swap3\n      swap2\n      pop\n      pop\n      jump\t// out\n        /* \"#utility.yul\":3494:3612   */\n    tag_232:\n        /* \"#utility.yul\":3581:3605   */\n      tag_306\n        /* \"#utility.yul\":3599:3604   */\n      dup2\n        /* \"#utility.yul\":3581:3605   */\n      tag_227\n      jump\t// in\n    tag_306:\n        /* \"#utility.yul\":3576:3579   */\n      dup3\n        /* \"#utility.yul\":3569:3606   */\n      mstore\n        /* \"#utility.yul\":3494:3612   */\n      pop\n      pop\n      jump\t// out\n        /* \"#utility.yul\":3618:3840   */\n    tag_35:\n        /* \"#utility.yul\":3711:3715   */\n      0x00\n        /* \"#utility.yul\":3749:3751   */\n      0x20\n        /* \"#utility.yul\":3738:3747   */\n      dup3\n        /* \"#utility.yul\":3734:3752   */\n      add\n        /* \"#utility.yul\":3726:3752   */\n      swap1\n      pop\n        /* \"#utility.yul\":3762:3833   */\n      tag_308\n        /* \"#utility.yul\":3830:3831   */\n      0x00\n        /* \"#utility.yul\":3819:3828   */\n      dup4\n        /* \"#utility.yul\":3815:3832   */\n      add\n        /* \"#utility.yul\":3806:3812   */\n      dup5\n        /* \"#utility.yul\":3762:3833   */\n      tag_232\n      jump\t// in\n    tag_308:\n        /* \"#utility.yul\":3618:3840   */\n      swap3\n      swap2\n      pop\n      pop\n      jump\t// out\n        /* \"#utility.yul\":3846:4465   */\n    tag_38:\n        /* \"#utility.yul\":3923:3929   */\n      0x00\n        /* \"#utility.yul\":3931:3937   */\n      dup1\n        /* \"#utility.yul\":3939:3945   */\n      0x00\n        /* \"#utility.yul\":3988:3990   */\n      0x60\n        /* \"#utility.yul\":3976:3985   */\n      dup5\n        /* \"#utility.yul\":3967:3974   */\n      dup7\n        /* \"#utility.yul\":3963:3986   */\n      sub\n        /* \"#utility.yul\":3959:3991   */\n      slt\n        /* \"#utility.yul\":3956:4075   */\n      iszero\n      tag_310\n      jumpi\n        /* \"#utility.yul\":3994:4073   */\n      tag_311\n      tag_221\n      jump\t// in\n    tag_311:\n        /* \"#utility.yul\":3956:4075   */\n    tag_310:\n        /* \"#utility.yul\":4114:4115   */\n      0x00\n        /* \"#utility.yul\":4139:4192   */\n      tag_312\n        /* \"#utility.yul\":4184:4191   */\n      dup7\n        /* \"#utility.yul\":4175:4181   */\n      dup3\n        /* \"#utility.yul\":4164:4173   */\n      dup8\n        /* \"#utility.yul\":4160:4182   */\n      add\n        /* \"#utility.yul\":4139:4192   */\n      tag_226\n      jump\t// in\n    tag_312:\n        /* \"#utility.yul\":4129:4192   */\n      swap4\n      pop\n        /* \"#utility.yul\":4085:4202   */\n      pop\n        /* \"#utility.yul\":4241:4243   */\n      0x20\n        /* \"#utility.yul\":4267:4320   */\n      tag_313\n        /* \"#utility.yul\":4312:4319   */\n      dup7\n        /* \"#utility.yul\":4303:4309   */\n      dup3\n        /* \"#utility.yul\":4292:4301   */\n      dup8\n        /* \"#utility.yul\":4288:4310   */\n      add\n        /* \"#utility.yul\":4267:4320   */\n      tag_226\n      jump\t// in\n    tag_313:\n        /* \"#utility.yul\":4257:4320   */\n      swap3\n      pop\n        /* \"#utility.yul\":4212:4330   */\n      pop\n        /* \"#utility.yul\":4369:4371   */\n      0x40\n        /* \"#utility.yul\":4395:4448   */\n      tag_314\n        /* \"#utility.yul\":4440:4447   */\n      dup7\n        /* \"#utility.yul\":4431:4437   */\n      dup3\n        /* \"#utility.yul\":4420:4429   */\n      dup8\n        /* \"#utility.yul\":4416:4438   */\n      add\n        /* \"#utility.yul\":4395:4448   */\n      tag_229\n      jump\t// in\n    tag_314:\n        /* \"#utility.yul\":4385:4448   */\n      swap2\n      pop\n        /* \"#utility.yul\":4340:4458   */\n      pop\n        /* \"#utility.yul\":3846:4465   */\n      swap3\n      pop\n      swap3\n      pop\n      swap3\n      jump\t// out\n        /* \"#utility.yul\":4471:4557   */\n    tag_233:\n        /* \"#utility.yul\":4506:4513   */\n      0x00\n        /* \"#utility.yul\":4546:4550   */\n      0xff\n        /* \"#utility.yul\":4539:4544   */\n      dup3\n        /* \"#utility.yul\":4535:4551   */\n      and\n        /* \"#utility.yul\":4524:4551   */\n      swap1\n      pop\n        /* \"#utility.yul\":4471:4557   */\n      swap2\n      swap1\n      pop\n      jump\t// out\n        /* \"#utility.yul\":4563:4675   */\n    tag_234:\n        /* \"#utility.yul\":4646:4668   */\n      tag_317\n        /* \"#utility.yul\":4662:4667   */\n      dup2\n        /* \"#utility.yul\":4646:4668   */\n      tag_233\n      jump\t// in\n    tag_317:\n        /* \"#utility.yul\":4641:4644   */\n      dup3\n        /* \"#utility.yul\":4634:4669   */\n      mstore\n        /* \"#utility.yul\":4563:4675   */\n      pop\n      pop\n      jump\t// out\n        /* \"#utility.yul\":4681:4895   */\n    tag_44:\n        /* \"#utility.yul\":4770:4774   */\n      0x00\n        /* \"#utility.yul\":4808:4810   */\n      0x20\n        /* \"#utility.yul\":4797:4806   */\n      dup3\n        /* \"#utility.yul\":4793:4811   */\n      add\n        /* \"#utility.yul\":4785:4811   */\n      swap1\n      pop\n        /* \"#utility.yul\":4821:4888   */\n      tag_319\n        /* \"#utility.yul\":4885:4886   */\n      0x00\n        /* \"#utility.yul\":4874:4883   */\n      dup4\n        /* \"#utility.yul\":4870:4887   */\n      add\n        /* \"#utility.yul\":4861:4867   */\n      dup5\n        /* \"#utility.yul\":4821:4888   */\n      tag_234\n      jump\t// in\n    tag_319:\n        /* \"#utility.yul\":4681:4895   */\n      swap3\n      swap2\n      pop\n      pop\n      jump\t// out\n        /* \"#utility.yul\":4901:5230   */\n    tag_54:\n        /* \"#utility.yul\":4960:4966   */\n      0x00\n        /* \"#utility.yul\":5009:5011   */\n      0x20\n        /* \"#utility.yul\":4997:5006   */\n      dup3\n        /* \"#utility.yul\":4988:4995   */\n      dup5\n        /* \"#utility.yul\":4984:5007   */\n      sub\n        /* \"#utility.yul\":4980:5012   */\n      slt\n        /* \"#utility.yul\":4977:5096   */\n      iszero\n      tag_321\n      jumpi\n        /* \"#utility.yul\":5015:5094   */\n      tag_322\n      tag_221\n      jump\t// in\n    tag_322:\n        /* \"#utility.yul\":4977:5096   */\n    tag_321:\n        /* \"#utility.yul\":5135:5136   */\n      0x00\n        /* \"#utility.yul\":5160:5213   */\n      tag_323\n        /* \"#utility.yul\":5205:5212   */\n      dup5\n        /* \"#utility.yul\":5196:5202   */\n      dup3\n        /* \"#utility.yul\":5185:5194   */\n      dup6\n        /* \"#utility.yul\":5181:5203   */\n      add\n        /* \"#utility.yul\":5160:5213   */\n      tag_226\n      jump\t// in\n    tag_323:\n        /* \"#utility.yul\":5150:5213   */\n      swap2\n      pop\n        /* \"#utility.yul\":5106:5223   */\n      pop\n        /* \"#utility.yul\":4901:5230   */\n      swap3\n      swap2\n      pop\n      pop\n      jump\t// out\n        /* \"#utility.yul\":5236:5354   */\n    tag_235:\n        /* \"#utility.yul\":5323:5347   */\n      tag_325\n        /* \"#utility.yul\":5341:5346   */\n      dup2\n        /* \"#utility.yul\":5323:5347   */\n      tag_224\n      jump\t// in\n    tag_325:\n        /* \"#utility.yul\":5318:5321   */\n      dup3\n        /* \"#utility.yul\":5311:5348   */\n      mstore\n        /* \"#utility.yul\":5236:5354   */\n      pop\n      pop\n      jump\t// out\n        /* \"#utility.yul\":5360:5582   */\n    tag_62:\n        /* \"#utility.yul\":5453:5457   */\n      0x00\n        /* \"#utility.yul\":5491:5493   */\n      0x20\n        /* \"#utility.yul\":5480:5489   */\n      dup3\n        /* \"#utility.yul\":5476:5494   */\n      add\n        /* \"#utility.yul\":5468:5494   */\n      swap1\n      pop\n        /* \"#utility.yul\":5504:5575   */\n      tag_327\n        /* \"#utility.yul\":5572:5573   */\n      0x00\n        /* \"#utility.yul\":5561:5570   */\n      dup4\n        /* \"#utility.yul\":5557:5574   */\n      add\n        /* \"#utility.yul\":5548:5554   */\n      dup5\n        /* \"#utility.yul\":5504:5575   */\n      tag_235\n      jump\t// in\n    tag_327:\n        /* \"#utility.yul\":5360:5582   */\n      swap3\n      swap2\n      pop\n      pop\n      jump\t// out\n        /* \"#utility.yul\":5588:6062   */\n    tag_79:\n        /* \"#utility.yul\":5656:5662   */\n      0x00\n        /* \"#utility.yul\":5664:5670   */\n      dup1\n        /* \"#utility.yul\":5713:5715   */\n      0x40\n        /* \"#utility.yul\":5701:5710   */\n      dup4\n        /* \"#utility.yul\":5692:5699   */\n      dup6\n        /* \"#utility.yul\":5688:5711   */\n      sub\n        /* \"#utility.yul\":5684:5716   */\n      slt\n        /* \"#utility.yul\":5681:5800   */\n      iszero\n      tag_329\n      jumpi\n        /* \"#utility.yul\":5719:5798   */\n      tag_330\n      tag_221\n      jump\t// in\n    tag_330:\n        /* \"#utility.yul\":5681:5800   */\n    tag_329:\n        /* \"#utility.yul\":5839:5840   */\n      0x00\n        /* \"#utility.yul\":5864:5917   */\n      tag_331\n        /* \"#utility.yul\":5909:5916   */\n      dup6\n        /* \"#utility.yul\":5900:5906   */\n      dup3\n        /* \"#utility.yul\":5889:5898   */\n      dup7\n        /* \"#utility.yul\":5885:5907   */\n      add\n        /* \"#utility.yul\":5864:5917   */\n      tag_226\n      jump\t// in\n    tag_331:\n        /* \"#utility.yul\":5854:5917   */\n      swap3\n      pop\n        /* \"#utility.yul\":5810:5927   */\n      pop\n        /* \"#utility.yul\":5966:5968   */\n      0x20\n        /* \"#utility.yul\":5992:6045   */\n      tag_332\n        /* \"#utility.yul\":6037:6044   */\n      dup6\n        /* \"#utility.yul\":6028:6034   */\n      dup3\n        /* \"#utility.yul\":6017:6026   */\n      dup7\n        /* \"#utility.yul\":6013:6035   */\n      add\n        /* \"#utility.yul\":5992:6045   */\n      tag_226\n      jump\t// in\n    tag_332:\n        /* \"#utility.yul\":5982:6045   */\n      swap2\n      pop\n        /* \"#utility.yul\":5937:6055   */\n      pop\n        /* \"#utility.yul\":5588:6062   */\n      swap3\n      pop\n      swap3\n      swap1\n      pop\n      jump\t// out\n        /* \"#utility.yul\":6068:6248   */\n    tag_236:\n        /* \"#utility.yul\":6116:6193   */\n      0x4e487b7100000000000000000000000000000000000000000000000000000000\n        /* \"#utility.yul\":6113:6114   */\n      0x00\n        /* \"#utility.yul\":6106:6194   */\n      mstore\n        /* \"#utility.yul\":6213:6217   */\n      0x22\n        /* \"#utility.yul\":6210:6211   */\n      0x04\n        /* \"#utility.yul\":6203:6218   */\n      mstore\n        /* \"#utility.yul\":6237:6241   */\n      0x24\n        /* \"#utility.yul\":6234:6235   */\n      0x00\n        /* \"#utility.yul\":6227:6242   */\n      revert\n        /* \"#utility.yul\":6254:6574   */\n    tag_87:\n        /* \"#utility.yul\":6298:6304   */\n      0x00\n        /* \"#utility.yul\":6335:6336   */\n      0x02\n        /* \"#utility.yul\":6329:6333   */\n      dup3\n        /* \"#utility.yul\":6325:6337   */\n      div\n        /* \"#utility.yul\":6315:6337   */\n      swap1\n      pop\n        /* \"#utility.yul\":6382:6383   */\n      0x01\n        /* \"#utility.yul\":6376:6380   */\n      dup3\n        /* \"#utility.yul\":6372:6384   */\n      and\n        /* \"#utility.yul\":6403:6421   */\n      dup1\n        /* \"#utility.yul\":6393:6474   */\n      tag_335\n      jumpi\n        /* \"#utility.yul\":6459:6463   */\n      0x7f\n        /* \"#utility.yul\":6451:6457   */\n      dup3\n        /* \"#utility.yul\":6447:6464   */\n      and\n        /* \"#utility.yul\":6437:6464   */\n      swap2\n      pop\n        /* \"#utility.yul\":6393:6474   */\n    tag_335:\n        /* \"#utility.yul\":6521:6523   */\n      0x20\n        /* \"#utility.yul\":6513:6519   */\n      dup3\n        /* \"#utility.yul\":6510:6524   */\n      lt\n        /* \"#utility.yul\":6490:6508   */\n      dup2\n        /* \"#utility.yul\":6487:6525   */\n      eq\n        /* \"#utility.yul\":6484:6568   */\n      iszero\n      tag_336\n      jumpi\n        /* \"#utility.yul\":6540:6558   */\n      tag_337\n      tag_236\n      jump\t// in\n    tag_337:\n        /* \"#utility.yul\":6484:6568   */\n    tag_336:\n        /* \"#utility.yul\":6305:6574   */\n      pop\n        /* \"#utility.yul\":6254:6574   */\n      swap2\n      swap1\n      pop\n      jump\t// out\n        /* \"#utility.yul\":6580:6760   */\n    tag_237:\n        /* \"#utility.yul\":6628:6705   */\n      0x4e487b7100000000000000000000000000000000000000000000000000000000\n        /* \"#utility.yul\":6625:6626   */\n      0x00\n        /* \"#utility.yul\":6618:6706   */\n      mstore\n        /* \"#utility.yul\":6725:6729   */\n      0x11\n        /* \"#utility.yul\":6722:6723   */\n      0x04\n        /* \"#utility.yul\":6715:6730   */\n      mstore\n        /* \"#utility.yul\":6749:6753   */\n      0x24\n        /* \"#utility.yul\":6746:6747   */\n      0x00\n        /* \"#utility.yul\":6739:6754   */\n      revert\n        /* \"#utility.yul\":6766:7071   */\n    tag_110:\n        /* \"#utility.yul\":6806:6809   */\n      0x00\n        /* \"#utility.yul\":6825:6845   */\n      tag_340\n        /* \"#utility.yul\":6843:6844   */\n      dup3\n        /* \"#utility.yul\":6825:6845   */\n      tag_227\n      jump\t// in\n    tag_340:\n        /* \"#utility.yul\":6820:6845   */\n      swap2\n      pop\n        /* \"#utility.yul\":6859:6879   */\n      tag_341\n        /* \"#utility.yul\":6877:6878   */\n      dup4\n        /* \"#utility.yul\":6859:6879   */\n      tag_227\n      jump\t// in\n    tag_341:\n        /* \"#utility.yul\":6854:6879   */\n      swap3\n      pop\n        /* \"#utility.yul\":7013:7014   */\n      dup3\n        /* \"#utility.yul\":6945:7011   */\n      0xffffffffffffffffffffffffffffffffffffffffffffffffffffffffffffffff\n        /* \"#utility.yul\":6941:7015   */\n      sub\n        /* \"#utility.yul\":6938:6939   */\n      dup3\n        /* \"#utility.yul\":6935:7016   */\n      gt\n        /* \"#utility.yul\":6932:7039   */\n      iszero\n      tag_342\n      jumpi\n        /* \"#utility.yul\":7019:7037   */\n      tag_343\n      tag_237\n      jump\t// in\n    tag_343:\n        /* \"#utility.yul\":6932:7039   */\n    tag_342:\n        /* \"#utility.yul\":7063:7064   */\n      dup3\n        /* \"#utility.yul\":7060:7061   */\n      dup3\n        /* \"#utility.yul\":7056:7065   */\n      add\n        /* \"#utility.yul\":7049:7065   */\n      swap1\n      pop\n        /* \"#utility.yul\":6766:7071   */\n      swap3\n      swap2\n      pop\n      pop\n      jump\t// out\n        /* \"#utility.yul\":7077:7301   */\n    tag_238:\n        /* \"#utility.yul\":7217:7251   */\n      0x45524332303a2064656372656173656420616c6c6f77616e63652062656c6f77\n        /* \"#utility.yul\":7213:7214   */\n      0x00\n        /* \"#utility.yul\":7205:7211   */\n      dup3\n        /* \"#utility.yul\":7201:7215   */\n      add\n        /* \"#utility.yul\":7194:7252   */\n      mstore\n        /* \"#utility.yul\":7286:7293   */\n      0x207a65726f000000000000000000000000000000000000000000000000000000\n        /* \"#utility.yul\":7281:7283   */\n      0x20\n        /* \"#utility.yul\":7273:7279   */\n      dup3\n        /* \"#utility.yul\":7269:7284   */\n      add\n        /* \"#utility.yul\":7262:7294   */\n      mstore\n        /* \"#utility.yul\":7077:7301   */\n      pop\n      jump\t// out\n        /* \"#utility.yul\":7307:7673   */\n    tag_239:\n        /* \"#utility.yul\":7449:7452   */\n      0x00\n        /* \"#utility.yul\":7470:7537   */\n      tag_346\n        /* \"#utility.yul\":7534:7536   */\n      0x25\n        /* \"#utility.yul\":7529:7532   */\n      dup4\n        /* \"#utility.yul\":7470:7537   */\n      tag_216\n      jump\t// in\n    tag_346:\n        /* \"#utility.yul\":7463:7537   */\n      swap2\n      pop\n        /* \"#utility.yul\":7546:7639   */\n      tag_347\n        /* \"#utility.yul\":7635:7638   */\n      dup3\n        /* \"#utility.yul\":7546:7639   */\n      tag_238\n      jump\t// in\n    tag_347:\n        /* \"#utility.yul\":7664:7666   */\n      0x40\n        /* \"#utility.yul\":7659:7662   */\n      dup3\n        /* \"#utility.yul\":7655:7667   */\n      add\n        /* \"#utility.yul\":7648:7667   */\n      swap1\n      pop\n        /* \"#utility.yul\":7307:7673   */\n      swap2\n      swap1\n      pop\n      jump\t// out\n        /* \"#utility.yul\":7679:8098   */\n    tag_140:\n        /* \"#utility.yul\":7845:7849   */\n      0x00\n        /* \"#utility.yul\":7883:7885   */\n      0x20\n        /* \"#utility.yul\":7872:7881   */\n      dup3\n        /* \"#utility.yul\":7868:7886   */\n      add\n        /* \"#utility.yul\":7860:7886   */\n      swap1\n      pop\n        /* \"#utility.yul\":7932:7941   */\n      dup2\n        /* \"#utility.yul\":7926:7930   */\n      dup2\n        /* \"#utility.yul\":7922:7942   */\n      sub\n        /* \"#utility.yul\":7918:7919   */\n      0x00\n        /* \"#utility.yul\":7907:7916   */\n      dup4\n        /* \"#utility.yul\":7903:7920   */\n      add\n        /* \"#utility.yul\":7896:7943   */\n      mstore\n        /* \"#utility.yul\":7960:8091   */\n      tag_349\n        /* \"#utility.yul\":8086:8090   */\n      dup2\n        /* \"#utility.yul\":7960:8091   */\n      tag_239\n      jump\t// in\n    tag_349:\n        /* \"#utility.yul\":7952:8091   */\n      swap1\n      pop\n        /* \"#utility.yul\":7679:8098   */\n      swap2\n      swap1\n      pop\n      jump\t// out\n        /* \"#utility.yul\":8104:8329   */\n    tag_240:\n        /* \"#utility.yul\":8244:8278   */\n      0x4f776e61626c653a206e6577206f776e657220697320746865207a65726f2061\n        /* \"#utility.yul\":8240:8241   */\n      0x00\n        /* \"#utility.yul\":8232:8238   */\n      dup3\n        /* \"#utility.yul\":8228:8242   */\n      add\n        /* \"#utility.yul\":8221:8279   */\n      mstore\n        /* \"#utility.yul\":8313:8321   */\n      0x6464726573730000000000000000000000000000000000000000000000000000\n        /* \"#utility.yul\":8308:8310   */\n      0x20\n        /* \"#utility.yul\":8300:8306   */\n      dup3\n        /* \"#utility.yul\":8296:8311   */\n      add\n        /* \"#utility.yul\":8289:8322   */\n      mstore\n        /* \"#utility.yul\":8104:8329   */\n      pop\n      jump\t// out\n        /* \"#utility.yul\":8335:8701   */\n    tag_241:\n        /* \"#utility.yul\":8477:8480   */\n      0x00\n        /* \"#utility.yul\":8498:8565   */\n      tag_352\n        /* \"#utility.yul\":8562:8564   */\n      0x26\n        /* \"#utility.yul\":8557:8560   */\n      dup4\n        /* \"#utility.yul\":8498:8565   */\n      tag_216\n      jump\t// in\n    tag_352:\n        /* \"#utility.yul\":8491:8565   */\n      swap2\n      pop\n        /* \"#utility.yul\":8574:8667   */\n      tag_353\n        /* \"#utility.yul\":8663:8666   */\n      dup3\n        /* \"#utility.yul\":8574:8667   */\n      tag_240\n      jump\t// in\n    tag_353:\n        /* \"#utility.yul\":8692:8694   */\n      0x40\n        /* \"#utility.yul\":8687:8690   */\n      dup3\n        /* \"#utility.yul\":8683:8695   */\n      add\n        /* \"#utility.yul\":8676:8695   */\n      swap1\n      pop\n        /* \"#utility.yul\":8335:8701   */\n      swap2\n      swap1\n      pop\n      jump\t// out\n        /* \"#utility.yul\":8707:9126   */\n    tag_151:\n        /* \"#utility.yul\":8873:8877   */\n      0x00\n        /* \"#utility.yul\":8911:8913   */\n      0x20\n        /* \"#utility.yul\":8900:8909   */\n      dup3\n        /* \"#utility.yul\":8896:8914   */\n      add\n        /* \"#utility.yul\":8888:8914   */\n      swap1\n      pop\n        /* \"#utility.yul\":8960:8969   */\n      dup2\n        /* \"#utility.yul\":8954:8958   */\n      dup2\n        /* \"#utility.yul\":8950:8970   */\n      sub\n        /* \"#utility.yul\":8946:8947   */\n      0x00\n        /* \"#utility.yul\":8935:8944   */\n      dup4\n        /* \"#utility.yul\":8931:8948   */\n      add\n        /* \"#utility.yul\":8924:8971   */\n      mstore\n        /* \"#utility.yul\":8988:9119   */\n      tag_355\n        /* \"#utility.yul\":9114:9118   */\n      dup2\n        /* \"#utility.yul\":8988:9119   */\n      tag_241\n      jump\t// in\n    tag_355:\n        /* \"#utility.yul\":8980:9119   */\n      swap1\n      pop\n        /* \"#utility.yul\":8707:9126   */\n      swap2\n      swap1\n      pop\n      jump\t// out\n        /* \"#utility.yul\":9132:9355   */\n    tag_242:\n        /* \"#utility.yul\":9272:9306   */\n      0x45524332303a20617070726f76652066726f6d20746865207a65726f20616464\n        /* \"#utility.yul\":9268:9269   */\n      0x00\n        /* \"#utility.yul\":9260:9266   */\n      dup3\n        /* \"#utility.yul\":9256:9270   */\n      add\n        /* \"#utility.yul\":9249:9307   */\n      mstore\n        /* \"#utility.yul\":9341:9347   */\n      0x7265737300000000000000000000000000000000000000000000000000000000\n        /* \"#utility.yul\":9336:9338   */\n      0x20\n        /* \"#utility.yul\":9328:9334   */\n      dup3\n        /* \"#utility.yul\":9324:9339   */\n      add\n        /* \"#utility.yul\":9317:9348   */\n      mstore\n        /* \"#utility.yul\":9132:9355   */\n      pop\n      jump\t// out\n        /* \"#utility.yul\":9361:9727   */\n    tag_243:\n        /* \"#utility.yul\":9503:9506   */\n      0x00\n        /* \"#utility.yul\":9524:9591   */\n      tag_358\n        /* \"#utility.yul\":9588:9590   */\n      0x24\n        /* \"#utility.yul\":9583:9586   */\n      dup4\n        /* \"#utility.yul\":9524:9591   */\n      tag_216\n      jump\t// in\n    tag_358:\n        /* \"#utility.yul\":9517:9591   */\n      swap2\n      pop\n        /* \"#utility.yul\":9600:9693   */\n      tag_359\n        /* \"#utility.yul\":9689:9692   */\n      dup3\n        /* \"#utility.yul\":9600:9693   */\n      tag_242\n      jump\t// in\n    tag_359:\n        /* \"#utility.yul\":9718:9720   */\n      0x40\n        /* \"#utility.yul\":9713:9716   */\n      dup3\n        /* \"#utility.yul\":9709:9721   */\n      add\n        /* \"#utility.yul\":9702:9721   */\n      swap1\n      pop\n        /* \"#utility.yul\":9361:9727   */\n      swap2\n      swap1\n      pop\n      jump\t// out\n        /* \"#utility.yul\":9733:10152   */\n    tag_157:\n        /* \"#utility.yul\":9899:9903   */\n      0x00\n        /* \"#utility.yul\":9937:9939   */\n      0x20\n        /* \"#utility.yul\":9926:9935   */\n      dup3\n        /* \"#utility.yul\":9922:9940   */\n      add\n        /* \"#utility.yul\":9914:9940   */\n      swap1\n      pop\n        /* \"#utility.yul\":9986:9995   */\n      dup2\n        /* \"#utility.yul\":9980:9984   */\n      dup2\n        /* \"#utility.yul\":9976:9996   */\n      sub\n        /* \"#utility.yul\":9972:9973   */\n      0x00\n        /* \"#utility.yul\":9961:9970   */\n      dup4\n        /* \"#utility.yul\":9957:9974   */\n      add\n        /* \"#utility.yul\":9950:9997   */\n      mstore\n        /* \"#utility.yul\":10014:10145   */\n      tag_361\n        /* \"#utility.yul\":10140:10144   */\n      dup2\n        /* \"#utility.yul\":10014:10145   */\n      tag_243\n      jump\t// in\n    tag_361:\n        /* \"#utility.yul\":10006:10145   */\n      swap1\n      pop\n        /* \"#utility.yul\":9733:10152   */\n      swap2\n      swap1\n      pop\n      jump\t// out\n        /* \"#utility.yul\":10158:10379   */\n    tag_244:\n        /* \"#utility.yul\":10298:10332   */\n      0x45524332303a20617070726f766520746f20746865207a65726f206164647265\n        /* \"#utility.yul\":10294:10295   */\n      0x00\n        /* \"#utility.yul\":10286:10292   */\n      dup3\n        /* \"#utility.yul\":10282:10296   */\n      add\n        /* \"#utility.yul\":10275:10333   */\n      mstore\n        /* \"#utility.yul\":10367:10371   */\n      0x7373000000000000000000000000000000000000000000000000000000000000\n        /* \"#utility.yul\":10362:10364   */\n      0x20\n        /* \"#utility.yul\":10354:10360   */\n      dup3\n        /* \"#utility.yul\":10350:10365   */\n      add\n        /* \"#utility.yul\":10343:10372   */\n      mstore\n        /* \"#utility.yul\":10158:10379   */\n      pop\n      jump\t// out\n        /* \"#utility.yul\":10385:10751   */\n    tag_245:\n        /* \"#utility.yul\":10527:10530   */\n      0x00\n        /* \"#utility.yul\":10548:10615   */\n      tag_364\n        /* \"#utility.yul\":10612:10614   */\n      0x22\n        /* \"#utility.yul\":10607:10610   */\n      dup4\n        /* \"#utility.yul\":10548:10615   */\n      tag_216\n      jump\t// in\n    tag_364:\n        /* \"#utility.yul\":10541:10615   */\n      swap2\n      pop\n        /* \"#utility.yul\":10624:10717   */\n      tag_365\n        /* \"#utility.yul\":10713:10716   */\n      dup3\n        /* \"#utility.yul\":10624:10717   */\n      tag_244\n      jump\t// in\n    tag_365:\n        /* \"#utility.yul\":10742:10744   */\n      0x40\n        /* \"#utility.yul\":10737:10740   */\n      dup3\n        /* \"#utility.yul\":10733:10745   */\n      add\n        /* \"#utility.yul\":10726:10745   */\n      swap1\n      pop\n        /* \"#utility.yul\":10385:10751   */\n      swap2\n      swap1\n      pop\n      jump\t// out\n        /* \"#utility.yul\":10757:11176   */\n    tag_160:\n        /* \"#utility.yul\":10923:10927   */\n      0x00\n        /* \"#utility.yul\":10961:10963   */\n      0x20\n        /* \"#utility.yul\":10950:10959   */\n      dup3\n        /* \"#utility.yul\":10946:10964   */\n      add\n        /* \"#utility.yul\":10938:10964   */\n      swap1\n      pop\n        /* \"#utility.yul\":11010:11019   */\n      dup2\n        /* \"#utility.yul\":11004:11008   */\n      dup2\n        /* \"#utility.yul\":11000:11020   */\n      sub\n        /* \"#utility.yul\":10996:10997   */\n      0x00\n        /* \"#utility.yul\":10985:10994   */\n      dup4\n        /* \"#utility.yul\":10981:10998   */\n      add\n        /* \"#utility.yul\":10974:11021   */\n      mstore\n        /* \"#utility.yul\":11038:11169   */\n      tag_367\n        /* \"#utility.yul\":11164:11168   */\n      dup2\n        /* \"#utility.yul\":11038:11169   */\n      tag_245\n      jump\t// in\n    tag_367:\n        /* \"#utility.yul\":11030:11169   */\n      swap1\n      pop\n        /* \"#utility.yul\":10757:11176   */\n      swap2\n      swap1\n      pop\n      jump\t// out\n        /* \"#utility.yul\":11182:11361   */\n    tag_246:\n        /* \"#utility.yul\":11322:11353   */\n      0x45524332303a20696e73756666696369656e7420616c6c6f77616e6365000000\n        /* \"#utility.yul\":11318:11319   */\n      0x00\n        /* \"#utility.yul\":11310:11316   */\n      dup3\n        /* \"#utility.yul\":11306:11320   */\n      add\n        /* \"#utility.yul\":11299:11354   */\n      mstore\n        /* \"#utility.yul\":11182:11361   */\n      pop\n      jump\t// out\n        /* \"#utility.yul\":11367:11733   */\n    tag_247:\n        /* \"#utility.yul\":11509:11512   */\n      0x00\n        /* \"#utility.yul\":11530:11597   */\n      tag_370\n        /* \"#utility.yul\":11594:11596   */\n      0x1d\n        /* \"#utility.yul\":11589:11592   */\n      dup4\n        /* \"#utility.yul\":11530:11597   */\n      tag_216\n      jump\t// in\n    tag_370:\n        /* \"#utility.yul\":11523:11597   */\n      swap2\n      pop\n        /* \"#utility.yul\":11606:11699   */\n      tag_371\n        /* \"#utility.yul\":11695:11698   */\n      dup3\n        /* \"#utility.yul\":11606:11699   */\n      tag_246\n      jump\t// in\n    tag_371:\n        /* \"#utility.yul\":11724:11726   */\n      0x20\n        /* \"#utility.yul\":11719:11722   */\n      dup3\n        /* \"#utility.yul\":11715:11727   */\n      add\n        /* \"#utility.yul\":11708:11727   */\n      swap1\n      pop\n        /* \"#utility.yul\":11367:11733   */\n      swap2\n      swap1\n      pop\n      jump\t// out\n        /* \"#utility.yul\":11739:12158   */\n    tag_167:\n        /* \"#utility.yul\":11905:11909   */\n      0x00\n        /* \"#utility.yul\":11943:11945   */\n      0x20\n        /* \"#utility.yul\":11932:11941   */\n      dup3\n        /* \"#utility.yul\":11928:11946   */\n      add\n        /* \"#utility.yul\":11920:11946   */\n      swap1\n      pop\n        /* \"#utility.yul\":11992:12001   */\n      dup2\n        /* \"#utility.yul\":11986:11990   */\n      dup2\n        /* \"#utility.yul\":11982:12002   */\n      sub\n        /* \"#utility.yul\":11978:11979   */\n      0x00\n        /* \"#utility.yul\":11967:11976   */\n      dup4\n        /* \"#utility.yul\":11963:11980   */\n      add\n        /* \"#utility.yul\":11956:12003   */\n      mstore\n        /* \"#utility.yul\":12020:12151   */\n      tag_373\n        /* \"#utility.yul\":12146:12150   */\n      dup2\n        /* \"#utility.yul\":12020:12151   */\n      tag_247\n      jump\t// in\n    tag_373:\n        /* \"#utility.yul\":12012:12151   */\n      swap1\n      pop\n        /* \"#utility.yul\":11739:12158   */\n      swap2\n      swap1\n      pop\n      jump\t// out\n        /* \"#utility.yul\":12164:12388   */\n    tag_248:\n        /* \"#utility.yul\":12304:12338   */\n      0x45524332303a207472616e736665722066726f6d20746865207a65726f206164\n        /* \"#utility.yul\":12300:12301   */\n      0x00\n        /* \"#utility.yul\":12292:12298   */\n      dup3\n        /* \"#utility.yul\":12288:12302   */\n      add\n        /* \"#utility.yul\":12281:12339   */\n      mstore\n        /* \"#utility.yul\":12373:12380   */\n      0x6472657373000000000000000000000000000000000000000000000000000000\n        /* \"#utility.yul\":12368:12370   */\n      0x20\n        /* \"#utility.yul\":12360:12366   */\n      dup3\n        /* \"#utility.yul\":12356:12371   */\n      add\n        /* \"#utility.yul\":12349:12381   */\n      mstore\n        /* \"#utility.yul\":12164:12388   */\n      pop\n      jump\t// out\n        /* \"#utility.yul\":12394:12760   */\n    tag_249:\n        /* \"#utility.yul\":12536:12539   */\n      0x00\n        /* \"#utility.yul\":12557:12624   */\n      tag_376\n        /* \"#utility.yul\":12621:12623   */\n      0x25\n        /* \"#utility.yul\":12616:12619   */\n      dup4\n        /* \"#utility.yul\":12557:12624   */\n      tag_216\n      jump\t// in\n    tag_376:\n        /* \"#utility.yul\":12550:12624   */\n      swap2\n      pop\n        /* \"#utility.yul\":12633:12726   */\n      tag_377\n        /* \"#utility.yul\":12722:12725   */\n      dup3\n        /* \"#utility.yul\":12633:12726   */\n      tag_248\n      jump\t// in\n    tag_377:\n        /* \"#utility.yul\":12751:12753   */\n      0x40\n        /* \"#utility.yul\":12746:12749   */\n      dup3\n        /* \"#utility.yul\":12742:12754   */\n      add\n        /* \"#utility.yul\":12735:12754   */\n      swap1\n      pop\n        /* \"#utility.yul\":12394:12760   */\n      swap2\n      swap1\n      pop\n      jump\t// out\n        /* \"#utility.yul\":12766:13185   */\n    tag_172:\n        /* \"#utility.yul\":12932:12936   */\n      0x00\n        /* \"#utility.yul\":12970:12972   */\n      0x20\n        /* \"#utility.yul\":12959:12968   */\n      dup3\n        /* \"#utility.yul\":12955:12973   */\n      add\n        /* \"#utility.yul\":12947:12973   */\n      swap1\n      pop\n        /* \"#utility.yul\":13019:13028   */\n      dup2\n        /* \"#utility.yul\":13013:13017   */\n      dup2\n        /* \"#utility.yul\":13009:13029   */\n      sub\n        /* \"#utility.yul\":13005:13006   */\n      0x00\n        /* \"#utility.yul\":12994:13003   */\n      dup4\n        /* \"#utility.yul\":12990:13007   */\n      add\n        /* \"#utility.yul\":12983:13030   */\n      mstore\n        /* \"#utility.yul\":13047:13178   */\n      tag_379\n        /* \"#utility.yul\":13173:13177   */\n      dup2\n        /* \"#utility.yul\":13047:13178   */\n      tag_249\n      jump\t// in\n    tag_379:\n        /* \"#utility.yul\":13039:13178   */\n      swap1\n      pop\n        /* \"#utility.yul\":12766:13185   */\n      swap2\n      swap1\n      pop\n      jump\t// out\n        /* \"#utility.yul\":13191:13413   */\n    tag_250:\n        /* \"#utility.yul\":13331:13365   */\n      0x45524332303a207472616e7366657220746f20746865207a65726f2061646472\n        /* \"#utility.yul\":13327:13328   */\n      0x00\n        /* \"#utility.yul\":13319:13325   */\n      dup3\n        /* \"#utility.yul\":13315:13329   */\n      add\n        /* \"#utility.yul\":13308:13366   */\n      mstore\n        /* \"#utility.yul\":13400:13405   */\n      0x6573730000000000000000000000000000000000000000000000000000000000\n        /* \"#utility.yul\":13395:13397   */\n      0x20\n        /* \"#utility.yul\":13387:13393   */\n      dup3\n        /* \"#utility.yul\":13383:13398   */\n      add\n        /* \"#utility.yul\":13376:13406   */\n      mstore\n        /* \"#utility.yul\":13191:13413   */\n      pop\n      jump\t// out\n        /* \"#utility.yul\":13419:13785   */\n    tag_251:\n        /* \"#utility.yul\":13561:13564   */\n      0x00\n        /* \"#utility.yul\":13582:13649   */\n      tag_382\n        /* \"#utility.yul\":13646:13648   */\n      0x23\n        /* \"#utility.yul\":13641:13644   */\n      dup4\n        /* \"#utility.yul\":13582:13649   */\n      tag_216\n      jump\t// in\n    tag_382:\n        /* \"#utility.yul\":13575:13649   */\n      swap2\n      pop\n        /* \"#utility.yul\":13658:13751   */\n      tag_383\n        /* \"#utility.yul\":13747:13750   */\n      dup3\n        /* \"#utility.yul\":13658:13751   */\n      tag_250\n      jump\t// in\n    tag_383:\n        /* \"#utility.yul\":13776:13778   */\n      0x40\n        /* \"#utility.yul\":13771:13774   */\n      dup3\n        /* \"#utility.yul\":13767:13779   */\n      add\n        /* \"#utility.yul\":13760:13779   */\n      swap1\n      pop\n        /* \"#utility.yul\":13419:13785   */\n      swap2\n      swap1\n      pop\n      jump\t// out\n        /* \"#utility.yul\":13791:14210   */\n    tag_175:\n        /* \"#utility.yul\":13957:13961   */\n      0x00\n        /* \"#utility.yul\":13995:13997   */\n      0x20\n        /* \"#utility.yul\":13984:13993   */\n      dup3\n        /* \"#utility.yul\":13980:13998   */\n      add\n        /* \"#utility.yul\":13972:13998   */\n      swap1\n      pop\n        /* \"#utility.yul\":14044:14053   */\n      dup2\n        /* \"#utility.yul\":14038:14042   */\n      dup2\n        /* \"#utility.yul\":14034:14054   */\n      sub\n        /* \"#utility.yul\":14030:14031   */\n      0x00\n        /* \"#utility.yul\":14019:14028   */\n      dup4\n        /* \"#utility.yul\":14015:14032   */\n      add\n        /* \"#utility.yul\":14008:14055   */\n      mstore\n        /* \"#utility.yul\":14072:14203   */\n      tag_385\n        /* \"#utility.yul\":14198:14202   */\n      dup2\n        /* \"#utility.yul\":14072:14203   */\n      tag_251\n      jump\t// in\n    tag_385:\n        /* \"#utility.yul\":14064:14203   */\n      swap1\n      pop\n        /* \"#utility.yul\":13791:14210   */\n      swap2\n      swap1\n      pop\n      jump\t// out\n        /* \"#utility.yul\":14216:14441   */\n    tag_252:\n        /* \"#utility.yul\":14356:14390   */\n      0x45524332303a207472616e7366657220616d6f756e7420657863656564732062\n        /* \"#utility.yul\":14352:14353   */\n      0x00\n        /* \"#utility.yul\":14344:14350   */\n      dup3\n        /* \"#utility.yul\":14340:14354   */\n      add\n        /* \"#utility.yul\":14333:14391   */\n      mstore\n        /* \"#utility.yul\":14425:14433   */\n      0x616c616e63650000000000000000000000000000000000000000000000000000\n        /* \"#utility.yul\":14420:14422   */\n      0x20\n        /* \"#utility.yul\":14412:14418   */\n      dup3\n        /* \"#utility.yul\":14408:14423   */\n      add\n        /* \"#utility.yul\":14401:14434   */\n      mstore\n        /* \"#utility.yul\":14216:14441   */\n      pop\n      jump\t// out\n        /* \"#utility.yul\":14447:14813   */\n    tag_253:\n        /* \"#utility.yul\":14589:14592   */\n      0x00\n        /* \"#utility.yul\":14610:14677   */\n      tag_388\n        /* \"#utility.yul\":14674:14676   */\n      0x26\n        /* \"#utility.yul\":14669:14672   */\n      dup4\n        /* \"#utility.yul\":14610:14677   */\n      tag_216\n      jump\t// in\n    tag_388:\n        /* \"#utility.yul\":14603:14677   */\n      swap2\n      pop\n        /* \"#utility.yul\":14686:14779   */\n      tag_389\n        /* \"#utility.yul\":14775:14778   */\n      dup3\n        /* \"#utility.yul\":14686:14779   */\n      tag_252\n      jump\t// in\n    tag_389:\n        /* \"#utility.yul\":14804:14806   */\n      0x40\n        /* \"#utility.yul\":14799:14802   */\n      dup3\n        /* \"#utility.yul\":14795:14807   */\n      add\n        /* \"#utility.yul\":14788:14807   */\n      swap1\n      pop\n        /* \"#utility.yul\":14447:14813   */\n      swap2\n      swap1\n      pop\n      jump\t// out\n        /* \"#utility.yul\":14819:15238   */\n    tag_180:\n        /* \"#utility.yul\":14985:14989   */\n      0x00\n        /* \"#utility.yul\":15023:15025   */\n      0x20\n        /* \"#utility.yul\":15012:15021   */\n      dup3\n        /* \"#utility.yul\":15008:15026   */\n      add\n        /* \"#utility.yul\":15000:15026   */\n      swap1\n      pop\n        /* \"#utility.yul\":15072:15081   */\n      dup2\n        /* \"#utility.yul\":15066:15070   */\n      dup2\n        /* \"#utility.yul\":15062:15082   */\n      sub\n        /* \"#utility.yul\":15058:15059   */\n      0x00\n        /* \"#utility.yul\":15047:15056   */\n      dup4\n        /* \"#utility.yul\":15043:15060   */\n      add\n        /* \"#utility.yul\":15036:15083   */\n      mstore\n        /* \"#utility.yul\":15100:15231   */\n      tag_391\n        /* \"#utility.yul\":15226:15230   */\n      dup2\n        /* \"#utility.yul\":15100:15231   */\n      tag_253\n      jump\t// in\n    tag_391:\n        /* \"#utility.yul\":15092:15231   */\n      swap1\n      pop\n        /* \"#utility.yul\":14819:15238   */\n      swap2\n      swap1\n      pop\n      jump\t// out\n        /* \"#utility.yul\":15244:15426   */\n    tag_254:\n        /* \"#utility.yul\":15384:15418   */\n      0x4f776e61626c653a2063616c6c6572206973206e6f7420746865206f776e6572\n        /* \"#utility.yul\":15380:15381   */\n      0x00\n        /* \"#utility.yul\":15372:15378   */\n      dup3\n        /* \"#utility.yul\":15368:15382   */\n      add\n        /* \"#utility.yul\":15361:15419   */\n      mstore\n        /* \"#utility.yul\":15244:15426   */\n      pop\n      jump\t// out\n        /* \"#utility.yul\":15432:15798   */\n    tag_255:\n        /* \"#utility.yul\":15574:15577   */\n      0x00\n        /* \"#utility.yul\":15595:15662   */\n      tag_394\n        /* \"#utility.yul\":15659:15661   */\n      0x20\n        /* \"#utility.yul\":15654:15657   */\n      dup4\n        /* \"#utility.yul\":15595:15662   */\n      tag_216\n      jump\t// in\n    tag_394:\n        /* \"#utility.yul\":15588:15662   */\n      swap2\n      pop\n        /* \"#utility.yul\":15671:15764   */\n      tag_395\n        /* \"#utility.yul\":15760:15763   */\n      dup3\n        /* \"#utility.yul\":15671:15764   */\n      tag_254\n      jump\t// in\n    tag_395:\n        /* \"#utility.yul\":15789:15791   */\n      0x20\n        /* \"#utility.yul\":15784:15787   */\n      dup3\n        /* \"#utility.yul\":15780:15792   */\n      add\n        /* \"#utility.yul\":15773:15792   */\n      swap1\n      pop\n        /* \"#utility.yul\":15432:15798   */\n      swap2\n      swap1\n      pop\n      jump\t// out\n        /* \"#utility.yul\":15804:16223   */\n    tag_190:\n        /* \"#utility.yul\":15970:15974   */\n      0x00\n        /* \"#utility.yul\":16008:16010   */\n      0x20\n        /* \"#utility.yul\":15997:16006   */\n      dup3\n        /* \"#utility.yul\":15993:16011   */\n      add\n        /* \"#utility.yul\":15985:16011   */\n      swap1\n      pop\n        /* \"#utility.yul\":16057:16066   */\n      dup2\n        /* \"#utility.yul\":16051:16055   */\n      dup2\n        /* \"#utility.yul\":16047:16067   */\n      sub\n        /* \"#utility.yul\":16043:16044   */\n      0x00\n        /* \"#utility.yul\":16032:16041   */\n      dup4\n        /* \"#utility.yul\":16028:16045   */\n      add\n        /* \"#utility.yul\":16021:16068   */\n      mstore\n        /* \"#utility.yul\":16085:16216   */\n      tag_397\n        /* \"#utility.yul\":16211:16215   */\n      dup2\n        /* \"#utility.yul\":16085:16216   */\n      tag_255\n      jump\t// in\n    tag_397:\n        /* \"#utility.yul\":16077:16216   */\n      swap1\n      pop\n        /* \"#utility.yul\":15804:16223   */\n      swap2\n      swap1\n      pop\n      jump\t// out\n        /* \"#utility.yul\":16229:16410   */\n    tag_256:\n        /* \"#utility.yul\":16369:16402   */\n      0x45524332303a206d696e7420746f20746865207a65726f206164647265737300\n        /* \"#utility.yul\":16365:16366   */\n      0x00\n        /* \"#utility.yul\":16357:16363   */\n      dup3\n        /* \"#utility.yul\":16353:16367   */\n      add\n        /* \"#utility.yul\":16346:16403   */\n      mstore\n        /* \"#utility.yul\":16229:16410   */\n      pop\n      jump\t// out\n        /* \"#utility.yul\":16416:16782   */\n    tag_257:\n        /* \"#utility.yul\":16558:16561   */\n      0x00\n        /* \"#utility.yul\":16579:16646   */\n      tag_400\n        /* \"#utility.yul\":16643:16645   */\n      0x1f\n        /* \"#utility.yul\":16638:16641   */\n      dup4\n        /* \"#utility.yul\":16579:16646   */\n      tag_216\n      jump\t// in\n    tag_400:\n        /* \"#utility.yul\":16572:16646   */\n      swap2\n      pop\n        /* \"#utility.yul\":16655:16748   */\n      tag_401\n        /* \"#utility.yul\":16744:16747   */\n      dup3\n        /* \"#utility.yul\":16655:16748   */\n      tag_256\n      jump\t// in\n    tag_401:\n        /* \"#utility.yul\":16773:16775   */\n      0x20\n        /* \"#utility.yul\":16768:16771   */\n      dup3\n        /* \"#utility.yul\":16764:16776   */\n      add\n        /* \"#utility.yul\":16757:16776   */\n      swap1\n      pop\n        /* \"#utility.yul\":16416:16782   */\n      swap2\n      swap1\n      pop\n      jump\t// out\n        /* \"#utility.yul\":16788:17207   */\n    tag_194:\n        /* \"#utility.yul\":16954:16958   */\n      0x00\n        /* \"#utility.yul\":16992:16994   */\n      0x20\n        /* \"#utility.yul\":16981:16990   */\n      dup3\n        /* \"#utility.yul\":16977:16995   */\n      add\n        /* \"#utility.yul\":16969:16995   */\n      swap1\n      pop\n        /* \"#utility.yul\":17041:17050   */\n      dup2\n        /* \"#utility.yul\":17035:17039   */\n      dup2\n        /* \"#utility.yul\":17031:17051   */\n      sub\n        /* \"#utility.yul\":17027:17028   */\n      0x00\n        /* \"#utility.yul\":17016:17025   */\n      dup4\n        /* \"#utility.yul\":17012:17029   */\n      add\n        /* \"#utility.yul\":17005:17052   */\n      mstore\n        /* \"#utility.yul\":17069:17200   */\n      tag_403\n        /* \"#utility.yul\":17195:17199   */\n      dup2\n        /* \"#utility.yul\":17069:17200   */\n      tag_257\n      jump\t// in\n    tag_403:\n        /* \"#utility.yul\":17061:17200   */\n      swap1\n      pop\n        /* \"#utility.yul\":16788:17207   */\n      swap2\n      swap1\n      pop\n      jump\t// out\n        /* \"#utility.yul\":17213:17433   */\n    tag_258:\n        /* \"#utility.yul\":17353:17387   */\n      0x45524332303a206275726e2066726f6d20746865207a65726f20616464726573\n        /* \"#utility.yul\":17349:17350   */\n      0x00\n        /* \"#utility.yul\":17341:17347   */\n      dup3\n        /* \"#utility.yul\":17337:17351   */\n      add\n        /* \"#utility.yul\":17330:17388   */\n      mstore\n        /* \"#utility.yul\":17422:17425   */\n      0x7300000000000000000000000000000000000000000000000000000000000000\n        /* \"#utility.yul\":17417:17419   */\n      0x20\n        /* \"#utility.yul\":17409:17415   */\n      dup3\n        /* \"#utility.yul\":17405:17420   */\n      add\n        /* \"#utility.yul\":17398:17426   */\n      mstore\n        /* \"#utility.yul\":17213:17433   */\n      pop\n      jump\t// out\n        /* \"#utility.yul\":17439:17805   */\n    tag_259:\n        /* \"#utility.yul\":17581:17584   */\n      0x00\n        /* \"#utility.yul\":17602:17669   */\n      tag_406\n        /* \"#utility.yul\":17666:17668   */\n      0x21\n        /* \"#utility.yul\":17661:17664   */\n      dup4\n        /* \"#utility.yul\":17602:17669   */\n      tag_216\n      jump\t// in\n    tag_406:\n        /* \"#utility.yul\":17595:17669   */\n      swap2\n      pop\n        /* \"#utility.yul\":17678:17771   */\n      tag_407\n        /* \"#utility.yul\":17767:17770   */\n      dup3\n        /* \"#utility.yul\":17678:17771   */\n      tag_258\n      jump\t// in\n    tag_407:\n        /* \"#utility.yul\":17796:17798   */\n      0x40\n        /* \"#utility.yul\":17791:17794   */\n      dup3\n        /* \"#utility.yul\":17787:17799   */\n      add\n        /* \"#utility.yul\":17780:17799   */\n      swap1\n      pop\n        /* \"#utility.yul\":17439:17805   */\n      swap2\n      swap1\n      pop\n      jump\t// out\n        /* \"#utility.yul\":17811:18230   */\n    tag_204:\n        /* \"#utility.yul\":17977:17981   */\n      0x00\n        /* \"#utility.yul\":18015:18017   */\n      0x20\n        /* \"#utility.yul\":18004:18013   */\n      dup3\n        /* \"#utility.yul\":18000:18018   */\n      add\n        /* \"#utility.yul\":17992:18018   */\n      swap1\n      pop\n        /* \"#utility.yul\":18064:18073   */\n      dup2\n        /* \"#utility.yul\":18058:18062   */\n      dup2\n        /* \"#utility.yul\":18054:18074   */\n      sub\n        /* \"#utility.yul\":18050:18051   */\n      0x00\n        /* \"#utility.yul\":18039:18048   */\n      dup4\n        /* \"#utility.yul\":18035:18052   */\n      add\n        /* \"#utility.yul\":18028:18075   */\n      mstore\n        /* \"#utility.yul\":18092:18223   */\n      tag_409\n        /* \"#utility.yul\":18218:18222   */\n      dup2\n        /* \"#utility.yul\":18092:18223   */\n      tag_259\n      jump\t// in\n    tag_409:\n        /* \"#utility.yul\":18084:18223   */\n      swap1\n      pop\n        /* \"#utility.yul\":17811:18230   */\n      swap2\n      swap1\n      pop\n      jump\t// out\n        /* \"#utility.yul\":18236:18457   */\n    tag_260:\n        /* \"#utility.yul\":18376:18410   */\n      0x45524332303a206275726e20616d6f756e7420657863656564732062616c616e\n        /* \"#utility.yul\":18372:18373   */\n      0x00\n        /* \"#utility.yul\":18364:18370   */\n      dup3\n        /* \"#utility.yul\":18360:18374   */\n      add\n        /* \"#utility.yul\":18353:18411   */\n      mstore\n        /* \"#utility.yul\":18445:18449   */\n      0x6365000000000000000000000000000000000000000000000000000000000000\n        /* \"#utility.yul\":18440:18442   */\n      0x20\n        /* \"#utility.yul\":18432:18438   */\n      dup3\n        /* \"#utility.yul\":18428:18443   */\n      add\n        /* \"#utility.yul\":18421:18450   */\n      mstore\n        /* \"#utility.yul\":18236:18457   */\n      pop\n      jump\t// out\n        /* \"#utility.yul\":18463:18829   */\n    tag_261:\n        /* \"#utility.yul\":18605:18608   */\n      0x00\n        /* \"#utility.yul\":18626:18693   */\n      tag_412\n        /* \"#utility.yul\":18690:18692   */\n      0x22\n        /* \"#utility.yul\":18685:18688   */\n      dup4\n        /* \"#utility.yul\":18626:18693   */\n      tag_216\n      jump\t// in\n    tag_412:\n        /* \"#utility.yul\":18619:18693   */\n      swap2\n      pop\n        /* \"#utility.yul\":18702:18795   */\n      tag_413\n        /* \"#utility.yul\":18791:18794   */\n      dup3\n        /* \"#utility.yul\":18702:18795   */\n      tag_260\n      jump\t// in\n    tag_413:\n        /* \"#utility.yul\":18820:18822   */\n      0x40\n        /* \"#utility.yul\":18815:18818   */\n      dup3\n        /* \"#utility.yul\":18811:18823   */\n      add\n        /* \"#utility.yul\":18804:18823   */\n      swap1\n      pop\n        /* \"#utility.yul\":18463:18829   */\n      swap2\n      swap1\n      pop\n      jump\t// out\n        /* \"#utility.yul\":18835:19254   */\n    tag_208:\n        /* \"#utility.yul\":19001:19005   */\n      0x00\n        /* \"#utility.yul\":19039:19041   */\n      0x20\n        /* \"#utility.yul\":19028:19037   */\n      dup3\n        /* \"#utility.yul\":19024:19042   */\n      add\n        /* \"#utility.yul\":19016:19042   */\n      swap1\n      pop\n        /* \"#utility.yul\":19088:19097   */\n      dup2\n        /* \"#utility.yul\":19082:19086   */\n      dup2\n        /* \"#utility.yul\":19078:19098   */\n      sub\n        /* \"#utility.yul\":19074:19075   */\n      0x00\n        /* \"#utility.yul\":19063:19072   */\n      dup4\n        /* \"#utility.yul\":19059:19076   */\n      add\n        /* \"#utility.yul\":19052:19099   */\n      mstore\n        /* \"#utility.yul\":19116:19247   */\n      tag_415\n        /* \"#utility.yul\":19242:19246   */\n      dup2\n        /* \"#utility.yul\":19116:19247   */\n      tag_261\n      jump\t// in\n    tag_415:\n        /* \"#utility.yul\":19108:19247   */\n      swap1\n      pop\n        /* \"#utility.yul\":18835:19254   */\n      swap2\n      swap1\n      pop\n      jump\t// out\n        /* \"#utility.yul\":19260:19451   */\n    tag_210:\n        /* \"#utility.yul\":19300:19304   */\n      0x00\n        /* \"#utility.yul\":19320:19340   */\n      tag_417\n        /* \"#utility.yul\":19338:19339   */\n      dup3\n        /* \"#utility.yul\":19320:19340   */\n      tag_227\n      jump\t// in\n    tag_417:\n        /* \"#utility.yul\":19315:19340   */\n      swap2\n      pop\n        /* \"#utility.yul\":19354:19374   */\n      tag_418\n        /* \"#utility.yul\":19372:19373   */\n      dup4\n        /* \"#utility.yul\":19354:19374   */\n      tag_227\n      jump\t// in\n    tag_418:\n        /* \"#utility.yul\":19349:19374   */\n      swap3\n      pop\n        /* \"#utility.yul\":19393:19394   */\n      dup3\n        /* \"#utility.yul\":19390:19391   */\n      dup3\n        /* \"#utility.yul\":19387:19395   */\n      lt\n        /* \"#utility.yul\":19384:19418   */\n      iszero\n      tag_419\n      jumpi\n        /* \"#utility.yul\":19398:19416   */\n      tag_420\n      tag_237\n      jump\t// in\n    tag_420:\n        /* \"#utility.yul\":19384:19418   */\n    tag_419:\n        /* \"#utility.yul\":19443:19444   */\n      dup3\n        /* \"#utility.yul\":19440:19441   */\n      dup3\n        /* \"#utility.yul\":19436:19445   */\n      sub\n        /* \"#utility.yul\":19428:19445   */\n      swap1\n      pop\n        /* \"#utility.yul\":19260:19451   */\n      swap3\n      swap2\n      pop\n      pop\n      jump\t// out\n\n    auxdata: 0xa2646970667358221220909e284742603c04800c8e0fcaf22df1d37d66f42669bc06490b8e517699e67964736f6c634300080c0033\n}\n",
				"bytecode": {
					"linkReferences": {},
					"object": "60806040523480156200001157600080fd5b506040518060400160405280600681526020017f676d6442544300000000000000000000000000000000000000000000000000008152506040518060400160405280600681526020017f676d644254430000000000000000000000000000000000000000000000000000815250816003908051906020019062000096929190620001a6565b508060049080519060200190620000af929190620001a6565b505050620000d2620000c6620000d860201b60201c565b620000e060201b60201c565b620002bb565b600033905090565b6000600560009054906101000a900473ffffffffffffffffffffffffffffffffffffffff16905081600560006101000a81548173ffffffffffffffffffffffffffffffffffffffff021916908373ffffffffffffffffffffffffffffffffffffffff1602179055508173ffffffffffffffffffffffffffffffffffffffff168173ffffffffffffffffffffffffffffffffffffffff167f8be0079c531659141344cd1fd0a4f28419497f9722a3daafe3b4186f6b6457e060405160405180910390a35050565b828054620001b49062000285565b90600052602060002090601f016020900481019282620001d8576000855562000224565b82601f10620001f357805160ff191683800117855562000224565b8280016001018555821562000224579182015b828111156200022357825182559160200191906001019062000206565b5b50905062000233919062000237565b5090565b5b808211156200025257600081600090555060010162000238565b5090565b7f4e487b7100000000000000000000000000000000000000000000000000000000600052602260045260246000fd5b600060028204905060018216806200029e57607f821691505b60208210811415620002b557620002b462000256565b5b50919050565b611b9080620002cb6000396000f3fe608060405234801561001057600080fd5b50600436106101005760003560e01c8063715018a611610097578063a457c2d711610066578063a457c2d71461029d578063a9059cbb146102cd578063dd62ed3e146102fd578063f2fde38b1461032d57610100565b8063715018a61461023b5780638da5cb5b1461024557806395d89b41146102635780639dc29fac1461028157610100565b8063313ce567116100d3578063313ce567146101a157806339509351146101bf57806340c10f19146101ef57806370a082311461020b57610100565b806306fdde0314610105578063095ea7b31461012357806318160ddd1461015357806323b872dd14610171575b600080fd5b61010d610349565b60405161011a919061115e565b60405180910390f35b61013d60048036038101906101389190611219565b6103db565b60405161014a9190611274565b60405180910390f35b61015b6103fe565b604051610168919061129e565b60405180910390f35b61018b600480360381019061018691906112b9565b610408565b6040516101989190611274565b60405180910390f35b6101a9610437565b6040516101b69190611328565b60405180910390f35b6101d960048036038101906101d49190611219565b610440565b6040516101e69190611274565b60405180910390f35b61020960048036038101906102049190611219565b610477565b005b61022560048036038101906102209190611343565b61048d565b604051610232919061129e565b60405180910390f35b6102436104d5565b005b61024d6104e9565b60405161025a919061137f565b60405180910390f35b61026b610513565b604051610278919061115e565b60405180910390f35b61029b60048036038101906102969190611219565b6105a5565b005b6102b760048036038101906102b29190611219565b6105bb565b6040516102c49190611274565b60405180910390f35b6102e760048036038101906102e29190611219565b610632565b6040516102f49190611274565b60405180910390f35b6103176004803603810190610312919061139a565b610655565b604051610324919061129e565b60405180910390f35b61034760048036038101906103429190611343565b6106dc565b005b60606003805461035890611409565b80601f016020809104026020016040519081016040528092919081815260200182805461038490611409565b80156103d15780601f106103a6576101008083540402835291602001916103d1565b820191906000526020600020905b8154815290600101906020018083116103b457829003601f168201915b5050505050905090565b6000806103e6610760565b90506103f3818585610768565b600191505092915050565b6000600254905090565b600080610413610760565b9050610420858285610933565b61042b8585856109bf565b60019150509392505050565b60006012905090565b60008061044b610760565b905061046c81858561045d8589610655565b610467919061146a565b610768565b600191505092915050565b61047f610c40565b6104898282610cbe565b5050565b60008060008373ffffffffffffffffffffffffffffffffffffffff1673ffffffffffffffffffffffffffffffffffffffff168152602001908152602001600020549050919050565b6104dd610c40565b6104e76000610e1e565b565b6000600560009054906101000a900473ffffffffffffffffffffffffffffffffffffffff16905090565b60606004805461052290611409565b80601f016020809104026020016040519081016040528092919081815260200182805461054e90611409565b801561059b5780601f106105705761010080835404028352916020019161059b565b820191906000526020600020905b81548152906001019060200180831161057e57829003601f168201915b5050505050905090565b6105ad610c40565b6105b78282610ee4565b5050565b6000806105c6610760565b905060006105d48286610655565b905083811015610619576040517f08c379a000000000000000000000000000000000000000000000000000000000815260040161061090611532565b60405180910390fd5b6106268286868403610768565b60019250505092915050565b60008061063d610760565b905061064a8185856109bf565b600191505092915050565b6000600160008473ffffffffffffffffffffffffffffffffffffffff1673ffffffffffffffffffffffffffffffffffffffff16815260200190815260200160002060008373ffffffffffffffffffffffffffffffffffffffff1673ffffffffffffffffffffffffffffffffffffffff16815260200190815260200160002054905092915050565b6106e4610c40565b600073ffffffffffffffffffffffffffffffffffffffff168173ffffffffffffffffffffffffffffffffffffffff161415610754576040517f08c379a000000000000000000000000000000000000000000000000000000000815260040161074b906115c4565b60405180910390fd5b61075d81610e1e565b50565b600033905090565b600073ffffffffffffffffffffffffffffffffffffffff168373ffffffffffffffffffffffffffffffffffffffff1614156107d8576040517f08c379a00000000000000000000000000000000000000000000000000000000081526004016107cf90611656565b60405180910390fd5b600073ffffffffffffffffffffffffffffffffffffffff168273ffffffffffffffffffffffffffffffffffffffff161415610848576040517f08c379a000000000000000000000000000000000000000000000000000000000815260040161083f906116e8565b60405180910390fd5b80600160008573ffffffffffffffffffffffffffffffffffffffff1673ffffffffffffffffffffffffffffffffffffffff16815260200190815260200160002060008473ffffffffffffffffffffffffffffffffffffffff1673ffffffffffffffffffffffffffffffffffffffff168152602001908152602001600020819055508173ffffffffffffffffffffffffffffffffffffffff168373ffffffffffffffffffffffffffffffffffffffff167f8c5be1e5ebec7d5bd14f71427d1e84f3dd0314c0f7b2291e5b200ac8c7c3b92583604051610926919061129e565b60405180910390a3505050565b600061093f8484610655565b90507fffffffffffffffffffffffffffffffffffffffffffffffffffffffffffffffff81146109b957818110156109ab576040517f08c379a00000000000000000000000000000000000000000000000000000000081526004016109a290611754565b60405180910390fd5b6109b88484848403610768565b5b50505050565b600073ffffffffffffffffffffffffffffffffffffffff168373ffffffffffffffffffffffffffffffffffffffff161415610a2f576040517f08c379a0000000000000000000000000000000000000000000000000000000008152600401610a26906117e6565b60405180910390fd5b600073ffffffffffffffffffffffffffffffffffffffff168273ffffffffffffffffffffffffffffffffffffffff161415610a9f576040517f08c379a0000000000000000000000000000000000000000000000000000000008152600401610a9690611878565b60405180910390fd5b610aaa8383836110bb565b60008060008573ffffffffffffffffffffffffffffffffffffffff1673ffffffffffffffffffffffffffffffffffffffff16815260200190815260200160002054905081811015610b30576040517f08c379a0000000000000000000000000000000000000000000000000000000008152600401610b279061190a565b60405180910390fd5b8181036000808673ffffffffffffffffffffffffffffffffffffffff1673ffffffffffffffffffffffffffffffffffffffff16815260200190815260200160002081905550816000808573ffffffffffffffffffffffffffffffffffffffff1673ffffffffffffffffffffffffffffffffffffffff1681526020019081526020016000206000828254610bc3919061146a565b925050819055508273ffffffffffffffffffffffffffffffffffffffff168473ffffffffffffffffffffffffffffffffffffffff167fddf252ad1be2c89b69c2b068fc378daa952ba7f163c4a11628f55a4df523b3ef84604051610c27919061129e565b60405180910390a3610c3a8484846110c0565b50505050565b610c48610760565b73ffffffffffffffffffffffffffffffffffffffff16610c666104e9565b73ffffffffffffffffffffffffffffffffffffffff1614610cbc576040517f08c379a0000000000000000000000000000000000000000000000000000000008152600401610cb390611976565b60405180910390fd5b565b600073ffffffffffffffffffffffffffffffffffffffff168273ffffffffffffffffffffffffffffffffffffffff161415610d2e576040517f08c379a0000000000000000000000000000000000000000000000000000000008152600401610d25906119e2565b60405180910390fd5b610d3a600083836110bb565b8060026000828254610d4c919061146a565b92505081905550806000808473ffffffffffffffffffffffffffffffffffffffff1673ffffffffffffffffffffffffffffffffffffffff1681526020019081526020016000206000828254610da1919061146a565b925050819055508173ffffffffffffffffffffffffffffffffffffffff16600073ffffffffffffffffffffffffffffffffffffffff167fddf252ad1be2c89b69c2b068fc378daa952ba7f163c4a11628f55a4df523b3ef83604051610e06919061129e565b60405180910390a3610e1a600083836110c0565b5050565b6000600560009054906101000a900473ffffffffffffffffffffffffffffffffffffffff16905081600560006101000a81548173ffffffffffffffffffffffffffffffffffffffff021916908373ffffffffffffffffffffffffffffffffffffffff1602179055508173ffffffffffffffffffffffffffffffffffffffff168173ffffffffffffffffffffffffffffffffffffffff167f8be0079c531659141344cd1fd0a4f28419497f9722a3daafe3b4186f6b6457e060405160405180910390a35050565b600073ffffffffffffffffffffffffffffffffffffffff168273ffffffffffffffffffffffffffffffffffffffff161415610f54576040517f08c379a0000000000000000000000000000000000000000000000000000000008152600401610f4b90611a74565b60405180910390fd5b610f60826000836110bb565b60008060008473ffffffffffffffffffffffffffffffffffffffff1673ffffffffffffffffffffffffffffffffffffffff16815260200190815260200160002054905081811015610fe6576040517f08c379a0000000000000000000000000000000000000000000000000000000008152600401610fdd90611b06565b60405180910390fd5b8181036000808573ffffffffffffffffffffffffffffffffffffffff1673ffffffffffffffffffffffffffffffffffffffff16815260200190815260200160002081905550816002600082825461103d9190611b26565b92505081905550600073ffffffffffffffffffffffffffffffffffffffff168373ffffffffffffffffffffffffffffffffffffffff167fddf252ad1be2c89b69c2b068fc378daa952ba7f163c4a11628f55a4df523b3ef846040516110a2919061129e565b60405180910390a36110b6836000846110c0565b505050565b505050565b505050565b600081519050919050565b600082825260208201905092915050565b60005b838110156110ff5780820151818401526020810190506110e4565b8381111561110e576000848401525b50505050565b6000601f19601f8301169050919050565b6000611130826110c5565b61113a81856110d0565b935061114a8185602086016110e1565b61115381611114565b840191505092915050565b600060208201905081810360008301526111788184611125565b905092915050565b600080fd5b600073ffffffffffffffffffffffffffffffffffffffff82169050919050565b60006111b082611185565b9050919050565b6111c0816111a5565b81146111cb57600080fd5b50565b6000813590506111dd816111b7565b92915050565b6000819050919050565b6111f6816111e3565b811461120157600080fd5b50565b600081359050611213816111ed565b92915050565b600080604083850312156112305761122f611180565b5b600061123e858286016111ce565b925050602061124f85828601611204565b9150509250929050565b60008115159050919050565b61126e81611259565b82525050565b60006020820190506112896000830184611265565b92915050565b611298816111e3565b82525050565b60006020820190506112b3600083018461128f565b92915050565b6000806000606084860312156112d2576112d1611180565b5b60006112e0868287016111ce565b93505060206112f1868287016111ce565b925050604061130286828701611204565b9150509250925092565b600060ff82169050919050565b6113228161130c565b82525050565b600060208201905061133d6000830184611319565b92915050565b60006020828403121561135957611358611180565b5b6000611367848285016111ce565b91505092915050565b611379816111a5565b82525050565b60006020820190506113946000830184611370565b92915050565b600080604083850312156113b1576113b0611180565b5b60006113bf858286016111ce565b92505060206113d0858286016111ce565b9150509250929050565b7f4e487b7100000000000000000000000000000000000000000000000000000000600052602260045260246000fd5b6000600282049050600182168061142157607f821691505b60208210811415611435576114346113da565b5b50919050565b7f4e487b7100000000000000000000000000000000000000000000000000000000600052601160045260246000fd5b6000611475826111e3565b9150611480836111e3565b9250827fffffffffffffffffffffffffffffffffffffffffffffffffffffffffffffffff038211156114b5576114b461143b565b5b828201905092915050565b7f45524332303a2064656372656173656420616c6c6f77616e63652062656c6f7760008201527f207a65726f000000000000000000000000000000000000000000000000000000602082015250565b600061151c6025836110d0565b9150611527826114c0565b604082019050919050565b6000602082019050818103600083015261154b8161150f565b9050919050565b7f4f776e61626c653a206e6577206f776e657220697320746865207a65726f206160008201527f6464726573730000000000000000000000000000000000000000000000000000602082015250565b60006115ae6026836110d0565b91506115b982611552565b604082019050919050565b600060208201905081810360008301526115dd816115a1565b9050919050565b7f45524332303a20617070726f76652066726f6d20746865207a65726f2061646460008201527f7265737300000000000000000000000000000000000000000000000000000000602082015250565b60006116406024836110d0565b915061164b826115e4565b604082019050919050565b6000602082019050818103600083015261166f81611633565b9050919050565b7f45524332303a20617070726f766520746f20746865207a65726f20616464726560008201527f7373000000000000000000000000000000000000000000000000000000000000602082015250565b60006116d26022836110d0565b91506116dd82611676565b604082019050919050565b60006020820190508181036000830152611701816116c5565b9050919050565b7f45524332303a20696e73756666696369656e7420616c6c6f77616e6365000000600082015250565b600061173e601d836110d0565b915061174982611708565b602082019050919050565b6000602082019050818103600083015261176d81611731565b9050919050565b7f45524332303a207472616e736665722066726f6d20746865207a65726f20616460008201527f6472657373000000000000000000000000000000000000000000000000000000602082015250565b60006117d06025836110d0565b91506117db82611774565b604082019050919050565b600060208201905081810360008301526117ff816117c3565b9050919050565b7f45524332303a207472616e7366657220746f20746865207a65726f206164647260008201527f6573730000000000000000000000000000000000000000000000000000000000602082015250565b60006118626023836110d0565b915061186d82611806565b604082019050919050565b6000602082019050818103600083015261189181611855565b9050919050565b7f45524332303a207472616e7366657220616d6f756e742065786365656473206260008201527f616c616e63650000000000000000000000000000000000000000000000000000602082015250565b60006118f46026836110d0565b91506118ff82611898565b604082019050919050565b60006020820190508181036000830152611923816118e7565b9050919050565b7f4f776e61626c653a2063616c6c6572206973206e6f7420746865206f776e6572600082015250565b60006119606020836110d0565b915061196b8261192a565b602082019050919050565b6000602082019050818103600083015261198f81611953565b9050919050565b7f45524332303a206d696e7420746f20746865207a65726f206164647265737300600082015250565b60006119cc601f836110d0565b91506119d782611996565b602082019050919050565b600060208201905081810360008301526119fb816119bf565b9050919050565b7f45524332303a206275726e2066726f6d20746865207a65726f2061646472657360008201527f7300000000000000000000000000000000000000000000000000000000000000602082015250565b6000611a5e6021836110d0565b9150611a6982611a02565b604082019050919050565b60006020820190508181036000830152611a8d81611a51565b9050919050565b7f45524332303a206275726e20616d6f756e7420657863656564732062616c616e60008201527f6365000000000000000000000000000000000000000000000000000000000000602082015250565b6000611af06022836110d0565b9150611afb82611a94565b604082019050919050565b60006020820190508181036000830152611b1f81611ae3565b9050919050565b6000611b31826111e3565b9150611b3c836111e3565b925082821015611b4f57611b4e61143b565b5b82820390509291505056fea2646970667358221220909e284742603c04800c8e0fcaf22df1d37d66f42669bc06490b8e517699e67964736f6c634300080c0033",
					"opcodes": "PUSH1 0x80 PUSH1 0x40 MSTORE CALLVALUE DUP1 ISZERO PUSH3 0x11 JUMPI PUSH1 0x0 DUP1 REVERT JUMPDEST POP PUSH1 0x40 MLOAD DUP1 PUSH1 0x40 ADD PUSH1 0x40 MSTORE DUP1 PUSH1 0x6 DUP2 MSTORE PUSH1 0x20 ADD PUSH32 0x676D644254430000000000000000000000000000000000000000000000000000 DUP2 MSTORE POP PUSH1 0x40 MLOAD DUP1 PUSH1 0x40 ADD PUSH1 0x40 MSTORE DUP1 PUSH1 0x6 DUP2 MSTORE PUSH1 0x20 ADD PUSH32 0x676D644254430000000000000000000000000000000000000000000000000000 DUP2 MSTORE POP DUP2 PUSH1 0x3 SWAP1 DUP1 MLOAD SWAP1 PUSH1 0x20 ADD SWAP1 PUSH3 0x96 SWAP3 SWAP2 SWAP1 PUSH3 0x1A6 JUMP JUMPDEST POP DUP1 PUSH1 0x4 SWAP1 DUP1 MLOAD SWAP1 PUSH1 0x20 ADD SWAP1 PUSH3 0xAF SWAP3 SWAP2 SWAP1 PUSH3 0x1A6 JUMP JUMPDEST POP POP POP PUSH3 0xD2 PUSH3 0xC6 PUSH3 0xD8 PUSH1 0x20 SHL PUSH1 0x20 SHR JUMP JUMPDEST PUSH3 0xE0 PUSH1 0x20 SHL PUSH1 0x20 SHR JUMP JUMPDEST PUSH3 0x2BB JUMP JUMPDEST PUSH1 0x0 CALLER SWAP1 POP SWAP1 JUMP JUMPDEST PUSH1 0x0 PUSH1 0x5 PUSH1 0x0 SWAP1 SLOAD SWAP1 PUSH2 0x100 EXP SWAP1 DIV PUSH20 0xFFFFFFFFFFFFFFFFFFFFFFFFFFFFFFFFFFFFFFFF AND SWAP1 POP DUP2 PUSH1 0x5 PUSH1 0x0 PUSH2 0x100 EXP DUP2 SLOAD DUP2 PUSH20 0xFFFFFFFFFFFFFFFFFFFFFFFFFFFFFFFFFFFFFFFF MUL NOT AND SWAP1 DUP4 PUSH20 0xFFFFFFFFFFFFFFFFFFFFFFFFFFFFFFFFFFFFFFFF AND MUL OR SWAP1 SSTORE POP DUP2 PUSH20 0xFFFFFFFFFFFFFFFFFFFFFFFFFFFFFFFFFFFFFFFF AND DUP2 PUSH20 0xFFFFFFFFFFFFFFFFFFFFFFFFFFFFFFFFFFFFFFFF AND PUSH32 0x8BE0079C531659141344CD1FD0A4F28419497F9722A3DAAFE3B4186F6B6457E0 PUSH1 0x40 MLOAD PUSH1 0x40 MLOAD DUP1 SWAP2 SUB SWAP1 LOG3 POP POP JUMP JUMPDEST DUP3 DUP1 SLOAD PUSH3 0x1B4 SWAP1 PUSH3 0x285 JUMP JUMPDEST SWAP1 PUSH1 0x0 MSTORE PUSH1 0x20 PUSH1 0x0 KECCAK256 SWAP1 PUSH1 0x1F ADD PUSH1 0x20 SWAP1 DIV DUP2 ADD SWAP3 DUP3 PUSH3 0x1D8 JUMPI PUSH1 0x0 DUP6 SSTORE PUSH3 0x224 JUMP JUMPDEST DUP3 PUSH1 0x1F LT PUSH3 0x1F3 JUMPI DUP1 MLOAD PUSH1 0xFF NOT AND DUP4 DUP1 ADD OR DUP6 SSTORE PUSH3 0x224 JUMP JUMPDEST DUP3 DUP1 ADD PUSH1 0x1 ADD DUP6 SSTORE DUP3 ISZERO PUSH3 0x224 JUMPI SWAP2 DUP3 ADD JUMPDEST DUP3 DUP2 GT ISZERO PUSH3 0x223 JUMPI DUP3 MLOAD DUP3 SSTORE SWAP2 PUSH1 0x20 ADD SWAP2 SWAP1 PUSH1 0x1 ADD SWAP1 PUSH3 0x206 JUMP JUMPDEST JUMPDEST POP SWAP1 POP PUSH3 0x233 SWAP2 SWAP1 PUSH3 0x237 JUMP JUMPDEST POP SWAP1 JUMP JUMPDEST JUMPDEST DUP1 DUP3 GT ISZERO PUSH3 0x252 JUMPI PUSH1 0x0 DUP2 PUSH1 0x0 SWAP1 SSTORE POP PUSH1 0x1 ADD PUSH3 0x238 JUMP JUMPDEST POP SWAP1 JUMP JUMPDEST PUSH32 0x4E487B7100000000000000000000000000000000000000000000000000000000 PUSH1 0x0 MSTORE PUSH1 0x22 PUSH1 0x4 MSTORE PUSH1 0x24 PUSH1 0x0 REVERT JUMPDEST PUSH1 0x0 PUSH1 0x2 DUP3 DIV SWAP1 POP PUSH1 0x1 DUP3 AND DUP1 PUSH3 0x29E JUMPI PUSH1 0x7F DUP3 AND SWAP2 POP JUMPDEST PUSH1 0x20 DUP3 LT DUP2 EQ ISZERO PUSH3 0x2B5 JUMPI PUSH3 0x2B4 PUSH3 0x256 JUMP JUMPDEST JUMPDEST POP SWAP2 SWAP1 POP JUMP JUMPDEST PUSH2 0x1B90 DUP1 PUSH3 0x2CB PUSH1 0x0 CODECOPY PUSH1 0x0 RETURN INVALID PUSH1 0x80 PUSH1 0x40 MSTORE CALLVALUE DUP1 ISZERO PUSH2 0x10 JUMPI PUSH1 0x0 DUP1 REVERT JUMPDEST POP PUSH1 0x4 CALLDATASIZE LT PUSH2 0x100 JUMPI PUSH1 0x0 CALLDATALOAD PUSH1 0xE0 SHR DUP1 PUSH4 0x715018A6 GT PUSH2 0x97 JUMPI DUP1 PUSH4 0xA457C2D7 GT PUSH2 0x66 JUMPI DUP1 PUSH4 0xA457C2D7 EQ PUSH2 0x29D JUMPI DUP1 PUSH4 0xA9059CBB EQ PUSH2 0x2CD JUMPI DUP1 PUSH4 0xDD62ED3E EQ PUSH2 0x2FD JUMPI DUP1 PUSH4 0xF2FDE38B EQ PUSH2 0x32D JUMPI PUSH2 0x100 JUMP JUMPDEST DUP1 PUSH4 0x715018A6 EQ PUSH2 0x23B JUMPI DUP1 PUSH4 0x8DA5CB5B EQ PUSH2 0x245 JUMPI DUP1 PUSH4 0x95D89B41 EQ PUSH2 0x263 JUMPI DUP1 PUSH4 0x9DC29FAC EQ PUSH2 0x281 JUMPI PUSH2 0x100 JUMP JUMPDEST DUP1 PUSH4 0x313CE567 GT PUSH2 0xD3 JUMPI DUP1 PUSH4 0x313CE567 EQ PUSH2 0x1A1 JUMPI DUP1 PUSH4 0x39509351 EQ PUSH2 0x1BF JUMPI DUP1 PUSH4 0x40C10F19 EQ PUSH2 0x1EF JUMPI DUP1 PUSH4 0x70A08231 EQ PUSH2 0x20B JUMPI PUSH2 0x100 JUMP JUMPDEST DUP1 PUSH4 0x6FDDE03 EQ PUSH2 0x105 JUMPI DUP1 PUSH4 0x95EA7B3 EQ PUSH2 0x123 JUMPI DUP1 PUSH4 0x18160DDD EQ PUSH2 0x153 JUMPI DUP1 PUSH4 0x23B872DD EQ PUSH2 0x171 JUMPI JUMPDEST PUSH1 0x0 DUP1 REVERT JUMPDEST PUSH2 0x10D PUSH2 0x349 JUMP JUMPDEST PUSH1 0x40 MLOAD PUSH2 0x11A SWAP2 SWAP1 PUSH2 0x115E JUMP JUMPDEST PUSH1 0x40 MLOAD DUP1 SWAP2 SUB SWAP1 RETURN JUMPDEST PUSH2 0x13D PUSH1 0x4 DUP1 CALLDATASIZE SUB DUP2 ADD SWAP1 PUSH2 0x138 SWAP2 SWAP1 PUSH2 0x1219 JUMP JUMPDEST PUSH2 0x3DB JUMP JUMPDEST PUSH1 0x40 MLOAD PUSH2 0x14A SWAP2 SWAP1 PUSH2 0x1274 JUMP JUMPDEST PUSH1 0x40 MLOAD DUP1 SWAP2 SUB SWAP1 RETURN JUMPDEST PUSH2 0x15B PUSH2 0x3FE JUMP JUMPDEST PUSH1 0x40 MLOAD PUSH2 0x168 SWAP2 SWAP1 PUSH2 0x129E JUMP JUMPDEST PUSH1 0x40 MLOAD DUP1 SWAP2 SUB SWAP1 RETURN JUMPDEST PUSH2 0x18B PUSH1 0x4 DUP1 CALLDATASIZE SUB DUP2 ADD SWAP1 PUSH2 0x186 SWAP2 SWAP1 PUSH2 0x12B9 JUMP JUMPDEST PUSH2 0x408 JUMP JUMPDEST PUSH1 0x40 MLOAD PUSH2 0x198 SWAP2 SWAP1 PUSH2 0x1274 JUMP JUMPDEST PUSH1 0x40 MLOAD DUP1 SWAP2 SUB SWAP1 RETURN JUMPDEST PUSH2 0x1A9 PUSH2 0x437 JUMP JUMPDEST PUSH1 0x40 MLOAD PUSH2 0x1B6 SWAP2 SWAP1 PUSH2 0x1328 JUMP JUMPDEST PUSH1 0x40 MLOAD DUP1 SWAP2 SUB SWAP1 RETURN JUMPDEST PUSH2 0x1D9 PUSH1 0x4 DUP1 CALLDATASIZE SUB DUP2 ADD SWAP1 PUSH2 0x1D4 SWAP2 SWAP1 PUSH2 0x1219 JUMP JUMPDEST PUSH2 0x440 JUMP JUMPDEST PUSH1 0x40 MLOAD PUSH2 0x1E6 SWAP2 SWAP1 PUSH2 0x1274 JUMP JUMPDEST PUSH1 0x40 MLOAD DUP1 SWAP2 SUB SWAP1 RETURN JUMPDEST PUSH2 0x209 PUSH1 0x4 DUP1 CALLDATASIZE SUB DUP2 ADD SWAP1 PUSH2 0x204 SWAP2 SWAP1 PUSH2 0x1219 JUMP JUMPDEST PUSH2 0x477 JUMP JUMPDEST STOP JUMPDEST PUSH2 0x225 PUSH1 0x4 DUP1 CALLDATASIZE SUB DUP2 ADD SWAP1 PUSH2 0x220 SWAP2 SWAP1 PUSH2 0x1343 JUMP JUMPDEST PUSH2 0x48D JUMP JUMPDEST PUSH1 0x40 MLOAD PUSH2 0x232 SWAP2 SWAP1 PUSH2 0x129E JUMP JUMPDEST PUSH1 0x40 MLOAD DUP1 SWAP2 SUB SWAP1 RETURN JUMPDEST PUSH2 0x243 PUSH2 0x4D5 JUMP JUMPDEST STOP JUMPDEST PUSH2 0x24D PUSH2 0x4E9 JUMP JUMPDEST PUSH1 0x40 MLOAD PUSH2 0x25A SWAP2 SWAP1 PUSH2 0x137F JUMP JUMPDEST PUSH1 0x40 MLOAD DUP1 SWAP2 SUB SWAP1 RETURN JUMPDEST PUSH2 0x26B PUSH2 0x513 JUMP JUMPDEST PUSH1 0x40 MLOAD PUSH2 0x278 SWAP2 SWAP1 PUSH2 0x115E JUMP JUMPDEST PUSH1 0x40 MLOAD DUP1 SWAP2 SUB SWAP1 RETURN JUMPDEST PUSH2 0x29B PUSH1 0x4 DUP1 CALLDATASIZE SUB DUP2 ADD SWAP1 PUSH2 0x296 SWAP2 SWAP1 PUSH2 0x1219 JUMP JUMPDEST PUSH2 0x5A5 JUMP JUMPDEST STOP JUMPDEST PUSH2 0x2B7 PUSH1 0x4 DUP1 CALLDATASIZE SUB DUP2 ADD SWAP1 PUSH2 0x2B2 SWAP2 SWAP1 PUSH2 0x1219 JUMP JUMPDEST PUSH2 0x5BB JUMP JUMPDEST PUSH1 0x40 MLOAD PUSH2 0x2C4 SWAP2 SWAP1 PUSH2 0x1274 JUMP JUMPDEST PUSH1 0x40 MLOAD DUP1 SWAP2 SUB SWAP1 RETURN JUMPDEST PUSH2 0x2E7 PUSH1 0x4 DUP1 CALLDATASIZE SUB DUP2 ADD SWAP1 PUSH2 0x2E2 SWAP2 SWAP1 PUSH2 0x1219 JUMP JUMPDEST PUSH2 0x632 JUMP JUMPDEST PUSH1 0x40 MLOAD PUSH2 0x2F4 SWAP2 SWAP1 PUSH2 0x1274 JUMP JUMPDEST PUSH1 0x40 MLOAD DUP1 SWAP2 SUB SWAP1 RETURN JUMPDEST PUSH2 0x317 PUSH1 0x4 DUP1 CALLDATASIZE SUB DUP2 ADD SWAP1 PUSH2 0x312 SWAP2 SWAP1 PUSH2 0x139A JUMP JUMPDEST PUSH2 0x655 JUMP JUMPDEST PUSH1 0x40 MLOAD PUSH2 0x324 SWAP2 SWAP1 PUSH2 0x129E JUMP JUMPDEST PUSH1 0x40 MLOAD DUP1 SWAP2 SUB SWAP1 RETURN JUMPDEST PUSH2 0x347 PUSH1 0x4 DUP1 CALLDATASIZE SUB DUP2 ADD SWAP1 PUSH2 0x342 SWAP2 SWAP1 PUSH2 0x1343 JUMP JUMPDEST PUSH2 0x6DC JUMP JUMPDEST STOP JUMPDEST PUSH1 0x60 PUSH1 0x3 DUP1 SLOAD PUSH2 0x358 SWAP1 PUSH2 0x1409 JUMP JUMPDEST DUP1 PUSH1 0x1F ADD PUSH1 0x20 DUP1 SWAP2 DIV MUL PUSH1 0x20 ADD PUSH1 0x40 MLOAD SWAP1 DUP2 ADD PUSH1 0x40 MSTORE DUP1 SWAP3 SWAP2 SWAP1 DUP2 DUP2 MSTORE PUSH1 0x20 ADD DUP3 DUP1 SLOAD PUSH2 0x384 SWAP1 PUSH2 0x1409 JUMP JUMPDEST DUP1 ISZERO PUSH2 0x3D1 JUMPI DUP1 PUSH1 0x1F LT PUSH2 0x3A6 JUMPI PUSH2 0x100 DUP1 DUP4 SLOAD DIV MUL DUP4 MSTORE SWAP2 PUSH1 0x20 ADD SWAP2 PUSH2 0x3D1 JUMP JUMPDEST DUP3 ADD SWAP2 SWAP1 PUSH1 0x0 MSTORE PUSH1 0x20 PUSH1 0x0 KECCAK256 SWAP1 JUMPDEST DUP2 SLOAD DUP2 MSTORE SWAP1 PUSH1 0x1 ADD SWAP1 PUSH1 0x20 ADD DUP1 DUP4 GT PUSH2 0x3B4 JUMPI DUP3 SWAP1 SUB PUSH1 0x1F AND DUP3 ADD SWAP2 JUMPDEST POP POP POP POP POP SWAP1 POP SWAP1 JUMP JUMPDEST PUSH1 0x0 DUP1 PUSH2 0x3E6 PUSH2 0x760 JUMP JUMPDEST SWAP1 POP PUSH2 0x3F3 DUP2 DUP6 DUP6 PUSH2 0x768 JUMP JUMPDEST PUSH1 0x1 SWAP2 POP POP SWAP3 SWAP2 POP POP JUMP JUMPDEST PUSH1 0x0 PUSH1 0x2 SLOAD SWAP1 POP SWAP1 JUMP JUMPDEST PUSH1 0x0 DUP1 PUSH2 0x413 PUSH2 0x760 JUMP JUMPDEST SWAP1 POP PUSH2 0x420 DUP6 DUP3 DUP6 PUSH2 0x933 JUMP JUMPDEST PUSH2 0x42B DUP6 DUP6 DUP6 PUSH2 0x9BF JUMP JUMPDEST PUSH1 0x1 SWAP2 POP POP SWAP4 SWAP3 POP POP POP JUMP JUMPDEST PUSH1 0x0 PUSH1 0x12 SWAP1 POP SWAP1 JUMP JUMPDEST PUSH1 0x0 DUP1 PUSH2 0x44B PUSH2 0x760 JUMP JUMPDEST SWAP1 POP PUSH2 0x46C DUP2 DUP6 DUP6 PUSH2 0x45D DUP6 DUP10 PUSH2 0x655 JUMP JUMPDEST PUSH2 0x467 SWAP2 SWAP1 PUSH2 0x146A JUMP JUMPDEST PUSH2 0x768 JUMP JUMPDEST PUSH1 0x1 SWAP2 POP POP SWAP3 SWAP2 POP POP JUMP JUMPDEST PUSH2 0x47F PUSH2 0xC40 JUMP JUMPDEST PUSH2 0x489 DUP3 DUP3 PUSH2 0xCBE JUMP JUMPDEST POP POP JUMP JUMPDEST PUSH1 0x0 DUP1 PUSH1 0x0 DUP4 PUSH20 0xFFFFFFFFFFFFFFFFFFFFFFFFFFFFFFFFFFFFFFFF AND PUSH20 0xFFFFFFFFFFFFFFFFFFFFFFFFFFFFFFFFFFFFFFFF AND DUP2 MSTORE PUSH1 0x20 ADD SWAP1 DUP2 MSTORE PUSH1 0x20 ADD PUSH1 0x0 KECCAK256 SLOAD SWAP1 POP SWAP2 SWAP1 POP JUMP JUMPDEST PUSH2 0x4DD PUSH2 0xC40 JUMP JUMPDEST PUSH2 0x4E7 PUSH1 0x0 PUSH2 0xE1E JUMP JUMPDEST JUMP JUMPDEST PUSH1 0x0 PUSH1 0x5 PUSH1 0x0 SWAP1 SLOAD SWAP1 PUSH2 0x100 EXP SWAP1 DIV PUSH20 0xFFFFFFFFFFFFFFFFFFFFFFFFFFFFFFFFFFFFFFFF AND SWAP1 POP SWAP1 JUMP JUMPDEST PUSH1 0x60 PUSH1 0x4 DUP1 SLOAD PUSH2 0x522 SWAP1 PUSH2 0x1409 JUMP JUMPDEST DUP1 PUSH1 0x1F ADD PUSH1 0x20 DUP1 SWAP2 DIV MUL PUSH1 0x20 ADD PUSH1 0x40 MLOAD SWAP1 DUP2 ADD PUSH1 0x40 MSTORE DUP1 SWAP3 SWAP2 SWAP1 DUP2 DUP2 MSTORE PUSH1 0x20 ADD DUP3 DUP1 SLOAD PUSH2 0x54E SWAP1 PUSH2 0x1409 JUMP JUMPDEST DUP1 ISZERO PUSH2 0x59B JUMPI DUP1 PUSH1 0x1F LT PUSH2 0x570 JUMPI PUSH2 0x100 DUP1 DUP4 SLOAD DIV MUL DUP4 MSTORE SWAP2 PUSH1 0x20 ADD SWAP2 PUSH2 0x59B JUMP JUMPDEST DUP3 ADD SWAP2 SWAP1 PUSH1 0x0 MSTORE PUSH1 0x20 PUSH1 0x0 KECCAK256 SWAP1 JUMPDEST DUP2 SLOAD DUP2 MSTORE SWAP1 PUSH1 0x1 ADD SWAP1 PUSH1 0x20 ADD DUP1 DUP4 GT PUSH2 0x57E JUMPI DUP3 SWAP1 SUB PUSH1 0x1F AND DUP3 ADD SWAP2 JUMPDEST POP POP POP POP POP SWAP1 POP SWAP1 JUMP JUMPDEST PUSH2 0x5AD PUSH2 0xC40 JUMP JUMPDEST PUSH2 0x5B7 DUP3 DUP3 PUSH2 0xEE4 JUMP JUMPDEST POP POP JUMP JUMPDEST PUSH1 0x0 DUP1 PUSH2 0x5C6 PUSH2 0x760 JUMP JUMPDEST SWAP1 POP PUSH1 0x0 PUSH2 0x5D4 DUP3 DUP7 PUSH2 0x655 JUMP JUMPDEST SWAP1 POP DUP4 DUP2 LT ISZERO PUSH2 0x619 JUMPI PUSH1 0x40 MLOAD PUSH32 0x8C379A000000000000000000000000000000000000000000000000000000000 DUP2 MSTORE PUSH1 0x4 ADD PUSH2 0x610 SWAP1 PUSH2 0x1532 JUMP JUMPDEST PUSH1 0x40 MLOAD DUP1 SWAP2 SUB SWAP1 REVERT JUMPDEST PUSH2 0x626 DUP3 DUP7 DUP7 DUP5 SUB PUSH2 0x768 JUMP JUMPDEST PUSH1 0x1 SWAP3 POP POP POP SWAP3 SWAP2 POP POP JUMP JUMPDEST PUSH1 0x0 DUP1 PUSH2 0x63D PUSH2 0x760 JUMP JUMPDEST SWAP1 POP PUSH2 0x64A DUP2 DUP6 DUP6 PUSH2 0x9BF JUMP JUMPDEST PUSH1 0x1 SWAP2 POP POP SWAP3 SWAP2 POP POP JUMP JUMPDEST PUSH1 0x0 PUSH1 0x1 PUSH1 0x0 DUP5 PUSH20 0xFFFFFFFFFFFFFFFFFFFFFFFFFFFFFFFFFFFFFFFF AND PUSH20 0xFFFFFFFFFFFFFFFFFFFFFFFFFFFFFFFFFFFFFFFF AND DUP2 MSTORE PUSH1 0x20 ADD SWAP1 DUP2 MSTORE PUSH1 0x20 ADD PUSH1 0x0 KECCAK256 PUSH1 0x0 DUP4 PUSH20 0xFFFFFFFFFFFFFFFFFFFFFFFFFFFFFFFFFFFFFFFF AND PUSH20 0xFFFFFFFFFFFFFFFFFFFFFFFFFFFFFFFFFFFFFFFF AND DUP2 MSTORE PUSH1 0x20 ADD SWAP1 DUP2 MSTORE PUSH1 0x20 ADD PUSH1 0x0 KECCAK256 SLOAD SWAP1 POP SWAP3 SWAP2 POP POP JUMP JUMPDEST PUSH2 0x6E4 PUSH2 0xC40 JUMP JUMPDEST PUSH1 0x0 PUSH20 0xFFFFFFFFFFFFFFFFFFFFFFFFFFFFFFFFFFFFFFFF AND DUP2 PUSH20 0xFFFFFFFFFFFFFFFFFFFFFFFFFFFFFFFFFFFFFFFF AND EQ ISZERO PUSH2 0x754 JUMPI PUSH1 0x40 MLOAD PUSH32 0x8C379A000000000000000000000000000000000000000000000000000000000 DUP2 MSTORE PUSH1 0x4 ADD PUSH2 0x74B SWAP1 PUSH2 0x15C4 JUMP JUMPDEST PUSH1 0x40 MLOAD DUP1 SWAP2 SUB SWAP1 REVERT JUMPDEST PUSH2 0x75D DUP2 PUSH2 0xE1E JUMP JUMPDEST POP JUMP JUMPDEST PUSH1 0x0 CALLER SWAP1 POP SWAP1 JUMP JUMPDEST PUSH1 0x0 PUSH20 0xFFFFFFFFFFFFFFFFFFFFFFFFFFFFFFFFFFFFFFFF AND DUP4 PUSH20 0xFFFFFFFFFFFFFFFFFFFFFFFFFFFFFFFFFFFFFFFF AND EQ ISZERO PUSH2 0x7D8 JUMPI PUSH1 0x40 MLOAD PUSH32 0x8C379A000000000000000000000000000000000000000000000000000000000 DUP2 MSTORE PUSH1 0x4 ADD PUSH2 0x7CF SWAP1 PUSH2 0x1656 JUMP JUMPDEST PUSH1 0x40 MLOAD DUP1 SWAP2 SUB SWAP1 REVERT JUMPDEST PUSH1 0x0 PUSH20 0xFFFFFFFFFFFFFFFFFFFFFFFFFFFFFFFFFFFFFFFF AND DUP3 PUSH20 0xFFFFFFFFFFFFFFFFFFFFFFFFFFFFFFFFFFFFFFFF AND EQ ISZERO PUSH2 0x848 JUMPI PUSH1 0x40 MLOAD PUSH32 0x8C379A000000000000000000000000000000000000000000000000000000000 DUP2 MSTORE PUSH1 0x4 ADD PUSH2 0x83F SWAP1 PUSH2 0x16E8 JUMP JUMPDEST PUSH1 0x40 MLOAD DUP1 SWAP2 SUB SWAP1 REVERT JUMPDEST DUP1 PUSH1 0x1 PUSH1 0x0 DUP6 PUSH20 0xFFFFFFFFFFFFFFFFFFFFFFFFFFFFFFFFFFFFFFFF AND PUSH20 0xFFFFFFFFFFFFFFFFFFFFFFFFFFFFFFFFFFFFFFFF AND DUP2 MSTORE PUSH1 0x20 ADD SWAP1 DUP2 MSTORE PUSH1 0x20 ADD PUSH1 0x0 KECCAK256 PUSH1 0x0 DUP5 PUSH20 0xFFFFFFFFFFFFFFFFFFFFFFFFFFFFFFFFFFFFFFFF AND PUSH20 0xFFFFFFFFFFFFFFFFFFFFFFFFFFFFFFFFFFFFFFFF AND DUP2 MSTORE PUSH1 0x20 ADD SWAP1 DUP2 MSTORE PUSH1 0x20 ADD PUSH1 0x0 KECCAK256 DUP2 SWAP1 SSTORE POP DUP2 PUSH20 0xFFFFFFFFFFFFFFFFFFFFFFFFFFFFFFFFFFFFFFFF AND DUP4 PUSH20 0xFFFFFFFFFFFFFFFFFFFFFFFFFFFFFFFFFFFFFFFF AND PUSH32 0x8C5BE1E5EBEC7D5BD14F71427D1E84F3DD0314C0F7B2291E5B200AC8C7C3B925 DUP4 PUSH1 0x40 MLOAD PUSH2 0x926 SWAP2 SWAP1 PUSH2 0x129E JUMP JUMPDEST PUSH1 0x40 MLOAD DUP1 SWAP2 SUB SWAP1 LOG3 POP POP POP JUMP JUMPDEST PUSH1 0x0 PUSH2 0x93F DUP5 DUP5 PUSH2 0x655 JUMP JUMPDEST SWAP1 POP PUSH32 0xFFFFFFFFFFFFFFFFFFFFFFFFFFFFFFFFFFFFFFFFFFFFFFFFFFFFFFFFFFFFFFFF DUP2 EQ PUSH2 0x9B9 JUMPI DUP2 DUP2 LT ISZERO PUSH2 0x9AB JUMPI PUSH1 0x40 MLOAD PUSH32 0x8C379A000000000000000000000000000000000000000000000000000000000 DUP2 MSTORE PUSH1 0x4 ADD PUSH2 0x9A2 SWAP1 PUSH2 0x1754 JUMP JUMPDEST PUSH1 0x40 MLOAD DUP1 SWAP2 SUB SWAP1 REVERT JUMPDEST PUSH2 0x9B8 DUP5 DUP5 DUP5 DUP5 SUB PUSH2 0x768 JUMP JUMPDEST JUMPDEST POP POP POP POP JUMP JUMPDEST PUSH1 0x0 PUSH20 0xFFFFFFFFFFFFFFFFFFFFFFFFFFFFFFFFFFFFFFFF AND DUP4 PUSH20 0xFFFFFFFFFFFFFFFFFFFFFFFFFFFFFFFFFFFFFFFF AND EQ ISZERO PUSH2 0xA2F JUMPI PUSH1 0x40 MLOAD PUSH32 0x8C379A000000000000000000000000000000000000000000000000000000000 DUP2 MSTORE PUSH1 0x4 ADD PUSH2 0xA26 SWAP1 PUSH2 0x17E6 JUMP JUMPDEST PUSH1 0x40 MLOAD DUP1 SWAP2 SUB SWAP1 REVERT JUMPDEST PUSH1 0x0 PUSH20 0xFFFFFFFFFFFFFFFFFFFFFFFFFFFFFFFFFFFFFFFF AND DUP3 PUSH20 0xFFFFFFFFFFFFFFFFFFFFFFFFFFFFFFFFFFFFFFFF AND EQ ISZERO PUSH2 0xA9F JUMPI PUSH1 0x40 MLOAD PUSH32 0x8C379A000000000000000000000000000000000000000000000000000000000 DUP2 MSTORE PUSH1 0x4 ADD PUSH2 0xA96 SWAP1 PUSH2 0x1878 JUMP JUMPDEST PUSH1 0x40 MLOAD DUP1 SWAP2 SUB SWAP1 REVERT JUMPDEST PUSH2 0xAAA DUP4 DUP4 DUP4 PUSH2 0x10BB JUMP JUMPDEST PUSH1 0x0 DUP1 PUSH1 0x0 DUP6 PUSH20 0xFFFFFFFFFFFFFFFFFFFFFFFFFFFFFFFFFFFFFFFF AND PUSH20 0xFFFFFFFFFFFFFFFFFFFFFFFFFFFFFFFFFFFFFFFF AND DUP2 MSTORE PUSH1 0x20 ADD SWAP1 DUP2 MSTORE PUSH1 0x20 ADD PUSH1 0x0 KECCAK256 SLOAD SWAP1 POP DUP2 DUP2 LT ISZERO PUSH2 0xB30 JUMPI PUSH1 0x40 MLOAD PUSH32 0x8C379A000000000000000000000000000000000000000000000000000000000 DUP2 MSTORE PUSH1 0x4 ADD PUSH2 0xB27 SWAP1 PUSH2 0x190A JUMP JUMPDEST PUSH1 0x40 MLOAD DUP1 SWAP2 SUB SWAP1 REVERT JUMPDEST DUP2 DUP2 SUB PUSH1 0x0 DUP1 DUP7 PUSH20 0xFFFFFFFFFFFFFFFFFFFFFFFFFFFFFFFFFFFFFFFF AND PUSH20 0xFFFFFFFFFFFFFFFFFFFFFFFFFFFFFFFFFFFFFFFF AND DUP2 MSTORE PUSH1 0x20 ADD SWAP1 DUP2 MSTORE PUSH1 0x20 ADD PUSH1 0x0 KECCAK256 DUP2 SWAP1 SSTORE POP DUP2 PUSH1 0x0 DUP1 DUP6 PUSH20 0xFFFFFFFFFFFFFFFFFFFFFFFFFFFFFFFFFFFFFFFF AND PUSH20 0xFFFFFFFFFFFFFFFFFFFFFFFFFFFFFFFFFFFFFFFF AND DUP2 MSTORE PUSH1 0x20 ADD SWAP1 DUP2 MSTORE PUSH1 0x20 ADD PUSH1 0x0 KECCAK256 PUSH1 0x0 DUP3 DUP3 SLOAD PUSH2 0xBC3 SWAP2 SWAP1 PUSH2 0x146A JUMP JUMPDEST SWAP3 POP POP DUP2 SWAP1 SSTORE POP DUP3 PUSH20 0xFFFFFFFFFFFFFFFFFFFFFFFFFFFFFFFFFFFFFFFF AND DUP5 PUSH20 0xFFFFFFFFFFFFFFFFFFFFFFFFFFFFFFFFFFFFFFFF AND PUSH32 0xDDF252AD1BE2C89B69C2B068FC378DAA952BA7F163C4A11628F55A4DF523B3EF DUP5 PUSH1 0x40 MLOAD PUSH2 0xC27 SWAP2 SWAP1 PUSH2 0x129E JUMP JUMPDEST PUSH1 0x40 MLOAD DUP1 SWAP2 SUB SWAP1 LOG3 PUSH2 0xC3A DUP5 DUP5 DUP5 PUSH2 0x10C0 JUMP JUMPDEST POP POP POP POP JUMP JUMPDEST PUSH2 0xC48 PUSH2 0x760 JUMP JUMPDEST PUSH20 0xFFFFFFFFFFFFFFFFFFFFFFFFFFFFFFFFFFFFFFFF AND PUSH2 0xC66 PUSH2 0x4E9 JUMP JUMPDEST PUSH20 0xFFFFFFFFFFFFFFFFFFFFFFFFFFFFFFFFFFFFFFFF AND EQ PUSH2 0xCBC JUMPI PUSH1 0x40 MLOAD PUSH32 0x8C379A000000000000000000000000000000000000000000000000000000000 DUP2 MSTORE PUSH1 0x4 ADD PUSH2 0xCB3 SWAP1 PUSH2 0x1976 JUMP JUMPDEST PUSH1 0x40 MLOAD DUP1 SWAP2 SUB SWAP1 REVERT JUMPDEST JUMP JUMPDEST PUSH1 0x0 PUSH20 0xFFFFFFFFFFFFFFFFFFFFFFFFFFFFFFFFFFFFFFFF AND DUP3 PUSH20 0xFFFFFFFFFFFFFFFFFFFFFFFFFFFFFFFFFFFFFFFF AND EQ ISZERO PUSH2 0xD2E JUMPI PUSH1 0x40 MLOAD PUSH32 0x8C379A000000000000000000000000000000000000000000000000000000000 DUP2 MSTORE PUSH1 0x4 ADD PUSH2 0xD25 SWAP1 PUSH2 0x19E2 JUMP JUMPDEST PUSH1 0x40 MLOAD DUP1 SWAP2 SUB SWAP1 REVERT JUMPDEST PUSH2 0xD3A PUSH1 0x0 DUP4 DUP4 PUSH2 0x10BB JUMP JUMPDEST DUP1 PUSH1 0x2 PUSH1 0x0 DUP3 DUP3 SLOAD PUSH2 0xD4C SWAP2 SWAP1 PUSH2 0x146A JUMP JUMPDEST SWAP3 POP POP DUP2 SWAP1 SSTORE POP DUP1 PUSH1 0x0 DUP1 DUP5 PUSH20 0xFFFFFFFFFFFFFFFFFFFFFFFFFFFFFFFFFFFFFFFF AND PUSH20 0xFFFFFFFFFFFFFFFFFFFFFFFFFFFFFFFFFFFFFFFF AND DUP2 MSTORE PUSH1 0x20 ADD SWAP1 DUP2 MSTORE PUSH1 0x20 ADD PUSH1 0x0 KECCAK256 PUSH1 0x0 DUP3 DUP3 SLOAD PUSH2 0xDA1 SWAP2 SWAP1 PUSH2 0x146A JUMP JUMPDEST SWAP3 POP POP DUP2 SWAP1 SSTORE POP DUP2 PUSH20 0xFFFFFFFFFFFFFFFFFFFFFFFFFFFFFFFFFFFFFFFF AND PUSH1 0x0 PUSH20 0xFFFFFFFFFFFFFFFFFFFFFFFFFFFFFFFFFFFFFFFF AND PUSH32 0xDDF252AD1BE2C89B69C2B068FC378DAA952BA7F163C4A11628F55A4DF523B3EF DUP4 PUSH1 0x40 MLOAD PUSH2 0xE06 SWAP2 SWAP1 PUSH2 0x129E JUMP JUMPDEST PUSH1 0x40 MLOAD DUP1 SWAP2 SUB SWAP1 LOG3 PUSH2 0xE1A PUSH1 0x0 DUP4 DUP4 PUSH2 0x10C0 JUMP JUMPDEST POP POP JUMP JUMPDEST PUSH1 0x0 PUSH1 0x5 PUSH1 0x0 SWAP1 SLOAD SWAP1 PUSH2 0x100 EXP SWAP1 DIV PUSH20 0xFFFFFFFFFFFFFFFFFFFFFFFFFFFFFFFFFFFFFFFF AND SWAP1 POP DUP2 PUSH1 0x5 PUSH1 0x0 PUSH2 0x100 EXP DUP2 SLOAD DUP2 PUSH20 0xFFFFFFFFFFFFFFFFFFFFFFFFFFFFFFFFFFFFFFFF MUL NOT AND SWAP1 DUP4 PUSH20 0xFFFFFFFFFFFFFFFFFFFFFFFFFFFFFFFFFFFFFFFF AND MUL OR SWAP1 SSTORE POP DUP2 PUSH20 0xFFFFFFFFFFFFFFFFFFFFFFFFFFFFFFFFFFFFFFFF AND DUP2 PUSH20 0xFFFFFFFFFFFFFFFFFFFFFFFFFFFFFFFFFFFFFFFF AND PUSH32 0x8BE0079C531659141344CD1FD0A4F28419497F9722A3DAAFE3B4186F6B6457E0 PUSH1 0x40 MLOAD PUSH1 0x40 MLOAD DUP1 SWAP2 SUB SWAP1 LOG3 POP POP JUMP JUMPDEST PUSH1 0x0 PUSH20 0xFFFFFFFFFFFFFFFFFFFFFFFFFFFFFFFFFFFFFFFF AND DUP3 PUSH20 0xFFFFFFFFFFFFFFFFFFFFFFFFFFFFFFFFFFFFFFFF AND EQ ISZERO PUSH2 0xF54 JUMPI PUSH1 0x40 MLOAD PUSH32 0x8C379A000000000000000000000000000000000000000000000000000000000 DUP2 MSTORE PUSH1 0x4 ADD PUSH2 0xF4B SWAP1 PUSH2 0x1A74 JUMP JUMPDEST PUSH1 0x40 MLOAD DUP1 SWAP2 SUB SWAP1 REVERT JUMPDEST PUSH2 0xF60 DUP3 PUSH1 0x0 DUP4 PUSH2 0x10BB JUMP JUMPDEST PUSH1 0x0 DUP1 PUSH1 0x0 DUP5 PUSH20 0xFFFFFFFFFFFFFFFFFFFFFFFFFFFFFFFFFFFFFFFF AND PUSH20 0xFFFFFFFFFFFFFFFFFFFFFFFFFFFFFFFFFFFFFFFF AND DUP2 MSTORE PUSH1 0x20 ADD SWAP1 DUP2 MSTORE PUSH1 0x20 ADD PUSH1 0x0 KECCAK256 SLOAD SWAP1 POP DUP2 DUP2 LT ISZERO PUSH2 0xFE6 JUMPI PUSH1 0x40 MLOAD PUSH32 0x8C379A000000000000000000000000000000000000000000000000000000000 DUP2 MSTORE PUSH1 0x4 ADD PUSH2 0xFDD SWAP1 PUSH2 0x1B06 JUMP JUMPDEST PUSH1 0x40 MLOAD DUP1 SWAP2 SUB SWAP1 REVERT JUMPDEST DUP2 DUP2 SUB PUSH1 0x0 DUP1 DUP6 PUSH20 0xFFFFFFFFFFFFFFFFFFFFFFFFFFFFFFFFFFFFFFFF AND PUSH20 0xFFFFFFFFFFFFFFFFFFFFFFFFFFFFFFFFFFFFFFFF AND DUP2 MSTORE PUSH1 0x20 ADD SWAP1 DUP2 MSTORE PUSH1 0x20 ADD PUSH1 0x0 KECCAK256 DUP2 SWAP1 SSTORE POP DUP2 PUSH1 0x2 PUSH1 0x0 DUP3 DUP3 SLOAD PUSH2 0x103D SWAP2 SWAP1 PUSH2 0x1B26 JUMP JUMPDEST SWAP3 POP POP DUP2 SWAP1 SSTORE POP PUSH1 0x0 PUSH20 0xFFFFFFFFFFFFFFFFFFFFFFFFFFFFFFFFFFFFFFFF AND DUP4 PUSH20 0xFFFFFFFFFFFFFFFFFFFFFFFFFFFFFFFFFFFFFFFF AND PUSH32 0xDDF252AD1BE2C89B69C2B068FC378DAA952BA7F163C4A11628F55A4DF523B3EF DUP5 PUSH1 0x40 MLOAD PUSH2 0x10A2 SWAP2 SWAP1 PUSH2 0x129E JUMP JUMPDEST PUSH1 0x40 MLOAD DUP1 SWAP2 SUB SWAP1 LOG3 PUSH2 0x10B6 DUP4 PUSH1 0x0 DUP5 PUSH2 0x10C0 JUMP JUMPDEST POP POP POP JUMP JUMPDEST POP POP POP JUMP JUMPDEST POP POP POP JUMP JUMPDEST PUSH1 0x0 DUP2 MLOAD SWAP1 POP SWAP2 SWAP1 POP JUMP JUMPDEST PUSH1 0x0 DUP3 DUP3 MSTORE PUSH1 0x20 DUP3 ADD SWAP1 POP SWAP3 SWAP2 POP POP JUMP JUMPDEST PUSH1 0x0 JUMPDEST DUP4 DUP2 LT ISZERO PUSH2 0x10FF JUMPI DUP1 DUP3 ADD MLOAD DUP2 DUP5 ADD MSTORE PUSH1 0x20 DUP2 ADD SWAP1 POP PUSH2 0x10E4 JUMP JUMPDEST DUP4 DUP2 GT ISZERO PUSH2 0x110E JUMPI PUSH1 0x0 DUP5 DUP5 ADD MSTORE JUMPDEST POP POP POP POP JUMP JUMPDEST PUSH1 0x0 PUSH1 0x1F NOT PUSH1 0x1F DUP4 ADD AND SWAP1 POP SWAP2 SWAP1 POP JUMP JUMPDEST PUSH1 0x0 PUSH2 0x1130 DUP3 PUSH2 0x10C5 JUMP JUMPDEST PUSH2 0x113A DUP2 DUP6 PUSH2 0x10D0 JUMP JUMPDEST SWAP4 POP PUSH2 0x114A DUP2 DUP6 PUSH1 0x20 DUP7 ADD PUSH2 0x10E1 JUMP JUMPDEST PUSH2 0x1153 DUP2 PUSH2 0x1114 JUMP JUMPDEST DUP5 ADD SWAP2 POP POP SWAP3 SWAP2 POP POP JUMP JUMPDEST PUSH1 0x0 PUSH1 0x20 DUP3 ADD SWAP1 POP DUP2 DUP2 SUB PUSH1 0x0 DUP4 ADD MSTORE PUSH2 0x1178 DUP2 DUP5 PUSH2 0x1125 JUMP JUMPDEST SWAP1 POP SWAP3 SWAP2 POP POP JUMP JUMPDEST PUSH1 0x0 DUP1 REVERT JUMPDEST PUSH1 0x0 PUSH20 0xFFFFFFFFFFFFFFFFFFFFFFFFFFFFFFFFFFFFFFFF DUP3 AND SWAP1 POP SWAP2 SWAP1 POP JUMP JUMPDEST PUSH1 0x0 PUSH2 0x11B0 DUP3 PUSH2 0x1185 JUMP JUMPDEST SWAP1 POP SWAP2 SWAP1 POP JUMP JUMPDEST PUSH2 0x11C0 DUP2 PUSH2 0x11A5 JUMP JUMPDEST DUP2 EQ PUSH2 0x11CB JUMPI PUSH1 0x0 DUP1 REVERT JUMPDEST POP JUMP JUMPDEST PUSH1 0x0 DUP2 CALLDATALOAD SWAP1 POP PUSH2 0x11DD DUP2 PUSH2 0x11B7 JUMP JUMPDEST SWAP3 SWAP2 POP POP JUMP JUMPDEST PUSH1 0x0 DUP2 SWAP1 POP SWAP2 SWAP1 POP JUMP JUMPDEST PUSH2 0x11F6 DUP2 PUSH2 0x11E3 JUMP JUMPDEST DUP2 EQ PUSH2 0x1201 JUMPI PUSH1 0x0 DUP1 REVERT JUMPDEST POP JUMP JUMPDEST PUSH1 0x0 DUP2 CALLDATALOAD SWAP1 POP PUSH2 0x1213 DUP2 PUSH2 0x11ED JUMP JUMPDEST SWAP3 SWAP2 POP POP JUMP JUMPDEST PUSH1 0x0 DUP1 PUSH1 0x40 DUP4 DUP6 SUB SLT ISZERO PUSH2 0x1230 JUMPI PUSH2 0x122F PUSH2 0x1180 JUMP JUMPDEST JUMPDEST PUSH1 0x0 PUSH2 0x123E DUP6 DUP3 DUP7 ADD PUSH2 0x11CE JUMP JUMPDEST SWAP3 POP POP PUSH1 0x20 PUSH2 0x124F DUP6 DUP3 DUP7 ADD PUSH2 0x1204 JUMP JUMPDEST SWAP2 POP POP SWAP3 POP SWAP3 SWAP1 POP JUMP JUMPDEST PUSH1 0x0 DUP2 ISZERO ISZERO SWAP1 POP SWAP2 SWAP1 POP JUMP JUMPDEST PUSH2 0x126E DUP2 PUSH2 0x1259 JUMP JUMPDEST DUP3 MSTORE POP POP JUMP JUMPDEST PUSH1 0x0 PUSH1 0x20 DUP3 ADD SWAP1 POP PUSH2 0x1289 PUSH1 0x0 DUP4 ADD DUP5 PUSH2 0x1265 JUMP JUMPDEST SWAP3 SWAP2 POP POP JUMP JUMPDEST PUSH2 0x1298 DUP2 PUSH2 0x11E3 JUMP JUMPDEST DUP3 MSTORE POP POP JUMP JUMPDEST PUSH1 0x0 PUSH1 0x20 DUP3 ADD SWAP1 POP PUSH2 0x12B3 PUSH1 0x0 DUP4 ADD DUP5 PUSH2 0x128F JUMP JUMPDEST SWAP3 SWAP2 POP POP JUMP JUMPDEST PUSH1 0x0 DUP1 PUSH1 0x0 PUSH1 0x60 DUP5 DUP7 SUB SLT ISZERO PUSH2 0x12D2 JUMPI PUSH2 0x12D1 PUSH2 0x1180 JUMP JUMPDEST JUMPDEST PUSH1 0x0 PUSH2 0x12E0 DUP7 DUP3 DUP8 ADD PUSH2 0x11CE JUMP JUMPDEST SWAP4 POP POP PUSH1 0x20 PUSH2 0x12F1 DUP7 DUP3 DUP8 ADD PUSH2 0x11CE JUMP JUMPDEST SWAP3 POP POP PUSH1 0x40 PUSH2 0x1302 DUP7 DUP3 DUP8 ADD PUSH2 0x1204 JUMP JUMPDEST SWAP2 POP POP SWAP3 POP SWAP3 POP SWAP3 JUMP JUMPDEST PUSH1 0x0 PUSH1 0xFF DUP3 AND SWAP1 POP SWAP2 SWAP1 POP JUMP JUMPDEST PUSH2 0x1322 DUP2 PUSH2 0x130C JUMP JUMPDEST DUP3 MSTORE POP POP JUMP JUMPDEST PUSH1 0x0 PUSH1 0x20 DUP3 ADD SWAP1 POP PUSH2 0x133D PUSH1 0x0 DUP4 ADD DUP5 PUSH2 0x1319 JUMP JUMPDEST SWAP3 SWAP2 POP POP JUMP JUMPDEST PUSH1 0x0 PUSH1 0x20 DUP3 DUP5 SUB SLT ISZERO PUSH2 0x1359 JUMPI PUSH2 0x1358 PUSH2 0x1180 JUMP JUMPDEST JUMPDEST PUSH1 0x0 PUSH2 0x1367 DUP5 DUP3 DUP6 ADD PUSH2 0x11CE JUMP JUMPDEST SWAP2 POP POP SWAP3 SWAP2 POP POP JUMP JUMPDEST PUSH2 0x1379 DUP2 PUSH2 0x11A5 JUMP JUMPDEST DUP3 MSTORE POP POP JUMP JUMPDEST PUSH1 0x0 PUSH1 0x20 DUP3 ADD SWAP1 POP PUSH2 0x1394 PUSH1 0x0 DUP4 ADD DUP5 PUSH2 0x1370 JUMP JUMPDEST SWAP3 SWAP2 POP POP JUMP JUMPDEST PUSH1 0x0 DUP1 PUSH1 0x40 DUP4 DUP6 SUB SLT ISZERO PUSH2 0x13B1 JUMPI PUSH2 0x13B0 PUSH2 0x1180 JUMP JUMPDEST JUMPDEST PUSH1 0x0 PUSH2 0x13BF DUP6 DUP3 DUP7 ADD PUSH2 0x11CE JUMP JUMPDEST SWAP3 POP POP PUSH1 0x20 PUSH2 0x13D0 DUP6 DUP3 DUP7 ADD PUSH2 0x11CE JUMP JUMPDEST SWAP2 POP POP SWAP3 POP SWAP3 SWAP1 POP JUMP JUMPDEST PUSH32 0x4E487B7100000000000000000000000000000000000000000000000000000000 PUSH1 0x0 MSTORE PUSH1 0x22 PUSH1 0x4 MSTORE PUSH1 0x24 PUSH1 0x0 REVERT JUMPDEST PUSH1 0x0 PUSH1 0x2 DUP3 DIV SWAP1 POP PUSH1 0x1 DUP3 AND DUP1 PUSH2 0x1421 JUMPI PUSH1 0x7F DUP3 AND SWAP2 POP JUMPDEST PUSH1 0x20 DUP3 LT DUP2 EQ ISZERO PUSH2 0x1435 JUMPI PUSH2 0x1434 PUSH2 0x13DA JUMP JUMPDEST JUMPDEST POP SWAP2 SWAP1 POP JUMP JUMPDEST PUSH32 0x4E487B7100000000000000000000000000000000000000000000000000000000 PUSH1 0x0 MSTORE PUSH1 0x11 PUSH1 0x4 MSTORE PUSH1 0x24 PUSH1 0x0 REVERT JUMPDEST PUSH1 0x0 PUSH2 0x1475 DUP3 PUSH2 0x11E3 JUMP JUMPDEST SWAP2 POP PUSH2 0x1480 DUP4 PUSH2 0x11E3 JUMP JUMPDEST SWAP3 POP DUP3 PUSH32 0xFFFFFFFFFFFFFFFFFFFFFFFFFFFFFFFFFFFFFFFFFFFFFFFFFFFFFFFFFFFFFFFF SUB DUP3 GT ISZERO PUSH2 0x14B5 JUMPI PUSH2 0x14B4 PUSH2 0x143B JUMP JUMPDEST JUMPDEST DUP3 DUP3 ADD SWAP1 POP SWAP3 SWAP2 POP POP JUMP JUMPDEST PUSH32 0x45524332303A2064656372656173656420616C6C6F77616E63652062656C6F77 PUSH1 0x0 DUP3 ADD MSTORE PUSH32 0x207A65726F000000000000000000000000000000000000000000000000000000 PUSH1 0x20 DUP3 ADD MSTORE POP JUMP JUMPDEST PUSH1 0x0 PUSH2 0x151C PUSH1 0x25 DUP4 PUSH2 0x10D0 JUMP JUMPDEST SWAP2 POP PUSH2 0x1527 DUP3 PUSH2 0x14C0 JUMP JUMPDEST PUSH1 0x40 DUP3 ADD SWAP1 POP SWAP2 SWAP1 POP JUMP JUMPDEST PUSH1 0x0 PUSH1 0x20 DUP3 ADD SWAP1 POP DUP2 DUP2 SUB PUSH1 0x0 DUP4 ADD MSTORE PUSH2 0x154B DUP2 PUSH2 0x150F JUMP JUMPDEST SWAP1 POP SWAP2 SWAP1 POP JUMP JUMPDEST PUSH32 0x4F776E61626C653A206E6577206F776E657220697320746865207A65726F2061 PUSH1 0x0 DUP3 ADD MSTORE PUSH32 0x6464726573730000000000000000000000000000000000000000000000000000 PUSH1 0x20 DUP3 ADD MSTORE POP JUMP JUMPDEST PUSH1 0x0 PUSH2 0x15AE PUSH1 0x26 DUP4 PUSH2 0x10D0 JUMP JUMPDEST SWAP2 POP PUSH2 0x15B9 DUP3 PUSH2 0x1552 JUMP JUMPDEST PUSH1 0x40 DUP3 ADD SWAP1 POP SWAP2 SWAP1 POP JUMP JUMPDEST PUSH1 0x0 PUSH1 0x20 DUP3 ADD SWAP1 POP DUP2 DUP2 SUB PUSH1 0x0 DUP4 ADD MSTORE PUSH2 0x15DD DUP2 PUSH2 0x15A1 JUMP JUMPDEST SWAP1 POP SWAP2 SWAP1 POP JUMP JUMPDEST PUSH32 0x45524332303A20617070726F76652066726F6D20746865207A65726F20616464 PUSH1 0x0 DUP3 ADD MSTORE PUSH32 0x7265737300000000000000000000000000000000000000000000000000000000 PUSH1 0x20 DUP3 ADD MSTORE POP JUMP JUMPDEST PUSH1 0x0 PUSH2 0x1640 PUSH1 0x24 DUP4 PUSH2 0x10D0 JUMP JUMPDEST SWAP2 POP PUSH2 0x164B DUP3 PUSH2 0x15E4 JUMP JUMPDEST PUSH1 0x40 DUP3 ADD SWAP1 POP SWAP2 SWAP1 POP JUMP JUMPDEST PUSH1 0x0 PUSH1 0x20 DUP3 ADD SWAP1 POP DUP2 DUP2 SUB PUSH1 0x0 DUP4 ADD MSTORE PUSH2 0x166F DUP2 PUSH2 0x1633 JUMP JUMPDEST SWAP1 POP SWAP2 SWAP1 POP JUMP JUMPDEST PUSH32 0x45524332303A20617070726F766520746F20746865207A65726F206164647265 PUSH1 0x0 DUP3 ADD MSTORE PUSH32 0x7373000000000000000000000000000000000000000000000000000000000000 PUSH1 0x20 DUP3 ADD MSTORE POP JUMP JUMPDEST PUSH1 0x0 PUSH2 0x16D2 PUSH1 0x22 DUP4 PUSH2 0x10D0 JUMP JUMPDEST SWAP2 POP PUSH2 0x16DD DUP3 PUSH2 0x1676 JUMP JUMPDEST PUSH1 0x40 DUP3 ADD SWAP1 POP SWAP2 SWAP1 POP JUMP JUMPDEST PUSH1 0x0 PUSH1 0x20 DUP3 ADD SWAP1 POP DUP2 DUP2 SUB PUSH1 0x0 DUP4 ADD MSTORE PUSH2 0x1701 DUP2 PUSH2 0x16C5 JUMP JUMPDEST SWAP1 POP SWAP2 SWAP1 POP JUMP JUMPDEST PUSH32 0x45524332303A20696E73756666696369656E7420616C6C6F77616E6365000000 PUSH1 0x0 DUP3 ADD MSTORE POP JUMP JUMPDEST PUSH1 0x0 PUSH2 0x173E PUSH1 0x1D DUP4 PUSH2 0x10D0 JUMP JUMPDEST SWAP2 POP PUSH2 0x1749 DUP3 PUSH2 0x1708 JUMP JUMPDEST PUSH1 0x20 DUP3 ADD SWAP1 POP SWAP2 SWAP1 POP JUMP JUMPDEST PUSH1 0x0 PUSH1 0x20 DUP3 ADD SWAP1 POP DUP2 DUP2 SUB PUSH1 0x0 DUP4 ADD MSTORE PUSH2 0x176D DUP2 PUSH2 0x1731 JUMP JUMPDEST SWAP1 POP SWAP2 SWAP1 POP JUMP JUMPDEST PUSH32 0x45524332303A207472616E736665722066726F6D20746865207A65726F206164 PUSH1 0x0 DUP3 ADD MSTORE PUSH32 0x6472657373000000000000000000000000000000000000000000000000000000 PUSH1 0x20 DUP3 ADD MSTORE POP JUMP JUMPDEST PUSH1 0x0 PUSH2 0x17D0 PUSH1 0x25 DUP4 PUSH2 0x10D0 JUMP JUMPDEST SWAP2 POP PUSH2 0x17DB DUP3 PUSH2 0x1774 JUMP JUMPDEST PUSH1 0x40 DUP3 ADD SWAP1 POP SWAP2 SWAP1 POP JUMP JUMPDEST PUSH1 0x0 PUSH1 0x20 DUP3 ADD SWAP1 POP DUP2 DUP2 SUB PUSH1 0x0 DUP4 ADD MSTORE PUSH2 0x17FF DUP2 PUSH2 0x17C3 JUMP JUMPDEST SWAP1 POP SWAP2 SWAP1 POP JUMP JUMPDEST PUSH32 0x45524332303A207472616E7366657220746F20746865207A65726F2061646472 PUSH1 0x0 DUP3 ADD MSTORE PUSH32 0x6573730000000000000000000000000000000000000000000000000000000000 PUSH1 0x20 DUP3 ADD MSTORE POP JUMP JUMPDEST PUSH1 0x0 PUSH2 0x1862 PUSH1 0x23 DUP4 PUSH2 0x10D0 JUMP JUMPDEST SWAP2 POP PUSH2 0x186D DUP3 PUSH2 0x1806 JUMP JUMPDEST PUSH1 0x40 DUP3 ADD SWAP1 POP SWAP2 SWAP1 POP JUMP JUMPDEST PUSH1 0x0 PUSH1 0x20 DUP3 ADD SWAP1 POP DUP2 DUP2 SUB PUSH1 0x0 DUP4 ADD MSTORE PUSH2 0x1891 DUP2 PUSH2 0x1855 JUMP JUMPDEST SWAP1 POP SWAP2 SWAP1 POP JUMP JUMPDEST PUSH32 0x45524332303A207472616E7366657220616D6F756E7420657863656564732062 PUSH1 0x0 DUP3 ADD MSTORE PUSH32 0x616C616E63650000000000000000000000000000000000000000000000000000 PUSH1 0x20 DUP3 ADD MSTORE POP JUMP JUMPDEST PUSH1 0x0 PUSH2 0x18F4 PUSH1 0x26 DUP4 PUSH2 0x10D0 JUMP JUMPDEST SWAP2 POP PUSH2 0x18FF DUP3 PUSH2 0x1898 JUMP JUMPDEST PUSH1 0x40 DUP3 ADD SWAP1 POP SWAP2 SWAP1 POP JUMP JUMPDEST PUSH1 0x0 PUSH1 0x20 DUP3 ADD SWAP1 POP DUP2 DUP2 SUB PUSH1 0x0 DUP4 ADD MSTORE PUSH2 0x1923 DUP2 PUSH2 0x18E7 JUMP JUMPDEST SWAP1 POP SWAP2 SWAP1 POP JUMP JUMPDEST PUSH32 0x4F776E61626C653A2063616C6C6572206973206E6F7420746865206F776E6572 PUSH1 0x0 DUP3 ADD MSTORE POP JUMP JUMPDEST PUSH1 0x0 PUSH2 0x1960 PUSH1 0x20 DUP4 PUSH2 0x10D0 JUMP JUMPDEST SWAP2 POP PUSH2 0x196B DUP3 PUSH2 0x192A JUMP JUMPDEST PUSH1 0x20 DUP3 ADD SWAP1 POP SWAP2 SWAP1 POP JUMP JUMPDEST PUSH1 0x0 PUSH1 0x20 DUP3 ADD SWAP1 POP DUP2 DUP2 SUB PUSH1 0x0 DUP4 ADD MSTORE PUSH2 0x198F DUP2 PUSH2 0x1953 JUMP JUMPDEST SWAP1 POP SWAP2 SWAP1 POP JUMP JUMPDEST PUSH32 0x45524332303A206D696E7420746F20746865207A65726F206164647265737300 PUSH1 0x0 DUP3 ADD MSTORE POP JUMP JUMPDEST PUSH1 0x0 PUSH2 0x19CC PUSH1 0x1F DUP4 PUSH2 0x10D0 JUMP JUMPDEST SWAP2 POP PUSH2 0x19D7 DUP3 PUSH2 0x1996 JUMP JUMPDEST PUSH1 0x20 DUP3 ADD SWAP1 POP SWAP2 SWAP1 POP JUMP JUMPDEST PUSH1 0x0 PUSH1 0x20 DUP3 ADD SWAP1 POP DUP2 DUP2 SUB PUSH1 0x0 DUP4 ADD MSTORE PUSH2 0x19FB DUP2 PUSH2 0x19BF JUMP JUMPDEST SWAP1 POP SWAP2 SWAP1 POP JUMP JUMPDEST PUSH32 0x45524332303A206275726E2066726F6D20746865207A65726F20616464726573 PUSH1 0x0 DUP3 ADD MSTORE PUSH32 0x7300000000000000000000000000000000000000000000000000000000000000 PUSH1 0x20 DUP3 ADD MSTORE POP JUMP JUMPDEST PUSH1 0x0 PUSH2 0x1A5E PUSH1 0x21 DUP4 PUSH2 0x10D0 JUMP JUMPDEST SWAP2 POP PUSH2 0x1A69 DUP3 PUSH2 0x1A02 JUMP JUMPDEST PUSH1 0x40 DUP3 ADD SWAP1 POP SWAP2 SWAP1 POP JUMP JUMPDEST PUSH1 0x0 PUSH1 0x20 DUP3 ADD SWAP1 POP DUP2 DUP2 SUB PUSH1 0x0 DUP4 ADD MSTORE PUSH2 0x1A8D DUP2 PUSH2 0x1A51 JUMP JUMPDEST SWAP1 POP SWAP2 SWAP1 POP JUMP JUMPDEST PUSH32 0x45524332303A206275726E20616D6F756E7420657863656564732062616C616E PUSH1 0x0 DUP3 ADD MSTORE PUSH32 0x6365000000000000000000000000000000000000000000000000000000000000 PUSH1 0x20 DUP3 ADD MSTORE POP JUMP JUMPDEST PUSH1 0x0 PUSH2 0x1AF0 PUSH1 0x22 DUP4 PUSH2 0x10D0 JUMP JUMPDEST SWAP2 POP PUSH2 0x1AFB DUP3 PUSH2 0x1A94 JUMP JUMPDEST PUSH1 0x40 DUP3 ADD SWAP1 POP SWAP2 SWAP1 POP JUMP JUMPDEST PUSH1 0x0 PUSH1 0x20 DUP3 ADD SWAP1 POP DUP2 DUP2 SUB PUSH1 0x0 DUP4 ADD MSTORE PUSH2 0x1B1F DUP2 PUSH2 0x1AE3 JUMP JUMPDEST SWAP1 POP SWAP2 SWAP1 POP JUMP JUMPDEST PUSH1 0x0 PUSH2 0x1B31 DUP3 PUSH2 0x11E3 JUMP JUMPDEST SWAP2 POP PUSH2 0x1B3C DUP4 PUSH2 0x11E3 JUMP JUMPDEST SWAP3 POP DUP3 DUP3 LT ISZERO PUSH2 0x1B4F JUMPI PUSH2 0x1B4E PUSH2 0x143B JUMP JUMPDEST JUMPDEST DUP3 DUP3 SUB SWAP1 POP SWAP3 SWAP2 POP POP JUMP INVALID LOG2 PUSH5 0x6970667358 0x22 SLT KECCAK256 SWAP1 SWAP15 0x28 SELFBALANCE TIMESTAMP PUSH1 0x3C DIV DUP1 0xC DUP15 0xF 0xCA CALLCODE 0x2D CALL 0xD3 PUSH30 0x66F42669BC06490B8E517699E67964736F6C634300080C00330000000000 "
				},
				"gasEstimates": {
					"creation": {
						"codeDepositCost": "1411200",
						"executionCost": "infinite",
						"totalCost": "infinite"
					},
					"external": {
						"allowance(address,address)": "infinite",
						"approve(address,uint256)": "infinite",
						"balanceOf(address)": "2930",
						"burn(address,uint256)": "infinite",
						"decimals()": "366",
						"decreaseAllowance(address,uint256)": "infinite",
						"increaseAllowance(address,uint256)": "infinite",
						"mint(address,uint256)": "infinite",
						"name()": "infinite",
						"owner()": "2567",
						"renounceOwnership()": "30421",
						"symbol()": "infinite",
						"totalSupply()": "2505",
						"transfer(address,uint256)": "infinite",
						"transferFrom(address,address,uint256)": "infinite",
						"transferOwnership(address)": "30835"
					}
				},
				"methodIdentifiers": {
					"allowance(address,address)": "dd62ed3e",
					"approve(address,uint256)": "095ea7b3",
					"balanceOf(address)": "70a08231",
					"burn(address,uint256)": "9dc29fac",
					"decimals()": "313ce567",
					"decreaseAllowance(address,uint256)": "a457c2d7",
					"increaseAllowance(address,uint256)": "39509351",
					"mint(address,uint256)": "40c10f19",
					"name()": "06fdde03",
					"owner()": "8da5cb5b",
					"renounceOwnership()": "715018a6",
					"symbol()": "95d89b41",
					"totalSupply()": "18160ddd",
					"transfer(address,uint256)": "a9059cbb",
					"transferFrom(address,address,uint256)": "23b872dd",
					"transferOwnership(address)": "f2fde38b"
				}
			},
			"storageLayout": {
				"storage": [
					{
						"astId": 128,
						"contract": "contracts/final/gmdBTC.sol:gmdBTC",
						"label": "_balances",
						"offset": 0,
						"slot": "0",
						"type": "t_mapping(t_address,t_uint256)"
					},
					{
						"astId": 134,
						"contract": "contracts/final/gmdBTC.sol:gmdBTC",
						"label": "_allowances",
						"offset": 0,
						"slot": "1",
						"type": "t_mapping(t_address,t_mapping(t_address,t_uint256))"
					},
					{
						"astId": 136,
						"contract": "contracts/final/gmdBTC.sol:gmdBTC",
						"label": "_totalSupply",
						"offset": 0,
						"slot": "2",
						"type": "t_uint256"
					},
					{
						"astId": 138,
						"contract": "contracts/final/gmdBTC.sol:gmdBTC",
						"label": "_name",
						"offset": 0,
						"slot": "3",
						"type": "t_string_storage"
					},
					{
						"astId": 140,
						"contract": "contracts/final/gmdBTC.sol:gmdBTC",
						"label": "_symbol",
						"offset": 0,
						"slot": "4",
						"type": "t_string_storage"
					},
					{
						"astId": 7,
						"contract": "contracts/final/gmdBTC.sol:gmdBTC",
						"label": "_owner",
						"offset": 0,
						"slot": "5",
						"type": "t_address"
					}
				],
				"types": {
					"t_address": {
						"encoding": "inplace",
						"label": "address",
						"numberOfBytes": "20"
					},
					"t_mapping(t_address,t_mapping(t_address,t_uint256))": {
						"encoding": "mapping",
						"key": "t_address",
						"label": "mapping(address => mapping(address => uint256))",
						"numberOfBytes": "32",
						"value": "t_mapping(t_address,t_uint256)"
					},
					"t_mapping(t_address,t_uint256)": {
						"encoding": "mapping",
						"key": "t_address",
						"label": "mapping(address => uint256)",
						"numberOfBytes": "32",
						"value": "t_uint256"
					},
					"t_string_storage": {
						"encoding": "bytes",
						"label": "string",
						"numberOfBytes": "32"
					},
					"t_uint256": {
						"encoding": "inplace",
						"label": "uint256",
						"numberOfBytes": "32"
					}
				}
			},
			"userdoc": {
				"kind": "user",
				"methods": {},
				"version": 1
			}
		}
	}
}