{
	"contracts/final/GMDstaking.sol": {
		"GMDstaking": {
			"abi": [
				{
					"inputs": [
						{
							"internalType": "uint256",
							"name": "_WETHPerSecond",
							"type": "uint256"
						},
						{
							"internalType": "uint256",
							"name": "_startTime",
							"type": "uint256"
						}
					],
					"stateMutability": "nonpayable",
					"type": "constructor"
				},
				{
					"anonymous": false,
					"inputs": [
						{
							"indexed": true,
							"internalType": "address",
							"name": "user",
							"type": "address"
						},
						{
							"indexed": true,
							"internalType": "uint256",
							"name": "pid",
							"type": "uint256"
						},
						{
							"indexed": false,
							"internalType": "uint256",
							"name": "amount",
							"type": "uint256"
						}
					],
					"name": "Deposit",
					"type": "event"
				},
				{
					"anonymous": false,
					"inputs": [
						{
							"indexed": true,
							"internalType": "address",
							"name": "user",
							"type": "address"
						},
						{
							"indexed": true,
							"internalType": "uint256",
							"name": "pid",
							"type": "uint256"
						},
						{
							"indexed": false,
							"internalType": "uint256",
							"name": "amount",
							"type": "uint256"
						}
					],
					"name": "EmergencyWithdraw",
					"type": "event"
				},
				{
					"anonymous": false,
					"inputs": [
						{
							"indexed": true,
							"internalType": "address",
							"name": "previousOwner",
							"type": "address"
						},
						{
							"indexed": true,
							"internalType": "address",
							"name": "newOwner",
							"type": "address"
						}
					],
					"name": "OwnershipTransferred",
					"type": "event"
				},
				{
					"anonymous": false,
					"inputs": [
						{
							"indexed": true,
							"internalType": "address",
							"name": "user",
							"type": "address"
						},
						{
							"indexed": true,
							"internalType": "uint256",
							"name": "pid",
							"type": "uint256"
						},
						{
							"indexed": false,
							"internalType": "uint256",
							"name": "amount",
							"type": "uint256"
						}
					],
					"name": "Withdraw",
					"type": "event"
				},
				{
					"inputs": [],
					"name": "MaxAllocPoint",
					"outputs": [
						{
							"internalType": "uint256",
							"name": "",
							"type": "uint256"
						}
					],
					"stateMutability": "view",
					"type": "function"
				},
				{
					"inputs": [],
					"name": "WETH",
					"outputs": [
						{
							"internalType": "contract IERC20",
							"name": "",
							"type": "address"
						}
					],
					"stateMutability": "view",
					"type": "function"
				},
				{
					"inputs": [],
					"name": "WETHPerSecond",
					"outputs": [
						{
							"internalType": "uint256",
							"name": "",
							"type": "uint256"
						}
					],
					"stateMutability": "view",
					"type": "function"
				},
				{
					"inputs": [
						{
							"internalType": "uint256",
							"name": "_allocPoint",
							"type": "uint256"
						},
						{
							"internalType": "contract IERC20",
							"name": "_lpToken",
							"type": "address"
						}
					],
					"name": "add",
					"outputs": [],
					"stateMutability": "nonpayable",
					"type": "function"
				},
				{
					"inputs": [],
					"name": "closeWithdraw",
					"outputs": [],
					"stateMutability": "nonpayable",
					"type": "function"
				},
				{
					"inputs": [
						{
							"internalType": "uint256",
							"name": "_pid",
							"type": "uint256"
						},
						{
							"internalType": "uint256",
							"name": "_amount",
							"type": "uint256"
						}
					],
					"name": "deposit",
					"outputs": [],
					"stateMutability": "nonpayable",
					"type": "function"
				},
				{
					"inputs": [],
					"name": "devaddr",
					"outputs": [
						{
							"internalType": "address",
							"name": "",
							"type": "address"
						}
					],
					"stateMutability": "view",
					"type": "function"
				},
				{
					"inputs": [
						{
							"internalType": "uint256",
							"name": "_pid",
							"type": "uint256"
						}
					],
					"name": "emergencyWithdraw",
					"outputs": [],
					"stateMutability": "nonpayable",
					"type": "function"
				},
				{
					"inputs": [
						{
							"internalType": "uint256",
							"name": "_from",
							"type": "uint256"
						},
						{
							"internalType": "uint256",
							"name": "_to",
							"type": "uint256"
						}
					],
					"name": "getMultiplier",
					"outputs": [
						{
							"internalType": "uint256",
							"name": "",
							"type": "uint256"
						}
					],
					"stateMutability": "view",
					"type": "function"
				},
				{
					"inputs": [],
					"name": "massUpdatePools",
					"outputs": [],
					"stateMutability": "nonpayable",
					"type": "function"
				},
				{
					"inputs": [],
					"name": "maxWETHPerSecond",
					"outputs": [
						{
							"internalType": "uint256",
							"name": "",
							"type": "uint256"
						}
					],
					"stateMutability": "view",
					"type": "function"
				},
				{
					"inputs": [],
					"name": "openWithdraw",
					"outputs": [],
					"stateMutability": "nonpayable",
					"type": "function"
				},
				{
					"inputs": [],
					"name": "owner",
					"outputs": [
						{
							"internalType": "address",
							"name": "",
							"type": "address"
						}
					],
					"stateMutability": "view",
					"type": "function"
				},
				{
					"inputs": [
						{
							"internalType": "uint256",
							"name": "_pid",
							"type": "uint256"
						},
						{
							"internalType": "address",
							"name": "_user",
							"type": "address"
						}
					],
					"name": "pendingWETH",
					"outputs": [
						{
							"internalType": "uint256",
							"name": "",
							"type": "uint256"
						}
					],
					"stateMutability": "view",
					"type": "function"
				},
				{
					"inputs": [
						{
							"internalType": "uint256",
							"name": "",
							"type": "uint256"
						}
					],
					"name": "poolInfo",
					"outputs": [
						{
							"internalType": "contract IERC20",
							"name": "lpToken",
							"type": "address"
						},
						{
							"internalType": "uint256",
							"name": "allocPoint",
							"type": "uint256"
						},
						{
							"internalType": "uint256",
							"name": "lastRewardTime",
							"type": "uint256"
						},
						{
							"internalType": "uint256",
							"name": "accWETHPerShare",
							"type": "uint256"
						}
					],
					"stateMutability": "view",
					"type": "function"
				},
				{
					"inputs": [],
					"name": "poolLength",
					"outputs": [
						{
							"internalType": "uint256",
							"name": "",
							"type": "uint256"
						}
					],
					"stateMutability": "view",
					"type": "function"
				},
				{
					"inputs": [],
					"name": "renounceOwnership",
					"outputs": [],
					"stateMutability": "nonpayable",
					"type": "function"
				},
				{
					"inputs": [
						{
							"internalType": "uint256",
							"name": "_pid",
							"type": "uint256"
						},
						{
							"internalType": "uint256",
							"name": "_allocPoint",
							"type": "uint256"
						}
					],
					"name": "set",
					"outputs": [],
					"stateMutability": "nonpayable",
					"type": "function"
				},
				{
					"inputs": [
						{
							"internalType": "uint256",
							"name": "_WETHPerSecond",
							"type": "uint256"
						}
					],
					"name": "setWETHPerSecond",
					"outputs": [],
					"stateMutability": "nonpayable",
					"type": "function"
				},
				{
					"inputs": [],
					"name": "startTime",
					"outputs": [
						{
							"internalType": "uint256",
							"name": "",
							"type": "uint256"
						}
					],
					"stateMutability": "view",
					"type": "function"
				},
				{
					"inputs": [
						{
							"internalType": "uint256",
							"name": "_amount",
							"type": "uint256"
						}
					],
					"name": "supplyRewards",
					"outputs": [],
					"stateMutability": "nonpayable",
					"type": "function"
				},
				{
					"inputs": [],
					"name": "totalAllocPoint",
					"outputs": [
						{
							"internalType": "uint256",
							"name": "",
							"type": "uint256"
						}
					],
					"stateMutability": "view",
					"type": "function"
				},
				{
					"inputs": [],
					"name": "totalWETHdistributed",
					"outputs": [
						{
							"internalType": "uint256",
							"name": "",
							"type": "uint256"
						}
					],
					"stateMutability": "view",
					"type": "function"
				},
				{
					"inputs": [
						{
							"internalType": "address",
							"name": "newOwner",
							"type": "address"
						}
					],
					"name": "transferOwnership",
					"outputs": [],
					"stateMutability": "nonpayable",
					"type": "function"
				},
				{
					"inputs": [
						{
							"internalType": "uint256",
							"name": "_pid",
							"type": "uint256"
						}
					],
					"name": "updatePool",
					"outputs": [],
					"stateMutability": "nonpayable",
					"type": "function"
				},
				{
					"inputs": [
						{
							"internalType": "uint256",
							"name": "",
							"type": "uint256"
						},
						{
							"internalType": "address",
							"name": "",
							"type": "address"
						}
					],
					"name": "userInfo",
					"outputs": [
						{
							"internalType": "uint256",
							"name": "amount",
							"type": "uint256"
						},
						{
							"internalType": "uint256",
							"name": "rewardDebt",
							"type": "uint256"
						}
					],
					"stateMutability": "view",
					"type": "function"
				},
				{
					"inputs": [
						{
							"internalType": "uint256",
							"name": "_pid",
							"type": "uint256"
						},
						{
							"internalType": "uint256",
							"name": "_amount",
							"type": "uint256"
						}
					],
					"name": "withdraw",
					"outputs": [],
					"stateMutability": "nonpayable",
					"type": "function"
				},
				{
					"inputs": [],
					"name": "withdrawable",
					"outputs": [
						{
							"internalType": "bool",
							"name": "",
							"type": "bool"
						}
					],
					"stateMutability": "view",
					"type": "function"
				}
			],
			"devdoc": {
				"kind": "dev",
				"methods": {
					"owner()": {
						"details": "Returns the address of the current owner."
					},
					"renounceOwnership()": {
						"details": "Leaves the contract without owner. It will not be possible to call `onlyOwner` functions anymore. Can only be called by the current owner. NOTE: Renouncing ownership will leave the contract without an owner, thereby removing any functionality that is only available to the owner."
					},
					"transferOwnership(address)": {
						"details": "Transfers ownership of the contract to a new account (`newOwner`). Can only be called by the current owner."
					}
				},
				"version": 1
			},
			"evm": {
				"assembly": "    /* \"contracts/final/GMDstaking.sol\":372:10282  contract GMDstaking is Ownable,ReentrancyGuard {... */\n  mstore(0x40, 0xa0)\n    /* \"contracts/final/GMDstaking.sol\":1774:1816  0x82aF49447D8a07e3bd95BD0d56f35241523fBab1 */\n  0x82af49447d8a07e3bd95bd0d56f35241523fbab1\n    /* \"contracts/final/GMDstaking.sol\":1746:1817  IERC20 public WETH = IERC20(0x82aF49447D8a07e3bd95BD0d56f35241523fBab1) */\n  0x02\n  exp(0x0100, 0x00)\n  dup2\n  sload\n  dup2\n  0xffffffffffffffffffffffffffffffffffffffff\n  mul\n  not\n  and\n  swap1\n  dup4\n  0xffffffffffffffffffffffffffffffffffffffff\n  and\n  mul\n  or\n  swap1\n  sstore\n  pop\n    /* \"contracts/final/GMDstaking.sol\":1990:1991  0 */\n  0x00\n    /* \"contracts/final/GMDstaking.sol\":1952:1991  uint256 public totalWETHdistributed = 0 */\n  0x05\n  sstore\n    /* \"contracts/final/GMDstaking.sol\":2491:2492  0 */\n  0x00\n    /* \"contracts/final/GMDstaking.sol\":2458:2492  uint256 public totalAllocPoint = 0 */\n  0x08\n  sstore\n    /* \"contracts/final/GMDstaking.sol\":2617:2622  false */\n  0x00\n    /* \"contracts/final/GMDstaking.sol\":2590:2622  bool public withdrawable = false */\n  0x09\n  exp(0x0100, 0x00)\n  dup2\n  sload\n  dup2\n  0xff\n  mul\n  not\n  and\n  swap1\n  dup4\n  iszero\n  iszero\n  mul\n  or\n  swap1\n  sstore\n  pop\n    /* \"contracts/final/GMDstaking.sol\":2881:3046  constructor(... */\n  callvalue\n  dup1\n  iszero\n  tag_1\n  jumpi\n  0x00\n  dup1\n  revert\ntag_1:\n  pop\n  mload(0x40)\n  sub(codesize, bytecodeSize)\n  dup1\n  bytecodeSize\n  dup4\n  codecopy\n  dup2\n  dup2\n  add\n  0x40\n  mstore\n  dup2\n  add\n  swap1\n  tag_2\n  swap2\n  swap1\n  tag_3\n  jump\t// in\ntag_2:\n    /* \"@openzeppelin/contracts/access/Ownable.sol\":936:968  _transferOwnership(_msgSender()) */\n  tag_8\n    /* \"@openzeppelin/contracts/access/Ownable.sol\":955:967  _msgSender() */\n  tag_9\n    /* \"@openzeppelin/contracts/access/Ownable.sol\":955:965  _msgSender */\n  shl(0x20, tag_10)\n    /* \"@openzeppelin/contracts/access/Ownable.sol\":955:967  _msgSender() */\n  0x20\n  shr\n  jump\t// in\ntag_9:\n    /* \"@openzeppelin/contracts/access/Ownable.sol\":936:954  _transferOwnership */\n  shl(0x20, tag_11)\n    /* \"@openzeppelin/contracts/access/Ownable.sol\":936:968  _transferOwnership(_msgSender()) */\n  0x20\n  shr\n  jump\t// in\ntag_8:\n    /* \"@openzeppelin/contracts/security/ReentrancyGuard.sol\":1701:1702  1 */\n  0x01\n    /* \"@openzeppelin/contracts/security/ReentrancyGuard.sol\":1806:1813  _status */\n  dup1\n    /* \"@openzeppelin/contracts/security/ReentrancyGuard.sol\":1806:1828  _status = _NOT_ENTERED */\n  dup2\n  swap1\n  sstore\n  pop\n    /* \"contracts/final/GMDstaking.sol\":2991:3005  _WETHPerSecond */\n  dup2\n    /* \"contracts/final/GMDstaking.sol\":2975:2988  WETHPerSecond */\n  0x04\n    /* \"contracts/final/GMDstaking.sol\":2975:3005  WETHPerSecond = _WETHPerSecond */\n  dup2\n  swap1\n  sstore\n  pop\n    /* \"contracts/final/GMDstaking.sol\":3028:3038  _startTime */\n  dup1\n    /* \"contracts/final/GMDstaking.sol\":3016:3038  startTime = _startTime */\n  0x80\n  dup2\n  dup2\n  mstore\n  pop\n  pop\n    /* \"contracts/final/GMDstaking.sol\":2881:3046  constructor(... */\n  pop\n  pop\n    /* \"contracts/final/GMDstaking.sol\":372:10282  contract GMDstaking is Ownable,ReentrancyGuard {... */\n  jump(tag_14)\n    /* \"@openzeppelin/contracts/utils/Context.sol\":640:736  function _msgSender() internal view virtual returns (address) {... */\ntag_10:\n    /* \"@openzeppelin/contracts/utils/Context.sol\":693:700  address */\n  0x00\n    /* \"@openzeppelin/contracts/utils/Context.sol\":719:729  msg.sender */\n  caller\n    /* \"@openzeppelin/contracts/utils/Context.sol\":712:729  return msg.sender */\n  swap1\n  pop\n    /* \"@openzeppelin/contracts/utils/Context.sol\":640:736  function _msgSender() internal view virtual returns (address) {... */\n  swap1\n  jump\t// out\n    /* \"@openzeppelin/contracts/access/Ownable.sol\":2433:2620  function _transferOwnership(address newOwner) internal virtual {... */\ntag_11:\n    /* \"@openzeppelin/contracts/access/Ownable.sol\":2506:2522  address oldOwner */\n  0x00\n    /* \"@openzeppelin/contracts/access/Ownable.sol\":2525:2531  _owner */\n  dup1\n  0x00\n  swap1\n  sload\n  swap1\n  0x0100\n  exp\n  swap1\n  div\n  0xffffffffffffffffffffffffffffffffffffffff\n  and\n    /* \"@openzeppelin/contracts/access/Ownable.sol\":2506:2531  address oldOwner = _owner */\n  swap1\n  pop\n    /* \"@openzeppelin/contracts/access/Ownable.sol\":2550:2558  newOwner */\n  dup2\n    /* \"@openzeppelin/contracts/access/Ownable.sol\":2541:2547  _owner */\n  0x00\n  dup1\n    /* \"@openzeppelin/contracts/access/Ownable.sol\":2541:2558  _owner = newOwner */\n  0x0100\n  exp\n  dup2\n  sload\n  dup2\n  0xffffffffffffffffffffffffffffffffffffffff\n  mul\n  not\n  and\n  swap1\n  dup4\n  0xffffffffffffffffffffffffffffffffffffffff\n  and\n  mul\n  or\n  swap1\n  sstore\n  pop\n    /* \"@openzeppelin/contracts/access/Ownable.sol\":2604:2612  newOwner */\n  dup2\n    /* \"@openzeppelin/contracts/access/Ownable.sol\":2573:2613  OwnershipTransferred(oldOwner, newOwner) */\n  0xffffffffffffffffffffffffffffffffffffffff\n  and\n    /* \"@openzeppelin/contracts/access/Ownable.sol\":2594:2602  oldOwner */\n  dup2\n    /* \"@openzeppelin/contracts/access/Ownable.sol\":2573:2613  OwnershipTransferred(oldOwner, newOwner) */\n  0xffffffffffffffffffffffffffffffffffffffff\n  and\n  0x8be0079c531659141344cd1fd0a4f28419497f9722a3daafe3b4186f6b6457e0\n  mload(0x40)\n  mload(0x40)\n  dup1\n  swap2\n  sub\n  swap1\n  log3\n    /* \"@openzeppelin/contracts/access/Ownable.sol\":2496:2620  {... */\n  pop\n    /* \"@openzeppelin/contracts/access/Ownable.sol\":2433:2620  function _transferOwnership(address newOwner) internal virtual {... */\n  pop\n  jump\t// out\n    /* \"#utility.yul\":88:205   */\ntag_18:\n    /* \"#utility.yul\":197:198   */\n  0x00\n    /* \"#utility.yul\":194:195   */\n  dup1\n    /* \"#utility.yul\":187:199   */\n  revert\n    /* \"#utility.yul\":334:411   */\ntag_20:\n    /* \"#utility.yul\":371:378   */\n  0x00\n    /* \"#utility.yul\":400:405   */\n  dup2\n    /* \"#utility.yul\":389:405   */\n  swap1\n  pop\n    /* \"#utility.yul\":334:411   */\n  swap2\n  swap1\n  pop\n  jump\t// out\n    /* \"#utility.yul\":417:539   */\ntag_21:\n    /* \"#utility.yul\":490:514   */\n  tag_29\n    /* \"#utility.yul\":508:513   */\n  dup2\n    /* \"#utility.yul\":490:514   */\n  tag_20\n  jump\t// in\ntag_29:\n    /* \"#utility.yul\":483:488   */\n  dup2\n    /* \"#utility.yul\":480:515   */\n  eq\n    /* \"#utility.yul\":470:533   */\n  tag_30\n  jumpi\n    /* \"#utility.yul\":529:530   */\n  0x00\n    /* \"#utility.yul\":526:527   */\n  dup1\n    /* \"#utility.yul\":519:531   */\n  revert\n    /* \"#utility.yul\":470:533   */\ntag_30:\n    /* \"#utility.yul\":417:539   */\n  pop\n  jump\t// out\n    /* \"#utility.yul\":545:688   */\ntag_22:\n    /* \"#utility.yul\":602:607   */\n  0x00\n    /* \"#utility.yul\":633:639   */\n  dup2\n    /* \"#utility.yul\":627:640   */\n  mload\n    /* \"#utility.yul\":618:640   */\n  swap1\n  pop\n    /* \"#utility.yul\":649:682   */\n  tag_32\n    /* \"#utility.yul\":676:681   */\n  dup2\n    /* \"#utility.yul\":649:682   */\n  tag_21\n  jump\t// in\ntag_32:\n    /* \"#utility.yul\":545:688   */\n  swap3\n  swap2\n  pop\n  pop\n  jump\t// out\n    /* \"#utility.yul\":694:1201   */\ntag_3:\n    /* \"#utility.yul\":773:779   */\n  0x00\n    /* \"#utility.yul\":781:787   */\n  dup1\n    /* \"#utility.yul\":830:832   */\n  0x40\n    /* \"#utility.yul\":818:827   */\n  dup4\n    /* \"#utility.yul\":809:816   */\n  dup6\n    /* \"#utility.yul\":805:828   */\n  sub\n    /* \"#utility.yul\":801:833   */\n  slt\n    /* \"#utility.yul\":798:917   */\n  iszero\n  tag_34\n  jumpi\n    /* \"#utility.yul\":836:915   */\n  tag_35\n  tag_18\n  jump\t// in\ntag_35:\n    /* \"#utility.yul\":798:917   */\ntag_34:\n    /* \"#utility.yul\":956:957   */\n  0x00\n    /* \"#utility.yul\":981:1045   */\n  tag_36\n    /* \"#utility.yul\":1037:1044   */\n  dup6\n    /* \"#utility.yul\":1028:1034   */\n  dup3\n    /* \"#utility.yul\":1017:1026   */\n  dup7\n    /* \"#utility.yul\":1013:1035   */\n  add\n    /* \"#utility.yul\":981:1045   */\n  tag_22\n  jump\t// in\ntag_36:\n    /* \"#utility.yul\":971:1045   */\n  swap3\n  pop\n    /* \"#utility.yul\":927:1055   */\n  pop\n    /* \"#utility.yul\":1094:1096   */\n  0x20\n    /* \"#utility.yul\":1120:1184   */\n  tag_37\n    /* \"#utility.yul\":1176:1183   */\n  dup6\n    /* \"#utility.yul\":1167:1173   */\n  dup3\n    /* \"#utility.yul\":1156:1165   */\n  dup7\n    /* \"#utility.yul\":1152:1174   */\n  add\n    /* \"#utility.yul\":1120:1184   */\n  tag_22\n  jump\t// in\ntag_37:\n    /* \"#utility.yul\":1110:1184   */\n  swap2\n  pop\n    /* \"#utility.yul\":1065:1194   */\n  pop\n    /* \"#utility.yul\":694:1201   */\n  swap3\n  pop\n  swap3\n  swap1\n  pop\n  jump\t// out\n    /* \"contracts/final/GMDstaking.sol\":372:10282  contract GMDstaking is Ownable,ReentrancyGuard {... */\ntag_14:\n  mload(0x80)\n  codecopy(0x00, dataOffset(sub_0), dataSize(sub_0))\n  0x00\n  assignImmutable(\"0x46612c86431bf839553975c6871c96460d6b955d2f53301921ef55c1ad868ef7\")\n  return(0x00, dataSize(sub_0))\nstop\n\nsub_0: assembly {\n        /* \"contracts/final/GMDstaking.sol\":372:10282  contract GMDstaking is Ownable,ReentrancyGuard {... */\n      mstore(0x40, 0x80)\n      callvalue\n      dup1\n      iszero\n      tag_1\n      jumpi\n      0x00\n      dup1\n      revert\n    tag_1:\n      pop\n      jumpi(tag_2, lt(calldatasize, 0x04))\n      shr(0xe0, calldataload(0x00))\n      dup1\n      0x78e97925\n      gt\n      tag_31\n      jumpi\n      dup1\n      0x9bd16d7b\n      gt\n      tag_32\n      jumpi\n      dup1\n      0xd49e77cd\n      gt\n      tag_33\n      jumpi\n      dup1\n      0xd49e77cd\n      eq\n      tag_27\n      jumpi\n      dup1\n      0xe2bbb158\n      eq\n      tag_28\n      jumpi\n      dup1\n      0xf2fde38b\n      eq\n      tag_29\n      jumpi\n      dup1\n      0xf4b83c4c\n      eq\n      tag_30\n      jumpi\n      jump(tag_2)\n    tag_33:\n      dup1\n      0x9bd16d7b\n      eq\n      tag_24\n      jumpi\n      dup1\n      0xad5c4648\n      eq\n      tag_25\n      jumpi\n      dup1\n      0xb9ac9686\n      eq\n      tag_26\n      jumpi\n      jump(tag_2)\n    tag_32:\n      dup1\n      0x8da5cb5b\n      gt\n      tag_34\n      jumpi\n      dup1\n      0x8da5cb5b\n      eq\n      tag_20\n      jumpi\n      dup1\n      0x8dbb1e3a\n      eq\n      tag_21\n      jumpi\n      dup1\n      0x9112f2b2\n      eq\n      tag_22\n      jumpi\n      dup1\n      0x93f1a40b\n      eq\n      tag_23\n      jumpi\n      jump(tag_2)\n    tag_34:\n      dup1\n      0x78e97925\n      eq\n      tag_17\n      jumpi\n      dup1\n      0x7b020dad\n      eq\n      tag_18\n      jumpi\n      dup1\n      0x845105e2\n      eq\n      tag_19\n      jumpi\n      jump(tag_2)\n    tag_31:\n      dup1\n      0x41249061\n      gt\n      tag_35\n      jumpi\n      dup1\n      0x51eb05a6\n      gt\n      tag_36\n      jumpi\n      dup1\n      0x51eb05a6\n      eq\n      tag_13\n      jumpi\n      dup1\n      0x5312ea8e\n      eq\n      tag_14\n      jumpi\n      dup1\n      0x630b5ba1\n      eq\n      tag_15\n      jumpi\n      dup1\n      0x715018a6\n      eq\n      tag_16\n      jumpi\n      jump(tag_2)\n    tag_36:\n      dup1\n      0x41249061\n      eq\n      tag_10\n      jumpi\n      dup1\n      0x441a3e70\n      eq\n      tag_11\n      jumpi\n      dup1\n      0x50188301\n      eq\n      tag_12\n      jumpi\n      jump(tag_2)\n    tag_35:\n      dup1\n      0x17caf6f1\n      gt\n      tag_37\n      jumpi\n      dup1\n      0x17caf6f1\n      eq\n      tag_6\n      jumpi\n      dup1\n      0x1ab06ee5\n      eq\n      tag_7\n      jumpi\n      dup1\n      0x2377b2a8\n      eq\n      tag_8\n      jumpi\n      dup1\n      0x2b8bbbe8\n      eq\n      tag_9\n      jumpi\n      jump(tag_2)\n    tag_37:\n      dup1\n      0x0332e936\n      eq\n      tag_3\n      jumpi\n      dup1\n      0x081e3eda\n      eq\n      tag_4\n      jumpi\n      dup1\n      0x1526fe27\n      eq\n      tag_5\n      jumpi\n    tag_2:\n      0x00\n      dup1\n      revert\n        /* \"contracts/final/GMDstaking.sol\":3694:4129  function setWETHPerSecond(uint256 _WETHPerSecond) external onlyOwner {... */\n    tag_3:\n      tag_38\n      0x04\n      dup1\n      calldatasize\n      sub\n      dup2\n      add\n      swap1\n      tag_39\n      swap2\n      swap1\n      tag_40\n      jump\t// in\n    tag_39:\n      tag_41\n      jump\t// in\n    tag_38:\n      stop\n        /* \"contracts/final/GMDstaking.sol\":3442:3537  function poolLength() external view returns (uint256) {... */\n    tag_4:\n      tag_42\n      tag_43\n      jump\t// in\n    tag_42:\n      mload(0x40)\n      tag_44\n      swap2\n      swap1\n      tag_45\n      jump\t// in\n    tag_44:\n      mload(0x40)\n      dup1\n      swap2\n      sub\n      swap1\n      return\n        /* \"contracts/final/GMDstaking.sol\":2215:2241  PoolInfo[] public poolInfo */\n    tag_5:\n      tag_46\n      0x04\n      dup1\n      calldatasize\n      sub\n      dup2\n      add\n      swap1\n      tag_47\n      swap2\n      swap1\n      tag_40\n      jump\t// in\n    tag_47:\n      tag_48\n      jump\t// in\n    tag_46:\n      mload(0x40)\n      tag_49\n      swap5\n      swap4\n      swap3\n      swap2\n      swap1\n      tag_50\n      jump\t// in\n    tag_49:\n      mload(0x40)\n      dup1\n      swap2\n      sub\n      swap1\n      return\n        /* \"contracts/final/GMDstaking.sol\":2458:2492  uint256 public totalAllocPoint = 0 */\n    tag_6:\n      tag_51\n      tag_52\n      jump\t// in\n    tag_51:\n      mload(0x40)\n      tag_53\n      swap2\n      swap1\n      tag_45\n      jump\t// in\n    tag_53:\n      mload(0x40)\n      dup1\n      swap2\n      sub\n      swap1\n      return\n        /* \"contracts/final/GMDstaking.sol\":5195:5518  function set(uint256 _pid, uint256 _allocPoint) external onlyOwner {... */\n    tag_7:\n      tag_54\n      0x04\n      dup1\n      calldatasize\n      sub\n      dup2\n      add\n      swap1\n      tag_55\n      swap2\n      swap1\n      tag_56\n      jump\t// in\n    tag_55:\n      tag_57\n      jump\t// in\n    tag_54:\n      stop\n        /* \"contracts/final/GMDstaking.sol\":3142:3340  function supplyRewards(uint256 _amount) external onlyOwner {... */\n    tag_8:\n      tag_58\n      0x04\n      dup1\n      calldatasize\n      sub\n      dup2\n      add\n      swap1\n      tag_59\n      swap2\n      swap1\n      tag_40\n      jump\t// in\n    tag_59:\n      tag_60\n      jump\t// in\n    tag_58:\n      stop\n        /* \"contracts/final/GMDstaking.sol\":4481:5099  function add(uint256 _allocPoint, IERC20 _lpToken) external onlyOwner {... */\n    tag_9:\n      tag_61\n      0x04\n      dup1\n      calldatasize\n      sub\n      dup2\n      add\n      swap1\n      tag_62\n      swap2\n      swap1\n      tag_63\n      jump\t// in\n    tag_62:\n      tag_64\n      jump\t// in\n    tag_61:\n      stop\n        /* \"contracts/final/GMDstaking.sol\":1915:1943  uint256 public WETHPerSecond */\n    tag_10:\n      tag_65\n      tag_66\n      jump\t// in\n    tag_65:\n      mload(0x40)\n      tag_67\n      swap2\n      swap1\n      tag_45\n      jump\t// in\n    tag_67:\n      mload(0x40)\n      dup1\n      swap2\n      sub\n      swap1\n      return\n        /* \"contracts/final/GMDstaking.sol\":8490:9274  function withdraw(uint256 _pid, uint256 _amount) public nonReentrant {  ... */\n    tag_11:\n      tag_68\n      0x04\n      dup1\n      calldatasize\n      sub\n      dup2\n      add\n      swap1\n      tag_69\n      swap2\n      swap1\n      tag_56\n      jump\t// in\n    tag_69:\n      tag_70\n      jump\t// in\n    tag_68:\n      stop\n        /* \"contracts/final/GMDstaking.sol\":2590:2622  bool public withdrawable = false */\n    tag_12:\n      tag_71\n      tag_72\n      jump\t// in\n    tag_71:\n      mload(0x40)\n      tag_73\n      swap2\n      swap1\n      tag_74\n      jump\t// in\n    tag_73:\n      mload(0x40)\n      dup1\n      swap2\n      sub\n      swap1\n      return\n        /* \"contracts/final/GMDstaking.sol\":7001:7697  function updatePool(uint256 _pid) public {... */\n    tag_13:\n      tag_75\n      0x04\n      dup1\n      calldatasize\n      sub\n      dup2\n      add\n      swap1\n      tag_76\n      swap2\n      swap1\n      tag_40\n      jump\t// in\n    tag_76:\n      tag_77\n      jump\t// in\n    tag_75:\n      stop\n        /* \"contracts/final/GMDstaking.sol\":9362:9885  function emergencyWithdraw(uint256 _pid) public  nonReentrant {... */\n    tag_14:\n      tag_78\n      0x04\n      dup1\n      calldatasize\n      sub\n      dup2\n      add\n      swap1\n      tag_79\n      swap2\n      swap1\n      tag_40\n      jump\t// in\n    tag_79:\n      tag_80\n      jump\t// in\n    tag_78:\n      stop\n        /* \"contracts/final/GMDstaking.sol\":6745:6925  function massUpdatePools() public {... */\n    tag_15:\n      tag_81\n      tag_82\n      jump\t// in\n    tag_81:\n      stop\n        /* \"@openzeppelin/contracts/access/Ownable.sol\":1831:1932  function renounceOwnership() public virtual onlyOwner {... */\n    tag_16:\n      tag_83\n      tag_84\n      jump\t// in\n    tag_83:\n      stop\n        /* \"contracts/final/GMDstaking.sol\":2547:2581  uint256 public immutable startTime */\n    tag_17:\n      tag_85\n      tag_86\n      jump\t// in\n    tag_85:\n      mload(0x40)\n      tag_87\n      swap2\n      swap1\n      tag_45\n      jump\t// in\n    tag_87:\n      mload(0x40)\n      dup1\n      swap2\n      sub\n      swap1\n      return\n        /* \"contracts/final/GMDstaking.sol\":3352:3434  function closeWithdraw() external onlyOwner{... */\n    tag_18:\n      tag_88\n      tag_89\n      jump\t// in\n    tag_88:\n      stop\n        /* \"contracts/final/GMDstaking.sol\":3054:3134  function openWithdraw() external onlyOwner{... */\n    tag_19:\n      tag_90\n      tag_91\n      jump\t// in\n    tag_90:\n      stop\n        /* \"@openzeppelin/contracts/access/Ownable.sol\":1201:1286  function owner() public view virtual returns (address) {... */\n    tag_20:\n      tag_92\n      tag_93\n      jump\t// in\n    tag_92:\n      mload(0x40)\n      tag_94\n      swap2\n      swap1\n      tag_95\n      jump\t// in\n    tag_94:\n      mload(0x40)\n      dup1\n      swap2\n      sub\n      swap1\n      return\n        /* \"contracts/final/GMDstaking.sol\":5594:5834  function getMultiplier(uint256 _from, uint256 _to) public view returns (uint256) {... */\n    tag_21:\n      tag_96\n      0x04\n      dup1\n      calldatasize\n      sub\n      dup2\n      add\n      swap1\n      tag_97\n      swap2\n      swap1\n      tag_56\n      jump\t// in\n    tag_97:\n      tag_98\n      jump\t// in\n    tag_96:\n      mload(0x40)\n      tag_99\n      swap2\n      swap1\n      tag_45\n      jump\t// in\n    tag_99:\n      mload(0x40)\n      dup1\n      swap2\n      sub\n      swap1\n      return\n        /* \"contracts/final/GMDstaking.sol\":2079:2126  uint256 public constant maxWETHPerSecond = 1e18 */\n    tag_22:\n      tag_100\n      tag_101\n      jump\t// in\n    tag_100:\n      mload(0x40)\n      tag_102\n      swap2\n      swap1\n      tag_45\n      jump\t// in\n    tag_102:\n      mload(0x40)\n      dup1\n      swap2\n      sub\n      swap1\n      return\n        /* \"contracts/final/GMDstaking.sol\":2297:2363  mapping (uint256 => mapping (address => UserInfo)) public userInfo */\n    tag_23:\n      tag_103\n      0x04\n      dup1\n      calldatasize\n      sub\n      dup2\n      add\n      swap1\n      tag_104\n      swap2\n      swap1\n      tag_105\n      jump\t// in\n    tag_104:\n      tag_106\n      jump\t// in\n    tag_103:\n      mload(0x40)\n      tag_107\n      swap3\n      swap2\n      swap1\n      tag_108\n      jump\t// in\n    tag_107:\n      mload(0x40)\n      dup1\n      swap2\n      sub\n      swap1\n      return\n        /* \"contracts/final/GMDstaking.sol\":5898:6662  function pendingWETH(uint256 _pid, address _user) external view returns (uint256) {... */\n    tag_24:\n      tag_109\n      0x04\n      dup1\n      calldatasize\n      sub\n      dup2\n      add\n      swap1\n      tag_110\n      swap2\n      swap1\n      tag_105\n      jump\t// in\n    tag_110:\n      tag_111\n      jump\t// in\n    tag_109:\n      mload(0x40)\n      tag_112\n      swap2\n      swap1\n      tag_45\n      jump\t// in\n    tag_112:\n      mload(0x40)\n      dup1\n      swap2\n      sub\n      swap1\n      return\n        /* \"contracts/final/GMDstaking.sol\":1746:1817  IERC20 public WETH = IERC20(0x82aF49447D8a07e3bd95BD0d56f35241523fBab1) */\n    tag_25:\n      tag_113\n      tag_114\n      jump\t// in\n    tag_113:\n      mload(0x40)\n      tag_115\n      swap2\n      swap1\n      tag_116\n      jump\t// in\n    tag_115:\n      mload(0x40)\n      dup1\n      swap2\n      sub\n      swap1\n      return\n        /* \"contracts/final/GMDstaking.sol\":1952:1991  uint256 public totalWETHdistributed = 0 */\n    tag_26:\n      tag_117\n      tag_118\n      jump\t// in\n    tag_117:\n      mload(0x40)\n      tag_119\n      swap2\n      swap1\n      tag_45\n      jump\t// in\n    tag_119:\n      mload(0x40)\n      dup1\n      swap2\n      sub\n      swap1\n      return\n        /* \"contracts/final/GMDstaking.sol\":1847:1869  address public devaddr */\n    tag_27:\n      tag_120\n      tag_121\n      jump\t// in\n    tag_120:\n      mload(0x40)\n      tag_122\n      swap2\n      swap1\n      tag_95\n      jump\t// in\n    tag_122:\n      mload(0x40)\n      dup1\n      swap2\n      sub\n      swap1\n      return\n        /* \"contracts/final/GMDstaking.sol\":7766:8438  function deposit(uint256 _pid, uint256 _amount) public nonReentrant {... */\n    tag_28:\n      tag_123\n      0x04\n      dup1\n      calldatasize\n      sub\n      dup2\n      add\n      swap1\n      tag_124\n      swap2\n      swap1\n      tag_56\n      jump\t// in\n    tag_124:\n      tag_125\n      jump\t// in\n    tag_123:\n      stop\n        /* \"@openzeppelin/contracts/access/Ownable.sol\":2081:2279  function transferOwnership(address newOwner) public virtual onlyOwner {... */\n    tag_29:\n      tag_126\n      0x04\n      dup1\n      calldatasize\n      sub\n      dup2\n      add\n      swap1\n      tag_127\n      swap2\n      swap1\n      tag_128\n      jump\t// in\n    tag_127:\n      tag_129\n      jump\t// in\n    tag_126:\n      stop\n        /* \"contracts/final/GMDstaking.sol\":2135:2179  uint256 public constant MaxAllocPoint = 4000 */\n    tag_30:\n      tag_130\n      tag_131\n      jump\t// in\n    tag_130:\n      mload(0x40)\n      tag_132\n      swap2\n      swap1\n      tag_45\n      jump\t// in\n    tag_132:\n      mload(0x40)\n      dup1\n      swap2\n      sub\n      swap1\n      return\n        /* \"contracts/final/GMDstaking.sol\":3694:4129  function setWETHPerSecond(uint256 _WETHPerSecond) external onlyOwner {... */\n    tag_41:\n        /* \"@openzeppelin/contracts/access/Ownable.sol\":1094:1107  _checkOwner() */\n      tag_134\n        /* \"@openzeppelin/contracts/access/Ownable.sol\":1094:1105  _checkOwner */\n      tag_135\n        /* \"@openzeppelin/contracts/access/Ownable.sol\":1094:1107  _checkOwner() */\n      jump\t// in\n    tag_134:\n        /* \"contracts/final/GMDstaking.sol\":2122:2126  1e18 */\n      0x0de0b6b3a7640000\n        /* \"contracts/final/GMDstaking.sol\":3782:3796  _WETHPerSecond */\n      dup2\n        /* \"contracts/final/GMDstaking.sol\":3782:3816  _WETHPerSecond <= maxWETHPerSecond */\n      gt\n      iszero\n        /* \"contracts/final/GMDstaking.sol\":3774:3854  require(_WETHPerSecond <= maxWETHPerSecond, \"setWETHPerSecond: too many WETHs!\") */\n      tag_137\n      jumpi\n      mload(0x40)\n      0x08c379a000000000000000000000000000000000000000000000000000000000\n      dup2\n      mstore\n      0x04\n      add\n      tag_138\n      swap1\n      tag_139\n      jump\t// in\n    tag_138:\n      mload(0x40)\n      dup1\n      swap2\n      sub\n      swap1\n      revert\n    tag_137:\n        /* \"contracts/final/GMDstaking.sol\":4060:4077  massUpdatePools() */\n      tag_140\n        /* \"contracts/final/GMDstaking.sol\":4060:4075  massUpdatePools */\n      tag_82\n        /* \"contracts/final/GMDstaking.sol\":4060:4077  massUpdatePools() */\n      jump\t// in\n    tag_140:\n        /* \"contracts/final/GMDstaking.sol\":4107:4121  _WETHPerSecond */\n      dup1\n        /* \"contracts/final/GMDstaking.sol\":4091:4104  WETHPerSecond */\n      0x04\n        /* \"contracts/final/GMDstaking.sol\":4091:4121  WETHPerSecond = _WETHPerSecond */\n      dup2\n      swap1\n      sstore\n      pop\n        /* \"contracts/final/GMDstaking.sol\":3694:4129  function setWETHPerSecond(uint256 _WETHPerSecond) external onlyOwner {... */\n      pop\n      jump\t// out\n        /* \"contracts/final/GMDstaking.sol\":3442:3537  function poolLength() external view returns (uint256) {... */\n    tag_43:\n        /* \"contracts/final/GMDstaking.sol\":3487:3494  uint256 */\n      0x00\n        /* \"contracts/final/GMDstaking.sol\":3514:3522  poolInfo */\n      0x06\n        /* \"contracts/final/GMDstaking.sol\":3514:3529  poolInfo.length */\n      dup1\n      sload\n      swap1\n      pop\n        /* \"contracts/final/GMDstaking.sol\":3507:3529  return poolInfo.length */\n      swap1\n      pop\n        /* \"contracts/final/GMDstaking.sol\":3442:3537  function poolLength() external view returns (uint256) {... */\n      swap1\n      jump\t// out\n        /* \"contracts/final/GMDstaking.sol\":2215:2241  PoolInfo[] public poolInfo */\n    tag_48:\n      0x06\n      dup2\n      dup2\n      sload\n      dup2\n      lt\n      tag_142\n      jumpi\n      0x00\n      dup1\n      revert\n    tag_142:\n      swap1\n      0x00\n      mstore\n      keccak256(0x00, 0x20)\n      swap1\n      0x04\n      mul\n      add\n      0x00\n      swap2\n      pop\n      swap1\n      pop\n      dup1\n      0x00\n      add\n      0x00\n      swap1\n      sload\n      swap1\n      0x0100\n      exp\n      swap1\n      div\n      0xffffffffffffffffffffffffffffffffffffffff\n      and\n      swap1\n      dup1\n      0x01\n      add\n      sload\n      swap1\n      dup1\n      0x02\n      add\n      sload\n      swap1\n      dup1\n      0x03\n      add\n      sload\n      swap1\n      pop\n      dup5\n      jump\t// out\n        /* \"contracts/final/GMDstaking.sol\":2458:2492  uint256 public totalAllocPoint = 0 */\n    tag_52:\n      sload(0x08)\n      dup2\n      jump\t// out\n        /* \"contracts/final/GMDstaking.sol\":5195:5518  function set(uint256 _pid, uint256 _allocPoint) external onlyOwner {... */\n    tag_57:\n        /* \"@openzeppelin/contracts/access/Ownable.sol\":1094:1107  _checkOwner() */\n      tag_145\n        /* \"@openzeppelin/contracts/access/Ownable.sol\":1094:1105  _checkOwner */\n      tag_135\n        /* \"@openzeppelin/contracts/access/Ownable.sol\":1094:1107  _checkOwner() */\n      jump\t// in\n    tag_145:\n        /* \"contracts/final/GMDstaking.sol\":2175:2179  4000 */\n      0x0fa0\n        /* \"contracts/final/GMDstaking.sol\":5281:5292  _allocPoint */\n      dup2\n        /* \"contracts/final/GMDstaking.sol\":5281:5309  _allocPoint <= MaxAllocPoint */\n      gt\n      iszero\n        /* \"contracts/final/GMDstaking.sol\":5273:5342  require(_allocPoint <= MaxAllocPoint, \"add: too many alloc points!!\") */\n      tag_147\n      jumpi\n      mload(0x40)\n      0x08c379a000000000000000000000000000000000000000000000000000000000\n      dup2\n      mstore\n      0x04\n      add\n      tag_148\n      swap1\n      tag_149\n      jump\t// in\n    tag_148:\n      mload(0x40)\n      dup1\n      swap2\n      sub\n      swap1\n      revert\n    tag_147:\n        /* \"contracts/final/GMDstaking.sol\":5355:5372  massUpdatePools() */\n      tag_150\n        /* \"contracts/final/GMDstaking.sol\":5355:5370  massUpdatePools */\n      tag_82\n        /* \"contracts/final/GMDstaking.sol\":5355:5372  massUpdatePools() */\n      jump\t// in\n    tag_150:\n        /* \"contracts/final/GMDstaking.sol\":5449:5460  _allocPoint */\n      dup1\n        /* \"contracts/final/GMDstaking.sol\":5421:5429  poolInfo */\n      0x06\n        /* \"contracts/final/GMDstaking.sol\":5430:5434  _pid */\n      dup4\n        /* \"contracts/final/GMDstaking.sol\":5421:5435  poolInfo[_pid] */\n      dup2\n      sload\n      dup2\n      lt\n      tag_151\n      jumpi\n      tag_152\n      tag_153\n      jump\t// in\n    tag_152:\n    tag_151:\n      swap1\n      0x00\n      mstore\n      keccak256(0x00, 0x20)\n      swap1\n      0x04\n      mul\n      add\n        /* \"contracts/final/GMDstaking.sol\":5421:5446  poolInfo[_pid].allocPoint */\n      0x01\n      add\n      sload\n        /* \"contracts/final/GMDstaking.sol\":5403:5418  totalAllocPoint */\n      sload(0x08)\n        /* \"contracts/final/GMDstaking.sol\":5403:5446  totalAllocPoint - poolInfo[_pid].allocPoint */\n      tag_155\n      swap2\n      swap1\n      tag_156\n      jump\t// in\n    tag_155:\n        /* \"contracts/final/GMDstaking.sol\":5403:5460  totalAllocPoint - poolInfo[_pid].allocPoint + _allocPoint */\n      tag_157\n      swap2\n      swap1\n      tag_158\n      jump\t// in\n    tag_157:\n        /* \"contracts/final/GMDstaking.sol\":5385:5400  totalAllocPoint */\n      0x08\n        /* \"contracts/final/GMDstaking.sol\":5385:5460  totalAllocPoint = totalAllocPoint - poolInfo[_pid].allocPoint + _allocPoint */\n      dup2\n      swap1\n      sstore\n      pop\n        /* \"contracts/final/GMDstaking.sol\":5499:5510  _allocPoint */\n      dup1\n        /* \"contracts/final/GMDstaking.sol\":5471:5479  poolInfo */\n      0x06\n        /* \"contracts/final/GMDstaking.sol\":5480:5484  _pid */\n      dup4\n        /* \"contracts/final/GMDstaking.sol\":5471:5485  poolInfo[_pid] */\n      dup2\n      sload\n      dup2\n      lt\n      tag_159\n      jumpi\n      tag_160\n      tag_153\n      jump\t// in\n    tag_160:\n    tag_159:\n      swap1\n      0x00\n      mstore\n      keccak256(0x00, 0x20)\n      swap1\n      0x04\n      mul\n      add\n        /* \"contracts/final/GMDstaking.sol\":5471:5496  poolInfo[_pid].allocPoint */\n      0x01\n      add\n        /* \"contracts/final/GMDstaking.sol\":5471:5510  poolInfo[_pid].allocPoint = _allocPoint */\n      dup2\n      swap1\n      sstore\n      pop\n        /* \"contracts/final/GMDstaking.sol\":5195:5518  function set(uint256 _pid, uint256 _allocPoint) external onlyOwner {... */\n      pop\n      pop\n      jump\t// out\n        /* \"contracts/final/GMDstaking.sol\":3142:3340  function supplyRewards(uint256 _amount) external onlyOwner {... */\n    tag_60:\n        /* \"@openzeppelin/contracts/access/Ownable.sol\":1094:1107  _checkOwner() */\n      tag_163\n        /* \"@openzeppelin/contracts/access/Ownable.sol\":1094:1105  _checkOwner */\n      tag_135\n        /* \"@openzeppelin/contracts/access/Ownable.sol\":1094:1107  _checkOwner() */\n      jump\t// in\n    tag_163:\n        /* \"contracts/final/GMDstaking.sol\":3235:3268  totalWETHdistributed.add(_amount) */\n      tag_165\n        /* \"contracts/final/GMDstaking.sol\":3260:3267  _amount */\n      dup2\n        /* \"contracts/final/GMDstaking.sol\":3235:3255  totalWETHdistributed */\n      sload(0x05)\n        /* \"contracts/final/GMDstaking.sol\":3235:3259  totalWETHdistributed.add */\n      tag_166\n      swap1\n        /* \"contracts/final/GMDstaking.sol\":3235:3268  totalWETHdistributed.add(_amount) */\n      swap2\n      swap1\n      0xffffffff\n      and\n      jump\t// in\n    tag_165:\n        /* \"contracts/final/GMDstaking.sol\":3212:3232  totalWETHdistributed */\n      0x05\n        /* \"contracts/final/GMDstaking.sol\":3212:3268  totalWETHdistributed = totalWETHdistributed.add(_amount) */\n      dup2\n      swap1\n      sstore\n      pop\n        /* \"contracts/final/GMDstaking.sol\":3279:3283  WETH */\n      0x02\n      0x00\n      swap1\n      sload\n      swap1\n      0x0100\n      exp\n      swap1\n      div\n      0xffffffffffffffffffffffffffffffffffffffff\n      and\n        /* \"contracts/final/GMDstaking.sol\":3279:3296  WETH.transferFrom */\n      0xffffffffffffffffffffffffffffffffffffffff\n      and\n      0x23b872dd\n        /* \"contracts/final/GMDstaking.sol\":3297:3307  msg.sender */\n      caller\n        /* \"contracts/final/GMDstaking.sol\":3317:3321  this */\n      address\n        /* \"contracts/final/GMDstaking.sol\":3324:3331  _amount */\n      dup5\n        /* \"contracts/final/GMDstaking.sol\":3279:3332  WETH.transferFrom(msg.sender, address(this), _amount) */\n      mload(0x40)\n      dup5\n      0xffffffff\n      and\n      0xe0\n      shl\n      dup2\n      mstore\n      0x04\n      add\n      tag_167\n      swap4\n      swap3\n      swap2\n      swap1\n      tag_168\n      jump\t// in\n    tag_167:\n      0x20\n      mload(0x40)\n      dup1\n      dup4\n      sub\n      dup2\n      0x00\n      dup8\n      gas\n      call\n      iszero\n      dup1\n      iszero\n      tag_170\n      jumpi\n      returndatasize\n      0x00\n      dup1\n      returndatacopy\n      revert(0x00, returndatasize)\n    tag_170:\n      pop\n      pop\n      pop\n      pop\n      mload(0x40)\n      returndatasize\n      not(0x1f)\n      0x1f\n      dup3\n      add\n      and\n      dup3\n      add\n      dup1\n      0x40\n      mstore\n      pop\n      dup2\n      add\n      swap1\n      tag_171\n      swap2\n      swap1\n      tag_172\n      jump\t// in\n    tag_171:\n      pop\n        /* \"contracts/final/GMDstaking.sol\":3142:3340  function supplyRewards(uint256 _amount) external onlyOwner {... */\n      pop\n      jump\t// out\n        /* \"contracts/final/GMDstaking.sol\":4481:5099  function add(uint256 _allocPoint, IERC20 _lpToken) external onlyOwner {... */\n    tag_64:\n        /* \"@openzeppelin/contracts/access/Ownable.sol\":1094:1107  _checkOwner() */\n      tag_174\n        /* \"@openzeppelin/contracts/access/Ownable.sol\":1094:1105  _checkOwner */\n      tag_135\n        /* \"@openzeppelin/contracts/access/Ownable.sol\":1094:1107  _checkOwner() */\n      jump\t// in\n    tag_174:\n        /* \"contracts/final/GMDstaking.sol\":2175:2179  4000 */\n      0x0fa0\n        /* \"contracts/final/GMDstaking.sol\":4570:4581  _allocPoint */\n      dup3\n        /* \"contracts/final/GMDstaking.sol\":4570:4598  _allocPoint <= MaxAllocPoint */\n      gt\n      iszero\n        /* \"contracts/final/GMDstaking.sol\":4562:4631  require(_allocPoint <= MaxAllocPoint, \"add: too many alloc points!!\") */\n      tag_176\n      jumpi\n      mload(0x40)\n      0x08c379a000000000000000000000000000000000000000000000000000000000\n      dup2\n      mstore\n      0x04\n      add\n      tag_177\n      swap1\n      tag_149\n      jump\t// in\n    tag_177:\n      mload(0x40)\n      dup1\n      swap2\n      sub\n      swap1\n      revert\n    tag_176:\n        /* \"contracts/final/GMDstaking.sol\":4644:4671  checkForDuplicate(_lpToken) */\n      tag_178\n        /* \"contracts/final/GMDstaking.sol\":4662:4670  _lpToken */\n      dup2\n        /* \"contracts/final/GMDstaking.sol\":4644:4661  checkForDuplicate */\n      tag_179\n        /* \"contracts/final/GMDstaking.sol\":4644:4671  checkForDuplicate(_lpToken) */\n      jump\t// in\n    tag_178:\n        /* \"contracts/final/GMDstaking.sol\":4723:4740  massUpdatePools() */\n      tag_180\n        /* \"contracts/final/GMDstaking.sol\":4723:4738  massUpdatePools */\n      tag_82\n        /* \"contracts/final/GMDstaking.sol\":4723:4740  massUpdatePools() */\n      jump\t// in\n    tag_180:\n        /* \"contracts/final/GMDstaking.sol\":4753:4775  uint256 lastRewardTime */\n      0x00\n        /* \"contracts/final/GMDstaking.sol\":4796:4805  startTime */\n      immutable(\"0x46612c86431bf839553975c6871c96460d6b955d2f53301921ef55c1ad868ef7\")\n        /* \"contracts/final/GMDstaking.sol\":4778:4793  block.timestamp */\n      timestamp\n        /* \"contracts/final/GMDstaking.sol\":4778:4805  block.timestamp > startTime */\n      gt\n        /* \"contracts/final/GMDstaking.sol\":4778:4835  block.timestamp > startTime ? block.timestamp : startTime */\n      tag_181\n      jumpi\n        /* \"contracts/final/GMDstaking.sol\":4826:4835  startTime */\n      immutable(\"0x46612c86431bf839553975c6871c96460d6b955d2f53301921ef55c1ad868ef7\")\n        /* \"contracts/final/GMDstaking.sol\":4778:4835  block.timestamp > startTime ? block.timestamp : startTime */\n      jump(tag_182)\n    tag_181:\n        /* \"contracts/final/GMDstaking.sol\":4808:4823  block.timestamp */\n      timestamp\n        /* \"contracts/final/GMDstaking.sol\":4778:4835  block.timestamp > startTime ? block.timestamp : startTime */\n    tag_182:\n        /* \"contracts/final/GMDstaking.sol\":4753:4835  uint256 lastRewardTime = block.timestamp > startTime ? block.timestamp : startTime */\n      swap1\n      pop\n        /* \"contracts/final/GMDstaking.sol\":4864:4896  totalAllocPoint.add(_allocPoint) */\n      tag_183\n        /* \"contracts/final/GMDstaking.sol\":4884:4895  _allocPoint */\n      dup4\n        /* \"contracts/final/GMDstaking.sol\":4864:4879  totalAllocPoint */\n      sload(0x08)\n        /* \"contracts/final/GMDstaking.sol\":4864:4883  totalAllocPoint.add */\n      tag_166\n      swap1\n        /* \"contracts/final/GMDstaking.sol\":4864:4896  totalAllocPoint.add(_allocPoint) */\n      swap2\n      swap1\n      0xffffffff\n      and\n      jump\t// in\n    tag_183:\n        /* \"contracts/final/GMDstaking.sol\":4846:4861  totalAllocPoint */\n      0x08\n        /* \"contracts/final/GMDstaking.sol\":4846:4896  totalAllocPoint = totalAllocPoint.add(_allocPoint) */\n      dup2\n      swap1\n      sstore\n      pop\n        /* \"contracts/final/GMDstaking.sol\":4907:4915  poolInfo */\n      0x06\n        /* \"contracts/final/GMDstaking.sol\":4921:5090  PoolInfo({... */\n      mload(0x40)\n      dup1\n      0x80\n      add\n      0x40\n      mstore\n      dup1\n        /* \"contracts/final/GMDstaking.sol\":4954:4962  _lpToken */\n      dup5\n        /* \"contracts/final/GMDstaking.sol\":4921:5090  PoolInfo({... */\n      0xffffffffffffffffffffffffffffffffffffffff\n      and\n      dup2\n      mstore\n      0x20\n      add\n        /* \"contracts/final/GMDstaking.sol\":4989:5000  _allocPoint */\n      dup6\n        /* \"contracts/final/GMDstaking.sol\":4921:5090  PoolInfo({... */\n      dup2\n      mstore\n      0x20\n      add\n        /* \"contracts/final/GMDstaking.sol\":5031:5045  lastRewardTime */\n      dup4\n        /* \"contracts/final/GMDstaking.sol\":4921:5090  PoolInfo({... */\n      dup2\n      mstore\n      0x20\n      add\n        /* \"contracts/final/GMDstaking.sol\":5077:5078  0 */\n      0x00\n        /* \"contracts/final/GMDstaking.sol\":4921:5090  PoolInfo({... */\n      dup2\n      mstore\n      pop\n        /* \"contracts/final/GMDstaking.sol\":4907:5091  poolInfo.push(PoolInfo({... */\n      swap1\n      dup1\n      0x01\n      dup2\n      sload\n      add\n      dup1\n      dup3\n      sstore\n      dup1\n      swap2\n      pop\n      pop\n      0x01\n      swap1\n      sub\n      swap1\n      0x00\n      mstore\n      keccak256(0x00, 0x20)\n      swap1\n      0x04\n      mul\n      add\n      0x00\n      swap1\n      swap2\n      swap1\n      swap2\n      swap1\n      swap2\n      pop\n      0x00\n      dup3\n      add\n      mload\n      dup2\n      0x00\n      add\n      exp(0x0100, 0x00)\n      dup2\n      sload\n      dup2\n      0xffffffffffffffffffffffffffffffffffffffff\n      mul\n      not\n      and\n      swap1\n      dup4\n      0xffffffffffffffffffffffffffffffffffffffff\n      and\n      mul\n      or\n      swap1\n      sstore\n      pop\n      0x20\n      dup3\n      add\n      mload\n      dup2\n      0x01\n      add\n      sstore\n      0x40\n      dup3\n      add\n      mload\n      dup2\n      0x02\n      add\n      sstore\n      0x60\n      dup3\n      add\n      mload\n      dup2\n      0x03\n      add\n      sstore\n      pop\n      pop\n        /* \"contracts/final/GMDstaking.sol\":4551:5099  {... */\n      pop\n        /* \"contracts/final/GMDstaking.sol\":4481:5099  function add(uint256 _allocPoint, IERC20 _lpToken) external onlyOwner {... */\n      pop\n      pop\n      jump\t// out\n        /* \"contracts/final/GMDstaking.sol\":1915:1943  uint256 public WETHPerSecond */\n    tag_66:\n      sload(0x04)\n      dup2\n      jump\t// out\n        /* \"contracts/final/GMDstaking.sol\":8490:9274  function withdraw(uint256 _pid, uint256 _amount) public nonReentrant {  ... */\n    tag_70:\n        /* \"@openzeppelin/contracts/security/ReentrancyGuard.sol\":1744:1745  2 */\n      0x02\n        /* \"@openzeppelin/contracts/security/ReentrancyGuard.sol\":2325:2332  _status */\n      sload(0x01)\n        /* \"@openzeppelin/contracts/security/ReentrancyGuard.sol\":2325:2344  _status != _ENTERED */\n      eq\n      iszero\n        /* \"@openzeppelin/contracts/security/ReentrancyGuard.sol\":2317:2380  require(_status != _ENTERED, \"ReentrancyGuard: reentrant call\") */\n      tag_186\n      jumpi\n      mload(0x40)\n      0x08c379a000000000000000000000000000000000000000000000000000000000\n      dup2\n      mstore\n      0x04\n      add\n      tag_187\n      swap1\n      tag_188\n      jump\t// in\n    tag_187:\n      mload(0x40)\n      dup1\n      swap2\n      sub\n      swap1\n      revert\n    tag_186:\n        /* \"@openzeppelin/contracts/security/ReentrancyGuard.sol\":1744:1745  2 */\n      0x02\n        /* \"@openzeppelin/contracts/security/ReentrancyGuard.sol\":2455:2462  _status */\n      0x01\n        /* \"@openzeppelin/contracts/security/ReentrancyGuard.sol\":2455:2473  _status = _ENTERED */\n      dup2\n      swap1\n      sstore\n      pop\n        /* \"contracts/final/GMDstaking.sol\":8572:8593  PoolInfo storage pool */\n      0x00\n        /* \"contracts/final/GMDstaking.sol\":8596:8604  poolInfo */\n      0x06\n        /* \"contracts/final/GMDstaking.sol\":8605:8609  _pid */\n      dup4\n        /* \"contracts/final/GMDstaking.sol\":8596:8610  poolInfo[_pid] */\n      dup2\n      sload\n      dup2\n      lt\n      tag_190\n      jumpi\n      tag_191\n      tag_153\n      jump\t// in\n    tag_191:\n    tag_190:\n      swap1\n      0x00\n      mstore\n      keccak256(0x00, 0x20)\n      swap1\n      0x04\n      mul\n      add\n        /* \"contracts/final/GMDstaking.sol\":8572:8610  PoolInfo storage pool = poolInfo[_pid] */\n      swap1\n      pop\n        /* \"contracts/final/GMDstaking.sol\":8621:8642  UserInfo storage user */\n      0x00\n        /* \"contracts/final/GMDstaking.sol\":8645:8653  userInfo */\n      0x07\n        /* \"contracts/final/GMDstaking.sol\":8645:8659  userInfo[_pid] */\n      0x00\n        /* \"contracts/final/GMDstaking.sol\":8654:8658  _pid */\n      dup6\n        /* \"contracts/final/GMDstaking.sol\":8645:8659  userInfo[_pid] */\n      dup2\n      mstore\n      0x20\n      add\n      swap1\n      dup2\n      mstore\n      0x20\n      add\n      0x00\n      keccak256\n        /* \"contracts/final/GMDstaking.sol\":8645:8671  userInfo[_pid][msg.sender] */\n      0x00\n        /* \"contracts/final/GMDstaking.sol\":8660:8670  msg.sender */\n      caller\n        /* \"contracts/final/GMDstaking.sol\":8645:8671  userInfo[_pid][msg.sender] */\n      0xffffffffffffffffffffffffffffffffffffffff\n      and\n      0xffffffffffffffffffffffffffffffffffffffff\n      and\n      dup2\n      mstore\n      0x20\n      add\n      swap1\n      dup2\n      mstore\n      0x20\n      add\n      0x00\n      keccak256\n        /* \"contracts/final/GMDstaking.sol\":8621:8671  UserInfo storage user = userInfo[_pid][msg.sender] */\n      swap1\n      pop\n        /* \"contracts/final/GMDstaking.sol\":8707:8714  _amount */\n      dup3\n        /* \"contracts/final/GMDstaking.sol\":8692:8696  user */\n      dup2\n        /* \"contracts/final/GMDstaking.sol\":8692:8703  user.amount */\n      0x00\n      add\n      sload\n        /* \"contracts/final/GMDstaking.sol\":8692:8714  user.amount >= _amount */\n      lt\n      iszero\n        /* \"contracts/final/GMDstaking.sol\":8684:8737  require(user.amount >= _amount, \"withdraw: not good\") */\n      tag_193\n      jumpi\n      mload(0x40)\n      0x08c379a000000000000000000000000000000000000000000000000000000000\n      dup2\n      mstore\n      0x04\n      add\n      tag_194\n      swap1\n      tag_195\n      jump\t// in\n    tag_194:\n      mload(0x40)\n      dup1\n      swap2\n      sub\n      swap1\n      revert\n    tag_193:\n        /* \"contracts/final/GMDstaking.sol\":8756:8768  withdrawable */\n      0x09\n      0x00\n      swap1\n      sload\n      swap1\n      0x0100\n      exp\n      swap1\n      div\n      0xff\n      and\n        /* \"contracts/final/GMDstaking.sol\":8748:8792  require(withdrawable, \"withdraw not opened\") */\n      tag_196\n      jumpi\n      mload(0x40)\n      0x08c379a000000000000000000000000000000000000000000000000000000000\n      dup2\n      mstore\n      0x04\n      add\n      tag_197\n      swap1\n      tag_198\n      jump\t// in\n    tag_197:\n      mload(0x40)\n      dup1\n      swap2\n      sub\n      swap1\n      revert\n    tag_196:\n        /* \"contracts/final/GMDstaking.sol\":8805:8821  updatePool(_pid) */\n      tag_199\n        /* \"contracts/final/GMDstaking.sol\":8816:8820  _pid */\n      dup5\n        /* \"contracts/final/GMDstaking.sol\":8805:8815  updatePool */\n      tag_77\n        /* \"contracts/final/GMDstaking.sol\":8805:8821  updatePool(_pid) */\n      jump\t// in\n    tag_199:\n        /* \"contracts/final/GMDstaking.sol\":8834:8849  uint256 pending */\n      0x00\n        /* \"contracts/final/GMDstaking.sol\":8852:8920  user.amount.mul(pool.accWETHPerShare).div(1e12).sub(user.rewardDebt) */\n      tag_200\n        /* \"contracts/final/GMDstaking.sol\":8904:8908  user */\n      dup3\n        /* \"contracts/final/GMDstaking.sol\":8904:8919  user.rewardDebt */\n      0x01\n      add\n      sload\n        /* \"contracts/final/GMDstaking.sol\":8852:8899  user.amount.mul(pool.accWETHPerShare).div(1e12) */\n      tag_201\n        /* \"contracts/final/GMDstaking.sol\":8894:8898  1e12 */\n      0xe8d4a51000\n        /* \"contracts/final/GMDstaking.sol\":8852:8889  user.amount.mul(pool.accWETHPerShare) */\n      tag_202\n        /* \"contracts/final/GMDstaking.sol\":8868:8872  pool */\n      dup8\n        /* \"contracts/final/GMDstaking.sol\":8868:8888  pool.accWETHPerShare */\n      0x03\n      add\n      sload\n        /* \"contracts/final/GMDstaking.sol\":8852:8856  user */\n      dup8\n        /* \"contracts/final/GMDstaking.sol\":8852:8863  user.amount */\n      0x00\n      add\n      sload\n        /* \"contracts/final/GMDstaking.sol\":8852:8867  user.amount.mul */\n      tag_203\n      swap1\n        /* \"contracts/final/GMDstaking.sol\":8852:8889  user.amount.mul(pool.accWETHPerShare) */\n      swap2\n      swap1\n      0xffffffff\n      and\n      jump\t// in\n    tag_202:\n        /* \"contracts/final/GMDstaking.sol\":8852:8893  user.amount.mul(pool.accWETHPerShare).div */\n      tag_204\n      swap1\n        /* \"contracts/final/GMDstaking.sol\":8852:8899  user.amount.mul(pool.accWETHPerShare).div(1e12) */\n      swap2\n      swap1\n      0xffffffff\n      and\n      jump\t// in\n    tag_201:\n        /* \"contracts/final/GMDstaking.sol\":8852:8903  user.amount.mul(pool.accWETHPerShare).div(1e12).sub */\n      tag_205\n      swap1\n        /* \"contracts/final/GMDstaking.sol\":8852:8920  user.amount.mul(pool.accWETHPerShare).div(1e12).sub(user.rewardDebt) */\n      swap2\n      swap1\n      0xffffffff\n      and\n      jump\t// in\n    tag_200:\n        /* \"contracts/final/GMDstaking.sol\":8834:8920  uint256 pending = user.amount.mul(pool.accWETHPerShare).div(1e12).sub(user.rewardDebt) */\n      swap1\n      pop\n        /* \"contracts/final/GMDstaking.sol\":8947:8971  user.amount.sub(_amount) */\n      tag_206\n        /* \"contracts/final/GMDstaking.sol\":8963:8970  _amount */\n      dup5\n        /* \"contracts/final/GMDstaking.sol\":8947:8951  user */\n      dup4\n        /* \"contracts/final/GMDstaking.sol\":8947:8958  user.amount */\n      0x00\n      add\n      sload\n        /* \"contracts/final/GMDstaking.sol\":8947:8962  user.amount.sub */\n      tag_205\n      swap1\n        /* \"contracts/final/GMDstaking.sol\":8947:8971  user.amount.sub(_amount) */\n      swap2\n      swap1\n      0xffffffff\n      and\n      jump\t// in\n    tag_206:\n        /* \"contracts/final/GMDstaking.sol\":8933:8937  user */\n      dup3\n        /* \"contracts/final/GMDstaking.sol\":8933:8944  user.amount */\n      0x00\n      add\n        /* \"contracts/final/GMDstaking.sol\":8933:8971  user.amount = user.amount.sub(_amount) */\n      dup2\n      swap1\n      sstore\n      pop\n        /* \"contracts/final/GMDstaking.sol\":9000:9047  user.amount.mul(pool.accWETHPerShare).div(1e12) */\n      tag_207\n        /* \"contracts/final/GMDstaking.sol\":9042:9046  1e12 */\n      0xe8d4a51000\n        /* \"contracts/final/GMDstaking.sol\":9000:9037  user.amount.mul(pool.accWETHPerShare) */\n      tag_208\n        /* \"contracts/final/GMDstaking.sol\":9016:9020  pool */\n      dup6\n        /* \"contracts/final/GMDstaking.sol\":9016:9036  pool.accWETHPerShare */\n      0x03\n      add\n      sload\n        /* \"contracts/final/GMDstaking.sol\":9000:9004  user */\n      dup6\n        /* \"contracts/final/GMDstaking.sol\":9000:9011  user.amount */\n      0x00\n      add\n      sload\n        /* \"contracts/final/GMDstaking.sol\":9000:9015  user.amount.mul */\n      tag_203\n      swap1\n        /* \"contracts/final/GMDstaking.sol\":9000:9037  user.amount.mul(pool.accWETHPerShare) */\n      swap2\n      swap1\n      0xffffffff\n      and\n      jump\t// in\n    tag_208:\n        /* \"contracts/final/GMDstaking.sol\":9000:9041  user.amount.mul(pool.accWETHPerShare).div */\n      tag_204\n      swap1\n        /* \"contracts/final/GMDstaking.sol\":9000:9047  user.amount.mul(pool.accWETHPerShare).div(1e12) */\n      swap2\n      swap1\n      0xffffffff\n      and\n      jump\t// in\n    tag_207:\n        /* \"contracts/final/GMDstaking.sol\":8982:8986  user */\n      dup3\n        /* \"contracts/final/GMDstaking.sol\":8982:8997  user.rewardDebt */\n      0x01\n      add\n        /* \"contracts/final/GMDstaking.sol\":8982:9047  user.rewardDebt = user.amount.mul(pool.accWETHPerShare).div(1e12) */\n      dup2\n      swap1\n      sstore\n      pop\n        /* \"contracts/final/GMDstaking.sol\":9073:9074  0 */\n      0x00\n        /* \"contracts/final/GMDstaking.sol\":9063:9070  pending */\n      dup2\n        /* \"contracts/final/GMDstaking.sol\":9063:9074  pending > 0 */\n      gt\n        /* \"contracts/final/GMDstaking.sol\":9060:9140  if(pending > 0) {... */\n      iszero\n      tag_209\n      jumpi\n        /* \"contracts/final/GMDstaking.sol\":9091:9128  safeWETHTransfer(msg.sender, pending) */\n      tag_210\n        /* \"contracts/final/GMDstaking.sol\":9108:9118  msg.sender */\n      caller\n        /* \"contracts/final/GMDstaking.sol\":9120:9127  pending */\n      dup3\n        /* \"contracts/final/GMDstaking.sol\":9091:9107  safeWETHTransfer */\n      tag_211\n        /* \"contracts/final/GMDstaking.sol\":9091:9128  safeWETHTransfer(msg.sender, pending) */\n      jump\t// in\n    tag_210:\n        /* \"contracts/final/GMDstaking.sol\":9060:9140  if(pending > 0) {... */\n    tag_209:\n        /* \"contracts/final/GMDstaking.sol\":9150:9205  pool.lpToken.safeTransfer(address(msg.sender), _amount) */\n      tag_212\n        /* \"contracts/final/GMDstaking.sol\":9184:9194  msg.sender */\n      caller\n        /* \"contracts/final/GMDstaking.sol\":9197:9204  _amount */\n      dup6\n        /* \"contracts/final/GMDstaking.sol\":9150:9154  pool */\n      dup6\n        /* \"contracts/final/GMDstaking.sol\":9150:9162  pool.lpToken */\n      0x00\n      add\n      0x00\n      swap1\n      sload\n      swap1\n      0x0100\n      exp\n      swap1\n      div\n      0xffffffffffffffffffffffffffffffffffffffff\n      and\n        /* \"contracts/final/GMDstaking.sol\":9150:9175  pool.lpToken.safeTransfer */\n      0xffffffffffffffffffffffffffffffffffffffff\n      and\n      tag_213\n      swap1\n        /* \"contracts/final/GMDstaking.sol\":9150:9205  pool.lpToken.safeTransfer(address(msg.sender), _amount) */\n      swap3\n      swap2\n      swap1\n      0xffffffff\n      and\n      jump\t// in\n    tag_212:\n        /* \"contracts/final/GMDstaking.sol\":9252:9256  _pid */\n      dup5\n        /* \"contracts/final/GMDstaking.sol\":9240:9250  msg.sender */\n      caller\n        /* \"contracts/final/GMDstaking.sol\":9231:9266  Withdraw(msg.sender, _pid, _amount) */\n      0xffffffffffffffffffffffffffffffffffffffff\n      and\n      0xf279e6a1f5e320cca91135676d9cb6e44ca8a08c0b88342bcdb1144f6511b568\n        /* \"contracts/final/GMDstaking.sol\":9258:9265  _amount */\n      dup7\n        /* \"contracts/final/GMDstaking.sol\":9231:9266  Withdraw(msg.sender, _pid, _amount) */\n      mload(0x40)\n      tag_214\n      swap2\n      swap1\n      tag_45\n      jump\t// in\n    tag_214:\n      mload(0x40)\n      dup1\n      swap2\n      sub\n      swap1\n      log3\n        /* \"contracts/final/GMDstaking.sol\":8559:9274  {  ... */\n      pop\n      pop\n      pop\n        /* \"@openzeppelin/contracts/security/ReentrancyGuard.sol\":1701:1702  1 */\n      0x01\n        /* \"@openzeppelin/contracts/security/ReentrancyGuard.sol\":2628:2635  _status */\n      dup1\n        /* \"@openzeppelin/contracts/security/ReentrancyGuard.sol\":2628:2650  _status = _NOT_ENTERED */\n      dup2\n      swap1\n      sstore\n      pop\n        /* \"contracts/final/GMDstaking.sol\":8490:9274  function withdraw(uint256 _pid, uint256 _amount) public nonReentrant {  ... */\n      pop\n      pop\n      jump\t// out\n        /* \"contracts/final/GMDstaking.sol\":2590:2622  bool public withdrawable = false */\n    tag_72:\n      0x09\n      0x00\n      swap1\n      sload\n      swap1\n      0x0100\n      exp\n      swap1\n      div\n      0xff\n      and\n      dup2\n      jump\t// out\n        /* \"contracts/final/GMDstaking.sol\":7001:7697  function updatePool(uint256 _pid) public {... */\n    tag_77:\n        /* \"contracts/final/GMDstaking.sol\":7053:7074  PoolInfo storage pool */\n      0x00\n        /* \"contracts/final/GMDstaking.sol\":7077:7085  poolInfo */\n      0x06\n        /* \"contracts/final/GMDstaking.sol\":7086:7090  _pid */\n      dup3\n        /* \"contracts/final/GMDstaking.sol\":7077:7091  poolInfo[_pid] */\n      dup2\n      sload\n      dup2\n      lt\n      tag_216\n      jumpi\n      tag_217\n      tag_153\n      jump\t// in\n    tag_217:\n    tag_216:\n      swap1\n      0x00\n      mstore\n      keccak256(0x00, 0x20)\n      swap1\n      0x04\n      mul\n      add\n        /* \"contracts/final/GMDstaking.sol\":7053:7091  PoolInfo storage pool = poolInfo[_pid] */\n      swap1\n      pop\n        /* \"contracts/final/GMDstaking.sol\":7125:7129  pool */\n      dup1\n        /* \"contracts/final/GMDstaking.sol\":7125:7144  pool.lastRewardTime */\n      0x02\n      add\n      sload\n        /* \"contracts/final/GMDstaking.sol\":7106:7121  block.timestamp */\n      timestamp\n        /* \"contracts/final/GMDstaking.sol\":7106:7144  block.timestamp <= pool.lastRewardTime */\n      gt\n        /* \"contracts/final/GMDstaking.sol\":7102:7179  if (block.timestamp <= pool.lastRewardTime) {... */\n      tag_219\n      jumpi\n        /* \"contracts/final/GMDstaking.sol\":7161:7168  return; */\n      pop\n      jump(tag_215)\n        /* \"contracts/final/GMDstaking.sol\":7102:7179  if (block.timestamp <= pool.lastRewardTime) {... */\n    tag_219:\n        /* \"contracts/final/GMDstaking.sol\":7189:7205  uint256 lpSupply */\n      0x00\n        /* \"contracts/final/GMDstaking.sol\":7208:7212  pool */\n      dup2\n        /* \"contracts/final/GMDstaking.sol\":7208:7220  pool.lpToken */\n      0x00\n      add\n      0x00\n      swap1\n      sload\n      swap1\n      0x0100\n      exp\n      swap1\n      div\n      0xffffffffffffffffffffffffffffffffffffffff\n      and\n        /* \"contracts/final/GMDstaking.sol\":7208:7230  pool.lpToken.balanceOf */\n      0xffffffffffffffffffffffffffffffffffffffff\n      and\n      0x70a08231\n        /* \"contracts/final/GMDstaking.sol\":7239:7243  this */\n      address\n        /* \"contracts/final/GMDstaking.sol\":7208:7245  pool.lpToken.balanceOf(address(this)) */\n      mload(0x40)\n      dup3\n      0xffffffff\n      and\n      0xe0\n      shl\n      dup2\n      mstore\n      0x04\n      add\n      tag_220\n      swap2\n      swap1\n      tag_95\n      jump\t// in\n    tag_220:\n      0x20\n      mload(0x40)\n      dup1\n      dup4\n      sub\n      dup2\n      dup7\n      gas\n      staticcall\n      iszero\n      dup1\n      iszero\n      tag_222\n      jumpi\n      returndatasize\n      0x00\n      dup1\n      returndatacopy\n      revert(0x00, returndatasize)\n    tag_222:\n      pop\n      pop\n      pop\n      pop\n      mload(0x40)\n      returndatasize\n      not(0x1f)\n      0x1f\n      dup3\n      add\n      and\n      dup3\n      add\n      dup1\n      0x40\n      mstore\n      pop\n      dup2\n      add\n      swap1\n      tag_223\n      swap2\n      swap1\n      tag_224\n      jump\t// in\n    tag_223:\n        /* \"contracts/final/GMDstaking.sol\":7189:7245  uint256 lpSupply = pool.lpToken.balanceOf(address(this)) */\n      swap1\n      pop\n        /* \"contracts/final/GMDstaking.sol\":7272:7273  0 */\n      0x00\n        /* \"contracts/final/GMDstaking.sol\":7260:7268  lpSupply */\n      dup2\n        /* \"contracts/final/GMDstaking.sol\":7260:7273  lpSupply == 0 */\n      eq\n        /* \"contracts/final/GMDstaking.sol\":7256:7360  if (lpSupply == 0) {... */\n      iszero\n      tag_225\n      jumpi\n        /* \"contracts/final/GMDstaking.sol\":7312:7327  block.timestamp */\n      timestamp\n        /* \"contracts/final/GMDstaking.sol\":7290:7294  pool */\n      dup3\n        /* \"contracts/final/GMDstaking.sol\":7290:7309  pool.lastRewardTime */\n      0x02\n      add\n        /* \"contracts/final/GMDstaking.sol\":7290:7327  pool.lastRewardTime = block.timestamp */\n      dup2\n      swap1\n      sstore\n      pop\n        /* \"contracts/final/GMDstaking.sol\":7342:7349  return; */\n      pop\n      pop\n      jump(tag_215)\n        /* \"contracts/final/GMDstaking.sol\":7256:7360  if (lpSupply == 0) {... */\n    tag_225:\n        /* \"contracts/final/GMDstaking.sol\":7370:7388  uint256 multiplier */\n      0x00\n        /* \"contracts/final/GMDstaking.sol\":7391:7442  getMultiplier(pool.lastRewardTime, block.timestamp) */\n      tag_226\n        /* \"contracts/final/GMDstaking.sol\":7405:7409  pool */\n      dup4\n        /* \"contracts/final/GMDstaking.sol\":7405:7424  pool.lastRewardTime */\n      0x02\n      add\n      sload\n        /* \"contracts/final/GMDstaking.sol\":7426:7441  block.timestamp */\n      timestamp\n        /* \"contracts/final/GMDstaking.sol\":7391:7404  getMultiplier */\n      tag_98\n        /* \"contracts/final/GMDstaking.sol\":7391:7442  getMultiplier(pool.lastRewardTime, block.timestamp) */\n      jump\t// in\n    tag_226:\n        /* \"contracts/final/GMDstaking.sol\":7370:7442  uint256 multiplier = getMultiplier(pool.lastRewardTime, block.timestamp) */\n      swap1\n      pop\n        /* \"contracts/final/GMDstaking.sol\":7453:7471  uint256 WETHReward */\n      0x00\n        /* \"contracts/final/GMDstaking.sol\":7474:7545  multiplier.mul(WETHPerSecond).mul(pool.allocPoint).div(totalAllocPoint) */\n      tag_227\n        /* \"contracts/final/GMDstaking.sol\":7529:7544  totalAllocPoint */\n      sload(0x08)\n        /* \"contracts/final/GMDstaking.sol\":7474:7524  multiplier.mul(WETHPerSecond).mul(pool.allocPoint) */\n      tag_228\n        /* \"contracts/final/GMDstaking.sol\":7508:7512  pool */\n      dup7\n        /* \"contracts/final/GMDstaking.sol\":7508:7523  pool.allocPoint */\n      0x01\n      add\n      sload\n        /* \"contracts/final/GMDstaking.sol\":7474:7503  multiplier.mul(WETHPerSecond) */\n      tag_229\n        /* \"contracts/final/GMDstaking.sol\":7489:7502  WETHPerSecond */\n      sload(0x04)\n        /* \"contracts/final/GMDstaking.sol\":7474:7484  multiplier */\n      dup8\n        /* \"contracts/final/GMDstaking.sol\":7474:7488  multiplier.mul */\n      tag_203\n      swap1\n        /* \"contracts/final/GMDstaking.sol\":7474:7503  multiplier.mul(WETHPerSecond) */\n      swap2\n      swap1\n      0xffffffff\n      and\n      jump\t// in\n    tag_229:\n        /* \"contracts/final/GMDstaking.sol\":7474:7507  multiplier.mul(WETHPerSecond).mul */\n      tag_203\n      swap1\n        /* \"contracts/final/GMDstaking.sol\":7474:7524  multiplier.mul(WETHPerSecond).mul(pool.allocPoint) */\n      swap2\n      swap1\n      0xffffffff\n      and\n      jump\t// in\n    tag_228:\n        /* \"contracts/final/GMDstaking.sol\":7474:7528  multiplier.mul(WETHPerSecond).mul(pool.allocPoint).div */\n      tag_204\n      swap1\n        /* \"contracts/final/GMDstaking.sol\":7474:7545  multiplier.mul(WETHPerSecond).mul(pool.allocPoint).div(totalAllocPoint) */\n      swap2\n      swap1\n      0xffffffff\n      and\n      jump\t// in\n    tag_227:\n        /* \"contracts/final/GMDstaking.sol\":7453:7545  uint256 WETHReward = multiplier.mul(WETHPerSecond).mul(pool.allocPoint).div(totalAllocPoint) */\n      swap1\n      pop\n        /* \"contracts/final/GMDstaking.sol\":7581:7641  pool.accWETHPerShare.add(WETHReward.mul(1e12).div(lpSupply)) */\n      tag_230\n        /* \"contracts/final/GMDstaking.sol\":7606:7640  WETHReward.mul(1e12).div(lpSupply) */\n      tag_231\n        /* \"contracts/final/GMDstaking.sol\":7631:7639  lpSupply */\n      dup5\n        /* \"contracts/final/GMDstaking.sol\":7606:7626  WETHReward.mul(1e12) */\n      tag_232\n        /* \"contracts/final/GMDstaking.sol\":7621:7625  1e12 */\n      0xe8d4a51000\n        /* \"contracts/final/GMDstaking.sol\":7606:7616  WETHReward */\n      dup6\n        /* \"contracts/final/GMDstaking.sol\":7606:7620  WETHReward.mul */\n      tag_203\n      swap1\n        /* \"contracts/final/GMDstaking.sol\":7606:7626  WETHReward.mul(1e12) */\n      swap2\n      swap1\n      0xffffffff\n      and\n      jump\t// in\n    tag_232:\n        /* \"contracts/final/GMDstaking.sol\":7606:7630  WETHReward.mul(1e12).div */\n      tag_204\n      swap1\n        /* \"contracts/final/GMDstaking.sol\":7606:7640  WETHReward.mul(1e12).div(lpSupply) */\n      swap2\n      swap1\n      0xffffffff\n      and\n      jump\t// in\n    tag_231:\n        /* \"contracts/final/GMDstaking.sol\":7581:7585  pool */\n      dup6\n        /* \"contracts/final/GMDstaking.sol\":7581:7601  pool.accWETHPerShare */\n      0x03\n      add\n      sload\n        /* \"contracts/final/GMDstaking.sol\":7581:7605  pool.accWETHPerShare.add */\n      tag_166\n      swap1\n        /* \"contracts/final/GMDstaking.sol\":7581:7641  pool.accWETHPerShare.add(WETHReward.mul(1e12).div(lpSupply)) */\n      swap2\n      swap1\n      0xffffffff\n      and\n      jump\t// in\n    tag_230:\n        /* \"contracts/final/GMDstaking.sol\":7558:7562  pool */\n      dup5\n        /* \"contracts/final/GMDstaking.sol\":7558:7578  pool.accWETHPerShare */\n      0x03\n      add\n        /* \"contracts/final/GMDstaking.sol\":7558:7641  pool.accWETHPerShare = pool.accWETHPerShare.add(WETHReward.mul(1e12).div(lpSupply)) */\n      dup2\n      swap1\n      sstore\n      pop\n        /* \"contracts/final/GMDstaking.sol\":7674:7689  block.timestamp */\n      timestamp\n        /* \"contracts/final/GMDstaking.sol\":7652:7656  pool */\n      dup5\n        /* \"contracts/final/GMDstaking.sol\":7652:7671  pool.lastRewardTime */\n      0x02\n      add\n        /* \"contracts/final/GMDstaking.sol\":7652:7689  pool.lastRewardTime = block.timestamp */\n      dup2\n      swap1\n      sstore\n      pop\n        /* \"contracts/final/GMDstaking.sol\":7042:7697  {... */\n      pop\n      pop\n      pop\n      pop\n        /* \"contracts/final/GMDstaking.sol\":7001:7697  function updatePool(uint256 _pid) public {... */\n    tag_215:\n      pop\n      jump\t// out\n        /* \"contracts/final/GMDstaking.sol\":9362:9885  function emergencyWithdraw(uint256 _pid) public  nonReentrant {... */\n    tag_80:\n        /* \"@openzeppelin/contracts/security/ReentrancyGuard.sol\":1744:1745  2 */\n      0x02\n        /* \"@openzeppelin/contracts/security/ReentrancyGuard.sol\":2325:2332  _status */\n      sload(0x01)\n        /* \"@openzeppelin/contracts/security/ReentrancyGuard.sol\":2325:2344  _status != _ENTERED */\n      eq\n      iszero\n        /* \"@openzeppelin/contracts/security/ReentrancyGuard.sol\":2317:2380  require(_status != _ENTERED, \"ReentrancyGuard: reentrant call\") */\n      tag_234\n      jumpi\n      mload(0x40)\n      0x08c379a000000000000000000000000000000000000000000000000000000000\n      dup2\n      mstore\n      0x04\n      add\n      tag_235\n      swap1\n      tag_188\n      jump\t// in\n    tag_235:\n      mload(0x40)\n      dup1\n      swap2\n      sub\n      swap1\n      revert\n    tag_234:\n        /* \"@openzeppelin/contracts/security/ReentrancyGuard.sol\":1744:1745  2 */\n      0x02\n        /* \"@openzeppelin/contracts/security/ReentrancyGuard.sol\":2455:2462  _status */\n      0x01\n        /* \"@openzeppelin/contracts/security/ReentrancyGuard.sol\":2455:2473  _status = _ENTERED */\n      dup2\n      swap1\n      sstore\n      pop\n        /* \"contracts/final/GMDstaking.sol\":9435:9456  PoolInfo storage pool */\n      0x00\n        /* \"contracts/final/GMDstaking.sol\":9459:9467  poolInfo */\n      0x06\n        /* \"contracts/final/GMDstaking.sol\":9468:9472  _pid */\n      dup3\n        /* \"contracts/final/GMDstaking.sol\":9459:9473  poolInfo[_pid] */\n      dup2\n      sload\n      dup2\n      lt\n      tag_237\n      jumpi\n      tag_238\n      tag_153\n      jump\t// in\n    tag_238:\n    tag_237:\n      swap1\n      0x00\n      mstore\n      keccak256(0x00, 0x20)\n      swap1\n      0x04\n      mul\n      add\n        /* \"contracts/final/GMDstaking.sol\":9435:9473  PoolInfo storage pool = poolInfo[_pid] */\n      swap1\n      pop\n        /* \"contracts/final/GMDstaking.sol\":9484:9505  UserInfo storage user */\n      0x00\n        /* \"contracts/final/GMDstaking.sol\":9508:9516  userInfo */\n      0x07\n        /* \"contracts/final/GMDstaking.sol\":9508:9522  userInfo[_pid] */\n      0x00\n        /* \"contracts/final/GMDstaking.sol\":9517:9521  _pid */\n      dup5\n        /* \"contracts/final/GMDstaking.sol\":9508:9522  userInfo[_pid] */\n      dup2\n      mstore\n      0x20\n      add\n      swap1\n      dup2\n      mstore\n      0x20\n      add\n      0x00\n      keccak256\n        /* \"contracts/final/GMDstaking.sol\":9508:9534  userInfo[_pid][msg.sender] */\n      0x00\n        /* \"contracts/final/GMDstaking.sol\":9523:9533  msg.sender */\n      caller\n        /* \"contracts/final/GMDstaking.sol\":9508:9534  userInfo[_pid][msg.sender] */\n      0xffffffffffffffffffffffffffffffffffffffff\n      and\n      0xffffffffffffffffffffffffffffffffffffffff\n      and\n      dup2\n      mstore\n      0x20\n      add\n      swap1\n      dup2\n      mstore\n      0x20\n      add\n      0x00\n      keccak256\n        /* \"contracts/final/GMDstaking.sol\":9484:9534  UserInfo storage user = userInfo[_pid][msg.sender] */\n      swap1\n      pop\n        /* \"contracts/final/GMDstaking.sol\":9547:9565  uint oldUserAmount */\n      0x00\n        /* \"contracts/final/GMDstaking.sol\":9568:9572  user */\n      dup2\n        /* \"contracts/final/GMDstaking.sol\":9568:9579  user.amount */\n      0x00\n      add\n      sload\n        /* \"contracts/final/GMDstaking.sol\":9547:9579  uint oldUserAmount = user.amount */\n      swap1\n      pop\n        /* \"contracts/final/GMDstaking.sol\":9604:9605  0 */\n      0x00\n        /* \"contracts/final/GMDstaking.sol\":9590:9594  user */\n      dup3\n        /* \"contracts/final/GMDstaking.sol\":9590:9601  user.amount */\n      0x00\n      add\n        /* \"contracts/final/GMDstaking.sol\":9590:9605  user.amount = 0 */\n      dup2\n      swap1\n      sstore\n      pop\n        /* \"contracts/final/GMDstaking.sol\":9634:9635  0 */\n      0x00\n        /* \"contracts/final/GMDstaking.sol\":9616:9620  user */\n      dup3\n        /* \"contracts/final/GMDstaking.sol\":9616:9631  user.rewardDebt */\n      0x01\n      add\n        /* \"contracts/final/GMDstaking.sol\":9616:9635  user.rewardDebt = 0 */\n      dup2\n      swap1\n      sstore\n      pop\n        /* \"contracts/final/GMDstaking.sol\":9648:9728  pool.lpToken.safeTransfer(address(msg.sender), oldUserAmount.mul(700).div(1000)) */\n      tag_240\n        /* \"contracts/final/GMDstaking.sol\":9682:9692  msg.sender */\n      caller\n        /* \"contracts/final/GMDstaking.sol\":9695:9727  oldUserAmount.mul(700).div(1000) */\n      tag_241\n        /* \"contracts/final/GMDstaking.sol\":9722:9726  1000 */\n      0x03e8\n        /* \"contracts/final/GMDstaking.sol\":9695:9717  oldUserAmount.mul(700) */\n      tag_242\n        /* \"contracts/final/GMDstaking.sol\":9713:9716  700 */\n      0x02bc\n        /* \"contracts/final/GMDstaking.sol\":9695:9708  oldUserAmount */\n      dup7\n        /* \"contracts/final/GMDstaking.sol\":9695:9712  oldUserAmount.mul */\n      tag_203\n      swap1\n        /* \"contracts/final/GMDstaking.sol\":9695:9717  oldUserAmount.mul(700) */\n      swap2\n      swap1\n      0xffffffff\n      and\n      jump\t// in\n    tag_242:\n        /* \"contracts/final/GMDstaking.sol\":9695:9721  oldUserAmount.mul(700).div */\n      tag_204\n      swap1\n        /* \"contracts/final/GMDstaking.sol\":9695:9727  oldUserAmount.mul(700).div(1000) */\n      swap2\n      swap1\n      0xffffffff\n      and\n      jump\t// in\n    tag_241:\n        /* \"contracts/final/GMDstaking.sol\":9648:9652  pool */\n      dup6\n        /* \"contracts/final/GMDstaking.sol\":9648:9660  pool.lpToken */\n      0x00\n      add\n      0x00\n      swap1\n      sload\n      swap1\n      0x0100\n      exp\n      swap1\n      div\n      0xffffffffffffffffffffffffffffffffffffffff\n      and\n        /* \"contracts/final/GMDstaking.sol\":9648:9673  pool.lpToken.safeTransfer */\n      0xffffffffffffffffffffffffffffffffffffffff\n      and\n      tag_213\n      swap1\n        /* \"contracts/final/GMDstaking.sol\":9648:9728  pool.lpToken.safeTransfer(address(msg.sender), oldUserAmount.mul(700).div(1000)) */\n      swap3\n      swap2\n      swap1\n      0xffffffff\n      and\n      jump\t// in\n    tag_240:\n        /* \"contracts/final/GMDstaking.sol\":9739:9807  pool.lpToken.safeTransfer(owner(), oldUserAmount.mul(300).div(1000)) */\n      tag_243\n        /* \"contracts/final/GMDstaking.sol\":9765:9772  owner() */\n      tag_244\n        /* \"contracts/final/GMDstaking.sol\":9765:9770  owner */\n      tag_93\n        /* \"contracts/final/GMDstaking.sol\":9765:9772  owner() */\n      jump\t// in\n    tag_244:\n        /* \"contracts/final/GMDstaking.sol\":9774:9806  oldUserAmount.mul(300).div(1000) */\n      tag_245\n        /* \"contracts/final/GMDstaking.sol\":9801:9805  1000 */\n      0x03e8\n        /* \"contracts/final/GMDstaking.sol\":9774:9796  oldUserAmount.mul(300) */\n      tag_246\n        /* \"contracts/final/GMDstaking.sol\":9792:9795  300 */\n      0x012c\n        /* \"contracts/final/GMDstaking.sol\":9774:9787  oldUserAmount */\n      dup7\n        /* \"contracts/final/GMDstaking.sol\":9774:9791  oldUserAmount.mul */\n      tag_203\n      swap1\n        /* \"contracts/final/GMDstaking.sol\":9774:9796  oldUserAmount.mul(300) */\n      swap2\n      swap1\n      0xffffffff\n      and\n      jump\t// in\n    tag_246:\n        /* \"contracts/final/GMDstaking.sol\":9774:9800  oldUserAmount.mul(300).div */\n      tag_204\n      swap1\n        /* \"contracts/final/GMDstaking.sol\":9774:9806  oldUserAmount.mul(300).div(1000) */\n      swap2\n      swap1\n      0xffffffff\n      and\n      jump\t// in\n    tag_245:\n        /* \"contracts/final/GMDstaking.sol\":9739:9743  pool */\n      dup6\n        /* \"contracts/final/GMDstaking.sol\":9739:9751  pool.lpToken */\n      0x00\n      add\n      0x00\n      swap1\n      sload\n      swap1\n      0x0100\n      exp\n      swap1\n      div\n      0xffffffffffffffffffffffffffffffffffffffff\n      and\n        /* \"contracts/final/GMDstaking.sol\":9739:9764  pool.lpToken.safeTransfer */\n      0xffffffffffffffffffffffffffffffffffffffff\n      and\n      tag_213\n      swap1\n        /* \"contracts/final/GMDstaking.sol\":9739:9807  pool.lpToken.safeTransfer(owner(), oldUserAmount.mul(300).div(1000)) */\n      swap3\n      swap2\n      swap1\n      0xffffffff\n      and\n      jump\t// in\n    tag_243:\n        /* \"contracts/final/GMDstaking.sol\":9855:9859  _pid */\n      dup4\n        /* \"contracts/final/GMDstaking.sol\":9843:9853  msg.sender */\n      caller\n        /* \"contracts/final/GMDstaking.sol\":9825:9875  EmergencyWithdraw(msg.sender, _pid, oldUserAmount) */\n      0xffffffffffffffffffffffffffffffffffffffff\n      and\n      0xbb757047c2b5f3974fe26b7c10f732e7bce710b0952a71082702781e62ae0595\n        /* \"contracts/final/GMDstaking.sol\":9861:9874  oldUserAmount */\n      dup4\n        /* \"contracts/final/GMDstaking.sol\":9825:9875  EmergencyWithdraw(msg.sender, _pid, oldUserAmount) */\n      mload(0x40)\n      tag_247\n      swap2\n      swap1\n      tag_45\n      jump\t// in\n    tag_247:\n      mload(0x40)\n      dup1\n      swap2\n      sub\n      swap1\n      log3\n        /* \"contracts/final/GMDstaking.sol\":9424:9885  {... */\n      pop\n      pop\n      pop\n        /* \"@openzeppelin/contracts/security/ReentrancyGuard.sol\":1701:1702  1 */\n      0x01\n        /* \"@openzeppelin/contracts/security/ReentrancyGuard.sol\":2628:2635  _status */\n      dup1\n        /* \"@openzeppelin/contracts/security/ReentrancyGuard.sol\":2628:2650  _status = _NOT_ENTERED */\n      dup2\n      swap1\n      sstore\n      pop\n        /* \"contracts/final/GMDstaking.sol\":9362:9885  function emergencyWithdraw(uint256 _pid) public  nonReentrant {... */\n      pop\n      jump\t// out\n        /* \"contracts/final/GMDstaking.sol\":6745:6925  function massUpdatePools() public {... */\n    tag_82:\n        /* \"contracts/final/GMDstaking.sol\":6790:6804  uint256 length */\n      0x00\n        /* \"contracts/final/GMDstaking.sol\":6807:6815  poolInfo */\n      0x06\n        /* \"contracts/final/GMDstaking.sol\":6807:6822  poolInfo.length */\n      dup1\n      sload\n      swap1\n      pop\n        /* \"contracts/final/GMDstaking.sol\":6790:6822  uint256 length = poolInfo.length */\n      swap1\n      pop\n        /* \"contracts/final/GMDstaking.sol\":6838:6849  uint256 pid */\n      0x00\n        /* \"contracts/final/GMDstaking.sol\":6833:6918  for (uint256 pid = 0; pid < length; ++pid) {... */\n    tag_249:\n        /* \"contracts/final/GMDstaking.sol\":6861:6867  length */\n      dup2\n        /* \"contracts/final/GMDstaking.sol\":6855:6858  pid */\n      dup2\n        /* \"contracts/final/GMDstaking.sol\":6855:6867  pid < length */\n      lt\n        /* \"contracts/final/GMDstaking.sol\":6833:6918  for (uint256 pid = 0; pid < length; ++pid) {... */\n      iszero\n      tag_250\n      jumpi\n        /* \"contracts/final/GMDstaking.sol\":6891:6906  updatePool(pid) */\n      tag_252\n        /* \"contracts/final/GMDstaking.sol\":6902:6905  pid */\n      dup2\n        /* \"contracts/final/GMDstaking.sol\":6891:6901  updatePool */\n      tag_77\n        /* \"contracts/final/GMDstaking.sol\":6891:6906  updatePool(pid) */\n      jump\t// in\n    tag_252:\n        /* \"contracts/final/GMDstaking.sol\":6869:6874  ++pid */\n      dup1\n      tag_253\n      swap1\n      tag_254\n      jump\t// in\n    tag_253:\n      swap1\n      pop\n        /* \"contracts/final/GMDstaking.sol\":6833:6918  for (uint256 pid = 0; pid < length; ++pid) {... */\n      jump(tag_249)\n    tag_250:\n      pop\n        /* \"contracts/final/GMDstaking.sol\":6779:6925  {... */\n      pop\n        /* \"contracts/final/GMDstaking.sol\":6745:6925  function massUpdatePools() public {... */\n      jump\t// out\n        /* \"@openzeppelin/contracts/access/Ownable.sol\":1831:1932  function renounceOwnership() public virtual onlyOwner {... */\n    tag_84:\n        /* \"@openzeppelin/contracts/access/Ownable.sol\":1094:1107  _checkOwner() */\n      tag_256\n        /* \"@openzeppelin/contracts/access/Ownable.sol\":1094:1105  _checkOwner */\n      tag_135\n        /* \"@openzeppelin/contracts/access/Ownable.sol\":1094:1107  _checkOwner() */\n      jump\t// in\n    tag_256:\n        /* \"@openzeppelin/contracts/access/Ownable.sol\":1895:1925  _transferOwnership(address(0)) */\n      tag_258\n        /* \"@openzeppelin/contracts/access/Ownable.sol\":1922:1923  0 */\n      0x00\n        /* \"@openzeppelin/contracts/access/Ownable.sol\":1895:1913  _transferOwnership */\n      tag_259\n        /* \"@openzeppelin/contracts/access/Ownable.sol\":1895:1925  _transferOwnership(address(0)) */\n      jump\t// in\n    tag_258:\n        /* \"@openzeppelin/contracts/access/Ownable.sol\":1831:1932  function renounceOwnership() public virtual onlyOwner {... */\n      jump\t// out\n        /* \"contracts/final/GMDstaking.sol\":2547:2581  uint256 public immutable startTime */\n    tag_86:\n      immutable(\"0x46612c86431bf839553975c6871c96460d6b955d2f53301921ef55c1ad868ef7\")\n      dup2\n      jump\t// out\n        /* \"contracts/final/GMDstaking.sol\":3352:3434  function closeWithdraw() external onlyOwner{... */\n    tag_89:\n        /* \"@openzeppelin/contracts/access/Ownable.sol\":1094:1107  _checkOwner() */\n      tag_261\n        /* \"@openzeppelin/contracts/access/Ownable.sol\":1094:1105  _checkOwner */\n      tag_135\n        /* \"@openzeppelin/contracts/access/Ownable.sol\":1094:1107  _checkOwner() */\n      jump\t// in\n    tag_261:\n        /* \"contracts/final/GMDstaking.sol\":3421:3426  false */\n      0x00\n        /* \"contracts/final/GMDstaking.sol\":3406:3418  withdrawable */\n      0x09\n      0x00\n        /* \"contracts/final/GMDstaking.sol\":3406:3426  withdrawable = false */\n      0x0100\n      exp\n      dup2\n      sload\n      dup2\n      0xff\n      mul\n      not\n      and\n      swap1\n      dup4\n      iszero\n      iszero\n      mul\n      or\n      swap1\n      sstore\n      pop\n        /* \"contracts/final/GMDstaking.sol\":3352:3434  function closeWithdraw() external onlyOwner{... */\n      jump\t// out\n        /* \"contracts/final/GMDstaking.sol\":3054:3134  function openWithdraw() external onlyOwner{... */\n    tag_91:\n        /* \"@openzeppelin/contracts/access/Ownable.sol\":1094:1107  _checkOwner() */\n      tag_264\n        /* \"@openzeppelin/contracts/access/Ownable.sol\":1094:1105  _checkOwner */\n      tag_135\n        /* \"@openzeppelin/contracts/access/Ownable.sol\":1094:1107  _checkOwner() */\n      jump\t// in\n    tag_264:\n        /* \"contracts/final/GMDstaking.sol\":3122:3126  true */\n      0x01\n        /* \"contracts/final/GMDstaking.sol\":3107:3119  withdrawable */\n      0x09\n      0x00\n        /* \"contracts/final/GMDstaking.sol\":3107:3126  withdrawable = true */\n      0x0100\n      exp\n      dup2\n      sload\n      dup2\n      0xff\n      mul\n      not\n      and\n      swap1\n      dup4\n      iszero\n      iszero\n      mul\n      or\n      swap1\n      sstore\n      pop\n        /* \"contracts/final/GMDstaking.sol\":3054:3134  function openWithdraw() external onlyOwner{... */\n      jump\t// out\n        /* \"@openzeppelin/contracts/access/Ownable.sol\":1201:1286  function owner() public view virtual returns (address) {... */\n    tag_93:\n        /* \"@openzeppelin/contracts/access/Ownable.sol\":1247:1254  address */\n      0x00\n        /* \"@openzeppelin/contracts/access/Ownable.sol\":1273:1279  _owner */\n      dup1\n      0x00\n      swap1\n      sload\n      swap1\n      0x0100\n      exp\n      swap1\n      div\n      0xffffffffffffffffffffffffffffffffffffffff\n      and\n        /* \"@openzeppelin/contracts/access/Ownable.sol\":1266:1279  return _owner */\n      swap1\n      pop\n        /* \"@openzeppelin/contracts/access/Ownable.sol\":1201:1286  function owner() public view virtual returns (address) {... */\n      swap1\n      jump\t// out\n        /* \"contracts/final/GMDstaking.sol\":5594:5834  function getMultiplier(uint256 _from, uint256 _to) public view returns (uint256) {... */\n    tag_98:\n        /* \"contracts/final/GMDstaking.sol\":5666:5673  uint256 */\n      0x00\n        /* \"contracts/final/GMDstaking.sol\":5702:5711  startTime */\n      immutable(\"0x46612c86431bf839553975c6871c96460d6b955d2f53301921ef55c1ad868ef7\")\n        /* \"contracts/final/GMDstaking.sol\":5694:5699  _from */\n      dup4\n        /* \"contracts/final/GMDstaking.sol\":5694:5711  _from > startTime */\n      gt\n        /* \"contracts/final/GMDstaking.sol\":5694:5731  _from > startTime ? _from : startTime */\n      tag_268\n      jumpi\n        /* \"contracts/final/GMDstaking.sol\":5722:5731  startTime */\n      immutable(\"0x46612c86431bf839553975c6871c96460d6b955d2f53301921ef55c1ad868ef7\")\n        /* \"contracts/final/GMDstaking.sol\":5694:5731  _from > startTime ? _from : startTime */\n      jump(tag_269)\n    tag_268:\n        /* \"contracts/final/GMDstaking.sol\":5714:5719  _from */\n      dup3\n        /* \"contracts/final/GMDstaking.sol\":5694:5731  _from > startTime ? _from : startTime */\n    tag_269:\n        /* \"contracts/final/GMDstaking.sol\":5686:5731  _from = _from > startTime ? _from : startTime */\n      swap3\n      pop\n        /* \"contracts/final/GMDstaking.sol\":5752:5761  startTime */\n      immutable(\"0x46612c86431bf839553975c6871c96460d6b955d2f53301921ef55c1ad868ef7\")\n        /* \"contracts/final/GMDstaking.sol\":5746:5749  _to */\n      dup3\n        /* \"contracts/final/GMDstaking.sol\":5746:5761  _to < startTime */\n      lt\n        /* \"contracts/final/GMDstaking.sol\":5742:5798  if (_to < startTime) {... */\n      iszero\n      tag_270\n      jumpi\n        /* \"contracts/final/GMDstaking.sol\":5785:5786  0 */\n      0x00\n        /* \"contracts/final/GMDstaking.sol\":5778:5786  return 0 */\n      swap1\n      pop\n      jump(tag_267)\n        /* \"contracts/final/GMDstaking.sol\":5742:5798  if (_to < startTime) {... */\n    tag_270:\n        /* \"contracts/final/GMDstaking.sol\":5821:5826  _from */\n      dup3\n        /* \"contracts/final/GMDstaking.sol\":5815:5818  _to */\n      dup3\n        /* \"contracts/final/GMDstaking.sol\":5815:5826  _to - _from */\n      tag_271\n      swap2\n      swap1\n      tag_156\n      jump\t// in\n    tag_271:\n        /* \"contracts/final/GMDstaking.sol\":5808:5826  return _to - _from */\n      swap1\n      pop\n        /* \"contracts/final/GMDstaking.sol\":5594:5834  function getMultiplier(uint256 _from, uint256 _to) public view returns (uint256) {... */\n    tag_267:\n      swap3\n      swap2\n      pop\n      pop\n      jump\t// out\n        /* \"contracts/final/GMDstaking.sol\":2079:2126  uint256 public constant maxWETHPerSecond = 1e18 */\n    tag_101:\n        /* \"contracts/final/GMDstaking.sol\":2122:2126  1e18 */\n      0x0de0b6b3a7640000\n        /* \"contracts/final/GMDstaking.sol\":2079:2126  uint256 public constant maxWETHPerSecond = 1e18 */\n      dup2\n      jump\t// out\n        /* \"contracts/final/GMDstaking.sol\":2297:2363  mapping (uint256 => mapping (address => UserInfo)) public userInfo */\n    tag_106:\n      mstore(0x20, 0x07)\n      dup2\n      0x00\n      mstore\n      mstore(0x20, keccak256(0x00, 0x40))\n      dup1\n      0x00\n      mstore\n      keccak256(0x00, 0x40)\n      0x00\n      swap2\n      pop\n      swap2\n      pop\n      pop\n      dup1\n      0x00\n      add\n      sload\n      swap1\n      dup1\n      0x01\n      add\n      sload\n      swap1\n      pop\n      dup3\n      jump\t// out\n        /* \"contracts/final/GMDstaking.sol\":5898:6662  function pendingWETH(uint256 _pid, address _user) external view returns (uint256) {... */\n    tag_111:\n        /* \"contracts/final/GMDstaking.sol\":5971:5978  uint256 */\n      0x00\n        /* \"contracts/final/GMDstaking.sol\":5991:6012  PoolInfo storage pool */\n      dup1\n        /* \"contracts/final/GMDstaking.sol\":6015:6023  poolInfo */\n      0x06\n        /* \"contracts/final/GMDstaking.sol\":6024:6028  _pid */\n      dup5\n        /* \"contracts/final/GMDstaking.sol\":6015:6029  poolInfo[_pid] */\n      dup2\n      sload\n      dup2\n      lt\n      tag_273\n      jumpi\n      tag_274\n      tag_153\n      jump\t// in\n    tag_274:\n    tag_273:\n      swap1\n      0x00\n      mstore\n      keccak256(0x00, 0x20)\n      swap1\n      0x04\n      mul\n      add\n        /* \"contracts/final/GMDstaking.sol\":5991:6029  PoolInfo storage pool = poolInfo[_pid] */\n      swap1\n      pop\n        /* \"contracts/final/GMDstaking.sol\":6040:6061  UserInfo storage user */\n      0x00\n        /* \"contracts/final/GMDstaking.sol\":6064:6072  userInfo */\n      0x07\n        /* \"contracts/final/GMDstaking.sol\":6064:6078  userInfo[_pid] */\n      0x00\n        /* \"contracts/final/GMDstaking.sol\":6073:6077  _pid */\n      dup7\n        /* \"contracts/final/GMDstaking.sol\":6064:6078  userInfo[_pid] */\n      dup2\n      mstore\n      0x20\n      add\n      swap1\n      dup2\n      mstore\n      0x20\n      add\n      0x00\n      keccak256\n        /* \"contracts/final/GMDstaking.sol\":6064:6085  userInfo[_pid][_user] */\n      0x00\n        /* \"contracts/final/GMDstaking.sol\":6079:6084  _user */\n      dup6\n        /* \"contracts/final/GMDstaking.sol\":6064:6085  userInfo[_pid][_user] */\n      0xffffffffffffffffffffffffffffffffffffffff\n      and\n      0xffffffffffffffffffffffffffffffffffffffff\n      and\n      dup2\n      mstore\n      0x20\n      add\n      swap1\n      dup2\n      mstore\n      0x20\n      add\n      0x00\n      keccak256\n        /* \"contracts/final/GMDstaking.sol\":6040:6085  UserInfo storage user = userInfo[_pid][_user] */\n      swap1\n      pop\n        /* \"contracts/final/GMDstaking.sol\":6096:6119  uint256 accWETHPerShare */\n      0x00\n        /* \"contracts/final/GMDstaking.sol\":6122:6126  pool */\n      dup3\n        /* \"contracts/final/GMDstaking.sol\":6122:6142  pool.accWETHPerShare */\n      0x03\n      add\n      sload\n        /* \"contracts/final/GMDstaking.sol\":6096:6142  uint256 accWETHPerShare = pool.accWETHPerShare */\n      swap1\n      pop\n        /* \"contracts/final/GMDstaking.sol\":6153:6169  uint256 lpSupply */\n      0x00\n        /* \"contracts/final/GMDstaking.sol\":6172:6176  pool */\n      dup4\n        /* \"contracts/final/GMDstaking.sol\":6172:6184  pool.lpToken */\n      0x00\n      add\n      0x00\n      swap1\n      sload\n      swap1\n      0x0100\n      exp\n      swap1\n      div\n      0xffffffffffffffffffffffffffffffffffffffff\n      and\n        /* \"contracts/final/GMDstaking.sol\":6172:6194  pool.lpToken.balanceOf */\n      0xffffffffffffffffffffffffffffffffffffffff\n      and\n      0x70a08231\n        /* \"contracts/final/GMDstaking.sol\":6203:6207  this */\n      address\n        /* \"contracts/final/GMDstaking.sol\":6172:6209  pool.lpToken.balanceOf(address(this)) */\n      mload(0x40)\n      dup3\n      0xffffffff\n      and\n      0xe0\n      shl\n      dup2\n      mstore\n      0x04\n      add\n      tag_276\n      swap2\n      swap1\n      tag_95\n      jump\t// in\n    tag_276:\n      0x20\n      mload(0x40)\n      dup1\n      dup4\n      sub\n      dup2\n      dup7\n      gas\n      staticcall\n      iszero\n      dup1\n      iszero\n      tag_278\n      jumpi\n      returndatasize\n      0x00\n      dup1\n      returndatacopy\n      revert(0x00, returndatasize)\n    tag_278:\n      pop\n      pop\n      pop\n      pop\n      mload(0x40)\n      returndatasize\n      not(0x1f)\n      0x1f\n      dup3\n      add\n      and\n      dup3\n      add\n      dup1\n      0x40\n      mstore\n      pop\n      dup2\n      add\n      swap1\n      tag_279\n      swap2\n      swap1\n      tag_224\n      jump\t// in\n    tag_279:\n        /* \"contracts/final/GMDstaking.sol\":6153:6209  uint256 lpSupply = pool.lpToken.balanceOf(address(this)) */\n      swap1\n      pop\n        /* \"contracts/final/GMDstaking.sol\":6242:6246  pool */\n      dup4\n        /* \"contracts/final/GMDstaking.sol\":6242:6261  pool.lastRewardTime */\n      0x02\n      add\n      sload\n        /* \"contracts/final/GMDstaking.sol\":6224:6239  block.timestamp */\n      timestamp\n        /* \"contracts/final/GMDstaking.sol\":6224:6261  block.timestamp > pool.lastRewardTime */\n      gt\n        /* \"contracts/final/GMDstaking.sol\":6224:6278  block.timestamp > pool.lastRewardTime && lpSupply != 0 */\n      dup1\n      iszero\n      tag_280\n      jumpi\n      pop\n        /* \"contracts/final/GMDstaking.sol\":6277:6278  0 */\n      0x00\n        /* \"contracts/final/GMDstaking.sol\":6265:6273  lpSupply */\n      dup2\n        /* \"contracts/final/GMDstaking.sol\":6265:6278  lpSupply != 0 */\n      eq\n      iszero\n        /* \"contracts/final/GMDstaking.sol\":6224:6278  block.timestamp > pool.lastRewardTime && lpSupply != 0 */\n    tag_280:\n        /* \"contracts/final/GMDstaking.sol\":6220:6574  if (block.timestamp > pool.lastRewardTime && lpSupply != 0) {... */\n      iszero\n      tag_281\n      jumpi\n        /* \"contracts/final/GMDstaking.sol\":6295:6313  uint256 multiplier */\n      0x00\n        /* \"contracts/final/GMDstaking.sol\":6316:6367  getMultiplier(pool.lastRewardTime, block.timestamp) */\n      tag_282\n        /* \"contracts/final/GMDstaking.sol\":6330:6334  pool */\n      dup6\n        /* \"contracts/final/GMDstaking.sol\":6330:6349  pool.lastRewardTime */\n      0x02\n      add\n      sload\n        /* \"contracts/final/GMDstaking.sol\":6351:6366  block.timestamp */\n      timestamp\n        /* \"contracts/final/GMDstaking.sol\":6316:6329  getMultiplier */\n      tag_98\n        /* \"contracts/final/GMDstaking.sol\":6316:6367  getMultiplier(pool.lastRewardTime, block.timestamp) */\n      jump\t// in\n    tag_282:\n        /* \"contracts/final/GMDstaking.sol\":6295:6367  uint256 multiplier = getMultiplier(pool.lastRewardTime, block.timestamp) */\n      swap1\n      pop\n        /* \"contracts/final/GMDstaking.sol\":6382:6400  uint256 WETHReward */\n      0x00\n        /* \"contracts/final/GMDstaking.sol\":6403:6474  multiplier.mul(WETHPerSecond).mul(pool.allocPoint).div(totalAllocPoint) */\n      tag_283\n        /* \"contracts/final/GMDstaking.sol\":6458:6473  totalAllocPoint */\n      sload(0x08)\n        /* \"contracts/final/GMDstaking.sol\":6403:6453  multiplier.mul(WETHPerSecond).mul(pool.allocPoint) */\n      tag_284\n        /* \"contracts/final/GMDstaking.sol\":6437:6441  pool */\n      dup9\n        /* \"contracts/final/GMDstaking.sol\":6437:6452  pool.allocPoint */\n      0x01\n      add\n      sload\n        /* \"contracts/final/GMDstaking.sol\":6403:6432  multiplier.mul(WETHPerSecond) */\n      tag_285\n        /* \"contracts/final/GMDstaking.sol\":6418:6431  WETHPerSecond */\n      sload(0x04)\n        /* \"contracts/final/GMDstaking.sol\":6403:6413  multiplier */\n      dup8\n        /* \"contracts/final/GMDstaking.sol\":6403:6417  multiplier.mul */\n      tag_203\n      swap1\n        /* \"contracts/final/GMDstaking.sol\":6403:6432  multiplier.mul(WETHPerSecond) */\n      swap2\n      swap1\n      0xffffffff\n      and\n      jump\t// in\n    tag_285:\n        /* \"contracts/final/GMDstaking.sol\":6403:6436  multiplier.mul(WETHPerSecond).mul */\n      tag_203\n      swap1\n        /* \"contracts/final/GMDstaking.sol\":6403:6453  multiplier.mul(WETHPerSecond).mul(pool.allocPoint) */\n      swap2\n      swap1\n      0xffffffff\n      and\n      jump\t// in\n    tag_284:\n        /* \"contracts/final/GMDstaking.sol\":6403:6457  multiplier.mul(WETHPerSecond).mul(pool.allocPoint).div */\n      tag_204\n      swap1\n        /* \"contracts/final/GMDstaking.sol\":6403:6474  multiplier.mul(WETHPerSecond).mul(pool.allocPoint).div(totalAllocPoint) */\n      swap2\n      swap1\n      0xffffffff\n      and\n      jump\t// in\n    tag_283:\n        /* \"contracts/final/GMDstaking.sol\":6382:6474  uint256 WETHReward = multiplier.mul(WETHPerSecond).mul(pool.allocPoint).div(totalAllocPoint) */\n      swap1\n      pop\n        /* \"contracts/final/GMDstaking.sol\":6507:6562  accWETHPerShare.add(WETHReward.mul(1e12).div(lpSupply)) */\n      tag_286\n        /* \"contracts/final/GMDstaking.sol\":6527:6561  WETHReward.mul(1e12).div(lpSupply) */\n      tag_287\n        /* \"contracts/final/GMDstaking.sol\":6552:6560  lpSupply */\n      dup5\n        /* \"contracts/final/GMDstaking.sol\":6527:6547  WETHReward.mul(1e12) */\n      tag_288\n        /* \"contracts/final/GMDstaking.sol\":6542:6546  1e12 */\n      0xe8d4a51000\n        /* \"contracts/final/GMDstaking.sol\":6527:6537  WETHReward */\n      dup6\n        /* \"contracts/final/GMDstaking.sol\":6527:6541  WETHReward.mul */\n      tag_203\n      swap1\n        /* \"contracts/final/GMDstaking.sol\":6527:6547  WETHReward.mul(1e12) */\n      swap2\n      swap1\n      0xffffffff\n      and\n      jump\t// in\n    tag_288:\n        /* \"contracts/final/GMDstaking.sol\":6527:6551  WETHReward.mul(1e12).div */\n      tag_204\n      swap1\n        /* \"contracts/final/GMDstaking.sol\":6527:6561  WETHReward.mul(1e12).div(lpSupply) */\n      swap2\n      swap1\n      0xffffffff\n      and\n      jump\t// in\n    tag_287:\n        /* \"contracts/final/GMDstaking.sol\":6507:6522  accWETHPerShare */\n      dup6\n        /* \"contracts/final/GMDstaking.sol\":6507:6526  accWETHPerShare.add */\n      tag_166\n      swap1\n        /* \"contracts/final/GMDstaking.sol\":6507:6562  accWETHPerShare.add(WETHReward.mul(1e12).div(lpSupply)) */\n      swap2\n      swap1\n      0xffffffff\n      and\n      jump\t// in\n    tag_286:\n        /* \"contracts/final/GMDstaking.sol\":6489:6562  accWETHPerShare = accWETHPerShare.add(WETHReward.mul(1e12).div(lpSupply)) */\n      swap4\n      pop\n        /* \"contracts/final/GMDstaking.sol\":6280:6574  {... */\n      pop\n      pop\n        /* \"contracts/final/GMDstaking.sol\":6220:6574  if (block.timestamp > pool.lastRewardTime && lpSupply != 0) {... */\n    tag_281:\n        /* \"contracts/final/GMDstaking.sol\":6591:6654  user.amount.mul(accWETHPerShare).div(1e12).sub(user.rewardDebt) */\n      tag_289\n        /* \"contracts/final/GMDstaking.sol\":6638:6642  user */\n      dup4\n        /* \"contracts/final/GMDstaking.sol\":6638:6653  user.rewardDebt */\n      0x01\n      add\n      sload\n        /* \"contracts/final/GMDstaking.sol\":6591:6633  user.amount.mul(accWETHPerShare).div(1e12) */\n      tag_290\n        /* \"contracts/final/GMDstaking.sol\":6628:6632  1e12 */\n      0xe8d4a51000\n        /* \"contracts/final/GMDstaking.sol\":6591:6623  user.amount.mul(accWETHPerShare) */\n      tag_291\n        /* \"contracts/final/GMDstaking.sol\":6607:6622  accWETHPerShare */\n      dup7\n        /* \"contracts/final/GMDstaking.sol\":6591:6595  user */\n      dup9\n        /* \"contracts/final/GMDstaking.sol\":6591:6602  user.amount */\n      0x00\n      add\n      sload\n        /* \"contracts/final/GMDstaking.sol\":6591:6606  user.amount.mul */\n      tag_203\n      swap1\n        /* \"contracts/final/GMDstaking.sol\":6591:6623  user.amount.mul(accWETHPerShare) */\n      swap2\n      swap1\n      0xffffffff\n      and\n      jump\t// in\n    tag_291:\n        /* \"contracts/final/GMDstaking.sol\":6591:6627  user.amount.mul(accWETHPerShare).div */\n      tag_204\n      swap1\n        /* \"contracts/final/GMDstaking.sol\":6591:6633  user.amount.mul(accWETHPerShare).div(1e12) */\n      swap2\n      swap1\n      0xffffffff\n      and\n      jump\t// in\n    tag_290:\n        /* \"contracts/final/GMDstaking.sol\":6591:6637  user.amount.mul(accWETHPerShare).div(1e12).sub */\n      tag_205\n      swap1\n        /* \"contracts/final/GMDstaking.sol\":6591:6654  user.amount.mul(accWETHPerShare).div(1e12).sub(user.rewardDebt) */\n      swap2\n      swap1\n      0xffffffff\n      and\n      jump\t// in\n    tag_289:\n        /* \"contracts/final/GMDstaking.sol\":6584:6654  return user.amount.mul(accWETHPerShare).div(1e12).sub(user.rewardDebt) */\n      swap5\n      pop\n      pop\n      pop\n      pop\n      pop\n        /* \"contracts/final/GMDstaking.sol\":5898:6662  function pendingWETH(uint256 _pid, address _user) external view returns (uint256) {... */\n      swap3\n      swap2\n      pop\n      pop\n      jump\t// out\n        /* \"contracts/final/GMDstaking.sol\":1746:1817  IERC20 public WETH = IERC20(0x82aF49447D8a07e3bd95BD0d56f35241523fBab1) */\n    tag_114:\n      0x02\n      0x00\n      swap1\n      sload\n      swap1\n      0x0100\n      exp\n      swap1\n      div\n      0xffffffffffffffffffffffffffffffffffffffff\n      and\n      dup2\n      jump\t// out\n        /* \"contracts/final/GMDstaking.sol\":1952:1991  uint256 public totalWETHdistributed = 0 */\n    tag_118:\n      sload(0x05)\n      dup2\n      jump\t// out\n        /* \"contracts/final/GMDstaking.sol\":1847:1869  address public devaddr */\n    tag_121:\n      0x03\n      0x00\n      swap1\n      sload\n      swap1\n      0x0100\n      exp\n      swap1\n      div\n      0xffffffffffffffffffffffffffffffffffffffff\n      and\n      dup2\n      jump\t// out\n        /* \"contracts/final/GMDstaking.sol\":7766:8438  function deposit(uint256 _pid, uint256 _amount) public nonReentrant {... */\n    tag_125:\n        /* \"@openzeppelin/contracts/security/ReentrancyGuard.sol\":1744:1745  2 */\n      0x02\n        /* \"@openzeppelin/contracts/security/ReentrancyGuard.sol\":2325:2332  _status */\n      sload(0x01)\n        /* \"@openzeppelin/contracts/security/ReentrancyGuard.sol\":2325:2344  _status != _ENTERED */\n      eq\n      iszero\n        /* \"@openzeppelin/contracts/security/ReentrancyGuard.sol\":2317:2380  require(_status != _ENTERED, \"ReentrancyGuard: reentrant call\") */\n      tag_293\n      jumpi\n      mload(0x40)\n      0x08c379a000000000000000000000000000000000000000000000000000000000\n      dup2\n      mstore\n      0x04\n      add\n      tag_294\n      swap1\n      tag_188\n      jump\t// in\n    tag_294:\n      mload(0x40)\n      dup1\n      swap2\n      sub\n      swap1\n      revert\n    tag_293:\n        /* \"@openzeppelin/contracts/security/ReentrancyGuard.sol\":1744:1745  2 */\n      0x02\n        /* \"@openzeppelin/contracts/security/ReentrancyGuard.sol\":2455:2462  _status */\n      0x01\n        /* \"@openzeppelin/contracts/security/ReentrancyGuard.sol\":2455:2473  _status = _ENTERED */\n      dup2\n      swap1\n      sstore\n      pop\n        /* \"contracts/final/GMDstaking.sol\":7847:7868  PoolInfo storage pool */\n      0x00\n        /* \"contracts/final/GMDstaking.sol\":7871:7879  poolInfo */\n      0x06\n        /* \"contracts/final/GMDstaking.sol\":7880:7884  _pid */\n      dup4\n        /* \"contracts/final/GMDstaking.sol\":7871:7885  poolInfo[_pid] */\n      dup2\n      sload\n      dup2\n      lt\n      tag_296\n      jumpi\n      tag_297\n      tag_153\n      jump\t// in\n    tag_297:\n    tag_296:\n      swap1\n      0x00\n      mstore\n      keccak256(0x00, 0x20)\n      swap1\n      0x04\n      mul\n      add\n        /* \"contracts/final/GMDstaking.sol\":7847:7885  PoolInfo storage pool = poolInfo[_pid] */\n      swap1\n      pop\n        /* \"contracts/final/GMDstaking.sol\":7896:7917  UserInfo storage user */\n      0x00\n        /* \"contracts/final/GMDstaking.sol\":7920:7928  userInfo */\n      0x07\n        /* \"contracts/final/GMDstaking.sol\":7920:7934  userInfo[_pid] */\n      0x00\n        /* \"contracts/final/GMDstaking.sol\":7929:7933  _pid */\n      dup6\n        /* \"contracts/final/GMDstaking.sol\":7920:7934  userInfo[_pid] */\n      dup2\n      mstore\n      0x20\n      add\n      swap1\n      dup2\n      mstore\n      0x20\n      add\n      0x00\n      keccak256\n        /* \"contracts/final/GMDstaking.sol\":7920:7946  userInfo[_pid][msg.sender] */\n      0x00\n        /* \"contracts/final/GMDstaking.sol\":7935:7945  msg.sender */\n      caller\n        /* \"contracts/final/GMDstaking.sol\":7920:7946  userInfo[_pid][msg.sender] */\n      0xffffffffffffffffffffffffffffffffffffffff\n      and\n      0xffffffffffffffffffffffffffffffffffffffff\n      and\n      dup2\n      mstore\n      0x20\n      add\n      swap1\n      dup2\n      mstore\n      0x20\n      add\n      0x00\n      keccak256\n        /* \"contracts/final/GMDstaking.sol\":7896:7946  UserInfo storage user = userInfo[_pid][msg.sender] */\n      swap1\n      pop\n        /* \"contracts/final/GMDstaking.sol\":7959:7975  updatePool(_pid) */\n      tag_299\n        /* \"contracts/final/GMDstaking.sol\":7970:7974  _pid */\n      dup5\n        /* \"contracts/final/GMDstaking.sol\":7959:7969  updatePool */\n      tag_77\n        /* \"contracts/final/GMDstaking.sol\":7959:7975  updatePool(_pid) */\n      jump\t// in\n    tag_299:\n        /* \"contracts/final/GMDstaking.sol\":7988:8003  uint256 pending */\n      0x00\n        /* \"contracts/final/GMDstaking.sol\":8006:8074  user.amount.mul(pool.accWETHPerShare).div(1e12).sub(user.rewardDebt) */\n      tag_300\n        /* \"contracts/final/GMDstaking.sol\":8058:8062  user */\n      dup3\n        /* \"contracts/final/GMDstaking.sol\":8058:8073  user.rewardDebt */\n      0x01\n      add\n      sload\n        /* \"contracts/final/GMDstaking.sol\":8006:8053  user.amount.mul(pool.accWETHPerShare).div(1e12) */\n      tag_301\n        /* \"contracts/final/GMDstaking.sol\":8048:8052  1e12 */\n      0xe8d4a51000\n        /* \"contracts/final/GMDstaking.sol\":8006:8043  user.amount.mul(pool.accWETHPerShare) */\n      tag_302\n        /* \"contracts/final/GMDstaking.sol\":8022:8026  pool */\n      dup8\n        /* \"contracts/final/GMDstaking.sol\":8022:8042  pool.accWETHPerShare */\n      0x03\n      add\n      sload\n        /* \"contracts/final/GMDstaking.sol\":8006:8010  user */\n      dup8\n        /* \"contracts/final/GMDstaking.sol\":8006:8017  user.amount */\n      0x00\n      add\n      sload\n        /* \"contracts/final/GMDstaking.sol\":8006:8021  user.amount.mul */\n      tag_203\n      swap1\n        /* \"contracts/final/GMDstaking.sol\":8006:8043  user.amount.mul(pool.accWETHPerShare) */\n      swap2\n      swap1\n      0xffffffff\n      and\n      jump\t// in\n    tag_302:\n        /* \"contracts/final/GMDstaking.sol\":8006:8047  user.amount.mul(pool.accWETHPerShare).div */\n      tag_204\n      swap1\n        /* \"contracts/final/GMDstaking.sol\":8006:8053  user.amount.mul(pool.accWETHPerShare).div(1e12) */\n      swap2\n      swap1\n      0xffffffff\n      and\n      jump\t// in\n    tag_301:\n        /* \"contracts/final/GMDstaking.sol\":8006:8057  user.amount.mul(pool.accWETHPerShare).div(1e12).sub */\n      tag_205\n      swap1\n        /* \"contracts/final/GMDstaking.sol\":8006:8074  user.amount.mul(pool.accWETHPerShare).div(1e12).sub(user.rewardDebt) */\n      swap2\n      swap1\n      0xffffffff\n      and\n      jump\t// in\n    tag_300:\n        /* \"contracts/final/GMDstaking.sol\":7988:8074  uint256 pending = user.amount.mul(pool.accWETHPerShare).div(1e12).sub(user.rewardDebt) */\n      swap1\n      pop\n        /* \"contracts/final/GMDstaking.sol\":8101:8125  user.amount.add(_amount) */\n      tag_303\n        /* \"contracts/final/GMDstaking.sol\":8117:8124  _amount */\n      dup5\n        /* \"contracts/final/GMDstaking.sol\":8101:8105  user */\n      dup4\n        /* \"contracts/final/GMDstaking.sol\":8101:8112  user.amount */\n      0x00\n      add\n      sload\n        /* \"contracts/final/GMDstaking.sol\":8101:8116  user.amount.add */\n      tag_166\n      swap1\n        /* \"contracts/final/GMDstaking.sol\":8101:8125  user.amount.add(_amount) */\n      swap2\n      swap1\n      0xffffffff\n      and\n      jump\t// in\n    tag_303:\n        /* \"contracts/final/GMDstaking.sol\":8087:8091  user */\n      dup3\n        /* \"contracts/final/GMDstaking.sol\":8087:8098  user.amount */\n      0x00\n      add\n        /* \"contracts/final/GMDstaking.sol\":8087:8125  user.amount = user.amount.add(_amount) */\n      dup2\n      swap1\n      sstore\n      pop\n        /* \"contracts/final/GMDstaking.sol\":8154:8201  user.amount.mul(pool.accWETHPerShare).div(1e12) */\n      tag_304\n        /* \"contracts/final/GMDstaking.sol\":8196:8200  1e12 */\n      0xe8d4a51000\n        /* \"contracts/final/GMDstaking.sol\":8154:8191  user.amount.mul(pool.accWETHPerShare) */\n      tag_305\n        /* \"contracts/final/GMDstaking.sol\":8170:8174  pool */\n      dup6\n        /* \"contracts/final/GMDstaking.sol\":8170:8190  pool.accWETHPerShare */\n      0x03\n      add\n      sload\n        /* \"contracts/final/GMDstaking.sol\":8154:8158  user */\n      dup6\n        /* \"contracts/final/GMDstaking.sol\":8154:8165  user.amount */\n      0x00\n      add\n      sload\n        /* \"contracts/final/GMDstaking.sol\":8154:8169  user.amount.mul */\n      tag_203\n      swap1\n        /* \"contracts/final/GMDstaking.sol\":8154:8191  user.amount.mul(pool.accWETHPerShare) */\n      swap2\n      swap1\n      0xffffffff\n      and\n      jump\t// in\n    tag_305:\n        /* \"contracts/final/GMDstaking.sol\":8154:8195  user.amount.mul(pool.accWETHPerShare).div */\n      tag_204\n      swap1\n        /* \"contracts/final/GMDstaking.sol\":8154:8201  user.amount.mul(pool.accWETHPerShare).div(1e12) */\n      swap2\n      swap1\n      0xffffffff\n      and\n      jump\t// in\n    tag_304:\n        /* \"contracts/final/GMDstaking.sol\":8136:8140  user */\n      dup3\n        /* \"contracts/final/GMDstaking.sol\":8136:8151  user.rewardDebt */\n      0x01\n      add\n        /* \"contracts/final/GMDstaking.sol\":8136:8201  user.rewardDebt = user.amount.mul(pool.accWETHPerShare).div(1e12) */\n      dup2\n      swap1\n      sstore\n      pop\n        /* \"contracts/final/GMDstaking.sol\":8227:8228  0 */\n      0x00\n        /* \"contracts/final/GMDstaking.sol\":8217:8224  pending */\n      dup2\n        /* \"contracts/final/GMDstaking.sol\":8217:8228  pending > 0 */\n      gt\n        /* \"contracts/final/GMDstaking.sol\":8214:8294  if(pending > 0) {... */\n      iszero\n      tag_306\n      jumpi\n        /* \"contracts/final/GMDstaking.sol\":8245:8282  safeWETHTransfer(msg.sender, pending) */\n      tag_307\n        /* \"contracts/final/GMDstaking.sol\":8262:8272  msg.sender */\n      caller\n        /* \"contracts/final/GMDstaking.sol\":8274:8281  pending */\n      dup3\n        /* \"contracts/final/GMDstaking.sol\":8245:8261  safeWETHTransfer */\n      tag_211\n        /* \"contracts/final/GMDstaking.sol\":8245:8282  safeWETHTransfer(msg.sender, pending) */\n      jump\t// in\n    tag_307:\n        /* \"contracts/final/GMDstaking.sol\":8214:8294  if(pending > 0) {... */\n    tag_306:\n        /* \"contracts/final/GMDstaking.sol\":8304:8378  pool.lpToken.safeTransferFrom(address(msg.sender), address(this), _amount) */\n      tag_308\n        /* \"contracts/final/GMDstaking.sol\":8342:8352  msg.sender */\n      caller\n        /* \"contracts/final/GMDstaking.sol\":8363:8367  this */\n      address\n        /* \"contracts/final/GMDstaking.sol\":8370:8377  _amount */\n      dup7\n        /* \"contracts/final/GMDstaking.sol\":8304:8308  pool */\n      dup7\n        /* \"contracts/final/GMDstaking.sol\":8304:8316  pool.lpToken */\n      0x00\n      add\n      0x00\n      swap1\n      sload\n      swap1\n      0x0100\n      exp\n      swap1\n      div\n      0xffffffffffffffffffffffffffffffffffffffff\n      and\n        /* \"contracts/final/GMDstaking.sol\":8304:8333  pool.lpToken.safeTransferFrom */\n      0xffffffffffffffffffffffffffffffffffffffff\n      and\n      tag_309\n      swap1\n        /* \"contracts/final/GMDstaking.sol\":8304:8378  pool.lpToken.safeTransferFrom(address(msg.sender), address(this), _amount) */\n      swap4\n      swap3\n      swap2\n      swap1\n      0xffffffff\n      and\n      jump\t// in\n    tag_308:\n        /* \"contracts/final/GMDstaking.sol\":8416:8420  _pid */\n      dup5\n        /* \"contracts/final/GMDstaking.sol\":8404:8414  msg.sender */\n      caller\n        /* \"contracts/final/GMDstaking.sol\":8396:8430  Deposit(msg.sender, _pid, _amount) */\n      0xffffffffffffffffffffffffffffffffffffffff\n      and\n      0x90890809c654f11d6e72a28fa60149770a0d11ec6c92319d6ceb2bb0a4ea1a15\n        /* \"contracts/final/GMDstaking.sol\":8422:8429  _amount */\n      dup7\n        /* \"contracts/final/GMDstaking.sol\":8396:8430  Deposit(msg.sender, _pid, _amount) */\n      mload(0x40)\n      tag_310\n      swap2\n      swap1\n      tag_45\n      jump\t// in\n    tag_310:\n      mload(0x40)\n      dup1\n      swap2\n      sub\n      swap1\n      log3\n        /* \"contracts/final/GMDstaking.sol\":7834:8438  {... */\n      pop\n      pop\n      pop\n        /* \"@openzeppelin/contracts/security/ReentrancyGuard.sol\":1701:1702  1 */\n      0x01\n        /* \"@openzeppelin/contracts/security/ReentrancyGuard.sol\":2628:2635  _status */\n      dup1\n        /* \"@openzeppelin/contracts/security/ReentrancyGuard.sol\":2628:2650  _status = _NOT_ENTERED */\n      dup2\n      swap1\n      sstore\n      pop\n        /* \"contracts/final/GMDstaking.sol\":7766:8438  function deposit(uint256 _pid, uint256 _amount) public nonReentrant {... */\n      pop\n      pop\n      jump\t// out\n        /* \"@openzeppelin/contracts/access/Ownable.sol\":2081:2279  function transferOwnership(address newOwner) public virtual onlyOwner {... */\n    tag_129:\n        /* \"@openzeppelin/contracts/access/Ownable.sol\":1094:1107  _checkOwner() */\n      tag_312\n        /* \"@openzeppelin/contracts/access/Ownable.sol\":1094:1105  _checkOwner */\n      tag_135\n        /* \"@openzeppelin/contracts/access/Ownable.sol\":1094:1107  _checkOwner() */\n      jump\t// in\n    tag_312:\n        /* \"@openzeppelin/contracts/access/Ownable.sol\":2189:2190  0 */\n      0x00\n        /* \"@openzeppelin/contracts/access/Ownable.sol\":2169:2191  newOwner != address(0) */\n      0xffffffffffffffffffffffffffffffffffffffff\n      and\n        /* \"@openzeppelin/contracts/access/Ownable.sol\":2169:2177  newOwner */\n      dup2\n        /* \"@openzeppelin/contracts/access/Ownable.sol\":2169:2191  newOwner != address(0) */\n      0xffffffffffffffffffffffffffffffffffffffff\n      and\n      eq\n      iszero\n        /* \"@openzeppelin/contracts/access/Ownable.sol\":2161:2234  require(newOwner != address(0), \"Ownable: new owner is the zero address\") */\n      tag_314\n      jumpi\n      mload(0x40)\n      0x08c379a000000000000000000000000000000000000000000000000000000000\n      dup2\n      mstore\n      0x04\n      add\n      tag_315\n      swap1\n      tag_316\n      jump\t// in\n    tag_315:\n      mload(0x40)\n      dup1\n      swap2\n      sub\n      swap1\n      revert\n    tag_314:\n        /* \"@openzeppelin/contracts/access/Ownable.sol\":2244:2272  _transferOwnership(newOwner) */\n      tag_317\n        /* \"@openzeppelin/contracts/access/Ownable.sol\":2263:2271  newOwner */\n      dup2\n        /* \"@openzeppelin/contracts/access/Ownable.sol\":2244:2262  _transferOwnership */\n      tag_259\n        /* \"@openzeppelin/contracts/access/Ownable.sol\":2244:2272  _transferOwnership(newOwner) */\n      jump\t// in\n    tag_317:\n        /* \"@openzeppelin/contracts/access/Ownable.sol\":2081:2279  function transferOwnership(address newOwner) public virtual onlyOwner {... */\n      pop\n      jump\t// out\n        /* \"contracts/final/GMDstaking.sol\":2135:2179  uint256 public constant MaxAllocPoint = 4000 */\n    tag_131:\n        /* \"contracts/final/GMDstaking.sol\":2175:2179  4000 */\n      0x0fa0\n        /* \"contracts/final/GMDstaking.sol\":2135:2179  uint256 public constant MaxAllocPoint = 4000 */\n      dup2\n      jump\t// out\n        /* \"@openzeppelin/contracts/access/Ownable.sol\":1359:1489  function _checkOwner() internal view virtual {... */\n    tag_135:\n        /* \"@openzeppelin/contracts/access/Ownable.sol\":1433:1445  _msgSender() */\n      tag_319\n        /* \"@openzeppelin/contracts/access/Ownable.sol\":1433:1443  _msgSender */\n      tag_320\n        /* \"@openzeppelin/contracts/access/Ownable.sol\":1433:1445  _msgSender() */\n      jump\t// in\n    tag_319:\n        /* \"@openzeppelin/contracts/access/Ownable.sol\":1422:1445  owner() == _msgSender() */\n      0xffffffffffffffffffffffffffffffffffffffff\n      and\n        /* \"@openzeppelin/contracts/access/Ownable.sol\":1422:1429  owner() */\n      tag_321\n        /* \"@openzeppelin/contracts/access/Ownable.sol\":1422:1427  owner */\n      tag_93\n        /* \"@openzeppelin/contracts/access/Ownable.sol\":1422:1429  owner() */\n      jump\t// in\n    tag_321:\n        /* \"@openzeppelin/contracts/access/Ownable.sol\":1422:1445  owner() == _msgSender() */\n      0xffffffffffffffffffffffffffffffffffffffff\n      and\n      eq\n        /* \"@openzeppelin/contracts/access/Ownable.sol\":1414:1482  require(owner() == _msgSender(), \"Ownable: caller is not the owner\") */\n      tag_322\n      jumpi\n      mload(0x40)\n      0x08c379a000000000000000000000000000000000000000000000000000000000\n      dup2\n      mstore\n      0x04\n      add\n      tag_323\n      swap1\n      tag_324\n      jump\t// in\n    tag_323:\n      mload(0x40)\n      dup1\n      swap2\n      sub\n      swap1\n      revert\n    tag_322:\n        /* \"@openzeppelin/contracts/access/Ownable.sol\":1359:1489  function _checkOwner() internal view virtual {... */\n      jump\t// out\n        /* \"@openzeppelin/contracts/utils/math/SafeMath.sol\":2755:2851  function add(uint256 a, uint256 b) internal pure returns (uint256) {... */\n    tag_166:\n        /* \"@openzeppelin/contracts/utils/math/SafeMath.sol\":2813:2820  uint256 */\n      0x00\n        /* \"@openzeppelin/contracts/utils/math/SafeMath.sol\":2843:2844  b */\n      dup2\n        /* \"@openzeppelin/contracts/utils/math/SafeMath.sol\":2839:2840  a */\n      dup4\n        /* \"@openzeppelin/contracts/utils/math/SafeMath.sol\":2839:2844  a + b */\n      tag_326\n      swap2\n      swap1\n      tag_158\n      jump\t// in\n    tag_326:\n        /* \"@openzeppelin/contracts/utils/math/SafeMath.sol\":2832:2844  return a + b */\n      swap1\n      pop\n        /* \"@openzeppelin/contracts/utils/math/SafeMath.sol\":2755:2851  function add(uint256 a, uint256 b) internal pure returns (uint256) {... */\n      swap3\n      swap2\n      pop\n      pop\n      jump\t// out\n        /* \"contracts/final/GMDstaking.sol\":4137:4406  function checkForDuplicate(IERC20 _lpToken) internal view {... */\n    tag_179:\n        /* \"contracts/final/GMDstaking.sol\":4206:4220  uint256 length */\n      0x00\n        /* \"contracts/final/GMDstaking.sol\":4223:4231  poolInfo */\n      0x06\n        /* \"contracts/final/GMDstaking.sol\":4223:4238  poolInfo.length */\n      dup1\n      sload\n      swap1\n      pop\n        /* \"contracts/final/GMDstaking.sol\":4206:4238  uint256 length = poolInfo.length */\n      swap1\n      pop\n        /* \"contracts/final/GMDstaking.sol\":4254:4266  uint256 _pid */\n      0x00\n        /* \"contracts/final/GMDstaking.sol\":4249:4397  for (uint256 _pid = 0; _pid < length; _pid++) {... */\n    tag_328:\n        /* \"contracts/final/GMDstaking.sol\":4279:4285  length */\n      dup2\n        /* \"contracts/final/GMDstaking.sol\":4272:4276  _pid */\n      dup2\n        /* \"contracts/final/GMDstaking.sol\":4272:4285  _pid < length */\n      lt\n        /* \"contracts/final/GMDstaking.sol\":4249:4397  for (uint256 _pid = 0; _pid < length; _pid++) {... */\n      iszero\n      tag_329\n      jumpi\n        /* \"contracts/final/GMDstaking.sol\":4344:4352  _lpToken */\n      dup3\n        /* \"contracts/final/GMDstaking.sol\":4318:4352  poolInfo[_pid].lpToken != _lpToken */\n      0xffffffffffffffffffffffffffffffffffffffff\n      and\n        /* \"contracts/final/GMDstaking.sol\":4318:4326  poolInfo */\n      0x06\n        /* \"contracts/final/GMDstaking.sol\":4327:4331  _pid */\n      dup3\n        /* \"contracts/final/GMDstaking.sol\":4318:4332  poolInfo[_pid] */\n      dup2\n      sload\n      dup2\n      lt\n      tag_331\n      jumpi\n      tag_332\n      tag_153\n      jump\t// in\n    tag_332:\n    tag_331:\n      swap1\n      0x00\n      mstore\n      keccak256(0x00, 0x20)\n      swap1\n      0x04\n      mul\n      add\n        /* \"contracts/final/GMDstaking.sol\":4318:4340  poolInfo[_pid].lpToken */\n      0x00\n      add\n      0x00\n      swap1\n      sload\n      swap1\n      0x0100\n      exp\n      swap1\n      div\n      0xffffffffffffffffffffffffffffffffffffffff\n      and\n        /* \"contracts/final/GMDstaking.sol\":4318:4352  poolInfo[_pid].lpToken != _lpToken */\n      0xffffffffffffffffffffffffffffffffffffffff\n      and\n      eq\n      iszero\n        /* \"contracts/final/GMDstaking.sol\":4310:4385  require(poolInfo[_pid].lpToken != _lpToken, \"add: pool already exists!!!!\") */\n      tag_334\n      jumpi\n      mload(0x40)\n      0x08c379a000000000000000000000000000000000000000000000000000000000\n      dup2\n      mstore\n      0x04\n      add\n      tag_335\n      swap1\n      tag_336\n      jump\t// in\n    tag_335:\n      mload(0x40)\n      dup1\n      swap2\n      sub\n      swap1\n      revert\n    tag_334:\n        /* \"contracts/final/GMDstaking.sol\":4287:4293  _pid++ */\n      dup1\n      dup1\n      tag_337\n      swap1\n      tag_254\n      jump\t// in\n    tag_337:\n      swap2\n      pop\n      pop\n        /* \"contracts/final/GMDstaking.sol\":4249:4397  for (uint256 _pid = 0; _pid < length; _pid++) {... */\n      jump(tag_328)\n    tag_329:\n      pop\n        /* \"contracts/final/GMDstaking.sol\":4195:4406  {... */\n      pop\n        /* \"contracts/final/GMDstaking.sol\":4137:4406  function checkForDuplicate(IERC20 _lpToken) internal view {... */\n      pop\n      jump\t// out\n        /* \"@openzeppelin/contracts/utils/math/SafeMath.sol\":3465:3561  function mul(uint256 a, uint256 b) internal pure returns (uint256) {... */\n    tag_203:\n        /* \"@openzeppelin/contracts/utils/math/SafeMath.sol\":3523:3530  uint256 */\n      0x00\n        /* \"@openzeppelin/contracts/utils/math/SafeMath.sol\":3553:3554  b */\n      dup2\n        /* \"@openzeppelin/contracts/utils/math/SafeMath.sol\":3549:3550  a */\n      dup4\n        /* \"@openzeppelin/contracts/utils/math/SafeMath.sol\":3549:3554  a * b */\n      tag_339\n      swap2\n      swap1\n      tag_340\n      jump\t// in\n    tag_339:\n        /* \"@openzeppelin/contracts/utils/math/SafeMath.sol\":3542:3554  return a * b */\n      swap1\n      pop\n        /* \"@openzeppelin/contracts/utils/math/SafeMath.sol\":3465:3561  function mul(uint256 a, uint256 b) internal pure returns (uint256) {... */\n      swap3\n      swap2\n      pop\n      pop\n      jump\t// out\n        /* \"@openzeppelin/contracts/utils/math/SafeMath.sol\":3850:3946  function div(uint256 a, uint256 b) internal pure returns (uint256) {... */\n    tag_204:\n        /* \"@openzeppelin/contracts/utils/math/SafeMath.sol\":3908:3915  uint256 */\n      0x00\n        /* \"@openzeppelin/contracts/utils/math/SafeMath.sol\":3938:3939  b */\n      dup2\n        /* \"@openzeppelin/contracts/utils/math/SafeMath.sol\":3934:3935  a */\n      dup4\n        /* \"@openzeppelin/contracts/utils/math/SafeMath.sol\":3934:3939  a / b */\n      tag_342\n      swap2\n      swap1\n      tag_343\n      jump\t// in\n    tag_342:\n        /* \"@openzeppelin/contracts/utils/math/SafeMath.sol\":3927:3939  return a / b */\n      swap1\n      pop\n        /* \"@openzeppelin/contracts/utils/math/SafeMath.sol\":3850:3946  function div(uint256 a, uint256 b) internal pure returns (uint256) {... */\n      swap3\n      swap2\n      pop\n      pop\n      jump\t// out\n        /* \"@openzeppelin/contracts/utils/math/SafeMath.sol\":3122:3218  function sub(uint256 a, uint256 b) internal pure returns (uint256) {... */\n    tag_205:\n        /* \"@openzeppelin/contracts/utils/math/SafeMath.sol\":3180:3187  uint256 */\n      0x00\n        /* \"@openzeppelin/contracts/utils/math/SafeMath.sol\":3210:3211  b */\n      dup2\n        /* \"@openzeppelin/contracts/utils/math/SafeMath.sol\":3206:3207  a */\n      dup4\n        /* \"@openzeppelin/contracts/utils/math/SafeMath.sol\":3206:3211  a - b */\n      tag_345\n      swap2\n      swap1\n      tag_156\n      jump\t// in\n    tag_345:\n        /* \"@openzeppelin/contracts/utils/math/SafeMath.sol\":3199:3211  return a - b */\n      swap1\n      pop\n        /* \"@openzeppelin/contracts/utils/math/SafeMath.sol\":3122:3218  function sub(uint256 a, uint256 b) internal pure returns (uint256) {... */\n      swap3\n      swap2\n      pop\n      pop\n      jump\t// out\n        /* \"contracts/final/GMDstaking.sol\":9999:10277  function safeWETHTransfer(address _to, uint256 _amount) internal {... */\n    tag_211:\n        /* \"contracts/final/GMDstaking.sol\":10075:10090  uint256 WETHBal */\n      0x00\n        /* \"contracts/final/GMDstaking.sol\":10093:10097  WETH */\n      0x02\n      0x00\n      swap1\n      sload\n      swap1\n      0x0100\n      exp\n      swap1\n      div\n      0xffffffffffffffffffffffffffffffffffffffff\n      and\n        /* \"contracts/final/GMDstaking.sol\":10093:10107  WETH.balanceOf */\n      0xffffffffffffffffffffffffffffffffffffffff\n      and\n      0x70a08231\n        /* \"contracts/final/GMDstaking.sol\":10116:10120  this */\n      address\n        /* \"contracts/final/GMDstaking.sol\":10093:10122  WETH.balanceOf(address(this)) */\n      mload(0x40)\n      dup3\n      0xffffffff\n      and\n      0xe0\n      shl\n      dup2\n      mstore\n      0x04\n      add\n      tag_347\n      swap2\n      swap1\n      tag_95\n      jump\t// in\n    tag_347:\n      0x20\n      mload(0x40)\n      dup1\n      dup4\n      sub\n      dup2\n      dup7\n      gas\n      staticcall\n      iszero\n      dup1\n      iszero\n      tag_349\n      jumpi\n      returndatasize\n      0x00\n      dup1\n      returndatacopy\n      revert(0x00, returndatasize)\n    tag_349:\n      pop\n      pop\n      pop\n      pop\n      mload(0x40)\n      returndatasize\n      not(0x1f)\n      0x1f\n      dup3\n      add\n      and\n      dup3\n      add\n      dup1\n      0x40\n      mstore\n      pop\n      dup2\n      add\n      swap1\n      tag_350\n      swap2\n      swap1\n      tag_224\n      jump\t// in\n    tag_350:\n        /* \"contracts/final/GMDstaking.sol\":10075:10122  uint256 WETHBal = WETH.balanceOf(address(this)) */\n      swap1\n      pop\n        /* \"contracts/final/GMDstaking.sol\":10147:10154  WETHBal */\n      dup1\n        /* \"contracts/final/GMDstaking.sol\":10137:10144  _amount */\n      dup3\n        /* \"contracts/final/GMDstaking.sol\":10137:10154  _amount > WETHBal */\n      gt\n        /* \"contracts/final/GMDstaking.sol\":10133:10270  if (_amount > WETHBal) {... */\n      iszero\n      tag_351\n      jumpi\n        /* \"contracts/final/GMDstaking.sol\":10171:10175  WETH */\n      0x02\n      0x00\n      swap1\n      sload\n      swap1\n      0x0100\n      exp\n      swap1\n      div\n      0xffffffffffffffffffffffffffffffffffffffff\n      and\n        /* \"contracts/final/GMDstaking.sol\":10171:10184  WETH.transfer */\n      0xffffffffffffffffffffffffffffffffffffffff\n      and\n      0xa9059cbb\n        /* \"contracts/final/GMDstaking.sol\":10185:10188  _to */\n      dup5\n        /* \"contracts/final/GMDstaking.sol\":10190:10197  WETHBal */\n      dup4\n        /* \"contracts/final/GMDstaking.sol\":10171:10198  WETH.transfer(_to, WETHBal) */\n      mload(0x40)\n      dup4\n      0xffffffff\n      and\n      0xe0\n      shl\n      dup2\n      mstore\n      0x04\n      add\n      tag_352\n      swap3\n      swap2\n      swap1\n      tag_353\n      jump\t// in\n    tag_352:\n      0x20\n      mload(0x40)\n      dup1\n      dup4\n      sub\n      dup2\n      0x00\n      dup8\n      gas\n      call\n      iszero\n      dup1\n      iszero\n      tag_355\n      jumpi\n      returndatasize\n      0x00\n      dup1\n      returndatacopy\n      revert(0x00, returndatasize)\n    tag_355:\n      pop\n      pop\n      pop\n      pop\n      mload(0x40)\n      returndatasize\n      not(0x1f)\n      0x1f\n      dup3\n      add\n      and\n      dup3\n      add\n      dup1\n      0x40\n      mstore\n      pop\n      dup2\n      add\n      swap1\n      tag_356\n      swap2\n      swap1\n      tag_172\n      jump\t// in\n    tag_356:\n      pop\n        /* \"contracts/final/GMDstaking.sol\":10133:10270  if (_amount > WETHBal) {... */\n      jump(tag_357)\n    tag_351:\n        /* \"contracts/final/GMDstaking.sol\":10231:10235  WETH */\n      0x02\n      0x00\n      swap1\n      sload\n      swap1\n      0x0100\n      exp\n      swap1\n      div\n      0xffffffffffffffffffffffffffffffffffffffff\n      and\n        /* \"contracts/final/GMDstaking.sol\":10231:10244  WETH.transfer */\n      0xffffffffffffffffffffffffffffffffffffffff\n      and\n      0xa9059cbb\n        /* \"contracts/final/GMDstaking.sol\":10245:10248  _to */\n      dup5\n        /* \"contracts/final/GMDstaking.sol\":10250:10257  _amount */\n      dup5\n        /* \"contracts/final/GMDstaking.sol\":10231:10258  WETH.transfer(_to, _amount) */\n      mload(0x40)\n      dup4\n      0xffffffff\n      and\n      0xe0\n      shl\n      dup2\n      mstore\n      0x04\n      add\n      tag_358\n      swap3\n      swap2\n      swap1\n      tag_353\n      jump\t// in\n    tag_358:\n      0x20\n      mload(0x40)\n      dup1\n      dup4\n      sub\n      dup2\n      0x00\n      dup8\n      gas\n      call\n      iszero\n      dup1\n      iszero\n      tag_360\n      jumpi\n      returndatasize\n      0x00\n      dup1\n      returndatacopy\n      revert(0x00, returndatasize)\n    tag_360:\n      pop\n      pop\n      pop\n      pop\n      mload(0x40)\n      returndatasize\n      not(0x1f)\n      0x1f\n      dup3\n      add\n      and\n      dup3\n      add\n      dup1\n      0x40\n      mstore\n      pop\n      dup2\n      add\n      swap1\n      tag_361\n      swap2\n      swap1\n      tag_172\n      jump\t// in\n    tag_361:\n      pop\n        /* \"contracts/final/GMDstaking.sol\":10133:10270  if (_amount > WETHBal) {... */\n    tag_357:\n        /* \"contracts/final/GMDstaking.sol\":10064:10277  {... */\n      pop\n        /* \"contracts/final/GMDstaking.sol\":9999:10277  function safeWETHTransfer(address _to, uint256 _amount) internal {... */\n      pop\n      pop\n      jump\t// out\n        /* \"@openzeppelin/contracts/token/ERC20/utils/SafeERC20.sol\":763:968  function safeTransfer(... */\n    tag_213:\n        /* \"@openzeppelin/contracts/token/ERC20/utils/SafeERC20.sol\":875:961  _callOptionalReturn(token, abi.encodeWithSelector(token.transfer.selector, to, value)) */\n      tag_363\n        /* \"@openzeppelin/contracts/token/ERC20/utils/SafeERC20.sol\":895:900  token */\n      dup4\n        /* \"@openzeppelin/contracts/token/ERC20/utils/SafeERC20.sol\":925:948  token.transfer.selector */\n      shl(0xe0, 0xa9059cbb)\n        /* \"@openzeppelin/contracts/token/ERC20/utils/SafeERC20.sol\":950:952  to */\n      dup5\n        /* \"@openzeppelin/contracts/token/ERC20/utils/SafeERC20.sol\":954:959  value */\n      dup5\n        /* \"@openzeppelin/contracts/token/ERC20/utils/SafeERC20.sol\":902:960  abi.encodeWithSelector(token.transfer.selector, to, value) */\n      add(0x24, mload(0x40))\n      tag_364\n      swap3\n      swap2\n      swap1\n      tag_353\n      jump\t// in\n    tag_364:\n      mload(0x40)\n      0x20\n      dup2\n      dup4\n      sub\n      sub\n      dup2\n      mstore\n      swap1\n      0x40\n      mstore\n      swap1\n      not(0xffffffffffffffffffffffffffffffffffffffffffffffffffffffff)\n      and\n      0x20\n      dup3\n      add\n      dup1\n      mload\n      0xffffffffffffffffffffffffffffffffffffffffffffffffffffffff\n      dup4\n      dup2\n      dup4\n      and\n      or\n      dup4\n      mstore\n      pop\n      pop\n      pop\n      pop\n        /* \"@openzeppelin/contracts/token/ERC20/utils/SafeERC20.sol\":875:894  _callOptionalReturn */\n      tag_365\n        /* \"@openzeppelin/contracts/token/ERC20/utils/SafeERC20.sol\":875:961  _callOptionalReturn(token, abi.encodeWithSelector(token.transfer.selector, to, value)) */\n      jump\t// in\n    tag_363:\n        /* \"@openzeppelin/contracts/token/ERC20/utils/SafeERC20.sol\":763:968  function safeTransfer(... */\n      pop\n      pop\n      pop\n      jump\t// out\n        /* \"@openzeppelin/contracts/access/Ownable.sol\":2433:2620  function _transferOwnership(address newOwner) internal virtual {... */\n    tag_259:\n        /* \"@openzeppelin/contracts/access/Ownable.sol\":2506:2522  address oldOwner */\n      0x00\n        /* \"@openzeppelin/contracts/access/Ownable.sol\":2525:2531  _owner */\n      dup1\n      0x00\n      swap1\n      sload\n      swap1\n      0x0100\n      exp\n      swap1\n      div\n      0xffffffffffffffffffffffffffffffffffffffff\n      and\n        /* \"@openzeppelin/contracts/access/Ownable.sol\":2506:2531  address oldOwner = _owner */\n      swap1\n      pop\n        /* \"@openzeppelin/contracts/access/Ownable.sol\":2550:2558  newOwner */\n      dup2\n        /* \"@openzeppelin/contracts/access/Ownable.sol\":2541:2547  _owner */\n      0x00\n      dup1\n        /* \"@openzeppelin/contracts/access/Ownable.sol\":2541:2558  _owner = newOwner */\n      0x0100\n      exp\n      dup2\n      sload\n      dup2\n      0xffffffffffffffffffffffffffffffffffffffff\n      mul\n      not\n      and\n      swap1\n      dup4\n      0xffffffffffffffffffffffffffffffffffffffff\n      and\n      mul\n      or\n      swap1\n      sstore\n      pop\n        /* \"@openzeppelin/contracts/access/Ownable.sol\":2604:2612  newOwner */\n      dup2\n        /* \"@openzeppelin/contracts/access/Ownable.sol\":2573:2613  OwnershipTransferred(oldOwner, newOwner) */\n      0xffffffffffffffffffffffffffffffffffffffff\n      and\n        /* \"@openzeppelin/contracts/access/Ownable.sol\":2594:2602  oldOwner */\n      dup2\n        /* \"@openzeppelin/contracts/access/Ownable.sol\":2573:2613  OwnershipTransferred(oldOwner, newOwner) */\n      0xffffffffffffffffffffffffffffffffffffffff\n      and\n      0x8be0079c531659141344cd1fd0a4f28419497f9722a3daafe3b4186f6b6457e0\n      mload(0x40)\n      mload(0x40)\n      dup1\n      swap2\n      sub\n      swap1\n      log3\n        /* \"@openzeppelin/contracts/access/Ownable.sol\":2496:2620  {... */\n      pop\n        /* \"@openzeppelin/contracts/access/Ownable.sol\":2433:2620  function _transferOwnership(address newOwner) internal virtual {... */\n      pop\n      jump\t// out\n        /* \"@openzeppelin/contracts/token/ERC20/utils/SafeERC20.sol\":974:1215  function safeTransferFrom(... */\n    tag_309:\n        /* \"@openzeppelin/contracts/token/ERC20/utils/SafeERC20.sol\":1112:1208  _callOptionalReturn(token, abi.encodeWithSelector(token.transferFrom.selector, from, to, value)) */\n      tag_368\n        /* \"@openzeppelin/contracts/token/ERC20/utils/SafeERC20.sol\":1132:1137  token */\n      dup5\n        /* \"@openzeppelin/contracts/token/ERC20/utils/SafeERC20.sol\":1162:1189  token.transferFrom.selector */\n      shl(0xe0, 0x23b872dd)\n        /* \"@openzeppelin/contracts/token/ERC20/utils/SafeERC20.sol\":1191:1195  from */\n      dup6\n        /* \"@openzeppelin/contracts/token/ERC20/utils/SafeERC20.sol\":1197:1199  to */\n      dup6\n        /* \"@openzeppelin/contracts/token/ERC20/utils/SafeERC20.sol\":1201:1206  value */\n      dup6\n        /* \"@openzeppelin/contracts/token/ERC20/utils/SafeERC20.sol\":1139:1207  abi.encodeWithSelector(token.transferFrom.selector, from, to, value) */\n      add(0x24, mload(0x40))\n      tag_369\n      swap4\n      swap3\n      swap2\n      swap1\n      tag_168\n      jump\t// in\n    tag_369:\n      mload(0x40)\n      0x20\n      dup2\n      dup4\n      sub\n      sub\n      dup2\n      mstore\n      swap1\n      0x40\n      mstore\n      swap1\n      not(0xffffffffffffffffffffffffffffffffffffffffffffffffffffffff)\n      and\n      0x20\n      dup3\n      add\n      dup1\n      mload\n      0xffffffffffffffffffffffffffffffffffffffffffffffffffffffff\n      dup4\n      dup2\n      dup4\n      and\n      or\n      dup4\n      mstore\n      pop\n      pop\n      pop\n      pop\n        /* \"@openzeppelin/contracts/token/ERC20/utils/SafeERC20.sol\":1112:1131  _callOptionalReturn */\n      tag_365\n        /* \"@openzeppelin/contracts/token/ERC20/utils/SafeERC20.sol\":1112:1208  _callOptionalReturn(token, abi.encodeWithSelector(token.transferFrom.selector, from, to, value)) */\n      jump\t// in\n    tag_368:\n        /* \"@openzeppelin/contracts/token/ERC20/utils/SafeERC20.sol\":974:1215  function safeTransferFrom(... */\n      pop\n      pop\n      pop\n      pop\n      jump\t// out\n        /* \"@openzeppelin/contracts/utils/Context.sol\":640:736  function _msgSender() internal view virtual returns (address) {... */\n    tag_320:\n        /* \"@openzeppelin/contracts/utils/Context.sol\":693:700  address */\n      0x00\n        /* \"@openzeppelin/contracts/utils/Context.sol\":719:729  msg.sender */\n      caller\n        /* \"@openzeppelin/contracts/utils/Context.sol\":712:729  return msg.sender */\n      swap1\n      pop\n        /* \"@openzeppelin/contracts/utils/Context.sol\":640:736  function _msgSender() internal view virtual returns (address) {... */\n      swap1\n      jump\t// out\n        /* \"@openzeppelin/contracts/token/ERC20/utils/SafeERC20.sol\":3747:4453  function _callOptionalReturn(IERC20 token, bytes memory data) private {... */\n    tag_365:\n        /* \"@openzeppelin/contracts/token/ERC20/utils/SafeERC20.sol\":4166:4189  bytes memory returndata */\n      0x00\n        /* \"@openzeppelin/contracts/token/ERC20/utils/SafeERC20.sol\":4192:4261  address(token).functionCall(data, \"SafeERC20: low-level call failed\") */\n      tag_372\n        /* \"@openzeppelin/contracts/token/ERC20/utils/SafeERC20.sol\":4220:4224  data */\n      dup3\n        /* \"@openzeppelin/contracts/token/ERC20/utils/SafeERC20.sol\":4192:4261  address(token).functionCall(data, \"SafeERC20: low-level call failed\") */\n      mload(0x40)\n      dup1\n      0x40\n      add\n      0x40\n      mstore\n      dup1\n      0x20\n      dup2\n      mstore\n      0x20\n      add\n      0x5361666545524332303a206c6f772d6c6576656c2063616c6c206661696c6564\n      dup2\n      mstore\n      pop\n        /* \"@openzeppelin/contracts/token/ERC20/utils/SafeERC20.sol\":4200:4205  token */\n      dup6\n        /* \"@openzeppelin/contracts/token/ERC20/utils/SafeERC20.sol\":4192:4219  address(token).functionCall */\n      0xffffffffffffffffffffffffffffffffffffffff\n      and\n      tag_373\n      swap1\n        /* \"@openzeppelin/contracts/token/ERC20/utils/SafeERC20.sol\":4192:4261  address(token).functionCall(data, \"SafeERC20: low-level call failed\") */\n      swap3\n      swap2\n      swap1\n      0xffffffff\n      and\n      jump\t// in\n    tag_372:\n        /* \"@openzeppelin/contracts/token/ERC20/utils/SafeERC20.sol\":4166:4261  bytes memory returndata = address(token).functionCall(data, \"SafeERC20: low-level call failed\") */\n      swap1\n      pop\n        /* \"@openzeppelin/contracts/token/ERC20/utils/SafeERC20.sol\":4295:4296  0 */\n      0x00\n        /* \"@openzeppelin/contracts/token/ERC20/utils/SafeERC20.sol\":4275:4285  returndata */\n      dup2\n        /* \"@openzeppelin/contracts/token/ERC20/utils/SafeERC20.sol\":4275:4292  returndata.length */\n      mload\n        /* \"@openzeppelin/contracts/token/ERC20/utils/SafeERC20.sol\":4275:4296  returndata.length > 0 */\n      gt\n        /* \"@openzeppelin/contracts/token/ERC20/utils/SafeERC20.sol\":4271:4447  if (returndata.length > 0) {... */\n      iszero\n      tag_374\n      jumpi\n        /* \"@openzeppelin/contracts/token/ERC20/utils/SafeERC20.sol\":4370:4380  returndata */\n      dup1\n        /* \"@openzeppelin/contracts/token/ERC20/utils/SafeERC20.sol\":4359:4389  abi.decode(returndata, (bool)) */\n      dup1\n      0x20\n      add\n      swap1\n      mload\n      dup2\n      add\n      swap1\n      tag_375\n      swap2\n      swap1\n      tag_172\n      jump\t// in\n    tag_375:\n        /* \"@openzeppelin/contracts/token/ERC20/utils/SafeERC20.sol\":4351:4436  require(abi.decode(returndata, (bool)), \"SafeERC20: ERC20 operation did not succeed\") */\n      tag_376\n      jumpi\n      mload(0x40)\n      0x08c379a000000000000000000000000000000000000000000000000000000000\n      dup2\n      mstore\n      0x04\n      add\n      tag_377\n      swap1\n      tag_378\n      jump\t// in\n    tag_377:\n      mload(0x40)\n      dup1\n      swap2\n      sub\n      swap1\n      revert\n    tag_376:\n        /* \"@openzeppelin/contracts/token/ERC20/utils/SafeERC20.sol\":4271:4447  if (returndata.length > 0) {... */\n    tag_374:\n        /* \"@openzeppelin/contracts/token/ERC20/utils/SafeERC20.sol\":3817:4453  {... */\n      pop\n        /* \"@openzeppelin/contracts/token/ERC20/utils/SafeERC20.sol\":3747:4453  function _callOptionalReturn(IERC20 token, bytes memory data) private {... */\n      pop\n      pop\n      jump\t// out\n        /* \"@openzeppelin/contracts/utils/Address.sol\":3861:4084  function functionCall(... */\n    tag_373:\n        /* \"@openzeppelin/contracts/utils/Address.sol\":3994:4006  bytes memory */\n      0x60\n        /* \"@openzeppelin/contracts/utils/Address.sol\":4025:4077  functionCallWithValue(target, data, 0, errorMessage) */\n      tag_380\n        /* \"@openzeppelin/contracts/utils/Address.sol\":4047:4053  target */\n      dup5\n        /* \"@openzeppelin/contracts/utils/Address.sol\":4055:4059  data */\n      dup5\n        /* \"@openzeppelin/contracts/utils/Address.sol\":4061:4062  0 */\n      0x00\n        /* \"@openzeppelin/contracts/utils/Address.sol\":4064:4076  errorMessage */\n      dup6\n        /* \"@openzeppelin/contracts/utils/Address.sol\":4025:4046  functionCallWithValue */\n      tag_381\n        /* \"@openzeppelin/contracts/utils/Address.sol\":4025:4077  functionCallWithValue(target, data, 0, errorMessage) */\n      jump\t// in\n    tag_380:\n        /* \"@openzeppelin/contracts/utils/Address.sol\":4018:4077  return functionCallWithValue(target, data, 0, errorMessage) */\n      swap1\n      pop\n        /* \"@openzeppelin/contracts/utils/Address.sol\":3861:4084  function functionCall(... */\n      swap4\n      swap3\n      pop\n      pop\n      pop\n      jump\t// out\n        /* \"@openzeppelin/contracts/utils/Address.sol\":4948:5447  function functionCallWithValue(... */\n    tag_381:\n        /* \"@openzeppelin/contracts/utils/Address.sol\":5113:5125  bytes memory */\n      0x60\n        /* \"@openzeppelin/contracts/utils/Address.sol\":5170:5175  value */\n      dup3\n        /* \"@openzeppelin/contracts/utils/Address.sol\":5145:5166  address(this).balance */\n      selfbalance\n        /* \"@openzeppelin/contracts/utils/Address.sol\":5145:5175  address(this).balance >= value */\n      lt\n      iszero\n        /* \"@openzeppelin/contracts/utils/Address.sol\":5137:5218  require(address(this).balance >= value, \"Address: insufficient balance for call\") */\n      tag_383\n      jumpi\n      mload(0x40)\n      0x08c379a000000000000000000000000000000000000000000000000000000000\n      dup2\n      mstore\n      0x04\n      add\n      tag_384\n      swap1\n      tag_385\n      jump\t// in\n    tag_384:\n      mload(0x40)\n      dup1\n      swap2\n      sub\n      swap1\n      revert\n    tag_383:\n        /* \"@openzeppelin/contracts/utils/Address.sol\":5236:5254  isContract(target) */\n      tag_386\n        /* \"@openzeppelin/contracts/utils/Address.sol\":5247:5253  target */\n      dup6\n        /* \"@openzeppelin/contracts/utils/Address.sol\":5236:5246  isContract */\n      tag_387\n        /* \"@openzeppelin/contracts/utils/Address.sol\":5236:5254  isContract(target) */\n      jump\t// in\n    tag_386:\n        /* \"@openzeppelin/contracts/utils/Address.sol\":5228:5288  require(isContract(target), \"Address: call to non-contract\") */\n      tag_388\n      jumpi\n      mload(0x40)\n      0x08c379a000000000000000000000000000000000000000000000000000000000\n      dup2\n      mstore\n      0x04\n      add\n      tag_389\n      swap1\n      tag_390\n      jump\t// in\n    tag_389:\n      mload(0x40)\n      dup1\n      swap2\n      sub\n      swap1\n      revert\n    tag_388:\n        /* \"@openzeppelin/contracts/utils/Address.sol\":5300:5312  bool success */\n      0x00\n        /* \"@openzeppelin/contracts/utils/Address.sol\":5314:5337  bytes memory returndata */\n      dup1\n        /* \"@openzeppelin/contracts/utils/Address.sol\":5341:5347  target */\n      dup7\n        /* \"@openzeppelin/contracts/utils/Address.sol\":5341:5352  target.call */\n      0xffffffffffffffffffffffffffffffffffffffff\n      and\n        /* \"@openzeppelin/contracts/utils/Address.sol\":5360:5365  value */\n      dup6\n        /* \"@openzeppelin/contracts/utils/Address.sol\":5367:5371  data */\n      dup8\n        /* \"@openzeppelin/contracts/utils/Address.sol\":5341:5372  target.call{value: value}(data) */\n      mload(0x40)\n      tag_391\n      swap2\n      swap1\n      tag_392\n      jump\t// in\n    tag_391:\n      0x00\n      mload(0x40)\n      dup1\n      dup4\n      sub\n      dup2\n      dup6\n      dup8\n      gas\n      call\n      swap3\n      pop\n      pop\n      pop\n      returndatasize\n      dup1\n      0x00\n      dup2\n      eq\n      tag_395\n      jumpi\n      mload(0x40)\n      swap2\n      pop\n      and(add(returndatasize, 0x3f), not(0x1f))\n      dup3\n      add\n      0x40\n      mstore\n      returndatasize\n      dup3\n      mstore\n      returndatasize\n      0x00\n      0x20\n      dup5\n      add\n      returndatacopy\n      jump(tag_394)\n    tag_395:\n      0x60\n      swap2\n      pop\n    tag_394:\n      pop\n        /* \"@openzeppelin/contracts/utils/Address.sol\":5299:5372  (bool success, bytes memory returndata) = target.call{value: value}(data) */\n      swap2\n      pop\n      swap2\n      pop\n        /* \"@openzeppelin/contracts/utils/Address.sol\":5389:5440  verifyCallResult(success, returndata, errorMessage) */\n      tag_396\n        /* \"@openzeppelin/contracts/utils/Address.sol\":5406:5413  success */\n      dup3\n        /* \"@openzeppelin/contracts/utils/Address.sol\":5415:5425  returndata */\n      dup3\n        /* \"@openzeppelin/contracts/utils/Address.sol\":5427:5439  errorMessage */\n      dup7\n        /* \"@openzeppelin/contracts/utils/Address.sol\":5389:5405  verifyCallResult */\n      tag_397\n        /* \"@openzeppelin/contracts/utils/Address.sol\":5389:5440  verifyCallResult(success, returndata, errorMessage) */\n      jump\t// in\n    tag_396:\n        /* \"@openzeppelin/contracts/utils/Address.sol\":5382:5440  return verifyCallResult(success, returndata, errorMessage) */\n      swap3\n      pop\n      pop\n      pop\n        /* \"@openzeppelin/contracts/utils/Address.sol\":4948:5447  function functionCallWithValue(... */\n      swap5\n      swap4\n      pop\n      pop\n      pop\n      pop\n      jump\t// out\n        /* \"@openzeppelin/contracts/utils/Address.sol\":1175:1495  function isContract(address account) internal view returns (bool) {... */\n    tag_387:\n        /* \"@openzeppelin/contracts/utils/Address.sol\":1235:1239  bool */\n      0x00\n        /* \"@openzeppelin/contracts/utils/Address.sol\":1487:1488  0 */\n      dup1\n        /* \"@openzeppelin/contracts/utils/Address.sol\":1465:1472  account */\n      dup3\n        /* \"@openzeppelin/contracts/utils/Address.sol\":1465:1484  account.code.length */\n      0xffffffffffffffffffffffffffffffffffffffff\n      and\n      extcodesize\n        /* \"@openzeppelin/contracts/utils/Address.sol\":1465:1488  account.code.length > 0 */\n      gt\n        /* \"@openzeppelin/contracts/utils/Address.sol\":1458:1488  return account.code.length > 0 */\n      swap1\n      pop\n        /* \"@openzeppelin/contracts/utils/Address.sol\":1175:1495  function isContract(address account) internal view returns (bool) {... */\n      swap2\n      swap1\n      pop\n      jump\t// out\n        /* \"@openzeppelin/contracts/utils/Address.sol\":7561:8303  function verifyCallResult(... */\n    tag_397:\n        /* \"@openzeppelin/contracts/utils/Address.sol\":7707:7719  bytes memory */\n      0x60\n        /* \"@openzeppelin/contracts/utils/Address.sol\":7735:7742  success */\n      dup4\n        /* \"@openzeppelin/contracts/utils/Address.sol\":7731:8297  if (success) {... */\n      iszero\n      tag_400\n      jumpi\n        /* \"@openzeppelin/contracts/utils/Address.sol\":7765:7775  returndata */\n      dup3\n        /* \"@openzeppelin/contracts/utils/Address.sol\":7758:7775  return returndata */\n      swap1\n      pop\n      jump(tag_399)\n        /* \"@openzeppelin/contracts/utils/Address.sol\":7731:8297  if (success) {... */\n    tag_400:\n        /* \"@openzeppelin/contracts/utils/Address.sol\":7896:7897  0 */\n      0x00\n        /* \"@openzeppelin/contracts/utils/Address.sol\":7876:7886  returndata */\n      dup4\n        /* \"@openzeppelin/contracts/utils/Address.sol\":7876:7893  returndata.length */\n      mload\n        /* \"@openzeppelin/contracts/utils/Address.sol\":7876:7897  returndata.length > 0 */\n      gt\n        /* \"@openzeppelin/contracts/utils/Address.sol\":7872:8287  if (returndata.length > 0) {... */\n      iszero\n      tag_402\n      jumpi\n        /* \"@openzeppelin/contracts/utils/Address.sol\":8120:8130  returndata */\n      dup3\n        /* \"@openzeppelin/contracts/utils/Address.sol\":8114:8131  mload(returndata) */\n      mload\n        /* \"@openzeppelin/contracts/utils/Address.sol\":8180:8195  returndata_size */\n      dup1\n        /* \"@openzeppelin/contracts/utils/Address.sol\":8167:8177  returndata */\n      dup5\n        /* \"@openzeppelin/contracts/utils/Address.sol\":8163:8165  32 */\n      0x20\n        /* \"@openzeppelin/contracts/utils/Address.sol\":8159:8178  add(32, returndata) */\n      add\n        /* \"@openzeppelin/contracts/utils/Address.sol\":8152:8196  revert(add(32, returndata), returndata_size) */\n      revert\n        /* \"@openzeppelin/contracts/utils/Address.sol\":7872:8287  if (returndata.length > 0) {... */\n    tag_402:\n        /* \"@openzeppelin/contracts/utils/Address.sol\":8259:8271  errorMessage */\n      dup2\n        /* \"@openzeppelin/contracts/utils/Address.sol\":8252:8272  revert(errorMessage) */\n      mload(0x40)\n      0x08c379a000000000000000000000000000000000000000000000000000000000\n      dup2\n      mstore\n      0x04\n      add\n      tag_404\n      swap2\n      swap1\n      tag_405\n      jump\t// in\n    tag_404:\n      mload(0x40)\n      dup1\n      swap2\n      sub\n      swap1\n      revert\n        /* \"@openzeppelin/contracts/utils/Address.sol\":7561:8303  function verifyCallResult(... */\n    tag_399:\n      swap4\n      swap3\n      pop\n      pop\n      pop\n      jump\t// out\n        /* \"#utility.yul\":88:205   */\n    tag_407:\n        /* \"#utility.yul\":197:198   */\n      0x00\n        /* \"#utility.yul\":194:195   */\n      dup1\n        /* \"#utility.yul\":187:199   */\n      revert\n        /* \"#utility.yul\":334:411   */\n    tag_409:\n        /* \"#utility.yul\":371:378   */\n      0x00\n        /* \"#utility.yul\":400:405   */\n      dup2\n        /* \"#utility.yul\":389:405   */\n      swap1\n      pop\n        /* \"#utility.yul\":334:411   */\n      swap2\n      swap1\n      pop\n      jump\t// out\n        /* \"#utility.yul\":417:539   */\n    tag_410:\n        /* \"#utility.yul\":490:514   */\n      tag_469\n        /* \"#utility.yul\":508:513   */\n      dup2\n        /* \"#utility.yul\":490:514   */\n      tag_409\n      jump\t// in\n    tag_469:\n        /* \"#utility.yul\":483:488   */\n      dup2\n        /* \"#utility.yul\":480:515   */\n      eq\n        /* \"#utility.yul\":470:533   */\n      tag_470\n      jumpi\n        /* \"#utility.yul\":529:530   */\n      0x00\n        /* \"#utility.yul\":526:527   */\n      dup1\n        /* \"#utility.yul\":519:531   */\n      revert\n        /* \"#utility.yul\":470:533   */\n    tag_470:\n        /* \"#utility.yul\":417:539   */\n      pop\n      jump\t// out\n        /* \"#utility.yul\":545:684   */\n    tag_411:\n        /* \"#utility.yul\":591:596   */\n      0x00\n        /* \"#utility.yul\":629:635   */\n      dup2\n        /* \"#utility.yul\":616:636   */\n      calldataload\n        /* \"#utility.yul\":607:636   */\n      swap1\n      pop\n        /* \"#utility.yul\":645:678   */\n      tag_472\n        /* \"#utility.yul\":672:677   */\n      dup2\n        /* \"#utility.yul\":645:678   */\n      tag_410\n      jump\t// in\n    tag_472:\n        /* \"#utility.yul\":545:684   */\n      swap3\n      swap2\n      pop\n      pop\n      jump\t// out\n        /* \"#utility.yul\":690:1019   */\n    tag_40:\n        /* \"#utility.yul\":749:755   */\n      0x00\n        /* \"#utility.yul\":798:800   */\n      0x20\n        /* \"#utility.yul\":786:795   */\n      dup3\n        /* \"#utility.yul\":777:784   */\n      dup5\n        /* \"#utility.yul\":773:796   */\n      sub\n        /* \"#utility.yul\":769:801   */\n      slt\n        /* \"#utility.yul\":766:885   */\n      iszero\n      tag_474\n      jumpi\n        /* \"#utility.yul\":804:883   */\n      tag_475\n      tag_407\n      jump\t// in\n    tag_475:\n        /* \"#utility.yul\":766:885   */\n    tag_474:\n        /* \"#utility.yul\":924:925   */\n      0x00\n        /* \"#utility.yul\":949:1002   */\n      tag_476\n        /* \"#utility.yul\":994:1001   */\n      dup5\n        /* \"#utility.yul\":985:991   */\n      dup3\n        /* \"#utility.yul\":974:983   */\n      dup6\n        /* \"#utility.yul\":970:992   */\n      add\n        /* \"#utility.yul\":949:1002   */\n      tag_411\n      jump\t// in\n    tag_476:\n        /* \"#utility.yul\":939:1002   */\n      swap2\n      pop\n        /* \"#utility.yul\":895:1012   */\n      pop\n        /* \"#utility.yul\":690:1019   */\n      swap3\n      swap2\n      pop\n      pop\n      jump\t// out\n        /* \"#utility.yul\":1025:1143   */\n    tag_412:\n        /* \"#utility.yul\":1112:1136   */\n      tag_478\n        /* \"#utility.yul\":1130:1135   */\n      dup2\n        /* \"#utility.yul\":1112:1136   */\n      tag_409\n      jump\t// in\n    tag_478:\n        /* \"#utility.yul\":1107:1110   */\n      dup3\n        /* \"#utility.yul\":1100:1137   */\n      mstore\n        /* \"#utility.yul\":1025:1143   */\n      pop\n      pop\n      jump\t// out\n        /* \"#utility.yul\":1149:1371   */\n    tag_45:\n        /* \"#utility.yul\":1242:1246   */\n      0x00\n        /* \"#utility.yul\":1280:1282   */\n      0x20\n        /* \"#utility.yul\":1269:1278   */\n      dup3\n        /* \"#utility.yul\":1265:1283   */\n      add\n        /* \"#utility.yul\":1257:1283   */\n      swap1\n      pop\n        /* \"#utility.yul\":1293:1364   */\n      tag_480\n        /* \"#utility.yul\":1361:1362   */\n      0x00\n        /* \"#utility.yul\":1350:1359   */\n      dup4\n        /* \"#utility.yul\":1346:1363   */\n      add\n        /* \"#utility.yul\":1337:1343   */\n      dup5\n        /* \"#utility.yul\":1293:1364   */\n      tag_412\n      jump\t// in\n    tag_480:\n        /* \"#utility.yul\":1149:1371   */\n      swap3\n      swap2\n      pop\n      pop\n      jump\t// out\n        /* \"#utility.yul\":1377:1503   */\n    tag_413:\n        /* \"#utility.yul\":1414:1421   */\n      0x00\n        /* \"#utility.yul\":1454:1496   */\n      0xffffffffffffffffffffffffffffffffffffffff\n        /* \"#utility.yul\":1447:1452   */\n      dup3\n        /* \"#utility.yul\":1443:1497   */\n      and\n        /* \"#utility.yul\":1432:1497   */\n      swap1\n      pop\n        /* \"#utility.yul\":1377:1503   */\n      swap2\n      swap1\n      pop\n      jump\t// out\n        /* \"#utility.yul\":1509:1569   */\n    tag_414:\n        /* \"#utility.yul\":1537:1540   */\n      0x00\n        /* \"#utility.yul\":1558:1563   */\n      dup2\n        /* \"#utility.yul\":1551:1563   */\n      swap1\n      pop\n        /* \"#utility.yul\":1509:1569   */\n      swap2\n      swap1\n      pop\n      jump\t// out\n        /* \"#utility.yul\":1575:1717   */\n    tag_415:\n        /* \"#utility.yul\":1625:1634   */\n      0x00\n        /* \"#utility.yul\":1658:1711   */\n      tag_484\n        /* \"#utility.yul\":1676:1710   */\n      tag_485\n        /* \"#utility.yul\":1685:1709   */\n      tag_486\n        /* \"#utility.yul\":1703:1708   */\n      dup5\n        /* \"#utility.yul\":1685:1709   */\n      tag_413\n      jump\t// in\n    tag_486:\n        /* \"#utility.yul\":1676:1710   */\n      tag_414\n      jump\t// in\n    tag_485:\n        /* \"#utility.yul\":1658:1711   */\n      tag_413\n      jump\t// in\n    tag_484:\n        /* \"#utility.yul\":1645:1711   */\n      swap1\n      pop\n        /* \"#utility.yul\":1575:1717   */\n      swap2\n      swap1\n      pop\n      jump\t// out\n        /* \"#utility.yul\":1723:1849   */\n    tag_416:\n        /* \"#utility.yul\":1773:1782   */\n      0x00\n        /* \"#utility.yul\":1806:1843   */\n      tag_488\n        /* \"#utility.yul\":1837:1842   */\n      dup3\n        /* \"#utility.yul\":1806:1843   */\n      tag_415\n      jump\t// in\n    tag_488:\n        /* \"#utility.yul\":1793:1843   */\n      swap1\n      pop\n        /* \"#utility.yul\":1723:1849   */\n      swap2\n      swap1\n      pop\n      jump\t// out\n        /* \"#utility.yul\":1855:1995   */\n    tag_417:\n        /* \"#utility.yul\":1919:1928   */\n      0x00\n        /* \"#utility.yul\":1952:1989   */\n      tag_490\n        /* \"#utility.yul\":1983:1988   */\n      dup3\n        /* \"#utility.yul\":1952:1989   */\n      tag_416\n      jump\t// in\n    tag_490:\n        /* \"#utility.yul\":1939:1989   */\n      swap1\n      pop\n        /* \"#utility.yul\":1855:1995   */\n      swap2\n      swap1\n      pop\n      jump\t// out\n        /* \"#utility.yul\":2001:2160   */\n    tag_418:\n        /* \"#utility.yul\":2102:2153   */\n      tag_492\n        /* \"#utility.yul\":2147:2152   */\n      dup2\n        /* \"#utility.yul\":2102:2153   */\n      tag_417\n      jump\t// in\n    tag_492:\n        /* \"#utility.yul\":2097:2100   */\n      dup3\n        /* \"#utility.yul\":2090:2154   */\n      mstore\n        /* \"#utility.yul\":2001:2160   */\n      pop\n      pop\n      jump\t// out\n        /* \"#utility.yul\":2166:2747   */\n    tag_50:\n        /* \"#utility.yul\":2357:2361   */\n      0x00\n        /* \"#utility.yul\":2395:2398   */\n      0x80\n        /* \"#utility.yul\":2384:2393   */\n      dup3\n        /* \"#utility.yul\":2380:2399   */\n      add\n        /* \"#utility.yul\":2372:2399   */\n      swap1\n      pop\n        /* \"#utility.yul\":2409:2494   */\n      tag_494\n        /* \"#utility.yul\":2491:2492   */\n      0x00\n        /* \"#utility.yul\":2480:2489   */\n      dup4\n        /* \"#utility.yul\":2476:2493   */\n      add\n        /* \"#utility.yul\":2467:2473   */\n      dup8\n        /* \"#utility.yul\":2409:2494   */\n      tag_418\n      jump\t// in\n    tag_494:\n        /* \"#utility.yul\":2504:2576   */\n      tag_495\n        /* \"#utility.yul\":2572:2574   */\n      0x20\n        /* \"#utility.yul\":2561:2570   */\n      dup4\n        /* \"#utility.yul\":2557:2575   */\n      add\n        /* \"#utility.yul\":2548:2554   */\n      dup7\n        /* \"#utility.yul\":2504:2576   */\n      tag_412\n      jump\t// in\n    tag_495:\n        /* \"#utility.yul\":2586:2658   */\n      tag_496\n        /* \"#utility.yul\":2654:2656   */\n      0x40\n        /* \"#utility.yul\":2643:2652   */\n      dup4\n        /* \"#utility.yul\":2639:2657   */\n      add\n        /* \"#utility.yul\":2630:2636   */\n      dup6\n        /* \"#utility.yul\":2586:2658   */\n      tag_412\n      jump\t// in\n    tag_496:\n        /* \"#utility.yul\":2668:2740   */\n      tag_497\n        /* \"#utility.yul\":2736:2738   */\n      0x60\n        /* \"#utility.yul\":2725:2734   */\n      dup4\n        /* \"#utility.yul\":2721:2739   */\n      add\n        /* \"#utility.yul\":2712:2718   */\n      dup5\n        /* \"#utility.yul\":2668:2740   */\n      tag_412\n      jump\t// in\n    tag_497:\n        /* \"#utility.yul\":2166:2747   */\n      swap6\n      swap5\n      pop\n      pop\n      pop\n      pop\n      pop\n      jump\t// out\n        /* \"#utility.yul\":2753:3227   */\n    tag_56:\n        /* \"#utility.yul\":2821:2827   */\n      0x00\n        /* \"#utility.yul\":2829:2835   */\n      dup1\n        /* \"#utility.yul\":2878:2880   */\n      0x40\n        /* \"#utility.yul\":2866:2875   */\n      dup4\n        /* \"#utility.yul\":2857:2864   */\n      dup6\n        /* \"#utility.yul\":2853:2876   */\n      sub\n        /* \"#utility.yul\":2849:2881   */\n      slt\n        /* \"#utility.yul\":2846:2965   */\n      iszero\n      tag_499\n      jumpi\n        /* \"#utility.yul\":2884:2963   */\n      tag_500\n      tag_407\n      jump\t// in\n    tag_500:\n        /* \"#utility.yul\":2846:2965   */\n    tag_499:\n        /* \"#utility.yul\":3004:3005   */\n      0x00\n        /* \"#utility.yul\":3029:3082   */\n      tag_501\n        /* \"#utility.yul\":3074:3081   */\n      dup6\n        /* \"#utility.yul\":3065:3071   */\n      dup3\n        /* \"#utility.yul\":3054:3063   */\n      dup7\n        /* \"#utility.yul\":3050:3072   */\n      add\n        /* \"#utility.yul\":3029:3082   */\n      tag_411\n      jump\t// in\n    tag_501:\n        /* \"#utility.yul\":3019:3082   */\n      swap3\n      pop\n        /* \"#utility.yul\":2975:3092   */\n      pop\n        /* \"#utility.yul\":3131:3133   */\n      0x20\n        /* \"#utility.yul\":3157:3210   */\n      tag_502\n        /* \"#utility.yul\":3202:3209   */\n      dup6\n        /* \"#utility.yul\":3193:3199   */\n      dup3\n        /* \"#utility.yul\":3182:3191   */\n      dup7\n        /* \"#utility.yul\":3178:3200   */\n      add\n        /* \"#utility.yul\":3157:3210   */\n      tag_411\n      jump\t// in\n    tag_502:\n        /* \"#utility.yul\":3147:3210   */\n      swap2\n      pop\n        /* \"#utility.yul\":3102:3220   */\n      pop\n        /* \"#utility.yul\":2753:3227   */\n      swap3\n      pop\n      swap3\n      swap1\n      pop\n      jump\t// out\n        /* \"#utility.yul\":3233:3329   */\n    tag_419:\n        /* \"#utility.yul\":3270:3277   */\n      0x00\n        /* \"#utility.yul\":3299:3323   */\n      tag_504\n        /* \"#utility.yul\":3317:3322   */\n      dup3\n        /* \"#utility.yul\":3299:3323   */\n      tag_413\n      jump\t// in\n    tag_504:\n        /* \"#utility.yul\":3288:3323   */\n      swap1\n      pop\n        /* \"#utility.yul\":3233:3329   */\n      swap2\n      swap1\n      pop\n      jump\t// out\n        /* \"#utility.yul\":3335:3445   */\n    tag_420:\n        /* \"#utility.yul\":3386:3393   */\n      0x00\n        /* \"#utility.yul\":3415:3439   */\n      tag_506\n        /* \"#utility.yul\":3433:3438   */\n      dup3\n        /* \"#utility.yul\":3415:3439   */\n      tag_419\n      jump\t// in\n    tag_506:\n        /* \"#utility.yul\":3404:3439   */\n      swap1\n      pop\n        /* \"#utility.yul\":3335:3445   */\n      swap2\n      swap1\n      pop\n      jump\t// out\n        /* \"#utility.yul\":3451:3601   */\n    tag_421:\n        /* \"#utility.yul\":3538:3576   */\n      tag_508\n        /* \"#utility.yul\":3570:3575   */\n      dup2\n        /* \"#utility.yul\":3538:3576   */\n      tag_420\n      jump\t// in\n    tag_508:\n        /* \"#utility.yul\":3531:3536   */\n      dup2\n        /* \"#utility.yul\":3528:3577   */\n      eq\n        /* \"#utility.yul\":3518:3595   */\n      tag_509\n      jumpi\n        /* \"#utility.yul\":3591:3592   */\n      0x00\n        /* \"#utility.yul\":3588:3589   */\n      dup1\n        /* \"#utility.yul\":3581:3593   */\n      revert\n        /* \"#utility.yul\":3518:3595   */\n    tag_509:\n        /* \"#utility.yul\":3451:3601   */\n      pop\n      jump\t// out\n        /* \"#utility.yul\":3607:3774   */\n    tag_422:\n        /* \"#utility.yul\":3667:3672   */\n      0x00\n        /* \"#utility.yul\":3705:3711   */\n      dup2\n        /* \"#utility.yul\":3692:3712   */\n      calldataload\n        /* \"#utility.yul\":3683:3712   */\n      swap1\n      pop\n        /* \"#utility.yul\":3721:3768   */\n      tag_511\n        /* \"#utility.yul\":3762:3767   */\n      dup2\n        /* \"#utility.yul\":3721:3768   */\n      tag_421\n      jump\t// in\n    tag_511:\n        /* \"#utility.yul\":3607:3774   */\n      swap3\n      swap2\n      pop\n      pop\n      jump\t// out\n        /* \"#utility.yul\":3780:4282   */\n    tag_63:\n        /* \"#utility.yul\":3862:3868   */\n      0x00\n        /* \"#utility.yul\":3870:3876   */\n      dup1\n        /* \"#utility.yul\":3919:3921   */\n      0x40\n        /* \"#utility.yul\":3907:3916   */\n      dup4\n        /* \"#utility.yul\":3898:3905   */\n      dup6\n        /* \"#utility.yul\":3894:3917   */\n      sub\n        /* \"#utility.yul\":3890:3922   */\n      slt\n        /* \"#utility.yul\":3887:4006   */\n      iszero\n      tag_513\n      jumpi\n        /* \"#utility.yul\":3925:4004   */\n      tag_514\n      tag_407\n      jump\t// in\n    tag_514:\n        /* \"#utility.yul\":3887:4006   */\n    tag_513:\n        /* \"#utility.yul\":4045:4046   */\n      0x00\n        /* \"#utility.yul\":4070:4123   */\n      tag_515\n        /* \"#utility.yul\":4115:4122   */\n      dup6\n        /* \"#utility.yul\":4106:4112   */\n      dup3\n        /* \"#utility.yul\":4095:4104   */\n      dup7\n        /* \"#utility.yul\":4091:4113   */\n      add\n        /* \"#utility.yul\":4070:4123   */\n      tag_411\n      jump\t// in\n    tag_515:\n        /* \"#utility.yul\":4060:4123   */\n      swap3\n      pop\n        /* \"#utility.yul\":4016:4133   */\n      pop\n        /* \"#utility.yul\":4172:4174   */\n      0x20\n        /* \"#utility.yul\":4198:4265   */\n      tag_516\n        /* \"#utility.yul\":4257:4264   */\n      dup6\n        /* \"#utility.yul\":4248:4254   */\n      dup3\n        /* \"#utility.yul\":4237:4246   */\n      dup7\n        /* \"#utility.yul\":4233:4255   */\n      add\n        /* \"#utility.yul\":4198:4265   */\n      tag_422\n      jump\t// in\n    tag_516:\n        /* \"#utility.yul\":4188:4265   */\n      swap2\n      pop\n        /* \"#utility.yul\":4143:4275   */\n      pop\n        /* \"#utility.yul\":3780:4282   */\n      swap3\n      pop\n      swap3\n      swap1\n      pop\n      jump\t// out\n        /* \"#utility.yul\":4288:4378   */\n    tag_423:\n        /* \"#utility.yul\":4322:4329   */\n      0x00\n        /* \"#utility.yul\":4365:4370   */\n      dup2\n        /* \"#utility.yul\":4358:4371   */\n      iszero\n        /* \"#utility.yul\":4351:4372   */\n      iszero\n        /* \"#utility.yul\":4340:4372   */\n      swap1\n      pop\n        /* \"#utility.yul\":4288:4378   */\n      swap2\n      swap1\n      pop\n      jump\t// out\n        /* \"#utility.yul\":4384:4493   */\n    tag_424:\n        /* \"#utility.yul\":4465:4486   */\n      tag_519\n        /* \"#utility.yul\":4480:4485   */\n      dup2\n        /* \"#utility.yul\":4465:4486   */\n      tag_423\n      jump\t// in\n    tag_519:\n        /* \"#utility.yul\":4460:4463   */\n      dup3\n        /* \"#utility.yul\":4453:4487   */\n      mstore\n        /* \"#utility.yul\":4384:4493   */\n      pop\n      pop\n      jump\t// out\n        /* \"#utility.yul\":4499:4709   */\n    tag_74:\n        /* \"#utility.yul\":4586:4590   */\n      0x00\n        /* \"#utility.yul\":4624:4626   */\n      0x20\n        /* \"#utility.yul\":4613:4622   */\n      dup3\n        /* \"#utility.yul\":4609:4627   */\n      add\n        /* \"#utility.yul\":4601:4627   */\n      swap1\n      pop\n        /* \"#utility.yul\":4637:4702   */\n      tag_521\n        /* \"#utility.yul\":4699:4700   */\n      0x00\n        /* \"#utility.yul\":4688:4697   */\n      dup4\n        /* \"#utility.yul\":4684:4701   */\n      add\n        /* \"#utility.yul\":4675:4681   */\n      dup5\n        /* \"#utility.yul\":4637:4702   */\n      tag_424\n      jump\t// in\n    tag_521:\n        /* \"#utility.yul\":4499:4709   */\n      swap3\n      swap2\n      pop\n      pop\n      jump\t// out\n        /* \"#utility.yul\":4715:4833   */\n    tag_425:\n        /* \"#utility.yul\":4802:4826   */\n      tag_523\n        /* \"#utility.yul\":4820:4825   */\n      dup2\n        /* \"#utility.yul\":4802:4826   */\n      tag_419\n      jump\t// in\n    tag_523:\n        /* \"#utility.yul\":4797:4800   */\n      dup3\n        /* \"#utility.yul\":4790:4827   */\n      mstore\n        /* \"#utility.yul\":4715:4833   */\n      pop\n      pop\n      jump\t// out\n        /* \"#utility.yul\":4839:5061   */\n    tag_95:\n        /* \"#utility.yul\":4932:4936   */\n      0x00\n        /* \"#utility.yul\":4970:4972   */\n      0x20\n        /* \"#utility.yul\":4959:4968   */\n      dup3\n        /* \"#utility.yul\":4955:4973   */\n      add\n        /* \"#utility.yul\":4947:4973   */\n      swap1\n      pop\n        /* \"#utility.yul\":4983:5054   */\n      tag_525\n        /* \"#utility.yul\":5051:5052   */\n      0x00\n        /* \"#utility.yul\":5040:5049   */\n      dup4\n        /* \"#utility.yul\":5036:5053   */\n      add\n        /* \"#utility.yul\":5027:5033   */\n      dup5\n        /* \"#utility.yul\":4983:5054   */\n      tag_425\n      jump\t// in\n    tag_525:\n        /* \"#utility.yul\":4839:5061   */\n      swap3\n      swap2\n      pop\n      pop\n      jump\t// out\n        /* \"#utility.yul\":5067:5189   */\n    tag_426:\n        /* \"#utility.yul\":5140:5164   */\n      tag_527\n        /* \"#utility.yul\":5158:5163   */\n      dup2\n        /* \"#utility.yul\":5140:5164   */\n      tag_419\n      jump\t// in\n    tag_527:\n        /* \"#utility.yul\":5133:5138   */\n      dup2\n        /* \"#utility.yul\":5130:5165   */\n      eq\n        /* \"#utility.yul\":5120:5183   */\n      tag_528\n      jumpi\n        /* \"#utility.yul\":5179:5180   */\n      0x00\n        /* \"#utility.yul\":5176:5177   */\n      dup1\n        /* \"#utility.yul\":5169:5181   */\n      revert\n        /* \"#utility.yul\":5120:5183   */\n    tag_528:\n        /* \"#utility.yul\":5067:5189   */\n      pop\n      jump\t// out\n        /* \"#utility.yul\":5195:5334   */\n    tag_427:\n        /* \"#utility.yul\":5241:5246   */\n      0x00\n        /* \"#utility.yul\":5279:5285   */\n      dup2\n        /* \"#utility.yul\":5266:5286   */\n      calldataload\n        /* \"#utility.yul\":5257:5286   */\n      swap1\n      pop\n        /* \"#utility.yul\":5295:5328   */\n      tag_530\n        /* \"#utility.yul\":5322:5327   */\n      dup2\n        /* \"#utility.yul\":5295:5328   */\n      tag_426\n      jump\t// in\n    tag_530:\n        /* \"#utility.yul\":5195:5334   */\n      swap3\n      swap2\n      pop\n      pop\n      jump\t// out\n        /* \"#utility.yul\":5340:5814   */\n    tag_105:\n        /* \"#utility.yul\":5408:5414   */\n      0x00\n        /* \"#utility.yul\":5416:5422   */\n      dup1\n        /* \"#utility.yul\":5465:5467   */\n      0x40\n        /* \"#utility.yul\":5453:5462   */\n      dup4\n        /* \"#utility.yul\":5444:5451   */\n      dup6\n        /* \"#utility.yul\":5440:5463   */\n      sub\n        /* \"#utility.yul\":5436:5468   */\n      slt\n        /* \"#utility.yul\":5433:5552   */\n      iszero\n      tag_532\n      jumpi\n        /* \"#utility.yul\":5471:5550   */\n      tag_533\n      tag_407\n      jump\t// in\n    tag_533:\n        /* \"#utility.yul\":5433:5552   */\n    tag_532:\n        /* \"#utility.yul\":5591:5592   */\n      0x00\n        /* \"#utility.yul\":5616:5669   */\n      tag_534\n        /* \"#utility.yul\":5661:5668   */\n      dup6\n        /* \"#utility.yul\":5652:5658   */\n      dup3\n        /* \"#utility.yul\":5641:5650   */\n      dup7\n        /* \"#utility.yul\":5637:5659   */\n      add\n        /* \"#utility.yul\":5616:5669   */\n      tag_411\n      jump\t// in\n    tag_534:\n        /* \"#utility.yul\":5606:5669   */\n      swap3\n      pop\n        /* \"#utility.yul\":5562:5679   */\n      pop\n        /* \"#utility.yul\":5718:5720   */\n      0x20\n        /* \"#utility.yul\":5744:5797   */\n      tag_535\n        /* \"#utility.yul\":5789:5796   */\n      dup6\n        /* \"#utility.yul\":5780:5786   */\n      dup3\n        /* \"#utility.yul\":5769:5778   */\n      dup7\n        /* \"#utility.yul\":5765:5787   */\n      add\n        /* \"#utility.yul\":5744:5797   */\n      tag_427\n      jump\t// in\n    tag_535:\n        /* \"#utility.yul\":5734:5797   */\n      swap2\n      pop\n        /* \"#utility.yul\":5689:5807   */\n      pop\n        /* \"#utility.yul\":5340:5814   */\n      swap3\n      pop\n      swap3\n      swap1\n      pop\n      jump\t// out\n        /* \"#utility.yul\":5820:6152   */\n    tag_108:\n        /* \"#utility.yul\":5941:5945   */\n      0x00\n        /* \"#utility.yul\":5979:5981   */\n      0x40\n        /* \"#utility.yul\":5968:5977   */\n      dup3\n        /* \"#utility.yul\":5964:5982   */\n      add\n        /* \"#utility.yul\":5956:5982   */\n      swap1\n      pop\n        /* \"#utility.yul\":5992:6063   */\n      tag_537\n        /* \"#utility.yul\":6060:6061   */\n      0x00\n        /* \"#utility.yul\":6049:6058   */\n      dup4\n        /* \"#utility.yul\":6045:6062   */\n      add\n        /* \"#utility.yul\":6036:6042   */\n      dup6\n        /* \"#utility.yul\":5992:6063   */\n      tag_412\n      jump\t// in\n    tag_537:\n        /* \"#utility.yul\":6073:6145   */\n      tag_538\n        /* \"#utility.yul\":6141:6143   */\n      0x20\n        /* \"#utility.yul\":6130:6139   */\n      dup4\n        /* \"#utility.yul\":6126:6144   */\n      add\n        /* \"#utility.yul\":6117:6123   */\n      dup5\n        /* \"#utility.yul\":6073:6145   */\n      tag_412\n      jump\t// in\n    tag_538:\n        /* \"#utility.yul\":5820:6152   */\n      swap4\n      swap3\n      pop\n      pop\n      pop\n      jump\t// out\n        /* \"#utility.yul\":6158:6408   */\n    tag_116:\n        /* \"#utility.yul\":6265:6269   */\n      0x00\n        /* \"#utility.yul\":6303:6305   */\n      0x20\n        /* \"#utility.yul\":6292:6301   */\n      dup3\n        /* \"#utility.yul\":6288:6306   */\n      add\n        /* \"#utility.yul\":6280:6306   */\n      swap1\n      pop\n        /* \"#utility.yul\":6316:6401   */\n      tag_540\n        /* \"#utility.yul\":6398:6399   */\n      0x00\n        /* \"#utility.yul\":6387:6396   */\n      dup4\n        /* \"#utility.yul\":6383:6400   */\n      add\n        /* \"#utility.yul\":6374:6380   */\n      dup5\n        /* \"#utility.yul\":6316:6401   */\n      tag_418\n      jump\t// in\n    tag_540:\n        /* \"#utility.yul\":6158:6408   */\n      swap3\n      swap2\n      pop\n      pop\n      jump\t// out\n        /* \"#utility.yul\":6414:6743   */\n    tag_128:\n        /* \"#utility.yul\":6473:6479   */\n      0x00\n        /* \"#utility.yul\":6522:6524   */\n      0x20\n        /* \"#utility.yul\":6510:6519   */\n      dup3\n        /* \"#utility.yul\":6501:6508   */\n      dup5\n        /* \"#utility.yul\":6497:6520   */\n      sub\n        /* \"#utility.yul\":6493:6525   */\n      slt\n        /* \"#utility.yul\":6490:6609   */\n      iszero\n      tag_542\n      jumpi\n        /* \"#utility.yul\":6528:6607   */\n      tag_543\n      tag_407\n      jump\t// in\n    tag_543:\n        /* \"#utility.yul\":6490:6609   */\n    tag_542:\n        /* \"#utility.yul\":6648:6649   */\n      0x00\n        /* \"#utility.yul\":6673:6726   */\n      tag_544\n        /* \"#utility.yul\":6718:6725   */\n      dup5\n        /* \"#utility.yul\":6709:6715   */\n      dup3\n        /* \"#utility.yul\":6698:6707   */\n      dup6\n        /* \"#utility.yul\":6694:6716   */\n      add\n        /* \"#utility.yul\":6673:6726   */\n      tag_427\n      jump\t// in\n    tag_544:\n        /* \"#utility.yul\":6663:6726   */\n      swap2\n      pop\n        /* \"#utility.yul\":6619:6736   */\n      pop\n        /* \"#utility.yul\":6414:6743   */\n      swap3\n      swap2\n      pop\n      pop\n      jump\t// out\n        /* \"#utility.yul\":6749:6918   */\n    tag_428:\n        /* \"#utility.yul\":6833:6844   */\n      0x00\n        /* \"#utility.yul\":6867:6873   */\n      dup3\n        /* \"#utility.yul\":6862:6865   */\n      dup3\n        /* \"#utility.yul\":6855:6874   */\n      mstore\n        /* \"#utility.yul\":6907:6911   */\n      0x20\n        /* \"#utility.yul\":6902:6905   */\n      dup3\n        /* \"#utility.yul\":6898:6912   */\n      add\n        /* \"#utility.yul\":6883:6912   */\n      swap1\n      pop\n        /* \"#utility.yul\":6749:6918   */\n      swap3\n      swap2\n      pop\n      pop\n      jump\t// out\n        /* \"#utility.yul\":6924:7144   */\n    tag_429:\n        /* \"#utility.yul\":7064:7098   */\n      0x736574574554485065725365636f6e643a20746f6f206d616e79205745544873\n        /* \"#utility.yul\":7060:7061   */\n      0x00\n        /* \"#utility.yul\":7052:7058   */\n      dup3\n        /* \"#utility.yul\":7048:7062   */\n      add\n        /* \"#utility.yul\":7041:7099   */\n      mstore\n        /* \"#utility.yul\":7133:7136   */\n      0x2100000000000000000000000000000000000000000000000000000000000000\n        /* \"#utility.yul\":7128:7130   */\n      0x20\n        /* \"#utility.yul\":7120:7126   */\n      dup3\n        /* \"#utility.yul\":7116:7131   */\n      add\n        /* \"#utility.yul\":7109:7137   */\n      mstore\n        /* \"#utility.yul\":6924:7144   */\n      pop\n      jump\t// out\n        /* \"#utility.yul\":7150:7516   */\n    tag_430:\n        /* \"#utility.yul\":7292:7295   */\n      0x00\n        /* \"#utility.yul\":7313:7380   */\n      tag_548\n        /* \"#utility.yul\":7377:7379   */\n      0x21\n        /* \"#utility.yul\":7372:7375   */\n      dup4\n        /* \"#utility.yul\":7313:7380   */\n      tag_428\n      jump\t// in\n    tag_548:\n        /* \"#utility.yul\":7306:7380   */\n      swap2\n      pop\n        /* \"#utility.yul\":7389:7482   */\n      tag_549\n        /* \"#utility.yul\":7478:7481   */\n      dup3\n        /* \"#utility.yul\":7389:7482   */\n      tag_429\n      jump\t// in\n    tag_549:\n        /* \"#utility.yul\":7507:7509   */\n      0x40\n        /* \"#utility.yul\":7502:7505   */\n      dup3\n        /* \"#utility.yul\":7498:7510   */\n      add\n        /* \"#utility.yul\":7491:7510   */\n      swap1\n      pop\n        /* \"#utility.yul\":7150:7516   */\n      swap2\n      swap1\n      pop\n      jump\t// out\n        /* \"#utility.yul\":7522:7941   */\n    tag_139:\n        /* \"#utility.yul\":7688:7692   */\n      0x00\n        /* \"#utility.yul\":7726:7728   */\n      0x20\n        /* \"#utility.yul\":7715:7724   */\n      dup3\n        /* \"#utility.yul\":7711:7729   */\n      add\n        /* \"#utility.yul\":7703:7729   */\n      swap1\n      pop\n        /* \"#utility.yul\":7775:7784   */\n      dup2\n        /* \"#utility.yul\":7769:7773   */\n      dup2\n        /* \"#utility.yul\":7765:7785   */\n      sub\n        /* \"#utility.yul\":7761:7762   */\n      0x00\n        /* \"#utility.yul\":7750:7759   */\n      dup4\n        /* \"#utility.yul\":7746:7763   */\n      add\n        /* \"#utility.yul\":7739:7786   */\n      mstore\n        /* \"#utility.yul\":7803:7934   */\n      tag_551\n        /* \"#utility.yul\":7929:7933   */\n      dup2\n        /* \"#utility.yul\":7803:7934   */\n      tag_430\n      jump\t// in\n    tag_551:\n        /* \"#utility.yul\":7795:7934   */\n      swap1\n      pop\n        /* \"#utility.yul\":7522:7941   */\n      swap2\n      swap1\n      pop\n      jump\t// out\n        /* \"#utility.yul\":7947:8125   */\n    tag_431:\n        /* \"#utility.yul\":8087:8117   */\n      0x6164643a20746f6f206d616e7920616c6c6f6320706f696e7473212100000000\n        /* \"#utility.yul\":8083:8084   */\n      0x00\n        /* \"#utility.yul\":8075:8081   */\n      dup3\n        /* \"#utility.yul\":8071:8085   */\n      add\n        /* \"#utility.yul\":8064:8118   */\n      mstore\n        /* \"#utility.yul\":7947:8125   */\n      pop\n      jump\t// out\n        /* \"#utility.yul\":8131:8497   */\n    tag_432:\n        /* \"#utility.yul\":8273:8276   */\n      0x00\n        /* \"#utility.yul\":8294:8361   */\n      tag_554\n        /* \"#utility.yul\":8358:8360   */\n      0x1c\n        /* \"#utility.yul\":8353:8356   */\n      dup4\n        /* \"#utility.yul\":8294:8361   */\n      tag_428\n      jump\t// in\n    tag_554:\n        /* \"#utility.yul\":8287:8361   */\n      swap2\n      pop\n        /* \"#utility.yul\":8370:8463   */\n      tag_555\n        /* \"#utility.yul\":8459:8462   */\n      dup3\n        /* \"#utility.yul\":8370:8463   */\n      tag_431\n      jump\t// in\n    tag_555:\n        /* \"#utility.yul\":8488:8490   */\n      0x20\n        /* \"#utility.yul\":8483:8486   */\n      dup3\n        /* \"#utility.yul\":8479:8491   */\n      add\n        /* \"#utility.yul\":8472:8491   */\n      swap1\n      pop\n        /* \"#utility.yul\":8131:8497   */\n      swap2\n      swap1\n      pop\n      jump\t// out\n        /* \"#utility.yul\":8503:8922   */\n    tag_149:\n        /* \"#utility.yul\":8669:8673   */\n      0x00\n        /* \"#utility.yul\":8707:8709   */\n      0x20\n        /* \"#utility.yul\":8696:8705   */\n      dup3\n        /* \"#utility.yul\":8692:8710   */\n      add\n        /* \"#utility.yul\":8684:8710   */\n      swap1\n      pop\n        /* \"#utility.yul\":8756:8765   */\n      dup2\n        /* \"#utility.yul\":8750:8754   */\n      dup2\n        /* \"#utility.yul\":8746:8766   */\n      sub\n        /* \"#utility.yul\":8742:8743   */\n      0x00\n        /* \"#utility.yul\":8731:8740   */\n      dup4\n        /* \"#utility.yul\":8727:8744   */\n      add\n        /* \"#utility.yul\":8720:8767   */\n      mstore\n        /* \"#utility.yul\":8784:8915   */\n      tag_557\n        /* \"#utility.yul\":8910:8914   */\n      dup2\n        /* \"#utility.yul\":8784:8915   */\n      tag_432\n      jump\t// in\n    tag_557:\n        /* \"#utility.yul\":8776:8915   */\n      swap1\n      pop\n        /* \"#utility.yul\":8503:8922   */\n      swap2\n      swap1\n      pop\n      jump\t// out\n        /* \"#utility.yul\":8928:9108   */\n    tag_153:\n        /* \"#utility.yul\":8976:9053   */\n      0x4e487b7100000000000000000000000000000000000000000000000000000000\n        /* \"#utility.yul\":8973:8974   */\n      0x00\n        /* \"#utility.yul\":8966:9054   */\n      mstore\n        /* \"#utility.yul\":9073:9077   */\n      0x32\n        /* \"#utility.yul\":9070:9071   */\n      0x04\n        /* \"#utility.yul\":9063:9078   */\n      mstore\n        /* \"#utility.yul\":9097:9101   */\n      0x24\n        /* \"#utility.yul\":9094:9095   */\n      0x00\n        /* \"#utility.yul\":9087:9102   */\n      revert\n        /* \"#utility.yul\":9114:9294   */\n    tag_433:\n        /* \"#utility.yul\":9162:9239   */\n      0x4e487b7100000000000000000000000000000000000000000000000000000000\n        /* \"#utility.yul\":9159:9160   */\n      0x00\n        /* \"#utility.yul\":9152:9240   */\n      mstore\n        /* \"#utility.yul\":9259:9263   */\n      0x11\n        /* \"#utility.yul\":9256:9257   */\n      0x04\n        /* \"#utility.yul\":9249:9264   */\n      mstore\n        /* \"#utility.yul\":9283:9287   */\n      0x24\n        /* \"#utility.yul\":9280:9281   */\n      0x00\n        /* \"#utility.yul\":9273:9288   */\n      revert\n        /* \"#utility.yul\":9300:9491   */\n    tag_156:\n        /* \"#utility.yul\":9340:9344   */\n      0x00\n        /* \"#utility.yul\":9360:9380   */\n      tag_561\n        /* \"#utility.yul\":9378:9379   */\n      dup3\n        /* \"#utility.yul\":9360:9380   */\n      tag_409\n      jump\t// in\n    tag_561:\n        /* \"#utility.yul\":9355:9380   */\n      swap2\n      pop\n        /* \"#utility.yul\":9394:9414   */\n      tag_562\n        /* \"#utility.yul\":9412:9413   */\n      dup4\n        /* \"#utility.yul\":9394:9414   */\n      tag_409\n      jump\t// in\n    tag_562:\n        /* \"#utility.yul\":9389:9414   */\n      swap3\n      pop\n        /* \"#utility.yul\":9433:9434   */\n      dup3\n        /* \"#utility.yul\":9430:9431   */\n      dup3\n        /* \"#utility.yul\":9427:9435   */\n      lt\n        /* \"#utility.yul\":9424:9458   */\n      iszero\n      tag_563\n      jumpi\n        /* \"#utility.yul\":9438:9456   */\n      tag_564\n      tag_433\n      jump\t// in\n    tag_564:\n        /* \"#utility.yul\":9424:9458   */\n    tag_563:\n        /* \"#utility.yul\":9483:9484   */\n      dup3\n        /* \"#utility.yul\":9480:9481   */\n      dup3\n        /* \"#utility.yul\":9476:9485   */\n      sub\n        /* \"#utility.yul\":9468:9485   */\n      swap1\n      pop\n        /* \"#utility.yul\":9300:9491   */\n      swap3\n      swap2\n      pop\n      pop\n      jump\t// out\n        /* \"#utility.yul\":9497:9802   */\n    tag_158:\n        /* \"#utility.yul\":9537:9540   */\n      0x00\n        /* \"#utility.yul\":9556:9576   */\n      tag_566\n        /* \"#utility.yul\":9574:9575   */\n      dup3\n        /* \"#utility.yul\":9556:9576   */\n      tag_409\n      jump\t// in\n    tag_566:\n        /* \"#utility.yul\":9551:9576   */\n      swap2\n      pop\n        /* \"#utility.yul\":9590:9610   */\n      tag_567\n        /* \"#utility.yul\":9608:9609   */\n      dup4\n        /* \"#utility.yul\":9590:9610   */\n      tag_409\n      jump\t// in\n    tag_567:\n        /* \"#utility.yul\":9585:9610   */\n      swap3\n      pop\n        /* \"#utility.yul\":9744:9745   */\n      dup3\n        /* \"#utility.yul\":9676:9742   */\n      0xffffffffffffffffffffffffffffffffffffffffffffffffffffffffffffffff\n        /* \"#utility.yul\":9672:9746   */\n      sub\n        /* \"#utility.yul\":9669:9670   */\n      dup3\n        /* \"#utility.yul\":9666:9747   */\n      gt\n        /* \"#utility.yul\":9663:9770   */\n      iszero\n      tag_568\n      jumpi\n        /* \"#utility.yul\":9750:9768   */\n      tag_569\n      tag_433\n      jump\t// in\n    tag_569:\n        /* \"#utility.yul\":9663:9770   */\n    tag_568:\n        /* \"#utility.yul\":9794:9795   */\n      dup3\n        /* \"#utility.yul\":9791:9792   */\n      dup3\n        /* \"#utility.yul\":9787:9796   */\n      add\n        /* \"#utility.yul\":9780:9796   */\n      swap1\n      pop\n        /* \"#utility.yul\":9497:9802   */\n      swap3\n      swap2\n      pop\n      pop\n      jump\t// out\n        /* \"#utility.yul\":9808:10250   */\n    tag_168:\n        /* \"#utility.yul\":9957:9961   */\n      0x00\n        /* \"#utility.yul\":9995:9997   */\n      0x60\n        /* \"#utility.yul\":9984:9993   */\n      dup3\n        /* \"#utility.yul\":9980:9998   */\n      add\n        /* \"#utility.yul\":9972:9998   */\n      swap1\n      pop\n        /* \"#utility.yul\":10008:10079   */\n      tag_571\n        /* \"#utility.yul\":10076:10077   */\n      0x00\n        /* \"#utility.yul\":10065:10074   */\n      dup4\n        /* \"#utility.yul\":10061:10078   */\n      add\n        /* \"#utility.yul\":10052:10058   */\n      dup7\n        /* \"#utility.yul\":10008:10079   */\n      tag_425\n      jump\t// in\n    tag_571:\n        /* \"#utility.yul\":10089:10161   */\n      tag_572\n        /* \"#utility.yul\":10157:10159   */\n      0x20\n        /* \"#utility.yul\":10146:10155   */\n      dup4\n        /* \"#utility.yul\":10142:10160   */\n      add\n        /* \"#utility.yul\":10133:10139   */\n      dup6\n        /* \"#utility.yul\":10089:10161   */\n      tag_425\n      jump\t// in\n    tag_572:\n        /* \"#utility.yul\":10171:10243   */\n      tag_573\n        /* \"#utility.yul\":10239:10241   */\n      0x40\n        /* \"#utility.yul\":10228:10237   */\n      dup4\n        /* \"#utility.yul\":10224:10242   */\n      add\n        /* \"#utility.yul\":10215:10221   */\n      dup5\n        /* \"#utility.yul\":10171:10243   */\n      tag_412\n      jump\t// in\n    tag_573:\n        /* \"#utility.yul\":9808:10250   */\n      swap5\n      swap4\n      pop\n      pop\n      pop\n      pop\n      jump\t// out\n        /* \"#utility.yul\":10256:10372   */\n    tag_434:\n        /* \"#utility.yul\":10326:10347   */\n      tag_575\n        /* \"#utility.yul\":10341:10346   */\n      dup2\n        /* \"#utility.yul\":10326:10347   */\n      tag_423\n      jump\t// in\n    tag_575:\n        /* \"#utility.yul\":10319:10324   */\n      dup2\n        /* \"#utility.yul\":10316:10348   */\n      eq\n        /* \"#utility.yul\":10306:10366   */\n      tag_576\n      jumpi\n        /* \"#utility.yul\":10362:10363   */\n      0x00\n        /* \"#utility.yul\":10359:10360   */\n      dup1\n        /* \"#utility.yul\":10352:10364   */\n      revert\n        /* \"#utility.yul\":10306:10366   */\n    tag_576:\n        /* \"#utility.yul\":10256:10372   */\n      pop\n      jump\t// out\n        /* \"#utility.yul\":10378:10515   */\n    tag_435:\n        /* \"#utility.yul\":10432:10437   */\n      0x00\n        /* \"#utility.yul\":10463:10469   */\n      dup2\n        /* \"#utility.yul\":10457:10470   */\n      mload\n        /* \"#utility.yul\":10448:10470   */\n      swap1\n      pop\n        /* \"#utility.yul\":10479:10509   */\n      tag_578\n        /* \"#utility.yul\":10503:10508   */\n      dup2\n        /* \"#utility.yul\":10479:10509   */\n      tag_434\n      jump\t// in\n    tag_578:\n        /* \"#utility.yul\":10378:10515   */\n      swap3\n      swap2\n      pop\n      pop\n      jump\t// out\n        /* \"#utility.yul\":10521:10866   */\n    tag_172:\n        /* \"#utility.yul\":10588:10594   */\n      0x00\n        /* \"#utility.yul\":10637:10639   */\n      0x20\n        /* \"#utility.yul\":10625:10634   */\n      dup3\n        /* \"#utility.yul\":10616:10623   */\n      dup5\n        /* \"#utility.yul\":10612:10635   */\n      sub\n        /* \"#utility.yul\":10608:10640   */\n      slt\n        /* \"#utility.yul\":10605:10724   */\n      iszero\n      tag_580\n      jumpi\n        /* \"#utility.yul\":10643:10722   */\n      tag_581\n      tag_407\n      jump\t// in\n    tag_581:\n        /* \"#utility.yul\":10605:10724   */\n    tag_580:\n        /* \"#utility.yul\":10763:10764   */\n      0x00\n        /* \"#utility.yul\":10788:10849   */\n      tag_582\n        /* \"#utility.yul\":10841:10848   */\n      dup5\n        /* \"#utility.yul\":10832:10838   */\n      dup3\n        /* \"#utility.yul\":10821:10830   */\n      dup6\n        /* \"#utility.yul\":10817:10839   */\n      add\n        /* \"#utility.yul\":10788:10849   */\n      tag_435\n      jump\t// in\n    tag_582:\n        /* \"#utility.yul\":10778:10849   */\n      swap2\n      pop\n        /* \"#utility.yul\":10734:10859   */\n      pop\n        /* \"#utility.yul\":10521:10866   */\n      swap3\n      swap2\n      pop\n      pop\n      jump\t// out\n        /* \"#utility.yul\":10872:11053   */\n    tag_436:\n        /* \"#utility.yul\":11012:11045   */\n      0x5265656e7472616e637947756172643a207265656e7472616e742063616c6c00\n        /* \"#utility.yul\":11008:11009   */\n      0x00\n        /* \"#utility.yul\":11000:11006   */\n      dup3\n        /* \"#utility.yul\":10996:11010   */\n      add\n        /* \"#utility.yul\":10989:11046   */\n      mstore\n        /* \"#utility.yul\":10872:11053   */\n      pop\n      jump\t// out\n        /* \"#utility.yul\":11059:11425   */\n    tag_437:\n        /* \"#utility.yul\":11201:11204   */\n      0x00\n        /* \"#utility.yul\":11222:11289   */\n      tag_585\n        /* \"#utility.yul\":11286:11288   */\n      0x1f\n        /* \"#utility.yul\":11281:11284   */\n      dup4\n        /* \"#utility.yul\":11222:11289   */\n      tag_428\n      jump\t// in\n    tag_585:\n        /* \"#utility.yul\":11215:11289   */\n      swap2\n      pop\n        /* \"#utility.yul\":11298:11391   */\n      tag_586\n        /* \"#utility.yul\":11387:11390   */\n      dup3\n        /* \"#utility.yul\":11298:11391   */\n      tag_436\n      jump\t// in\n    tag_586:\n        /* \"#utility.yul\":11416:11418   */\n      0x20\n        /* \"#utility.yul\":11411:11414   */\n      dup3\n        /* \"#utility.yul\":11407:11419   */\n      add\n        /* \"#utility.yul\":11400:11419   */\n      swap1\n      pop\n        /* \"#utility.yul\":11059:11425   */\n      swap2\n      swap1\n      pop\n      jump\t// out\n        /* \"#utility.yul\":11431:11850   */\n    tag_188:\n        /* \"#utility.yul\":11597:11601   */\n      0x00\n        /* \"#utility.yul\":11635:11637   */\n      0x20\n        /* \"#utility.yul\":11624:11633   */\n      dup3\n        /* \"#utility.yul\":11620:11638   */\n      add\n        /* \"#utility.yul\":11612:11638   */\n      swap1\n      pop\n        /* \"#utility.yul\":11684:11693   */\n      dup2\n        /* \"#utility.yul\":11678:11682   */\n      dup2\n        /* \"#utility.yul\":11674:11694   */\n      sub\n        /* \"#utility.yul\":11670:11671   */\n      0x00\n        /* \"#utility.yul\":11659:11668   */\n      dup4\n        /* \"#utility.yul\":11655:11672   */\n      add\n        /* \"#utility.yul\":11648:11695   */\n      mstore\n        /* \"#utility.yul\":11712:11843   */\n      tag_588\n        /* \"#utility.yul\":11838:11842   */\n      dup2\n        /* \"#utility.yul\":11712:11843   */\n      tag_437\n      jump\t// in\n    tag_588:\n        /* \"#utility.yul\":11704:11843   */\n      swap1\n      pop\n        /* \"#utility.yul\":11431:11850   */\n      swap2\n      swap1\n      pop\n      jump\t// out\n        /* \"#utility.yul\":11856:12024   */\n    tag_438:\n        /* \"#utility.yul\":11996:12016   */\n      0x77697468647261773a206e6f7420676f6f640000000000000000000000000000\n        /* \"#utility.yul\":11992:11993   */\n      0x00\n        /* \"#utility.yul\":11984:11990   */\n      dup3\n        /* \"#utility.yul\":11980:11994   */\n      add\n        /* \"#utility.yul\":11973:12017   */\n      mstore\n        /* \"#utility.yul\":11856:12024   */\n      pop\n      jump\t// out\n        /* \"#utility.yul\":12030:12396   */\n    tag_439:\n        /* \"#utility.yul\":12172:12175   */\n      0x00\n        /* \"#utility.yul\":12193:12260   */\n      tag_591\n        /* \"#utility.yul\":12257:12259   */\n      0x12\n        /* \"#utility.yul\":12252:12255   */\n      dup4\n        /* \"#utility.yul\":12193:12260   */\n      tag_428\n      jump\t// in\n    tag_591:\n        /* \"#utility.yul\":12186:12260   */\n      swap2\n      pop\n        /* \"#utility.yul\":12269:12362   */\n      tag_592\n        /* \"#utility.yul\":12358:12361   */\n      dup3\n        /* \"#utility.yul\":12269:12362   */\n      tag_438\n      jump\t// in\n    tag_592:\n        /* \"#utility.yul\":12387:12389   */\n      0x20\n        /* \"#utility.yul\":12382:12385   */\n      dup3\n        /* \"#utility.yul\":12378:12390   */\n      add\n        /* \"#utility.yul\":12371:12390   */\n      swap1\n      pop\n        /* \"#utility.yul\":12030:12396   */\n      swap2\n      swap1\n      pop\n      jump\t// out\n        /* \"#utility.yul\":12402:12821   */\n    tag_195:\n        /* \"#utility.yul\":12568:12572   */\n      0x00\n        /* \"#utility.yul\":12606:12608   */\n      0x20\n        /* \"#utility.yul\":12595:12604   */\n      dup3\n        /* \"#utility.yul\":12591:12609   */\n      add\n        /* \"#utility.yul\":12583:12609   */\n      swap1\n      pop\n        /* \"#utility.yul\":12655:12664   */\n      dup2\n        /* \"#utility.yul\":12649:12653   */\n      dup2\n        /* \"#utility.yul\":12645:12665   */\n      sub\n        /* \"#utility.yul\":12641:12642   */\n      0x00\n        /* \"#utility.yul\":12630:12639   */\n      dup4\n        /* \"#utility.yul\":12626:12643   */\n      add\n        /* \"#utility.yul\":12619:12666   */\n      mstore\n        /* \"#utility.yul\":12683:12814   */\n      tag_594\n        /* \"#utility.yul\":12809:12813   */\n      dup2\n        /* \"#utility.yul\":12683:12814   */\n      tag_439\n      jump\t// in\n    tag_594:\n        /* \"#utility.yul\":12675:12814   */\n      swap1\n      pop\n        /* \"#utility.yul\":12402:12821   */\n      swap2\n      swap1\n      pop\n      jump\t// out\n        /* \"#utility.yul\":12827:12996   */\n    tag_440:\n        /* \"#utility.yul\":12967:12988   */\n      0x7769746864726177206e6f74206f70656e656400000000000000000000000000\n        /* \"#utility.yul\":12963:12964   */\n      0x00\n        /* \"#utility.yul\":12955:12961   */\n      dup3\n        /* \"#utility.yul\":12951:12965   */\n      add\n        /* \"#utility.yul\":12944:12989   */\n      mstore\n        /* \"#utility.yul\":12827:12996   */\n      pop\n      jump\t// out\n        /* \"#utility.yul\":13002:13368   */\n    tag_441:\n        /* \"#utility.yul\":13144:13147   */\n      0x00\n        /* \"#utility.yul\":13165:13232   */\n      tag_597\n        /* \"#utility.yul\":13229:13231   */\n      0x13\n        /* \"#utility.yul\":13224:13227   */\n      dup4\n        /* \"#utility.yul\":13165:13232   */\n      tag_428\n      jump\t// in\n    tag_597:\n        /* \"#utility.yul\":13158:13232   */\n      swap2\n      pop\n        /* \"#utility.yul\":13241:13334   */\n      tag_598\n        /* \"#utility.yul\":13330:13333   */\n      dup3\n        /* \"#utility.yul\":13241:13334   */\n      tag_440\n      jump\t// in\n    tag_598:\n        /* \"#utility.yul\":13359:13361   */\n      0x20\n        /* \"#utility.yul\":13354:13357   */\n      dup3\n        /* \"#utility.yul\":13350:13362   */\n      add\n        /* \"#utility.yul\":13343:13362   */\n      swap1\n      pop\n        /* \"#utility.yul\":13002:13368   */\n      swap2\n      swap1\n      pop\n      jump\t// out\n        /* \"#utility.yul\":13374:13793   */\n    tag_198:\n        /* \"#utility.yul\":13540:13544   */\n      0x00\n        /* \"#utility.yul\":13578:13580   */\n      0x20\n        /* \"#utility.yul\":13567:13576   */\n      dup3\n        /* \"#utility.yul\":13563:13581   */\n      add\n        /* \"#utility.yul\":13555:13581   */\n      swap1\n      pop\n        /* \"#utility.yul\":13627:13636   */\n      dup2\n        /* \"#utility.yul\":13621:13625   */\n      dup2\n        /* \"#utility.yul\":13617:13637   */\n      sub\n        /* \"#utility.yul\":13613:13614   */\n      0x00\n        /* \"#utility.yul\":13602:13611   */\n      dup4\n        /* \"#utility.yul\":13598:13615   */\n      add\n        /* \"#utility.yul\":13591:13638   */\n      mstore\n        /* \"#utility.yul\":13655:13786   */\n      tag_600\n        /* \"#utility.yul\":13781:13785   */\n      dup2\n        /* \"#utility.yul\":13655:13786   */\n      tag_441\n      jump\t// in\n    tag_600:\n        /* \"#utility.yul\":13647:13786   */\n      swap1\n      pop\n        /* \"#utility.yul\":13374:13793   */\n      swap2\n      swap1\n      pop\n      jump\t// out\n        /* \"#utility.yul\":13799:13942   */\n    tag_442:\n        /* \"#utility.yul\":13856:13861   */\n      0x00\n        /* \"#utility.yul\":13887:13893   */\n      dup2\n        /* \"#utility.yul\":13881:13894   */\n      mload\n        /* \"#utility.yul\":13872:13894   */\n      swap1\n      pop\n        /* \"#utility.yul\":13903:13936   */\n      tag_602\n        /* \"#utility.yul\":13930:13935   */\n      dup2\n        /* \"#utility.yul\":13903:13936   */\n      tag_410\n      jump\t// in\n    tag_602:\n        /* \"#utility.yul\":13799:13942   */\n      swap3\n      swap2\n      pop\n      pop\n      jump\t// out\n        /* \"#utility.yul\":13948:14299   */\n    tag_224:\n        /* \"#utility.yul\":14018:14024   */\n      0x00\n        /* \"#utility.yul\":14067:14069   */\n      0x20\n        /* \"#utility.yul\":14055:14064   */\n      dup3\n        /* \"#utility.yul\":14046:14053   */\n      dup5\n        /* \"#utility.yul\":14042:14065   */\n      sub\n        /* \"#utility.yul\":14038:14070   */\n      slt\n        /* \"#utility.yul\":14035:14154   */\n      iszero\n      tag_604\n      jumpi\n        /* \"#utility.yul\":14073:14152   */\n      tag_605\n      tag_407\n      jump\t// in\n    tag_605:\n        /* \"#utility.yul\":14035:14154   */\n    tag_604:\n        /* \"#utility.yul\":14193:14194   */\n      0x00\n        /* \"#utility.yul\":14218:14282   */\n      tag_606\n        /* \"#utility.yul\":14274:14281   */\n      dup5\n        /* \"#utility.yul\":14265:14271   */\n      dup3\n        /* \"#utility.yul\":14254:14263   */\n      dup6\n        /* \"#utility.yul\":14250:14272   */\n      add\n        /* \"#utility.yul\":14218:14282   */\n      tag_442\n      jump\t// in\n    tag_606:\n        /* \"#utility.yul\":14208:14282   */\n      swap2\n      pop\n        /* \"#utility.yul\":14164:14292   */\n      pop\n        /* \"#utility.yul\":13948:14299   */\n      swap3\n      swap2\n      pop\n      pop\n      jump\t// out\n        /* \"#utility.yul\":14305:14538   */\n    tag_254:\n        /* \"#utility.yul\":14344:14347   */\n      0x00\n        /* \"#utility.yul\":14367:14391   */\n      tag_608\n        /* \"#utility.yul\":14385:14390   */\n      dup3\n        /* \"#utility.yul\":14367:14391   */\n      tag_409\n      jump\t// in\n    tag_608:\n        /* \"#utility.yul\":14358:14391   */\n      swap2\n      pop\n        /* \"#utility.yul\":14413:14479   */\n      0xffffffffffffffffffffffffffffffffffffffffffffffffffffffffffffffff\n        /* \"#utility.yul\":14406:14411   */\n      dup3\n        /* \"#utility.yul\":14403:14480   */\n      eq\n        /* \"#utility.yul\":14400:14503   */\n      iszero\n      tag_609\n      jumpi\n        /* \"#utility.yul\":14483:14501   */\n      tag_610\n      tag_433\n      jump\t// in\n    tag_610:\n        /* \"#utility.yul\":14400:14503   */\n    tag_609:\n        /* \"#utility.yul\":14530:14531   */\n      0x01\n        /* \"#utility.yul\":14523:14528   */\n      dup3\n        /* \"#utility.yul\":14519:14532   */\n      add\n        /* \"#utility.yul\":14512:14532   */\n      swap1\n      pop\n        /* \"#utility.yul\":14305:14538   */\n      swap2\n      swap1\n      pop\n      jump\t// out\n        /* \"#utility.yul\":14544:14769   */\n    tag_443:\n        /* \"#utility.yul\":14684:14718   */\n      0x4f776e61626c653a206e6577206f776e657220697320746865207a65726f2061\n        /* \"#utility.yul\":14680:14681   */\n      0x00\n        /* \"#utility.yul\":14672:14678   */\n      dup3\n        /* \"#utility.yul\":14668:14682   */\n      add\n        /* \"#utility.yul\":14661:14719   */\n      mstore\n        /* \"#utility.yul\":14753:14761   */\n      0x6464726573730000000000000000000000000000000000000000000000000000\n        /* \"#utility.yul\":14748:14750   */\n      0x20\n        /* \"#utility.yul\":14740:14746   */\n      dup3\n        /* \"#utility.yul\":14736:14751   */\n      add\n        /* \"#utility.yul\":14729:14762   */\n      mstore\n        /* \"#utility.yul\":14544:14769   */\n      pop\n      jump\t// out\n        /* \"#utility.yul\":14775:15141   */\n    tag_444:\n        /* \"#utility.yul\":14917:14920   */\n      0x00\n        /* \"#utility.yul\":14938:15005   */\n      tag_613\n        /* \"#utility.yul\":15002:15004   */\n      0x26\n        /* \"#utility.yul\":14997:15000   */\n      dup4\n        /* \"#utility.yul\":14938:15005   */\n      tag_428\n      jump\t// in\n    tag_613:\n        /* \"#utility.yul\":14931:15005   */\n      swap2\n      pop\n        /* \"#utility.yul\":15014:15107   */\n      tag_614\n        /* \"#utility.yul\":15103:15106   */\n      dup3\n        /* \"#utility.yul\":15014:15107   */\n      tag_443\n      jump\t// in\n    tag_614:\n        /* \"#utility.yul\":15132:15134   */\n      0x40\n        /* \"#utility.yul\":15127:15130   */\n      dup3\n        /* \"#utility.yul\":15123:15135   */\n      add\n        /* \"#utility.yul\":15116:15135   */\n      swap1\n      pop\n        /* \"#utility.yul\":14775:15141   */\n      swap2\n      swap1\n      pop\n      jump\t// out\n        /* \"#utility.yul\":15147:15566   */\n    tag_316:\n        /* \"#utility.yul\":15313:15317   */\n      0x00\n        /* \"#utility.yul\":15351:15353   */\n      0x20\n        /* \"#utility.yul\":15340:15349   */\n      dup3\n        /* \"#utility.yul\":15336:15354   */\n      add\n        /* \"#utility.yul\":15328:15354   */\n      swap1\n      pop\n        /* \"#utility.yul\":15400:15409   */\n      dup2\n        /* \"#utility.yul\":15394:15398   */\n      dup2\n        /* \"#utility.yul\":15390:15410   */\n      sub\n        /* \"#utility.yul\":15386:15387   */\n      0x00\n        /* \"#utility.yul\":15375:15384   */\n      dup4\n        /* \"#utility.yul\":15371:15388   */\n      add\n        /* \"#utility.yul\":15364:15411   */\n      mstore\n        /* \"#utility.yul\":15428:15559   */\n      tag_616\n        /* \"#utility.yul\":15554:15558   */\n      dup2\n        /* \"#utility.yul\":15428:15559   */\n      tag_444\n      jump\t// in\n    tag_616:\n        /* \"#utility.yul\":15420:15559   */\n      swap1\n      pop\n        /* \"#utility.yul\":15147:15566   */\n      swap2\n      swap1\n      pop\n      jump\t// out\n        /* \"#utility.yul\":15572:15754   */\n    tag_445:\n        /* \"#utility.yul\":15712:15746   */\n      0x4f776e61626c653a2063616c6c6572206973206e6f7420746865206f776e6572\n        /* \"#utility.yul\":15708:15709   */\n      0x00\n        /* \"#utility.yul\":15700:15706   */\n      dup3\n        /* \"#utility.yul\":15696:15710   */\n      add\n        /* \"#utility.yul\":15689:15747   */\n      mstore\n        /* \"#utility.yul\":15572:15754   */\n      pop\n      jump\t// out\n        /* \"#utility.yul\":15760:16126   */\n    tag_446:\n        /* \"#utility.yul\":15902:15905   */\n      0x00\n        /* \"#utility.yul\":15923:15990   */\n      tag_619\n        /* \"#utility.yul\":15987:15989   */\n      0x20\n        /* \"#utility.yul\":15982:15985   */\n      dup4\n        /* \"#utility.yul\":15923:15990   */\n      tag_428\n      jump\t// in\n    tag_619:\n        /* \"#utility.yul\":15916:15990   */\n      swap2\n      pop\n        /* \"#utility.yul\":15999:16092   */\n      tag_620\n        /* \"#utility.yul\":16088:16091   */\n      dup3\n        /* \"#utility.yul\":15999:16092   */\n      tag_445\n      jump\t// in\n    tag_620:\n        /* \"#utility.yul\":16117:16119   */\n      0x20\n        /* \"#utility.yul\":16112:16115   */\n      dup3\n        /* \"#utility.yul\":16108:16120   */\n      add\n        /* \"#utility.yul\":16101:16120   */\n      swap1\n      pop\n        /* \"#utility.yul\":15760:16126   */\n      swap2\n      swap1\n      pop\n      jump\t// out\n        /* \"#utility.yul\":16132:16551   */\n    tag_324:\n        /* \"#utility.yul\":16298:16302   */\n      0x00\n        /* \"#utility.yul\":16336:16338   */\n      0x20\n        /* \"#utility.yul\":16325:16334   */\n      dup3\n        /* \"#utility.yul\":16321:16339   */\n      add\n        /* \"#utility.yul\":16313:16339   */\n      swap1\n      pop\n        /* \"#utility.yul\":16385:16394   */\n      dup2\n        /* \"#utility.yul\":16379:16383   */\n      dup2\n        /* \"#utility.yul\":16375:16395   */\n      sub\n        /* \"#utility.yul\":16371:16372   */\n      0x00\n        /* \"#utility.yul\":16360:16369   */\n      dup4\n        /* \"#utility.yul\":16356:16373   */\n      add\n        /* \"#utility.yul\":16349:16396   */\n      mstore\n        /* \"#utility.yul\":16413:16544   */\n      tag_622\n        /* \"#utility.yul\":16539:16543   */\n      dup2\n        /* \"#utility.yul\":16413:16544   */\n      tag_446\n      jump\t// in\n    tag_622:\n        /* \"#utility.yul\":16405:16544   */\n      swap1\n      pop\n        /* \"#utility.yul\":16132:16551   */\n      swap2\n      swap1\n      pop\n      jump\t// out\n        /* \"#utility.yul\":16557:16735   */\n    tag_447:\n        /* \"#utility.yul\":16697:16727   */\n      0x6164643a20706f6f6c20616c7265616479206578697374732121212100000000\n        /* \"#utility.yul\":16693:16694   */\n      0x00\n        /* \"#utility.yul\":16685:16691   */\n      dup3\n        /* \"#utility.yul\":16681:16695   */\n      add\n        /* \"#utility.yul\":16674:16728   */\n      mstore\n        /* \"#utility.yul\":16557:16735   */\n      pop\n      jump\t// out\n        /* \"#utility.yul\":16741:17107   */\n    tag_448:\n        /* \"#utility.yul\":16883:16886   */\n      0x00\n        /* \"#utility.yul\":16904:16971   */\n      tag_625\n        /* \"#utility.yul\":16968:16970   */\n      0x1c\n        /* \"#utility.yul\":16963:16966   */\n      dup4\n        /* \"#utility.yul\":16904:16971   */\n      tag_428\n      jump\t// in\n    tag_625:\n        /* \"#utility.yul\":16897:16971   */\n      swap2\n      pop\n        /* \"#utility.yul\":16980:17073   */\n      tag_626\n        /* \"#utility.yul\":17069:17072   */\n      dup3\n        /* \"#utility.yul\":16980:17073   */\n      tag_447\n      jump\t// in\n    tag_626:\n        /* \"#utility.yul\":17098:17100   */\n      0x20\n        /* \"#utility.yul\":17093:17096   */\n      dup3\n        /* \"#utility.yul\":17089:17101   */\n      add\n        /* \"#utility.yul\":17082:17101   */\n      swap1\n      pop\n        /* \"#utility.yul\":16741:17107   */\n      swap2\n      swap1\n      pop\n      jump\t// out\n        /* \"#utility.yul\":17113:17532   */\n    tag_336:\n        /* \"#utility.yul\":17279:17283   */\n      0x00\n        /* \"#utility.yul\":17317:17319   */\n      0x20\n        /* \"#utility.yul\":17306:17315   */\n      dup3\n        /* \"#utility.yul\":17302:17320   */\n      add\n        /* \"#utility.yul\":17294:17320   */\n      swap1\n      pop\n        /* \"#utility.yul\":17366:17375   */\n      dup2\n        /* \"#utility.yul\":17360:17364   */\n      dup2\n        /* \"#utility.yul\":17356:17376   */\n      sub\n        /* \"#utility.yul\":17352:17353   */\n      0x00\n        /* \"#utility.yul\":17341:17350   */\n      dup4\n        /* \"#utility.yul\":17337:17354   */\n      add\n        /* \"#utility.yul\":17330:17377   */\n      mstore\n        /* \"#utility.yul\":17394:17525   */\n      tag_628\n        /* \"#utility.yul\":17520:17524   */\n      dup2\n        /* \"#utility.yul\":17394:17525   */\n      tag_448\n      jump\t// in\n    tag_628:\n        /* \"#utility.yul\":17386:17525   */\n      swap1\n      pop\n        /* \"#utility.yul\":17113:17532   */\n      swap2\n      swap1\n      pop\n      jump\t// out\n        /* \"#utility.yul\":17538:17886   */\n    tag_340:\n        /* \"#utility.yul\":17578:17585   */\n      0x00\n        /* \"#utility.yul\":17601:17621   */\n      tag_630\n        /* \"#utility.yul\":17619:17620   */\n      dup3\n        /* \"#utility.yul\":17601:17621   */\n      tag_409\n      jump\t// in\n    tag_630:\n        /* \"#utility.yul\":17596:17621   */\n      swap2\n      pop\n        /* \"#utility.yul\":17635:17655   */\n      tag_631\n        /* \"#utility.yul\":17653:17654   */\n      dup4\n        /* \"#utility.yul\":17635:17655   */\n      tag_409\n      jump\t// in\n    tag_631:\n        /* \"#utility.yul\":17630:17655   */\n      swap3\n      pop\n        /* \"#utility.yul\":17823:17824   */\n      dup2\n        /* \"#utility.yul\":17755:17821   */\n      0xffffffffffffffffffffffffffffffffffffffffffffffffffffffffffffffff\n        /* \"#utility.yul\":17751:17825   */\n      div\n        /* \"#utility.yul\":17748:17749   */\n      dup4\n        /* \"#utility.yul\":17745:17826   */\n      gt\n        /* \"#utility.yul\":17740:17741   */\n      dup3\n        /* \"#utility.yul\":17733:17742   */\n      iszero\n        /* \"#utility.yul\":17726:17743   */\n      iszero\n        /* \"#utility.yul\":17722:17827   */\n      and\n        /* \"#utility.yul\":17719:17850   */\n      iszero\n      tag_632\n      jumpi\n        /* \"#utility.yul\":17830:17848   */\n      tag_633\n      tag_433\n      jump\t// in\n    tag_633:\n        /* \"#utility.yul\":17719:17850   */\n    tag_632:\n        /* \"#utility.yul\":17878:17879   */\n      dup3\n        /* \"#utility.yul\":17875:17876   */\n      dup3\n        /* \"#utility.yul\":17871:17880   */\n      mul\n        /* \"#utility.yul\":17860:17880   */\n      swap1\n      pop\n        /* \"#utility.yul\":17538:17886   */\n      swap3\n      swap2\n      pop\n      pop\n      jump\t// out\n        /* \"#utility.yul\":17892:18072   */\n    tag_449:\n        /* \"#utility.yul\":17940:18017   */\n      0x4e487b7100000000000000000000000000000000000000000000000000000000\n        /* \"#utility.yul\":17937:17938   */\n      0x00\n        /* \"#utility.yul\":17930:18018   */\n      mstore\n        /* \"#utility.yul\":18037:18041   */\n      0x12\n        /* \"#utility.yul\":18034:18035   */\n      0x04\n        /* \"#utility.yul\":18027:18042   */\n      mstore\n        /* \"#utility.yul\":18061:18065   */\n      0x24\n        /* \"#utility.yul\":18058:18059   */\n      0x00\n        /* \"#utility.yul\":18051:18066   */\n      revert\n        /* \"#utility.yul\":18078:18263   */\n    tag_343:\n        /* \"#utility.yul\":18118:18119   */\n      0x00\n        /* \"#utility.yul\":18135:18155   */\n      tag_636\n        /* \"#utility.yul\":18153:18154   */\n      dup3\n        /* \"#utility.yul\":18135:18155   */\n      tag_409\n      jump\t// in\n    tag_636:\n        /* \"#utility.yul\":18130:18155   */\n      swap2\n      pop\n        /* \"#utility.yul\":18169:18189   */\n      tag_637\n        /* \"#utility.yul\":18187:18188   */\n      dup4\n        /* \"#utility.yul\":18169:18189   */\n      tag_409\n      jump\t// in\n    tag_637:\n        /* \"#utility.yul\":18164:18189   */\n      swap3\n      pop\n        /* \"#utility.yul\":18208:18209   */\n      dup3\n        /* \"#utility.yul\":18198:18233   */\n      tag_638\n      jumpi\n        /* \"#utility.yul\":18213:18231   */\n      tag_639\n      tag_449\n      jump\t// in\n    tag_639:\n        /* \"#utility.yul\":18198:18233   */\n    tag_638:\n        /* \"#utility.yul\":18255:18256   */\n      dup3\n        /* \"#utility.yul\":18252:18253   */\n      dup3\n        /* \"#utility.yul\":18248:18257   */\n      div\n        /* \"#utility.yul\":18243:18257   */\n      swap1\n      pop\n        /* \"#utility.yul\":18078:18263   */\n      swap3\n      swap2\n      pop\n      pop\n      jump\t// out\n        /* \"#utility.yul\":18269:18601   */\n    tag_353:\n        /* \"#utility.yul\":18390:18394   */\n      0x00\n        /* \"#utility.yul\":18428:18430   */\n      0x40\n        /* \"#utility.yul\":18417:18426   */\n      dup3\n        /* \"#utility.yul\":18413:18431   */\n      add\n        /* \"#utility.yul\":18405:18431   */\n      swap1\n      pop\n        /* \"#utility.yul\":18441:18512   */\n      tag_641\n        /* \"#utility.yul\":18509:18510   */\n      0x00\n        /* \"#utility.yul\":18498:18507   */\n      dup4\n        /* \"#utility.yul\":18494:18511   */\n      add\n        /* \"#utility.yul\":18485:18491   */\n      dup6\n        /* \"#utility.yul\":18441:18512   */\n      tag_425\n      jump\t// in\n    tag_641:\n        /* \"#utility.yul\":18522:18594   */\n      tag_642\n        /* \"#utility.yul\":18590:18592   */\n      0x20\n        /* \"#utility.yul\":18579:18588   */\n      dup4\n        /* \"#utility.yul\":18575:18593   */\n      add\n        /* \"#utility.yul\":18566:18572   */\n      dup5\n        /* \"#utility.yul\":18522:18594   */\n      tag_412\n      jump\t// in\n    tag_642:\n        /* \"#utility.yul\":18269:18601   */\n      swap4\n      swap3\n      pop\n      pop\n      pop\n      jump\t// out\n        /* \"#utility.yul\":18607:18836   */\n    tag_450:\n        /* \"#utility.yul\":18747:18781   */\n      0x5361666545524332303a204552433230206f7065726174696f6e20646964206e\n        /* \"#utility.yul\":18743:18744   */\n      0x00\n        /* \"#utility.yul\":18735:18741   */\n      dup3\n        /* \"#utility.yul\":18731:18745   */\n      add\n        /* \"#utility.yul\":18724:18782   */\n      mstore\n        /* \"#utility.yul\":18816:18828   */\n      0x6f74207375636365656400000000000000000000000000000000000000000000\n        /* \"#utility.yul\":18811:18813   */\n      0x20\n        /* \"#utility.yul\":18803:18809   */\n      dup3\n        /* \"#utility.yul\":18799:18814   */\n      add\n        /* \"#utility.yul\":18792:18829   */\n      mstore\n        /* \"#utility.yul\":18607:18836   */\n      pop\n      jump\t// out\n        /* \"#utility.yul\":18842:19208   */\n    tag_451:\n        /* \"#utility.yul\":18984:18987   */\n      0x00\n        /* \"#utility.yul\":19005:19072   */\n      tag_645\n        /* \"#utility.yul\":19069:19071   */\n      0x2a\n        /* \"#utility.yul\":19064:19067   */\n      dup4\n        /* \"#utility.yul\":19005:19072   */\n      tag_428\n      jump\t// in\n    tag_645:\n        /* \"#utility.yul\":18998:19072   */\n      swap2\n      pop\n        /* \"#utility.yul\":19081:19174   */\n      tag_646\n        /* \"#utility.yul\":19170:19173   */\n      dup3\n        /* \"#utility.yul\":19081:19174   */\n      tag_450\n      jump\t// in\n    tag_646:\n        /* \"#utility.yul\":19199:19201   */\n      0x40\n        /* \"#utility.yul\":19194:19197   */\n      dup3\n        /* \"#utility.yul\":19190:19202   */\n      add\n        /* \"#utility.yul\":19183:19202   */\n      swap1\n      pop\n        /* \"#utility.yul\":18842:19208   */\n      swap2\n      swap1\n      pop\n      jump\t// out\n        /* \"#utility.yul\":19214:19633   */\n    tag_378:\n        /* \"#utility.yul\":19380:19384   */\n      0x00\n        /* \"#utility.yul\":19418:19420   */\n      0x20\n        /* \"#utility.yul\":19407:19416   */\n      dup3\n        /* \"#utility.yul\":19403:19421   */\n      add\n        /* \"#utility.yul\":19395:19421   */\n      swap1\n      pop\n        /* \"#utility.yul\":19467:19476   */\n      dup2\n        /* \"#utility.yul\":19461:19465   */\n      dup2\n        /* \"#utility.yul\":19457:19477   */\n      sub\n        /* \"#utility.yul\":19453:19454   */\n      0x00\n        /* \"#utility.yul\":19442:19451   */\n      dup4\n        /* \"#utility.yul\":19438:19455   */\n      add\n        /* \"#utility.yul\":19431:19478   */\n      mstore\n        /* \"#utility.yul\":19495:19626   */\n      tag_648\n        /* \"#utility.yul\":19621:19625   */\n      dup2\n        /* \"#utility.yul\":19495:19626   */\n      tag_451\n      jump\t// in\n    tag_648:\n        /* \"#utility.yul\":19487:19626   */\n      swap1\n      pop\n        /* \"#utility.yul\":19214:19633   */\n      swap2\n      swap1\n      pop\n      jump\t// out\n        /* \"#utility.yul\":19639:19864   */\n    tag_452:\n        /* \"#utility.yul\":19779:19813   */\n      0x416464726573733a20696e73756666696369656e742062616c616e636520666f\n        /* \"#utility.yul\":19775:19776   */\n      0x00\n        /* \"#utility.yul\":19767:19773   */\n      dup3\n        /* \"#utility.yul\":19763:19777   */\n      add\n        /* \"#utility.yul\":19756:19814   */\n      mstore\n        /* \"#utility.yul\":19848:19856   */\n      0x722063616c6c0000000000000000000000000000000000000000000000000000\n        /* \"#utility.yul\":19843:19845   */\n      0x20\n        /* \"#utility.yul\":19835:19841   */\n      dup3\n        /* \"#utility.yul\":19831:19846   */\n      add\n        /* \"#utility.yul\":19824:19857   */\n      mstore\n        /* \"#utility.yul\":19639:19864   */\n      pop\n      jump\t// out\n        /* \"#utility.yul\":19870:20236   */\n    tag_453:\n        /* \"#utility.yul\":20012:20015   */\n      0x00\n        /* \"#utility.yul\":20033:20100   */\n      tag_651\n        /* \"#utility.yul\":20097:20099   */\n      0x26\n        /* \"#utility.yul\":20092:20095   */\n      dup4\n        /* \"#utility.yul\":20033:20100   */\n      tag_428\n      jump\t// in\n    tag_651:\n        /* \"#utility.yul\":20026:20100   */\n      swap2\n      pop\n        /* \"#utility.yul\":20109:20202   */\n      tag_652\n        /* \"#utility.yul\":20198:20201   */\n      dup3\n        /* \"#utility.yul\":20109:20202   */\n      tag_452\n      jump\t// in\n    tag_652:\n        /* \"#utility.yul\":20227:20229   */\n      0x40\n        /* \"#utility.yul\":20222:20225   */\n      dup3\n        /* \"#utility.yul\":20218:20230   */\n      add\n        /* \"#utility.yul\":20211:20230   */\n      swap1\n      pop\n        /* \"#utility.yul\":19870:20236   */\n      swap2\n      swap1\n      pop\n      jump\t// out\n        /* \"#utility.yul\":20242:20661   */\n    tag_385:\n        /* \"#utility.yul\":20408:20412   */\n      0x00\n        /* \"#utility.yul\":20446:20448   */\n      0x20\n        /* \"#utility.yul\":20435:20444   */\n      dup3\n        /* \"#utility.yul\":20431:20449   */\n      add\n        /* \"#utility.yul\":20423:20449   */\n      swap1\n      pop\n        /* \"#utility.yul\":20495:20504   */\n      dup2\n        /* \"#utility.yul\":20489:20493   */\n      dup2\n        /* \"#utility.yul\":20485:20505   */\n      sub\n        /* \"#utility.yul\":20481:20482   */\n      0x00\n        /* \"#utility.yul\":20470:20479   */\n      dup4\n        /* \"#utility.yul\":20466:20483   */\n      add\n        /* \"#utility.yul\":20459:20506   */\n      mstore\n        /* \"#utility.yul\":20523:20654   */\n      tag_654\n        /* \"#utility.yul\":20649:20653   */\n      dup2\n        /* \"#utility.yul\":20523:20654   */\n      tag_453\n      jump\t// in\n    tag_654:\n        /* \"#utility.yul\":20515:20654   */\n      swap1\n      pop\n        /* \"#utility.yul\":20242:20661   */\n      swap2\n      swap1\n      pop\n      jump\t// out\n        /* \"#utility.yul\":20667:20846   */\n    tag_454:\n        /* \"#utility.yul\":20807:20838   */\n      0x416464726573733a2063616c6c20746f206e6f6e2d636f6e7472616374000000\n        /* \"#utility.yul\":20803:20804   */\n      0x00\n        /* \"#utility.yul\":20795:20801   */\n      dup3\n        /* \"#utility.yul\":20791:20805   */\n      add\n        /* \"#utility.yul\":20784:20839   */\n      mstore\n        /* \"#utility.yul\":20667:20846   */\n      pop\n      jump\t// out\n        /* \"#utility.yul\":20852:21218   */\n    tag_455:\n        /* \"#utility.yul\":20994:20997   */\n      0x00\n        /* \"#utility.yul\":21015:21082   */\n      tag_657\n        /* \"#utility.yul\":21079:21081   */\n      0x1d\n        /* \"#utility.yul\":21074:21077   */\n      dup4\n        /* \"#utility.yul\":21015:21082   */\n      tag_428\n      jump\t// in\n    tag_657:\n        /* \"#utility.yul\":21008:21082   */\n      swap2\n      pop\n        /* \"#utility.yul\":21091:21184   */\n      tag_658\n        /* \"#utility.yul\":21180:21183   */\n      dup3\n        /* \"#utility.yul\":21091:21184   */\n      tag_454\n      jump\t// in\n    tag_658:\n        /* \"#utility.yul\":21209:21211   */\n      0x20\n        /* \"#utility.yul\":21204:21207   */\n      dup3\n        /* \"#utility.yul\":21200:21212   */\n      add\n        /* \"#utility.yul\":21193:21212   */\n      swap1\n      pop\n        /* \"#utility.yul\":20852:21218   */\n      swap2\n      swap1\n      pop\n      jump\t// out\n        /* \"#utility.yul\":21224:21643   */\n    tag_390:\n        /* \"#utility.yul\":21390:21394   */\n      0x00\n        /* \"#utility.yul\":21428:21430   */\n      0x20\n        /* \"#utility.yul\":21417:21426   */\n      dup3\n        /* \"#utility.yul\":21413:21431   */\n      add\n        /* \"#utility.yul\":21405:21431   */\n      swap1\n      pop\n        /* \"#utility.yul\":21477:21486   */\n      dup2\n        /* \"#utility.yul\":21471:21475   */\n      dup2\n        /* \"#utility.yul\":21467:21487   */\n      sub\n        /* \"#utility.yul\":21463:21464   */\n      0x00\n        /* \"#utility.yul\":21452:21461   */\n      dup4\n        /* \"#utility.yul\":21448:21465   */\n      add\n        /* \"#utility.yul\":21441:21488   */\n      mstore\n        /* \"#utility.yul\":21505:21636   */\n      tag_660\n        /* \"#utility.yul\":21631:21635   */\n      dup2\n        /* \"#utility.yul\":21505:21636   */\n      tag_455\n      jump\t// in\n    tag_660:\n        /* \"#utility.yul\":21497:21636   */\n      swap1\n      pop\n        /* \"#utility.yul\":21224:21643   */\n      swap2\n      swap1\n      pop\n      jump\t// out\n        /* \"#utility.yul\":21649:21747   */\n    tag_456:\n        /* \"#utility.yul\":21700:21706   */\n      0x00\n        /* \"#utility.yul\":21734:21739   */\n      dup2\n        /* \"#utility.yul\":21728:21740   */\n      mload\n        /* \"#utility.yul\":21718:21740   */\n      swap1\n      pop\n        /* \"#utility.yul\":21649:21747   */\n      swap2\n      swap1\n      pop\n      jump\t// out\n        /* \"#utility.yul\":21753:21900   */\n    tag_457:\n        /* \"#utility.yul\":21854:21865   */\n      0x00\n        /* \"#utility.yul\":21891:21894   */\n      dup2\n        /* \"#utility.yul\":21876:21894   */\n      swap1\n      pop\n        /* \"#utility.yul\":21753:21900   */\n      swap3\n      swap2\n      pop\n      pop\n      jump\t// out\n        /* \"#utility.yul\":21906:22213   */\n    tag_458:\n        /* \"#utility.yul\":21974:21975   */\n      0x00\n        /* \"#utility.yul\":21984:22097   */\n    tag_664:\n        /* \"#utility.yul\":21998:22004   */\n      dup4\n        /* \"#utility.yul\":21995:21996   */\n      dup2\n        /* \"#utility.yul\":21992:22005   */\n      lt\n        /* \"#utility.yul\":21984:22097   */\n      iszero\n      tag_666\n      jumpi\n        /* \"#utility.yul\":22083:22084   */\n      dup1\n        /* \"#utility.yul\":22078:22081   */\n      dup3\n        /* \"#utility.yul\":22074:22085   */\n      add\n        /* \"#utility.yul\":22068:22086   */\n      mload\n        /* \"#utility.yul\":22064:22065   */\n      dup2\n        /* \"#utility.yul\":22059:22062   */\n      dup5\n        /* \"#utility.yul\":22055:22066   */\n      add\n        /* \"#utility.yul\":22048:22087   */\n      mstore\n        /* \"#utility.yul\":22020:22022   */\n      0x20\n        /* \"#utility.yul\":22017:22018   */\n      dup2\n        /* \"#utility.yul\":22013:22023   */\n      add\n        /* \"#utility.yul\":22008:22023   */\n      swap1\n      pop\n        /* \"#utility.yul\":21984:22097   */\n      jump(tag_664)\n    tag_666:\n        /* \"#utility.yul\":22115:22121   */\n      dup4\n        /* \"#utility.yul\":22112:22113   */\n      dup2\n        /* \"#utility.yul\":22109:22122   */\n      gt\n        /* \"#utility.yul\":22106:22207   */\n      iszero\n      tag_667\n      jumpi\n        /* \"#utility.yul\":22195:22196   */\n      0x00\n        /* \"#utility.yul\":22186:22192   */\n      dup5\n        /* \"#utility.yul\":22181:22184   */\n      dup5\n        /* \"#utility.yul\":22177:22193   */\n      add\n        /* \"#utility.yul\":22170:22197   */\n      mstore\n        /* \"#utility.yul\":22106:22207   */\n    tag_667:\n        /* \"#utility.yul\":21955:22213   */\n      pop\n        /* \"#utility.yul\":21906:22213   */\n      pop\n      pop\n      pop\n      jump\t// out\n        /* \"#utility.yul\":22219:22592   */\n    tag_459:\n        /* \"#utility.yul\":22323:22326   */\n      0x00\n        /* \"#utility.yul\":22351:22389   */\n      tag_669\n        /* \"#utility.yul\":22383:22388   */\n      dup3\n        /* \"#utility.yul\":22351:22389   */\n      tag_456\n      jump\t// in\n    tag_669:\n        /* \"#utility.yul\":22405:22493   */\n      tag_670\n        /* \"#utility.yul\":22486:22492   */\n      dup2\n        /* \"#utility.yul\":22481:22484   */\n      dup6\n        /* \"#utility.yul\":22405:22493   */\n      tag_457\n      jump\t// in\n    tag_670:\n        /* \"#utility.yul\":22398:22493   */\n      swap4\n      pop\n        /* \"#utility.yul\":22502:22554   */\n      tag_671\n        /* \"#utility.yul\":22547:22553   */\n      dup2\n        /* \"#utility.yul\":22542:22545   */\n      dup6\n        /* \"#utility.yul\":22535:22539   */\n      0x20\n        /* \"#utility.yul\":22528:22533   */\n      dup7\n        /* \"#utility.yul\":22524:22540   */\n      add\n        /* \"#utility.yul\":22502:22554   */\n      tag_458\n      jump\t// in\n    tag_671:\n        /* \"#utility.yul\":22579:22585   */\n      dup1\n        /* \"#utility.yul\":22574:22577   */\n      dup5\n        /* \"#utility.yul\":22570:22586   */\n      add\n        /* \"#utility.yul\":22563:22586   */\n      swap2\n      pop\n        /* \"#utility.yul\":22327:22592   */\n      pop\n        /* \"#utility.yul\":22219:22592   */\n      swap3\n      swap2\n      pop\n      pop\n      jump\t// out\n        /* \"#utility.yul\":22598:22869   */\n    tag_392:\n        /* \"#utility.yul\":22728:22731   */\n      0x00\n        /* \"#utility.yul\":22750:22843   */\n      tag_673\n        /* \"#utility.yul\":22839:22842   */\n      dup3\n        /* \"#utility.yul\":22830:22836   */\n      dup5\n        /* \"#utility.yul\":22750:22843   */\n      tag_459\n      jump\t// in\n    tag_673:\n        /* \"#utility.yul\":22743:22843   */\n      swap2\n      pop\n        /* \"#utility.yul\":22860:22863   */\n      dup2\n        /* \"#utility.yul\":22853:22863   */\n      swap1\n      pop\n        /* \"#utility.yul\":22598:22869   */\n      swap3\n      swap2\n      pop\n      pop\n      jump\t// out\n        /* \"#utility.yul\":22875:22974   */\n    tag_460:\n        /* \"#utility.yul\":22927:22933   */\n      0x00\n        /* \"#utility.yul\":22961:22966   */\n      dup2\n        /* \"#utility.yul\":22955:22967   */\n      mload\n        /* \"#utility.yul\":22945:22967   */\n      swap1\n      pop\n        /* \"#utility.yul\":22875:22974   */\n      swap2\n      swap1\n      pop\n      jump\t// out\n        /* \"#utility.yul\":22980:23082   */\n    tag_461:\n        /* \"#utility.yul\":23021:23027   */\n      0x00\n        /* \"#utility.yul\":23072:23074   */\n      0x1f\n        /* \"#utility.yul\":23068:23075   */\n      not\n        /* \"#utility.yul\":23063:23065   */\n      0x1f\n        /* \"#utility.yul\":23056:23061   */\n      dup4\n        /* \"#utility.yul\":23052:23066   */\n      add\n        /* \"#utility.yul\":23048:23076   */\n      and\n        /* \"#utility.yul\":23038:23076   */\n      swap1\n      pop\n        /* \"#utility.yul\":22980:23082   */\n      swap2\n      swap1\n      pop\n      jump\t// out\n        /* \"#utility.yul\":23088:23452   */\n    tag_462:\n        /* \"#utility.yul\":23176:23179   */\n      0x00\n        /* \"#utility.yul\":23204:23243   */\n      tag_677\n        /* \"#utility.yul\":23237:23242   */\n      dup3\n        /* \"#utility.yul\":23204:23243   */\n      tag_460\n      jump\t// in\n    tag_677:\n        /* \"#utility.yul\":23259:23330   */\n      tag_678\n        /* \"#utility.yul\":23323:23329   */\n      dup2\n        /* \"#utility.yul\":23318:23321   */\n      dup6\n        /* \"#utility.yul\":23259:23330   */\n      tag_428\n      jump\t// in\n    tag_678:\n        /* \"#utility.yul\":23252:23330   */\n      swap4\n      pop\n        /* \"#utility.yul\":23339:23391   */\n      tag_679\n        /* \"#utility.yul\":23384:23390   */\n      dup2\n        /* \"#utility.yul\":23379:23382   */\n      dup6\n        /* \"#utility.yul\":23372:23376   */\n      0x20\n        /* \"#utility.yul\":23365:23370   */\n      dup7\n        /* \"#utility.yul\":23361:23377   */\n      add\n        /* \"#utility.yul\":23339:23391   */\n      tag_458\n      jump\t// in\n    tag_679:\n        /* \"#utility.yul\":23416:23445   */\n      tag_680\n        /* \"#utility.yul\":23438:23444   */\n      dup2\n        /* \"#utility.yul\":23416:23445   */\n      tag_461\n      jump\t// in\n    tag_680:\n        /* \"#utility.yul\":23411:23414   */\n      dup5\n        /* \"#utility.yul\":23407:23446   */\n      add\n        /* \"#utility.yul\":23400:23446   */\n      swap2\n      pop\n        /* \"#utility.yul\":23180:23452   */\n      pop\n        /* \"#utility.yul\":23088:23452   */\n      swap3\n      swap2\n      pop\n      pop\n      jump\t// out\n        /* \"#utility.yul\":23458:23771   */\n    tag_405:\n        /* \"#utility.yul\":23571:23575   */\n      0x00\n        /* \"#utility.yul\":23609:23611   */\n      0x20\n        /* \"#utility.yul\":23598:23607   */\n      dup3\n        /* \"#utility.yul\":23594:23612   */\n      add\n        /* \"#utility.yul\":23586:23612   */\n      swap1\n      pop\n        /* \"#utility.yul\":23658:23667   */\n      dup2\n        /* \"#utility.yul\":23652:23656   */\n      dup2\n        /* \"#utility.yul\":23648:23668   */\n      sub\n        /* \"#utility.yul\":23644:23645   */\n      0x00\n        /* \"#utility.yul\":23633:23642   */\n      dup4\n        /* \"#utility.yul\":23629:23646   */\n      add\n        /* \"#utility.yul\":23622:23669   */\n      mstore\n        /* \"#utility.yul\":23686:23764   */\n      tag_682\n        /* \"#utility.yul\":23759:23763   */\n      dup2\n        /* \"#utility.yul\":23750:23756   */\n      dup5\n        /* \"#utility.yul\":23686:23764   */\n      tag_462\n      jump\t// in\n    tag_682:\n        /* \"#utility.yul\":23678:23764   */\n      swap1\n      pop\n        /* \"#utility.yul\":23458:23771   */\n      swap3\n      swap2\n      pop\n      pop\n      jump\t// out\n\n    auxdata: 0xa26469706673582212208dd76d913f4e58a80de65fc33aa7d5512add5e59a8aa308b2c12fb6f32ad465464736f6c634300080c0033\n}\n",
				"bytecode": {
					"linkReferences": {},
					"object": "60a06040527382af49447d8a07e3bd95bd0d56f35241523fbab1600260006101000a81548173ffffffffffffffffffffffffffffffffffffffff021916908373ffffffffffffffffffffffffffffffffffffffff160217905550600060055560006008556000600960006101000a81548160ff0219169083151502179055503480156200008b57600080fd5b5060405162002dff38038062002dff8339818101604052810190620000b19190620001fb565b620000d1620000c5620000ef60201b60201c565b620000f760201b60201c565b60018081905550816004819055508060808181525050505062000242565b600033905090565b60008060009054906101000a900473ffffffffffffffffffffffffffffffffffffffff169050816000806101000a81548173ffffffffffffffffffffffffffffffffffffffff021916908373ffffffffffffffffffffffffffffffffffffffff1602179055508173ffffffffffffffffffffffffffffffffffffffff168173ffffffffffffffffffffffffffffffffffffffff167f8be0079c531659141344cd1fd0a4f28419497f9722a3daafe3b4186f6b6457e060405160405180910390a35050565b600080fd5b6000819050919050565b620001d581620001c0565b8114620001e157600080fd5b50565b600081519050620001f581620001ca565b92915050565b60008060408385031215620002155762000214620001bb565b5b60006200022585828601620001e4565b92505060206200023885828601620001e4565b9150509250929050565b608051612b7e62000281600039600081816107c5015281816107ec015281816110020152818161109b015281816110c201526110ec0152612b7e6000f3fe608060405234801561001057600080fd5b50600436106101c45760003560e01c806378e97925116100f95780639bd16d7b11610097578063d49e77cd11610071578063d49e77cd14610487578063e2bbb158146104a5578063f2fde38b146104c1578063f4b83c4c146104dd576101c4565b80639bd16d7b1461041b578063ad5c46481461044b578063b9ac968614610469576101c4565b80638da5cb5b116100d35780638da5cb5b1461037e5780638dbb1e3a1461039c5780639112f2b2146103cc57806393f1a40b146103ea576101c4565b806378e979251461034c5780637b020dad1461036a578063845105e214610374576101c4565b8063412490611161016657806351eb05a61161014057806351eb05a6146103005780635312ea8e1461031c578063630b5ba114610338578063715018a614610342576101c4565b806341249061146102a8578063441a3e70146102c657806350188301146102e2576101c4565b806317caf6f1116101a257806317caf6f1146102365780631ab06ee5146102545780632377b2a8146102705780632b8bbbe81461028c576101c4565b80630332e936146101c9578063081e3eda146101e55780631526fe2714610203575b600080fd5b6101e360048036038101906101de9190611ee5565b6104fb565b005b6101ed610560565b6040516101fa9190611f21565b60405180910390f35b61021d60048036038101906102189190611ee5565b61056d565b60405161022d9493929190611fbb565b60405180910390f35b61023e6105cd565b60405161024b9190611f21565b60405180910390f35b61026e60048036038101906102699190612000565b6105d3565b005b61028a60048036038101906102859190611ee5565b61069a565b005b6102a660048036038101906102a19190612090565b610763565b005b6102b06108fe565b6040516102bd9190611f21565b60405180910390f35b6102e060048036038101906102db9190612000565b610904565b005b6102ea610bd0565b6040516102f791906120eb565b60405180910390f35b61031a60048036038101906103159190611ee5565b610be3565b005b61033660048036038101906103319190611ee5565b610d83565b005b610340610fb9565b005b61034a610fec565b005b610354611000565b6040516103619190611f21565b60405180910390f35b610372611024565b005b61037c611049565b005b61038661106e565b6040516103939190612115565b60405180910390f35b6103b660048036038101906103b19190612000565b611097565b6040516103c39190611f21565b60405180910390f35b6103d4611130565b6040516103e19190611f21565b60405180910390f35b61040460048036038101906103ff919061215c565b61113c565b60405161041292919061219c565b60405180910390f35b6104356004803603810190610430919061215c565b61116d565b6040516104429190611f21565b60405180910390f35b610453611392565b60405161046091906121c5565b60405180910390f35b6104716113b8565b60405161047e9190611f21565b60405180910390f35b61048f6113be565b60405161049c9190612115565b60405180910390f35b6104bf60048036038101906104ba9190612000565b6113e4565b005b6104db60048036038101906104d691906121e0565b61161c565b005b6104e56116a0565b6040516104f29190611f21565b60405180910390f35b6105036116a6565b670de0b6b3a764000081111561054e576040517f08c379a000000000000000000000000000000000000000000000000000000000815260040161054590612290565b60405180910390fd5b610556610fb9565b8060048190555050565b6000600680549050905090565b6006818154811061057d57600080fd5b90600052602060002090600402016000915090508060000160009054906101000a900473ffffffffffffffffffffffffffffffffffffffff16908060010154908060020154908060030154905084565b60085481565b6105db6116a6565b610fa0811115610620576040517f08c379a0000000000000000000000000000000000000000000000000000000008152600401610617906122fc565b60405180910390fd5b610628610fb9565b806006838154811061063d5761063c61231c565b5b90600052602060002090600402016001015460085461065c919061237a565b61066691906123ae565b60088190555080600683815481106106815761068061231c565b5b9060005260206000209060040201600101819055505050565b6106a26116a6565b6106b78160055461172490919063ffffffff16565b600581905550600260009054906101000a900473ffffffffffffffffffffffffffffffffffffffff1673ffffffffffffffffffffffffffffffffffffffff166323b872dd3330846040518463ffffffff1660e01b815260040161071c93929190612404565b6020604051808303816000875af115801561073b573d6000803e3d6000fd5b505050506040513d601f19601f8201168201806040525081019061075f9190612467565b5050565b61076b6116a6565b610fa08211156107b0576040517f08c379a00000000000000000000000000000000000000000000000000000000081526004016107a7906122fc565b60405180910390fd5b6107b98161173a565b6107c1610fb9565b60007f00000000000000000000000000000000000000000000000000000000000000004211610810577f0000000000000000000000000000000000000000000000000000000000000000610812565b425b90506108298360085461172490919063ffffffff16565b600881905550600660405180608001604052808473ffffffffffffffffffffffffffffffffffffffff1681526020018581526020018381526020016000815250908060018154018082558091505060019003906000526020600020906004020160009091909190915060008201518160000160006101000a81548173ffffffffffffffffffffffffffffffffffffffff021916908373ffffffffffffffffffffffffffffffffffffffff1602179055506020820151816001015560408201518160020155606082015181600301555050505050565b60045481565b6002600154141561094a576040517f08c379a0000000000000000000000000000000000000000000000000000000008152600401610941906124e0565b60405180910390fd5b60026001819055506000600683815481106109685761096761231c565b5b9060005260206000209060040201905060006007600085815260200190815260200160002060003373ffffffffffffffffffffffffffffffffffffffff1673ffffffffffffffffffffffffffffffffffffffff16815260200190815260200160002090508281600001541015610a13576040517f08c379a0000000000000000000000000000000000000000000000000000000008152600401610a0a9061254c565b60405180910390fd5b600960009054906101000a900460ff16610a62576040517f08c379a0000000000000000000000000000000000000000000000000000000008152600401610a59906125b8565b60405180910390fd5b610a6b84610be3565b6000610ab58260010154610aa764e8d4a51000610a998760030154876000015461181b90919063ffffffff16565b61183190919063ffffffff16565b61184790919063ffffffff16565b9050610ace84836000015461184790919063ffffffff16565b8260000181905550610b0864e8d4a51000610afa8560030154856000015461181b90919063ffffffff16565b61183190919063ffffffff16565b82600101819055506000811115610b2457610b23338261185d565b5b610b7333858560000160009054906101000a900473ffffffffffffffffffffffffffffffffffffffff1673ffffffffffffffffffffffffffffffffffffffff16611a529092919063ffffffff16565b843373ffffffffffffffffffffffffffffffffffffffff167ff279e6a1f5e320cca91135676d9cb6e44ca8a08c0b88342bcdb1144f6511b56886604051610bba9190611f21565b60405180910390a3505050600180819055505050565b600960009054906101000a900460ff1681565b600060068281548110610bf957610bf861231c565b5b9060005260206000209060040201905080600201544211610c1a5750610d80565b60008160000160009054906101000a900473ffffffffffffffffffffffffffffffffffffffff1673ffffffffffffffffffffffffffffffffffffffff166370a08231306040518263ffffffff1660e01b8152600401610c799190612115565b602060405180830381865afa158015610c96573d6000803e3d6000fd5b505050506040513d601f19601f82011682018060405250810190610cba91906125ed565b90506000811415610cd5574282600201819055505050610d80565b6000610ce5836002015442611097565b90506000610d28600854610d1a8660010154610d0c6004548761181b90919063ffffffff16565b61181b90919063ffffffff16565b61183190919063ffffffff16565b9050610d6a610d5784610d4964e8d4a510008561181b90919063ffffffff16565b61183190919063ffffffff16565b856003015461172490919063ffffffff16565b8460030181905550428460020181905550505050505b50565b60026001541415610dc9576040517f08c379a0000000000000000000000000000000000000000000000000000000008152600401610dc0906124e0565b60405180910390fd5b6002600181905550600060068281548110610de757610de661231c565b5b9060005260206000209060040201905060006007600084815260200190815260200160002060003373ffffffffffffffffffffffffffffffffffffffff1673ffffffffffffffffffffffffffffffffffffffff16815260200190815260200160002090506000816000015490506000826000018190555060008260010181905550610edf33610e956103e8610e876102bc8661181b90919063ffffffff16565b61183190919063ffffffff16565b8560000160009054906101000a900473ffffffffffffffffffffffffffffffffffffffff1673ffffffffffffffffffffffffffffffffffffffff16611a529092919063ffffffff16565b610f5d610eea61106e565b610f136103e8610f0561012c8661181b90919063ffffffff16565b61183190919063ffffffff16565b8560000160009054906101000a900473ffffffffffffffffffffffffffffffffffffffff1673ffffffffffffffffffffffffffffffffffffffff16611a529092919063ffffffff16565b833373ffffffffffffffffffffffffffffffffffffffff167fbb757047c2b5f3974fe26b7c10f732e7bce710b0952a71082702781e62ae059583604051610fa49190611f21565b60405180910390a35050506001808190555050565b6000600680549050905060005b81811015610fe857610fd781610be3565b80610fe19061261a565b9050610fc6565b5050565b610ff46116a6565b610ffe6000611ad8565b565b7f000000000000000000000000000000000000000000000000000000000000000081565b61102c6116a6565b6000600960006101000a81548160ff021916908315150217905550565b6110516116a6565b6001600960006101000a81548160ff021916908315150217905550565b60008060009054906101000a900473ffffffffffffffffffffffffffffffffffffffff16905090565b60007f000000000000000000000000000000000000000000000000000000000000000083116110e6577f00000000000000000000000000000000000000000000000000000000000000006110e8565b825b92507f000000000000000000000000000000000000000000000000000000000000000082101561111b576000905061112a565b8282611127919061237a565b90505b92915050565b670de0b6b3a764000081565b6007602052816000526040600020602052806000526040600020600091509150508060000154908060010154905082565b600080600684815481106111845761118361231c565b5b9060005260206000209060040201905060006007600086815260200190815260200160002060008573ffffffffffffffffffffffffffffffffffffffff1673ffffffffffffffffffffffffffffffffffffffff168152602001908152602001600020905060008260030154905060008360000160009054906101000a900473ffffffffffffffffffffffffffffffffffffffff1673ffffffffffffffffffffffffffffffffffffffff166370a08231306040518263ffffffff1660e01b81526004016112509190612115565b602060405180830381865afa15801561126d573d6000803e3d6000fd5b505050506040513d601f19601f8201168201806040525081019061129191906125ed565b90508360020154421180156112a7575060008114155b156113425760006112bc856002015442611097565b905060006112ff6008546112f188600101546112e36004548761181b90919063ffffffff16565b61181b90919063ffffffff16565b61183190919063ffffffff16565b905061133d61132e8461132064e8d4a510008561181b90919063ffffffff16565b61183190919063ffffffff16565b8561172490919063ffffffff16565b935050505b611386836001015461137864e8d4a5100061136a86886000015461181b90919063ffffffff16565b61183190919063ffffffff16565b61184790919063ffffffff16565b94505050505092915050565b600260009054906101000a900473ffffffffffffffffffffffffffffffffffffffff1681565b60055481565b600360009054906101000a900473ffffffffffffffffffffffffffffffffffffffff1681565b6002600154141561142a576040517f08c379a0000000000000000000000000000000000000000000000000000000008152600401611421906124e0565b60405180910390fd5b60026001819055506000600683815481106114485761144761231c565b5b9060005260206000209060040201905060006007600085815260200190815260200160002060003373ffffffffffffffffffffffffffffffffffffffff1673ffffffffffffffffffffffffffffffffffffffff16815260200190815260200160002090506114b584610be3565b60006114ff82600101546114f164e8d4a510006114e38760030154876000015461181b90919063ffffffff16565b61183190919063ffffffff16565b61184790919063ffffffff16565b905061151884836000015461172490919063ffffffff16565b826000018190555061155264e8d4a510006115448560030154856000015461181b90919063ffffffff16565b61183190919063ffffffff16565b8260010181905550600081111561156e5761156d338261185d565b5b6115bf3330868660000160009054906101000a900473ffffffffffffffffffffffffffffffffffffffff1673ffffffffffffffffffffffffffffffffffffffff16611b9c909392919063ffffffff16565b843373ffffffffffffffffffffffffffffffffffffffff167f90890809c654f11d6e72a28fa60149770a0d11ec6c92319d6ceb2bb0a4ea1a15866040516116069190611f21565b60405180910390a3505050600180819055505050565b6116246116a6565b600073ffffffffffffffffffffffffffffffffffffffff168173ffffffffffffffffffffffffffffffffffffffff161415611694576040517f08c379a000000000000000000000000000000000000000000000000000000000815260040161168b906126d5565b60405180910390fd5b61169d81611ad8565b50565b610fa081565b6116ae611c25565b73ffffffffffffffffffffffffffffffffffffffff166116cc61106e565b73ffffffffffffffffffffffffffffffffffffffff1614611722576040517f08c379a000000000000000000000000000000000000000000000000000000000815260040161171990612741565b60405180910390fd5b565b6000818361173291906123ae565b905092915050565b6000600680549050905060005b81811015611816578273ffffffffffffffffffffffffffffffffffffffff166006828154811061177a5761177961231c565b5b906000526020600020906004020160000160009054906101000a900473ffffffffffffffffffffffffffffffffffffffff1673ffffffffffffffffffffffffffffffffffffffff161415611803576040517f08c379a00000000000000000000000000000000000000000000000000000000081526004016117fa906127ad565b60405180910390fd5b808061180e9061261a565b915050611747565b505050565b6000818361182991906127cd565b905092915050565b6000818361183f9190612856565b905092915050565b60008183611855919061237a565b905092915050565b6000600260009054906101000a900473ffffffffffffffffffffffffffffffffffffffff1673ffffffffffffffffffffffffffffffffffffffff166370a08231306040518263ffffffff1660e01b81526004016118ba9190612115565b602060405180830381865afa1580156118d7573d6000803e3d6000fd5b505050506040513d601f19601f820116820180604052508101906118fb91906125ed565b9050808211156119ab57600260009054906101000a900473ffffffffffffffffffffffffffffffffffffffff1673ffffffffffffffffffffffffffffffffffffffff1663a9059cbb84836040518363ffffffff1660e01b8152600401611962929190612887565b6020604051808303816000875af1158015611981573d6000803e3d6000fd5b505050506040513d601f19601f820116820180604052508101906119a59190612467565b50611a4d565b600260009054906101000a900473ffffffffffffffffffffffffffffffffffffffff1673ffffffffffffffffffffffffffffffffffffffff1663a9059cbb84846040518363ffffffff1660e01b8152600401611a08929190612887565b6020604051808303816000875af1158015611a27573d6000803e3d6000fd5b505050506040513d601f19601f82011682018060405250810190611a4b9190612467565b505b505050565b611ad38363a9059cbb60e01b8484604051602401611a71929190612887565b604051602081830303815290604052907bffffffffffffffffffffffffffffffffffffffffffffffffffffffff19166020820180517bffffffffffffffffffffffffffffffffffffffffffffffffffffffff8381831617835250505050611c2d565b505050565b60008060009054906101000a900473ffffffffffffffffffffffffffffffffffffffff169050816000806101000a81548173ffffffffffffffffffffffffffffffffffffffff021916908373ffffffffffffffffffffffffffffffffffffffff1602179055508173ffffffffffffffffffffffffffffffffffffffff168173ffffffffffffffffffffffffffffffffffffffff167f8be0079c531659141344cd1fd0a4f28419497f9722a3daafe3b4186f6b6457e060405160405180910390a35050565b611c1f846323b872dd60e01b858585604051602401611bbd93929190612404565b604051602081830303815290604052907bffffffffffffffffffffffffffffffffffffffffffffffffffffffff19166020820180517bffffffffffffffffffffffffffffffffffffffffffffffffffffffff8381831617835250505050611c2d565b50505050565b600033905090565b6000611c8f826040518060400160405280602081526020017f5361666545524332303a206c6f772d6c6576656c2063616c6c206661696c65648152508573ffffffffffffffffffffffffffffffffffffffff16611cf49092919063ffffffff16565b9050600081511115611cef5780806020019051810190611caf9190612467565b611cee576040517f08c379a0000000000000000000000000000000000000000000000000000000008152600401611ce590612922565b60405180910390fd5b5b505050565b6060611d038484600085611d0c565b90509392505050565b606082471015611d51576040517f08c379a0000000000000000000000000000000000000000000000000000000008152600401611d48906129b4565b60405180910390fd5b611d5a85611e20565b611d99576040517f08c379a0000000000000000000000000000000000000000000000000000000008152600401611d9090612a20565b60405180910390fd5b6000808673ffffffffffffffffffffffffffffffffffffffff168587604051611dc29190612aba565b60006040518083038185875af1925050503d8060008114611dff576040519150601f19603f3d011682016040523d82523d6000602084013e611e04565b606091505b5091509150611e14828286611e43565b92505050949350505050565b6000808273ffffffffffffffffffffffffffffffffffffffff163b119050919050565b60608315611e5357829050611ea3565b600083511115611e665782518084602001fd5b816040517f08c379a0000000000000000000000000000000000000000000000000000000008152600401611e9a9190612b26565b60405180910390fd5b9392505050565b600080fd5b6000819050919050565b611ec281611eaf565b8114611ecd57600080fd5b50565b600081359050611edf81611eb9565b92915050565b600060208284031215611efb57611efa611eaa565b5b6000611f0984828501611ed0565b91505092915050565b611f1b81611eaf565b82525050565b6000602082019050611f366000830184611f12565b92915050565b600073ffffffffffffffffffffffffffffffffffffffff82169050919050565b6000819050919050565b6000611f81611f7c611f7784611f3c565b611f5c565b611f3c565b9050919050565b6000611f9382611f66565b9050919050565b6000611fa582611f88565b9050919050565b611fb581611f9a565b82525050565b6000608082019050611fd06000830187611fac565b611fdd6020830186611f12565b611fea6040830185611f12565b611ff76060830184611f12565b95945050505050565b6000806040838503121561201757612016611eaa565b5b600061202585828601611ed0565b925050602061203685828601611ed0565b9150509250929050565b600061204b82611f3c565b9050919050565b600061205d82612040565b9050919050565b61206d81612052565b811461207857600080fd5b50565b60008135905061208a81612064565b92915050565b600080604083850312156120a7576120a6611eaa565b5b60006120b585828601611ed0565b92505060206120c68582860161207b565b9150509250929050565b60008115159050919050565b6120e5816120d0565b82525050565b600060208201905061210060008301846120dc565b92915050565b61210f81612040565b82525050565b600060208201905061212a6000830184612106565b92915050565b61213981612040565b811461214457600080fd5b50565b60008135905061215681612130565b92915050565b6000806040838503121561217357612172611eaa565b5b600061218185828601611ed0565b925050602061219285828601612147565b9150509250929050565b60006040820190506121b16000830185611f12565b6121be6020830184611f12565b9392505050565b60006020820190506121da6000830184611fac565b92915050565b6000602082840312156121f6576121f5611eaa565b5b600061220484828501612147565b91505092915050565b600082825260208201905092915050565b7f736574574554485065725365636f6e643a20746f6f206d616e7920574554487360008201527f2100000000000000000000000000000000000000000000000000000000000000602082015250565b600061227a60218361220d565b91506122858261221e565b604082019050919050565b600060208201905081810360008301526122a98161226d565b9050919050565b7f6164643a20746f6f206d616e7920616c6c6f6320706f696e7473212100000000600082015250565b60006122e6601c8361220d565b91506122f1826122b0565b602082019050919050565b60006020820190508181036000830152612315816122d9565b9050919050565b7f4e487b7100000000000000000000000000000000000000000000000000000000600052603260045260246000fd5b7f4e487b7100000000000000000000000000000000000000000000000000000000600052601160045260246000fd5b600061238582611eaf565b915061239083611eaf565b9250828210156123a3576123a261234b565b5b828203905092915050565b60006123b982611eaf565b91506123c483611eaf565b9250827fffffffffffffffffffffffffffffffffffffffffffffffffffffffffffffffff038211156123f9576123f861234b565b5b828201905092915050565b60006060820190506124196000830186612106565b6124266020830185612106565b6124336040830184611f12565b949350505050565b612444816120d0565b811461244f57600080fd5b50565b6000815190506124618161243b565b92915050565b60006020828403121561247d5761247c611eaa565b5b600061248b84828501612452565b91505092915050565b7f5265656e7472616e637947756172643a207265656e7472616e742063616c6c00600082015250565b60006124ca601f8361220d565b91506124d582612494565b602082019050919050565b600060208201905081810360008301526124f9816124bd565b9050919050565b7f77697468647261773a206e6f7420676f6f640000000000000000000000000000600082015250565b600061253660128361220d565b915061254182612500565b602082019050919050565b6000602082019050818103600083015261256581612529565b9050919050565b7f7769746864726177206e6f74206f70656e656400000000000000000000000000600082015250565b60006125a260138361220d565b91506125ad8261256c565b602082019050919050565b600060208201905081810360008301526125d181612595565b9050919050565b6000815190506125e781611eb9565b92915050565b60006020828403121561260357612602611eaa565b5b6000612611848285016125d8565b91505092915050565b600061262582611eaf565b91507fffffffffffffffffffffffffffffffffffffffffffffffffffffffffffffffff8214156126585761265761234b565b5b600182019050919050565b7f4f776e61626c653a206e6577206f776e657220697320746865207a65726f206160008201527f6464726573730000000000000000000000000000000000000000000000000000602082015250565b60006126bf60268361220d565b91506126ca82612663565b604082019050919050565b600060208201905081810360008301526126ee816126b2565b9050919050565b7f4f776e61626c653a2063616c6c6572206973206e6f7420746865206f776e6572600082015250565b600061272b60208361220d565b9150612736826126f5565b602082019050919050565b6000602082019050818103600083015261275a8161271e565b9050919050565b7f6164643a20706f6f6c20616c7265616479206578697374732121212100000000600082015250565b6000612797601c8361220d565b91506127a282612761565b602082019050919050565b600060208201905081810360008301526127c68161278a565b9050919050565b60006127d882611eaf565b91506127e383611eaf565b9250817fffffffffffffffffffffffffffffffffffffffffffffffffffffffffffffffff048311821515161561281c5761281b61234b565b5b828202905092915050565b7f4e487b7100000000000000000000000000000000000000000000000000000000600052601260045260246000fd5b600061286182611eaf565b915061286c83611eaf565b92508261287c5761287b612827565b5b828204905092915050565b600060408201905061289c6000830185612106565b6128a96020830184611f12565b9392505050565b7f5361666545524332303a204552433230206f7065726174696f6e20646964206e60008201527f6f74207375636365656400000000000000000000000000000000000000000000602082015250565b600061290c602a8361220d565b9150612917826128b0565b604082019050919050565b6000602082019050818103600083015261293b816128ff565b9050919050565b7f416464726573733a20696e73756666696369656e742062616c616e636520666f60008201527f722063616c6c0000000000000000000000000000000000000000000000000000602082015250565b600061299e60268361220d565b91506129a982612942565b604082019050919050565b600060208201905081810360008301526129cd81612991565b9050919050565b7f416464726573733a2063616c6c20746f206e6f6e2d636f6e7472616374000000600082015250565b6000612a0a601d8361220d565b9150612a15826129d4565b602082019050919050565b60006020820190508181036000830152612a39816129fd565b9050919050565b600081519050919050565b600081905092915050565b60005b83811015612a74578082015181840152602081019050612a59565b83811115612a83576000848401525b50505050565b6000612a9482612a40565b612a9e8185612a4b565b9350612aae818560208601612a56565b80840191505092915050565b6000612ac68284612a89565b915081905092915050565b600081519050919050565b6000601f19601f8301169050919050565b6000612af882612ad1565b612b02818561220d565b9350612b12818560208601612a56565b612b1b81612adc565b840191505092915050565b60006020820190508181036000830152612b408184612aed565b90509291505056fea26469706673582212208dd76d913f4e58a80de65fc33aa7d5512add5e59a8aa308b2c12fb6f32ad465464736f6c634300080c0033",
					"opcodes": "PUSH1 0xA0 PUSH1 0x40 MSTORE PUSH20 0x82AF49447D8A07E3BD95BD0D56F35241523FBAB1 PUSH1 0x2 PUSH1 0x0 PUSH2 0x100 EXP DUP2 SLOAD DUP2 PUSH20 0xFFFFFFFFFFFFFFFFFFFFFFFFFFFFFFFFFFFFFFFF MUL NOT AND SWAP1 DUP4 PUSH20 0xFFFFFFFFFFFFFFFFFFFFFFFFFFFFFFFFFFFFFFFF AND MUL OR SWAP1 SSTORE POP PUSH1 0x0 PUSH1 0x5 SSTORE PUSH1 0x0 PUSH1 0x8 SSTORE PUSH1 0x0 PUSH1 0x9 PUSH1 0x0 PUSH2 0x100 EXP DUP2 SLOAD DUP2 PUSH1 0xFF MUL NOT AND SWAP1 DUP4 ISZERO ISZERO MUL OR SWAP1 SSTORE POP CALLVALUE DUP1 ISZERO PUSH3 0x8B JUMPI PUSH1 0x0 DUP1 REVERT JUMPDEST POP PUSH1 0x40 MLOAD PUSH3 0x2DFF CODESIZE SUB DUP1 PUSH3 0x2DFF DUP4 CODECOPY DUP2 DUP2 ADD PUSH1 0x40 MSTORE DUP2 ADD SWAP1 PUSH3 0xB1 SWAP2 SWAP1 PUSH3 0x1FB JUMP JUMPDEST PUSH3 0xD1 PUSH3 0xC5 PUSH3 0xEF PUSH1 0x20 SHL PUSH1 0x20 SHR JUMP JUMPDEST PUSH3 0xF7 PUSH1 0x20 SHL PUSH1 0x20 SHR JUMP JUMPDEST PUSH1 0x1 DUP1 DUP2 SWAP1 SSTORE POP DUP2 PUSH1 0x4 DUP2 SWAP1 SSTORE POP DUP1 PUSH1 0x80 DUP2 DUP2 MSTORE POP POP POP POP PUSH3 0x242 JUMP JUMPDEST PUSH1 0x0 CALLER SWAP1 POP SWAP1 JUMP JUMPDEST PUSH1 0x0 DUP1 PUSH1 0x0 SWAP1 SLOAD SWAP1 PUSH2 0x100 EXP SWAP1 DIV PUSH20 0xFFFFFFFFFFFFFFFFFFFFFFFFFFFFFFFFFFFFFFFF AND SWAP1 POP DUP2 PUSH1 0x0 DUP1 PUSH2 0x100 EXP DUP2 SLOAD DUP2 PUSH20 0xFFFFFFFFFFFFFFFFFFFFFFFFFFFFFFFFFFFFFFFF MUL NOT AND SWAP1 DUP4 PUSH20 0xFFFFFFFFFFFFFFFFFFFFFFFFFFFFFFFFFFFFFFFF AND MUL OR SWAP1 SSTORE POP DUP2 PUSH20 0xFFFFFFFFFFFFFFFFFFFFFFFFFFFFFFFFFFFFFFFF AND DUP2 PUSH20 0xFFFFFFFFFFFFFFFFFFFFFFFFFFFFFFFFFFFFFFFF AND PUSH32 0x8BE0079C531659141344CD1FD0A4F28419497F9722A3DAAFE3B4186F6B6457E0 PUSH1 0x40 MLOAD PUSH1 0x40 MLOAD DUP1 SWAP2 SUB SWAP1 LOG3 POP POP JUMP JUMPDEST PUSH1 0x0 DUP1 REVERT JUMPDEST PUSH1 0x0 DUP2 SWAP1 POP SWAP2 SWAP1 POP JUMP JUMPDEST PUSH3 0x1D5 DUP2 PUSH3 0x1C0 JUMP JUMPDEST DUP2 EQ PUSH3 0x1E1 JUMPI PUSH1 0x0 DUP1 REVERT JUMPDEST POP JUMP JUMPDEST PUSH1 0x0 DUP2 MLOAD SWAP1 POP PUSH3 0x1F5 DUP2 PUSH3 0x1CA JUMP JUMPDEST SWAP3 SWAP2 POP POP JUMP JUMPDEST PUSH1 0x0 DUP1 PUSH1 0x40 DUP4 DUP6 SUB SLT ISZERO PUSH3 0x215 JUMPI PUSH3 0x214 PUSH3 0x1BB JUMP JUMPDEST JUMPDEST PUSH1 0x0 PUSH3 0x225 DUP6 DUP3 DUP7 ADD PUSH3 0x1E4 JUMP JUMPDEST SWAP3 POP POP PUSH1 0x20 PUSH3 0x238 DUP6 DUP3 DUP7 ADD PUSH3 0x1E4 JUMP JUMPDEST SWAP2 POP POP SWAP3 POP SWAP3 SWAP1 POP JUMP JUMPDEST PUSH1 0x80 MLOAD PUSH2 0x2B7E PUSH3 0x281 PUSH1 0x0 CODECOPY PUSH1 0x0 DUP2 DUP2 PUSH2 0x7C5 ADD MSTORE DUP2 DUP2 PUSH2 0x7EC ADD MSTORE DUP2 DUP2 PUSH2 0x1002 ADD MSTORE DUP2 DUP2 PUSH2 0x109B ADD MSTORE DUP2 DUP2 PUSH2 0x10C2 ADD MSTORE PUSH2 0x10EC ADD MSTORE PUSH2 0x2B7E PUSH1 0x0 RETURN INVALID PUSH1 0x80 PUSH1 0x40 MSTORE CALLVALUE DUP1 ISZERO PUSH2 0x10 JUMPI PUSH1 0x0 DUP1 REVERT JUMPDEST POP PUSH1 0x4 CALLDATASIZE LT PUSH2 0x1C4 JUMPI PUSH1 0x0 CALLDATALOAD PUSH1 0xE0 SHR DUP1 PUSH4 0x78E97925 GT PUSH2 0xF9 JUMPI DUP1 PUSH4 0x9BD16D7B GT PUSH2 0x97 JUMPI DUP1 PUSH4 0xD49E77CD GT PUSH2 0x71 JUMPI DUP1 PUSH4 0xD49E77CD EQ PUSH2 0x487 JUMPI DUP1 PUSH4 0xE2BBB158 EQ PUSH2 0x4A5 JUMPI DUP1 PUSH4 0xF2FDE38B EQ PUSH2 0x4C1 JUMPI DUP1 PUSH4 0xF4B83C4C EQ PUSH2 0x4DD JUMPI PUSH2 0x1C4 JUMP JUMPDEST DUP1 PUSH4 0x9BD16D7B EQ PUSH2 0x41B JUMPI DUP1 PUSH4 0xAD5C4648 EQ PUSH2 0x44B JUMPI DUP1 PUSH4 0xB9AC9686 EQ PUSH2 0x469 JUMPI PUSH2 0x1C4 JUMP JUMPDEST DUP1 PUSH4 0x8DA5CB5B GT PUSH2 0xD3 JUMPI DUP1 PUSH4 0x8DA5CB5B EQ PUSH2 0x37E JUMPI DUP1 PUSH4 0x8DBB1E3A EQ PUSH2 0x39C JUMPI DUP1 PUSH4 0x9112F2B2 EQ PUSH2 0x3CC JUMPI DUP1 PUSH4 0x93F1A40B EQ PUSH2 0x3EA JUMPI PUSH2 0x1C4 JUMP JUMPDEST DUP1 PUSH4 0x78E97925 EQ PUSH2 0x34C JUMPI DUP1 PUSH4 0x7B020DAD EQ PUSH2 0x36A JUMPI DUP1 PUSH4 0x845105E2 EQ PUSH2 0x374 JUMPI PUSH2 0x1C4 JUMP JUMPDEST DUP1 PUSH4 0x41249061 GT PUSH2 0x166 JUMPI DUP1 PUSH4 0x51EB05A6 GT PUSH2 0x140 JUMPI DUP1 PUSH4 0x51EB05A6 EQ PUSH2 0x300 JUMPI DUP1 PUSH4 0x5312EA8E EQ PUSH2 0x31C JUMPI DUP1 PUSH4 0x630B5BA1 EQ PUSH2 0x338 JUMPI DUP1 PUSH4 0x715018A6 EQ PUSH2 0x342 JUMPI PUSH2 0x1C4 JUMP JUMPDEST DUP1 PUSH4 0x41249061 EQ PUSH2 0x2A8 JUMPI DUP1 PUSH4 0x441A3E70 EQ PUSH2 0x2C6 JUMPI DUP1 PUSH4 0x50188301 EQ PUSH2 0x2E2 JUMPI PUSH2 0x1C4 JUMP JUMPDEST DUP1 PUSH4 0x17CAF6F1 GT PUSH2 0x1A2 JUMPI DUP1 PUSH4 0x17CAF6F1 EQ PUSH2 0x236 JUMPI DUP1 PUSH4 0x1AB06EE5 EQ PUSH2 0x254 JUMPI DUP1 PUSH4 0x2377B2A8 EQ PUSH2 0x270 JUMPI DUP1 PUSH4 0x2B8BBBE8 EQ PUSH2 0x28C JUMPI PUSH2 0x1C4 JUMP JUMPDEST DUP1 PUSH4 0x332E936 EQ PUSH2 0x1C9 JUMPI DUP1 PUSH4 0x81E3EDA EQ PUSH2 0x1E5 JUMPI DUP1 PUSH4 0x1526FE27 EQ PUSH2 0x203 JUMPI JUMPDEST PUSH1 0x0 DUP1 REVERT JUMPDEST PUSH2 0x1E3 PUSH1 0x4 DUP1 CALLDATASIZE SUB DUP2 ADD SWAP1 PUSH2 0x1DE SWAP2 SWAP1 PUSH2 0x1EE5 JUMP JUMPDEST PUSH2 0x4FB JUMP JUMPDEST STOP JUMPDEST PUSH2 0x1ED PUSH2 0x560 JUMP JUMPDEST PUSH1 0x40 MLOAD PUSH2 0x1FA SWAP2 SWAP1 PUSH2 0x1F21 JUMP JUMPDEST PUSH1 0x40 MLOAD DUP1 SWAP2 SUB SWAP1 RETURN JUMPDEST PUSH2 0x21D PUSH1 0x4 DUP1 CALLDATASIZE SUB DUP2 ADD SWAP1 PUSH2 0x218 SWAP2 SWAP1 PUSH2 0x1EE5 JUMP JUMPDEST PUSH2 0x56D JUMP JUMPDEST PUSH1 0x40 MLOAD PUSH2 0x22D SWAP5 SWAP4 SWAP3 SWAP2 SWAP1 PUSH2 0x1FBB JUMP JUMPDEST PUSH1 0x40 MLOAD DUP1 SWAP2 SUB SWAP1 RETURN JUMPDEST PUSH2 0x23E PUSH2 0x5CD JUMP JUMPDEST PUSH1 0x40 MLOAD PUSH2 0x24B SWAP2 SWAP1 PUSH2 0x1F21 JUMP JUMPDEST PUSH1 0x40 MLOAD DUP1 SWAP2 SUB SWAP1 RETURN JUMPDEST PUSH2 0x26E PUSH1 0x4 DUP1 CALLDATASIZE SUB DUP2 ADD SWAP1 PUSH2 0x269 SWAP2 SWAP1 PUSH2 0x2000 JUMP JUMPDEST PUSH2 0x5D3 JUMP JUMPDEST STOP JUMPDEST PUSH2 0x28A PUSH1 0x4 DUP1 CALLDATASIZE SUB DUP2 ADD SWAP1 PUSH2 0x285 SWAP2 SWAP1 PUSH2 0x1EE5 JUMP JUMPDEST PUSH2 0x69A JUMP JUMPDEST STOP JUMPDEST PUSH2 0x2A6 PUSH1 0x4 DUP1 CALLDATASIZE SUB DUP2 ADD SWAP1 PUSH2 0x2A1 SWAP2 SWAP1 PUSH2 0x2090 JUMP JUMPDEST PUSH2 0x763 JUMP JUMPDEST STOP JUMPDEST PUSH2 0x2B0 PUSH2 0x8FE JUMP JUMPDEST PUSH1 0x40 MLOAD PUSH2 0x2BD SWAP2 SWAP1 PUSH2 0x1F21 JUMP JUMPDEST PUSH1 0x40 MLOAD DUP1 SWAP2 SUB SWAP1 RETURN JUMPDEST PUSH2 0x2E0 PUSH1 0x4 DUP1 CALLDATASIZE SUB DUP2 ADD SWAP1 PUSH2 0x2DB SWAP2 SWAP1 PUSH2 0x2000 JUMP JUMPDEST PUSH2 0x904 JUMP JUMPDEST STOP JUMPDEST PUSH2 0x2EA PUSH2 0xBD0 JUMP JUMPDEST PUSH1 0x40 MLOAD PUSH2 0x2F7 SWAP2 SWAP1 PUSH2 0x20EB JUMP JUMPDEST PUSH1 0x40 MLOAD DUP1 SWAP2 SUB SWAP1 RETURN JUMPDEST PUSH2 0x31A PUSH1 0x4 DUP1 CALLDATASIZE SUB DUP2 ADD SWAP1 PUSH2 0x315 SWAP2 SWAP1 PUSH2 0x1EE5 JUMP JUMPDEST PUSH2 0xBE3 JUMP JUMPDEST STOP JUMPDEST PUSH2 0x336 PUSH1 0x4 DUP1 CALLDATASIZE SUB DUP2 ADD SWAP1 PUSH2 0x331 SWAP2 SWAP1 PUSH2 0x1EE5 JUMP JUMPDEST PUSH2 0xD83 JUMP JUMPDEST STOP JUMPDEST PUSH2 0x340 PUSH2 0xFB9 JUMP JUMPDEST STOP JUMPDEST PUSH2 0x34A PUSH2 0xFEC JUMP JUMPDEST STOP JUMPDEST PUSH2 0x354 PUSH2 0x1000 JUMP JUMPDEST PUSH1 0x40 MLOAD PUSH2 0x361 SWAP2 SWAP1 PUSH2 0x1F21 JUMP JUMPDEST PUSH1 0x40 MLOAD DUP1 SWAP2 SUB SWAP1 RETURN JUMPDEST PUSH2 0x372 PUSH2 0x1024 JUMP JUMPDEST STOP JUMPDEST PUSH2 0x37C PUSH2 0x1049 JUMP JUMPDEST STOP JUMPDEST PUSH2 0x386 PUSH2 0x106E JUMP JUMPDEST PUSH1 0x40 MLOAD PUSH2 0x393 SWAP2 SWAP1 PUSH2 0x2115 JUMP JUMPDEST PUSH1 0x40 MLOAD DUP1 SWAP2 SUB SWAP1 RETURN JUMPDEST PUSH2 0x3B6 PUSH1 0x4 DUP1 CALLDATASIZE SUB DUP2 ADD SWAP1 PUSH2 0x3B1 SWAP2 SWAP1 PUSH2 0x2000 JUMP JUMPDEST PUSH2 0x1097 JUMP JUMPDEST PUSH1 0x40 MLOAD PUSH2 0x3C3 SWAP2 SWAP1 PUSH2 0x1F21 JUMP JUMPDEST PUSH1 0x40 MLOAD DUP1 SWAP2 SUB SWAP1 RETURN JUMPDEST PUSH2 0x3D4 PUSH2 0x1130 JUMP JUMPDEST PUSH1 0x40 MLOAD PUSH2 0x3E1 SWAP2 SWAP1 PUSH2 0x1F21 JUMP JUMPDEST PUSH1 0x40 MLOAD DUP1 SWAP2 SUB SWAP1 RETURN JUMPDEST PUSH2 0x404 PUSH1 0x4 DUP1 CALLDATASIZE SUB DUP2 ADD SWAP1 PUSH2 0x3FF SWAP2 SWAP1 PUSH2 0x215C JUMP JUMPDEST PUSH2 0x113C JUMP JUMPDEST PUSH1 0x40 MLOAD PUSH2 0x412 SWAP3 SWAP2 SWAP1 PUSH2 0x219C JUMP JUMPDEST PUSH1 0x40 MLOAD DUP1 SWAP2 SUB SWAP1 RETURN JUMPDEST PUSH2 0x435 PUSH1 0x4 DUP1 CALLDATASIZE SUB DUP2 ADD SWAP1 PUSH2 0x430 SWAP2 SWAP1 PUSH2 0x215C JUMP JUMPDEST PUSH2 0x116D JUMP JUMPDEST PUSH1 0x40 MLOAD PUSH2 0x442 SWAP2 SWAP1 PUSH2 0x1F21 JUMP JUMPDEST PUSH1 0x40 MLOAD DUP1 SWAP2 SUB SWAP1 RETURN JUMPDEST PUSH2 0x453 PUSH2 0x1392 JUMP JUMPDEST PUSH1 0x40 MLOAD PUSH2 0x460 SWAP2 SWAP1 PUSH2 0x21C5 JUMP JUMPDEST PUSH1 0x40 MLOAD DUP1 SWAP2 SUB SWAP1 RETURN JUMPDEST PUSH2 0x471 PUSH2 0x13B8 JUMP JUMPDEST PUSH1 0x40 MLOAD PUSH2 0x47E SWAP2 SWAP1 PUSH2 0x1F21 JUMP JUMPDEST PUSH1 0x40 MLOAD DUP1 SWAP2 SUB SWAP1 RETURN JUMPDEST PUSH2 0x48F PUSH2 0x13BE JUMP JUMPDEST PUSH1 0x40 MLOAD PUSH2 0x49C SWAP2 SWAP1 PUSH2 0x2115 JUMP JUMPDEST PUSH1 0x40 MLOAD DUP1 SWAP2 SUB SWAP1 RETURN JUMPDEST PUSH2 0x4BF PUSH1 0x4 DUP1 CALLDATASIZE SUB DUP2 ADD SWAP1 PUSH2 0x4BA SWAP2 SWAP1 PUSH2 0x2000 JUMP JUMPDEST PUSH2 0x13E4 JUMP JUMPDEST STOP JUMPDEST PUSH2 0x4DB PUSH1 0x4 DUP1 CALLDATASIZE SUB DUP2 ADD SWAP1 PUSH2 0x4D6 SWAP2 SWAP1 PUSH2 0x21E0 JUMP JUMPDEST PUSH2 0x161C JUMP JUMPDEST STOP JUMPDEST PUSH2 0x4E5 PUSH2 0x16A0 JUMP JUMPDEST PUSH1 0x40 MLOAD PUSH2 0x4F2 SWAP2 SWAP1 PUSH2 0x1F21 JUMP JUMPDEST PUSH1 0x40 MLOAD DUP1 SWAP2 SUB SWAP1 RETURN JUMPDEST PUSH2 0x503 PUSH2 0x16A6 JUMP JUMPDEST PUSH8 0xDE0B6B3A7640000 DUP2 GT ISZERO PUSH2 0x54E JUMPI PUSH1 0x40 MLOAD PUSH32 0x8C379A000000000000000000000000000000000000000000000000000000000 DUP2 MSTORE PUSH1 0x4 ADD PUSH2 0x545 SWAP1 PUSH2 0x2290 JUMP JUMPDEST PUSH1 0x40 MLOAD DUP1 SWAP2 SUB SWAP1 REVERT JUMPDEST PUSH2 0x556 PUSH2 0xFB9 JUMP JUMPDEST DUP1 PUSH1 0x4 DUP2 SWAP1 SSTORE POP POP JUMP JUMPDEST PUSH1 0x0 PUSH1 0x6 DUP1 SLOAD SWAP1 POP SWAP1 POP SWAP1 JUMP JUMPDEST PUSH1 0x6 DUP2 DUP2 SLOAD DUP2 LT PUSH2 0x57D JUMPI PUSH1 0x0 DUP1 REVERT JUMPDEST SWAP1 PUSH1 0x0 MSTORE PUSH1 0x20 PUSH1 0x0 KECCAK256 SWAP1 PUSH1 0x4 MUL ADD PUSH1 0x0 SWAP2 POP SWAP1 POP DUP1 PUSH1 0x0 ADD PUSH1 0x0 SWAP1 SLOAD SWAP1 PUSH2 0x100 EXP SWAP1 DIV PUSH20 0xFFFFFFFFFFFFFFFFFFFFFFFFFFFFFFFFFFFFFFFF AND SWAP1 DUP1 PUSH1 0x1 ADD SLOAD SWAP1 DUP1 PUSH1 0x2 ADD SLOAD SWAP1 DUP1 PUSH1 0x3 ADD SLOAD SWAP1 POP DUP5 JUMP JUMPDEST PUSH1 0x8 SLOAD DUP2 JUMP JUMPDEST PUSH2 0x5DB PUSH2 0x16A6 JUMP JUMPDEST PUSH2 0xFA0 DUP2 GT ISZERO PUSH2 0x620 JUMPI PUSH1 0x40 MLOAD PUSH32 0x8C379A000000000000000000000000000000000000000000000000000000000 DUP2 MSTORE PUSH1 0x4 ADD PUSH2 0x617 SWAP1 PUSH2 0x22FC JUMP JUMPDEST PUSH1 0x40 MLOAD DUP1 SWAP2 SUB SWAP1 REVERT JUMPDEST PUSH2 0x628 PUSH2 0xFB9 JUMP JUMPDEST DUP1 PUSH1 0x6 DUP4 DUP2 SLOAD DUP2 LT PUSH2 0x63D JUMPI PUSH2 0x63C PUSH2 0x231C JUMP JUMPDEST JUMPDEST SWAP1 PUSH1 0x0 MSTORE PUSH1 0x20 PUSH1 0x0 KECCAK256 SWAP1 PUSH1 0x4 MUL ADD PUSH1 0x1 ADD SLOAD PUSH1 0x8 SLOAD PUSH2 0x65C SWAP2 SWAP1 PUSH2 0x237A JUMP JUMPDEST PUSH2 0x666 SWAP2 SWAP1 PUSH2 0x23AE JUMP JUMPDEST PUSH1 0x8 DUP2 SWAP1 SSTORE POP DUP1 PUSH1 0x6 DUP4 DUP2 SLOAD DUP2 LT PUSH2 0x681 JUMPI PUSH2 0x680 PUSH2 0x231C JUMP JUMPDEST JUMPDEST SWAP1 PUSH1 0x0 MSTORE PUSH1 0x20 PUSH1 0x0 KECCAK256 SWAP1 PUSH1 0x4 MUL ADD PUSH1 0x1 ADD DUP2 SWAP1 SSTORE POP POP POP JUMP JUMPDEST PUSH2 0x6A2 PUSH2 0x16A6 JUMP JUMPDEST PUSH2 0x6B7 DUP2 PUSH1 0x5 SLOAD PUSH2 0x1724 SWAP1 SWAP2 SWAP1 PUSH4 0xFFFFFFFF AND JUMP JUMPDEST PUSH1 0x5 DUP2 SWAP1 SSTORE POP PUSH1 0x2 PUSH1 0x0 SWAP1 SLOAD SWAP1 PUSH2 0x100 EXP SWAP1 DIV PUSH20 0xFFFFFFFFFFFFFFFFFFFFFFFFFFFFFFFFFFFFFFFF AND PUSH20 0xFFFFFFFFFFFFFFFFFFFFFFFFFFFFFFFFFFFFFFFF AND PUSH4 0x23B872DD CALLER ADDRESS DUP5 PUSH1 0x40 MLOAD DUP5 PUSH4 0xFFFFFFFF AND PUSH1 0xE0 SHL DUP2 MSTORE PUSH1 0x4 ADD PUSH2 0x71C SWAP4 SWAP3 SWAP2 SWAP1 PUSH2 0x2404 JUMP JUMPDEST PUSH1 0x20 PUSH1 0x40 MLOAD DUP1 DUP4 SUB DUP2 PUSH1 0x0 DUP8 GAS CALL ISZERO DUP1 ISZERO PUSH2 0x73B JUMPI RETURNDATASIZE PUSH1 0x0 DUP1 RETURNDATACOPY RETURNDATASIZE PUSH1 0x0 REVERT JUMPDEST POP POP POP POP PUSH1 0x40 MLOAD RETURNDATASIZE PUSH1 0x1F NOT PUSH1 0x1F DUP3 ADD AND DUP3 ADD DUP1 PUSH1 0x40 MSTORE POP DUP2 ADD SWAP1 PUSH2 0x75F SWAP2 SWAP1 PUSH2 0x2467 JUMP JUMPDEST POP POP JUMP JUMPDEST PUSH2 0x76B PUSH2 0x16A6 JUMP JUMPDEST PUSH2 0xFA0 DUP3 GT ISZERO PUSH2 0x7B0 JUMPI PUSH1 0x40 MLOAD PUSH32 0x8C379A000000000000000000000000000000000000000000000000000000000 DUP2 MSTORE PUSH1 0x4 ADD PUSH2 0x7A7 SWAP1 PUSH2 0x22FC JUMP JUMPDEST PUSH1 0x40 MLOAD DUP1 SWAP2 SUB SWAP1 REVERT JUMPDEST PUSH2 0x7B9 DUP2 PUSH2 0x173A JUMP JUMPDEST PUSH2 0x7C1 PUSH2 0xFB9 JUMP JUMPDEST PUSH1 0x0 PUSH32 0x0 TIMESTAMP GT PUSH2 0x810 JUMPI PUSH32 0x0 PUSH2 0x812 JUMP JUMPDEST TIMESTAMP JUMPDEST SWAP1 POP PUSH2 0x829 DUP4 PUSH1 0x8 SLOAD PUSH2 0x1724 SWAP1 SWAP2 SWAP1 PUSH4 0xFFFFFFFF AND JUMP JUMPDEST PUSH1 0x8 DUP2 SWAP1 SSTORE POP PUSH1 0x6 PUSH1 0x40 MLOAD DUP1 PUSH1 0x80 ADD PUSH1 0x40 MSTORE DUP1 DUP5 PUSH20 0xFFFFFFFFFFFFFFFFFFFFFFFFFFFFFFFFFFFFFFFF AND DUP2 MSTORE PUSH1 0x20 ADD DUP6 DUP2 MSTORE PUSH1 0x20 ADD DUP4 DUP2 MSTORE PUSH1 0x20 ADD PUSH1 0x0 DUP2 MSTORE POP SWAP1 DUP1 PUSH1 0x1 DUP2 SLOAD ADD DUP1 DUP3 SSTORE DUP1 SWAP2 POP POP PUSH1 0x1 SWAP1 SUB SWAP1 PUSH1 0x0 MSTORE PUSH1 0x20 PUSH1 0x0 KECCAK256 SWAP1 PUSH1 0x4 MUL ADD PUSH1 0x0 SWAP1 SWAP2 SWAP1 SWAP2 SWAP1 SWAP2 POP PUSH1 0x0 DUP3 ADD MLOAD DUP2 PUSH1 0x0 ADD PUSH1 0x0 PUSH2 0x100 EXP DUP2 SLOAD DUP2 PUSH20 0xFFFFFFFFFFFFFFFFFFFFFFFFFFFFFFFFFFFFFFFF MUL NOT AND SWAP1 DUP4 PUSH20 0xFFFFFFFFFFFFFFFFFFFFFFFFFFFFFFFFFFFFFFFF AND MUL OR SWAP1 SSTORE POP PUSH1 0x20 DUP3 ADD MLOAD DUP2 PUSH1 0x1 ADD SSTORE PUSH1 0x40 DUP3 ADD MLOAD DUP2 PUSH1 0x2 ADD SSTORE PUSH1 0x60 DUP3 ADD MLOAD DUP2 PUSH1 0x3 ADD SSTORE POP POP POP POP POP JUMP JUMPDEST PUSH1 0x4 SLOAD DUP2 JUMP JUMPDEST PUSH1 0x2 PUSH1 0x1 SLOAD EQ ISZERO PUSH2 0x94A JUMPI PUSH1 0x40 MLOAD PUSH32 0x8C379A000000000000000000000000000000000000000000000000000000000 DUP2 MSTORE PUSH1 0x4 ADD PUSH2 0x941 SWAP1 PUSH2 0x24E0 JUMP JUMPDEST PUSH1 0x40 MLOAD DUP1 SWAP2 SUB SWAP1 REVERT JUMPDEST PUSH1 0x2 PUSH1 0x1 DUP2 SWAP1 SSTORE POP PUSH1 0x0 PUSH1 0x6 DUP4 DUP2 SLOAD DUP2 LT PUSH2 0x968 JUMPI PUSH2 0x967 PUSH2 0x231C JUMP JUMPDEST JUMPDEST SWAP1 PUSH1 0x0 MSTORE PUSH1 0x20 PUSH1 0x0 KECCAK256 SWAP1 PUSH1 0x4 MUL ADD SWAP1 POP PUSH1 0x0 PUSH1 0x7 PUSH1 0x0 DUP6 DUP2 MSTORE PUSH1 0x20 ADD SWAP1 DUP2 MSTORE PUSH1 0x20 ADD PUSH1 0x0 KECCAK256 PUSH1 0x0 CALLER PUSH20 0xFFFFFFFFFFFFFFFFFFFFFFFFFFFFFFFFFFFFFFFF AND PUSH20 0xFFFFFFFFFFFFFFFFFFFFFFFFFFFFFFFFFFFFFFFF AND DUP2 MSTORE PUSH1 0x20 ADD SWAP1 DUP2 MSTORE PUSH1 0x20 ADD PUSH1 0x0 KECCAK256 SWAP1 POP DUP3 DUP2 PUSH1 0x0 ADD SLOAD LT ISZERO PUSH2 0xA13 JUMPI PUSH1 0x40 MLOAD PUSH32 0x8C379A000000000000000000000000000000000000000000000000000000000 DUP2 MSTORE PUSH1 0x4 ADD PUSH2 0xA0A SWAP1 PUSH2 0x254C JUMP JUMPDEST PUSH1 0x40 MLOAD DUP1 SWAP2 SUB SWAP1 REVERT JUMPDEST PUSH1 0x9 PUSH1 0x0 SWAP1 SLOAD SWAP1 PUSH2 0x100 EXP SWAP1 DIV PUSH1 0xFF AND PUSH2 0xA62 JUMPI PUSH1 0x40 MLOAD PUSH32 0x8C379A000000000000000000000000000000000000000000000000000000000 DUP2 MSTORE PUSH1 0x4 ADD PUSH2 0xA59 SWAP1 PUSH2 0x25B8 JUMP JUMPDEST PUSH1 0x40 MLOAD DUP1 SWAP2 SUB SWAP1 REVERT JUMPDEST PUSH2 0xA6B DUP5 PUSH2 0xBE3 JUMP JUMPDEST PUSH1 0x0 PUSH2 0xAB5 DUP3 PUSH1 0x1 ADD SLOAD PUSH2 0xAA7 PUSH5 0xE8D4A51000 PUSH2 0xA99 DUP8 PUSH1 0x3 ADD SLOAD DUP8 PUSH1 0x0 ADD SLOAD PUSH2 0x181B SWAP1 SWAP2 SWAP1 PUSH4 0xFFFFFFFF AND JUMP JUMPDEST PUSH2 0x1831 SWAP1 SWAP2 SWAP1 PUSH4 0xFFFFFFFF AND JUMP JUMPDEST PUSH2 0x1847 SWAP1 SWAP2 SWAP1 PUSH4 0xFFFFFFFF AND JUMP JUMPDEST SWAP1 POP PUSH2 0xACE DUP5 DUP4 PUSH1 0x0 ADD SLOAD PUSH2 0x1847 SWAP1 SWAP2 SWAP1 PUSH4 0xFFFFFFFF AND JUMP JUMPDEST DUP3 PUSH1 0x0 ADD DUP2 SWAP1 SSTORE POP PUSH2 0xB08 PUSH5 0xE8D4A51000 PUSH2 0xAFA DUP6 PUSH1 0x3 ADD SLOAD DUP6 PUSH1 0x0 ADD SLOAD PUSH2 0x181B SWAP1 SWAP2 SWAP1 PUSH4 0xFFFFFFFF AND JUMP JUMPDEST PUSH2 0x1831 SWAP1 SWAP2 SWAP1 PUSH4 0xFFFFFFFF AND JUMP JUMPDEST DUP3 PUSH1 0x1 ADD DUP2 SWAP1 SSTORE POP PUSH1 0x0 DUP2 GT ISZERO PUSH2 0xB24 JUMPI PUSH2 0xB23 CALLER DUP3 PUSH2 0x185D JUMP JUMPDEST JUMPDEST PUSH2 0xB73 CALLER DUP6 DUP6 PUSH1 0x0 ADD PUSH1 0x0 SWAP1 SLOAD SWAP1 PUSH2 0x100 EXP SWAP1 DIV PUSH20 0xFFFFFFFFFFFFFFFFFFFFFFFFFFFFFFFFFFFFFFFF AND PUSH20 0xFFFFFFFFFFFFFFFFFFFFFFFFFFFFFFFFFFFFFFFF AND PUSH2 0x1A52 SWAP1 SWAP3 SWAP2 SWAP1 PUSH4 0xFFFFFFFF AND JUMP JUMPDEST DUP5 CALLER PUSH20 0xFFFFFFFFFFFFFFFFFFFFFFFFFFFFFFFFFFFFFFFF AND PUSH32 0xF279E6A1F5E320CCA91135676D9CB6E44CA8A08C0B88342BCDB1144F6511B568 DUP7 PUSH1 0x40 MLOAD PUSH2 0xBBA SWAP2 SWAP1 PUSH2 0x1F21 JUMP JUMPDEST PUSH1 0x40 MLOAD DUP1 SWAP2 SUB SWAP1 LOG3 POP POP POP PUSH1 0x1 DUP1 DUP2 SWAP1 SSTORE POP POP POP JUMP JUMPDEST PUSH1 0x9 PUSH1 0x0 SWAP1 SLOAD SWAP1 PUSH2 0x100 EXP SWAP1 DIV PUSH1 0xFF AND DUP2 JUMP JUMPDEST PUSH1 0x0 PUSH1 0x6 DUP3 DUP2 SLOAD DUP2 LT PUSH2 0xBF9 JUMPI PUSH2 0xBF8 PUSH2 0x231C JUMP JUMPDEST JUMPDEST SWAP1 PUSH1 0x0 MSTORE PUSH1 0x20 PUSH1 0x0 KECCAK256 SWAP1 PUSH1 0x4 MUL ADD SWAP1 POP DUP1 PUSH1 0x2 ADD SLOAD TIMESTAMP GT PUSH2 0xC1A JUMPI POP PUSH2 0xD80 JUMP JUMPDEST PUSH1 0x0 DUP2 PUSH1 0x0 ADD PUSH1 0x0 SWAP1 SLOAD SWAP1 PUSH2 0x100 EXP SWAP1 DIV PUSH20 0xFFFFFFFFFFFFFFFFFFFFFFFFFFFFFFFFFFFFFFFF AND PUSH20 0xFFFFFFFFFFFFFFFFFFFFFFFFFFFFFFFFFFFFFFFF AND PUSH4 0x70A08231 ADDRESS PUSH1 0x40 MLOAD DUP3 PUSH4 0xFFFFFFFF AND PUSH1 0xE0 SHL DUP2 MSTORE PUSH1 0x4 ADD PUSH2 0xC79 SWAP2 SWAP1 PUSH2 0x2115 JUMP JUMPDEST PUSH1 0x20 PUSH1 0x40 MLOAD DUP1 DUP4 SUB DUP2 DUP7 GAS STATICCALL ISZERO DUP1 ISZERO PUSH2 0xC96 JUMPI RETURNDATASIZE PUSH1 0x0 DUP1 RETURNDATACOPY RETURNDATASIZE PUSH1 0x0 REVERT JUMPDEST POP POP POP POP PUSH1 0x40 MLOAD RETURNDATASIZE PUSH1 0x1F NOT PUSH1 0x1F DUP3 ADD AND DUP3 ADD DUP1 PUSH1 0x40 MSTORE POP DUP2 ADD SWAP1 PUSH2 0xCBA SWAP2 SWAP1 PUSH2 0x25ED JUMP JUMPDEST SWAP1 POP PUSH1 0x0 DUP2 EQ ISZERO PUSH2 0xCD5 JUMPI TIMESTAMP DUP3 PUSH1 0x2 ADD DUP2 SWAP1 SSTORE POP POP POP PUSH2 0xD80 JUMP JUMPDEST PUSH1 0x0 PUSH2 0xCE5 DUP4 PUSH1 0x2 ADD SLOAD TIMESTAMP PUSH2 0x1097 JUMP JUMPDEST SWAP1 POP PUSH1 0x0 PUSH2 0xD28 PUSH1 0x8 SLOAD PUSH2 0xD1A DUP7 PUSH1 0x1 ADD SLOAD PUSH2 0xD0C PUSH1 0x4 SLOAD DUP8 PUSH2 0x181B SWAP1 SWAP2 SWAP1 PUSH4 0xFFFFFFFF AND JUMP JUMPDEST PUSH2 0x181B SWAP1 SWAP2 SWAP1 PUSH4 0xFFFFFFFF AND JUMP JUMPDEST PUSH2 0x1831 SWAP1 SWAP2 SWAP1 PUSH4 0xFFFFFFFF AND JUMP JUMPDEST SWAP1 POP PUSH2 0xD6A PUSH2 0xD57 DUP5 PUSH2 0xD49 PUSH5 0xE8D4A51000 DUP6 PUSH2 0x181B SWAP1 SWAP2 SWAP1 PUSH4 0xFFFFFFFF AND JUMP JUMPDEST PUSH2 0x1831 SWAP1 SWAP2 SWAP1 PUSH4 0xFFFFFFFF AND JUMP JUMPDEST DUP6 PUSH1 0x3 ADD SLOAD PUSH2 0x1724 SWAP1 SWAP2 SWAP1 PUSH4 0xFFFFFFFF AND JUMP JUMPDEST DUP5 PUSH1 0x3 ADD DUP2 SWAP1 SSTORE POP TIMESTAMP DUP5 PUSH1 0x2 ADD DUP2 SWAP1 SSTORE POP POP POP POP POP JUMPDEST POP JUMP JUMPDEST PUSH1 0x2 PUSH1 0x1 SLOAD EQ ISZERO PUSH2 0xDC9 JUMPI PUSH1 0x40 MLOAD PUSH32 0x8C379A000000000000000000000000000000000000000000000000000000000 DUP2 MSTORE PUSH1 0x4 ADD PUSH2 0xDC0 SWAP1 PUSH2 0x24E0 JUMP JUMPDEST PUSH1 0x40 MLOAD DUP1 SWAP2 SUB SWAP1 REVERT JUMPDEST PUSH1 0x2 PUSH1 0x1 DUP2 SWAP1 SSTORE POP PUSH1 0x0 PUSH1 0x6 DUP3 DUP2 SLOAD DUP2 LT PUSH2 0xDE7 JUMPI PUSH2 0xDE6 PUSH2 0x231C JUMP JUMPDEST JUMPDEST SWAP1 PUSH1 0x0 MSTORE PUSH1 0x20 PUSH1 0x0 KECCAK256 SWAP1 PUSH1 0x4 MUL ADD SWAP1 POP PUSH1 0x0 PUSH1 0x7 PUSH1 0x0 DUP5 DUP2 MSTORE PUSH1 0x20 ADD SWAP1 DUP2 MSTORE PUSH1 0x20 ADD PUSH1 0x0 KECCAK256 PUSH1 0x0 CALLER PUSH20 0xFFFFFFFFFFFFFFFFFFFFFFFFFFFFFFFFFFFFFFFF AND PUSH20 0xFFFFFFFFFFFFFFFFFFFFFFFFFFFFFFFFFFFFFFFF AND DUP2 MSTORE PUSH1 0x20 ADD SWAP1 DUP2 MSTORE PUSH1 0x20 ADD PUSH1 0x0 KECCAK256 SWAP1 POP PUSH1 0x0 DUP2 PUSH1 0x0 ADD SLOAD SWAP1 POP PUSH1 0x0 DUP3 PUSH1 0x0 ADD DUP2 SWAP1 SSTORE POP PUSH1 0x0 DUP3 PUSH1 0x1 ADD DUP2 SWAP1 SSTORE POP PUSH2 0xEDF CALLER PUSH2 0xE95 PUSH2 0x3E8 PUSH2 0xE87 PUSH2 0x2BC DUP7 PUSH2 0x181B SWAP1 SWAP2 SWAP1 PUSH4 0xFFFFFFFF AND JUMP JUMPDEST PUSH2 0x1831 SWAP1 SWAP2 SWAP1 PUSH4 0xFFFFFFFF AND JUMP JUMPDEST DUP6 PUSH1 0x0 ADD PUSH1 0x0 SWAP1 SLOAD SWAP1 PUSH2 0x100 EXP SWAP1 DIV PUSH20 0xFFFFFFFFFFFFFFFFFFFFFFFFFFFFFFFFFFFFFFFF AND PUSH20 0xFFFFFFFFFFFFFFFFFFFFFFFFFFFFFFFFFFFFFFFF AND PUSH2 0x1A52 SWAP1 SWAP3 SWAP2 SWAP1 PUSH4 0xFFFFFFFF AND JUMP JUMPDEST PUSH2 0xF5D PUSH2 0xEEA PUSH2 0x106E JUMP JUMPDEST PUSH2 0xF13 PUSH2 0x3E8 PUSH2 0xF05 PUSH2 0x12C DUP7 PUSH2 0x181B SWAP1 SWAP2 SWAP1 PUSH4 0xFFFFFFFF AND JUMP JUMPDEST PUSH2 0x1831 SWAP1 SWAP2 SWAP1 PUSH4 0xFFFFFFFF AND JUMP JUMPDEST DUP6 PUSH1 0x0 ADD PUSH1 0x0 SWAP1 SLOAD SWAP1 PUSH2 0x100 EXP SWAP1 DIV PUSH20 0xFFFFFFFFFFFFFFFFFFFFFFFFFFFFFFFFFFFFFFFF AND PUSH20 0xFFFFFFFFFFFFFFFFFFFFFFFFFFFFFFFFFFFFFFFF AND PUSH2 0x1A52 SWAP1 SWAP3 SWAP2 SWAP1 PUSH4 0xFFFFFFFF AND JUMP JUMPDEST DUP4 CALLER PUSH20 0xFFFFFFFFFFFFFFFFFFFFFFFFFFFFFFFFFFFFFFFF AND PUSH32 0xBB757047C2B5F3974FE26B7C10F732E7BCE710B0952A71082702781E62AE0595 DUP4 PUSH1 0x40 MLOAD PUSH2 0xFA4 SWAP2 SWAP1 PUSH2 0x1F21 JUMP JUMPDEST PUSH1 0x40 MLOAD DUP1 SWAP2 SUB SWAP1 LOG3 POP POP POP PUSH1 0x1 DUP1 DUP2 SWAP1 SSTORE POP POP JUMP JUMPDEST PUSH1 0x0 PUSH1 0x6 DUP1 SLOAD SWAP1 POP SWAP1 POP PUSH1 0x0 JUMPDEST DUP2 DUP2 LT ISZERO PUSH2 0xFE8 JUMPI PUSH2 0xFD7 DUP2 PUSH2 0xBE3 JUMP JUMPDEST DUP1 PUSH2 0xFE1 SWAP1 PUSH2 0x261A JUMP JUMPDEST SWAP1 POP PUSH2 0xFC6 JUMP JUMPDEST POP POP JUMP JUMPDEST PUSH2 0xFF4 PUSH2 0x16A6 JUMP JUMPDEST PUSH2 0xFFE PUSH1 0x0 PUSH2 0x1AD8 JUMP JUMPDEST JUMP JUMPDEST PUSH32 0x0 DUP2 JUMP JUMPDEST PUSH2 0x102C PUSH2 0x16A6 JUMP JUMPDEST PUSH1 0x0 PUSH1 0x9 PUSH1 0x0 PUSH2 0x100 EXP DUP2 SLOAD DUP2 PUSH1 0xFF MUL NOT AND SWAP1 DUP4 ISZERO ISZERO MUL OR SWAP1 SSTORE POP JUMP JUMPDEST PUSH2 0x1051 PUSH2 0x16A6 JUMP JUMPDEST PUSH1 0x1 PUSH1 0x9 PUSH1 0x0 PUSH2 0x100 EXP DUP2 SLOAD DUP2 PUSH1 0xFF MUL NOT AND SWAP1 DUP4 ISZERO ISZERO MUL OR SWAP1 SSTORE POP JUMP JUMPDEST PUSH1 0x0 DUP1 PUSH1 0x0 SWAP1 SLOAD SWAP1 PUSH2 0x100 EXP SWAP1 DIV PUSH20 0xFFFFFFFFFFFFFFFFFFFFFFFFFFFFFFFFFFFFFFFF AND SWAP1 POP SWAP1 JUMP JUMPDEST PUSH1 0x0 PUSH32 0x0 DUP4 GT PUSH2 0x10E6 JUMPI PUSH32 0x0 PUSH2 0x10E8 JUMP JUMPDEST DUP3 JUMPDEST SWAP3 POP PUSH32 0x0 DUP3 LT ISZERO PUSH2 0x111B JUMPI PUSH1 0x0 SWAP1 POP PUSH2 0x112A JUMP JUMPDEST DUP3 DUP3 PUSH2 0x1127 SWAP2 SWAP1 PUSH2 0x237A JUMP JUMPDEST SWAP1 POP JUMPDEST SWAP3 SWAP2 POP POP JUMP JUMPDEST PUSH8 0xDE0B6B3A7640000 DUP2 JUMP JUMPDEST PUSH1 0x7 PUSH1 0x20 MSTORE DUP2 PUSH1 0x0 MSTORE PUSH1 0x40 PUSH1 0x0 KECCAK256 PUSH1 0x20 MSTORE DUP1 PUSH1 0x0 MSTORE PUSH1 0x40 PUSH1 0x0 KECCAK256 PUSH1 0x0 SWAP2 POP SWAP2 POP POP DUP1 PUSH1 0x0 ADD SLOAD SWAP1 DUP1 PUSH1 0x1 ADD SLOAD SWAP1 POP DUP3 JUMP JUMPDEST PUSH1 0x0 DUP1 PUSH1 0x6 DUP5 DUP2 SLOAD DUP2 LT PUSH2 0x1184 JUMPI PUSH2 0x1183 PUSH2 0x231C JUMP JUMPDEST JUMPDEST SWAP1 PUSH1 0x0 MSTORE PUSH1 0x20 PUSH1 0x0 KECCAK256 SWAP1 PUSH1 0x4 MUL ADD SWAP1 POP PUSH1 0x0 PUSH1 0x7 PUSH1 0x0 DUP7 DUP2 MSTORE PUSH1 0x20 ADD SWAP1 DUP2 MSTORE PUSH1 0x20 ADD PUSH1 0x0 KECCAK256 PUSH1 0x0 DUP6 PUSH20 0xFFFFFFFFFFFFFFFFFFFFFFFFFFFFFFFFFFFFFFFF AND PUSH20 0xFFFFFFFFFFFFFFFFFFFFFFFFFFFFFFFFFFFFFFFF AND DUP2 MSTORE PUSH1 0x20 ADD SWAP1 DUP2 MSTORE PUSH1 0x20 ADD PUSH1 0x0 KECCAK256 SWAP1 POP PUSH1 0x0 DUP3 PUSH1 0x3 ADD SLOAD SWAP1 POP PUSH1 0x0 DUP4 PUSH1 0x0 ADD PUSH1 0x0 SWAP1 SLOAD SWAP1 PUSH2 0x100 EXP SWAP1 DIV PUSH20 0xFFFFFFFFFFFFFFFFFFFFFFFFFFFFFFFFFFFFFFFF AND PUSH20 0xFFFFFFFFFFFFFFFFFFFFFFFFFFFFFFFFFFFFFFFF AND PUSH4 0x70A08231 ADDRESS PUSH1 0x40 MLOAD DUP3 PUSH4 0xFFFFFFFF AND PUSH1 0xE0 SHL DUP2 MSTORE PUSH1 0x4 ADD PUSH2 0x1250 SWAP2 SWAP1 PUSH2 0x2115 JUMP JUMPDEST PUSH1 0x20 PUSH1 0x40 MLOAD DUP1 DUP4 SUB DUP2 DUP7 GAS STATICCALL ISZERO DUP1 ISZERO PUSH2 0x126D JUMPI RETURNDATASIZE PUSH1 0x0 DUP1 RETURNDATACOPY RETURNDATASIZE PUSH1 0x0 REVERT JUMPDEST POP POP POP POP PUSH1 0x40 MLOAD RETURNDATASIZE PUSH1 0x1F NOT PUSH1 0x1F DUP3 ADD AND DUP3 ADD DUP1 PUSH1 0x40 MSTORE POP DUP2 ADD SWAP1 PUSH2 0x1291 SWAP2 SWAP1 PUSH2 0x25ED JUMP JUMPDEST SWAP1 POP DUP4 PUSH1 0x2 ADD SLOAD TIMESTAMP GT DUP1 ISZERO PUSH2 0x12A7 JUMPI POP PUSH1 0x0 DUP2 EQ ISZERO JUMPDEST ISZERO PUSH2 0x1342 JUMPI PUSH1 0x0 PUSH2 0x12BC DUP6 PUSH1 0x2 ADD SLOAD TIMESTAMP PUSH2 0x1097 JUMP JUMPDEST SWAP1 POP PUSH1 0x0 PUSH2 0x12FF PUSH1 0x8 SLOAD PUSH2 0x12F1 DUP9 PUSH1 0x1 ADD SLOAD PUSH2 0x12E3 PUSH1 0x4 SLOAD DUP8 PUSH2 0x181B SWAP1 SWAP2 SWAP1 PUSH4 0xFFFFFFFF AND JUMP JUMPDEST PUSH2 0x181B SWAP1 SWAP2 SWAP1 PUSH4 0xFFFFFFFF AND JUMP JUMPDEST PUSH2 0x1831 SWAP1 SWAP2 SWAP1 PUSH4 0xFFFFFFFF AND JUMP JUMPDEST SWAP1 POP PUSH2 0x133D PUSH2 0x132E DUP5 PUSH2 0x1320 PUSH5 0xE8D4A51000 DUP6 PUSH2 0x181B SWAP1 SWAP2 SWAP1 PUSH4 0xFFFFFFFF AND JUMP JUMPDEST PUSH2 0x1831 SWAP1 SWAP2 SWAP1 PUSH4 0xFFFFFFFF AND JUMP JUMPDEST DUP6 PUSH2 0x1724 SWAP1 SWAP2 SWAP1 PUSH4 0xFFFFFFFF AND JUMP JUMPDEST SWAP4 POP POP POP JUMPDEST PUSH2 0x1386 DUP4 PUSH1 0x1 ADD SLOAD PUSH2 0x1378 PUSH5 0xE8D4A51000 PUSH2 0x136A DUP7 DUP9 PUSH1 0x0 ADD SLOAD PUSH2 0x181B SWAP1 SWAP2 SWAP1 PUSH4 0xFFFFFFFF AND JUMP JUMPDEST PUSH2 0x1831 SWAP1 SWAP2 SWAP1 PUSH4 0xFFFFFFFF AND JUMP JUMPDEST PUSH2 0x1847 SWAP1 SWAP2 SWAP1 PUSH4 0xFFFFFFFF AND JUMP JUMPDEST SWAP5 POP POP POP POP POP SWAP3 SWAP2 POP POP JUMP JUMPDEST PUSH1 0x2 PUSH1 0x0 SWAP1 SLOAD SWAP1 PUSH2 0x100 EXP SWAP1 DIV PUSH20 0xFFFFFFFFFFFFFFFFFFFFFFFFFFFFFFFFFFFFFFFF AND DUP2 JUMP JUMPDEST PUSH1 0x5 SLOAD DUP2 JUMP JUMPDEST PUSH1 0x3 PUSH1 0x0 SWAP1 SLOAD SWAP1 PUSH2 0x100 EXP SWAP1 DIV PUSH20 0xFFFFFFFFFFFFFFFFFFFFFFFFFFFFFFFFFFFFFFFF AND DUP2 JUMP JUMPDEST PUSH1 0x2 PUSH1 0x1 SLOAD EQ ISZERO PUSH2 0x142A JUMPI PUSH1 0x40 MLOAD PUSH32 0x8C379A000000000000000000000000000000000000000000000000000000000 DUP2 MSTORE PUSH1 0x4 ADD PUSH2 0x1421 SWAP1 PUSH2 0x24E0 JUMP JUMPDEST PUSH1 0x40 MLOAD DUP1 SWAP2 SUB SWAP1 REVERT JUMPDEST PUSH1 0x2 PUSH1 0x1 DUP2 SWAP1 SSTORE POP PUSH1 0x0 PUSH1 0x6 DUP4 DUP2 SLOAD DUP2 LT PUSH2 0x1448 JUMPI PUSH2 0x1447 PUSH2 0x231C JUMP JUMPDEST JUMPDEST SWAP1 PUSH1 0x0 MSTORE PUSH1 0x20 PUSH1 0x0 KECCAK256 SWAP1 PUSH1 0x4 MUL ADD SWAP1 POP PUSH1 0x0 PUSH1 0x7 PUSH1 0x0 DUP6 DUP2 MSTORE PUSH1 0x20 ADD SWAP1 DUP2 MSTORE PUSH1 0x20 ADD PUSH1 0x0 KECCAK256 PUSH1 0x0 CALLER PUSH20 0xFFFFFFFFFFFFFFFFFFFFFFFFFFFFFFFFFFFFFFFF AND PUSH20 0xFFFFFFFFFFFFFFFFFFFFFFFFFFFFFFFFFFFFFFFF AND DUP2 MSTORE PUSH1 0x20 ADD SWAP1 DUP2 MSTORE PUSH1 0x20 ADD PUSH1 0x0 KECCAK256 SWAP1 POP PUSH2 0x14B5 DUP5 PUSH2 0xBE3 JUMP JUMPDEST PUSH1 0x0 PUSH2 0x14FF DUP3 PUSH1 0x1 ADD SLOAD PUSH2 0x14F1 PUSH5 0xE8D4A51000 PUSH2 0x14E3 DUP8 PUSH1 0x3 ADD SLOAD DUP8 PUSH1 0x0 ADD SLOAD PUSH2 0x181B SWAP1 SWAP2 SWAP1 PUSH4 0xFFFFFFFF AND JUMP JUMPDEST PUSH2 0x1831 SWAP1 SWAP2 SWAP1 PUSH4 0xFFFFFFFF AND JUMP JUMPDEST PUSH2 0x1847 SWAP1 SWAP2 SWAP1 PUSH4 0xFFFFFFFF AND JUMP JUMPDEST SWAP1 POP PUSH2 0x1518 DUP5 DUP4 PUSH1 0x0 ADD SLOAD PUSH2 0x1724 SWAP1 SWAP2 SWAP1 PUSH4 0xFFFFFFFF AND JUMP JUMPDEST DUP3 PUSH1 0x0 ADD DUP2 SWAP1 SSTORE POP PUSH2 0x1552 PUSH5 0xE8D4A51000 PUSH2 0x1544 DUP6 PUSH1 0x3 ADD SLOAD DUP6 PUSH1 0x0 ADD SLOAD PUSH2 0x181B SWAP1 SWAP2 SWAP1 PUSH4 0xFFFFFFFF AND JUMP JUMPDEST PUSH2 0x1831 SWAP1 SWAP2 SWAP1 PUSH4 0xFFFFFFFF AND JUMP JUMPDEST DUP3 PUSH1 0x1 ADD DUP2 SWAP1 SSTORE POP PUSH1 0x0 DUP2 GT ISZERO PUSH2 0x156E JUMPI PUSH2 0x156D CALLER DUP3 PUSH2 0x185D JUMP JUMPDEST JUMPDEST PUSH2 0x15BF CALLER ADDRESS DUP7 DUP7 PUSH1 0x0 ADD PUSH1 0x0 SWAP1 SLOAD SWAP1 PUSH2 0x100 EXP SWAP1 DIV PUSH20 0xFFFFFFFFFFFFFFFFFFFFFFFFFFFFFFFFFFFFFFFF AND PUSH20 0xFFFFFFFFFFFFFFFFFFFFFFFFFFFFFFFFFFFFFFFF AND PUSH2 0x1B9C SWAP1 SWAP4 SWAP3 SWAP2 SWAP1 PUSH4 0xFFFFFFFF AND JUMP JUMPDEST DUP5 CALLER PUSH20 0xFFFFFFFFFFFFFFFFFFFFFFFFFFFFFFFFFFFFFFFF AND PUSH32 0x90890809C654F11D6E72A28FA60149770A0D11EC6C92319D6CEB2BB0A4EA1A15 DUP7 PUSH1 0x40 MLOAD PUSH2 0x1606 SWAP2 SWAP1 PUSH2 0x1F21 JUMP JUMPDEST PUSH1 0x40 MLOAD DUP1 SWAP2 SUB SWAP1 LOG3 POP POP POP PUSH1 0x1 DUP1 DUP2 SWAP1 SSTORE POP POP POP JUMP JUMPDEST PUSH2 0x1624 PUSH2 0x16A6 JUMP JUMPDEST PUSH1 0x0 PUSH20 0xFFFFFFFFFFFFFFFFFFFFFFFFFFFFFFFFFFFFFFFF AND DUP2 PUSH20 0xFFFFFFFFFFFFFFFFFFFFFFFFFFFFFFFFFFFFFFFF AND EQ ISZERO PUSH2 0x1694 JUMPI PUSH1 0x40 MLOAD PUSH32 0x8C379A000000000000000000000000000000000000000000000000000000000 DUP2 MSTORE PUSH1 0x4 ADD PUSH2 0x168B SWAP1 PUSH2 0x26D5 JUMP JUMPDEST PUSH1 0x40 MLOAD DUP1 SWAP2 SUB SWAP1 REVERT JUMPDEST PUSH2 0x169D DUP2 PUSH2 0x1AD8 JUMP JUMPDEST POP JUMP JUMPDEST PUSH2 0xFA0 DUP2 JUMP JUMPDEST PUSH2 0x16AE PUSH2 0x1C25 JUMP JUMPDEST PUSH20 0xFFFFFFFFFFFFFFFFFFFFFFFFFFFFFFFFFFFFFFFF AND PUSH2 0x16CC PUSH2 0x106E JUMP JUMPDEST PUSH20 0xFFFFFFFFFFFFFFFFFFFFFFFFFFFFFFFFFFFFFFFF AND EQ PUSH2 0x1722 JUMPI PUSH1 0x40 MLOAD PUSH32 0x8C379A000000000000000000000000000000000000000000000000000000000 DUP2 MSTORE PUSH1 0x4 ADD PUSH2 0x1719 SWAP1 PUSH2 0x2741 JUMP JUMPDEST PUSH1 0x40 MLOAD DUP1 SWAP2 SUB SWAP1 REVERT JUMPDEST JUMP JUMPDEST PUSH1 0x0 DUP2 DUP4 PUSH2 0x1732 SWAP2 SWAP1 PUSH2 0x23AE JUMP JUMPDEST SWAP1 POP SWAP3 SWAP2 POP POP JUMP JUMPDEST PUSH1 0x0 PUSH1 0x6 DUP1 SLOAD SWAP1 POP SWAP1 POP PUSH1 0x0 JUMPDEST DUP2 DUP2 LT ISZERO PUSH2 0x1816 JUMPI DUP3 PUSH20 0xFFFFFFFFFFFFFFFFFFFFFFFFFFFFFFFFFFFFFFFF AND PUSH1 0x6 DUP3 DUP2 SLOAD DUP2 LT PUSH2 0x177A JUMPI PUSH2 0x1779 PUSH2 0x231C JUMP JUMPDEST JUMPDEST SWAP1 PUSH1 0x0 MSTORE PUSH1 0x20 PUSH1 0x0 KECCAK256 SWAP1 PUSH1 0x4 MUL ADD PUSH1 0x0 ADD PUSH1 0x0 SWAP1 SLOAD SWAP1 PUSH2 0x100 EXP SWAP1 DIV PUSH20 0xFFFFFFFFFFFFFFFFFFFFFFFFFFFFFFFFFFFFFFFF AND PUSH20 0xFFFFFFFFFFFFFFFFFFFFFFFFFFFFFFFFFFFFFFFF AND EQ ISZERO PUSH2 0x1803 JUMPI PUSH1 0x40 MLOAD PUSH32 0x8C379A000000000000000000000000000000000000000000000000000000000 DUP2 MSTORE PUSH1 0x4 ADD PUSH2 0x17FA SWAP1 PUSH2 0x27AD JUMP JUMPDEST PUSH1 0x40 MLOAD DUP1 SWAP2 SUB SWAP1 REVERT JUMPDEST DUP1 DUP1 PUSH2 0x180E SWAP1 PUSH2 0x261A JUMP JUMPDEST SWAP2 POP POP PUSH2 0x1747 JUMP JUMPDEST POP POP POP JUMP JUMPDEST PUSH1 0x0 DUP2 DUP4 PUSH2 0x1829 SWAP2 SWAP1 PUSH2 0x27CD JUMP JUMPDEST SWAP1 POP SWAP3 SWAP2 POP POP JUMP JUMPDEST PUSH1 0x0 DUP2 DUP4 PUSH2 0x183F SWAP2 SWAP1 PUSH2 0x2856 JUMP JUMPDEST SWAP1 POP SWAP3 SWAP2 POP POP JUMP JUMPDEST PUSH1 0x0 DUP2 DUP4 PUSH2 0x1855 SWAP2 SWAP1 PUSH2 0x237A JUMP JUMPDEST SWAP1 POP SWAP3 SWAP2 POP POP JUMP JUMPDEST PUSH1 0x0 PUSH1 0x2 PUSH1 0x0 SWAP1 SLOAD SWAP1 PUSH2 0x100 EXP SWAP1 DIV PUSH20 0xFFFFFFFFFFFFFFFFFFFFFFFFFFFFFFFFFFFFFFFF AND PUSH20 0xFFFFFFFFFFFFFFFFFFFFFFFFFFFFFFFFFFFFFFFF AND PUSH4 0x70A08231 ADDRESS PUSH1 0x40 MLOAD DUP3 PUSH4 0xFFFFFFFF AND PUSH1 0xE0 SHL DUP2 MSTORE PUSH1 0x4 ADD PUSH2 0x18BA SWAP2 SWAP1 PUSH2 0x2115 JUMP JUMPDEST PUSH1 0x20 PUSH1 0x40 MLOAD DUP1 DUP4 SUB DUP2 DUP7 GAS STATICCALL ISZERO DUP1 ISZERO PUSH2 0x18D7 JUMPI RETURNDATASIZE PUSH1 0x0 DUP1 RETURNDATACOPY RETURNDATASIZE PUSH1 0x0 REVERT JUMPDEST POP POP POP POP PUSH1 0x40 MLOAD RETURNDATASIZE PUSH1 0x1F NOT PUSH1 0x1F DUP3 ADD AND DUP3 ADD DUP1 PUSH1 0x40 MSTORE POP DUP2 ADD SWAP1 PUSH2 0x18FB SWAP2 SWAP1 PUSH2 0x25ED JUMP JUMPDEST SWAP1 POP DUP1 DUP3 GT ISZERO PUSH2 0x19AB JUMPI PUSH1 0x2 PUSH1 0x0 SWAP1 SLOAD SWAP1 PUSH2 0x100 EXP SWAP1 DIV PUSH20 0xFFFFFFFFFFFFFFFFFFFFFFFFFFFFFFFFFFFFFFFF AND PUSH20 0xFFFFFFFFFFFFFFFFFFFFFFFFFFFFFFFFFFFFFFFF AND PUSH4 0xA9059CBB DUP5 DUP4 PUSH1 0x40 MLOAD DUP4 PUSH4 0xFFFFFFFF AND PUSH1 0xE0 SHL DUP2 MSTORE PUSH1 0x4 ADD PUSH2 0x1962 SWAP3 SWAP2 SWAP1 PUSH2 0x2887 JUMP JUMPDEST PUSH1 0x20 PUSH1 0x40 MLOAD DUP1 DUP4 SUB DUP2 PUSH1 0x0 DUP8 GAS CALL ISZERO DUP1 ISZERO PUSH2 0x1981 JUMPI RETURNDATASIZE PUSH1 0x0 DUP1 RETURNDATACOPY RETURNDATASIZE PUSH1 0x0 REVERT JUMPDEST POP POP POP POP PUSH1 0x40 MLOAD RETURNDATASIZE PUSH1 0x1F NOT PUSH1 0x1F DUP3 ADD AND DUP3 ADD DUP1 PUSH1 0x40 MSTORE POP DUP2 ADD SWAP1 PUSH2 0x19A5 SWAP2 SWAP1 PUSH2 0x2467 JUMP JUMPDEST POP PUSH2 0x1A4D JUMP JUMPDEST PUSH1 0x2 PUSH1 0x0 SWAP1 SLOAD SWAP1 PUSH2 0x100 EXP SWAP1 DIV PUSH20 0xFFFFFFFFFFFFFFFFFFFFFFFFFFFFFFFFFFFFFFFF AND PUSH20 0xFFFFFFFFFFFFFFFFFFFFFFFFFFFFFFFFFFFFFFFF AND PUSH4 0xA9059CBB DUP5 DUP5 PUSH1 0x40 MLOAD DUP4 PUSH4 0xFFFFFFFF AND PUSH1 0xE0 SHL DUP2 MSTORE PUSH1 0x4 ADD PUSH2 0x1A08 SWAP3 SWAP2 SWAP1 PUSH2 0x2887 JUMP JUMPDEST PUSH1 0x20 PUSH1 0x40 MLOAD DUP1 DUP4 SUB DUP2 PUSH1 0x0 DUP8 GAS CALL ISZERO DUP1 ISZERO PUSH2 0x1A27 JUMPI RETURNDATASIZE PUSH1 0x0 DUP1 RETURNDATACOPY RETURNDATASIZE PUSH1 0x0 REVERT JUMPDEST POP POP POP POP PUSH1 0x40 MLOAD RETURNDATASIZE PUSH1 0x1F NOT PUSH1 0x1F DUP3 ADD AND DUP3 ADD DUP1 PUSH1 0x40 MSTORE POP DUP2 ADD SWAP1 PUSH2 0x1A4B SWAP2 SWAP1 PUSH2 0x2467 JUMP JUMPDEST POP JUMPDEST POP POP POP JUMP JUMPDEST PUSH2 0x1AD3 DUP4 PUSH4 0xA9059CBB PUSH1 0xE0 SHL DUP5 DUP5 PUSH1 0x40 MLOAD PUSH1 0x24 ADD PUSH2 0x1A71 SWAP3 SWAP2 SWAP1 PUSH2 0x2887 JUMP JUMPDEST PUSH1 0x40 MLOAD PUSH1 0x20 DUP2 DUP4 SUB SUB DUP2 MSTORE SWAP1 PUSH1 0x40 MSTORE SWAP1 PUSH28 0xFFFFFFFFFFFFFFFFFFFFFFFFFFFFFFFFFFFFFFFFFFFFFFFFFFFFFFFF NOT AND PUSH1 0x20 DUP3 ADD DUP1 MLOAD PUSH28 0xFFFFFFFFFFFFFFFFFFFFFFFFFFFFFFFFFFFFFFFFFFFFFFFFFFFFFFFF DUP4 DUP2 DUP4 AND OR DUP4 MSTORE POP POP POP POP PUSH2 0x1C2D JUMP JUMPDEST POP POP POP JUMP JUMPDEST PUSH1 0x0 DUP1 PUSH1 0x0 SWAP1 SLOAD SWAP1 PUSH2 0x100 EXP SWAP1 DIV PUSH20 0xFFFFFFFFFFFFFFFFFFFFFFFFFFFFFFFFFFFFFFFF AND SWAP1 POP DUP2 PUSH1 0x0 DUP1 PUSH2 0x100 EXP DUP2 SLOAD DUP2 PUSH20 0xFFFFFFFFFFFFFFFFFFFFFFFFFFFFFFFFFFFFFFFF MUL NOT AND SWAP1 DUP4 PUSH20 0xFFFFFFFFFFFFFFFFFFFFFFFFFFFFFFFFFFFFFFFF AND MUL OR SWAP1 SSTORE POP DUP2 PUSH20 0xFFFFFFFFFFFFFFFFFFFFFFFFFFFFFFFFFFFFFFFF AND DUP2 PUSH20 0xFFFFFFFFFFFFFFFFFFFFFFFFFFFFFFFFFFFFFFFF AND PUSH32 0x8BE0079C531659141344CD1FD0A4F28419497F9722A3DAAFE3B4186F6B6457E0 PUSH1 0x40 MLOAD PUSH1 0x40 MLOAD DUP1 SWAP2 SUB SWAP1 LOG3 POP POP JUMP JUMPDEST PUSH2 0x1C1F DUP5 PUSH4 0x23B872DD PUSH1 0xE0 SHL DUP6 DUP6 DUP6 PUSH1 0x40 MLOAD PUSH1 0x24 ADD PUSH2 0x1BBD SWAP4 SWAP3 SWAP2 SWAP1 PUSH2 0x2404 JUMP JUMPDEST PUSH1 0x40 MLOAD PUSH1 0x20 DUP2 DUP4 SUB SUB DUP2 MSTORE SWAP1 PUSH1 0x40 MSTORE SWAP1 PUSH28 0xFFFFFFFFFFFFFFFFFFFFFFFFFFFFFFFFFFFFFFFFFFFFFFFFFFFFFFFF NOT AND PUSH1 0x20 DUP3 ADD DUP1 MLOAD PUSH28 0xFFFFFFFFFFFFFFFFFFFFFFFFFFFFFFFFFFFFFFFFFFFFFFFFFFFFFFFF DUP4 DUP2 DUP4 AND OR DUP4 MSTORE POP POP POP POP PUSH2 0x1C2D JUMP JUMPDEST POP POP POP POP JUMP JUMPDEST PUSH1 0x0 CALLER SWAP1 POP SWAP1 JUMP JUMPDEST PUSH1 0x0 PUSH2 0x1C8F DUP3 PUSH1 0x40 MLOAD DUP1 PUSH1 0x40 ADD PUSH1 0x40 MSTORE DUP1 PUSH1 0x20 DUP2 MSTORE PUSH1 0x20 ADD PUSH32 0x5361666545524332303A206C6F772D6C6576656C2063616C6C206661696C6564 DUP2 MSTORE POP DUP6 PUSH20 0xFFFFFFFFFFFFFFFFFFFFFFFFFFFFFFFFFFFFFFFF AND PUSH2 0x1CF4 SWAP1 SWAP3 SWAP2 SWAP1 PUSH4 0xFFFFFFFF AND JUMP JUMPDEST SWAP1 POP PUSH1 0x0 DUP2 MLOAD GT ISZERO PUSH2 0x1CEF JUMPI DUP1 DUP1 PUSH1 0x20 ADD SWAP1 MLOAD DUP2 ADD SWAP1 PUSH2 0x1CAF SWAP2 SWAP1 PUSH2 0x2467 JUMP JUMPDEST PUSH2 0x1CEE JUMPI PUSH1 0x40 MLOAD PUSH32 0x8C379A000000000000000000000000000000000000000000000000000000000 DUP2 MSTORE PUSH1 0x4 ADD PUSH2 0x1CE5 SWAP1 PUSH2 0x2922 JUMP JUMPDEST PUSH1 0x40 MLOAD DUP1 SWAP2 SUB SWAP1 REVERT JUMPDEST JUMPDEST POP POP POP JUMP JUMPDEST PUSH1 0x60 PUSH2 0x1D03 DUP5 DUP5 PUSH1 0x0 DUP6 PUSH2 0x1D0C JUMP JUMPDEST SWAP1 POP SWAP4 SWAP3 POP POP POP JUMP JUMPDEST PUSH1 0x60 DUP3 SELFBALANCE LT ISZERO PUSH2 0x1D51 JUMPI PUSH1 0x40 MLOAD PUSH32 0x8C379A000000000000000000000000000000000000000000000000000000000 DUP2 MSTORE PUSH1 0x4 ADD PUSH2 0x1D48 SWAP1 PUSH2 0x29B4 JUMP JUMPDEST PUSH1 0x40 MLOAD DUP1 SWAP2 SUB SWAP1 REVERT JUMPDEST PUSH2 0x1D5A DUP6 PUSH2 0x1E20 JUMP JUMPDEST PUSH2 0x1D99 JUMPI PUSH1 0x40 MLOAD PUSH32 0x8C379A000000000000000000000000000000000000000000000000000000000 DUP2 MSTORE PUSH1 0x4 ADD PUSH2 0x1D90 SWAP1 PUSH2 0x2A20 JUMP JUMPDEST PUSH1 0x40 MLOAD DUP1 SWAP2 SUB SWAP1 REVERT JUMPDEST PUSH1 0x0 DUP1 DUP7 PUSH20 0xFFFFFFFFFFFFFFFFFFFFFFFFFFFFFFFFFFFFFFFF AND DUP6 DUP8 PUSH1 0x40 MLOAD PUSH2 0x1DC2 SWAP2 SWAP1 PUSH2 0x2ABA JUMP JUMPDEST PUSH1 0x0 PUSH1 0x40 MLOAD DUP1 DUP4 SUB DUP2 DUP6 DUP8 GAS CALL SWAP3 POP POP POP RETURNDATASIZE DUP1 PUSH1 0x0 DUP2 EQ PUSH2 0x1DFF JUMPI PUSH1 0x40 MLOAD SWAP2 POP PUSH1 0x1F NOT PUSH1 0x3F RETURNDATASIZE ADD AND DUP3 ADD PUSH1 0x40 MSTORE RETURNDATASIZE DUP3 MSTORE RETURNDATASIZE PUSH1 0x0 PUSH1 0x20 DUP5 ADD RETURNDATACOPY PUSH2 0x1E04 JUMP JUMPDEST PUSH1 0x60 SWAP2 POP JUMPDEST POP SWAP2 POP SWAP2 POP PUSH2 0x1E14 DUP3 DUP3 DUP7 PUSH2 0x1E43 JUMP JUMPDEST SWAP3 POP POP POP SWAP5 SWAP4 POP POP POP POP JUMP JUMPDEST PUSH1 0x0 DUP1 DUP3 PUSH20 0xFFFFFFFFFFFFFFFFFFFFFFFFFFFFFFFFFFFFFFFF AND EXTCODESIZE GT SWAP1 POP SWAP2 SWAP1 POP JUMP JUMPDEST PUSH1 0x60 DUP4 ISZERO PUSH2 0x1E53 JUMPI DUP3 SWAP1 POP PUSH2 0x1EA3 JUMP JUMPDEST PUSH1 0x0 DUP4 MLOAD GT ISZERO PUSH2 0x1E66 JUMPI DUP3 MLOAD DUP1 DUP5 PUSH1 0x20 ADD REVERT JUMPDEST DUP2 PUSH1 0x40 MLOAD PUSH32 0x8C379A000000000000000000000000000000000000000000000000000000000 DUP2 MSTORE PUSH1 0x4 ADD PUSH2 0x1E9A SWAP2 SWAP1 PUSH2 0x2B26 JUMP JUMPDEST PUSH1 0x40 MLOAD DUP1 SWAP2 SUB SWAP1 REVERT JUMPDEST SWAP4 SWAP3 POP POP POP JUMP JUMPDEST PUSH1 0x0 DUP1 REVERT JUMPDEST PUSH1 0x0 DUP2 SWAP1 POP SWAP2 SWAP1 POP JUMP JUMPDEST PUSH2 0x1EC2 DUP2 PUSH2 0x1EAF JUMP JUMPDEST DUP2 EQ PUSH2 0x1ECD JUMPI PUSH1 0x0 DUP1 REVERT JUMPDEST POP JUMP JUMPDEST PUSH1 0x0 DUP2 CALLDATALOAD SWAP1 POP PUSH2 0x1EDF DUP2 PUSH2 0x1EB9 JUMP JUMPDEST SWAP3 SWAP2 POP POP JUMP JUMPDEST PUSH1 0x0 PUSH1 0x20 DUP3 DUP5 SUB SLT ISZERO PUSH2 0x1EFB JUMPI PUSH2 0x1EFA PUSH2 0x1EAA JUMP JUMPDEST JUMPDEST PUSH1 0x0 PUSH2 0x1F09 DUP5 DUP3 DUP6 ADD PUSH2 0x1ED0 JUMP JUMPDEST SWAP2 POP POP SWAP3 SWAP2 POP POP JUMP JUMPDEST PUSH2 0x1F1B DUP2 PUSH2 0x1EAF JUMP JUMPDEST DUP3 MSTORE POP POP JUMP JUMPDEST PUSH1 0x0 PUSH1 0x20 DUP3 ADD SWAP1 POP PUSH2 0x1F36 PUSH1 0x0 DUP4 ADD DUP5 PUSH2 0x1F12 JUMP JUMPDEST SWAP3 SWAP2 POP POP JUMP JUMPDEST PUSH1 0x0 PUSH20 0xFFFFFFFFFFFFFFFFFFFFFFFFFFFFFFFFFFFFFFFF DUP3 AND SWAP1 POP SWAP2 SWAP1 POP JUMP JUMPDEST PUSH1 0x0 DUP2 SWAP1 POP SWAP2 SWAP1 POP JUMP JUMPDEST PUSH1 0x0 PUSH2 0x1F81 PUSH2 0x1F7C PUSH2 0x1F77 DUP5 PUSH2 0x1F3C JUMP JUMPDEST PUSH2 0x1F5C JUMP JUMPDEST PUSH2 0x1F3C JUMP JUMPDEST SWAP1 POP SWAP2 SWAP1 POP JUMP JUMPDEST PUSH1 0x0 PUSH2 0x1F93 DUP3 PUSH2 0x1F66 JUMP JUMPDEST SWAP1 POP SWAP2 SWAP1 POP JUMP JUMPDEST PUSH1 0x0 PUSH2 0x1FA5 DUP3 PUSH2 0x1F88 JUMP JUMPDEST SWAP1 POP SWAP2 SWAP1 POP JUMP JUMPDEST PUSH2 0x1FB5 DUP2 PUSH2 0x1F9A JUMP JUMPDEST DUP3 MSTORE POP POP JUMP JUMPDEST PUSH1 0x0 PUSH1 0x80 DUP3 ADD SWAP1 POP PUSH2 0x1FD0 PUSH1 0x0 DUP4 ADD DUP8 PUSH2 0x1FAC JUMP JUMPDEST PUSH2 0x1FDD PUSH1 0x20 DUP4 ADD DUP7 PUSH2 0x1F12 JUMP JUMPDEST PUSH2 0x1FEA PUSH1 0x40 DUP4 ADD DUP6 PUSH2 0x1F12 JUMP JUMPDEST PUSH2 0x1FF7 PUSH1 0x60 DUP4 ADD DUP5 PUSH2 0x1F12 JUMP JUMPDEST SWAP6 SWAP5 POP POP POP POP POP JUMP JUMPDEST PUSH1 0x0 DUP1 PUSH1 0x40 DUP4 DUP6 SUB SLT ISZERO PUSH2 0x2017 JUMPI PUSH2 0x2016 PUSH2 0x1EAA JUMP JUMPDEST JUMPDEST PUSH1 0x0 PUSH2 0x2025 DUP6 DUP3 DUP7 ADD PUSH2 0x1ED0 JUMP JUMPDEST SWAP3 POP POP PUSH1 0x20 PUSH2 0x2036 DUP6 DUP3 DUP7 ADD PUSH2 0x1ED0 JUMP JUMPDEST SWAP2 POP POP SWAP3 POP SWAP3 SWAP1 POP JUMP JUMPDEST PUSH1 0x0 PUSH2 0x204B DUP3 PUSH2 0x1F3C JUMP JUMPDEST SWAP1 POP SWAP2 SWAP1 POP JUMP JUMPDEST PUSH1 0x0 PUSH2 0x205D DUP3 PUSH2 0x2040 JUMP JUMPDEST SWAP1 POP SWAP2 SWAP1 POP JUMP JUMPDEST PUSH2 0x206D DUP2 PUSH2 0x2052 JUMP JUMPDEST DUP2 EQ PUSH2 0x2078 JUMPI PUSH1 0x0 DUP1 REVERT JUMPDEST POP JUMP JUMPDEST PUSH1 0x0 DUP2 CALLDATALOAD SWAP1 POP PUSH2 0x208A DUP2 PUSH2 0x2064 JUMP JUMPDEST SWAP3 SWAP2 POP POP JUMP JUMPDEST PUSH1 0x0 DUP1 PUSH1 0x40 DUP4 DUP6 SUB SLT ISZERO PUSH2 0x20A7 JUMPI PUSH2 0x20A6 PUSH2 0x1EAA JUMP JUMPDEST JUMPDEST PUSH1 0x0 PUSH2 0x20B5 DUP6 DUP3 DUP7 ADD PUSH2 0x1ED0 JUMP JUMPDEST SWAP3 POP POP PUSH1 0x20 PUSH2 0x20C6 DUP6 DUP3 DUP7 ADD PUSH2 0x207B JUMP JUMPDEST SWAP2 POP POP SWAP3 POP SWAP3 SWAP1 POP JUMP JUMPDEST PUSH1 0x0 DUP2 ISZERO ISZERO SWAP1 POP SWAP2 SWAP1 POP JUMP JUMPDEST PUSH2 0x20E5 DUP2 PUSH2 0x20D0 JUMP JUMPDEST DUP3 MSTORE POP POP JUMP JUMPDEST PUSH1 0x0 PUSH1 0x20 DUP3 ADD SWAP1 POP PUSH2 0x2100 PUSH1 0x0 DUP4 ADD DUP5 PUSH2 0x20DC JUMP JUMPDEST SWAP3 SWAP2 POP POP JUMP JUMPDEST PUSH2 0x210F DUP2 PUSH2 0x2040 JUMP JUMPDEST DUP3 MSTORE POP POP JUMP JUMPDEST PUSH1 0x0 PUSH1 0x20 DUP3 ADD SWAP1 POP PUSH2 0x212A PUSH1 0x0 DUP4 ADD DUP5 PUSH2 0x2106 JUMP JUMPDEST SWAP3 SWAP2 POP POP JUMP JUMPDEST PUSH2 0x2139 DUP2 PUSH2 0x2040 JUMP JUMPDEST DUP2 EQ PUSH2 0x2144 JUMPI PUSH1 0x0 DUP1 REVERT JUMPDEST POP JUMP JUMPDEST PUSH1 0x0 DUP2 CALLDATALOAD SWAP1 POP PUSH2 0x2156 DUP2 PUSH2 0x2130 JUMP JUMPDEST SWAP3 SWAP2 POP POP JUMP JUMPDEST PUSH1 0x0 DUP1 PUSH1 0x40 DUP4 DUP6 SUB SLT ISZERO PUSH2 0x2173 JUMPI PUSH2 0x2172 PUSH2 0x1EAA JUMP JUMPDEST JUMPDEST PUSH1 0x0 PUSH2 0x2181 DUP6 DUP3 DUP7 ADD PUSH2 0x1ED0 JUMP JUMPDEST SWAP3 POP POP PUSH1 0x20 PUSH2 0x2192 DUP6 DUP3 DUP7 ADD PUSH2 0x2147 JUMP JUMPDEST SWAP2 POP POP SWAP3 POP SWAP3 SWAP1 POP JUMP JUMPDEST PUSH1 0x0 PUSH1 0x40 DUP3 ADD SWAP1 POP PUSH2 0x21B1 PUSH1 0x0 DUP4 ADD DUP6 PUSH2 0x1F12 JUMP JUMPDEST PUSH2 0x21BE PUSH1 0x20 DUP4 ADD DUP5 PUSH2 0x1F12 JUMP JUMPDEST SWAP4 SWAP3 POP POP POP JUMP JUMPDEST PUSH1 0x0 PUSH1 0x20 DUP3 ADD SWAP1 POP PUSH2 0x21DA PUSH1 0x0 DUP4 ADD DUP5 PUSH2 0x1FAC JUMP JUMPDEST SWAP3 SWAP2 POP POP JUMP JUMPDEST PUSH1 0x0 PUSH1 0x20 DUP3 DUP5 SUB SLT ISZERO PUSH2 0x21F6 JUMPI PUSH2 0x21F5 PUSH2 0x1EAA JUMP JUMPDEST JUMPDEST PUSH1 0x0 PUSH2 0x2204 DUP5 DUP3 DUP6 ADD PUSH2 0x2147 JUMP JUMPDEST SWAP2 POP POP SWAP3 SWAP2 POP POP JUMP JUMPDEST PUSH1 0x0 DUP3 DUP3 MSTORE PUSH1 0x20 DUP3 ADD SWAP1 POP SWAP3 SWAP2 POP POP JUMP JUMPDEST PUSH32 0x736574574554485065725365636F6E643A20746F6F206D616E79205745544873 PUSH1 0x0 DUP3 ADD MSTORE PUSH32 0x2100000000000000000000000000000000000000000000000000000000000000 PUSH1 0x20 DUP3 ADD MSTORE POP JUMP JUMPDEST PUSH1 0x0 PUSH2 0x227A PUSH1 0x21 DUP4 PUSH2 0x220D JUMP JUMPDEST SWAP2 POP PUSH2 0x2285 DUP3 PUSH2 0x221E JUMP JUMPDEST PUSH1 0x40 DUP3 ADD SWAP1 POP SWAP2 SWAP1 POP JUMP JUMPDEST PUSH1 0x0 PUSH1 0x20 DUP3 ADD SWAP1 POP DUP2 DUP2 SUB PUSH1 0x0 DUP4 ADD MSTORE PUSH2 0x22A9 DUP2 PUSH2 0x226D JUMP JUMPDEST SWAP1 POP SWAP2 SWAP1 POP JUMP JUMPDEST PUSH32 0x6164643A20746F6F206D616E7920616C6C6F6320706F696E7473212100000000 PUSH1 0x0 DUP3 ADD MSTORE POP JUMP JUMPDEST PUSH1 0x0 PUSH2 0x22E6 PUSH1 0x1C DUP4 PUSH2 0x220D JUMP JUMPDEST SWAP2 POP PUSH2 0x22F1 DUP3 PUSH2 0x22B0 JUMP JUMPDEST PUSH1 0x20 DUP3 ADD SWAP1 POP SWAP2 SWAP1 POP JUMP JUMPDEST PUSH1 0x0 PUSH1 0x20 DUP3 ADD SWAP1 POP DUP2 DUP2 SUB PUSH1 0x0 DUP4 ADD MSTORE PUSH2 0x2315 DUP2 PUSH2 0x22D9 JUMP JUMPDEST SWAP1 POP SWAP2 SWAP1 POP JUMP JUMPDEST PUSH32 0x4E487B7100000000000000000000000000000000000000000000000000000000 PUSH1 0x0 MSTORE PUSH1 0x32 PUSH1 0x4 MSTORE PUSH1 0x24 PUSH1 0x0 REVERT JUMPDEST PUSH32 0x4E487B7100000000000000000000000000000000000000000000000000000000 PUSH1 0x0 MSTORE PUSH1 0x11 PUSH1 0x4 MSTORE PUSH1 0x24 PUSH1 0x0 REVERT JUMPDEST PUSH1 0x0 PUSH2 0x2385 DUP3 PUSH2 0x1EAF JUMP JUMPDEST SWAP2 POP PUSH2 0x2390 DUP4 PUSH2 0x1EAF JUMP JUMPDEST SWAP3 POP DUP3 DUP3 LT ISZERO PUSH2 0x23A3 JUMPI PUSH2 0x23A2 PUSH2 0x234B JUMP JUMPDEST JUMPDEST DUP3 DUP3 SUB SWAP1 POP SWAP3 SWAP2 POP POP JUMP JUMPDEST PUSH1 0x0 PUSH2 0x23B9 DUP3 PUSH2 0x1EAF JUMP JUMPDEST SWAP2 POP PUSH2 0x23C4 DUP4 PUSH2 0x1EAF JUMP JUMPDEST SWAP3 POP DUP3 PUSH32 0xFFFFFFFFFFFFFFFFFFFFFFFFFFFFFFFFFFFFFFFFFFFFFFFFFFFFFFFFFFFFFFFF SUB DUP3 GT ISZERO PUSH2 0x23F9 JUMPI PUSH2 0x23F8 PUSH2 0x234B JUMP JUMPDEST JUMPDEST DUP3 DUP3 ADD SWAP1 POP SWAP3 SWAP2 POP POP JUMP JUMPDEST PUSH1 0x0 PUSH1 0x60 DUP3 ADD SWAP1 POP PUSH2 0x2419 PUSH1 0x0 DUP4 ADD DUP7 PUSH2 0x2106 JUMP JUMPDEST PUSH2 0x2426 PUSH1 0x20 DUP4 ADD DUP6 PUSH2 0x2106 JUMP JUMPDEST PUSH2 0x2433 PUSH1 0x40 DUP4 ADD DUP5 PUSH2 0x1F12 JUMP JUMPDEST SWAP5 SWAP4 POP POP POP POP JUMP JUMPDEST PUSH2 0x2444 DUP2 PUSH2 0x20D0 JUMP JUMPDEST DUP2 EQ PUSH2 0x244F JUMPI PUSH1 0x0 DUP1 REVERT JUMPDEST POP JUMP JUMPDEST PUSH1 0x0 DUP2 MLOAD SWAP1 POP PUSH2 0x2461 DUP2 PUSH2 0x243B JUMP JUMPDEST SWAP3 SWAP2 POP POP JUMP JUMPDEST PUSH1 0x0 PUSH1 0x20 DUP3 DUP5 SUB SLT ISZERO PUSH2 0x247D JUMPI PUSH2 0x247C PUSH2 0x1EAA JUMP JUMPDEST JUMPDEST PUSH1 0x0 PUSH2 0x248B DUP5 DUP3 DUP6 ADD PUSH2 0x2452 JUMP JUMPDEST SWAP2 POP POP SWAP3 SWAP2 POP POP JUMP JUMPDEST PUSH32 0x5265656E7472616E637947756172643A207265656E7472616E742063616C6C00 PUSH1 0x0 DUP3 ADD MSTORE POP JUMP JUMPDEST PUSH1 0x0 PUSH2 0x24CA PUSH1 0x1F DUP4 PUSH2 0x220D JUMP JUMPDEST SWAP2 POP PUSH2 0x24D5 DUP3 PUSH2 0x2494 JUMP JUMPDEST PUSH1 0x20 DUP3 ADD SWAP1 POP SWAP2 SWAP1 POP JUMP JUMPDEST PUSH1 0x0 PUSH1 0x20 DUP3 ADD SWAP1 POP DUP2 DUP2 SUB PUSH1 0x0 DUP4 ADD MSTORE PUSH2 0x24F9 DUP2 PUSH2 0x24BD JUMP JUMPDEST SWAP1 POP SWAP2 SWAP1 POP JUMP JUMPDEST PUSH32 0x77697468647261773A206E6F7420676F6F640000000000000000000000000000 PUSH1 0x0 DUP3 ADD MSTORE POP JUMP JUMPDEST PUSH1 0x0 PUSH2 0x2536 PUSH1 0x12 DUP4 PUSH2 0x220D JUMP JUMPDEST SWAP2 POP PUSH2 0x2541 DUP3 PUSH2 0x2500 JUMP JUMPDEST PUSH1 0x20 DUP3 ADD SWAP1 POP SWAP2 SWAP1 POP JUMP JUMPDEST PUSH1 0x0 PUSH1 0x20 DUP3 ADD SWAP1 POP DUP2 DUP2 SUB PUSH1 0x0 DUP4 ADD MSTORE PUSH2 0x2565 DUP2 PUSH2 0x2529 JUMP JUMPDEST SWAP1 POP SWAP2 SWAP1 POP JUMP JUMPDEST PUSH32 0x7769746864726177206E6F74206F70656E656400000000000000000000000000 PUSH1 0x0 DUP3 ADD MSTORE POP JUMP JUMPDEST PUSH1 0x0 PUSH2 0x25A2 PUSH1 0x13 DUP4 PUSH2 0x220D JUMP JUMPDEST SWAP2 POP PUSH2 0x25AD DUP3 PUSH2 0x256C JUMP JUMPDEST PUSH1 0x20 DUP3 ADD SWAP1 POP SWAP2 SWAP1 POP JUMP JUMPDEST PUSH1 0x0 PUSH1 0x20 DUP3 ADD SWAP1 POP DUP2 DUP2 SUB PUSH1 0x0 DUP4 ADD MSTORE PUSH2 0x25D1 DUP2 PUSH2 0x2595 JUMP JUMPDEST SWAP1 POP SWAP2 SWAP1 POP JUMP JUMPDEST PUSH1 0x0 DUP2 MLOAD SWAP1 POP PUSH2 0x25E7 DUP2 PUSH2 0x1EB9 JUMP JUMPDEST SWAP3 SWAP2 POP POP JUMP JUMPDEST PUSH1 0x0 PUSH1 0x20 DUP3 DUP5 SUB SLT ISZERO PUSH2 0x2603 JUMPI PUSH2 0x2602 PUSH2 0x1EAA JUMP JUMPDEST JUMPDEST PUSH1 0x0 PUSH2 0x2611 DUP5 DUP3 DUP6 ADD PUSH2 0x25D8 JUMP JUMPDEST SWAP2 POP POP SWAP3 SWAP2 POP POP JUMP JUMPDEST PUSH1 0x0 PUSH2 0x2625 DUP3 PUSH2 0x1EAF JUMP JUMPDEST SWAP2 POP PUSH32 0xFFFFFFFFFFFFFFFFFFFFFFFFFFFFFFFFFFFFFFFFFFFFFFFFFFFFFFFFFFFFFFFF DUP3 EQ ISZERO PUSH2 0x2658 JUMPI PUSH2 0x2657 PUSH2 0x234B JUMP JUMPDEST JUMPDEST PUSH1 0x1 DUP3 ADD SWAP1 POP SWAP2 SWAP1 POP JUMP JUMPDEST PUSH32 0x4F776E61626C653A206E6577206F776E657220697320746865207A65726F2061 PUSH1 0x0 DUP3 ADD MSTORE PUSH32 0x6464726573730000000000000000000000000000000000000000000000000000 PUSH1 0x20 DUP3 ADD MSTORE POP JUMP JUMPDEST PUSH1 0x0 PUSH2 0x26BF PUSH1 0x26 DUP4 PUSH2 0x220D JUMP JUMPDEST SWAP2 POP PUSH2 0x26CA DUP3 PUSH2 0x2663 JUMP JUMPDEST PUSH1 0x40 DUP3 ADD SWAP1 POP SWAP2 SWAP1 POP JUMP JUMPDEST PUSH1 0x0 PUSH1 0x20 DUP3 ADD SWAP1 POP DUP2 DUP2 SUB PUSH1 0x0 DUP4 ADD MSTORE PUSH2 0x26EE DUP2 PUSH2 0x26B2 JUMP JUMPDEST SWAP1 POP SWAP2 SWAP1 POP JUMP JUMPDEST PUSH32 0x4F776E61626C653A2063616C6C6572206973206E6F7420746865206F776E6572 PUSH1 0x0 DUP3 ADD MSTORE POP JUMP JUMPDEST PUSH1 0x0 PUSH2 0x272B PUSH1 0x20 DUP4 PUSH2 0x220D JUMP JUMPDEST SWAP2 POP PUSH2 0x2736 DUP3 PUSH2 0x26F5 JUMP JUMPDEST PUSH1 0x20 DUP3 ADD SWAP1 POP SWAP2 SWAP1 POP JUMP JUMPDEST PUSH1 0x0 PUSH1 0x20 DUP3 ADD SWAP1 POP DUP2 DUP2 SUB PUSH1 0x0 DUP4 ADD MSTORE PUSH2 0x275A DUP2 PUSH2 0x271E JUMP JUMPDEST SWAP1 POP SWAP2 SWAP1 POP JUMP JUMPDEST PUSH32 0x6164643A20706F6F6C20616C7265616479206578697374732121212100000000 PUSH1 0x0 DUP3 ADD MSTORE POP JUMP JUMPDEST PUSH1 0x0 PUSH2 0x2797 PUSH1 0x1C DUP4 PUSH2 0x220D JUMP JUMPDEST SWAP2 POP PUSH2 0x27A2 DUP3 PUSH2 0x2761 JUMP JUMPDEST PUSH1 0x20 DUP3 ADD SWAP1 POP SWAP2 SWAP1 POP JUMP JUMPDEST PUSH1 0x0 PUSH1 0x20 DUP3 ADD SWAP1 POP DUP2 DUP2 SUB PUSH1 0x0 DUP4 ADD MSTORE PUSH2 0x27C6 DUP2 PUSH2 0x278A JUMP JUMPDEST SWAP1 POP SWAP2 SWAP1 POP JUMP JUMPDEST PUSH1 0x0 PUSH2 0x27D8 DUP3 PUSH2 0x1EAF JUMP JUMPDEST SWAP2 POP PUSH2 0x27E3 DUP4 PUSH2 0x1EAF JUMP JUMPDEST SWAP3 POP DUP2 PUSH32 0xFFFFFFFFFFFFFFFFFFFFFFFFFFFFFFFFFFFFFFFFFFFFFFFFFFFFFFFFFFFFFFFF DIV DUP4 GT DUP3 ISZERO ISZERO AND ISZERO PUSH2 0x281C JUMPI PUSH2 0x281B PUSH2 0x234B JUMP JUMPDEST JUMPDEST DUP3 DUP3 MUL SWAP1 POP SWAP3 SWAP2 POP POP JUMP JUMPDEST PUSH32 0x4E487B7100000000000000000000000000000000000000000000000000000000 PUSH1 0x0 MSTORE PUSH1 0x12 PUSH1 0x4 MSTORE PUSH1 0x24 PUSH1 0x0 REVERT JUMPDEST PUSH1 0x0 PUSH2 0x2861 DUP3 PUSH2 0x1EAF JUMP JUMPDEST SWAP2 POP PUSH2 0x286C DUP4 PUSH2 0x1EAF JUMP JUMPDEST SWAP3 POP DUP3 PUSH2 0x287C JUMPI PUSH2 0x287B PUSH2 0x2827 JUMP JUMPDEST JUMPDEST DUP3 DUP3 DIV SWAP1 POP SWAP3 SWAP2 POP POP JUMP JUMPDEST PUSH1 0x0 PUSH1 0x40 DUP3 ADD SWAP1 POP PUSH2 0x289C PUSH1 0x0 DUP4 ADD DUP6 PUSH2 0x2106 JUMP JUMPDEST PUSH2 0x28A9 PUSH1 0x20 DUP4 ADD DUP5 PUSH2 0x1F12 JUMP JUMPDEST SWAP4 SWAP3 POP POP POP JUMP JUMPDEST PUSH32 0x5361666545524332303A204552433230206F7065726174696F6E20646964206E PUSH1 0x0 DUP3 ADD MSTORE PUSH32 0x6F74207375636365656400000000000000000000000000000000000000000000 PUSH1 0x20 DUP3 ADD MSTORE POP JUMP JUMPDEST PUSH1 0x0 PUSH2 0x290C PUSH1 0x2A DUP4 PUSH2 0x220D JUMP JUMPDEST SWAP2 POP PUSH2 0x2917 DUP3 PUSH2 0x28B0 JUMP JUMPDEST PUSH1 0x40 DUP3 ADD SWAP1 POP SWAP2 SWAP1 POP JUMP JUMPDEST PUSH1 0x0 PUSH1 0x20 DUP3 ADD SWAP1 POP DUP2 DUP2 SUB PUSH1 0x0 DUP4 ADD MSTORE PUSH2 0x293B DUP2 PUSH2 0x28FF JUMP JUMPDEST SWAP1 POP SWAP2 SWAP1 POP JUMP JUMPDEST PUSH32 0x416464726573733A20696E73756666696369656E742062616C616E636520666F PUSH1 0x0 DUP3 ADD MSTORE PUSH32 0x722063616C6C0000000000000000000000000000000000000000000000000000 PUSH1 0x20 DUP3 ADD MSTORE POP JUMP JUMPDEST PUSH1 0x0 PUSH2 0x299E PUSH1 0x26 DUP4 PUSH2 0x220D JUMP JUMPDEST SWAP2 POP PUSH2 0x29A9 DUP3 PUSH2 0x2942 JUMP JUMPDEST PUSH1 0x40 DUP3 ADD SWAP1 POP SWAP2 SWAP1 POP JUMP JUMPDEST PUSH1 0x0 PUSH1 0x20 DUP3 ADD SWAP1 POP DUP2 DUP2 SUB PUSH1 0x0 DUP4 ADD MSTORE PUSH2 0x29CD DUP2 PUSH2 0x2991 JUMP JUMPDEST SWAP1 POP SWAP2 SWAP1 POP JUMP JUMPDEST PUSH32 0x416464726573733A2063616C6C20746F206E6F6E2D636F6E7472616374000000 PUSH1 0x0 DUP3 ADD MSTORE POP JUMP JUMPDEST PUSH1 0x0 PUSH2 0x2A0A PUSH1 0x1D DUP4 PUSH2 0x220D JUMP JUMPDEST SWAP2 POP PUSH2 0x2A15 DUP3 PUSH2 0x29D4 JUMP JUMPDEST PUSH1 0x20 DUP3 ADD SWAP1 POP SWAP2 SWAP1 POP JUMP JUMPDEST PUSH1 0x0 PUSH1 0x20 DUP3 ADD SWAP1 POP DUP2 DUP2 SUB PUSH1 0x0 DUP4 ADD MSTORE PUSH2 0x2A39 DUP2 PUSH2 0x29FD JUMP JUMPDEST SWAP1 POP SWAP2 SWAP1 POP JUMP JUMPDEST PUSH1 0x0 DUP2 MLOAD SWAP1 POP SWAP2 SWAP1 POP JUMP JUMPDEST PUSH1 0x0 DUP2 SWAP1 POP SWAP3 SWAP2 POP POP JUMP JUMPDEST PUSH1 0x0 JUMPDEST DUP4 DUP2 LT ISZERO PUSH2 0x2A74 JUMPI DUP1 DUP3 ADD MLOAD DUP2 DUP5 ADD MSTORE PUSH1 0x20 DUP2 ADD SWAP1 POP PUSH2 0x2A59 JUMP JUMPDEST DUP4 DUP2 GT ISZERO PUSH2 0x2A83 JUMPI PUSH1 0x0 DUP5 DUP5 ADD MSTORE JUMPDEST POP POP POP POP JUMP JUMPDEST PUSH1 0x0 PUSH2 0x2A94 DUP3 PUSH2 0x2A40 JUMP JUMPDEST PUSH2 0x2A9E DUP2 DUP6 PUSH2 0x2A4B JUMP JUMPDEST SWAP4 POP PUSH2 0x2AAE DUP2 DUP6 PUSH1 0x20 DUP7 ADD PUSH2 0x2A56 JUMP JUMPDEST DUP1 DUP5 ADD SWAP2 POP POP SWAP3 SWAP2 POP POP JUMP JUMPDEST PUSH1 0x0 PUSH2 0x2AC6 DUP3 DUP5 PUSH2 0x2A89 JUMP JUMPDEST SWAP2 POP DUP2 SWAP1 POP SWAP3 SWAP2 POP POP JUMP JUMPDEST PUSH1 0x0 DUP2 MLOAD SWAP1 POP SWAP2 SWAP1 POP JUMP JUMPDEST PUSH1 0x0 PUSH1 0x1F NOT PUSH1 0x1F DUP4 ADD AND SWAP1 POP SWAP2 SWAP1 POP JUMP JUMPDEST PUSH1 0x0 PUSH2 0x2AF8 DUP3 PUSH2 0x2AD1 JUMP JUMPDEST PUSH2 0x2B02 DUP2 DUP6 PUSH2 0x220D JUMP JUMPDEST SWAP4 POP PUSH2 0x2B12 DUP2 DUP6 PUSH1 0x20 DUP7 ADD PUSH2 0x2A56 JUMP JUMPDEST PUSH2 0x2B1B DUP2 PUSH2 0x2ADC JUMP JUMPDEST DUP5 ADD SWAP2 POP POP SWAP3 SWAP2 POP POP JUMP JUMPDEST PUSH1 0x0 PUSH1 0x20 DUP3 ADD SWAP1 POP DUP2 DUP2 SUB PUSH1 0x0 DUP4 ADD MSTORE PUSH2 0x2B40 DUP2 DUP5 PUSH2 0x2AED JUMP JUMPDEST SWAP1 POP SWAP3 SWAP2 POP POP JUMP INVALID LOG2 PUSH5 0x6970667358 0x22 SLT KECCAK256 DUP14 0xD7 PUSH14 0x913F4E58A80DE65FC33AA7D5512A 0xDD 0x5E MSIZE 0xA8 0xAA ADDRESS DUP12 0x2C SLT 0xFB PUSH16 0x32AD465464736F6C634300080C003300 "
				},
				"gasEstimates": {
					"creation": {
						"codeDepositCost": "2226800",
						"executionCost": "infinite",
						"totalCost": "infinite"
					},
					"external": {
						"MaxAllocPoint()": "439",
						"WETH()": "infinite",
						"WETHPerSecond()": "2475",
						"add(uint256,address)": "infinite",
						"closeWithdraw()": "26743",
						"deposit(uint256,uint256)": "infinite",
						"devaddr()": "2558",
						"emergencyWithdraw(uint256)": "infinite",
						"getMultiplier(uint256,uint256)": "infinite",
						"massUpdatePools()": "infinite",
						"maxWETHPerSecond()": "418",
						"openWithdraw()": "26765",
						"owner()": "2567",
						"pendingWETH(uint256,address)": "infinite",
						"poolInfo(uint256)": "infinite",
						"poolLength()": "2514",
						"renounceOwnership()": "30509",
						"set(uint256,uint256)": "infinite",
						"setWETHPerSecond(uint256)": "infinite",
						"startTime()": "infinite",
						"supplyRewards(uint256)": "infinite",
						"totalAllocPoint()": "2475",
						"totalWETHdistributed()": "2518",
						"transferOwnership(address)": "30835",
						"updatePool(uint256)": "infinite",
						"userInfo(uint256,address)": "infinite",
						"withdraw(uint256,uint256)": "infinite",
						"withdrawable()": "2561"
					},
					"internal": {
						"checkForDuplicate(contract IERC20)": "infinite",
						"safeWETHTransfer(address,uint256)": "infinite"
					}
				},
				"methodIdentifiers": {
					"MaxAllocPoint()": "f4b83c4c",
					"WETH()": "ad5c4648",
					"WETHPerSecond()": "41249061",
					"add(uint256,address)": "2b8bbbe8",
					"closeWithdraw()": "7b020dad",
					"deposit(uint256,uint256)": "e2bbb158",
					"devaddr()": "d49e77cd",
					"emergencyWithdraw(uint256)": "5312ea8e",
					"getMultiplier(uint256,uint256)": "8dbb1e3a",
					"massUpdatePools()": "630b5ba1",
					"maxWETHPerSecond()": "9112f2b2",
					"openWithdraw()": "845105e2",
					"owner()": "8da5cb5b",
					"pendingWETH(uint256,address)": "9bd16d7b",
					"poolInfo(uint256)": "1526fe27",
					"poolLength()": "081e3eda",
					"renounceOwnership()": "715018a6",
					"set(uint256,uint256)": "1ab06ee5",
					"setWETHPerSecond(uint256)": "0332e936",
					"startTime()": "78e97925",
					"supplyRewards(uint256)": "2377b2a8",
					"totalAllocPoint()": "17caf6f1",
					"totalWETHdistributed()": "b9ac9686",
					"transferOwnership(address)": "f2fde38b",
					"updatePool(uint256)": "51eb05a6",
					"userInfo(uint256,address)": "93f1a40b",
					"withdraw(uint256,uint256)": "441a3e70",
					"withdrawable()": "50188301"
				}
			},
			"storageLayout": {
				"storage": [
					{
						"astId": 7,
						"contract": "contracts/final/GMDstaking.sol:GMDstaking",
						"label": "_owner",
						"offset": 0,
						"slot": "0",
						"type": "t_address"
					},
					{
						"astId": 123,
						"contract": "contracts/final/GMDstaking.sol:GMDstaking",
						"label": "_status",
						"offset": 0,
						"slot": "1",
						"type": "t_uint256"
					},
					{
						"astId": 1215,
						"contract": "contracts/final/GMDstaking.sol:GMDstaking",
						"label": "WETH",
						"offset": 0,
						"slot": "2",
						"type": "t_contract(IERC20)230"
					},
					{
						"astId": 1217,
						"contract": "contracts/final/GMDstaking.sol:GMDstaking",
						"label": "devaddr",
						"offset": 0,
						"slot": "3",
						"type": "t_address"
					},
					{
						"astId": 1219,
						"contract": "contracts/final/GMDstaking.sol:GMDstaking",
						"label": "WETHPerSecond",
						"offset": 0,
						"slot": "4",
						"type": "t_uint256"
					},
					{
						"astId": 1222,
						"contract": "contracts/final/GMDstaking.sol:GMDstaking",
						"label": "totalWETHdistributed",
						"offset": 0,
						"slot": "5",
						"type": "t_uint256"
					},
					{
						"astId": 1232,
						"contract": "contracts/final/GMDstaking.sol:GMDstaking",
						"label": "poolInfo",
						"offset": 0,
						"slot": "6",
						"type": "t_array(t_struct(PoolInfo)1209_storage)dyn_storage"
					},
					{
						"astId": 1239,
						"contract": "contracts/final/GMDstaking.sol:GMDstaking",
						"label": "userInfo",
						"offset": 0,
						"slot": "7",
						"type": "t_mapping(t_uint256,t_mapping(t_address,t_struct(UserInfo)1199_storage))"
					},
					{
						"astId": 1242,
						"contract": "contracts/final/GMDstaking.sol:GMDstaking",
						"label": "totalAllocPoint",
						"offset": 0,
						"slot": "8",
						"type": "t_uint256"
					},
					{
						"astId": 1247,
						"contract": "contracts/final/GMDstaking.sol:GMDstaking",
						"label": "withdrawable",
						"offset": 0,
						"slot": "9",
						"type": "t_bool"
					}
				],
				"types": {
					"t_address": {
						"encoding": "inplace",
						"label": "address",
						"numberOfBytes": "20"
					},
					"t_array(t_struct(PoolInfo)1209_storage)dyn_storage": {
						"base": "t_struct(PoolInfo)1209_storage",
						"encoding": "dynamic_array",
						"label": "struct GMDstaking.PoolInfo[]",
						"numberOfBytes": "32"
					},
					"t_bool": {
						"encoding": "inplace",
						"label": "bool",
						"numberOfBytes": "1"
					},
					"t_contract(IERC20)230": {
						"encoding": "inplace",
						"label": "contract IERC20",
						"numberOfBytes": "20"
					},
					"t_mapping(t_address,t_struct(UserInfo)1199_storage)": {
						"encoding": "mapping",
						"key": "t_address",
						"label": "mapping(address => struct GMDstaking.UserInfo)",
						"numberOfBytes": "32",
						"value": "t_struct(UserInfo)1199_storage"
					},
					"t_mapping(t_uint256,t_mapping(t_address,t_struct(UserInfo)1199_storage))": {
						"encoding": "mapping",
						"key": "t_uint256",
						"label": "mapping(uint256 => mapping(address => struct GMDstaking.UserInfo))",
						"numberOfBytes": "32",
						"value": "t_mapping(t_address,t_struct(UserInfo)1199_storage)"
					},
					"t_struct(PoolInfo)1209_storage": {
						"encoding": "inplace",
						"label": "struct GMDstaking.PoolInfo",
						"members": [
							{
								"astId": 1202,
								"contract": "contracts/final/GMDstaking.sol:GMDstaking",
								"label": "lpToken",
								"offset": 0,
								"slot": "0",
								"type": "t_contract(IERC20)230"
							},
							{
								"astId": 1204,
								"contract": "contracts/final/GMDstaking.sol:GMDstaking",
								"label": "allocPoint",
								"offset": 0,
								"slot": "1",
								"type": "t_uint256"
							},
							{
								"astId": 1206,
								"contract": "contracts/final/GMDstaking.sol:GMDstaking",
								"label": "lastRewardTime",
								"offset": 0,
								"slot": "2",
								"type": "t_uint256"
							},
							{
								"astId": 1208,
								"contract": "contracts/final/GMDstaking.sol:GMDstaking",
								"label": "accWETHPerShare",
								"offset": 0,
								"slot": "3",
								"type": "t_uint256"
							}
						],
						"numberOfBytes": "128"
					},
					"t_struct(UserInfo)1199_storage": {
						"encoding": "inplace",
						"label": "struct GMDstaking.UserInfo",
						"members": [
							{
								"astId": 1196,
								"contract": "contracts/final/GMDstaking.sol:GMDstaking",
								"label": "amount",
								"offset": 0,
								"slot": "0",
								"type": "t_uint256"
							},
							{
								"astId": 1198,
								"contract": "contracts/final/GMDstaking.sol:GMDstaking",
								"label": "rewardDebt",
								"offset": 0,
								"slot": "1",
								"type": "t_uint256"
							}
						],
						"numberOfBytes": "64"
					},
					"t_uint256": {
						"encoding": "inplace",
						"label": "uint256",
						"numberOfBytes": "32"
					}
				}
			},
			"userdoc": {
				"kind": "user",
				"methods": {},
				"version": 1
			}
		}
	}
}