{
	"contracts/final/GMDstaking.sol": {
		"GMDstaking": {
			"abi": [
				{
					"inputs": [
						{
							"internalType": "uint256",
							"name": "_WETHPerSecond",
							"type": "uint256"
						},
						{
							"internalType": "uint256",
							"name": "_startTime",
							"type": "uint256"
						}
					],
					"stateMutability": "nonpayable",
					"type": "constructor"
				},
				{
					"anonymous": false,
					"inputs": [
						{
							"indexed": true,
							"internalType": "address",
							"name": "user",
							"type": "address"
						},
						{
							"indexed": true,
							"internalType": "uint256",
							"name": "pid",
							"type": "uint256"
						},
						{
							"indexed": false,
							"internalType": "uint256",
							"name": "amount",
							"type": "uint256"
						}
					],
					"name": "Deposit",
					"type": "event"
				},
				{
					"anonymous": false,
					"inputs": [
						{
							"indexed": true,
							"internalType": "address",
							"name": "user",
							"type": "address"
						},
						{
							"indexed": true,
							"internalType": "uint256",
							"name": "pid",
							"type": "uint256"
						},
						{
							"indexed": false,
							"internalType": "uint256",
							"name": "amount",
							"type": "uint256"
						}
					],
					"name": "EmergencyWithdraw",
					"type": "event"
				},
				{
					"anonymous": false,
					"inputs": [
						{
							"indexed": true,
							"internalType": "address",
							"name": "previousOwner",
							"type": "address"
						},
						{
							"indexed": true,
							"internalType": "address",
							"name": "newOwner",
							"type": "address"
						}
					],
					"name": "OwnershipTransferred",
					"type": "event"
				},
				{
					"anonymous": false,
					"inputs": [
						{
							"indexed": true,
							"internalType": "address",
							"name": "user",
							"type": "address"
						},
						{
							"indexed": true,
							"internalType": "uint256",
							"name": "pid",
							"type": "uint256"
						},
						{
							"indexed": false,
							"internalType": "uint256",
							"name": "amount",
							"type": "uint256"
						}
					],
					"name": "Withdraw",
					"type": "event"
				},
				{
					"inputs": [],
					"name": "MaxAllocPoint",
					"outputs": [
						{
							"internalType": "uint256",
							"name": "",
							"type": "uint256"
						}
					],
					"stateMutability": "view",
					"type": "function"
				},
				{
					"inputs": [],
					"name": "WETH",
					"outputs": [
						{
							"internalType": "contract IERC20",
							"name": "",
							"type": "address"
						}
					],
					"stateMutability": "view",
					"type": "function"
				},
				{
					"inputs": [],
					"name": "WETHPerSecond",
					"outputs": [
						{
							"internalType": "uint256",
							"name": "",
							"type": "uint256"
						}
					],
					"stateMutability": "view",
					"type": "function"
				},
				{
					"inputs": [
						{
							"internalType": "uint256",
							"name": "_allocPoint",
							"type": "uint256"
						},
						{
							"internalType": "contract IERC20",
							"name": "_lpToken",
							"type": "address"
						}
					],
					"name": "add",
					"outputs": [],
					"stateMutability": "nonpayable",
					"type": "function"
				},
				{
					"inputs": [],
					"name": "closeWithdraw",
					"outputs": [],
					"stateMutability": "nonpayable",
					"type": "function"
				},
				{
					"inputs": [
						{
							"internalType": "uint256",
							"name": "_pid",
							"type": "uint256"
						},
						{
							"internalType": "uint256",
							"name": "_amount",
							"type": "uint256"
						}
					],
					"name": "deposit",
					"outputs": [],
					"stateMutability": "nonpayable",
					"type": "function"
				},
				{
					"inputs": [],
					"name": "devaddr",
					"outputs": [
						{
							"internalType": "address",
							"name": "",
							"type": "address"
						}
					],
					"stateMutability": "view",
					"type": "function"
				},
				{
					"inputs": [
						{
							"internalType": "uint256",
							"name": "_pid",
							"type": "uint256"
						}
					],
					"name": "emergencyWithdraw",
					"outputs": [],
					"stateMutability": "nonpayable",
					"type": "function"
				},
				{
					"inputs": [
						{
							"internalType": "uint256",
							"name": "_from",
							"type": "uint256"
						},
						{
							"internalType": "uint256",
							"name": "_to",
							"type": "uint256"
						}
					],
					"name": "getMultiplier",
					"outputs": [
						{
							"internalType": "uint256",
							"name": "",
							"type": "uint256"
						}
					],
					"stateMutability": "view",
					"type": "function"
				},
				{
					"inputs": [],
					"name": "massUpdatePools",
					"outputs": [],
					"stateMutability": "nonpayable",
					"type": "function"
				},
				{
					"inputs": [],
					"name": "maxWETHPerSecond",
					"outputs": [
						{
							"internalType": "uint256",
							"name": "",
							"type": "uint256"
						}
					],
					"stateMutability": "view",
					"type": "function"
				},
				{
					"inputs": [],
					"name": "openWithdraw",
					"outputs": [],
					"stateMutability": "nonpayable",
					"type": "function"
				},
				{
					"inputs": [],
					"name": "owner",
					"outputs": [
						{
							"internalType": "address",
							"name": "",
							"type": "address"
						}
					],
					"stateMutability": "view",
					"type": "function"
				},
				{
					"inputs": [
						{
							"internalType": "uint256",
							"name": "_pid",
							"type": "uint256"
						},
						{
							"internalType": "address",
							"name": "_user",
							"type": "address"
						}
					],
					"name": "pendingWETH",
					"outputs": [
						{
							"internalType": "uint256",
							"name": "",
							"type": "uint256"
						}
					],
					"stateMutability": "view",
					"type": "function"
				},
				{
					"inputs": [
						{
							"internalType": "uint256",
							"name": "",
							"type": "uint256"
						}
					],
					"name": "poolInfo",
					"outputs": [
						{
							"internalType": "contract IERC20",
							"name": "lpToken",
							"type": "address"
						},
						{
							"internalType": "uint256",
							"name": "allocPoint",
							"type": "uint256"
						},
						{
							"internalType": "uint256",
							"name": "lastRewardTime",
							"type": "uint256"
						},
						{
							"internalType": "uint256",
							"name": "accWETHPerShare",
							"type": "uint256"
						}
					],
					"stateMutability": "view",
					"type": "function"
				},
				{
					"inputs": [],
					"name": "poolLength",
					"outputs": [
						{
							"internalType": "uint256",
							"name": "",
							"type": "uint256"
						}
					],
					"stateMutability": "view",
					"type": "function"
				},
				{
					"inputs": [],
					"name": "renounceOwnership",
					"outputs": [],
					"stateMutability": "nonpayable",
					"type": "function"
				},
				{
					"inputs": [
						{
							"internalType": "uint256",
							"name": "_pid",
							"type": "uint256"
						},
						{
							"internalType": "uint256",
							"name": "_allocPoint",
							"type": "uint256"
						}
					],
					"name": "set",
					"outputs": [],
					"stateMutability": "nonpayable",
					"type": "function"
				},
				{
					"inputs": [
						{
							"internalType": "uint256",
							"name": "_WETHPerSecond",
							"type": "uint256"
						}
					],
					"name": "setWETHPerSecond",
					"outputs": [],
					"stateMutability": "nonpayable",
					"type": "function"
				},
				{
					"inputs": [],
					"name": "startTime",
					"outputs": [
						{
							"internalType": "uint256",
							"name": "",
							"type": "uint256"
						}
					],
					"stateMutability": "view",
					"type": "function"
				},
				{
					"inputs": [
						{
							"internalType": "uint256",
							"name": "_amount",
							"type": "uint256"
						}
					],
					"name": "supplyRewards",
					"outputs": [],
					"stateMutability": "nonpayable",
					"type": "function"
				},
				{
					"inputs": [],
					"name": "totalAllocPoint",
					"outputs": [
						{
							"internalType": "uint256",
							"name": "",
							"type": "uint256"
						}
					],
					"stateMutability": "view",
					"type": "function"
				},
				{
					"inputs": [],
					"name": "totalWETHdistributed",
					"outputs": [
						{
							"internalType": "uint256",
							"name": "",
							"type": "uint256"
						}
					],
					"stateMutability": "view",
					"type": "function"
				},
				{
					"inputs": [
						{
							"internalType": "address",
							"name": "newOwner",
							"type": "address"
						}
					],
					"name": "transferOwnership",
					"outputs": [],
					"stateMutability": "nonpayable",
					"type": "function"
				},
				{
					"inputs": [
						{
							"internalType": "uint256",
							"name": "_pid",
							"type": "uint256"
						}
					],
					"name": "updatePool",
					"outputs": [],
					"stateMutability": "nonpayable",
					"type": "function"
				},
				{
					"inputs": [
						{
							"internalType": "uint256",
							"name": "",
							"type": "uint256"
						},
						{
							"internalType": "address",
							"name": "",
							"type": "address"
						}
					],
					"name": "userInfo",
					"outputs": [
						{
							"internalType": "uint256",
							"name": "amount",
							"type": "uint256"
						},
						{
							"internalType": "uint256",
							"name": "rewardDebt",
							"type": "uint256"
						}
					],
					"stateMutability": "view",
					"type": "function"
				},
				{
					"inputs": [
						{
							"internalType": "uint256",
							"name": "_pid",
							"type": "uint256"
						},
						{
							"internalType": "uint256",
							"name": "_amount",
							"type": "uint256"
						}
					],
					"name": "withdraw",
					"outputs": [],
					"stateMutability": "nonpayable",
					"type": "function"
				},
				{
					"inputs": [],
					"name": "withdrawable",
					"outputs": [
						{
							"internalType": "bool",
							"name": "",
							"type": "bool"
						}
					],
					"stateMutability": "view",
					"type": "function"
				}
			],
			"devdoc": {
				"kind": "dev",
				"methods": {
					"owner()": {
						"details": "Returns the address of the current owner."
					},
					"renounceOwnership()": {
						"details": "Leaves the contract without owner. It will not be possible to call `onlyOwner` functions anymore. Can only be called by the current owner. NOTE: Renouncing ownership will leave the contract without an owner, thereby removing any functionality that is only available to the owner."
					},
					"transferOwnership(address)": {
						"details": "Transfers ownership of the contract to a new account (`newOwner`). Can only be called by the current owner."
					}
				},
				"version": 1
			},
			"evm": {
				"assembly": "    /* \"contracts/final/GMDstaking.sol\":372:10282  contract GMDstaking is Ownable,ReentrancyGuard {... */\n  mstore(0x40, 0xa0)\n    /* \"contracts/final/GMDstaking.sol\":1746:1817  IERC20 public WETH = IERC20(0x82aF49447D8a07e3bd95BD0d56f35241523fBab1) */\n  0x02\n  dup1\n  sload\n  not(sub(shl(0xa0, 0x01), 0x01))\n  and\n    /* \"contracts/final/GMDstaking.sol\":1774:1816  0x82aF49447D8a07e3bd95BD0d56f35241523fBab1 */\n  0x82af49447d8a07e3bd95bd0d56f35241523fbab1\n    /* \"contracts/final/GMDstaking.sol\":1746:1817  IERC20 public WETH = IERC20(0x82aF49447D8a07e3bd95BD0d56f35241523fBab1) */\n  or\n  swap1\n  sstore\n  0x00\n    /* \"contracts/final/GMDstaking.sol\":1952:1991  uint256 public totalWETHdistributed = 0 */\n  0x05\n  dup2\n  swap1\n  sstore\n    /* \"contracts/final/GMDstaking.sol\":2458:2492  uint256 public totalAllocPoint = 0 */\n  0x08\n  sstore\n    /* \"contracts/final/GMDstaking.sol\":2590:2622  bool public withdrawable = false */\n  0x09\n  dup1\n  sload\n  not(0xff)\n  and\n  swap1\n  sstore\n    /* \"contracts/final/GMDstaking.sol\":2881:3046  constructor(... */\n  callvalue\n  dup1\n  iszero\n  tag_1\n  jumpi\n  0x00\n  dup1\n  revert\ntag_1:\n  pop\n  mload(0x40)\n  sub(codesize, bytecodeSize)\n  dup1\n  bytecodeSize\n  dup4\n  codecopy\n  dup2\n  add\n  0x40\n  dup2\n  swap1\n  mstore\n  tag_2\n  swap2\n  tag_3\n  jump\t// in\ntag_2:\n    /* \"@openzeppelin/contracts/access/Ownable.sol\":936:968  _transferOwnership(_msgSender()) */\n  tag_8\n    /* \"@openzeppelin/contracts/utils/Context.sol\":719:729  msg.sender */\n  caller\n    /* \"@openzeppelin/contracts/access/Ownable.sol\":936:954  _transferOwnership */\n  tag_11\n    /* \"@openzeppelin/contracts/access/Ownable.sol\":936:968  _transferOwnership(_msgSender()) */\n  jump\t// in\ntag_8:\n    /* \"@openzeppelin/contracts/security/ReentrancyGuard.sol\":1701:1702  1 */\n  0x01\n    /* \"@openzeppelin/contracts/security/ReentrancyGuard.sol\":1806:1828  _status = _NOT_ENTERED */\n  dup1\n  sstore\n    /* \"contracts/final/GMDstaking.sol\":2975:2988  WETHPerSecond */\n  0x04\n    /* \"contracts/final/GMDstaking.sol\":2975:3005  WETHPerSecond = _WETHPerSecond */\n  swap2\n  swap1\n  swap2\n  sstore\n    /* \"contracts/final/GMDstaking.sol\":3016:3038  startTime = _startTime */\n  0x80\n  mstore\n    /* \"contracts/final/GMDstaking.sol\":372:10282  contract GMDstaking is Ownable,ReentrancyGuard {... */\n  jump(tag_17)\n    /* \"@openzeppelin/contracts/access/Ownable.sol\":2433:2620  function _transferOwnership(address newOwner) internal virtual {... */\ntag_11:\n    /* \"@openzeppelin/contracts/access/Ownable.sol\":2506:2522  address oldOwner */\n  0x00\n    /* \"@openzeppelin/contracts/access/Ownable.sol\":2525:2531  _owner */\n  dup1\n  sload\n  sub(shl(0xa0, 0x01), 0x01)\n    /* \"@openzeppelin/contracts/access/Ownable.sol\":2541:2558  _owner = newOwner */\n  dup4\n  dup2\n  and\n  not(sub(shl(0xa0, 0x01), 0x01))\n  dup4\n  and\n  dup2\n  or\n  dup5\n  sstore\n    /* \"@openzeppelin/contracts/access/Ownable.sol\":2573:2613  OwnershipTransferred(oldOwner, newOwner) */\n  mload(0x40)\n    /* \"@openzeppelin/contracts/access/Ownable.sol\":2525:2531  _owner */\n  swap2\n  swap1\n  swap3\n  and\n  swap3\n  dup4\n  swap2\n    /* \"@openzeppelin/contracts/access/Ownable.sol\":2573:2613  OwnershipTransferred(oldOwner, newOwner) */\n  0x8be0079c531659141344cd1fd0a4f28419497f9722a3daafe3b4186f6b6457e0\n  swap2\n    /* \"@openzeppelin/contracts/access/Ownable.sol\":2506:2522  address oldOwner */\n  swap1\n    /* \"@openzeppelin/contracts/access/Ownable.sol\":2573:2613  OwnershipTransferred(oldOwner, newOwner) */\n  log3\n    /* \"@openzeppelin/contracts/access/Ownable.sol\":2496:2620  {... */\n  pop\n    /* \"@openzeppelin/contracts/access/Ownable.sol\":2433:2620  function _transferOwnership(address newOwner) internal virtual {... */\n  pop\n  jump\t// out\n    /* \"#utility.yul\":14:259   */\ntag_3:\n    /* \"#utility.yul\":93:99   */\n  0x00\n    /* \"#utility.yul\":101:107   */\n  dup1\n    /* \"#utility.yul\":154:156   */\n  0x40\n    /* \"#utility.yul\":142:151   */\n  dup4\n    /* \"#utility.yul\":133:140   */\n  dup6\n    /* \"#utility.yul\":129:152   */\n  sub\n    /* \"#utility.yul\":125:157   */\n  slt\n    /* \"#utility.yul\":122:174   */\n  iszero\n  tag_19\n  jumpi\n    /* \"#utility.yul\":170:171   */\n  0x00\n    /* \"#utility.yul\":167:168   */\n  dup1\n    /* \"#utility.yul\":160:172   */\n  revert\n    /* \"#utility.yul\":122:174   */\ntag_19:\n  pop\n  pop\n    /* \"#utility.yul\":193:209   */\n  dup1\n  mload\n    /* \"#utility.yul\":249:251   */\n  0x20\n    /* \"#utility.yul\":234:252   */\n  swap1\n  swap2\n  add\n    /* \"#utility.yul\":228:253   */\n  mload\n    /* \"#utility.yul\":193:209   */\n  swap1\n  swap3\n    /* \"#utility.yul\":228:253   */\n  swap1\n  swap2\n  pop\n    /* \"#utility.yul\":14:259   */\n  jump\t// out\ntag_17:\n    /* \"contracts/final/GMDstaking.sol\":372:10282  contract GMDstaking is Ownable,ReentrancyGuard {... */\n  mload(0x80)\n  codecopy(0x00, dataOffset(sub_0), dataSize(sub_0))\n  0x00\n  assignImmutable(\"0x46612c86431bf839553975c6871c96460d6b955d2f53301921ef55c1ad868ef7\")\n  return(0x00, dataSize(sub_0))\nstop\n\nsub_0: assembly {\n        /* \"contracts/final/GMDstaking.sol\":372:10282  contract GMDstaking is Ownable,ReentrancyGuard {... */\n      mstore(0x40, 0x80)\n      callvalue\n      dup1\n      iszero\n      tag_1\n      jumpi\n      0x00\n      dup1\n      revert\n    tag_1:\n      pop\n      jumpi(tag_2, lt(calldatasize, 0x04))\n      shr(0xe0, calldataload(0x00))\n      dup1\n      0x78e97925\n      gt\n      tag_31\n      jumpi\n      dup1\n      0x9bd16d7b\n      gt\n      tag_32\n      jumpi\n      dup1\n      0xd49e77cd\n      gt\n      tag_33\n      jumpi\n      dup1\n      0xd49e77cd\n      eq\n      tag_27\n      jumpi\n      dup1\n      0xe2bbb158\n      eq\n      tag_28\n      jumpi\n      dup1\n      0xf2fde38b\n      eq\n      tag_29\n      jumpi\n      dup1\n      0xf4b83c4c\n      eq\n      tag_30\n      jumpi\n      0x00\n      dup1\n      revert\n    tag_33:\n      dup1\n      0x9bd16d7b\n      eq\n      tag_24\n      jumpi\n      dup1\n      0xad5c4648\n      eq\n      tag_25\n      jumpi\n      dup1\n      0xb9ac9686\n      eq\n      tag_26\n      jumpi\n      0x00\n      dup1\n      revert\n    tag_32:\n      dup1\n      0x8da5cb5b\n      gt\n      tag_34\n      jumpi\n      dup1\n      0x8da5cb5b\n      eq\n      tag_20\n      jumpi\n      dup1\n      0x8dbb1e3a\n      eq\n      tag_21\n      jumpi\n      dup1\n      0x9112f2b2\n      eq\n      tag_22\n      jumpi\n      dup1\n      0x93f1a40b\n      eq\n      tag_23\n      jumpi\n      0x00\n      dup1\n      revert\n    tag_34:\n      dup1\n      0x78e97925\n      eq\n      tag_17\n      jumpi\n      dup1\n      0x7b020dad\n      eq\n      tag_18\n      jumpi\n      dup1\n      0x845105e2\n      eq\n      tag_19\n      jumpi\n      0x00\n      dup1\n      revert\n    tag_31:\n      dup1\n      0x41249061\n      gt\n      tag_35\n      jumpi\n      dup1\n      0x51eb05a6\n      gt\n      tag_36\n      jumpi\n      dup1\n      0x51eb05a6\n      eq\n      tag_13\n      jumpi\n      dup1\n      0x5312ea8e\n      eq\n      tag_14\n      jumpi\n      dup1\n      0x630b5ba1\n      eq\n      tag_15\n      jumpi\n      dup1\n      0x715018a6\n      eq\n      tag_16\n      jumpi\n      0x00\n      dup1\n      revert\n    tag_36:\n      dup1\n      0x41249061\n      eq\n      tag_10\n      jumpi\n      dup1\n      0x441a3e70\n      eq\n      tag_11\n      jumpi\n      dup1\n      0x50188301\n      eq\n      tag_12\n      jumpi\n      0x00\n      dup1\n      revert\n    tag_35:\n      dup1\n      0x17caf6f1\n      gt\n      tag_37\n      jumpi\n      dup1\n      0x17caf6f1\n      eq\n      tag_6\n      jumpi\n      dup1\n      0x1ab06ee5\n      eq\n      tag_7\n      jumpi\n      dup1\n      0x2377b2a8\n      eq\n      tag_8\n      jumpi\n      dup1\n      0x2b8bbbe8\n      eq\n      tag_9\n      jumpi\n      0x00\n      dup1\n      revert\n    tag_37:\n      dup1\n      0x0332e936\n      eq\n      tag_3\n      jumpi\n      dup1\n      0x081e3eda\n      eq\n      tag_4\n      jumpi\n      dup1\n      0x1526fe27\n      eq\n      tag_5\n      jumpi\n    tag_2:\n      0x00\n      dup1\n      revert\n        /* \"contracts/final/GMDstaking.sol\":3694:4129  function setWETHPerSecond(uint256 _WETHPerSecond) external onlyOwner {... */\n    tag_3:\n      tag_38\n      tag_39\n      calldatasize\n      0x04\n      tag_40\n      jump\t// in\n    tag_39:\n      tag_41\n      jump\t// in\n    tag_38:\n      stop\n        /* \"contracts/final/GMDstaking.sol\":3442:3537  function poolLength() external view returns (uint256) {... */\n    tag_4:\n        /* \"contracts/final/GMDstaking.sol\":3514:3522  poolInfo */\n      0x06\n        /* \"contracts/final/GMDstaking.sol\":3514:3529  poolInfo.length */\n      sload\n        /* \"contracts/final/GMDstaking.sol\":3442:3537  function poolLength() external view returns (uint256) {... */\n    tag_42:\n      mload(0x40)\n        /* \"#utility.yul\":345:370   */\n      swap1\n      dup2\n      mstore\n        /* \"#utility.yul\":333:335   */\n      0x20\n        /* \"#utility.yul\":318:336   */\n      add\n        /* \"contracts/final/GMDstaking.sol\":3442:3537  function poolLength() external view returns (uint256) {... */\n    tag_44:\n      mload(0x40)\n      dup1\n      swap2\n      sub\n      swap1\n      return\n        /* \"contracts/final/GMDstaking.sol\":2215:2241  PoolInfo[] public poolInfo */\n    tag_5:\n      tag_46\n      tag_47\n      calldatasize\n      0x04\n      tag_40\n      jump\t// in\n    tag_47:\n      tag_48\n      jump\t// in\n    tag_46:\n      0x40\n      dup1\n      mload\n      sub(shl(0xa0, 0x01), 0x01)\n        /* \"#utility.yul\":644:676   */\n      swap1\n      swap6\n      and\n        /* \"#utility.yul\":626:677   */\n      dup6\n      mstore\n        /* \"#utility.yul\":708:710   */\n      0x20\n        /* \"#utility.yul\":693:711   */\n      dup6\n      add\n        /* \"#utility.yul\":686:720   */\n      swap4\n      swap1\n      swap4\n      mstore\n        /* \"#utility.yul\":736:754   */\n      swap2\n      dup4\n      add\n        /* \"#utility.yul\":729:763   */\n      mstore\n        /* \"#utility.yul\":794:796   */\n      0x60\n        /* \"#utility.yul\":779:797   */\n      dup3\n      add\n        /* \"#utility.yul\":772:806   */\n      mstore\n        /* \"#utility.yul\":613:616   */\n      0x80\n        /* \"#utility.yul\":598:617   */\n      add\n        /* \"contracts/final/GMDstaking.sol\":2215:2241  PoolInfo[] public poolInfo */\n      tag_44\n        /* \"#utility.yul\":381:812   */\n      jump\n        /* \"contracts/final/GMDstaking.sol\":2458:2492  uint256 public totalAllocPoint = 0 */\n    tag_6:\n      tag_42\n      sload(0x08)\n      dup2\n      jump\n        /* \"contracts/final/GMDstaking.sol\":5195:5518  function set(uint256 _pid, uint256 _allocPoint) external onlyOwner {... */\n    tag_7:\n      tag_38\n      tag_55\n      calldatasize\n      0x04\n      tag_56\n      jump\t// in\n    tag_55:\n      tag_57\n      jump\t// in\n        /* \"contracts/final/GMDstaking.sol\":3142:3340  function supplyRewards(uint256 _amount) external onlyOwner {... */\n    tag_8:\n      tag_38\n      tag_59\n      calldatasize\n      0x04\n      tag_40\n      jump\t// in\n    tag_59:\n      tag_60\n      jump\t// in\n        /* \"contracts/final/GMDstaking.sol\":4481:5099  function add(uint256 _allocPoint, IERC20 _lpToken) external onlyOwner {... */\n    tag_9:\n      tag_38\n      tag_62\n      calldatasize\n      0x04\n      tag_63\n      jump\t// in\n    tag_62:\n      tag_64\n      jump\t// in\n        /* \"contracts/final/GMDstaking.sol\":1915:1943  uint256 public WETHPerSecond */\n    tag_10:\n      tag_42\n      sload(0x04)\n      dup2\n      jump\n        /* \"contracts/final/GMDstaking.sol\":8490:9274  function withdraw(uint256 _pid, uint256 _amount) public nonReentrant {  ... */\n    tag_11:\n      tag_38\n      tag_69\n      calldatasize\n      0x04\n      tag_56\n      jump\t// in\n    tag_69:\n      tag_70\n      jump\t// in\n        /* \"contracts/final/GMDstaking.sol\":2590:2622  bool public withdrawable = false */\n    tag_12:\n      sload(0x09)\n      tag_71\n      swap1\n      0xff\n      and\n      dup2\n      jump\n    tag_71:\n      mload(0x40)\n        /* \"#utility.yul\":1721:1735   */\n      swap1\n      iszero\n        /* \"#utility.yul\":1714:1736   */\n      iszero\n        /* \"#utility.yul\":1696:1737   */\n      dup2\n      mstore\n        /* \"#utility.yul\":1684:1686   */\n      0x20\n        /* \"#utility.yul\":1669:1687   */\n      add\n        /* \"contracts/final/GMDstaking.sol\":2590:2622  bool public withdrawable = false */\n      tag_44\n        /* \"#utility.yul\":1556:1743   */\n      jump\n        /* \"contracts/final/GMDstaking.sol\":7001:7697  function updatePool(uint256 _pid) public {... */\n    tag_13:\n      tag_38\n      tag_76\n      calldatasize\n      0x04\n      tag_40\n      jump\t// in\n    tag_76:\n      tag_77\n      jump\t// in\n        /* \"contracts/final/GMDstaking.sol\":9362:9885  function emergencyWithdraw(uint256 _pid) public  nonReentrant {... */\n    tag_14:\n      tag_38\n      tag_79\n      calldatasize\n      0x04\n      tag_40\n      jump\t// in\n    tag_79:\n      tag_80\n      jump\t// in\n        /* \"contracts/final/GMDstaking.sol\":6745:6925  function massUpdatePools() public {... */\n    tag_15:\n      tag_38\n      tag_82\n      jump\t// in\n        /* \"@openzeppelin/contracts/access/Ownable.sol\":1831:1932  function renounceOwnership() public virtual onlyOwner {... */\n    tag_16:\n      tag_38\n      tag_84\n      jump\t// in\n        /* \"contracts/final/GMDstaking.sol\":2547:2581  uint256 public immutable startTime */\n    tag_17:\n      tag_42\n      immutable(\"0x46612c86431bf839553975c6871c96460d6b955d2f53301921ef55c1ad868ef7\")\n      dup2\n      jump\n        /* \"contracts/final/GMDstaking.sol\":3352:3434  function closeWithdraw() external onlyOwner{... */\n    tag_18:\n      tag_38\n      tag_89\n      jump\t// in\n        /* \"contracts/final/GMDstaking.sol\":3054:3134  function openWithdraw() external onlyOwner{... */\n    tag_19:\n      tag_38\n      tag_91\n      jump\t// in\n        /* \"@openzeppelin/contracts/access/Ownable.sol\":1201:1286  function owner() public view virtual returns (address) {... */\n    tag_20:\n        /* \"@openzeppelin/contracts/access/Ownable.sol\":1247:1254  address */\n      0x00\n        /* \"@openzeppelin/contracts/access/Ownable.sol\":1273:1279  _owner */\n      sload\n      sub(shl(0xa0, 0x01), 0x01)\n      and\n        /* \"@openzeppelin/contracts/access/Ownable.sol\":1201:1286  function owner() public view virtual returns (address) {... */\n    tag_92:\n      mload(0x40)\n      sub(shl(0xa0, 0x01), 0x01)\n        /* \"#utility.yul\":1912:1944   */\n      swap1\n      swap2\n      and\n        /* \"#utility.yul\":1894:1945   */\n      dup2\n      mstore\n        /* \"#utility.yul\":1882:1884   */\n      0x20\n        /* \"#utility.yul\":1867:1885   */\n      add\n        /* \"@openzeppelin/contracts/access/Ownable.sol\":1201:1286  function owner() public view virtual returns (address) {... */\n      tag_44\n        /* \"#utility.yul\":1748:1951   */\n      jump\n        /* \"contracts/final/GMDstaking.sol\":5594:5834  function getMultiplier(uint256 _from, uint256 _to) public view returns (uint256) {... */\n    tag_21:\n      tag_42\n      tag_97\n      calldatasize\n      0x04\n      tag_56\n      jump\t// in\n    tag_97:\n      tag_98\n      jump\t// in\n        /* \"contracts/final/GMDstaking.sol\":2079:2126  uint256 public constant maxWETHPerSecond = 1e18 */\n    tag_22:\n      tag_42\n        /* \"contracts/final/GMDstaking.sol\":2122:2126  1e18 */\n      0x0de0b6b3a7640000\n        /* \"contracts/final/GMDstaking.sol\":2079:2126  uint256 public constant maxWETHPerSecond = 1e18 */\n      dup2\n      jump\n        /* \"contracts/final/GMDstaking.sol\":2297:2363  mapping (uint256 => mapping (address => UserInfo)) public userInfo */\n    tag_23:\n      tag_103\n      tag_104\n      calldatasize\n      0x04\n      tag_63\n      jump\t// in\n    tag_104:\n      0x07\n      0x20\n      swap1\n      dup2\n      mstore\n      0x00\n      swap3\n      dup4\n      mstore\n      0x40\n      dup1\n      dup5\n      keccak256\n      swap1\n      swap2\n      mstore\n      swap1\n      dup3\n      mstore\n      swap1\n      keccak256\n      dup1\n      sload\n      0x01\n      swap1\n      swap2\n      add\n      sload\n      dup3\n      jump\n    tag_103:\n      0x40\n      dup1\n      mload\n        /* \"#utility.yul\":2458:2483   */\n      swap3\n      dup4\n      mstore\n        /* \"#utility.yul\":2514:2516   */\n      0x20\n        /* \"#utility.yul\":2499:2517   */\n      dup4\n      add\n        /* \"#utility.yul\":2492:2526   */\n      swap2\n      swap1\n      swap2\n      mstore\n        /* \"#utility.yul\":2431:2449   */\n      add\n        /* \"contracts/final/GMDstaking.sol\":2297:2363  mapping (uint256 => mapping (address => UserInfo)) public userInfo */\n      tag_44\n        /* \"#utility.yul\":2284:2532   */\n      jump\n        /* \"contracts/final/GMDstaking.sol\":5898:6662  function pendingWETH(uint256 _pid, address _user) external view returns (uint256) {... */\n    tag_24:\n      tag_42\n      tag_110\n      calldatasize\n      0x04\n      tag_63\n      jump\t// in\n    tag_110:\n      tag_111\n      jump\t// in\n        /* \"contracts/final/GMDstaking.sol\":1746:1817  IERC20 public WETH = IERC20(0x82aF49447D8a07e3bd95BD0d56f35241523fBab1) */\n    tag_25:\n      sload(0x02)\n      tag_92\n      swap1\n      sub(shl(0xa0, 0x01), 0x01)\n      and\n      dup2\n      jump\n        /* \"contracts/final/GMDstaking.sol\":1952:1991  uint256 public totalWETHdistributed = 0 */\n    tag_26:\n      tag_42\n      sload(0x05)\n      dup2\n      jump\n        /* \"contracts/final/GMDstaking.sol\":1847:1869  address public devaddr */\n    tag_27:\n      sload(0x03)\n      tag_92\n      swap1\n      sub(shl(0xa0, 0x01), 0x01)\n      and\n      dup2\n      jump\n        /* \"contracts/final/GMDstaking.sol\":7766:8438  function deposit(uint256 _pid, uint256 _amount) public nonReentrant {... */\n    tag_28:\n      tag_38\n      tag_124\n      calldatasize\n      0x04\n      tag_56\n      jump\t// in\n    tag_124:\n      tag_125\n      jump\t// in\n        /* \"@openzeppelin/contracts/access/Ownable.sol\":2081:2279  function transferOwnership(address newOwner) public virtual onlyOwner {... */\n    tag_29:\n      tag_38\n      tag_127\n      calldatasize\n      0x04\n      tag_128\n      jump\t// in\n    tag_127:\n      tag_129\n      jump\t// in\n        /* \"contracts/final/GMDstaking.sol\":2135:2179  uint256 public constant MaxAllocPoint = 4000 */\n    tag_30:\n      tag_42\n        /* \"contracts/final/GMDstaking.sol\":2175:2179  4000 */\n      0x0fa0\n        /* \"contracts/final/GMDstaking.sol\":2135:2179  uint256 public constant MaxAllocPoint = 4000 */\n      dup2\n      jump\n        /* \"contracts/final/GMDstaking.sol\":3694:4129  function setWETHPerSecond(uint256 _WETHPerSecond) external onlyOwner {... */\n    tag_41:\n        /* \"@openzeppelin/contracts/access/Ownable.sol\":1094:1107  _checkOwner() */\n      tag_134\n        /* \"@openzeppelin/contracts/access/Ownable.sol\":1094:1105  _checkOwner */\n      tag_135\n        /* \"@openzeppelin/contracts/access/Ownable.sol\":1094:1107  _checkOwner() */\n      jump\t// in\n    tag_134:\n        /* \"contracts/final/GMDstaking.sol\":2122:2126  1e18 */\n      0x0de0b6b3a7640000\n        /* \"contracts/final/GMDstaking.sol\":3782:3796  _WETHPerSecond */\n      dup2\n        /* \"contracts/final/GMDstaking.sol\":3782:3816  _WETHPerSecond <= maxWETHPerSecond */\n      gt\n      iszero\n        /* \"contracts/final/GMDstaking.sol\":3774:3854  require(_WETHPerSecond <= maxWETHPerSecond, \"setWETHPerSecond: too many WETHs!\") */\n      tag_137\n      jumpi\n      mload(0x40)\n      shl(0xe5, 0x461bcd)\n      dup2\n      mstore\n        /* \"#utility.yul\":3221:3223   */\n      0x20\n        /* \"contracts/final/GMDstaking.sol\":3774:3854  require(_WETHPerSecond <= maxWETHPerSecond, \"setWETHPerSecond: too many WETHs!\") */\n      0x04\n      dup3\n      add\n        /* \"#utility.yul\":3203:3224   */\n      mstore\n        /* \"#utility.yul\":3260:3262   */\n      0x21\n        /* \"#utility.yul\":3240:3258   */\n      0x24\n      dup3\n      add\n        /* \"#utility.yul\":3233:3263   */\n      mstore\n        /* \"#utility.yul\":3299:3333   */\n      0x736574574554485065725365636f6e643a20746f6f206d616e79205745544873\n        /* \"#utility.yul\":3279:3297   */\n      0x44\n      dup3\n      add\n        /* \"#utility.yul\":3272:3334   */\n      mstore\n      shl(0xf8, 0x21)\n        /* \"#utility.yul\":3350:3368   */\n      0x64\n      dup3\n      add\n        /* \"#utility.yul\":3343:3374   */\n      mstore\n        /* \"#utility.yul\":3391:3410   */\n      0x84\n      add\n        /* \"contracts/final/GMDstaking.sol\":3774:3854  require(_WETHPerSecond <= maxWETHPerSecond, \"setWETHPerSecond: too many WETHs!\") */\n    tag_138:\n      mload(0x40)\n      dup1\n      swap2\n      sub\n      swap1\n      revert\n    tag_137:\n        /* \"contracts/final/GMDstaking.sol\":4060:4077  massUpdatePools() */\n      tag_140\n        /* \"contracts/final/GMDstaking.sol\":4060:4075  massUpdatePools */\n      tag_82\n        /* \"contracts/final/GMDstaking.sol\":4060:4077  massUpdatePools() */\n      jump\t// in\n    tag_140:\n        /* \"contracts/final/GMDstaking.sol\":4091:4104  WETHPerSecond */\n      0x04\n        /* \"contracts/final/GMDstaking.sol\":4091:4121  WETHPerSecond = _WETHPerSecond */\n      sstore\n        /* \"contracts/final/GMDstaking.sol\":3694:4129  function setWETHPerSecond(uint256 _WETHPerSecond) external onlyOwner {... */\n      jump\t// out\n        /* \"contracts/final/GMDstaking.sol\":2215:2241  PoolInfo[] public poolInfo */\n    tag_48:\n      0x06\n      dup2\n      dup2\n      sload\n      dup2\n      lt\n      tag_142\n      jumpi\n      0x00\n      dup1\n      revert\n    tag_142:\n      0x00\n      swap2\n      dup3\n      mstore\n      0x20\n      swap1\n      swap2\n      keccak256\n      0x04\n      swap1\n      swap2\n      mul\n      add\n      dup1\n      sload\n      0x01\n      dup3\n      add\n      sload\n      0x02\n      dup4\n      add\n      sload\n      0x03\n      swap1\n      swap4\n      add\n      sload\n      sub(shl(0xa0, 0x01), 0x01)\n      swap1\n      swap3\n      and\n      swap4\n      pop\n      swap2\n      swap1\n      dup5\n      jump\t// out\n        /* \"contracts/final/GMDstaking.sol\":5195:5518  function set(uint256 _pid, uint256 _allocPoint) external onlyOwner {... */\n    tag_57:\n        /* \"@openzeppelin/contracts/access/Ownable.sol\":1094:1107  _checkOwner() */\n      tag_145\n        /* \"@openzeppelin/contracts/access/Ownable.sol\":1094:1105  _checkOwner */\n      tag_135\n        /* \"@openzeppelin/contracts/access/Ownable.sol\":1094:1107  _checkOwner() */\n      jump\t// in\n    tag_145:\n        /* \"contracts/final/GMDstaking.sol\":2175:2179  4000 */\n      0x0fa0\n        /* \"contracts/final/GMDstaking.sol\":5281:5292  _allocPoint */\n      dup2\n        /* \"contracts/final/GMDstaking.sol\":5281:5309  _allocPoint <= MaxAllocPoint */\n      gt\n      iszero\n        /* \"contracts/final/GMDstaking.sol\":5273:5342  require(_allocPoint <= MaxAllocPoint, \"add: too many alloc points!!\") */\n      tag_147\n      jumpi\n      mload(0x40)\n      shl(0xe5, 0x461bcd)\n      dup2\n      mstore\n        /* \"#utility.yul\":3623:3625   */\n      0x20\n        /* \"contracts/final/GMDstaking.sol\":5273:5342  require(_allocPoint <= MaxAllocPoint, \"add: too many alloc points!!\") */\n      0x04\n      dup3\n      add\n        /* \"#utility.yul\":3605:3626   */\n      mstore\n        /* \"#utility.yul\":3662:3664   */\n      0x1c\n        /* \"#utility.yul\":3642:3660   */\n      0x24\n      dup3\n      add\n        /* \"#utility.yul\":3635:3665   */\n      mstore\n        /* \"#utility.yul\":3701:3731   */\n      0x6164643a20746f6f206d616e7920616c6c6f6320706f696e7473212100000000\n        /* \"#utility.yul\":3681:3699   */\n      0x44\n      dup3\n      add\n        /* \"#utility.yul\":3674:3732   */\n      mstore\n        /* \"#utility.yul\":3749:3767   */\n      0x64\n      add\n        /* \"contracts/final/GMDstaking.sol\":5273:5342  require(_allocPoint <= MaxAllocPoint, \"add: too many alloc points!!\") */\n      tag_138\n        /* \"#utility.yul\":3421:3773   */\n      jump\n        /* \"contracts/final/GMDstaking.sol\":5273:5342  require(_allocPoint <= MaxAllocPoint, \"add: too many alloc points!!\") */\n    tag_147:\n        /* \"contracts/final/GMDstaking.sol\":5355:5372  massUpdatePools() */\n      tag_150\n        /* \"contracts/final/GMDstaking.sol\":5355:5370  massUpdatePools */\n      tag_82\n        /* \"contracts/final/GMDstaking.sol\":5355:5372  massUpdatePools() */\n      jump\t// in\n    tag_150:\n        /* \"contracts/final/GMDstaking.sol\":5449:5460  _allocPoint */\n      dup1\n        /* \"contracts/final/GMDstaking.sol\":5421:5429  poolInfo */\n      0x06\n        /* \"contracts/final/GMDstaking.sol\":5430:5434  _pid */\n      dup4\n        /* \"contracts/final/GMDstaking.sol\":5421:5435  poolInfo[_pid] */\n      dup2\n      sload\n      dup2\n      lt\n      tag_152\n      jumpi\n      tag_152\n      tag_153\n      jump\t// in\n    tag_152:\n      swap1\n      0x00\n      mstore\n      keccak256(0x00, 0x20)\n      swap1\n      0x04\n      mul\n      add\n        /* \"contracts/final/GMDstaking.sol\":5421:5446  poolInfo[_pid].allocPoint */\n      0x01\n      add\n      sload\n        /* \"contracts/final/GMDstaking.sol\":5403:5418  totalAllocPoint */\n      sload(0x08)\n        /* \"contracts/final/GMDstaking.sol\":5403:5446  totalAllocPoint - poolInfo[_pid].allocPoint */\n      tag_155\n      swap2\n      swap1\n      tag_156\n      jump\t// in\n    tag_155:\n        /* \"contracts/final/GMDstaking.sol\":5403:5460  totalAllocPoint - poolInfo[_pid].allocPoint + _allocPoint */\n      tag_157\n      swap2\n      swap1\n      tag_158\n      jump\t// in\n    tag_157:\n        /* \"contracts/final/GMDstaking.sol\":5385:5400  totalAllocPoint */\n      0x08\n        /* \"contracts/final/GMDstaking.sol\":5385:5460  totalAllocPoint = totalAllocPoint - poolInfo[_pid].allocPoint + _allocPoint */\n      dup2\n      swap1\n      sstore\n      pop\n        /* \"contracts/final/GMDstaking.sol\":5499:5510  _allocPoint */\n      dup1\n        /* \"contracts/final/GMDstaking.sol\":5471:5479  poolInfo */\n      0x06\n        /* \"contracts/final/GMDstaking.sol\":5480:5484  _pid */\n      dup4\n        /* \"contracts/final/GMDstaking.sol\":5471:5485  poolInfo[_pid] */\n      dup2\n      sload\n      dup2\n      lt\n      tag_160\n      jumpi\n      tag_160\n      tag_153\n      jump\t// in\n    tag_160:\n      swap1\n      0x00\n      mstore\n      keccak256(0x00, 0x20)\n      swap1\n      0x04\n      mul\n      add\n        /* \"contracts/final/GMDstaking.sol\":5471:5496  poolInfo[_pid].allocPoint */\n      0x01\n      add\n        /* \"contracts/final/GMDstaking.sol\":5471:5510  poolInfo[_pid].allocPoint = _allocPoint */\n      dup2\n      swap1\n      sstore\n      pop\n        /* \"contracts/final/GMDstaking.sol\":5195:5518  function set(uint256 _pid, uint256 _allocPoint) external onlyOwner {... */\n      pop\n      pop\n      jump\t// out\n        /* \"contracts/final/GMDstaking.sol\":3142:3340  function supplyRewards(uint256 _amount) external onlyOwner {... */\n    tag_60:\n        /* \"@openzeppelin/contracts/access/Ownable.sol\":1094:1107  _checkOwner() */\n      tag_163\n        /* \"@openzeppelin/contracts/access/Ownable.sol\":1094:1105  _checkOwner */\n      tag_135\n        /* \"@openzeppelin/contracts/access/Ownable.sol\":1094:1107  _checkOwner() */\n      jump\t// in\n    tag_163:\n        /* \"contracts/final/GMDstaking.sol\":3235:3255  totalWETHdistributed */\n      sload(0x05)\n        /* \"contracts/final/GMDstaking.sol\":3235:3268  totalWETHdistributed.add(_amount) */\n      tag_165\n      swap1\n        /* \"contracts/final/GMDstaking.sol\":3260:3267  _amount */\n      dup3\n        /* \"contracts/final/GMDstaking.sol\":3235:3259  totalWETHdistributed.add */\n      tag_166\n        /* \"contracts/final/GMDstaking.sol\":3235:3268  totalWETHdistributed.add(_amount) */\n      jump\t// in\n    tag_165:\n        /* \"contracts/final/GMDstaking.sol\":3212:3232  totalWETHdistributed */\n      0x05\n        /* \"contracts/final/GMDstaking.sol\":3212:3268  totalWETHdistributed = totalWETHdistributed.add(_amount) */\n      sstore\n        /* \"contracts/final/GMDstaking.sol\":3279:3283  WETH */\n      sload(0x02)\n        /* \"contracts/final/GMDstaking.sol\":3279:3332  WETH.transferFrom(msg.sender, address(this), _amount) */\n      mload(0x40)\n      shl(0xe0, 0x23b872dd)\n      dup2\n      mstore\n        /* \"contracts/final/GMDstaking.sol\":3297:3307  msg.sender */\n      caller\n        /* \"contracts/final/GMDstaking.sol\":3279:3332  WETH.transferFrom(msg.sender, address(this), _amount) */\n      0x04\n      dup3\n      add\n        /* \"#utility.yul\":4545:4579   */\n      mstore\n        /* \"contracts/final/GMDstaking.sol\":3317:3321  this */\n      address\n        /* \"#utility.yul\":4595:4613   */\n      0x24\n      dup3\n      add\n        /* \"#utility.yul\":4588:4631   */\n      mstore\n        /* \"#utility.yul\":4647:4665   */\n      0x44\n      dup2\n      add\n        /* \"#utility.yul\":4640:4674   */\n      dup4\n      swap1\n      mstore\n      sub(shl(0xa0, 0x01), 0x01)\n        /* \"contracts/final/GMDstaking.sol\":3279:3283  WETH */\n      swap1\n      swap2\n      and\n      swap1\n        /* \"contracts/final/GMDstaking.sol\":3279:3296  WETH.transferFrom */\n      0x23b872dd\n      swap1\n        /* \"#utility.yul\":4480:4498   */\n      0x64\n      add\n        /* \"contracts/final/GMDstaking.sol\":3279:3332  WETH.transferFrom(msg.sender, address(this), _amount) */\n      0x20\n      mload(0x40)\n      dup1\n      dup4\n      sub\n      dup2\n      0x00\n      dup8\n      gas\n      call\n      iszero\n      dup1\n      iszero\n      tag_170\n      jumpi\n      returndatasize\n      0x00\n      dup1\n      returndatacopy\n      revert(0x00, returndatasize)\n    tag_170:\n      pop\n      pop\n      pop\n      pop\n      mload(0x40)\n      returndatasize\n      not(0x1f)\n      0x1f\n      dup3\n      add\n      and\n      dup3\n      add\n      dup1\n      0x40\n      mstore\n      pop\n      dup2\n      add\n      swap1\n      tag_171\n      swap2\n      swap1\n      tag_172\n      jump\t// in\n    tag_171:\n      pop\n        /* \"contracts/final/GMDstaking.sol\":3142:3340  function supplyRewards(uint256 _amount) external onlyOwner {... */\n      pop\n      jump\t// out\n        /* \"contracts/final/GMDstaking.sol\":4481:5099  function add(uint256 _allocPoint, IERC20 _lpToken) external onlyOwner {... */\n    tag_64:\n        /* \"@openzeppelin/contracts/access/Ownable.sol\":1094:1107  _checkOwner() */\n      tag_174\n        /* \"@openzeppelin/contracts/access/Ownable.sol\":1094:1105  _checkOwner */\n      tag_135\n        /* \"@openzeppelin/contracts/access/Ownable.sol\":1094:1107  _checkOwner() */\n      jump\t// in\n    tag_174:\n        /* \"contracts/final/GMDstaking.sol\":2175:2179  4000 */\n      0x0fa0\n        /* \"contracts/final/GMDstaking.sol\":4570:4581  _allocPoint */\n      dup3\n        /* \"contracts/final/GMDstaking.sol\":4570:4598  _allocPoint <= MaxAllocPoint */\n      gt\n      iszero\n        /* \"contracts/final/GMDstaking.sol\":4562:4631  require(_allocPoint <= MaxAllocPoint, \"add: too many alloc points!!\") */\n      tag_176\n      jumpi\n      mload(0x40)\n      shl(0xe5, 0x461bcd)\n      dup2\n      mstore\n        /* \"#utility.yul\":3623:3625   */\n      0x20\n        /* \"contracts/final/GMDstaking.sol\":4562:4631  require(_allocPoint <= MaxAllocPoint, \"add: too many alloc points!!\") */\n      0x04\n      dup3\n      add\n        /* \"#utility.yul\":3605:3626   */\n      mstore\n        /* \"#utility.yul\":3662:3664   */\n      0x1c\n        /* \"#utility.yul\":3642:3660   */\n      0x24\n      dup3\n      add\n        /* \"#utility.yul\":3635:3665   */\n      mstore\n        /* \"#utility.yul\":3701:3731   */\n      0x6164643a20746f6f206d616e7920616c6c6f6320706f696e7473212100000000\n        /* \"#utility.yul\":3681:3699   */\n      0x44\n      dup3\n      add\n        /* \"#utility.yul\":3674:3732   */\n      mstore\n        /* \"#utility.yul\":3749:3767   */\n      0x64\n      add\n        /* \"contracts/final/GMDstaking.sol\":4562:4631  require(_allocPoint <= MaxAllocPoint, \"add: too many alloc points!!\") */\n      tag_138\n        /* \"#utility.yul\":3421:3773   */\n      jump\n        /* \"contracts/final/GMDstaking.sol\":4562:4631  require(_allocPoint <= MaxAllocPoint, \"add: too many alloc points!!\") */\n    tag_176:\n        /* \"contracts/final/GMDstaking.sol\":4644:4671  checkForDuplicate(_lpToken) */\n      tag_178\n        /* \"contracts/final/GMDstaking.sol\":4662:4670  _lpToken */\n      dup2\n        /* \"contracts/final/GMDstaking.sol\":4644:4661  checkForDuplicate */\n      tag_179\n        /* \"contracts/final/GMDstaking.sol\":4644:4671  checkForDuplicate(_lpToken) */\n      jump\t// in\n    tag_178:\n        /* \"contracts/final/GMDstaking.sol\":4723:4740  massUpdatePools() */\n      tag_180\n        /* \"contracts/final/GMDstaking.sol\":4723:4738  massUpdatePools */\n      tag_82\n        /* \"contracts/final/GMDstaking.sol\":4723:4740  massUpdatePools() */\n      jump\t// in\n    tag_180:\n        /* \"contracts/final/GMDstaking.sol\":4753:4775  uint256 lastRewardTime */\n      0x00\n        /* \"contracts/final/GMDstaking.sol\":4796:4805  startTime */\n      immutable(\"0x46612c86431bf839553975c6871c96460d6b955d2f53301921ef55c1ad868ef7\")\n        /* \"contracts/final/GMDstaking.sol\":4778:4793  block.timestamp */\n      timestamp\n        /* \"contracts/final/GMDstaking.sol\":4778:4805  block.timestamp > startTime */\n      gt\n        /* \"contracts/final/GMDstaking.sol\":4778:4835  block.timestamp > startTime ? block.timestamp : startTime */\n      tag_181\n      jumpi\n        /* \"contracts/final/GMDstaking.sol\":4826:4835  startTime */\n      immutable(\"0x46612c86431bf839553975c6871c96460d6b955d2f53301921ef55c1ad868ef7\")\n        /* \"contracts/final/GMDstaking.sol\":4778:4835  block.timestamp > startTime ? block.timestamp : startTime */\n      jump(tag_182)\n    tag_181:\n        /* \"contracts/final/GMDstaking.sol\":4808:4823  block.timestamp */\n      timestamp\n        /* \"contracts/final/GMDstaking.sol\":4778:4835  block.timestamp > startTime ? block.timestamp : startTime */\n    tag_182:\n        /* \"contracts/final/GMDstaking.sol\":4864:4879  totalAllocPoint */\n      sload(0x08)\n        /* \"contracts/final/GMDstaking.sol\":4753:4835  uint256 lastRewardTime = block.timestamp > startTime ? block.timestamp : startTime */\n      swap1\n      swap2\n      pop\n        /* \"contracts/final/GMDstaking.sol\":4864:4896  totalAllocPoint.add(_allocPoint) */\n      tag_183\n      swap1\n        /* \"contracts/final/GMDstaking.sol\":4884:4895  _allocPoint */\n      dup5\n        /* \"contracts/final/GMDstaking.sol\":4864:4883  totalAllocPoint.add */\n      tag_166\n        /* \"contracts/final/GMDstaking.sol\":4864:4896  totalAllocPoint.add(_allocPoint) */\n      jump\t// in\n    tag_183:\n        /* \"contracts/final/GMDstaking.sol\":4846:4861  totalAllocPoint */\n      0x08\n        /* \"contracts/final/GMDstaking.sol\":4846:4896  totalAllocPoint = totalAllocPoint.add(_allocPoint) */\n      sstore\n        /* \"contracts/final/GMDstaking.sol\":4921:5090  PoolInfo({... */\n      0x40\n      dup1\n      mload\n      0x80\n      dup2\n      add\n      dup3\n      mstore\n      sub(shl(0xa0, 0x01), 0x01)\n      swap4\n      dup5\n      and\n      dup2\n      mstore\n      0x20\n      dup2\n      add\n      swap5\n      dup6\n      mstore\n      swap1\n      dup2\n      add\n      swap2\n      dup3\n      mstore\n      0x00\n      0x60\n      dup3\n      add\n      dup2\n      dup2\n      mstore\n        /* \"contracts/final/GMDstaking.sol\":4907:4915  poolInfo */\n      0x06\n        /* \"contracts/final/GMDstaking.sol\":4907:5091  poolInfo.push(PoolInfo({... */\n      dup1\n      sload\n      0x01\n      dup2\n      add\n      dup3\n      sstore\n      swap3\n      mstore\n      swap2\n      mload\n      0xf652222313e28459528d920b65115c16c04f3efc82aaedc97be59f3f377c0d3f\n      0x04\n      swap1\n      swap3\n      mul\n      swap2\n      dup3\n      add\n      dup1\n      sload\n      not(sub(shl(0xa0, 0x01), 0x01))\n      and\n      swap2\n      swap1\n      swap6\n      and\n      or\n      swap1\n      swap4\n      sstore\n      swap3\n      mload\n      0xf652222313e28459528d920b65115c16c04f3efc82aaedc97be59f3f377c0d40\n      dup4\n      add\n      sstore\n      mload\n      0xf652222313e28459528d920b65115c16c04f3efc82aaedc97be59f3f377c0d41\n      dup3\n      add\n      sstore\n      swap1\n      mload\n      0xf652222313e28459528d920b65115c16c04f3efc82aaedc97be59f3f377c0d42\n      swap1\n      swap2\n      add\n      sstore\n        /* \"contracts/final/GMDstaking.sol\":4481:5099  function add(uint256 _allocPoint, IERC20 _lpToken) external onlyOwner {... */\n      jump\t// out\n        /* \"contracts/final/GMDstaking.sol\":8490:9274  function withdraw(uint256 _pid, uint256 _amount) public nonReentrant {  ... */\n    tag_70:\n        /* \"@openzeppelin/contracts/security/ReentrancyGuard.sol\":1744:1745  2 */\n      0x02\n        /* \"@openzeppelin/contracts/security/ReentrancyGuard.sol\":2325:2332  _status */\n      sload(0x01)\n        /* \"@openzeppelin/contracts/security/ReentrancyGuard.sol\":2325:2344  _status != _ENTERED */\n      eq\n      iszero\n        /* \"@openzeppelin/contracts/security/ReentrancyGuard.sol\":2317:2380  require(_status != _ENTERED, \"ReentrancyGuard: reentrant call\") */\n      tag_186\n      jumpi\n      mload(0x40)\n      shl(0xe5, 0x461bcd)\n      dup2\n      mstore\n      0x04\n      add\n      tag_138\n      swap1\n      tag_188\n      jump\t// in\n    tag_186:\n        /* \"@openzeppelin/contracts/security/ReentrancyGuard.sol\":1744:1745  2 */\n      0x02\n        /* \"@openzeppelin/contracts/security/ReentrancyGuard.sol\":2455:2462  _status */\n      0x01\n        /* \"@openzeppelin/contracts/security/ReentrancyGuard.sol\":2455:2473  _status = _ENTERED */\n      dup2\n      swap1\n      sstore\n      pop\n        /* \"contracts/final/GMDstaking.sol\":8572:8593  PoolInfo storage pool */\n      0x00\n        /* \"contracts/final/GMDstaking.sol\":8596:8604  poolInfo */\n      0x06\n        /* \"contracts/final/GMDstaking.sol\":8605:8609  _pid */\n      dup4\n        /* \"contracts/final/GMDstaking.sol\":8596:8610  poolInfo[_pid] */\n      dup2\n      sload\n      dup2\n      lt\n      tag_191\n      jumpi\n      tag_191\n      tag_153\n      jump\t// in\n    tag_191:\n      0x00\n      swap2\n      dup3\n      mstore\n      0x20\n      dup1\n      dup4\n      keccak256\n        /* \"contracts/final/GMDstaking.sol\":8645:8659  userInfo[_pid] */\n      dup7\n      dup5\n      mstore\n        /* \"contracts/final/GMDstaking.sol\":8645:8653  userInfo */\n      0x07\n        /* \"contracts/final/GMDstaking.sol\":8645:8659  userInfo[_pid] */\n      dup3\n      mstore\n      0x40\n      dup1\n      dup6\n      keccak256\n        /* \"contracts/final/GMDstaking.sol\":8660:8670  msg.sender */\n      caller\n        /* \"contracts/final/GMDstaking.sol\":8645:8671  userInfo[_pid][msg.sender] */\n      dup7\n      mstore\n      swap1\n      swap3\n      mstore\n      swap3\n      keccak256\n        /* \"contracts/final/GMDstaking.sol\":8692:8703  user.amount */\n      dup1\n      sload\n        /* \"contracts/final/GMDstaking.sol\":8596:8610  poolInfo[_pid] */\n      0x04\n      swap1\n      swap3\n      mul\n      swap1\n      swap3\n      add\n      swap3\n      pop\n        /* \"contracts/final/GMDstaking.sol\":8692:8714  user.amount >= _amount */\n      dup4\n      gt\n      iszero\n        /* \"contracts/final/GMDstaking.sol\":8684:8737  require(user.amount >= _amount, \"withdraw: not good\") */\n      tag_193\n      jumpi\n      mload(0x40)\n      shl(0xe5, 0x461bcd)\n      dup2\n      mstore\n        /* \"#utility.yul\":5529:5531   */\n      0x20\n        /* \"contracts/final/GMDstaking.sol\":8684:8737  require(user.amount >= _amount, \"withdraw: not good\") */\n      0x04\n      dup3\n      add\n        /* \"#utility.yul\":5511:5532   */\n      mstore\n        /* \"#utility.yul\":5568:5570   */\n      0x12\n        /* \"#utility.yul\":5548:5566   */\n      0x24\n      dup3\n      add\n        /* \"#utility.yul\":5541:5571   */\n      mstore\n      shl(0x72, 0x1dda5d1a191c985dce881b9bdd0819dbdbd9)\n        /* \"#utility.yul\":5587:5605   */\n      0x44\n      dup3\n      add\n        /* \"#utility.yul\":5580:5628   */\n      mstore\n        /* \"#utility.yul\":5645:5663   */\n      0x64\n      add\n        /* \"contracts/final/GMDstaking.sol\":8684:8737  require(user.amount >= _amount, \"withdraw: not good\") */\n      tag_138\n        /* \"#utility.yul\":5327:5669   */\n      jump\n        /* \"contracts/final/GMDstaking.sol\":8684:8737  require(user.amount >= _amount, \"withdraw: not good\") */\n    tag_193:\n        /* \"contracts/final/GMDstaking.sol\":8756:8768  withdrawable */\n      and(0xff, sload(0x09))\n        /* \"contracts/final/GMDstaking.sol\":8748:8792  require(withdrawable, \"withdraw not opened\") */\n      tag_196\n      jumpi\n      mload(0x40)\n      shl(0xe5, 0x461bcd)\n      dup2\n      mstore\n        /* \"#utility.yul\":5876:5878   */\n      0x20\n        /* \"contracts/final/GMDstaking.sol\":8748:8792  require(withdrawable, \"withdraw not opened\") */\n      0x04\n      dup3\n      add\n        /* \"#utility.yul\":5858:5879   */\n      mstore\n        /* \"#utility.yul\":5915:5917   */\n      0x13\n        /* \"#utility.yul\":5895:5913   */\n      0x24\n      dup3\n      add\n        /* \"#utility.yul\":5888:5918   */\n      mstore\n      shl(0x6a, 0x1dda5d1a191c985dc81b9bdd081bdc195b9959)\n        /* \"#utility.yul\":5934:5952   */\n      0x44\n      dup3\n      add\n        /* \"#utility.yul\":5927:5976   */\n      mstore\n        /* \"#utility.yul\":5993:6011   */\n      0x64\n      add\n        /* \"contracts/final/GMDstaking.sol\":8748:8792  require(withdrawable, \"withdraw not opened\") */\n      tag_138\n        /* \"#utility.yul\":5674:6017   */\n      jump\n        /* \"contracts/final/GMDstaking.sol\":8748:8792  require(withdrawable, \"withdraw not opened\") */\n    tag_196:\n        /* \"contracts/final/GMDstaking.sol\":8805:8821  updatePool(_pid) */\n      tag_199\n        /* \"contracts/final/GMDstaking.sol\":8816:8820  _pid */\n      dup5\n        /* \"contracts/final/GMDstaking.sol\":8805:8815  updatePool */\n      tag_77\n        /* \"contracts/final/GMDstaking.sol\":8805:8821  updatePool(_pid) */\n      jump\t// in\n    tag_199:\n        /* \"contracts/final/GMDstaking.sol\":8834:8849  uint256 pending */\n      0x00\n        /* \"contracts/final/GMDstaking.sol\":8852:8920  user.amount.mul(pool.accWETHPerShare).div(1e12).sub(user.rewardDebt) */\n      tag_200\n        /* \"contracts/final/GMDstaking.sol\":8904:8908  user */\n      dup3\n        /* \"contracts/final/GMDstaking.sol\":8904:8919  user.rewardDebt */\n      0x01\n      add\n      sload\n        /* \"contracts/final/GMDstaking.sol\":8852:8899  user.amount.mul(pool.accWETHPerShare).div(1e12) */\n      tag_201\n        /* \"contracts/final/GMDstaking.sol\":8894:8898  1e12 */\n      0xe8d4a51000\n        /* \"contracts/final/GMDstaking.sol\":8852:8889  user.amount.mul(pool.accWETHPerShare) */\n      tag_202\n        /* \"contracts/final/GMDstaking.sol\":8868:8872  pool */\n      dup8\n        /* \"contracts/final/GMDstaking.sol\":8868:8888  pool.accWETHPerShare */\n      0x03\n      add\n      sload\n        /* \"contracts/final/GMDstaking.sol\":8852:8856  user */\n      dup8\n        /* \"contracts/final/GMDstaking.sol\":8852:8863  user.amount */\n      0x00\n      add\n      sload\n        /* \"contracts/final/GMDstaking.sol\":8852:8867  user.amount.mul */\n      tag_203\n      swap1\n        /* \"contracts/final/GMDstaking.sol\":8852:8889  user.amount.mul(pool.accWETHPerShare) */\n      swap2\n      swap1\n      0xffffffff\n      and\n      jump\t// in\n    tag_202:\n        /* \"contracts/final/GMDstaking.sol\":8852:8893  user.amount.mul(pool.accWETHPerShare).div */\n      swap1\n      tag_204\n        /* \"contracts/final/GMDstaking.sol\":8852:8899  user.amount.mul(pool.accWETHPerShare).div(1e12) */\n      jump\t// in\n    tag_201:\n        /* \"contracts/final/GMDstaking.sol\":8852:8903  user.amount.mul(pool.accWETHPerShare).div(1e12).sub */\n      swap1\n      tag_205\n        /* \"contracts/final/GMDstaking.sol\":8852:8920  user.amount.mul(pool.accWETHPerShare).div(1e12).sub(user.rewardDebt) */\n      jump\t// in\n    tag_200:\n        /* \"contracts/final/GMDstaking.sol\":8947:8958  user.amount */\n      dup3\n      sload\n        /* \"contracts/final/GMDstaking.sol\":8834:8920  uint256 pending = user.amount.mul(pool.accWETHPerShare).div(1e12).sub(user.rewardDebt) */\n      swap1\n      swap2\n      pop\n        /* \"contracts/final/GMDstaking.sol\":8947:8971  user.amount.sub(_amount) */\n      tag_206\n      swap1\n        /* \"contracts/final/GMDstaking.sol\":8963:8970  _amount */\n      dup6\n        /* \"contracts/final/GMDstaking.sol\":8947:8962  user.amount.sub */\n      tag_205\n        /* \"contracts/final/GMDstaking.sol\":8947:8971  user.amount.sub(_amount) */\n      jump\t// in\n    tag_206:\n        /* \"contracts/final/GMDstaking.sol\":8933:8971  user.amount = user.amount.sub(_amount) */\n      dup1\n      dup4\n      sstore\n        /* \"contracts/final/GMDstaking.sol\":9016:9036  pool.accWETHPerShare */\n      0x03\n      dup5\n      add\n      sload\n        /* \"contracts/final/GMDstaking.sol\":9000:9047  user.amount.mul(pool.accWETHPerShare).div(1e12) */\n      tag_207\n      swap2\n        /* \"contracts/final/GMDstaking.sol\":9042:9046  1e12 */\n      0xe8d4a51000\n      swap2\n        /* \"contracts/final/GMDstaking.sol\":9000:9037  user.amount.mul(pool.accWETHPerShare) */\n      tag_202\n      swap2\n        /* \"contracts/final/GMDstaking.sol\":8933:8971  user.amount = user.amount.sub(_amount) */\n      swap1\n        /* \"contracts/final/GMDstaking.sol\":9000:9015  user.amount.mul */\n      tag_203\n        /* \"contracts/final/GMDstaking.sol\":9000:9037  user.amount.mul(pool.accWETHPerShare) */\n      jump\t// in\n        /* \"contracts/final/GMDstaking.sol\":9000:9047  user.amount.mul(pool.accWETHPerShare).div(1e12) */\n    tag_207:\n        /* \"contracts/final/GMDstaking.sol\":8982:8997  user.rewardDebt */\n      0x01\n      dup4\n      add\n        /* \"contracts/final/GMDstaking.sol\":8982:9047  user.rewardDebt = user.amount.mul(pool.accWETHPerShare).div(1e12) */\n      sstore\n        /* \"contracts/final/GMDstaking.sol\":9063:9074  pending > 0 */\n      dup1\n      iszero\n        /* \"contracts/final/GMDstaking.sol\":9060:9140  if(pending > 0) {... */\n      tag_210\n      jumpi\n        /* \"contracts/final/GMDstaking.sol\":9091:9128  safeWETHTransfer(msg.sender, pending) */\n      tag_210\n        /* \"contracts/final/GMDstaking.sol\":9108:9118  msg.sender */\n      caller\n        /* \"contracts/final/GMDstaking.sol\":9120:9127  pending */\n      dup3\n        /* \"contracts/final/GMDstaking.sol\":9091:9107  safeWETHTransfer */\n      tag_211\n        /* \"contracts/final/GMDstaking.sol\":9091:9128  safeWETHTransfer(msg.sender, pending) */\n      jump\t// in\n    tag_210:\n        /* \"contracts/final/GMDstaking.sol\":9150:9162  pool.lpToken */\n      dup3\n      sload\n        /* \"contracts/final/GMDstaking.sol\":9150:9205  pool.lpToken.safeTransfer(address(msg.sender), _amount) */\n      tag_212\n      swap1\n      sub(shl(0xa0, 0x01), 0x01)\n        /* \"contracts/final/GMDstaking.sol\":9150:9162  pool.lpToken */\n      and\n        /* \"contracts/final/GMDstaking.sol\":9184:9194  msg.sender */\n      caller\n        /* \"contracts/final/GMDstaking.sol\":9197:9204  _amount */\n      dup7\n        /* \"contracts/final/GMDstaking.sol\":9150:9175  pool.lpToken.safeTransfer */\n      tag_213\n        /* \"contracts/final/GMDstaking.sol\":9150:9205  pool.lpToken.safeTransfer(address(msg.sender), _amount) */\n      jump\t// in\n    tag_212:\n        /* \"contracts/final/GMDstaking.sol\":9231:9266  Withdraw(msg.sender, _pid, _amount) */\n      mload(0x40)\n        /* \"#utility.yul\":345:370   */\n      dup5\n      dup2\n      mstore\n        /* \"contracts/final/GMDstaking.sol\":9252:9256  _pid */\n      dup6\n      swap1\n        /* \"contracts/final/GMDstaking.sol\":9240:9250  msg.sender */\n      caller\n      swap1\n        /* \"contracts/final/GMDstaking.sol\":9231:9266  Withdraw(msg.sender, _pid, _amount) */\n      0xf279e6a1f5e320cca91135676d9cb6e44ca8a08c0b88342bcdb1144f6511b568\n      swap1\n        /* \"#utility.yul\":333:335   */\n      0x20\n        /* \"#utility.yul\":318:336   */\n      add\n        /* \"contracts/final/GMDstaking.sol\":9231:9266  Withdraw(msg.sender, _pid, _amount) */\n    tag_214:\n      mload(0x40)\n      dup1\n      swap2\n      sub\n      swap1\n      log3\n      pop\n      pop\n        /* \"@openzeppelin/contracts/security/ReentrancyGuard.sol\":1701:1702  1 */\n      0x01\n        /* \"@openzeppelin/contracts/security/ReentrancyGuard.sol\":2628:2650  _status = _NOT_ENTERED */\n      dup1\n      sstore\n      pop\n      pop\n      pop\n        /* \"contracts/final/GMDstaking.sol\":8490:9274  function withdraw(uint256 _pid, uint256 _amount) public nonReentrant {  ... */\n      jump\t// out\n        /* \"contracts/final/GMDstaking.sol\":7001:7697  function updatePool(uint256 _pid) public {... */\n    tag_77:\n        /* \"contracts/final/GMDstaking.sol\":7053:7074  PoolInfo storage pool */\n      0x00\n        /* \"contracts/final/GMDstaking.sol\":7077:7085  poolInfo */\n      0x06\n        /* \"contracts/final/GMDstaking.sol\":7086:7090  _pid */\n      dup3\n        /* \"contracts/final/GMDstaking.sol\":7077:7091  poolInfo[_pid] */\n      dup2\n      sload\n      dup2\n      lt\n      tag_217\n      jumpi\n      tag_217\n      tag_153\n      jump\t// in\n    tag_217:\n      swap1\n      0x00\n      mstore\n      keccak256(0x00, 0x20)\n      swap1\n      0x04\n      mul\n      add\n        /* \"contracts/final/GMDstaking.sol\":7053:7091  PoolInfo storage pool = poolInfo[_pid] */\n      swap1\n      pop\n        /* \"contracts/final/GMDstaking.sol\":7125:7129  pool */\n      dup1\n        /* \"contracts/final/GMDstaking.sol\":7125:7144  pool.lastRewardTime */\n      0x02\n      add\n      sload\n        /* \"contracts/final/GMDstaking.sol\":7106:7121  block.timestamp */\n      timestamp\n        /* \"contracts/final/GMDstaking.sol\":7106:7144  block.timestamp <= pool.lastRewardTime */\n      gt\n        /* \"contracts/final/GMDstaking.sol\":7102:7179  if (block.timestamp <= pool.lastRewardTime) {... */\n      tag_219\n      jumpi\n        /* \"contracts/final/GMDstaking.sol\":7161:7168  return; */\n      pop\n        /* \"contracts/final/GMDstaking.sol\":7001:7697  function updatePool(uint256 _pid) public {... */\n      pop\n      jump\t// out\n        /* \"contracts/final/GMDstaking.sol\":7102:7179  if (block.timestamp <= pool.lastRewardTime) {... */\n    tag_219:\n        /* \"contracts/final/GMDstaking.sol\":7208:7220  pool.lpToken */\n      dup1\n      sload\n        /* \"contracts/final/GMDstaking.sol\":7208:7245  pool.lpToken.balanceOf(address(this)) */\n      mload(0x40)\n      shl(0xe0, 0x70a08231)\n      dup2\n      mstore\n        /* \"contracts/final/GMDstaking.sol\":7239:7243  this */\n      address\n        /* \"contracts/final/GMDstaking.sol\":7208:7245  pool.lpToken.balanceOf(address(this)) */\n      0x04\n      dup3\n      add\n        /* \"#utility.yul\":1894:1945   */\n      mstore\n        /* \"contracts/final/GMDstaking.sol\":7189:7205  uint256 lpSupply */\n      0x00\n      swap2\n      sub(shl(0xa0, 0x01), 0x01)\n        /* \"contracts/final/GMDstaking.sol\":7208:7220  pool.lpToken */\n      and\n      swap1\n        /* \"contracts/final/GMDstaking.sol\":7208:7230  pool.lpToken.balanceOf */\n      0x70a08231\n      swap1\n        /* \"#utility.yul\":1867:1885   */\n      0x24\n      add\n        /* \"contracts/final/GMDstaking.sol\":7208:7245  pool.lpToken.balanceOf(address(this)) */\n      0x20\n      mload(0x40)\n      dup1\n      dup4\n      sub\n      dup2\n      dup7\n      gas\n      staticcall\n      iszero\n      dup1\n      iszero\n      tag_222\n      jumpi\n      returndatasize\n      0x00\n      dup1\n      returndatacopy\n      revert(0x00, returndatasize)\n    tag_222:\n      pop\n      pop\n      pop\n      pop\n      mload(0x40)\n      returndatasize\n      not(0x1f)\n      0x1f\n      dup3\n      add\n      and\n      dup3\n      add\n      dup1\n      0x40\n      mstore\n      pop\n      dup2\n      add\n      swap1\n      tag_223\n      swap2\n      swap1\n      tag_224\n      jump\t// in\n    tag_223:\n        /* \"contracts/final/GMDstaking.sol\":7189:7245  uint256 lpSupply = pool.lpToken.balanceOf(address(this)) */\n      swap1\n      pop\n        /* \"contracts/final/GMDstaking.sol\":7260:7273  lpSupply == 0 */\n      dup1\n        /* \"contracts/final/GMDstaking.sol\":7256:7360  if (lpSupply == 0) {... */\n      tag_225\n      jumpi\n      pop\n        /* \"contracts/final/GMDstaking.sol\":7312:7327  block.timestamp */\n      timestamp\n        /* \"contracts/final/GMDstaking.sol\":7290:7309  pool.lastRewardTime */\n      0x02\n      swap1\n      swap2\n      add\n        /* \"contracts/final/GMDstaking.sol\":7290:7327  pool.lastRewardTime = block.timestamp */\n      sstore\n      pop\n        /* \"contracts/final/GMDstaking.sol\":7001:7697  function updatePool(uint256 _pid) public {... */\n      jump\t// out\n        /* \"contracts/final/GMDstaking.sol\":7256:7360  if (lpSupply == 0) {... */\n    tag_225:\n        /* \"contracts/final/GMDstaking.sol\":7370:7388  uint256 multiplier */\n      0x00\n        /* \"contracts/final/GMDstaking.sol\":7391:7442  getMultiplier(pool.lastRewardTime, block.timestamp) */\n      tag_226\n        /* \"contracts/final/GMDstaking.sol\":7405:7409  pool */\n      dup4\n        /* \"contracts/final/GMDstaking.sol\":7405:7424  pool.lastRewardTime */\n      0x02\n      add\n      sload\n        /* \"contracts/final/GMDstaking.sol\":7426:7441  block.timestamp */\n      timestamp\n        /* \"contracts/final/GMDstaking.sol\":7391:7404  getMultiplier */\n      tag_98\n        /* \"contracts/final/GMDstaking.sol\":7391:7442  getMultiplier(pool.lastRewardTime, block.timestamp) */\n      jump\t// in\n    tag_226:\n        /* \"contracts/final/GMDstaking.sol\":7370:7442  uint256 multiplier = getMultiplier(pool.lastRewardTime, block.timestamp) */\n      swap1\n      pop\n        /* \"contracts/final/GMDstaking.sol\":7453:7471  uint256 WETHReward */\n      0x00\n        /* \"contracts/final/GMDstaking.sol\":7474:7545  multiplier.mul(WETHPerSecond).mul(pool.allocPoint).div(totalAllocPoint) */\n      tag_227\n        /* \"contracts/final/GMDstaking.sol\":7529:7544  totalAllocPoint */\n      sload(0x08)\n        /* \"contracts/final/GMDstaking.sol\":7474:7524  multiplier.mul(WETHPerSecond).mul(pool.allocPoint) */\n      tag_202\n        /* \"contracts/final/GMDstaking.sol\":7508:7512  pool */\n      dup7\n        /* \"contracts/final/GMDstaking.sol\":7508:7523  pool.allocPoint */\n      0x01\n      add\n      sload\n        /* \"contracts/final/GMDstaking.sol\":7474:7503  multiplier.mul(WETHPerSecond) */\n      tag_229\n        /* \"contracts/final/GMDstaking.sol\":7489:7502  WETHPerSecond */\n      sload(0x04)\n        /* \"contracts/final/GMDstaking.sol\":7474:7484  multiplier */\n      dup8\n        /* \"contracts/final/GMDstaking.sol\":7474:7488  multiplier.mul */\n      tag_203\n      swap1\n        /* \"contracts/final/GMDstaking.sol\":7474:7503  multiplier.mul(WETHPerSecond) */\n      swap2\n      swap1\n      0xffffffff\n      and\n      jump\t// in\n    tag_229:\n        /* \"contracts/final/GMDstaking.sol\":7474:7507  multiplier.mul(WETHPerSecond).mul */\n      swap1\n      tag_203\n        /* \"contracts/final/GMDstaking.sol\":7474:7524  multiplier.mul(WETHPerSecond).mul(pool.allocPoint) */\n      jump\t// in\n        /* \"contracts/final/GMDstaking.sol\":7474:7545  multiplier.mul(WETHPerSecond).mul(pool.allocPoint).div(totalAllocPoint) */\n    tag_227:\n        /* \"contracts/final/GMDstaking.sol\":7453:7545  uint256 WETHReward = multiplier.mul(WETHPerSecond).mul(pool.allocPoint).div(totalAllocPoint) */\n      swap1\n      pop\n        /* \"contracts/final/GMDstaking.sol\":7581:7641  pool.accWETHPerShare.add(WETHReward.mul(1e12).div(lpSupply)) */\n      tag_230\n        /* \"contracts/final/GMDstaking.sol\":7606:7640  WETHReward.mul(1e12).div(lpSupply) */\n      tag_231\n        /* \"contracts/final/GMDstaking.sol\":7631:7639  lpSupply */\n      dup5\n        /* \"contracts/final/GMDstaking.sol\":7606:7626  WETHReward.mul(1e12) */\n      tag_202\n        /* \"contracts/final/GMDstaking.sol\":7453:7545  uint256 WETHReward = multiplier.mul(WETHPerSecond).mul(pool.allocPoint).div(totalAllocPoint) */\n      dup5\n        /* \"contracts/final/GMDstaking.sol\":7621:7625  1e12 */\n      0xe8d4a51000\n        /* \"contracts/final/GMDstaking.sol\":7606:7620  WETHReward.mul */\n      tag_203\n        /* \"contracts/final/GMDstaking.sol\":7606:7626  WETHReward.mul(1e12) */\n      jump\t// in\n        /* \"contracts/final/GMDstaking.sol\":7606:7640  WETHReward.mul(1e12).div(lpSupply) */\n    tag_231:\n        /* \"contracts/final/GMDstaking.sol\":7581:7601  pool.accWETHPerShare */\n      0x03\n      dup7\n      add\n      sload\n      swap1\n        /* \"contracts/final/GMDstaking.sol\":7581:7605  pool.accWETHPerShare.add */\n      tag_166\n        /* \"contracts/final/GMDstaking.sol\":7581:7641  pool.accWETHPerShare.add(WETHReward.mul(1e12).div(lpSupply)) */\n      jump\t// in\n    tag_230:\n        /* \"contracts/final/GMDstaking.sol\":7558:7578  pool.accWETHPerShare */\n      0x03\n      dup6\n      add\n        /* \"contracts/final/GMDstaking.sol\":7558:7641  pool.accWETHPerShare = pool.accWETHPerShare.add(WETHReward.mul(1e12).div(lpSupply)) */\n      sstore\n      pop\n      pop\n        /* \"contracts/final/GMDstaking.sol\":7674:7689  block.timestamp */\n      timestamp\n        /* \"contracts/final/GMDstaking.sol\":7652:7671  pool.lastRewardTime */\n      0x02\n      swap1\n      swap3\n      add\n        /* \"contracts/final/GMDstaking.sol\":7652:7689  pool.lastRewardTime = block.timestamp */\n      swap2\n      swap1\n      swap2\n      sstore\n      pop\n      pop\n        /* \"contracts/final/GMDstaking.sol\":7001:7697  function updatePool(uint256 _pid) public {... */\n      jump\t// out\n        /* \"contracts/final/GMDstaking.sol\":9362:9885  function emergencyWithdraw(uint256 _pid) public  nonReentrant {... */\n    tag_80:\n        /* \"@openzeppelin/contracts/security/ReentrancyGuard.sol\":1744:1745  2 */\n      0x02\n        /* \"@openzeppelin/contracts/security/ReentrancyGuard.sol\":2325:2332  _status */\n      sload(0x01)\n        /* \"@openzeppelin/contracts/security/ReentrancyGuard.sol\":2325:2344  _status != _ENTERED */\n      eq\n      iszero\n        /* \"@openzeppelin/contracts/security/ReentrancyGuard.sol\":2317:2380  require(_status != _ENTERED, \"ReentrancyGuard: reentrant call\") */\n      tag_234\n      jumpi\n      mload(0x40)\n      shl(0xe5, 0x461bcd)\n      dup2\n      mstore\n      0x04\n      add\n      tag_138\n      swap1\n      tag_188\n      jump\t// in\n    tag_234:\n        /* \"@openzeppelin/contracts/security/ReentrancyGuard.sol\":1744:1745  2 */\n      0x02\n        /* \"@openzeppelin/contracts/security/ReentrancyGuard.sol\":2455:2462  _status */\n      0x01\n        /* \"@openzeppelin/contracts/security/ReentrancyGuard.sol\":2455:2473  _status = _ENTERED */\n      dup2\n      swap1\n      sstore\n      pop\n        /* \"contracts/final/GMDstaking.sol\":9435:9456  PoolInfo storage pool */\n      0x00\n        /* \"contracts/final/GMDstaking.sol\":9459:9467  poolInfo */\n      0x06\n        /* \"contracts/final/GMDstaking.sol\":9468:9472  _pid */\n      dup3\n        /* \"contracts/final/GMDstaking.sol\":9459:9473  poolInfo[_pid] */\n      dup2\n      sload\n      dup2\n      lt\n      tag_238\n      jumpi\n      tag_238\n      tag_153\n      jump\t// in\n    tag_238:\n      0x00\n      swap2\n      dup3\n      mstore\n      0x20\n      dup1\n      dup4\n      keccak256\n        /* \"contracts/final/GMDstaking.sol\":9508:9522  userInfo[_pid] */\n      dup6\n      dup5\n      mstore\n        /* \"contracts/final/GMDstaking.sol\":9508:9516  userInfo */\n      0x07\n        /* \"contracts/final/GMDstaking.sol\":9508:9522  userInfo[_pid] */\n      dup3\n      mstore\n      0x40\n      dup1\n      dup6\n      keccak256\n        /* \"contracts/final/GMDstaking.sol\":9523:9533  msg.sender */\n      caller\n        /* \"contracts/final/GMDstaking.sol\":9508:9534  userInfo[_pid][msg.sender] */\n      dup1\n      dup8\n      mstore\n      swap4\n      mstore\n      dup5\n      keccak256\n        /* \"contracts/final/GMDstaking.sol\":9568:9579  user.amount */\n      dup1\n      sload\n        /* \"contracts/final/GMDstaking.sol\":9590:9605  user.amount = 0 */\n      dup6\n      dup3\n      sstore\n      0x01\n        /* \"contracts/final/GMDstaking.sol\":9616:9631  user.rewardDebt */\n      dup3\n      add\n        /* \"contracts/final/GMDstaking.sol\":9616:9635  user.rewardDebt = 0 */\n      swap6\n      swap1\n      swap6\n      sstore\n        /* \"contracts/final/GMDstaking.sol\":9459:9473  poolInfo[_pid] */\n      0x04\n      swap1\n      swap4\n      mul\n      add\n      swap4\n      pop\n        /* \"contracts/final/GMDstaking.sol\":9508:9534  userInfo[_pid][msg.sender] */\n      swap1\n      swap2\n        /* \"contracts/final/GMDstaking.sol\":9568:9579  user.amount */\n      swap1\n        /* \"contracts/final/GMDstaking.sol\":9648:9728  pool.lpToken.safeTransfer(address(msg.sender), oldUserAmount.mul(700).div(1000)) */\n      tag_240\n      swap1\n        /* \"contracts/final/GMDstaking.sol\":9695:9727  oldUserAmount.mul(700).div(1000) */\n      tag_241\n        /* \"contracts/final/GMDstaking.sol\":9722:9726  1000 */\n      0x03e8\n        /* \"contracts/final/GMDstaking.sol\":9695:9717  oldUserAmount.mul(700) */\n      tag_202\n        /* \"contracts/final/GMDstaking.sol\":9568:9579  user.amount */\n      dup6\n        /* \"contracts/final/GMDstaking.sol\":9713:9716  700 */\n      0x02bc\n        /* \"contracts/final/GMDstaking.sol\":9695:9712  oldUserAmount.mul */\n      tag_203\n        /* \"contracts/final/GMDstaking.sol\":9695:9717  oldUserAmount.mul(700) */\n      jump\t// in\n        /* \"contracts/final/GMDstaking.sol\":9695:9727  oldUserAmount.mul(700).div(1000) */\n    tag_241:\n        /* \"contracts/final/GMDstaking.sol\":9648:9660  pool.lpToken */\n      dup6\n      sload\n      sub(shl(0xa0, 0x01), 0x01)\n      and\n      swap2\n        /* \"contracts/final/GMDstaking.sol\":9648:9728  pool.lpToken.safeTransfer(address(msg.sender), oldUserAmount.mul(700).div(1000)) */\n      swap1\n        /* \"contracts/final/GMDstaking.sol\":9648:9673  pool.lpToken.safeTransfer */\n      tag_213\n        /* \"contracts/final/GMDstaking.sol\":9648:9728  pool.lpToken.safeTransfer(address(msg.sender), oldUserAmount.mul(700).div(1000)) */\n      jump\t// in\n    tag_240:\n        /* \"contracts/final/GMDstaking.sol\":9739:9807  pool.lpToken.safeTransfer(owner(), oldUserAmount.mul(300).div(1000)) */\n      tag_243\n        /* \"contracts/final/GMDstaking.sol\":9765:9772  owner() */\n      tag_244\n        /* \"@openzeppelin/contracts/access/Ownable.sol\":1247:1254  address */\n      0x00\n        /* \"@openzeppelin/contracts/access/Ownable.sol\":1273:1279  _owner */\n      sload\n      sub(shl(0xa0, 0x01), 0x01)\n      and\n      swap1\n        /* \"@openzeppelin/contracts/access/Ownable.sol\":1201:1286  function owner() public view virtual returns (address) {... */\n      jump\n        /* \"contracts/final/GMDstaking.sol\":9765:9772  owner() */\n    tag_244:\n        /* \"contracts/final/GMDstaking.sol\":9774:9806  oldUserAmount.mul(300).div(1000) */\n      tag_241\n        /* \"contracts/final/GMDstaking.sol\":9801:9805  1000 */\n      0x03e8\n        /* \"contracts/final/GMDstaking.sol\":9774:9796  oldUserAmount.mul(300) */\n      tag_202\n        /* \"contracts/final/GMDstaking.sol\":9774:9787  oldUserAmount */\n      dup6\n        /* \"contracts/final/GMDstaking.sol\":9792:9795  300 */\n      0x012c\n        /* \"contracts/final/GMDstaking.sol\":9774:9791  oldUserAmount.mul */\n      tag_203\n        /* \"contracts/final/GMDstaking.sol\":9774:9796  oldUserAmount.mul(300) */\n      jump\t// in\n        /* \"contracts/final/GMDstaking.sol\":9739:9807  pool.lpToken.safeTransfer(owner(), oldUserAmount.mul(300).div(1000)) */\n    tag_243:\n        /* \"contracts/final/GMDstaking.sol\":9825:9875  EmergencyWithdraw(msg.sender, _pid, oldUserAmount) */\n      mload(0x40)\n        /* \"#utility.yul\":345:370   */\n      dup2\n      dup2\n      mstore\n        /* \"contracts/final/GMDstaking.sol\":9855:9859  _pid */\n      dup5\n      swap1\n        /* \"contracts/final/GMDstaking.sol\":9843:9853  msg.sender */\n      caller\n      swap1\n        /* \"contracts/final/GMDstaking.sol\":9825:9875  EmergencyWithdraw(msg.sender, _pid, oldUserAmount) */\n      0xbb757047c2b5f3974fe26b7c10f732e7bce710b0952a71082702781e62ae0595\n      swap1\n        /* \"#utility.yul\":333:335   */\n      0x20\n        /* \"#utility.yul\":318:336   */\n      add\n        /* \"contracts/final/GMDstaking.sol\":9825:9875  EmergencyWithdraw(msg.sender, _pid, oldUserAmount) */\n      mload(0x40)\n      dup1\n      swap2\n      sub\n      swap1\n      log3\n      pop\n      pop\n        /* \"@openzeppelin/contracts/security/ReentrancyGuard.sol\":1701:1702  1 */\n      0x01\n        /* \"@openzeppelin/contracts/security/ReentrancyGuard.sol\":2628:2650  _status = _NOT_ENTERED */\n      dup1\n      sstore\n      pop\n      pop\n        /* \"contracts/final/GMDstaking.sol\":9362:9885  function emergencyWithdraw(uint256 _pid) public  nonReentrant {... */\n      jump\t// out\n        /* \"contracts/final/GMDstaking.sol\":6745:6925  function massUpdatePools() public {... */\n    tag_82:\n        /* \"contracts/final/GMDstaking.sol\":6807:6815  poolInfo */\n      0x06\n        /* \"contracts/final/GMDstaking.sol\":6807:6822  poolInfo.length */\n      sload\n        /* \"contracts/final/GMDstaking.sol\":6790:6804  uint256 length */\n      0x00\n        /* \"contracts/final/GMDstaking.sol\":6833:6918  for (uint256 pid = 0; pid < length; ++pid) {... */\n    tag_249:\n        /* \"contracts/final/GMDstaking.sol\":6861:6867  length */\n      dup2\n        /* \"contracts/final/GMDstaking.sol\":6855:6858  pid */\n      dup2\n        /* \"contracts/final/GMDstaking.sol\":6855:6867  pid < length */\n      lt\n        /* \"contracts/final/GMDstaking.sol\":6833:6918  for (uint256 pid = 0; pid < length; ++pid) {... */\n      iszero\n      tag_171\n      jumpi\n        /* \"contracts/final/GMDstaking.sol\":6891:6906  updatePool(pid) */\n      tag_252\n        /* \"contracts/final/GMDstaking.sol\":6902:6905  pid */\n      dup2\n        /* \"contracts/final/GMDstaking.sol\":6891:6901  updatePool */\n      tag_77\n        /* \"contracts/final/GMDstaking.sol\":6891:6906  updatePool(pid) */\n      jump\t// in\n    tag_252:\n        /* \"contracts/final/GMDstaking.sol\":6869:6874  ++pid */\n      tag_253\n      dup2\n      tag_254\n      jump\t// in\n    tag_253:\n      swap1\n      pop\n        /* \"contracts/final/GMDstaking.sol\":6833:6918  for (uint256 pid = 0; pid < length; ++pid) {... */\n      jump(tag_249)\n        /* \"@openzeppelin/contracts/access/Ownable.sol\":1831:1932  function renounceOwnership() public virtual onlyOwner {... */\n    tag_84:\n        /* \"@openzeppelin/contracts/access/Ownable.sol\":1094:1107  _checkOwner() */\n      tag_256\n        /* \"@openzeppelin/contracts/access/Ownable.sol\":1094:1105  _checkOwner */\n      tag_135\n        /* \"@openzeppelin/contracts/access/Ownable.sol\":1094:1107  _checkOwner() */\n      jump\t// in\n    tag_256:\n        /* \"@openzeppelin/contracts/access/Ownable.sol\":1895:1925  _transferOwnership(address(0)) */\n      tag_258\n        /* \"@openzeppelin/contracts/access/Ownable.sol\":1922:1923  0 */\n      0x00\n        /* \"@openzeppelin/contracts/access/Ownable.sol\":1895:1913  _transferOwnership */\n      tag_259\n        /* \"@openzeppelin/contracts/access/Ownable.sol\":1895:1925  _transferOwnership(address(0)) */\n      jump\t// in\n    tag_258:\n        /* \"@openzeppelin/contracts/access/Ownable.sol\":1831:1932  function renounceOwnership() public virtual onlyOwner {... */\n      jump\t// out\n        /* \"contracts/final/GMDstaking.sol\":3352:3434  function closeWithdraw() external onlyOwner{... */\n    tag_89:\n        /* \"@openzeppelin/contracts/access/Ownable.sol\":1094:1107  _checkOwner() */\n      tag_261\n        /* \"@openzeppelin/contracts/access/Ownable.sol\":1094:1105  _checkOwner */\n      tag_135\n        /* \"@openzeppelin/contracts/access/Ownable.sol\":1094:1107  _checkOwner() */\n      jump\t// in\n    tag_261:\n        /* \"contracts/final/GMDstaking.sol\":3406:3418  withdrawable */\n      0x09\n        /* \"contracts/final/GMDstaking.sol\":3406:3426  withdrawable = false */\n      dup1\n      sload\n      not(0xff)\n      and\n      swap1\n      sstore\n        /* \"contracts/final/GMDstaking.sol\":3352:3434  function closeWithdraw() external onlyOwner{... */\n      jump\t// out\n        /* \"contracts/final/GMDstaking.sol\":3054:3134  function openWithdraw() external onlyOwner{... */\n    tag_91:\n        /* \"@openzeppelin/contracts/access/Ownable.sol\":1094:1107  _checkOwner() */\n      tag_264\n        /* \"@openzeppelin/contracts/access/Ownable.sol\":1094:1105  _checkOwner */\n      tag_135\n        /* \"@openzeppelin/contracts/access/Ownable.sol\":1094:1107  _checkOwner() */\n      jump\t// in\n    tag_264:\n        /* \"contracts/final/GMDstaking.sol\":3107:3119  withdrawable */\n      0x09\n        /* \"contracts/final/GMDstaking.sol\":3107:3126  withdrawable = true */\n      dup1\n      sload\n      not(0xff)\n      and\n        /* \"contracts/final/GMDstaking.sol\":3122:3126  true */\n      0x01\n        /* \"contracts/final/GMDstaking.sol\":3107:3126  withdrawable = true */\n      or\n      swap1\n      sstore\n        /* \"contracts/final/GMDstaking.sol\":3054:3134  function openWithdraw() external onlyOwner{... */\n      jump\t// out\n        /* \"contracts/final/GMDstaking.sol\":5594:5834  function getMultiplier(uint256 _from, uint256 _to) public view returns (uint256) {... */\n    tag_98:\n        /* \"contracts/final/GMDstaking.sol\":5666:5673  uint256 */\n      0x00\n        /* \"contracts/final/GMDstaking.sol\":5702:5711  startTime */\n      immutable(\"0x46612c86431bf839553975c6871c96460d6b955d2f53301921ef55c1ad868ef7\")\n        /* \"contracts/final/GMDstaking.sol\":5694:5699  _from */\n      dup4\n        /* \"contracts/final/GMDstaking.sol\":5694:5711  _from > startTime */\n      gt\n        /* \"contracts/final/GMDstaking.sol\":5694:5731  _from > startTime ? _from : startTime */\n      tag_268\n      jumpi\n        /* \"contracts/final/GMDstaking.sol\":5722:5731  startTime */\n      immutable(\"0x46612c86431bf839553975c6871c96460d6b955d2f53301921ef55c1ad868ef7\")\n        /* \"contracts/final/GMDstaking.sol\":5694:5731  _from > startTime ? _from : startTime */\n      jump(tag_269)\n    tag_268:\n        /* \"contracts/final/GMDstaking.sol\":5714:5719  _from */\n      dup3\n        /* \"contracts/final/GMDstaking.sol\":5694:5731  _from > startTime ? _from : startTime */\n    tag_269:\n        /* \"contracts/final/GMDstaking.sol\":5686:5731  _from = _from > startTime ? _from : startTime */\n      swap3\n      pop\n        /* \"contracts/final/GMDstaking.sol\":5752:5761  startTime */\n      immutable(\"0x46612c86431bf839553975c6871c96460d6b955d2f53301921ef55c1ad868ef7\")\n        /* \"contracts/final/GMDstaking.sol\":5746:5749  _to */\n      dup3\n        /* \"contracts/final/GMDstaking.sol\":5746:5761  _to < startTime */\n      lt\n        /* \"contracts/final/GMDstaking.sol\":5742:5798  if (_to < startTime) {... */\n      iszero\n      tag_270\n      jumpi\n      pop\n        /* \"contracts/final/GMDstaking.sol\":5785:5786  0 */\n      0x00\n        /* \"contracts/final/GMDstaking.sol\":5778:5786  return 0 */\n      jump(tag_267)\n        /* \"contracts/final/GMDstaking.sol\":5742:5798  if (_to < startTime) {... */\n    tag_270:\n        /* \"contracts/final/GMDstaking.sol\":5815:5826  _to - _from */\n      tag_271\n        /* \"contracts/final/GMDstaking.sol\":5821:5826  _from */\n      dup4\n        /* \"contracts/final/GMDstaking.sol\":5815:5818  _to */\n      dup4\n        /* \"contracts/final/GMDstaking.sol\":5815:5826  _to - _from */\n      tag_156\n      jump\t// in\n    tag_271:\n        /* \"contracts/final/GMDstaking.sol\":5808:5826  return _to - _from */\n      swap1\n      pop\n        /* \"contracts/final/GMDstaking.sol\":5594:5834  function getMultiplier(uint256 _from, uint256 _to) public view returns (uint256) {... */\n    tag_267:\n      swap3\n      swap2\n      pop\n      pop\n      jump\t// out\n        /* \"contracts/final/GMDstaking.sol\":5898:6662  function pendingWETH(uint256 _pid, address _user) external view returns (uint256) {... */\n    tag_111:\n        /* \"contracts/final/GMDstaking.sol\":5971:5978  uint256 */\n      0x00\n        /* \"contracts/final/GMDstaking.sol\":5991:6012  PoolInfo storage pool */\n      dup1\n        /* \"contracts/final/GMDstaking.sol\":6015:6023  poolInfo */\n      0x06\n        /* \"contracts/final/GMDstaking.sol\":6024:6028  _pid */\n      dup5\n        /* \"contracts/final/GMDstaking.sol\":6015:6029  poolInfo[_pid] */\n      dup2\n      sload\n      dup2\n      lt\n      tag_274\n      jumpi\n      tag_274\n      tag_153\n      jump\t// in\n    tag_274:\n      0x00\n      swap2\n      dup3\n      mstore\n      0x20\n      dup1\n      dup4\n      keccak256\n        /* \"contracts/final/GMDstaking.sol\":6064:6078  userInfo[_pid] */\n      dup8\n      dup5\n      mstore\n        /* \"contracts/final/GMDstaking.sol\":6064:6072  userInfo */\n      0x07\n        /* \"contracts/final/GMDstaking.sol\":6064:6078  userInfo[_pid] */\n      dup3\n      mstore\n      0x40\n      dup1\n      dup6\n      keccak256\n      sub(shl(0xa0, 0x01), 0x01)\n        /* \"contracts/final/GMDstaking.sol\":6064:6085  userInfo[_pid][_user] */\n      dup10\n      dup2\n      and\n      dup8\n      mstore\n      swap4\n      mstore\n      dup1\n      dup6\n      keccak256\n        /* \"contracts/final/GMDstaking.sol\":6015:6029  poolInfo[_pid] */\n      0x04\n      swap5\n      dup6\n      mul\n      swap1\n      swap3\n      add\n        /* \"contracts/final/GMDstaking.sol\":6122:6142  pool.accWETHPerShare */\n      0x03\n      dup2\n      add\n      sload\n        /* \"contracts/final/GMDstaking.sol\":6172:6184  pool.lpToken */\n      dup2\n      sload\n        /* \"contracts/final/GMDstaking.sol\":6172:6209  pool.lpToken.balanceOf(address(this)) */\n      swap3\n      mload\n      shl(0xe0, 0x70a08231)\n      dup2\n      mstore\n        /* \"contracts/final/GMDstaking.sol\":6203:6207  this */\n      address\n        /* \"contracts/final/GMDstaking.sol\":6172:6209  pool.lpToken.balanceOf(address(this)) */\n      swap7\n      dup2\n      add\n        /* \"#utility.yul\":1894:1945   */\n      swap7\n      swap1\n      swap7\n      mstore\n        /* \"contracts/final/GMDstaking.sol\":6015:6029  poolInfo[_pid] */\n      swap1\n      swap7\n      pop\n        /* \"contracts/final/GMDstaking.sol\":6064:6085  userInfo[_pid][_user] */\n      swap2\n      swap5\n        /* \"contracts/final/GMDstaking.sol\":6122:6142  pool.accWETHPerShare */\n      swap2\n      swap4\n        /* \"contracts/final/GMDstaking.sol\":6015:6029  poolInfo[_pid] */\n      swap2\n      swap3\n        /* \"contracts/final/GMDstaking.sol\":6172:6184  pool.lpToken */\n      and\n      swap1\n        /* \"contracts/final/GMDstaking.sol\":6172:6194  pool.lpToken.balanceOf */\n      0x70a08231\n      swap1\n        /* \"#utility.yul\":1867:1885   */\n      0x24\n      add\n        /* \"contracts/final/GMDstaking.sol\":6172:6209  pool.lpToken.balanceOf(address(this)) */\n      0x20\n      mload(0x40)\n      dup1\n      dup4\n      sub\n      dup2\n      dup7\n      gas\n      staticcall\n      iszero\n      dup1\n      iszero\n      tag_278\n      jumpi\n      returndatasize\n      0x00\n      dup1\n      returndatacopy\n      revert(0x00, returndatasize)\n    tag_278:\n      pop\n      pop\n      pop\n      pop\n      mload(0x40)\n      returndatasize\n      not(0x1f)\n      0x1f\n      dup3\n      add\n      and\n      dup3\n      add\n      dup1\n      0x40\n      mstore\n      pop\n      dup2\n      add\n      swap1\n      tag_279\n      swap2\n      swap1\n      tag_224\n      jump\t// in\n    tag_279:\n        /* \"contracts/final/GMDstaking.sol\":6153:6209  uint256 lpSupply = pool.lpToken.balanceOf(address(this)) */\n      swap1\n      pop\n        /* \"contracts/final/GMDstaking.sol\":6242:6246  pool */\n      dup4\n        /* \"contracts/final/GMDstaking.sol\":6242:6261  pool.lastRewardTime */\n      0x02\n      add\n      sload\n        /* \"contracts/final/GMDstaking.sol\":6224:6239  block.timestamp */\n      timestamp\n        /* \"contracts/final/GMDstaking.sol\":6224:6261  block.timestamp > pool.lastRewardTime */\n      gt\n        /* \"contracts/final/GMDstaking.sol\":6224:6278  block.timestamp > pool.lastRewardTime && lpSupply != 0 */\n      dup1\n      iszero\n      tag_280\n      jumpi\n      pop\n        /* \"contracts/final/GMDstaking.sol\":6265:6278  lpSupply != 0 */\n      dup1\n      iszero\n      iszero\n        /* \"contracts/final/GMDstaking.sol\":6224:6278  block.timestamp > pool.lastRewardTime && lpSupply != 0 */\n    tag_280:\n        /* \"contracts/final/GMDstaking.sol\":6220:6574  if (block.timestamp > pool.lastRewardTime && lpSupply != 0) {... */\n      iszero\n      tag_281\n      jumpi\n        /* \"contracts/final/GMDstaking.sol\":6295:6313  uint256 multiplier */\n      0x00\n        /* \"contracts/final/GMDstaking.sol\":6316:6367  getMultiplier(pool.lastRewardTime, block.timestamp) */\n      tag_282\n        /* \"contracts/final/GMDstaking.sol\":6330:6334  pool */\n      dup6\n        /* \"contracts/final/GMDstaking.sol\":6330:6349  pool.lastRewardTime */\n      0x02\n      add\n      sload\n        /* \"contracts/final/GMDstaking.sol\":6351:6366  block.timestamp */\n      timestamp\n        /* \"contracts/final/GMDstaking.sol\":6316:6329  getMultiplier */\n      tag_98\n        /* \"contracts/final/GMDstaking.sol\":6316:6367  getMultiplier(pool.lastRewardTime, block.timestamp) */\n      jump\t// in\n    tag_282:\n        /* \"contracts/final/GMDstaking.sol\":6295:6367  uint256 multiplier = getMultiplier(pool.lastRewardTime, block.timestamp) */\n      swap1\n      pop\n        /* \"contracts/final/GMDstaking.sol\":6382:6400  uint256 WETHReward */\n      0x00\n        /* \"contracts/final/GMDstaking.sol\":6403:6474  multiplier.mul(WETHPerSecond).mul(pool.allocPoint).div(totalAllocPoint) */\n      tag_283\n        /* \"contracts/final/GMDstaking.sol\":6458:6473  totalAllocPoint */\n      sload(0x08)\n        /* \"contracts/final/GMDstaking.sol\":6403:6453  multiplier.mul(WETHPerSecond).mul(pool.allocPoint) */\n      tag_202\n        /* \"contracts/final/GMDstaking.sol\":6437:6441  pool */\n      dup9\n        /* \"contracts/final/GMDstaking.sol\":6437:6452  pool.allocPoint */\n      0x01\n      add\n      sload\n        /* \"contracts/final/GMDstaking.sol\":6403:6432  multiplier.mul(WETHPerSecond) */\n      tag_229\n        /* \"contracts/final/GMDstaking.sol\":6418:6431  WETHPerSecond */\n      sload(0x04)\n        /* \"contracts/final/GMDstaking.sol\":6403:6413  multiplier */\n      dup8\n        /* \"contracts/final/GMDstaking.sol\":6403:6417  multiplier.mul */\n      tag_203\n      swap1\n        /* \"contracts/final/GMDstaking.sol\":6403:6432  multiplier.mul(WETHPerSecond) */\n      swap2\n      swap1\n      0xffffffff\n      and\n      jump\t// in\n        /* \"contracts/final/GMDstaking.sol\":6403:6474  multiplier.mul(WETHPerSecond).mul(pool.allocPoint).div(totalAllocPoint) */\n    tag_283:\n        /* \"contracts/final/GMDstaking.sol\":6382:6474  uint256 WETHReward = multiplier.mul(WETHPerSecond).mul(pool.allocPoint).div(totalAllocPoint) */\n      swap1\n      pop\n        /* \"contracts/final/GMDstaking.sol\":6507:6562  accWETHPerShare.add(WETHReward.mul(1e12).div(lpSupply)) */\n      tag_286\n        /* \"contracts/final/GMDstaking.sol\":6527:6561  WETHReward.mul(1e12).div(lpSupply) */\n      tag_287\n        /* \"contracts/final/GMDstaking.sol\":6552:6560  lpSupply */\n      dup5\n        /* \"contracts/final/GMDstaking.sol\":6527:6547  WETHReward.mul(1e12) */\n      tag_202\n        /* \"contracts/final/GMDstaking.sol\":6382:6474  uint256 WETHReward = multiplier.mul(WETHPerSecond).mul(pool.allocPoint).div(totalAllocPoint) */\n      dup5\n        /* \"contracts/final/GMDstaking.sol\":6542:6546  1e12 */\n      0xe8d4a51000\n        /* \"contracts/final/GMDstaking.sol\":6527:6541  WETHReward.mul */\n      tag_203\n        /* \"contracts/final/GMDstaking.sol\":6527:6547  WETHReward.mul(1e12) */\n      jump\t// in\n        /* \"contracts/final/GMDstaking.sol\":6527:6561  WETHReward.mul(1e12).div(lpSupply) */\n    tag_287:\n        /* \"contracts/final/GMDstaking.sol\":6507:6522  accWETHPerShare */\n      dup6\n      swap1\n        /* \"contracts/final/GMDstaking.sol\":6507:6526  accWETHPerShare.add */\n      tag_166\n        /* \"contracts/final/GMDstaking.sol\":6507:6562  accWETHPerShare.add(WETHReward.mul(1e12).div(lpSupply)) */\n      jump\t// in\n    tag_286:\n        /* \"contracts/final/GMDstaking.sol\":6489:6562  accWETHPerShare = accWETHPerShare.add(WETHReward.mul(1e12).div(lpSupply)) */\n      swap4\n      pop\n        /* \"contracts/final/GMDstaking.sol\":6280:6574  {... */\n      pop\n      pop\n        /* \"contracts/final/GMDstaking.sol\":6220:6574  if (block.timestamp > pool.lastRewardTime && lpSupply != 0) {... */\n    tag_281:\n        /* \"contracts/final/GMDstaking.sol\":6591:6654  user.amount.mul(accWETHPerShare).div(1e12).sub(user.rewardDebt) */\n      tag_289\n        /* \"contracts/final/GMDstaking.sol\":6638:6642  user */\n      dup4\n        /* \"contracts/final/GMDstaking.sol\":6638:6653  user.rewardDebt */\n      0x01\n      add\n      sload\n        /* \"contracts/final/GMDstaking.sol\":6591:6633  user.amount.mul(accWETHPerShare).div(1e12) */\n      tag_201\n        /* \"contracts/final/GMDstaking.sol\":6628:6632  1e12 */\n      0xe8d4a51000\n        /* \"contracts/final/GMDstaking.sol\":6591:6623  user.amount.mul(accWETHPerShare) */\n      tag_202\n        /* \"contracts/final/GMDstaking.sol\":6607:6622  accWETHPerShare */\n      dup7\n        /* \"contracts/final/GMDstaking.sol\":6591:6595  user */\n      dup9\n        /* \"contracts/final/GMDstaking.sol\":6591:6602  user.amount */\n      0x00\n      add\n      sload\n        /* \"contracts/final/GMDstaking.sol\":6591:6606  user.amount.mul */\n      tag_203\n      swap1\n        /* \"contracts/final/GMDstaking.sol\":6591:6623  user.amount.mul(accWETHPerShare) */\n      swap2\n      swap1\n      0xffffffff\n      and\n      jump\t// in\n        /* \"contracts/final/GMDstaking.sol\":6591:6654  user.amount.mul(accWETHPerShare).div(1e12).sub(user.rewardDebt) */\n    tag_289:\n        /* \"contracts/final/GMDstaking.sol\":6584:6654  return user.amount.mul(accWETHPerShare).div(1e12).sub(user.rewardDebt) */\n      swap8\n        /* \"contracts/final/GMDstaking.sol\":5898:6662  function pendingWETH(uint256 _pid, address _user) external view returns (uint256) {... */\n      swap7\n      pop\n      pop\n      pop\n      pop\n      pop\n      pop\n      pop\n      jump\t// out\n        /* \"contracts/final/GMDstaking.sol\":7766:8438  function deposit(uint256 _pid, uint256 _amount) public nonReentrant {... */\n    tag_125:\n        /* \"@openzeppelin/contracts/security/ReentrancyGuard.sol\":1744:1745  2 */\n      0x02\n        /* \"@openzeppelin/contracts/security/ReentrancyGuard.sol\":2325:2332  _status */\n      sload(0x01)\n        /* \"@openzeppelin/contracts/security/ReentrancyGuard.sol\":2325:2344  _status != _ENTERED */\n      eq\n      iszero\n        /* \"@openzeppelin/contracts/security/ReentrancyGuard.sol\":2317:2380  require(_status != _ENTERED, \"ReentrancyGuard: reentrant call\") */\n      tag_293\n      jumpi\n      mload(0x40)\n      shl(0xe5, 0x461bcd)\n      dup2\n      mstore\n      0x04\n      add\n      tag_138\n      swap1\n      tag_188\n      jump\t// in\n    tag_293:\n        /* \"@openzeppelin/contracts/security/ReentrancyGuard.sol\":1744:1745  2 */\n      0x02\n        /* \"@openzeppelin/contracts/security/ReentrancyGuard.sol\":2455:2462  _status */\n      0x01\n        /* \"@openzeppelin/contracts/security/ReentrancyGuard.sol\":2455:2473  _status = _ENTERED */\n      dup2\n      swap1\n      sstore\n      pop\n        /* \"contracts/final/GMDstaking.sol\":7847:7868  PoolInfo storage pool */\n      0x00\n        /* \"contracts/final/GMDstaking.sol\":7871:7879  poolInfo */\n      0x06\n        /* \"contracts/final/GMDstaking.sol\":7880:7884  _pid */\n      dup4\n        /* \"contracts/final/GMDstaking.sol\":7871:7885  poolInfo[_pid] */\n      dup2\n      sload\n      dup2\n      lt\n      tag_297\n      jumpi\n      tag_297\n      tag_153\n      jump\t// in\n    tag_297:\n      0x00\n      swap2\n      dup3\n      mstore\n      0x20\n      dup1\n      dup4\n      keccak256\n        /* \"contracts/final/GMDstaking.sol\":7920:7934  userInfo[_pid] */\n      dup7\n      dup5\n      mstore\n        /* \"contracts/final/GMDstaking.sol\":7920:7928  userInfo */\n      0x07\n        /* \"contracts/final/GMDstaking.sol\":7920:7934  userInfo[_pid] */\n      dup3\n      mstore\n      0x40\n      dup1\n      dup6\n      keccak256\n        /* \"contracts/final/GMDstaking.sol\":7935:7945  msg.sender */\n      caller\n        /* \"contracts/final/GMDstaking.sol\":7920:7946  userInfo[_pid][msg.sender] */\n      dup7\n      mstore\n      swap1\n      swap3\n      mstore\n      swap3\n      keccak256\n        /* \"contracts/final/GMDstaking.sol\":7871:7885  poolInfo[_pid] */\n      0x04\n      swap1\n      swap2\n      mul\n      swap1\n      swap2\n      add\n      swap2\n      pop\n        /* \"contracts/final/GMDstaking.sol\":7959:7975  updatePool(_pid) */\n      tag_299\n        /* \"contracts/final/GMDstaking.sol\":7929:7933  _pid */\n      dup5\n        /* \"contracts/final/GMDstaking.sol\":7959:7969  updatePool */\n      tag_77\n        /* \"contracts/final/GMDstaking.sol\":7959:7975  updatePool(_pid) */\n      jump\t// in\n    tag_299:\n        /* \"contracts/final/GMDstaking.sol\":7988:8003  uint256 pending */\n      0x00\n        /* \"contracts/final/GMDstaking.sol\":8006:8074  user.amount.mul(pool.accWETHPerShare).div(1e12).sub(user.rewardDebt) */\n      tag_300\n        /* \"contracts/final/GMDstaking.sol\":8058:8062  user */\n      dup3\n        /* \"contracts/final/GMDstaking.sol\":8058:8073  user.rewardDebt */\n      0x01\n      add\n      sload\n        /* \"contracts/final/GMDstaking.sol\":8006:8053  user.amount.mul(pool.accWETHPerShare).div(1e12) */\n      tag_201\n        /* \"contracts/final/GMDstaking.sol\":8048:8052  1e12 */\n      0xe8d4a51000\n        /* \"contracts/final/GMDstaking.sol\":8006:8043  user.amount.mul(pool.accWETHPerShare) */\n      tag_202\n        /* \"contracts/final/GMDstaking.sol\":8022:8026  pool */\n      dup8\n        /* \"contracts/final/GMDstaking.sol\":8022:8042  pool.accWETHPerShare */\n      0x03\n      add\n      sload\n        /* \"contracts/final/GMDstaking.sol\":8006:8010  user */\n      dup8\n        /* \"contracts/final/GMDstaking.sol\":8006:8017  user.amount */\n      0x00\n      add\n      sload\n        /* \"contracts/final/GMDstaking.sol\":8006:8021  user.amount.mul */\n      tag_203\n      swap1\n        /* \"contracts/final/GMDstaking.sol\":8006:8043  user.amount.mul(pool.accWETHPerShare) */\n      swap2\n      swap1\n      0xffffffff\n      and\n      jump\t// in\n        /* \"contracts/final/GMDstaking.sol\":8006:8074  user.amount.mul(pool.accWETHPerShare).div(1e12).sub(user.rewardDebt) */\n    tag_300:\n        /* \"contracts/final/GMDstaking.sol\":8101:8112  user.amount */\n      dup3\n      sload\n        /* \"contracts/final/GMDstaking.sol\":7988:8074  uint256 pending = user.amount.mul(pool.accWETHPerShare).div(1e12).sub(user.rewardDebt) */\n      swap1\n      swap2\n      pop\n        /* \"contracts/final/GMDstaking.sol\":8101:8125  user.amount.add(_amount) */\n      tag_303\n      swap1\n        /* \"contracts/final/GMDstaking.sol\":8117:8124  _amount */\n      dup6\n        /* \"contracts/final/GMDstaking.sol\":8101:8116  user.amount.add */\n      tag_166\n        /* \"contracts/final/GMDstaking.sol\":8101:8125  user.amount.add(_amount) */\n      jump\t// in\n    tag_303:\n        /* \"contracts/final/GMDstaking.sol\":8087:8125  user.amount = user.amount.add(_amount) */\n      dup1\n      dup4\n      sstore\n        /* \"contracts/final/GMDstaking.sol\":8170:8190  pool.accWETHPerShare */\n      0x03\n      dup5\n      add\n      sload\n        /* \"contracts/final/GMDstaking.sol\":8154:8201  user.amount.mul(pool.accWETHPerShare).div(1e12) */\n      tag_304\n      swap2\n        /* \"contracts/final/GMDstaking.sol\":8196:8200  1e12 */\n      0xe8d4a51000\n      swap2\n        /* \"contracts/final/GMDstaking.sol\":8154:8191  user.amount.mul(pool.accWETHPerShare) */\n      tag_202\n      swap2\n        /* \"contracts/final/GMDstaking.sol\":8087:8125  user.amount = user.amount.add(_amount) */\n      swap1\n        /* \"contracts/final/GMDstaking.sol\":8154:8169  user.amount.mul */\n      tag_203\n        /* \"contracts/final/GMDstaking.sol\":8154:8191  user.amount.mul(pool.accWETHPerShare) */\n      jump\t// in\n        /* \"contracts/final/GMDstaking.sol\":8154:8201  user.amount.mul(pool.accWETHPerShare).div(1e12) */\n    tag_304:\n        /* \"contracts/final/GMDstaking.sol\":8136:8151  user.rewardDebt */\n      0x01\n      dup4\n      add\n        /* \"contracts/final/GMDstaking.sol\":8136:8201  user.rewardDebt = user.amount.mul(pool.accWETHPerShare).div(1e12) */\n      sstore\n        /* \"contracts/final/GMDstaking.sol\":8217:8228  pending > 0 */\n      dup1\n      iszero\n        /* \"contracts/final/GMDstaking.sol\":8214:8294  if(pending > 0) {... */\n      tag_307\n      jumpi\n        /* \"contracts/final/GMDstaking.sol\":8245:8282  safeWETHTransfer(msg.sender, pending) */\n      tag_307\n        /* \"contracts/final/GMDstaking.sol\":8262:8272  msg.sender */\n      caller\n        /* \"contracts/final/GMDstaking.sol\":8274:8281  pending */\n      dup3\n        /* \"contracts/final/GMDstaking.sol\":8245:8261  safeWETHTransfer */\n      tag_211\n        /* \"contracts/final/GMDstaking.sol\":8245:8282  safeWETHTransfer(msg.sender, pending) */\n      jump\t// in\n    tag_307:\n        /* \"contracts/final/GMDstaking.sol\":8304:8316  pool.lpToken */\n      dup3\n      sload\n        /* \"contracts/final/GMDstaking.sol\":8304:8378  pool.lpToken.safeTransferFrom(address(msg.sender), address(this), _amount) */\n      tag_308\n      swap1\n      sub(shl(0xa0, 0x01), 0x01)\n        /* \"contracts/final/GMDstaking.sol\":8304:8316  pool.lpToken */\n      and\n        /* \"contracts/final/GMDstaking.sol\":8342:8352  msg.sender */\n      caller\n        /* \"contracts/final/GMDstaking.sol\":8363:8367  this */\n      address\n        /* \"contracts/final/GMDstaking.sol\":8370:8377  _amount */\n      dup8\n        /* \"contracts/final/GMDstaking.sol\":8304:8333  pool.lpToken.safeTransferFrom */\n      tag_309\n        /* \"contracts/final/GMDstaking.sol\":8304:8378  pool.lpToken.safeTransferFrom(address(msg.sender), address(this), _amount) */\n      jump\t// in\n    tag_308:\n        /* \"contracts/final/GMDstaking.sol\":8396:8430  Deposit(msg.sender, _pid, _amount) */\n      mload(0x40)\n        /* \"#utility.yul\":345:370   */\n      dup5\n      dup2\n      mstore\n        /* \"contracts/final/GMDstaking.sol\":8416:8420  _pid */\n      dup6\n      swap1\n        /* \"contracts/final/GMDstaking.sol\":8404:8414  msg.sender */\n      caller\n      swap1\n        /* \"contracts/final/GMDstaking.sol\":8396:8430  Deposit(msg.sender, _pid, _amount) */\n      0x90890809c654f11d6e72a28fa60149770a0d11ec6c92319d6ceb2bb0a4ea1a15\n      swap1\n        /* \"#utility.yul\":333:335   */\n      0x20\n        /* \"#utility.yul\":318:336   */\n      add\n        /* \"contracts/final/GMDstaking.sol\":8396:8430  Deposit(msg.sender, _pid, _amount) */\n      tag_214\n        /* \"#utility.yul\":199:376   */\n      jump\n        /* \"@openzeppelin/contracts/access/Ownable.sol\":2081:2279  function transferOwnership(address newOwner) public virtual onlyOwner {... */\n    tag_129:\n        /* \"@openzeppelin/contracts/access/Ownable.sol\":1094:1107  _checkOwner() */\n      tag_312\n        /* \"@openzeppelin/contracts/access/Ownable.sol\":1094:1105  _checkOwner */\n      tag_135\n        /* \"@openzeppelin/contracts/access/Ownable.sol\":1094:1107  _checkOwner() */\n      jump\t// in\n    tag_312:\n      sub(shl(0xa0, 0x01), 0x01)\n        /* \"@openzeppelin/contracts/access/Ownable.sol\":2169:2191  newOwner != address(0) */\n      dup2\n      and\n        /* \"@openzeppelin/contracts/access/Ownable.sol\":2161:2234  require(newOwner != address(0), \"Ownable: new owner is the zero address\") */\n      tag_314\n      jumpi\n      mload(0x40)\n      shl(0xe5, 0x461bcd)\n      dup2\n      mstore\n        /* \"#utility.yul\":6553:6555   */\n      0x20\n        /* \"@openzeppelin/contracts/access/Ownable.sol\":2161:2234  require(newOwner != address(0), \"Ownable: new owner is the zero address\") */\n      0x04\n      dup3\n      add\n        /* \"#utility.yul\":6535:6556   */\n      mstore\n        /* \"#utility.yul\":6592:6594   */\n      0x26\n        /* \"#utility.yul\":6572:6590   */\n      0x24\n      dup3\n      add\n        /* \"#utility.yul\":6565:6595   */\n      mstore\n        /* \"#utility.yul\":6631:6665   */\n      0x4f776e61626c653a206e6577206f776e657220697320746865207a65726f2061\n        /* \"#utility.yul\":6611:6629   */\n      0x44\n      dup3\n      add\n        /* \"#utility.yul\":6604:6666   */\n      mstore\n      shl(0xd0, 0x646472657373)\n        /* \"#utility.yul\":6682:6700   */\n      0x64\n      dup3\n      add\n        /* \"#utility.yul\":6675:6711   */\n      mstore\n        /* \"#utility.yul\":6728:6747   */\n      0x84\n      add\n        /* \"@openzeppelin/contracts/access/Ownable.sol\":2161:2234  require(newOwner != address(0), \"Ownable: new owner is the zero address\") */\n      tag_138\n        /* \"#utility.yul\":6351:6753   */\n      jump\n        /* \"@openzeppelin/contracts/access/Ownable.sol\":2161:2234  require(newOwner != address(0), \"Ownable: new owner is the zero address\") */\n    tag_314:\n        /* \"@openzeppelin/contracts/access/Ownable.sol\":2244:2272  _transferOwnership(newOwner) */\n      tag_317\n        /* \"@openzeppelin/contracts/access/Ownable.sol\":2263:2271  newOwner */\n      dup2\n        /* \"@openzeppelin/contracts/access/Ownable.sol\":2244:2262  _transferOwnership */\n      tag_259\n        /* \"@openzeppelin/contracts/access/Ownable.sol\":2244:2272  _transferOwnership(newOwner) */\n      jump\t// in\n    tag_317:\n        /* \"@openzeppelin/contracts/access/Ownable.sol\":2081:2279  function transferOwnership(address newOwner) public virtual onlyOwner {... */\n      pop\n      jump\t// out\n        /* \"@openzeppelin/contracts/access/Ownable.sol\":1359:1489  function _checkOwner() internal view virtual {... */\n    tag_135:\n        /* \"@openzeppelin/contracts/access/Ownable.sol\":1247:1254  address */\n      0x00\n        /* \"@openzeppelin/contracts/access/Ownable.sol\":1273:1279  _owner */\n      sload\n      sub(shl(0xa0, 0x01), 0x01)\n      and\n        /* \"@openzeppelin/contracts/utils/Context.sol\":719:729  msg.sender */\n      caller\n        /* \"@openzeppelin/contracts/access/Ownable.sol\":1422:1445  owner() == _msgSender() */\n      eq\n        /* \"@openzeppelin/contracts/access/Ownable.sol\":1414:1482  require(owner() == _msgSender(), \"Ownable: caller is not the owner\") */\n      tag_258\n      jumpi\n      mload(0x40)\n      shl(0xe5, 0x461bcd)\n      dup2\n      mstore\n        /* \"#utility.yul\":6960:6962   */\n      0x20\n        /* \"@openzeppelin/contracts/access/Ownable.sol\":1414:1482  require(owner() == _msgSender(), \"Ownable: caller is not the owner\") */\n      0x04\n      dup3\n      add\n        /* \"#utility.yul\":6942:6963   */\n      dup2\n      swap1\n      mstore\n        /* \"#utility.yul\":6979:6997   */\n      0x24\n      dup3\n      add\n        /* \"#utility.yul\":6972:7002   */\n      mstore\n        /* \"#utility.yul\":7038:7072   */\n      0x4f776e61626c653a2063616c6c6572206973206e6f7420746865206f776e6572\n        /* \"#utility.yul\":7018:7036   */\n      0x44\n      dup3\n      add\n        /* \"#utility.yul\":7011:7073   */\n      mstore\n        /* \"#utility.yul\":7090:7108   */\n      0x64\n      add\n        /* \"@openzeppelin/contracts/access/Ownable.sol\":1414:1482  require(owner() == _msgSender(), \"Ownable: caller is not the owner\") */\n      tag_138\n        /* \"#utility.yul\":6758:7114   */\n      jump\n        /* \"@openzeppelin/contracts/utils/math/SafeMath.sol\":2755:2851  function add(uint256 a, uint256 b) internal pure returns (uint256) {... */\n    tag_166:\n        /* \"@openzeppelin/contracts/utils/math/SafeMath.sol\":2813:2820  uint256 */\n      0x00\n        /* \"@openzeppelin/contracts/utils/math/SafeMath.sol\":2839:2844  a + b */\n      tag_271\n        /* \"@openzeppelin/contracts/utils/math/SafeMath.sol\":2843:2844  b */\n      dup3\n        /* \"@openzeppelin/contracts/utils/math/SafeMath.sol\":2839:2840  a */\n      dup5\n        /* \"@openzeppelin/contracts/utils/math/SafeMath.sol\":2839:2844  a + b */\n      tag_158\n      jump\t// in\n        /* \"contracts/final/GMDstaking.sol\":4137:4406  function checkForDuplicate(IERC20 _lpToken) internal view {... */\n    tag_179:\n        /* \"contracts/final/GMDstaking.sol\":4223:4231  poolInfo */\n      0x06\n        /* \"contracts/final/GMDstaking.sol\":4223:4238  poolInfo.length */\n      sload\n        /* \"contracts/final/GMDstaking.sol\":4206:4220  uint256 length */\n      0x00\n        /* \"contracts/final/GMDstaking.sol\":4249:4397  for (uint256 _pid = 0; _pid < length; _pid++) {... */\n    tag_328:\n        /* \"contracts/final/GMDstaking.sol\":4279:4285  length */\n      dup2\n        /* \"contracts/final/GMDstaking.sol\":4272:4276  _pid */\n      dup2\n        /* \"contracts/final/GMDstaking.sol\":4272:4285  _pid < length */\n      lt\n        /* \"contracts/final/GMDstaking.sol\":4249:4397  for (uint256 _pid = 0; _pid < length; _pid++) {... */\n      iszero\n      tag_329\n      jumpi\n        /* \"contracts/final/GMDstaking.sol\":4344:4352  _lpToken */\n      dup3\n      sub(shl(0xa0, 0x01), 0x01)\n        /* \"contracts/final/GMDstaking.sol\":4318:4352  poolInfo[_pid].lpToken != _lpToken */\n      and\n        /* \"contracts/final/GMDstaking.sol\":4318:4326  poolInfo */\n      0x06\n        /* \"contracts/final/GMDstaking.sol\":4327:4331  _pid */\n      dup3\n        /* \"contracts/final/GMDstaking.sol\":4318:4332  poolInfo[_pid] */\n      dup2\n      sload\n      dup2\n      lt\n      tag_332\n      jumpi\n      tag_332\n      tag_153\n      jump\t// in\n    tag_332:\n      0x00\n      swap2\n      dup3\n      mstore\n      0x20\n      swap1\n      swap2\n      keccak256\n      0x04\n      swap1\n      swap2\n      mul\n      add\n        /* \"contracts/final/GMDstaking.sol\":4318:4340  poolInfo[_pid].lpToken */\n      sload\n      sub(shl(0xa0, 0x01), 0x01)\n      and\n        /* \"contracts/final/GMDstaking.sol\":4318:4352  poolInfo[_pid].lpToken != _lpToken */\n      eq\n      iszero\n        /* \"contracts/final/GMDstaking.sol\":4310:4385  require(poolInfo[_pid].lpToken != _lpToken, \"add: pool already exists!!!!\") */\n      tag_334\n      jumpi\n      mload(0x40)\n      shl(0xe5, 0x461bcd)\n      dup2\n      mstore\n        /* \"#utility.yul\":7321:7323   */\n      0x20\n        /* \"contracts/final/GMDstaking.sol\":4310:4385  require(poolInfo[_pid].lpToken != _lpToken, \"add: pool already exists!!!!\") */\n      0x04\n      dup3\n      add\n        /* \"#utility.yul\":7303:7324   */\n      mstore\n        /* \"#utility.yul\":7360:7362   */\n      0x1c\n        /* \"#utility.yul\":7340:7358   */\n      0x24\n      dup3\n      add\n        /* \"#utility.yul\":7333:7363   */\n      mstore\n        /* \"#utility.yul\":7399:7429   */\n      0x6164643a20706f6f6c20616c7265616479206578697374732121212100000000\n        /* \"#utility.yul\":7379:7397   */\n      0x44\n      dup3\n      add\n        /* \"#utility.yul\":7372:7430   */\n      mstore\n        /* \"#utility.yul\":7447:7465   */\n      0x64\n      add\n        /* \"contracts/final/GMDstaking.sol\":4310:4385  require(poolInfo[_pid].lpToken != _lpToken, \"add: pool already exists!!!!\") */\n      tag_138\n        /* \"#utility.yul\":7119:7471   */\n      jump\n        /* \"contracts/final/GMDstaking.sol\":4310:4385  require(poolInfo[_pid].lpToken != _lpToken, \"add: pool already exists!!!!\") */\n    tag_334:\n        /* \"contracts/final/GMDstaking.sol\":4287:4293  _pid++ */\n      dup1\n      tag_337\n      dup2\n      tag_254\n      jump\t// in\n    tag_337:\n      swap2\n      pop\n      pop\n        /* \"contracts/final/GMDstaking.sol\":4249:4397  for (uint256 _pid = 0; _pid < length; _pid++) {... */\n      jump(tag_328)\n    tag_329:\n      pop\n        /* \"contracts/final/GMDstaking.sol\":4195:4406  {... */\n      pop\n        /* \"contracts/final/GMDstaking.sol\":4137:4406  function checkForDuplicate(IERC20 _lpToken) internal view {... */\n      pop\n      jump\t// out\n        /* \"@openzeppelin/contracts/utils/math/SafeMath.sol\":3465:3561  function mul(uint256 a, uint256 b) internal pure returns (uint256) {... */\n    tag_203:\n        /* \"@openzeppelin/contracts/utils/math/SafeMath.sol\":3523:3530  uint256 */\n      0x00\n        /* \"@openzeppelin/contracts/utils/math/SafeMath.sol\":3549:3554  a * b */\n      tag_271\n        /* \"@openzeppelin/contracts/utils/math/SafeMath.sol\":3553:3554  b */\n      dup3\n        /* \"@openzeppelin/contracts/utils/math/SafeMath.sol\":3549:3550  a */\n      dup5\n        /* \"@openzeppelin/contracts/utils/math/SafeMath.sol\":3549:3554  a * b */\n      tag_340\n      jump\t// in\n        /* \"@openzeppelin/contracts/utils/math/SafeMath.sol\":3850:3946  function div(uint256 a, uint256 b) internal pure returns (uint256) {... */\n    tag_204:\n        /* \"@openzeppelin/contracts/utils/math/SafeMath.sol\":3908:3915  uint256 */\n      0x00\n        /* \"@openzeppelin/contracts/utils/math/SafeMath.sol\":3934:3939  a / b */\n      tag_271\n        /* \"@openzeppelin/contracts/utils/math/SafeMath.sol\":3938:3939  b */\n      dup3\n        /* \"@openzeppelin/contracts/utils/math/SafeMath.sol\":3934:3935  a */\n      dup5\n        /* \"@openzeppelin/contracts/utils/math/SafeMath.sol\":3934:3939  a / b */\n      tag_343\n      jump\t// in\n        /* \"@openzeppelin/contracts/utils/math/SafeMath.sol\":3122:3218  function sub(uint256 a, uint256 b) internal pure returns (uint256) {... */\n    tag_205:\n        /* \"@openzeppelin/contracts/utils/math/SafeMath.sol\":3180:3187  uint256 */\n      0x00\n        /* \"@openzeppelin/contracts/utils/math/SafeMath.sol\":3206:3211  a - b */\n      tag_271\n        /* \"@openzeppelin/contracts/utils/math/SafeMath.sol\":3210:3211  b */\n      dup3\n        /* \"@openzeppelin/contracts/utils/math/SafeMath.sol\":3206:3207  a */\n      dup5\n        /* \"@openzeppelin/contracts/utils/math/SafeMath.sol\":3206:3211  a - b */\n      tag_156\n      jump\t// in\n        /* \"contracts/final/GMDstaking.sol\":9999:10277  function safeWETHTransfer(address _to, uint256 _amount) internal {... */\n    tag_211:\n        /* \"contracts/final/GMDstaking.sol\":10093:10097  WETH */\n      sload(0x02)\n        /* \"contracts/final/GMDstaking.sol\":10093:10122  WETH.balanceOf(address(this)) */\n      mload(0x40)\n      shl(0xe0, 0x70a08231)\n      dup2\n      mstore\n        /* \"contracts/final/GMDstaking.sol\":10116:10120  this */\n      address\n        /* \"contracts/final/GMDstaking.sol\":10093:10122  WETH.balanceOf(address(this)) */\n      0x04\n      dup3\n      add\n        /* \"#utility.yul\":1894:1945   */\n      mstore\n        /* \"contracts/final/GMDstaking.sol\":10075:10090  uint256 WETHBal */\n      0x00\n      swap2\n      sub(shl(0xa0, 0x01), 0x01)\n        /* \"contracts/final/GMDstaking.sol\":10093:10097  WETH */\n      and\n      swap1\n        /* \"contracts/final/GMDstaking.sol\":10093:10107  WETH.balanceOf */\n      0x70a08231\n      swap1\n        /* \"#utility.yul\":1867:1885   */\n      0x24\n      add\n        /* \"contracts/final/GMDstaking.sol\":10093:10122  WETH.balanceOf(address(this)) */\n      0x20\n      mload(0x40)\n      dup1\n      dup4\n      sub\n      dup2\n      dup7\n      gas\n      staticcall\n      iszero\n      dup1\n      iszero\n      tag_349\n      jumpi\n      returndatasize\n      0x00\n      dup1\n      returndatacopy\n      revert(0x00, returndatasize)\n    tag_349:\n      pop\n      pop\n      pop\n      pop\n      mload(0x40)\n      returndatasize\n      not(0x1f)\n      0x1f\n      dup3\n      add\n      and\n      dup3\n      add\n      dup1\n      0x40\n      mstore\n      pop\n      dup2\n      add\n      swap1\n      tag_350\n      swap2\n      swap1\n      tag_224\n      jump\t// in\n    tag_350:\n        /* \"contracts/final/GMDstaking.sol\":10075:10122  uint256 WETHBal = WETH.balanceOf(address(this)) */\n      swap1\n      pop\n        /* \"contracts/final/GMDstaking.sol\":10147:10154  WETHBal */\n      dup1\n        /* \"contracts/final/GMDstaking.sol\":10137:10144  _amount */\n      dup3\n        /* \"contracts/final/GMDstaking.sol\":10137:10154  _amount > WETHBal */\n      gt\n        /* \"contracts/final/GMDstaking.sol\":10133:10270  if (_amount > WETHBal) {... */\n      iszero\n      tag_351\n      jumpi\n        /* \"contracts/final/GMDstaking.sol\":10171:10175  WETH */\n      sload(0x02)\n        /* \"contracts/final/GMDstaking.sol\":10171:10198  WETH.transfer(_to, WETHBal) */\n      mload(0x40)\n      shl(0xe0, 0xa9059cbb)\n      dup2\n      mstore\n      sub(shl(0xa0, 0x01), 0x01)\n        /* \"#utility.yul\":8063:8095   */\n      dup6\n      dup2\n      and\n        /* \"contracts/final/GMDstaking.sol\":10171:10198  WETH.transfer(_to, WETHBal) */\n      0x04\n      dup4\n      add\n        /* \"#utility.yul\":8045:8096   */\n      mstore\n        /* \"#utility.yul\":8112:8130   */\n      0x24\n      dup3\n      add\n        /* \"#utility.yul\":8105:8139   */\n      dup5\n      swap1\n      mstore\n        /* \"contracts/final/GMDstaking.sol\":10171:10175  WETH */\n      swap1\n      swap2\n      and\n      swap1\n        /* \"contracts/final/GMDstaking.sol\":10171:10184  WETH.transfer */\n      0xa9059cbb\n      swap1\n        /* \"#utility.yul\":8018:8036   */\n      0x44\n      add\n        /* \"contracts/final/GMDstaking.sol\":10171:10198  WETH.transfer(_to, WETHBal) */\n    tag_352:\n      0x20\n      mload(0x40)\n      dup1\n      dup4\n      sub\n      dup2\n      0x00\n      dup8\n      gas\n      call\n      iszero\n      dup1\n      iszero\n      tag_355\n      jumpi\n      returndatasize\n      0x00\n      dup1\n      returndatacopy\n      revert(0x00, returndatasize)\n    tag_355:\n      pop\n      pop\n      pop\n      pop\n      mload(0x40)\n      returndatasize\n      not(0x1f)\n      0x1f\n      dup3\n      add\n      and\n      dup3\n      add\n      dup1\n      0x40\n      mstore\n      pop\n      dup2\n      add\n      swap1\n      tag_356\n      swap2\n      swap1\n      tag_172\n      jump\t// in\n    tag_356:\n      pop\n        /* \"contracts/final/GMDstaking.sol\":4249:4397  for (uint256 _pid = 0; _pid < length; _pid++) {... */\n      pop\n        /* \"contracts/final/GMDstaking.sol\":4195:4406  {... */\n      pop\n        /* \"contracts/final/GMDstaking.sol\":4137:4406  function checkForDuplicate(IERC20 _lpToken) internal view {... */\n      pop\n      jump\t// out\n        /* \"contracts/final/GMDstaking.sol\":10133:10270  if (_amount > WETHBal) {... */\n    tag_351:\n        /* \"contracts/final/GMDstaking.sol\":10231:10235  WETH */\n      sload(0x02)\n        /* \"contracts/final/GMDstaking.sol\":10231:10258  WETH.transfer(_to, _amount) */\n      mload(0x40)\n      shl(0xe0, 0xa9059cbb)\n      dup2\n      mstore\n      sub(shl(0xa0, 0x01), 0x01)\n        /* \"#utility.yul\":8063:8095   */\n      dup6\n      dup2\n      and\n        /* \"contracts/final/GMDstaking.sol\":10231:10258  WETH.transfer(_to, _amount) */\n      0x04\n      dup4\n      add\n        /* \"#utility.yul\":8045:8096   */\n      mstore\n        /* \"#utility.yul\":8112:8130   */\n      0x24\n      dup3\n      add\n        /* \"#utility.yul\":8105:8139   */\n      dup6\n      swap1\n      mstore\n        /* \"contracts/final/GMDstaking.sol\":10231:10235  WETH */\n      swap1\n      swap2\n      and\n      swap1\n        /* \"contracts/final/GMDstaking.sol\":10231:10244  WETH.transfer */\n      0xa9059cbb\n      swap1\n        /* \"#utility.yul\":8018:8036   */\n      0x44\n      add\n        /* \"contracts/final/GMDstaking.sol\":10231:10258  WETH.transfer(_to, _amount) */\n      tag_352\n        /* \"#utility.yul\":7871:8145   */\n      jump\n        /* \"@openzeppelin/contracts/token/ERC20/utils/SafeERC20.sol\":763:968  function safeTransfer(... */\n    tag_213:\n        /* \"@openzeppelin/contracts/token/ERC20/utils/SafeERC20.sol\":902:960  abi.encodeWithSelector(token.transfer.selector, to, value) */\n      mload(0x40)\n      sub(shl(0xa0, 0x01), 0x01)\n        /* \"#utility.yul\":8063:8095   */\n      dup4\n      and\n        /* \"@openzeppelin/contracts/token/ERC20/utils/SafeERC20.sol\":902:960  abi.encodeWithSelector(token.transfer.selector, to, value) */\n      0x24\n      dup3\n      add\n        /* \"#utility.yul\":8045:8096   */\n      mstore\n        /* \"#utility.yul\":8112:8130   */\n      0x44\n      dup2\n      add\n        /* \"#utility.yul\":8105:8139   */\n      dup3\n      swap1\n      mstore\n        /* \"@openzeppelin/contracts/token/ERC20/utils/SafeERC20.sol\":875:961  _callOptionalReturn(token, abi.encodeWithSelector(token.transfer.selector, to, value)) */\n      tag_329\n      swap1\n        /* \"@openzeppelin/contracts/token/ERC20/utils/SafeERC20.sol\":895:900  token */\n      dup5\n      swap1\n      shl(0xe0, 0xa9059cbb)\n        /* \"@openzeppelin/contracts/token/ERC20/utils/SafeERC20.sol\":925:948  token.transfer.selector */\n      swap1\n        /* \"#utility.yul\":8018:8036   */\n      0x64\n      add\n        /* \"@openzeppelin/contracts/token/ERC20/utils/SafeERC20.sol\":902:960  abi.encodeWithSelector(token.transfer.selector, to, value) */\n    tag_364:\n      0x40\n      dup1\n      mload\n      not(0x1f)\n      dup2\n      dup5\n      sub\n      add\n      dup2\n      mstore\n      swap2\n      swap1\n      mstore\n      0x20\n      dup2\n      add\n      dup1\n      mload\n      sub(shl(0xe0, 0x01), 0x01)\n      and\n      not(sub(shl(0xe0, 0x01), 0x01))\n      swap1\n      swap4\n      and\n      swap3\n      swap1\n      swap3\n      or\n      swap1\n      swap2\n      mstore\n        /* \"@openzeppelin/contracts/token/ERC20/utils/SafeERC20.sol\":875:894  _callOptionalReturn */\n      tag_365\n        /* \"@openzeppelin/contracts/token/ERC20/utils/SafeERC20.sol\":875:961  _callOptionalReturn(token, abi.encodeWithSelector(token.transfer.selector, to, value)) */\n      jump\t// in\n        /* \"@openzeppelin/contracts/access/Ownable.sol\":2433:2620  function _transferOwnership(address newOwner) internal virtual {... */\n    tag_259:\n        /* \"@openzeppelin/contracts/access/Ownable.sol\":2506:2522  address oldOwner */\n      0x00\n        /* \"@openzeppelin/contracts/access/Ownable.sol\":2525:2531  _owner */\n      dup1\n      sload\n      sub(shl(0xa0, 0x01), 0x01)\n        /* \"@openzeppelin/contracts/access/Ownable.sol\":2541:2558  _owner = newOwner */\n      dup4\n      dup2\n      and\n      not(sub(shl(0xa0, 0x01), 0x01))\n      dup4\n      and\n      dup2\n      or\n      dup5\n      sstore\n        /* \"@openzeppelin/contracts/access/Ownable.sol\":2573:2613  OwnershipTransferred(oldOwner, newOwner) */\n      mload(0x40)\n        /* \"@openzeppelin/contracts/access/Ownable.sol\":2525:2531  _owner */\n      swap2\n      swap1\n      swap3\n      and\n      swap3\n      dup4\n      swap2\n        /* \"@openzeppelin/contracts/access/Ownable.sol\":2573:2613  OwnershipTransferred(oldOwner, newOwner) */\n      0x8be0079c531659141344cd1fd0a4f28419497f9722a3daafe3b4186f6b6457e0\n      swap2\n        /* \"@openzeppelin/contracts/access/Ownable.sol\":2506:2522  address oldOwner */\n      swap1\n        /* \"@openzeppelin/contracts/access/Ownable.sol\":2573:2613  OwnershipTransferred(oldOwner, newOwner) */\n      log3\n        /* \"@openzeppelin/contracts/access/Ownable.sol\":2496:2620  {... */\n      pop\n        /* \"@openzeppelin/contracts/access/Ownable.sol\":2433:2620  function _transferOwnership(address newOwner) internal virtual {... */\n      pop\n      jump\t// out\n        /* \"@openzeppelin/contracts/token/ERC20/utils/SafeERC20.sol\":974:1215  function safeTransferFrom(... */\n    tag_309:\n        /* \"@openzeppelin/contracts/token/ERC20/utils/SafeERC20.sol\":1139:1207  abi.encodeWithSelector(token.transferFrom.selector, from, to, value) */\n      mload(0x40)\n      sub(shl(0xa0, 0x01), 0x01)\n        /* \"#utility.yul\":4563:4578   */\n      dup1\n      dup6\n      and\n        /* \"@openzeppelin/contracts/token/ERC20/utils/SafeERC20.sol\":1139:1207  abi.encodeWithSelector(token.transferFrom.selector, from, to, value) */\n      0x24\n      dup4\n      add\n        /* \"#utility.yul\":4545:4579   */\n      mstore\n        /* \"#utility.yul\":4615:4630   */\n      dup4\n      and\n        /* \"#utility.yul\":4595:4613   */\n      0x44\n      dup3\n      add\n        /* \"#utility.yul\":4588:4631   */\n      mstore\n        /* \"#utility.yul\":4647:4665   */\n      0x64\n      dup2\n      add\n        /* \"#utility.yul\":4640:4674   */\n      dup3\n      swap1\n      mstore\n        /* \"@openzeppelin/contracts/token/ERC20/utils/SafeERC20.sol\":1112:1208  _callOptionalReturn(token, abi.encodeWithSelector(token.transferFrom.selector, from, to, value)) */\n      tag_356\n      swap1\n        /* \"@openzeppelin/contracts/token/ERC20/utils/SafeERC20.sol\":1132:1137  token */\n      dup6\n      swap1\n      shl(0xe0, 0x23b872dd)\n        /* \"@openzeppelin/contracts/token/ERC20/utils/SafeERC20.sol\":1162:1189  token.transferFrom.selector */\n      swap1\n        /* \"#utility.yul\":4480:4498   */\n      0x84\n      add\n        /* \"@openzeppelin/contracts/token/ERC20/utils/SafeERC20.sol\":1139:1207  abi.encodeWithSelector(token.transferFrom.selector, from, to, value) */\n      tag_364\n        /* \"#utility.yul\":4305:4680   */\n      jump\n        /* \"@openzeppelin/contracts/token/ERC20/utils/SafeERC20.sol\":3747:4453  function _callOptionalReturn(IERC20 token, bytes memory data) private {... */\n    tag_365:\n        /* \"@openzeppelin/contracts/token/ERC20/utils/SafeERC20.sol\":4166:4189  bytes memory returndata */\n      0x00\n        /* \"@openzeppelin/contracts/token/ERC20/utils/SafeERC20.sol\":4192:4261  address(token).functionCall(data, \"SafeERC20: low-level call failed\") */\n      tag_372\n        /* \"@openzeppelin/contracts/token/ERC20/utils/SafeERC20.sol\":4220:4224  data */\n      dup3\n        /* \"@openzeppelin/contracts/token/ERC20/utils/SafeERC20.sol\":4192:4261  address(token).functionCall(data, \"SafeERC20: low-level call failed\") */\n      mload(0x40)\n      dup1\n      0x40\n      add\n      0x40\n      mstore\n      dup1\n      0x20\n      dup2\n      mstore\n      0x20\n      add\n      0x5361666545524332303a206c6f772d6c6576656c2063616c6c206661696c6564\n      dup2\n      mstore\n      pop\n        /* \"@openzeppelin/contracts/token/ERC20/utils/SafeERC20.sol\":4200:4205  token */\n      dup6\n      sub(shl(0xa0, 0x01), 0x01)\n        /* \"@openzeppelin/contracts/token/ERC20/utils/SafeERC20.sol\":4192:4219  address(token).functionCall */\n      and\n      tag_373\n      swap1\n        /* \"@openzeppelin/contracts/token/ERC20/utils/SafeERC20.sol\":4192:4261  address(token).functionCall(data, \"SafeERC20: low-level call failed\") */\n      swap3\n      swap2\n      swap1\n      0xffffffff\n      and\n      jump\t// in\n    tag_372:\n        /* \"@openzeppelin/contracts/token/ERC20/utils/SafeERC20.sol\":4275:4292  returndata.length */\n      dup1\n      mload\n        /* \"@openzeppelin/contracts/token/ERC20/utils/SafeERC20.sol\":4166:4261  bytes memory returndata = address(token).functionCall(data, \"SafeERC20: low-level call failed\") */\n      swap1\n      swap2\n      pop\n        /* \"@openzeppelin/contracts/token/ERC20/utils/SafeERC20.sol\":4275:4296  returndata.length > 0 */\n      iszero\n        /* \"@openzeppelin/contracts/token/ERC20/utils/SafeERC20.sol\":4271:4447  if (returndata.length > 0) {... */\n      tag_329\n      jumpi\n        /* \"@openzeppelin/contracts/token/ERC20/utils/SafeERC20.sol\":4370:4380  returndata */\n      dup1\n        /* \"@openzeppelin/contracts/token/ERC20/utils/SafeERC20.sol\":4359:4389  abi.decode(returndata, (bool)) */\n      dup1\n      0x20\n      add\n      swap1\n      mload\n      dup2\n      add\n      swap1\n      tag_375\n      swap2\n      swap1\n      tag_172\n      jump\t// in\n    tag_375:\n        /* \"@openzeppelin/contracts/token/ERC20/utils/SafeERC20.sol\":4351:4436  require(abi.decode(returndata, (bool)), \"SafeERC20: ERC20 operation did not succeed\") */\n      tag_329\n      jumpi\n      mload(0x40)\n      shl(0xe5, 0x461bcd)\n      dup2\n      mstore\n        /* \"#utility.yul\":8352:8354   */\n      0x20\n        /* \"@openzeppelin/contracts/token/ERC20/utils/SafeERC20.sol\":4351:4436  require(abi.decode(returndata, (bool)), \"SafeERC20: ERC20 operation did not succeed\") */\n      0x04\n      dup3\n      add\n        /* \"#utility.yul\":8334:8355   */\n      mstore\n        /* \"#utility.yul\":8391:8393   */\n      0x2a\n        /* \"#utility.yul\":8371:8389   */\n      0x24\n      dup3\n      add\n        /* \"#utility.yul\":8364:8394   */\n      mstore\n        /* \"#utility.yul\":8430:8464   */\n      0x5361666545524332303a204552433230206f7065726174696f6e20646964206e\n        /* \"#utility.yul\":8410:8428   */\n      0x44\n      dup3\n      add\n        /* \"#utility.yul\":8403:8465   */\n      mstore\n      shl(0xb2, 0x1bdd081cdd58d8d95959)\n        /* \"#utility.yul\":8481:8499   */\n      0x64\n      dup3\n      add\n        /* \"#utility.yul\":8474:8514   */\n      mstore\n        /* \"#utility.yul\":8531:8550   */\n      0x84\n      add\n        /* \"@openzeppelin/contracts/token/ERC20/utils/SafeERC20.sol\":4351:4436  require(abi.decode(returndata, (bool)), \"SafeERC20: ERC20 operation did not succeed\") */\n      tag_138\n        /* \"#utility.yul\":8150:8556   */\n      jump\n        /* \"@openzeppelin/contracts/utils/Address.sol\":3861:4084  function functionCall(... */\n    tag_373:\n        /* \"@openzeppelin/contracts/utils/Address.sol\":3994:4006  bytes memory */\n      0x60\n        /* \"@openzeppelin/contracts/utils/Address.sol\":4025:4077  functionCallWithValue(target, data, 0, errorMessage) */\n      tag_380\n        /* \"@openzeppelin/contracts/utils/Address.sol\":4047:4053  target */\n      dup5\n        /* \"@openzeppelin/contracts/utils/Address.sol\":4055:4059  data */\n      dup5\n        /* \"@openzeppelin/contracts/utils/Address.sol\":4061:4062  0 */\n      0x00\n        /* \"@openzeppelin/contracts/utils/Address.sol\":4064:4076  errorMessage */\n      dup6\n        /* \"@openzeppelin/contracts/utils/Address.sol\":4025:4046  functionCallWithValue */\n      tag_381\n        /* \"@openzeppelin/contracts/utils/Address.sol\":4025:4077  functionCallWithValue(target, data, 0, errorMessage) */\n      jump\t// in\n    tag_380:\n        /* \"@openzeppelin/contracts/utils/Address.sol\":4018:4077  return functionCallWithValue(target, data, 0, errorMessage) */\n      swap1\n      pop\n        /* \"@openzeppelin/contracts/utils/Address.sol\":3861:4084  function functionCall(... */\n    tag_379:\n      swap4\n      swap3\n      pop\n      pop\n      pop\n      jump\t// out\n        /* \"@openzeppelin/contracts/utils/Address.sol\":4948:5447  function functionCallWithValue(... */\n    tag_381:\n        /* \"@openzeppelin/contracts/utils/Address.sol\":5113:5125  bytes memory */\n      0x60\n        /* \"@openzeppelin/contracts/utils/Address.sol\":5170:5175  value */\n      dup3\n        /* \"@openzeppelin/contracts/utils/Address.sol\":5145:5166  address(this).balance */\n      selfbalance\n        /* \"@openzeppelin/contracts/utils/Address.sol\":5145:5175  address(this).balance >= value */\n      lt\n      iszero\n        /* \"@openzeppelin/contracts/utils/Address.sol\":5137:5218  require(address(this).balance >= value, \"Address: insufficient balance for call\") */\n      tag_383\n      jumpi\n      mload(0x40)\n      shl(0xe5, 0x461bcd)\n      dup2\n      mstore\n        /* \"#utility.yul\":8763:8765   */\n      0x20\n        /* \"@openzeppelin/contracts/utils/Address.sol\":5137:5218  require(address(this).balance >= value, \"Address: insufficient balance for call\") */\n      0x04\n      dup3\n      add\n        /* \"#utility.yul\":8745:8766   */\n      mstore\n        /* \"#utility.yul\":8802:8804   */\n      0x26\n        /* \"#utility.yul\":8782:8800   */\n      0x24\n      dup3\n      add\n        /* \"#utility.yul\":8775:8805   */\n      mstore\n        /* \"#utility.yul\":8841:8875   */\n      0x416464726573733a20696e73756666696369656e742062616c616e636520666f\n        /* \"#utility.yul\":8821:8839   */\n      0x44\n      dup3\n      add\n        /* \"#utility.yul\":8814:8876   */\n      mstore\n      shl(0xd2, 0x1c8818d85b1b)\n        /* \"#utility.yul\":8892:8910   */\n      0x64\n      dup3\n      add\n        /* \"#utility.yul\":8885:8921   */\n      mstore\n        /* \"#utility.yul\":8938:8957   */\n      0x84\n      add\n        /* \"@openzeppelin/contracts/utils/Address.sol\":5137:5218  require(address(this).balance >= value, \"Address: insufficient balance for call\") */\n      tag_138\n        /* \"#utility.yul\":8561:8963   */\n      jump\n        /* \"@openzeppelin/contracts/utils/Address.sol\":5137:5218  require(address(this).balance >= value, \"Address: insufficient balance for call\") */\n    tag_383:\n      sub(shl(0xa0, 0x01), 0x01)\n        /* \"@openzeppelin/contracts/utils/Address.sol\":1465:1484  account.code.length */\n      dup6\n      and\n      extcodesize\n        /* \"@openzeppelin/contracts/utils/Address.sol\":5228:5288  require(isContract(target), \"Address: call to non-contract\") */\n      tag_388\n      jumpi\n      mload(0x40)\n      shl(0xe5, 0x461bcd)\n      dup2\n      mstore\n        /* \"#utility.yul\":9170:9172   */\n      0x20\n        /* \"@openzeppelin/contracts/utils/Address.sol\":5228:5288  require(isContract(target), \"Address: call to non-contract\") */\n      0x04\n      dup3\n      add\n        /* \"#utility.yul\":9152:9173   */\n      mstore\n        /* \"#utility.yul\":9209:9211   */\n      0x1d\n        /* \"#utility.yul\":9189:9207   */\n      0x24\n      dup3\n      add\n        /* \"#utility.yul\":9182:9212   */\n      mstore\n        /* \"#utility.yul\":9248:9279   */\n      0x416464726573733a2063616c6c20746f206e6f6e2d636f6e7472616374000000\n        /* \"#utility.yul\":9228:9246   */\n      0x44\n      dup3\n      add\n        /* \"#utility.yul\":9221:9280   */\n      mstore\n        /* \"#utility.yul\":9297:9315   */\n      0x64\n      add\n        /* \"@openzeppelin/contracts/utils/Address.sol\":5228:5288  require(isContract(target), \"Address: call to non-contract\") */\n      tag_138\n        /* \"#utility.yul\":8968:9321   */\n      jump\n        /* \"@openzeppelin/contracts/utils/Address.sol\":5228:5288  require(isContract(target), \"Address: call to non-contract\") */\n    tag_388:\n        /* \"@openzeppelin/contracts/utils/Address.sol\":5300:5312  bool success */\n      0x00\n        /* \"@openzeppelin/contracts/utils/Address.sol\":5314:5337  bytes memory returndata */\n      dup1\n        /* \"@openzeppelin/contracts/utils/Address.sol\":5341:5347  target */\n      dup7\n      sub(shl(0xa0, 0x01), 0x01)\n        /* \"@openzeppelin/contracts/utils/Address.sol\":5341:5352  target.call */\n      and\n        /* \"@openzeppelin/contracts/utils/Address.sol\":5360:5365  value */\n      dup6\n        /* \"@openzeppelin/contracts/utils/Address.sol\":5367:5371  data */\n      dup8\n        /* \"@openzeppelin/contracts/utils/Address.sol\":5341:5372  target.call{value: value}(data) */\n      mload(0x40)\n      tag_391\n      swap2\n      swap1\n      tag_392\n      jump\t// in\n    tag_391:\n      0x00\n      mload(0x40)\n      dup1\n      dup4\n      sub\n      dup2\n      dup6\n      dup8\n      gas\n      call\n      swap3\n      pop\n      pop\n      pop\n      returndatasize\n      dup1\n      0x00\n      dup2\n      eq\n      tag_395\n      jumpi\n      mload(0x40)\n      swap2\n      pop\n      and(add(returndatasize, 0x3f), not(0x1f))\n      dup3\n      add\n      0x40\n      mstore\n      returndatasize\n      dup3\n      mstore\n      returndatasize\n      0x00\n      0x20\n      dup5\n      add\n      returndatacopy\n      jump(tag_394)\n    tag_395:\n      0x60\n      swap2\n      pop\n    tag_394:\n      pop\n        /* \"@openzeppelin/contracts/utils/Address.sol\":5299:5372  (bool success, bytes memory returndata) = target.call{value: value}(data) */\n      swap2\n      pop\n      swap2\n      pop\n        /* \"@openzeppelin/contracts/utils/Address.sol\":5389:5440  verifyCallResult(success, returndata, errorMessage) */\n      tag_289\n        /* \"@openzeppelin/contracts/utils/Address.sol\":5406:5413  success */\n      dup3\n        /* \"@openzeppelin/contracts/utils/Address.sol\":5415:5425  returndata */\n      dup3\n        /* \"@openzeppelin/contracts/utils/Address.sol\":5427:5439  errorMessage */\n      dup7\n        /* \"@openzeppelin/contracts/utils/Address.sol\":7707:7719  bytes memory */\n      0x60\n        /* \"@openzeppelin/contracts/utils/Address.sol\":7735:7742  success */\n      dup4\n        /* \"@openzeppelin/contracts/utils/Address.sol\":7731:8297  if (success) {... */\n      iszero\n      tag_400\n      jumpi\n      pop\n        /* \"@openzeppelin/contracts/utils/Address.sol\":7765:7775  returndata */\n      dup2\n        /* \"@openzeppelin/contracts/utils/Address.sol\":7758:7775  return returndata */\n      jump(tag_379)\n        /* \"@openzeppelin/contracts/utils/Address.sol\":7731:8297  if (success) {... */\n    tag_400:\n        /* \"@openzeppelin/contracts/utils/Address.sol\":7876:7893  returndata.length */\n      dup3\n      mload\n        /* \"@openzeppelin/contracts/utils/Address.sol\":7876:7897  returndata.length > 0 */\n      iszero\n        /* \"@openzeppelin/contracts/utils/Address.sol\":7872:8287  if (returndata.length > 0) {... */\n      tag_402\n      jumpi\n        /* \"@openzeppelin/contracts/utils/Address.sol\":8120:8130  returndata */\n      dup3\n        /* \"@openzeppelin/contracts/utils/Address.sol\":8114:8131  mload(returndata) */\n      mload\n        /* \"@openzeppelin/contracts/utils/Address.sol\":8180:8195  returndata_size */\n      dup1\n        /* \"@openzeppelin/contracts/utils/Address.sol\":8167:8177  returndata */\n      dup5\n        /* \"@openzeppelin/contracts/utils/Address.sol\":8163:8165  32 */\n      0x20\n        /* \"@openzeppelin/contracts/utils/Address.sol\":8159:8178  add(32, returndata) */\n      add\n        /* \"@openzeppelin/contracts/utils/Address.sol\":8152:8196  revert(add(32, returndata), returndata_size) */\n      revert\n        /* \"@openzeppelin/contracts/utils/Address.sol\":7872:8287  if (returndata.length > 0) {... */\n    tag_402:\n        /* \"@openzeppelin/contracts/utils/Address.sol\":8259:8271  errorMessage */\n      dup2\n        /* \"@openzeppelin/contracts/utils/Address.sol\":8252:8272  revert(errorMessage) */\n      mload(0x40)\n      shl(0xe5, 0x461bcd)\n      dup2\n      mstore\n      0x04\n      add\n      tag_138\n      swap2\n      swap1\n      tag_405\n      jump\t// in\n        /* \"#utility.yul\":14:194   */\n    tag_40:\n        /* \"#utility.yul\":73:79   */\n      0x00\n        /* \"#utility.yul\":126:128   */\n      0x20\n        /* \"#utility.yul\":114:123   */\n      dup3\n        /* \"#utility.yul\":105:112   */\n      dup5\n        /* \"#utility.yul\":101:124   */\n      sub\n        /* \"#utility.yul\":97:129   */\n      slt\n        /* \"#utility.yul\":94:146   */\n      iszero\n      tag_411\n      jumpi\n        /* \"#utility.yul\":142:143   */\n      0x00\n        /* \"#utility.yul\":139:140   */\n      dup1\n        /* \"#utility.yul\":132:144   */\n      revert\n        /* \"#utility.yul\":94:146   */\n    tag_411:\n      pop\n        /* \"#utility.yul\":165:188   */\n      calldataload\n      swap2\n        /* \"#utility.yul\":14:194   */\n      swap1\n      pop\n      jump\t// out\n        /* \"#utility.yul\":817:1065   */\n    tag_56:\n        /* \"#utility.yul\":885:891   */\n      0x00\n        /* \"#utility.yul\":893:899   */\n      dup1\n        /* \"#utility.yul\":946:948   */\n      0x40\n        /* \"#utility.yul\":934:943   */\n      dup4\n        /* \"#utility.yul\":925:932   */\n      dup6\n        /* \"#utility.yul\":921:944   */\n      sub\n        /* \"#utility.yul\":917:949   */\n      slt\n        /* \"#utility.yul\":914:966   */\n      iszero\n      tag_415\n      jumpi\n        /* \"#utility.yul\":962:963   */\n      0x00\n        /* \"#utility.yul\":959:960   */\n      dup1\n        /* \"#utility.yul\":952:964   */\n      revert\n        /* \"#utility.yul\":914:966   */\n    tag_415:\n      pop\n      pop\n        /* \"#utility.yul\":985:1008   */\n      dup1\n      calldataload\n      swap3\n        /* \"#utility.yul\":1055:1057   */\n      0x20\n        /* \"#utility.yul\":1040:1058   */\n      swap1\n      swap2\n      add\n        /* \"#utility.yul\":1027:1059   */\n      calldataload\n      swap2\n      pop\n        /* \"#utility.yul\":817:1065   */\n      jump\t// out\n        /* \"#utility.yul\":1070:1209   */\n    tag_406:\n      sub(shl(0xa0, 0x01), 0x01)\n        /* \"#utility.yul\":1153:1184   */\n      dup2\n      and\n        /* \"#utility.yul\":1143:1185   */\n      dup2\n      eq\n        /* \"#utility.yul\":1133:1203   */\n      tag_317\n      jumpi\n        /* \"#utility.yul\":1199:1200   */\n      0x00\n        /* \"#utility.yul\":1196:1197   */\n      dup1\n        /* \"#utility.yul\":1189:1201   */\n      revert\n        /* \"#utility.yul\":1214:1551   */\n    tag_63:\n        /* \"#utility.yul\":1296:1302   */\n      0x00\n        /* \"#utility.yul\":1304:1310   */\n      dup1\n        /* \"#utility.yul\":1357:1359   */\n      0x40\n        /* \"#utility.yul\":1345:1354   */\n      dup4\n        /* \"#utility.yul\":1336:1343   */\n      dup6\n        /* \"#utility.yul\":1332:1355   */\n      sub\n        /* \"#utility.yul\":1328:1360   */\n      slt\n        /* \"#utility.yul\":1325:1377   */\n      iszero\n      tag_419\n      jumpi\n        /* \"#utility.yul\":1373:1374   */\n      0x00\n        /* \"#utility.yul\":1370:1371   */\n      dup1\n        /* \"#utility.yul\":1363:1375   */\n      revert\n        /* \"#utility.yul\":1325:1377   */\n    tag_419:\n        /* \"#utility.yul\":1409:1418   */\n      dup3\n        /* \"#utility.yul\":1396:1419   */\n      calldataload\n        /* \"#utility.yul\":1386:1419   */\n      swap2\n      pop\n        /* \"#utility.yul\":1469:1471   */\n      0x20\n        /* \"#utility.yul\":1458:1467   */\n      dup4\n        /* \"#utility.yul\":1454:1472   */\n      add\n        /* \"#utility.yul\":1441:1473   */\n      calldataload\n        /* \"#utility.yul\":1482:1521   */\n      tag_420\n        /* \"#utility.yul\":1515:1520   */\n      dup2\n        /* \"#utility.yul\":1482:1521   */\n      tag_406\n      jump\t// in\n    tag_420:\n        /* \"#utility.yul\":1540:1545   */\n      dup1\n        /* \"#utility.yul\":1530:1545   */\n      swap2\n      pop\n      pop\n        /* \"#utility.yul\":1214:1551   */\n      swap3\n      pop\n      swap3\n      swap1\n      pop\n      jump\t// out\n        /* \"#utility.yul\":2759:3014   */\n    tag_128:\n        /* \"#utility.yul\":2818:2824   */\n      0x00\n        /* \"#utility.yul\":2871:2873   */\n      0x20\n        /* \"#utility.yul\":2859:2868   */\n      dup3\n        /* \"#utility.yul\":2850:2857   */\n      dup5\n        /* \"#utility.yul\":2846:2869   */\n      sub\n        /* \"#utility.yul\":2842:2874   */\n      slt\n        /* \"#utility.yul\":2839:2891   */\n      iszero\n      tag_429\n      jumpi\n        /* \"#utility.yul\":2887:2888   */\n      0x00\n        /* \"#utility.yul\":2884:2885   */\n      dup1\n        /* \"#utility.yul\":2877:2889   */\n      revert\n        /* \"#utility.yul\":2839:2891   */\n    tag_429:\n        /* \"#utility.yul\":2926:2935   */\n      dup2\n        /* \"#utility.yul\":2913:2936   */\n      calldataload\n        /* \"#utility.yul\":2945:2984   */\n      tag_379\n        /* \"#utility.yul\":2978:2983   */\n      dup2\n        /* \"#utility.yul\":2945:2984   */\n      tag_406\n      jump\t// in\n        /* \"#utility.yul\":3778:3905   */\n    tag_153:\n        /* \"#utility.yul\":3839:3849   */\n      0x4e487b71\n        /* \"#utility.yul\":3834:3837   */\n      0xe0\n        /* \"#utility.yul\":3830:3850   */\n      shl\n        /* \"#utility.yul\":3827:3828   */\n      0x00\n        /* \"#utility.yul\":3820:3851   */\n      mstore\n        /* \"#utility.yul\":3870:3874   */\n      0x32\n        /* \"#utility.yul\":3867:3868   */\n      0x04\n        /* \"#utility.yul\":3860:3875   */\n      mstore\n        /* \"#utility.yul\":3894:3898   */\n      0x24\n        /* \"#utility.yul\":3891:3892   */\n      0x00\n        /* \"#utility.yul\":3884:3899   */\n      revert\n        /* \"#utility.yul\":3910:4037   */\n    tag_407:\n        /* \"#utility.yul\":3971:3981   */\n      0x4e487b71\n        /* \"#utility.yul\":3966:3969   */\n      0xe0\n        /* \"#utility.yul\":3962:3982   */\n      shl\n        /* \"#utility.yul\":3959:3960   */\n      0x00\n        /* \"#utility.yul\":3952:3983   */\n      mstore\n        /* \"#utility.yul\":4002:4006   */\n      0x11\n        /* \"#utility.yul\":3999:4000   */\n      0x04\n        /* \"#utility.yul\":3992:4007   */\n      mstore\n        /* \"#utility.yul\":4026:4030   */\n      0x24\n        /* \"#utility.yul\":4023:4024   */\n      0x00\n        /* \"#utility.yul\":4016:4031   */\n      revert\n        /* \"#utility.yul\":4042:4167   */\n    tag_156:\n        /* \"#utility.yul\":4082:4086   */\n      0x00\n        /* \"#utility.yul\":4110:4111   */\n      dup3\n        /* \"#utility.yul\":4107:4108   */\n      dup3\n        /* \"#utility.yul\":4104:4112   */\n      lt\n        /* \"#utility.yul\":4101:4135   */\n      iszero\n      tag_437\n      jumpi\n        /* \"#utility.yul\":4115:4133   */\n      tag_437\n      tag_407\n      jump\t// in\n    tag_437:\n      pop\n        /* \"#utility.yul\":4152:4161   */\n      sub\n      swap1\n        /* \"#utility.yul\":4042:4167   */\n      jump\t// out\n        /* \"#utility.yul\":4172:4300   */\n    tag_158:\n        /* \"#utility.yul\":4212:4215   */\n      0x00\n        /* \"#utility.yul\":4243:4244   */\n      dup3\n        /* \"#utility.yul\":4239:4245   */\n      not\n        /* \"#utility.yul\":4236:4237   */\n      dup3\n        /* \"#utility.yul\":4233:4246   */\n      gt\n        /* \"#utility.yul\":4230:4269   */\n      iszero\n      tag_440\n      jumpi\n        /* \"#utility.yul\":4249:4267   */\n      tag_440\n      tag_407\n      jump\t// in\n    tag_440:\n      pop\n        /* \"#utility.yul\":4285:4294   */\n      add\n      swap1\n        /* \"#utility.yul\":4172:4300   */\n      jump\t// out\n        /* \"#utility.yul\":4685:4962   */\n    tag_172:\n        /* \"#utility.yul\":4752:4758   */\n      0x00\n        /* \"#utility.yul\":4805:4807   */\n      0x20\n        /* \"#utility.yul\":4793:4802   */\n      dup3\n        /* \"#utility.yul\":4784:4791   */\n      dup5\n        /* \"#utility.yul\":4780:4803   */\n      sub\n        /* \"#utility.yul\":4776:4808   */\n      slt\n        /* \"#utility.yul\":4773:4825   */\n      iszero\n      tag_443\n      jumpi\n        /* \"#utility.yul\":4821:4822   */\n      0x00\n        /* \"#utility.yul\":4818:4819   */\n      dup1\n        /* \"#utility.yul\":4811:4823   */\n      revert\n        /* \"#utility.yul\":4773:4825   */\n    tag_443:\n        /* \"#utility.yul\":4853:4862   */\n      dup2\n        /* \"#utility.yul\":4847:4863   */\n      mload\n        /* \"#utility.yul\":4906:4911   */\n      dup1\n        /* \"#utility.yul\":4899:4912   */\n      iszero\n        /* \"#utility.yul\":4892:4913   */\n      iszero\n        /* \"#utility.yul\":4885:4890   */\n      dup2\n        /* \"#utility.yul\":4882:4914   */\n      eq\n        /* \"#utility.yul\":4872:4932   */\n      tag_379\n      jumpi\n        /* \"#utility.yul\":4928:4929   */\n      0x00\n        /* \"#utility.yul\":4925:4926   */\n      dup1\n        /* \"#utility.yul\":4918:4930   */\n      revert\n        /* \"#utility.yul\":4967:5322   */\n    tag_188:\n        /* \"#utility.yul\":5169:5171   */\n      0x20\n        /* \"#utility.yul\":5151:5172   */\n      dup1\n      dup3\n      mstore\n        /* \"#utility.yul\":5208:5210   */\n      0x1f\n        /* \"#utility.yul\":5188:5206   */\n      swap1\n      dup3\n      add\n        /* \"#utility.yul\":5181:5211   */\n      mstore\n        /* \"#utility.yul\":5247:5280   */\n      0x5265656e7472616e637947756172643a207265656e7472616e742063616c6c00\n        /* \"#utility.yul\":5242:5244   */\n      0x40\n        /* \"#utility.yul\":5227:5245   */\n      dup3\n      add\n        /* \"#utility.yul\":5220:5281   */\n      mstore\n        /* \"#utility.yul\":5313:5315   */\n      0x60\n        /* \"#utility.yul\":5298:5316   */\n      add\n      swap1\n        /* \"#utility.yul\":4967:5322   */\n      jump\t// out\n        /* \"#utility.yul\":6022:6206   */\n    tag_224:\n        /* \"#utility.yul\":6092:6098   */\n      0x00\n        /* \"#utility.yul\":6145:6147   */\n      0x20\n        /* \"#utility.yul\":6133:6142   */\n      dup3\n        /* \"#utility.yul\":6124:6131   */\n      dup5\n        /* \"#utility.yul\":6120:6143   */\n      sub\n        /* \"#utility.yul\":6116:6148   */\n      slt\n        /* \"#utility.yul\":6113:6165   */\n      iszero\n      tag_449\n      jumpi\n        /* \"#utility.yul\":6161:6162   */\n      0x00\n        /* \"#utility.yul\":6158:6159   */\n      dup1\n        /* \"#utility.yul\":6151:6163   */\n      revert\n        /* \"#utility.yul\":6113:6165   */\n    tag_449:\n      pop\n        /* \"#utility.yul\":6184:6200   */\n      mload\n      swap2\n        /* \"#utility.yul\":6022:6206   */\n      swap1\n      pop\n      jump\t// out\n        /* \"#utility.yul\":6211:6346   */\n    tag_254:\n        /* \"#utility.yul\":6250:6253   */\n      0x00\n      not(0x00)\n        /* \"#utility.yul\":6271:6288   */\n      dup3\n      eq\n        /* \"#utility.yul\":6268:6311   */\n      iszero\n      tag_452\n      jumpi\n        /* \"#utility.yul\":6291:6309   */\n      tag_452\n      tag_407\n      jump\t// in\n    tag_452:\n      pop\n        /* \"#utility.yul\":6338:6339   */\n      0x01\n        /* \"#utility.yul\":6327:6340   */\n      add\n      swap1\n        /* \"#utility.yul\":6211:6346   */\n      jump\t// out\n        /* \"#utility.yul\":7476:7644   */\n    tag_340:\n        /* \"#utility.yul\":7516:7523   */\n      0x00\n        /* \"#utility.yul\":7582:7583   */\n      dup2\n        /* \"#utility.yul\":7578:7579   */\n      0x00\n        /* \"#utility.yul\":7574:7580   */\n      not\n        /* \"#utility.yul\":7570:7584   */\n      div\n        /* \"#utility.yul\":7567:7568   */\n      dup4\n        /* \"#utility.yul\":7564:7585   */\n      gt\n        /* \"#utility.yul\":7559:7560   */\n      dup3\n        /* \"#utility.yul\":7552:7561   */\n      iszero\n        /* \"#utility.yul\":7545:7562   */\n      iszero\n        /* \"#utility.yul\":7541:7586   */\n      and\n        /* \"#utility.yul\":7538:7609   */\n      iszero\n      tag_458\n      jumpi\n        /* \"#utility.yul\":7589:7607   */\n      tag_458\n      tag_407\n      jump\t// in\n    tag_458:\n      pop\n        /* \"#utility.yul\":7629:7638   */\n      mul\n      swap1\n        /* \"#utility.yul\":7476:7644   */\n      jump\t// out\n        /* \"#utility.yul\":7649:7866   */\n    tag_343:\n        /* \"#utility.yul\":7689:7690   */\n      0x00\n        /* \"#utility.yul\":7715:7716   */\n      dup3\n        /* \"#utility.yul\":7705:7837   */\n      tag_460\n      jumpi\n        /* \"#utility.yul\":7759:7769   */\n      0x4e487b71\n        /* \"#utility.yul\":7754:7757   */\n      0xe0\n        /* \"#utility.yul\":7750:7770   */\n      shl\n        /* \"#utility.yul\":7747:7748   */\n      0x00\n        /* \"#utility.yul\":7740:7771   */\n      mstore\n        /* \"#utility.yul\":7794:7798   */\n      0x12\n        /* \"#utility.yul\":7791:7792   */\n      0x04\n        /* \"#utility.yul\":7784:7799   */\n      mstore\n        /* \"#utility.yul\":7822:7826   */\n      0x24\n        /* \"#utility.yul\":7819:7820   */\n      0x00\n        /* \"#utility.yul\":7812:7827   */\n      revert\n        /* \"#utility.yul\":7705:7837   */\n    tag_460:\n      pop\n        /* \"#utility.yul\":7851:7860   */\n      div\n      swap1\n        /* \"#utility.yul\":7649:7866   */\n      jump\t// out\n        /* \"#utility.yul\":9326:9584   */\n    tag_408:\n        /* \"#utility.yul\":9398:9399   */\n      0x00\n        /* \"#utility.yul\":9408:9521   */\n    tag_466:\n        /* \"#utility.yul\":9422:9428   */\n      dup4\n        /* \"#utility.yul\":9419:9420   */\n      dup2\n        /* \"#utility.yul\":9416:9429   */\n      lt\n        /* \"#utility.yul\":9408:9521   */\n      iszero\n      tag_468\n      jumpi\n        /* \"#utility.yul\":9498:9509   */\n      dup2\n      dup2\n      add\n        /* \"#utility.yul\":9492:9510   */\n      mload\n        /* \"#utility.yul\":9479:9490   */\n      dup4\n      dup3\n      add\n        /* \"#utility.yul\":9472:9511   */\n      mstore\n        /* \"#utility.yul\":9444:9446   */\n      0x20\n        /* \"#utility.yul\":9437:9447   */\n      add\n        /* \"#utility.yul\":9408:9521   */\n      jump(tag_466)\n    tag_468:\n        /* \"#utility.yul\":9539:9545   */\n      dup4\n        /* \"#utility.yul\":9536:9537   */\n      dup2\n        /* \"#utility.yul\":9533:9546   */\n      gt\n        /* \"#utility.yul\":9530:9578   */\n      iszero\n      tag_356\n      jumpi\n      pop\n      pop\n        /* \"#utility.yul\":9574:9575   */\n      0x00\n        /* \"#utility.yul\":9556:9572   */\n      swap2\n      add\n        /* \"#utility.yul\":9549:9576   */\n      mstore\n        /* \"#utility.yul\":9326:9584   */\n      jump\t// out\n        /* \"#utility.yul\":9589:9863   */\n    tag_392:\n        /* \"#utility.yul\":9718:9721   */\n      0x00\n        /* \"#utility.yul\":9756:9762   */\n      dup3\n        /* \"#utility.yul\":9750:9763   */\n      mload\n        /* \"#utility.yul\":9772:9825   */\n      tag_471\n        /* \"#utility.yul\":9818:9824   */\n      dup2\n        /* \"#utility.yul\":9813:9816   */\n      dup5\n        /* \"#utility.yul\":9806:9810   */\n      0x20\n        /* \"#utility.yul\":9798:9804   */\n      dup8\n        /* \"#utility.yul\":9794:9811   */\n      add\n        /* \"#utility.yul\":9772:9825   */\n      tag_408\n      jump\t// in\n    tag_471:\n        /* \"#utility.yul\":9841:9857   */\n      swap2\n      swap1\n      swap2\n      add\n      swap3\n        /* \"#utility.yul\":9589:9863   */\n      swap2\n      pop\n      pop\n      jump\t// out\n        /* \"#utility.yul\":9868:10251   */\n    tag_405:\n        /* \"#utility.yul\":10017:10019   */\n      0x20\n        /* \"#utility.yul\":10006:10015   */\n      dup2\n        /* \"#utility.yul\":9999:10020   */\n      mstore\n        /* \"#utility.yul\":9980:9984   */\n      0x00\n        /* \"#utility.yul\":10049:10055   */\n      dup3\n        /* \"#utility.yul\":10043:10056   */\n      mload\n        /* \"#utility.yul\":10092:10098   */\n      dup1\n        /* \"#utility.yul\":10087:10089   */\n      0x20\n        /* \"#utility.yul\":10076:10085   */\n      dup5\n        /* \"#utility.yul\":10072:10090   */\n      add\n        /* \"#utility.yul\":10065:10099   */\n      mstore\n        /* \"#utility.yul\":10108:10174   */\n      tag_473\n        /* \"#utility.yul\":10167:10173   */\n      dup2\n        /* \"#utility.yul\":10162:10164   */\n      0x40\n        /* \"#utility.yul\":10151:10160   */\n      dup6\n        /* \"#utility.yul\":10147:10165   */\n      add\n        /* \"#utility.yul\":10142:10144   */\n      0x20\n        /* \"#utility.yul\":10134:10140   */\n      dup8\n        /* \"#utility.yul\":10130:10145   */\n      add\n        /* \"#utility.yul\":10108:10174   */\n      tag_408\n      jump\t// in\n    tag_473:\n        /* \"#utility.yul\":10235:10237   */\n      0x1f\n        /* \"#utility.yul\":10214:10229   */\n      add\n      not(0x1f)\n        /* \"#utility.yul\":10210:10239   */\n      and\n        /* \"#utility.yul\":10195:10240   */\n      swap2\n      swap1\n      swap2\n      add\n        /* \"#utility.yul\":10242:10244   */\n      0x40\n        /* \"#utility.yul\":10191:10245   */\n      add\n      swap3\n        /* \"#utility.yul\":9868:10251   */\n      swap2\n      pop\n      pop\n      jump\t// out\n\n    auxdata: 0xa2646970667358221220608745f5e34f1667f67b3b4d47ce1317edcc715ab6aa394d8bd275ac968b4e7c64736f6c634300080c0033\n}\n",
				"bytecode": {
					"linkReferences": {},
					"object": "60a0604052600280546001600160a01b0319167382af49447d8a07e3bd95bd0d56f35241523fbab1179055600060058190556008556009805460ff1916905534801561004a57600080fd5b50604051611939380380611939833981016040819052610069916100d4565b61007233610084565b600180556004919091556080526100f8565b600080546001600160a01b038381166001600160a01b0319831681178455604051919092169283917f8be0079c531659141344cd1fd0a4f28419497f9722a3daafe3b4186f6b6457e09190a35050565b600080604083850312156100e757600080fd5b505080516020909101519092909150565b608051611803610136600039600081816102e8015281816106b1015281816106d801528181610c6701528181610c8e0152610cb801526118036000f3fe608060405234801561001057600080fd5b50600436106101c45760003560e01c806378e97925116100f95780639bd16d7b11610097578063d49e77cd11610071578063d49e77cd146103d7578063e2bbb158146103ea578063f2fde38b146103fd578063f4b83c4c1461041057600080fd5b80639bd16d7b146103a8578063ad5c4648146103bb578063b9ac9686146103ce57600080fd5b80638da5cb5b116100d35780638da5cb5b1461031a5780638dbb1e3a1461033f5780639112f2b21461035257806393f1a40b1461036157600080fd5b806378e97925146102e35780637b020dad1461030a578063845105e21461031257600080fd5b8063412490611161016657806351eb05a61161014057806351eb05a6146102ad5780635312ea8e146102c0578063630b5ba1146102d3578063715018a6146102db57600080fd5b80634124906114610274578063441a3e701461027d578063501883011461029057600080fd5b806317caf6f1116101a257806317caf6f1146102325780631ab06ee51461023b5780632377b2a81461024e5780632b8bbbe81461026157600080fd5b80630332e936146101c9578063081e3eda146101de5780631526fe27146101f5575b600080fd5b6101dc6101d736600461158c565b610419565b005b6006545b6040519081526020015b60405180910390f35b61020861020336600461158c565b610495565b604080516001600160a01b03909516855260208501939093529183015260608201526080016101ec565b6101e260085481565b6101dc6102493660046115a5565b6104d9565b6101dc61025c36600461158c565b6105ab565b6101dc61026f3660046115dc565b610642565b6101e260045481565b6101dc61028b3660046115a5565b6107fd565b60095461029d9060ff1681565b60405190151581526020016101ec565b6101dc6102bb36600461158c565b6109d0565b6101dc6102ce36600461158c565b610af7565b6101dc610bfd565b6101dc610c24565b6101e27f000000000000000000000000000000000000000000000000000000000000000081565b6101dc610c38565b6101dc610c4c565b6000546001600160a01b03165b6040516001600160a01b0390911681526020016101ec565b6101e261034d3660046115a5565b610c63565b6101e2670de0b6b3a764000081565b61039361036f3660046115dc565b60076020908152600092835260408084209091529082529020805460019091015482565b604080519283526020830191909152016101ec565b6101e26103b63660046115dc565b610cf9565b600254610327906001600160a01b031681565b6101e260055481565b600354610327906001600160a01b031681565b6101dc6103f83660046115a5565b610e56565b6101dc61040b36600461160c565b610f81565b6101e2610fa081565b610421610ffa565b670de0b6b3a76400008111156104885760405162461bcd60e51b815260206004820152602160248201527f736574574554485065725365636f6e643a20746f6f206d616e792057455448736044820152602160f81b60648201526084015b60405180910390fd5b610490610bfd565b600455565b600681815481106104a557600080fd5b600091825260209091206004909102018054600182015460028301546003909301546001600160a01b039092169350919084565b6104e1610ffa565b610fa08111156105335760405162461bcd60e51b815260206004820152601c60248201527f6164643a20746f6f206d616e7920616c6c6f6320706f696e7473212100000000604482015260640161047f565b61053b610bfd565b806006838154811061054f5761054f611629565b90600052602060002090600402016001015460085461056e9190611655565b610578919061166c565b600881905550806006838154811061059257610592611629565b9060005260206000209060040201600101819055505050565b6105b3610ffa565b6005546105c09082611054565b6005556002546040516323b872dd60e01b8152336004820152306024820152604481018390526001600160a01b03909116906323b872dd906064016020604051808303816000875af115801561061a573d6000803e3d6000fd5b505050506040513d601f19601f8201168201806040525081019061063e9190611684565b5050565b61064a610ffa565b610fa082111561069c5760405162461bcd60e51b815260206004820152601c60248201527f6164643a20746f6f206d616e7920616c6c6f6320706f696e7473212100000000604482015260640161047f565b6106a581611060565b6106ad610bfd565b60007f000000000000000000000000000000000000000000000000000000000000000042116106fc577f00000000000000000000000000000000000000000000000000000000000000006106fe565b425b60085490915061070e9084611054565b600855604080516080810182526001600160a01b0393841681526020810194855290810191825260006060820181815260068054600181018255925291517ff652222313e28459528d920b65115c16c04f3efc82aaedc97be59f3f377c0d3f600490920291820180546001600160a01b031916919095161790935592517ff652222313e28459528d920b65115c16c04f3efc82aaedc97be59f3f377c0d40830155517ff652222313e28459528d920b65115c16c04f3efc82aaedc97be59f3f377c0d4182015590517ff652222313e28459528d920b65115c16c04f3efc82aaedc97be59f3f377c0d4290910155565b600260015414156108205760405162461bcd60e51b815260040161047f906116a6565b600260018190555060006006838154811061083d5761083d611629565b6000918252602080832086845260078252604080852033865290925292208054600490920290920192508311156108ab5760405162461bcd60e51b81526020600482015260126024820152711dda5d1a191c985dce881b9bdd0819dbdbd960721b604482015260640161047f565b60095460ff166108f35760405162461bcd60e51b81526020600482015260136024820152721dda5d1a191c985dc81b9bdd081bdc195b9959606a1b604482015260640161047f565b6108fc846109d0565b6000610936826001015461093064e8d4a5100061092a8760030154876000015461110a90919063ffffffff16565b90611116565b90611122565b82549091506109459085611122565b80835560038401546109629164e8d4a510009161092a919061110a565b6001830155801561097757610977338261112e565b825461098d906001600160a01b0316338661125c565b604051848152859033907ff279e6a1f5e320cca91135676d9cb6e44ca8a08c0b88342bcdb1144f6511b568906020015b60405180910390a3505060018055505050565b6000600682815481106109e5576109e5611629565b9060005260206000209060040201905080600201544211610a04575050565b80546040516370a0823160e01b81523060048201526000916001600160a01b0316906370a0823190602401602060405180830381865afa158015610a4c573d6000803e3d6000fd5b505050506040513d601f19601f82011682018060405250810190610a7091906116dd565b905080610a8257504260029091015550565b6000610a92836002015442610c63565b90506000610abf60085461092a8660010154610ab96004548761110a90919063ffffffff16565b9061110a565b9050610ae2610ad78461092a8464e8d4a5100061110a565b600386015490611054565b60038501555050426002909201919091555050565b60026001541415610b1a5760405162461bcd60e51b815260040161047f906116a6565b6002600181905550600060068281548110610b3757610b37611629565b600091825260208083208584526007825260408085203380875293528420805485825560018201959095556004909302019350909190610b9590610b836103e861092a856102bc61110a565b85546001600160a01b0316919061125c565b610bbc610baa6000546001600160a01b031690565b610b836103e861092a8561012c61110a565b604051818152849033907fbb757047c2b5f3974fe26b7c10f732e7bce710b0952a71082702781e62ae05959060200160405180910390a35050600180555050565b60065460005b8181101561063e57610c14816109d0565b610c1d816116f6565b9050610c03565b610c2c610ffa565b610c3660006112bf565b565b610c40610ffa565b6009805460ff19169055565b610c54610ffa565b6009805460ff19166001179055565b60007f00000000000000000000000000000000000000000000000000000000000000008311610cb2577f0000000000000000000000000000000000000000000000000000000000000000610cb4565b825b92507f0000000000000000000000000000000000000000000000000000000000000000821015610ce657506000610cf3565b610cf08383611655565b90505b92915050565b60008060068481548110610d0f57610d0f611629565b600091825260208083208784526007825260408085206001600160a01b038981168752935280852060049485029092016003810154815492516370a0823160e01b8152309681019690965290965091949193919216906370a0823190602401602060405180830381865afa158015610d8b573d6000803e3d6000fd5b505050506040513d601f19601f82011682018060405250810190610daf91906116dd565b9050836002015442118015610dc357508015155b15610e23576000610dd8856002015442610c63565b90506000610dff60085461092a8860010154610ab96004548761110a90919063ffffffff16565b9050610e1e610e178461092a8464e8d4a5100061110a565b8590611054565b935050505b610e4b836001015461093064e8d4a5100061092a86886000015461110a90919063ffffffff16565b979650505050505050565b60026001541415610e795760405162461bcd60e51b815260040161047f906116a6565b6002600181905550600060068381548110610e9657610e96611629565b60009182526020808320868452600782526040808520338652909252922060049091029091019150610ec7846109d0565b6000610ef5826001015461093064e8d4a5100061092a8760030154876000015461110a90919063ffffffff16565b8254909150610f049085611054565b8083556003840154610f219164e8d4a510009161092a919061110a565b60018301558015610f3657610f36338261112e565b8254610f4d906001600160a01b031633308761130f565b604051848152859033907f90890809c654f11d6e72a28fa60149770a0d11ec6c92319d6ceb2bb0a4ea1a15906020016109bd565b610f89610ffa565b6001600160a01b038116610fee5760405162461bcd60e51b815260206004820152602660248201527f4f776e61626c653a206e6577206f776e657220697320746865207a65726f206160448201526564647265737360d01b606482015260840161047f565b610ff7816112bf565b50565b6000546001600160a01b03163314610c365760405162461bcd60e51b815260206004820181905260248201527f4f776e61626c653a2063616c6c6572206973206e6f7420746865206f776e6572604482015260640161047f565b6000610cf0828461166c565b60065460005b8181101561110557826001600160a01b03166006828154811061108b5761108b611629565b60009182526020909120600490910201546001600160a01b031614156110f35760405162461bcd60e51b815260206004820152601c60248201527f6164643a20706f6f6c20616c7265616479206578697374732121212100000000604482015260640161047f565b806110fd816116f6565b915050611066565b505050565b6000610cf08284611711565b6000610cf08284611730565b6000610cf08284611655565b6002546040516370a0823160e01b81523060048201526000916001600160a01b0316906370a0823190602401602060405180830381865afa158015611177573d6000803e3d6000fd5b505050506040513d601f19601f8201168201806040525081019061119b91906116dd565b9050808211156112235760025460405163a9059cbb60e01b81526001600160a01b038581166004830152602482018490529091169063a9059cbb906044015b6020604051808303816000875af11580156111f9573d6000803e3d6000fd5b505050506040513d601f19601f8201168201806040525081019061121d9190611684565b50505050565b60025460405163a9059cbb60e01b81526001600160a01b038581166004830152602482018590529091169063a9059cbb906044016111da565b6040516001600160a01b03831660248201526044810182905261110590849063a9059cbb60e01b906064015b60408051601f198184030181529190526020810180516001600160e01b03166001600160e01b031990931692909217909152611347565b600080546001600160a01b038381166001600160a01b0319831681178455604051919092169283917f8be0079c531659141344cd1fd0a4f28419497f9722a3daafe3b4186f6b6457e09190a35050565b6040516001600160a01b038085166024830152831660448201526064810182905261121d9085906323b872dd60e01b90608401611288565b600061139c826040518060400160405280602081526020017f5361666545524332303a206c6f772d6c6576656c2063616c6c206661696c6564815250856001600160a01b03166114199092919063ffffffff16565b80519091501561110557808060200190518101906113ba9190611684565b6111055760405162461bcd60e51b815260206004820152602a60248201527f5361666545524332303a204552433230206f7065726174696f6e20646964206e6044820152691bdd081cdd58d8d9595960b21b606482015260840161047f565b60606114288484600085611432565b90505b9392505050565b6060824710156114935760405162461bcd60e51b815260206004820152602660248201527f416464726573733a20696e73756666696369656e742062616c616e636520666f6044820152651c8818d85b1b60d21b606482015260840161047f565b6001600160a01b0385163b6114ea5760405162461bcd60e51b815260206004820152601d60248201527f416464726573733a2063616c6c20746f206e6f6e2d636f6e7472616374000000604482015260640161047f565b600080866001600160a01b03168587604051611506919061177e565b60006040518083038185875af1925050503d8060008114611543576040519150601f19603f3d011682016040523d82523d6000602084013e611548565b606091505b5091509150610e4b8282866060831561156257508161142b565b8251156115725782518084602001fd5b8160405162461bcd60e51b815260040161047f919061179a565b60006020828403121561159e57600080fd5b5035919050565b600080604083850312156115b857600080fd5b50508035926020909101359150565b6001600160a01b0381168114610ff757600080fd5b600080604083850312156115ef57600080fd5b823591506020830135611601816115c7565b809150509250929050565b60006020828403121561161e57600080fd5b813561142b816115c7565b634e487b7160e01b600052603260045260246000fd5b634e487b7160e01b600052601160045260246000fd5b6000828210156116675761166761163f565b500390565b6000821982111561167f5761167f61163f565b500190565b60006020828403121561169657600080fd5b8151801515811461142b57600080fd5b6020808252601f908201527f5265656e7472616e637947756172643a207265656e7472616e742063616c6c00604082015260600190565b6000602082840312156116ef57600080fd5b5051919050565b600060001982141561170a5761170a61163f565b5060010190565b600081600019048311821515161561172b5761172b61163f565b500290565b60008261174d57634e487b7160e01b600052601260045260246000fd5b500490565b60005b8381101561176d578181015183820152602001611755565b8381111561121d5750506000910152565b60008251611790818460208701611752565b9190910192915050565b60208152600082518060208401526117b9816040850160208701611752565b601f01601f1916919091016040019291505056fea2646970667358221220608745f5e34f1667f67b3b4d47ce1317edcc715ab6aa394d8bd275ac968b4e7c64736f6c634300080c0033",
					"opcodes": "PUSH1 0xA0 PUSH1 0x40 MSTORE PUSH1 0x2 DUP1 SLOAD PUSH1 0x1 PUSH1 0x1 PUSH1 0xA0 SHL SUB NOT AND PUSH20 0x82AF49447D8A07E3BD95BD0D56F35241523FBAB1 OR SWAP1 SSTORE PUSH1 0x0 PUSH1 0x5 DUP2 SWAP1 SSTORE PUSH1 0x8 SSTORE PUSH1 0x9 DUP1 SLOAD PUSH1 0xFF NOT AND SWAP1 SSTORE CALLVALUE DUP1 ISZERO PUSH2 0x4A JUMPI PUSH1 0x0 DUP1 REVERT JUMPDEST POP PUSH1 0x40 MLOAD PUSH2 0x1939 CODESIZE SUB DUP1 PUSH2 0x1939 DUP4 CODECOPY DUP2 ADD PUSH1 0x40 DUP2 SWAP1 MSTORE PUSH2 0x69 SWAP2 PUSH2 0xD4 JUMP JUMPDEST PUSH2 0x72 CALLER PUSH2 0x84 JUMP JUMPDEST PUSH1 0x1 DUP1 SSTORE PUSH1 0x4 SWAP2 SWAP1 SWAP2 SSTORE PUSH1 0x80 MSTORE PUSH2 0xF8 JUMP JUMPDEST PUSH1 0x0 DUP1 SLOAD PUSH1 0x1 PUSH1 0x1 PUSH1 0xA0 SHL SUB DUP4 DUP2 AND PUSH1 0x1 PUSH1 0x1 PUSH1 0xA0 SHL SUB NOT DUP4 AND DUP2 OR DUP5 SSTORE PUSH1 0x40 MLOAD SWAP2 SWAP1 SWAP3 AND SWAP3 DUP4 SWAP2 PUSH32 0x8BE0079C531659141344CD1FD0A4F28419497F9722A3DAAFE3B4186F6B6457E0 SWAP2 SWAP1 LOG3 POP POP JUMP JUMPDEST PUSH1 0x0 DUP1 PUSH1 0x40 DUP4 DUP6 SUB SLT ISZERO PUSH2 0xE7 JUMPI PUSH1 0x0 DUP1 REVERT JUMPDEST POP POP DUP1 MLOAD PUSH1 0x20 SWAP1 SWAP2 ADD MLOAD SWAP1 SWAP3 SWAP1 SWAP2 POP JUMP JUMPDEST PUSH1 0x80 MLOAD PUSH2 0x1803 PUSH2 0x136 PUSH1 0x0 CODECOPY PUSH1 0x0 DUP2 DUP2 PUSH2 0x2E8 ADD MSTORE DUP2 DUP2 PUSH2 0x6B1 ADD MSTORE DUP2 DUP2 PUSH2 0x6D8 ADD MSTORE DUP2 DUP2 PUSH2 0xC67 ADD MSTORE DUP2 DUP2 PUSH2 0xC8E ADD MSTORE PUSH2 0xCB8 ADD MSTORE PUSH2 0x1803 PUSH1 0x0 RETURN INVALID PUSH1 0x80 PUSH1 0x40 MSTORE CALLVALUE DUP1 ISZERO PUSH2 0x10 JUMPI PUSH1 0x0 DUP1 REVERT JUMPDEST POP PUSH1 0x4 CALLDATASIZE LT PUSH2 0x1C4 JUMPI PUSH1 0x0 CALLDATALOAD PUSH1 0xE0 SHR DUP1 PUSH4 0x78E97925 GT PUSH2 0xF9 JUMPI DUP1 PUSH4 0x9BD16D7B GT PUSH2 0x97 JUMPI DUP1 PUSH4 0xD49E77CD GT PUSH2 0x71 JUMPI DUP1 PUSH4 0xD49E77CD EQ PUSH2 0x3D7 JUMPI DUP1 PUSH4 0xE2BBB158 EQ PUSH2 0x3EA JUMPI DUP1 PUSH4 0xF2FDE38B EQ PUSH2 0x3FD JUMPI DUP1 PUSH4 0xF4B83C4C EQ PUSH2 0x410 JUMPI PUSH1 0x0 DUP1 REVERT JUMPDEST DUP1 PUSH4 0x9BD16D7B EQ PUSH2 0x3A8 JUMPI DUP1 PUSH4 0xAD5C4648 EQ PUSH2 0x3BB JUMPI DUP1 PUSH4 0xB9AC9686 EQ PUSH2 0x3CE JUMPI PUSH1 0x0 DUP1 REVERT JUMPDEST DUP1 PUSH4 0x8DA5CB5B GT PUSH2 0xD3 JUMPI DUP1 PUSH4 0x8DA5CB5B EQ PUSH2 0x31A JUMPI DUP1 PUSH4 0x8DBB1E3A EQ PUSH2 0x33F JUMPI DUP1 PUSH4 0x9112F2B2 EQ PUSH2 0x352 JUMPI DUP1 PUSH4 0x93F1A40B EQ PUSH2 0x361 JUMPI PUSH1 0x0 DUP1 REVERT JUMPDEST DUP1 PUSH4 0x78E97925 EQ PUSH2 0x2E3 JUMPI DUP1 PUSH4 0x7B020DAD EQ PUSH2 0x30A JUMPI DUP1 PUSH4 0x845105E2 EQ PUSH2 0x312 JUMPI PUSH1 0x0 DUP1 REVERT JUMPDEST DUP1 PUSH4 0x41249061 GT PUSH2 0x166 JUMPI DUP1 PUSH4 0x51EB05A6 GT PUSH2 0x140 JUMPI DUP1 PUSH4 0x51EB05A6 EQ PUSH2 0x2AD JUMPI DUP1 PUSH4 0x5312EA8E EQ PUSH2 0x2C0 JUMPI DUP1 PUSH4 0x630B5BA1 EQ PUSH2 0x2D3 JUMPI DUP1 PUSH4 0x715018A6 EQ PUSH2 0x2DB JUMPI PUSH1 0x0 DUP1 REVERT JUMPDEST DUP1 PUSH4 0x41249061 EQ PUSH2 0x274 JUMPI DUP1 PUSH4 0x441A3E70 EQ PUSH2 0x27D JUMPI DUP1 PUSH4 0x50188301 EQ PUSH2 0x290 JUMPI PUSH1 0x0 DUP1 REVERT JUMPDEST DUP1 PUSH4 0x17CAF6F1 GT PUSH2 0x1A2 JUMPI DUP1 PUSH4 0x17CAF6F1 EQ PUSH2 0x232 JUMPI DUP1 PUSH4 0x1AB06EE5 EQ PUSH2 0x23B JUMPI DUP1 PUSH4 0x2377B2A8 EQ PUSH2 0x24E JUMPI DUP1 PUSH4 0x2B8BBBE8 EQ PUSH2 0x261 JUMPI PUSH1 0x0 DUP1 REVERT JUMPDEST DUP1 PUSH4 0x332E936 EQ PUSH2 0x1C9 JUMPI DUP1 PUSH4 0x81E3EDA EQ PUSH2 0x1DE JUMPI DUP1 PUSH4 0x1526FE27 EQ PUSH2 0x1F5 JUMPI JUMPDEST PUSH1 0x0 DUP1 REVERT JUMPDEST PUSH2 0x1DC PUSH2 0x1D7 CALLDATASIZE PUSH1 0x4 PUSH2 0x158C JUMP JUMPDEST PUSH2 0x419 JUMP JUMPDEST STOP JUMPDEST PUSH1 0x6 SLOAD JUMPDEST PUSH1 0x40 MLOAD SWAP1 DUP2 MSTORE PUSH1 0x20 ADD JUMPDEST PUSH1 0x40 MLOAD DUP1 SWAP2 SUB SWAP1 RETURN JUMPDEST PUSH2 0x208 PUSH2 0x203 CALLDATASIZE PUSH1 0x4 PUSH2 0x158C JUMP JUMPDEST PUSH2 0x495 JUMP JUMPDEST PUSH1 0x40 DUP1 MLOAD PUSH1 0x1 PUSH1 0x1 PUSH1 0xA0 SHL SUB SWAP1 SWAP6 AND DUP6 MSTORE PUSH1 0x20 DUP6 ADD SWAP4 SWAP1 SWAP4 MSTORE SWAP2 DUP4 ADD MSTORE PUSH1 0x60 DUP3 ADD MSTORE PUSH1 0x80 ADD PUSH2 0x1EC JUMP JUMPDEST PUSH2 0x1E2 PUSH1 0x8 SLOAD DUP2 JUMP JUMPDEST PUSH2 0x1DC PUSH2 0x249 CALLDATASIZE PUSH1 0x4 PUSH2 0x15A5 JUMP JUMPDEST PUSH2 0x4D9 JUMP JUMPDEST PUSH2 0x1DC PUSH2 0x25C CALLDATASIZE PUSH1 0x4 PUSH2 0x158C JUMP JUMPDEST PUSH2 0x5AB JUMP JUMPDEST PUSH2 0x1DC PUSH2 0x26F CALLDATASIZE PUSH1 0x4 PUSH2 0x15DC JUMP JUMPDEST PUSH2 0x642 JUMP JUMPDEST PUSH2 0x1E2 PUSH1 0x4 SLOAD DUP2 JUMP JUMPDEST PUSH2 0x1DC PUSH2 0x28B CALLDATASIZE PUSH1 0x4 PUSH2 0x15A5 JUMP JUMPDEST PUSH2 0x7FD JUMP JUMPDEST PUSH1 0x9 SLOAD PUSH2 0x29D SWAP1 PUSH1 0xFF AND DUP2 JUMP JUMPDEST PUSH1 0x40 MLOAD SWAP1 ISZERO ISZERO DUP2 MSTORE PUSH1 0x20 ADD PUSH2 0x1EC JUMP JUMPDEST PUSH2 0x1DC PUSH2 0x2BB CALLDATASIZE PUSH1 0x4 PUSH2 0x158C JUMP JUMPDEST PUSH2 0x9D0 JUMP JUMPDEST PUSH2 0x1DC PUSH2 0x2CE CALLDATASIZE PUSH1 0x4 PUSH2 0x158C JUMP JUMPDEST PUSH2 0xAF7 JUMP JUMPDEST PUSH2 0x1DC PUSH2 0xBFD JUMP JUMPDEST PUSH2 0x1DC PUSH2 0xC24 JUMP JUMPDEST PUSH2 0x1E2 PUSH32 0x0 DUP2 JUMP JUMPDEST PUSH2 0x1DC PUSH2 0xC38 JUMP JUMPDEST PUSH2 0x1DC PUSH2 0xC4C JUMP JUMPDEST PUSH1 0x0 SLOAD PUSH1 0x1 PUSH1 0x1 PUSH1 0xA0 SHL SUB AND JUMPDEST PUSH1 0x40 MLOAD PUSH1 0x1 PUSH1 0x1 PUSH1 0xA0 SHL SUB SWAP1 SWAP2 AND DUP2 MSTORE PUSH1 0x20 ADD PUSH2 0x1EC JUMP JUMPDEST PUSH2 0x1E2 PUSH2 0x34D CALLDATASIZE PUSH1 0x4 PUSH2 0x15A5 JUMP JUMPDEST PUSH2 0xC63 JUMP JUMPDEST PUSH2 0x1E2 PUSH8 0xDE0B6B3A7640000 DUP2 JUMP JUMPDEST PUSH2 0x393 PUSH2 0x36F CALLDATASIZE PUSH1 0x4 PUSH2 0x15DC JUMP JUMPDEST PUSH1 0x7 PUSH1 0x20 SWAP1 DUP2 MSTORE PUSH1 0x0 SWAP3 DUP4 MSTORE PUSH1 0x40 DUP1 DUP5 KECCAK256 SWAP1 SWAP2 MSTORE SWAP1 DUP3 MSTORE SWAP1 KECCAK256 DUP1 SLOAD PUSH1 0x1 SWAP1 SWAP2 ADD SLOAD DUP3 JUMP JUMPDEST PUSH1 0x40 DUP1 MLOAD SWAP3 DUP4 MSTORE PUSH1 0x20 DUP4 ADD SWAP2 SWAP1 SWAP2 MSTORE ADD PUSH2 0x1EC JUMP JUMPDEST PUSH2 0x1E2 PUSH2 0x3B6 CALLDATASIZE PUSH1 0x4 PUSH2 0x15DC JUMP JUMPDEST PUSH2 0xCF9 JUMP JUMPDEST PUSH1 0x2 SLOAD PUSH2 0x327 SWAP1 PUSH1 0x1 PUSH1 0x1 PUSH1 0xA0 SHL SUB AND DUP2 JUMP JUMPDEST PUSH2 0x1E2 PUSH1 0x5 SLOAD DUP2 JUMP JUMPDEST PUSH1 0x3 SLOAD PUSH2 0x327 SWAP1 PUSH1 0x1 PUSH1 0x1 PUSH1 0xA0 SHL SUB AND DUP2 JUMP JUMPDEST PUSH2 0x1DC PUSH2 0x3F8 CALLDATASIZE PUSH1 0x4 PUSH2 0x15A5 JUMP JUMPDEST PUSH2 0xE56 JUMP JUMPDEST PUSH2 0x1DC PUSH2 0x40B CALLDATASIZE PUSH1 0x4 PUSH2 0x160C JUMP JUMPDEST PUSH2 0xF81 JUMP JUMPDEST PUSH2 0x1E2 PUSH2 0xFA0 DUP2 JUMP JUMPDEST PUSH2 0x421 PUSH2 0xFFA JUMP JUMPDEST PUSH8 0xDE0B6B3A7640000 DUP2 GT ISZERO PUSH2 0x488 JUMPI PUSH1 0x40 MLOAD PUSH3 0x461BCD PUSH1 0xE5 SHL DUP2 MSTORE PUSH1 0x20 PUSH1 0x4 DUP3 ADD MSTORE PUSH1 0x21 PUSH1 0x24 DUP3 ADD MSTORE PUSH32 0x736574574554485065725365636F6E643A20746F6F206D616E79205745544873 PUSH1 0x44 DUP3 ADD MSTORE PUSH1 0x21 PUSH1 0xF8 SHL PUSH1 0x64 DUP3 ADD MSTORE PUSH1 0x84 ADD JUMPDEST PUSH1 0x40 MLOAD DUP1 SWAP2 SUB SWAP1 REVERT JUMPDEST PUSH2 0x490 PUSH2 0xBFD JUMP JUMPDEST PUSH1 0x4 SSTORE JUMP JUMPDEST PUSH1 0x6 DUP2 DUP2 SLOAD DUP2 LT PUSH2 0x4A5 JUMPI PUSH1 0x0 DUP1 REVERT JUMPDEST PUSH1 0x0 SWAP2 DUP3 MSTORE PUSH1 0x20 SWAP1 SWAP2 KECCAK256 PUSH1 0x4 SWAP1 SWAP2 MUL ADD DUP1 SLOAD PUSH1 0x1 DUP3 ADD SLOAD PUSH1 0x2 DUP4 ADD SLOAD PUSH1 0x3 SWAP1 SWAP4 ADD SLOAD PUSH1 0x1 PUSH1 0x1 PUSH1 0xA0 SHL SUB SWAP1 SWAP3 AND SWAP4 POP SWAP2 SWAP1 DUP5 JUMP JUMPDEST PUSH2 0x4E1 PUSH2 0xFFA JUMP JUMPDEST PUSH2 0xFA0 DUP2 GT ISZERO PUSH2 0x533 JUMPI PUSH1 0x40 MLOAD PUSH3 0x461BCD PUSH1 0xE5 SHL DUP2 MSTORE PUSH1 0x20 PUSH1 0x4 DUP3 ADD MSTORE PUSH1 0x1C PUSH1 0x24 DUP3 ADD MSTORE PUSH32 0x6164643A20746F6F206D616E7920616C6C6F6320706F696E7473212100000000 PUSH1 0x44 DUP3 ADD MSTORE PUSH1 0x64 ADD PUSH2 0x47F JUMP JUMPDEST PUSH2 0x53B PUSH2 0xBFD JUMP JUMPDEST DUP1 PUSH1 0x6 DUP4 DUP2 SLOAD DUP2 LT PUSH2 0x54F JUMPI PUSH2 0x54F PUSH2 0x1629 JUMP JUMPDEST SWAP1 PUSH1 0x0 MSTORE PUSH1 0x20 PUSH1 0x0 KECCAK256 SWAP1 PUSH1 0x4 MUL ADD PUSH1 0x1 ADD SLOAD PUSH1 0x8 SLOAD PUSH2 0x56E SWAP2 SWAP1 PUSH2 0x1655 JUMP JUMPDEST PUSH2 0x578 SWAP2 SWAP1 PUSH2 0x166C JUMP JUMPDEST PUSH1 0x8 DUP2 SWAP1 SSTORE POP DUP1 PUSH1 0x6 DUP4 DUP2 SLOAD DUP2 LT PUSH2 0x592 JUMPI PUSH2 0x592 PUSH2 0x1629 JUMP JUMPDEST SWAP1 PUSH1 0x0 MSTORE PUSH1 0x20 PUSH1 0x0 KECCAK256 SWAP1 PUSH1 0x4 MUL ADD PUSH1 0x1 ADD DUP2 SWAP1 SSTORE POP POP POP JUMP JUMPDEST PUSH2 0x5B3 PUSH2 0xFFA JUMP JUMPDEST PUSH1 0x5 SLOAD PUSH2 0x5C0 SWAP1 DUP3 PUSH2 0x1054 JUMP JUMPDEST PUSH1 0x5 SSTORE PUSH1 0x2 SLOAD PUSH1 0x40 MLOAD PUSH4 0x23B872DD PUSH1 0xE0 SHL DUP2 MSTORE CALLER PUSH1 0x4 DUP3 ADD MSTORE ADDRESS PUSH1 0x24 DUP3 ADD MSTORE PUSH1 0x44 DUP2 ADD DUP4 SWAP1 MSTORE PUSH1 0x1 PUSH1 0x1 PUSH1 0xA0 SHL SUB SWAP1 SWAP2 AND SWAP1 PUSH4 0x23B872DD SWAP1 PUSH1 0x64 ADD PUSH1 0x20 PUSH1 0x40 MLOAD DUP1 DUP4 SUB DUP2 PUSH1 0x0 DUP8 GAS CALL ISZERO DUP1 ISZERO PUSH2 0x61A JUMPI RETURNDATASIZE PUSH1 0x0 DUP1 RETURNDATACOPY RETURNDATASIZE PUSH1 0x0 REVERT JUMPDEST POP POP POP POP PUSH1 0x40 MLOAD RETURNDATASIZE PUSH1 0x1F NOT PUSH1 0x1F DUP3 ADD AND DUP3 ADD DUP1 PUSH1 0x40 MSTORE POP DUP2 ADD SWAP1 PUSH2 0x63E SWAP2 SWAP1 PUSH2 0x1684 JUMP JUMPDEST POP POP JUMP JUMPDEST PUSH2 0x64A PUSH2 0xFFA JUMP JUMPDEST PUSH2 0xFA0 DUP3 GT ISZERO PUSH2 0x69C JUMPI PUSH1 0x40 MLOAD PUSH3 0x461BCD PUSH1 0xE5 SHL DUP2 MSTORE PUSH1 0x20 PUSH1 0x4 DUP3 ADD MSTORE PUSH1 0x1C PUSH1 0x24 DUP3 ADD MSTORE PUSH32 0x6164643A20746F6F206D616E7920616C6C6F6320706F696E7473212100000000 PUSH1 0x44 DUP3 ADD MSTORE PUSH1 0x64 ADD PUSH2 0x47F JUMP JUMPDEST PUSH2 0x6A5 DUP2 PUSH2 0x1060 JUMP JUMPDEST PUSH2 0x6AD PUSH2 0xBFD JUMP JUMPDEST PUSH1 0x0 PUSH32 0x0 TIMESTAMP GT PUSH2 0x6FC JUMPI PUSH32 0x0 PUSH2 0x6FE JUMP JUMPDEST TIMESTAMP JUMPDEST PUSH1 0x8 SLOAD SWAP1 SWAP2 POP PUSH2 0x70E SWAP1 DUP5 PUSH2 0x1054 JUMP JUMPDEST PUSH1 0x8 SSTORE PUSH1 0x40 DUP1 MLOAD PUSH1 0x80 DUP2 ADD DUP3 MSTORE PUSH1 0x1 PUSH1 0x1 PUSH1 0xA0 SHL SUB SWAP4 DUP5 AND DUP2 MSTORE PUSH1 0x20 DUP2 ADD SWAP5 DUP6 MSTORE SWAP1 DUP2 ADD SWAP2 DUP3 MSTORE PUSH1 0x0 PUSH1 0x60 DUP3 ADD DUP2 DUP2 MSTORE PUSH1 0x6 DUP1 SLOAD PUSH1 0x1 DUP2 ADD DUP3 SSTORE SWAP3 MSTORE SWAP2 MLOAD PUSH32 0xF652222313E28459528D920B65115C16C04F3EFC82AAEDC97BE59F3F377C0D3F PUSH1 0x4 SWAP1 SWAP3 MUL SWAP2 DUP3 ADD DUP1 SLOAD PUSH1 0x1 PUSH1 0x1 PUSH1 0xA0 SHL SUB NOT AND SWAP2 SWAP1 SWAP6 AND OR SWAP1 SWAP4 SSTORE SWAP3 MLOAD PUSH32 0xF652222313E28459528D920B65115C16C04F3EFC82AAEDC97BE59F3F377C0D40 DUP4 ADD SSTORE MLOAD PUSH32 0xF652222313E28459528D920B65115C16C04F3EFC82AAEDC97BE59F3F377C0D41 DUP3 ADD SSTORE SWAP1 MLOAD PUSH32 0xF652222313E28459528D920B65115C16C04F3EFC82AAEDC97BE59F3F377C0D42 SWAP1 SWAP2 ADD SSTORE JUMP JUMPDEST PUSH1 0x2 PUSH1 0x1 SLOAD EQ ISZERO PUSH2 0x820 JUMPI PUSH1 0x40 MLOAD PUSH3 0x461BCD PUSH1 0xE5 SHL DUP2 MSTORE PUSH1 0x4 ADD PUSH2 0x47F SWAP1 PUSH2 0x16A6 JUMP JUMPDEST PUSH1 0x2 PUSH1 0x1 DUP2 SWAP1 SSTORE POP PUSH1 0x0 PUSH1 0x6 DUP4 DUP2 SLOAD DUP2 LT PUSH2 0x83D JUMPI PUSH2 0x83D PUSH2 0x1629 JUMP JUMPDEST PUSH1 0x0 SWAP2 DUP3 MSTORE PUSH1 0x20 DUP1 DUP4 KECCAK256 DUP7 DUP5 MSTORE PUSH1 0x7 DUP3 MSTORE PUSH1 0x40 DUP1 DUP6 KECCAK256 CALLER DUP7 MSTORE SWAP1 SWAP3 MSTORE SWAP3 KECCAK256 DUP1 SLOAD PUSH1 0x4 SWAP1 SWAP3 MUL SWAP1 SWAP3 ADD SWAP3 POP DUP4 GT ISZERO PUSH2 0x8AB JUMPI PUSH1 0x40 MLOAD PUSH3 0x461BCD PUSH1 0xE5 SHL DUP2 MSTORE PUSH1 0x20 PUSH1 0x4 DUP3 ADD MSTORE PUSH1 0x12 PUSH1 0x24 DUP3 ADD MSTORE PUSH18 0x1DDA5D1A191C985DCE881B9BDD0819DBDBD9 PUSH1 0x72 SHL PUSH1 0x44 DUP3 ADD MSTORE PUSH1 0x64 ADD PUSH2 0x47F JUMP JUMPDEST PUSH1 0x9 SLOAD PUSH1 0xFF AND PUSH2 0x8F3 JUMPI PUSH1 0x40 MLOAD PUSH3 0x461BCD PUSH1 0xE5 SHL DUP2 MSTORE PUSH1 0x20 PUSH1 0x4 DUP3 ADD MSTORE PUSH1 0x13 PUSH1 0x24 DUP3 ADD MSTORE PUSH19 0x1DDA5D1A191C985DC81B9BDD081BDC195B9959 PUSH1 0x6A SHL PUSH1 0x44 DUP3 ADD MSTORE PUSH1 0x64 ADD PUSH2 0x47F JUMP JUMPDEST PUSH2 0x8FC DUP5 PUSH2 0x9D0 JUMP JUMPDEST PUSH1 0x0 PUSH2 0x936 DUP3 PUSH1 0x1 ADD SLOAD PUSH2 0x930 PUSH5 0xE8D4A51000 PUSH2 0x92A DUP8 PUSH1 0x3 ADD SLOAD DUP8 PUSH1 0x0 ADD SLOAD PUSH2 0x110A SWAP1 SWAP2 SWAP1 PUSH4 0xFFFFFFFF AND JUMP JUMPDEST SWAP1 PUSH2 0x1116 JUMP JUMPDEST SWAP1 PUSH2 0x1122 JUMP JUMPDEST DUP3 SLOAD SWAP1 SWAP2 POP PUSH2 0x945 SWAP1 DUP6 PUSH2 0x1122 JUMP JUMPDEST DUP1 DUP4 SSTORE PUSH1 0x3 DUP5 ADD SLOAD PUSH2 0x962 SWAP2 PUSH5 0xE8D4A51000 SWAP2 PUSH2 0x92A SWAP2 SWAP1 PUSH2 0x110A JUMP JUMPDEST PUSH1 0x1 DUP4 ADD SSTORE DUP1 ISZERO PUSH2 0x977 JUMPI PUSH2 0x977 CALLER DUP3 PUSH2 0x112E JUMP JUMPDEST DUP3 SLOAD PUSH2 0x98D SWAP1 PUSH1 0x1 PUSH1 0x1 PUSH1 0xA0 SHL SUB AND CALLER DUP7 PUSH2 0x125C JUMP JUMPDEST PUSH1 0x40 MLOAD DUP5 DUP2 MSTORE DUP6 SWAP1 CALLER SWAP1 PUSH32 0xF279E6A1F5E320CCA91135676D9CB6E44CA8A08C0B88342BCDB1144F6511B568 SWAP1 PUSH1 0x20 ADD JUMPDEST PUSH1 0x40 MLOAD DUP1 SWAP2 SUB SWAP1 LOG3 POP POP PUSH1 0x1 DUP1 SSTORE POP POP POP JUMP JUMPDEST PUSH1 0x0 PUSH1 0x6 DUP3 DUP2 SLOAD DUP2 LT PUSH2 0x9E5 JUMPI PUSH2 0x9E5 PUSH2 0x1629 JUMP JUMPDEST SWAP1 PUSH1 0x0 MSTORE PUSH1 0x20 PUSH1 0x0 KECCAK256 SWAP1 PUSH1 0x4 MUL ADD SWAP1 POP DUP1 PUSH1 0x2 ADD SLOAD TIMESTAMP GT PUSH2 0xA04 JUMPI POP POP JUMP JUMPDEST DUP1 SLOAD PUSH1 0x40 MLOAD PUSH4 0x70A08231 PUSH1 0xE0 SHL DUP2 MSTORE ADDRESS PUSH1 0x4 DUP3 ADD MSTORE PUSH1 0x0 SWAP2 PUSH1 0x1 PUSH1 0x1 PUSH1 0xA0 SHL SUB AND SWAP1 PUSH4 0x70A08231 SWAP1 PUSH1 0x24 ADD PUSH1 0x20 PUSH1 0x40 MLOAD DUP1 DUP4 SUB DUP2 DUP7 GAS STATICCALL ISZERO DUP1 ISZERO PUSH2 0xA4C JUMPI RETURNDATASIZE PUSH1 0x0 DUP1 RETURNDATACOPY RETURNDATASIZE PUSH1 0x0 REVERT JUMPDEST POP POP POP POP PUSH1 0x40 MLOAD RETURNDATASIZE PUSH1 0x1F NOT PUSH1 0x1F DUP3 ADD AND DUP3 ADD DUP1 PUSH1 0x40 MSTORE POP DUP2 ADD SWAP1 PUSH2 0xA70 SWAP2 SWAP1 PUSH2 0x16DD JUMP JUMPDEST SWAP1 POP DUP1 PUSH2 0xA82 JUMPI POP TIMESTAMP PUSH1 0x2 SWAP1 SWAP2 ADD SSTORE POP JUMP JUMPDEST PUSH1 0x0 PUSH2 0xA92 DUP4 PUSH1 0x2 ADD SLOAD TIMESTAMP PUSH2 0xC63 JUMP JUMPDEST SWAP1 POP PUSH1 0x0 PUSH2 0xABF PUSH1 0x8 SLOAD PUSH2 0x92A DUP7 PUSH1 0x1 ADD SLOAD PUSH2 0xAB9 PUSH1 0x4 SLOAD DUP8 PUSH2 0x110A SWAP1 SWAP2 SWAP1 PUSH4 0xFFFFFFFF AND JUMP JUMPDEST SWAP1 PUSH2 0x110A JUMP JUMPDEST SWAP1 POP PUSH2 0xAE2 PUSH2 0xAD7 DUP5 PUSH2 0x92A DUP5 PUSH5 0xE8D4A51000 PUSH2 0x110A JUMP JUMPDEST PUSH1 0x3 DUP7 ADD SLOAD SWAP1 PUSH2 0x1054 JUMP JUMPDEST PUSH1 0x3 DUP6 ADD SSTORE POP POP TIMESTAMP PUSH1 0x2 SWAP1 SWAP3 ADD SWAP2 SWAP1 SWAP2 SSTORE POP POP JUMP JUMPDEST PUSH1 0x2 PUSH1 0x1 SLOAD EQ ISZERO PUSH2 0xB1A JUMPI PUSH1 0x40 MLOAD PUSH3 0x461BCD PUSH1 0xE5 SHL DUP2 MSTORE PUSH1 0x4 ADD PUSH2 0x47F SWAP1 PUSH2 0x16A6 JUMP JUMPDEST PUSH1 0x2 PUSH1 0x1 DUP2 SWAP1 SSTORE POP PUSH1 0x0 PUSH1 0x6 DUP3 DUP2 SLOAD DUP2 LT PUSH2 0xB37 JUMPI PUSH2 0xB37 PUSH2 0x1629 JUMP JUMPDEST PUSH1 0x0 SWAP2 DUP3 MSTORE PUSH1 0x20 DUP1 DUP4 KECCAK256 DUP6 DUP5 MSTORE PUSH1 0x7 DUP3 MSTORE PUSH1 0x40 DUP1 DUP6 KECCAK256 CALLER DUP1 DUP8 MSTORE SWAP4 MSTORE DUP5 KECCAK256 DUP1 SLOAD DUP6 DUP3 SSTORE PUSH1 0x1 DUP3 ADD SWAP6 SWAP1 SWAP6 SSTORE PUSH1 0x4 SWAP1 SWAP4 MUL ADD SWAP4 POP SWAP1 SWAP2 SWAP1 PUSH2 0xB95 SWAP1 PUSH2 0xB83 PUSH2 0x3E8 PUSH2 0x92A DUP6 PUSH2 0x2BC PUSH2 0x110A JUMP JUMPDEST DUP6 SLOAD PUSH1 0x1 PUSH1 0x1 PUSH1 0xA0 SHL SUB AND SWAP2 SWAP1 PUSH2 0x125C JUMP JUMPDEST PUSH2 0xBBC PUSH2 0xBAA PUSH1 0x0 SLOAD PUSH1 0x1 PUSH1 0x1 PUSH1 0xA0 SHL SUB AND SWAP1 JUMP JUMPDEST PUSH2 0xB83 PUSH2 0x3E8 PUSH2 0x92A DUP6 PUSH2 0x12C PUSH2 0x110A JUMP JUMPDEST PUSH1 0x40 MLOAD DUP2 DUP2 MSTORE DUP5 SWAP1 CALLER SWAP1 PUSH32 0xBB757047C2B5F3974FE26B7C10F732E7BCE710B0952A71082702781E62AE0595 SWAP1 PUSH1 0x20 ADD PUSH1 0x40 MLOAD DUP1 SWAP2 SUB SWAP1 LOG3 POP POP PUSH1 0x1 DUP1 SSTORE POP POP JUMP JUMPDEST PUSH1 0x6 SLOAD PUSH1 0x0 JUMPDEST DUP2 DUP2 LT ISZERO PUSH2 0x63E JUMPI PUSH2 0xC14 DUP2 PUSH2 0x9D0 JUMP JUMPDEST PUSH2 0xC1D DUP2 PUSH2 0x16F6 JUMP JUMPDEST SWAP1 POP PUSH2 0xC03 JUMP JUMPDEST PUSH2 0xC2C PUSH2 0xFFA JUMP JUMPDEST PUSH2 0xC36 PUSH1 0x0 PUSH2 0x12BF JUMP JUMPDEST JUMP JUMPDEST PUSH2 0xC40 PUSH2 0xFFA JUMP JUMPDEST PUSH1 0x9 DUP1 SLOAD PUSH1 0xFF NOT AND SWAP1 SSTORE JUMP JUMPDEST PUSH2 0xC54 PUSH2 0xFFA JUMP JUMPDEST PUSH1 0x9 DUP1 SLOAD PUSH1 0xFF NOT AND PUSH1 0x1 OR SWAP1 SSTORE JUMP JUMPDEST PUSH1 0x0 PUSH32 0x0 DUP4 GT PUSH2 0xCB2 JUMPI PUSH32 0x0 PUSH2 0xCB4 JUMP JUMPDEST DUP3 JUMPDEST SWAP3 POP PUSH32 0x0 DUP3 LT ISZERO PUSH2 0xCE6 JUMPI POP PUSH1 0x0 PUSH2 0xCF3 JUMP JUMPDEST PUSH2 0xCF0 DUP4 DUP4 PUSH2 0x1655 JUMP JUMPDEST SWAP1 POP JUMPDEST SWAP3 SWAP2 POP POP JUMP JUMPDEST PUSH1 0x0 DUP1 PUSH1 0x6 DUP5 DUP2 SLOAD DUP2 LT PUSH2 0xD0F JUMPI PUSH2 0xD0F PUSH2 0x1629 JUMP JUMPDEST PUSH1 0x0 SWAP2 DUP3 MSTORE PUSH1 0x20 DUP1 DUP4 KECCAK256 DUP8 DUP5 MSTORE PUSH1 0x7 DUP3 MSTORE PUSH1 0x40 DUP1 DUP6 KECCAK256 PUSH1 0x1 PUSH1 0x1 PUSH1 0xA0 SHL SUB DUP10 DUP2 AND DUP8 MSTORE SWAP4 MSTORE DUP1 DUP6 KECCAK256 PUSH1 0x4 SWAP5 DUP6 MUL SWAP1 SWAP3 ADD PUSH1 0x3 DUP2 ADD SLOAD DUP2 SLOAD SWAP3 MLOAD PUSH4 0x70A08231 PUSH1 0xE0 SHL DUP2 MSTORE ADDRESS SWAP7 DUP2 ADD SWAP7 SWAP1 SWAP7 MSTORE SWAP1 SWAP7 POP SWAP2 SWAP5 SWAP2 SWAP4 SWAP2 SWAP3 AND SWAP1 PUSH4 0x70A08231 SWAP1 PUSH1 0x24 ADD PUSH1 0x20 PUSH1 0x40 MLOAD DUP1 DUP4 SUB DUP2 DUP7 GAS STATICCALL ISZERO DUP1 ISZERO PUSH2 0xD8B JUMPI RETURNDATASIZE PUSH1 0x0 DUP1 RETURNDATACOPY RETURNDATASIZE PUSH1 0x0 REVERT JUMPDEST POP POP POP POP PUSH1 0x40 MLOAD RETURNDATASIZE PUSH1 0x1F NOT PUSH1 0x1F DUP3 ADD AND DUP3 ADD DUP1 PUSH1 0x40 MSTORE POP DUP2 ADD SWAP1 PUSH2 0xDAF SWAP2 SWAP1 PUSH2 0x16DD JUMP JUMPDEST SWAP1 POP DUP4 PUSH1 0x2 ADD SLOAD TIMESTAMP GT DUP1 ISZERO PUSH2 0xDC3 JUMPI POP DUP1 ISZERO ISZERO JUMPDEST ISZERO PUSH2 0xE23 JUMPI PUSH1 0x0 PUSH2 0xDD8 DUP6 PUSH1 0x2 ADD SLOAD TIMESTAMP PUSH2 0xC63 JUMP JUMPDEST SWAP1 POP PUSH1 0x0 PUSH2 0xDFF PUSH1 0x8 SLOAD PUSH2 0x92A DUP9 PUSH1 0x1 ADD SLOAD PUSH2 0xAB9 PUSH1 0x4 SLOAD DUP8 PUSH2 0x110A SWAP1 SWAP2 SWAP1 PUSH4 0xFFFFFFFF AND JUMP JUMPDEST SWAP1 POP PUSH2 0xE1E PUSH2 0xE17 DUP5 PUSH2 0x92A DUP5 PUSH5 0xE8D4A51000 PUSH2 0x110A JUMP JUMPDEST DUP6 SWAP1 PUSH2 0x1054 JUMP JUMPDEST SWAP4 POP POP POP JUMPDEST PUSH2 0xE4B DUP4 PUSH1 0x1 ADD SLOAD PUSH2 0x930 PUSH5 0xE8D4A51000 PUSH2 0x92A DUP7 DUP9 PUSH1 0x0 ADD SLOAD PUSH2 0x110A SWAP1 SWAP2 SWAP1 PUSH4 0xFFFFFFFF AND JUMP JUMPDEST SWAP8 SWAP7 POP POP POP POP POP POP POP JUMP JUMPDEST PUSH1 0x2 PUSH1 0x1 SLOAD EQ ISZERO PUSH2 0xE79 JUMPI PUSH1 0x40 MLOAD PUSH3 0x461BCD PUSH1 0xE5 SHL DUP2 MSTORE PUSH1 0x4 ADD PUSH2 0x47F SWAP1 PUSH2 0x16A6 JUMP JUMPDEST PUSH1 0x2 PUSH1 0x1 DUP2 SWAP1 SSTORE POP PUSH1 0x0 PUSH1 0x6 DUP4 DUP2 SLOAD DUP2 LT PUSH2 0xE96 JUMPI PUSH2 0xE96 PUSH2 0x1629 JUMP JUMPDEST PUSH1 0x0 SWAP2 DUP3 MSTORE PUSH1 0x20 DUP1 DUP4 KECCAK256 DUP7 DUP5 MSTORE PUSH1 0x7 DUP3 MSTORE PUSH1 0x40 DUP1 DUP6 KECCAK256 CALLER DUP7 MSTORE SWAP1 SWAP3 MSTORE SWAP3 KECCAK256 PUSH1 0x4 SWAP1 SWAP2 MUL SWAP1 SWAP2 ADD SWAP2 POP PUSH2 0xEC7 DUP5 PUSH2 0x9D0 JUMP JUMPDEST PUSH1 0x0 PUSH2 0xEF5 DUP3 PUSH1 0x1 ADD SLOAD PUSH2 0x930 PUSH5 0xE8D4A51000 PUSH2 0x92A DUP8 PUSH1 0x3 ADD SLOAD DUP8 PUSH1 0x0 ADD SLOAD PUSH2 0x110A SWAP1 SWAP2 SWAP1 PUSH4 0xFFFFFFFF AND JUMP JUMPDEST DUP3 SLOAD SWAP1 SWAP2 POP PUSH2 0xF04 SWAP1 DUP6 PUSH2 0x1054 JUMP JUMPDEST DUP1 DUP4 SSTORE PUSH1 0x3 DUP5 ADD SLOAD PUSH2 0xF21 SWAP2 PUSH5 0xE8D4A51000 SWAP2 PUSH2 0x92A SWAP2 SWAP1 PUSH2 0x110A JUMP JUMPDEST PUSH1 0x1 DUP4 ADD SSTORE DUP1 ISZERO PUSH2 0xF36 JUMPI PUSH2 0xF36 CALLER DUP3 PUSH2 0x112E JUMP JUMPDEST DUP3 SLOAD PUSH2 0xF4D SWAP1 PUSH1 0x1 PUSH1 0x1 PUSH1 0xA0 SHL SUB AND CALLER ADDRESS DUP8 PUSH2 0x130F JUMP JUMPDEST PUSH1 0x40 MLOAD DUP5 DUP2 MSTORE DUP6 SWAP1 CALLER SWAP1 PUSH32 0x90890809C654F11D6E72A28FA60149770A0D11EC6C92319D6CEB2BB0A4EA1A15 SWAP1 PUSH1 0x20 ADD PUSH2 0x9BD JUMP JUMPDEST PUSH2 0xF89 PUSH2 0xFFA JUMP JUMPDEST PUSH1 0x1 PUSH1 0x1 PUSH1 0xA0 SHL SUB DUP2 AND PUSH2 0xFEE JUMPI PUSH1 0x40 MLOAD PUSH3 0x461BCD PUSH1 0xE5 SHL DUP2 MSTORE PUSH1 0x20 PUSH1 0x4 DUP3 ADD MSTORE PUSH1 0x26 PUSH1 0x24 DUP3 ADD MSTORE PUSH32 0x4F776E61626C653A206E6577206F776E657220697320746865207A65726F2061 PUSH1 0x44 DUP3 ADD MSTORE PUSH6 0x646472657373 PUSH1 0xD0 SHL PUSH1 0x64 DUP3 ADD MSTORE PUSH1 0x84 ADD PUSH2 0x47F JUMP JUMPDEST PUSH2 0xFF7 DUP2 PUSH2 0x12BF JUMP JUMPDEST POP JUMP JUMPDEST PUSH1 0x0 SLOAD PUSH1 0x1 PUSH1 0x1 PUSH1 0xA0 SHL SUB AND CALLER EQ PUSH2 0xC36 JUMPI PUSH1 0x40 MLOAD PUSH3 0x461BCD PUSH1 0xE5 SHL DUP2 MSTORE PUSH1 0x20 PUSH1 0x4 DUP3 ADD DUP2 SWAP1 MSTORE PUSH1 0x24 DUP3 ADD MSTORE PUSH32 0x4F776E61626C653A2063616C6C6572206973206E6F7420746865206F776E6572 PUSH1 0x44 DUP3 ADD MSTORE PUSH1 0x64 ADD PUSH2 0x47F JUMP JUMPDEST PUSH1 0x0 PUSH2 0xCF0 DUP3 DUP5 PUSH2 0x166C JUMP JUMPDEST PUSH1 0x6 SLOAD PUSH1 0x0 JUMPDEST DUP2 DUP2 LT ISZERO PUSH2 0x1105 JUMPI DUP3 PUSH1 0x1 PUSH1 0x1 PUSH1 0xA0 SHL SUB AND PUSH1 0x6 DUP3 DUP2 SLOAD DUP2 LT PUSH2 0x108B JUMPI PUSH2 0x108B PUSH2 0x1629 JUMP JUMPDEST PUSH1 0x0 SWAP2 DUP3 MSTORE PUSH1 0x20 SWAP1 SWAP2 KECCAK256 PUSH1 0x4 SWAP1 SWAP2 MUL ADD SLOAD PUSH1 0x1 PUSH1 0x1 PUSH1 0xA0 SHL SUB AND EQ ISZERO PUSH2 0x10F3 JUMPI PUSH1 0x40 MLOAD PUSH3 0x461BCD PUSH1 0xE5 SHL DUP2 MSTORE PUSH1 0x20 PUSH1 0x4 DUP3 ADD MSTORE PUSH1 0x1C PUSH1 0x24 DUP3 ADD MSTORE PUSH32 0x6164643A20706F6F6C20616C7265616479206578697374732121212100000000 PUSH1 0x44 DUP3 ADD MSTORE PUSH1 0x64 ADD PUSH2 0x47F JUMP JUMPDEST DUP1 PUSH2 0x10FD DUP2 PUSH2 0x16F6 JUMP JUMPDEST SWAP2 POP POP PUSH2 0x1066 JUMP JUMPDEST POP POP POP JUMP JUMPDEST PUSH1 0x0 PUSH2 0xCF0 DUP3 DUP5 PUSH2 0x1711 JUMP JUMPDEST PUSH1 0x0 PUSH2 0xCF0 DUP3 DUP5 PUSH2 0x1730 JUMP JUMPDEST PUSH1 0x0 PUSH2 0xCF0 DUP3 DUP5 PUSH2 0x1655 JUMP JUMPDEST PUSH1 0x2 SLOAD PUSH1 0x40 MLOAD PUSH4 0x70A08231 PUSH1 0xE0 SHL DUP2 MSTORE ADDRESS PUSH1 0x4 DUP3 ADD MSTORE PUSH1 0x0 SWAP2 PUSH1 0x1 PUSH1 0x1 PUSH1 0xA0 SHL SUB AND SWAP1 PUSH4 0x70A08231 SWAP1 PUSH1 0x24 ADD PUSH1 0x20 PUSH1 0x40 MLOAD DUP1 DUP4 SUB DUP2 DUP7 GAS STATICCALL ISZERO DUP1 ISZERO PUSH2 0x1177 JUMPI RETURNDATASIZE PUSH1 0x0 DUP1 RETURNDATACOPY RETURNDATASIZE PUSH1 0x0 REVERT JUMPDEST POP POP POP POP PUSH1 0x40 MLOAD RETURNDATASIZE PUSH1 0x1F NOT PUSH1 0x1F DUP3 ADD AND DUP3 ADD DUP1 PUSH1 0x40 MSTORE POP DUP2 ADD SWAP1 PUSH2 0x119B SWAP2 SWAP1 PUSH2 0x16DD JUMP JUMPDEST SWAP1 POP DUP1 DUP3 GT ISZERO PUSH2 0x1223 JUMPI PUSH1 0x2 SLOAD PUSH1 0x40 MLOAD PUSH4 0xA9059CBB PUSH1 0xE0 SHL DUP2 MSTORE PUSH1 0x1 PUSH1 0x1 PUSH1 0xA0 SHL SUB DUP6 DUP2 AND PUSH1 0x4 DUP4 ADD MSTORE PUSH1 0x24 DUP3 ADD DUP5 SWAP1 MSTORE SWAP1 SWAP2 AND SWAP1 PUSH4 0xA9059CBB SWAP1 PUSH1 0x44 ADD JUMPDEST PUSH1 0x20 PUSH1 0x40 MLOAD DUP1 DUP4 SUB DUP2 PUSH1 0x0 DUP8 GAS CALL ISZERO DUP1 ISZERO PUSH2 0x11F9 JUMPI RETURNDATASIZE PUSH1 0x0 DUP1 RETURNDATACOPY RETURNDATASIZE PUSH1 0x0 REVERT JUMPDEST POP POP POP POP PUSH1 0x40 MLOAD RETURNDATASIZE PUSH1 0x1F NOT PUSH1 0x1F DUP3 ADD AND DUP3 ADD DUP1 PUSH1 0x40 MSTORE POP DUP2 ADD SWAP1 PUSH2 0x121D SWAP2 SWAP1 PUSH2 0x1684 JUMP JUMPDEST POP POP POP POP JUMP JUMPDEST PUSH1 0x2 SLOAD PUSH1 0x40 MLOAD PUSH4 0xA9059CBB PUSH1 0xE0 SHL DUP2 MSTORE PUSH1 0x1 PUSH1 0x1 PUSH1 0xA0 SHL SUB DUP6 DUP2 AND PUSH1 0x4 DUP4 ADD MSTORE PUSH1 0x24 DUP3 ADD DUP6 SWAP1 MSTORE SWAP1 SWAP2 AND SWAP1 PUSH4 0xA9059CBB SWAP1 PUSH1 0x44 ADD PUSH2 0x11DA JUMP JUMPDEST PUSH1 0x40 MLOAD PUSH1 0x1 PUSH1 0x1 PUSH1 0xA0 SHL SUB DUP4 AND PUSH1 0x24 DUP3 ADD MSTORE PUSH1 0x44 DUP2 ADD DUP3 SWAP1 MSTORE PUSH2 0x1105 SWAP1 DUP5 SWAP1 PUSH4 0xA9059CBB PUSH1 0xE0 SHL SWAP1 PUSH1 0x64 ADD JUMPDEST PUSH1 0x40 DUP1 MLOAD PUSH1 0x1F NOT DUP2 DUP5 SUB ADD DUP2 MSTORE SWAP2 SWAP1 MSTORE PUSH1 0x20 DUP2 ADD DUP1 MLOAD PUSH1 0x1 PUSH1 0x1 PUSH1 0xE0 SHL SUB AND PUSH1 0x1 PUSH1 0x1 PUSH1 0xE0 SHL SUB NOT SWAP1 SWAP4 AND SWAP3 SWAP1 SWAP3 OR SWAP1 SWAP2 MSTORE PUSH2 0x1347 JUMP JUMPDEST PUSH1 0x0 DUP1 SLOAD PUSH1 0x1 PUSH1 0x1 PUSH1 0xA0 SHL SUB DUP4 DUP2 AND PUSH1 0x1 PUSH1 0x1 PUSH1 0xA0 SHL SUB NOT DUP4 AND DUP2 OR DUP5 SSTORE PUSH1 0x40 MLOAD SWAP2 SWAP1 SWAP3 AND SWAP3 DUP4 SWAP2 PUSH32 0x8BE0079C531659141344CD1FD0A4F28419497F9722A3DAAFE3B4186F6B6457E0 SWAP2 SWAP1 LOG3 POP POP JUMP JUMPDEST PUSH1 0x40 MLOAD PUSH1 0x1 PUSH1 0x1 PUSH1 0xA0 SHL SUB DUP1 DUP6 AND PUSH1 0x24 DUP4 ADD MSTORE DUP4 AND PUSH1 0x44 DUP3 ADD MSTORE PUSH1 0x64 DUP2 ADD DUP3 SWAP1 MSTORE PUSH2 0x121D SWAP1 DUP6 SWAP1 PUSH4 0x23B872DD PUSH1 0xE0 SHL SWAP1 PUSH1 0x84 ADD PUSH2 0x1288 JUMP JUMPDEST PUSH1 0x0 PUSH2 0x139C DUP3 PUSH1 0x40 MLOAD DUP1 PUSH1 0x40 ADD PUSH1 0x40 MSTORE DUP1 PUSH1 0x20 DUP2 MSTORE PUSH1 0x20 ADD PUSH32 0x5361666545524332303A206C6F772D6C6576656C2063616C6C206661696C6564 DUP2 MSTORE POP DUP6 PUSH1 0x1 PUSH1 0x1 PUSH1 0xA0 SHL SUB AND PUSH2 0x1419 SWAP1 SWAP3 SWAP2 SWAP1 PUSH4 0xFFFFFFFF AND JUMP JUMPDEST DUP1 MLOAD SWAP1 SWAP2 POP ISZERO PUSH2 0x1105 JUMPI DUP1 DUP1 PUSH1 0x20 ADD SWAP1 MLOAD DUP2 ADD SWAP1 PUSH2 0x13BA SWAP2 SWAP1 PUSH2 0x1684 JUMP JUMPDEST PUSH2 0x1105 JUMPI PUSH1 0x40 MLOAD PUSH3 0x461BCD PUSH1 0xE5 SHL DUP2 MSTORE PUSH1 0x20 PUSH1 0x4 DUP3 ADD MSTORE PUSH1 0x2A PUSH1 0x24 DUP3 ADD MSTORE PUSH32 0x5361666545524332303A204552433230206F7065726174696F6E20646964206E PUSH1 0x44 DUP3 ADD MSTORE PUSH10 0x1BDD081CDD58D8D95959 PUSH1 0xB2 SHL PUSH1 0x64 DUP3 ADD MSTORE PUSH1 0x84 ADD PUSH2 0x47F JUMP JUMPDEST PUSH1 0x60 PUSH2 0x1428 DUP5 DUP5 PUSH1 0x0 DUP6 PUSH2 0x1432 JUMP JUMPDEST SWAP1 POP JUMPDEST SWAP4 SWAP3 POP POP POP JUMP JUMPDEST PUSH1 0x60 DUP3 SELFBALANCE LT ISZERO PUSH2 0x1493 JUMPI PUSH1 0x40 MLOAD PUSH3 0x461BCD PUSH1 0xE5 SHL DUP2 MSTORE PUSH1 0x20 PUSH1 0x4 DUP3 ADD MSTORE PUSH1 0x26 PUSH1 0x24 DUP3 ADD MSTORE PUSH32 0x416464726573733A20696E73756666696369656E742062616C616E636520666F PUSH1 0x44 DUP3 ADD MSTORE PUSH6 0x1C8818D85B1B PUSH1 0xD2 SHL PUSH1 0x64 DUP3 ADD MSTORE PUSH1 0x84 ADD PUSH2 0x47F JUMP JUMPDEST PUSH1 0x1 PUSH1 0x1 PUSH1 0xA0 SHL SUB DUP6 AND EXTCODESIZE PUSH2 0x14EA JUMPI PUSH1 0x40 MLOAD PUSH3 0x461BCD PUSH1 0xE5 SHL DUP2 MSTORE PUSH1 0x20 PUSH1 0x4 DUP3 ADD MSTORE PUSH1 0x1D PUSH1 0x24 DUP3 ADD MSTORE PUSH32 0x416464726573733A2063616C6C20746F206E6F6E2D636F6E7472616374000000 PUSH1 0x44 DUP3 ADD MSTORE PUSH1 0x64 ADD PUSH2 0x47F JUMP JUMPDEST PUSH1 0x0 DUP1 DUP7 PUSH1 0x1 PUSH1 0x1 PUSH1 0xA0 SHL SUB AND DUP6 DUP8 PUSH1 0x40 MLOAD PUSH2 0x1506 SWAP2 SWAP1 PUSH2 0x177E JUMP JUMPDEST PUSH1 0x0 PUSH1 0x40 MLOAD DUP1 DUP4 SUB DUP2 DUP6 DUP8 GAS CALL SWAP3 POP POP POP RETURNDATASIZE DUP1 PUSH1 0x0 DUP2 EQ PUSH2 0x1543 JUMPI PUSH1 0x40 MLOAD SWAP2 POP PUSH1 0x1F NOT PUSH1 0x3F RETURNDATASIZE ADD AND DUP3 ADD PUSH1 0x40 MSTORE RETURNDATASIZE DUP3 MSTORE RETURNDATASIZE PUSH1 0x0 PUSH1 0x20 DUP5 ADD RETURNDATACOPY PUSH2 0x1548 JUMP JUMPDEST PUSH1 0x60 SWAP2 POP JUMPDEST POP SWAP2 POP SWAP2 POP PUSH2 0xE4B DUP3 DUP3 DUP7 PUSH1 0x60 DUP4 ISZERO PUSH2 0x1562 JUMPI POP DUP2 PUSH2 0x142B JUMP JUMPDEST DUP3 MLOAD ISZERO PUSH2 0x1572 JUMPI DUP3 MLOAD DUP1 DUP5 PUSH1 0x20 ADD REVERT JUMPDEST DUP2 PUSH1 0x40 MLOAD PUSH3 0x461BCD PUSH1 0xE5 SHL DUP2 MSTORE PUSH1 0x4 ADD PUSH2 0x47F SWAP2 SWAP1 PUSH2 0x179A JUMP JUMPDEST PUSH1 0x0 PUSH1 0x20 DUP3 DUP5 SUB SLT ISZERO PUSH2 0x159E JUMPI PUSH1 0x0 DUP1 REVERT JUMPDEST POP CALLDATALOAD SWAP2 SWAP1 POP JUMP JUMPDEST PUSH1 0x0 DUP1 PUSH1 0x40 DUP4 DUP6 SUB SLT ISZERO PUSH2 0x15B8 JUMPI PUSH1 0x0 DUP1 REVERT JUMPDEST POP POP DUP1 CALLDATALOAD SWAP3 PUSH1 0x20 SWAP1 SWAP2 ADD CALLDATALOAD SWAP2 POP JUMP JUMPDEST PUSH1 0x1 PUSH1 0x1 PUSH1 0xA0 SHL SUB DUP2 AND DUP2 EQ PUSH2 0xFF7 JUMPI PUSH1 0x0 DUP1 REVERT JUMPDEST PUSH1 0x0 DUP1 PUSH1 0x40 DUP4 DUP6 SUB SLT ISZERO PUSH2 0x15EF JUMPI PUSH1 0x0 DUP1 REVERT JUMPDEST DUP3 CALLDATALOAD SWAP2 POP PUSH1 0x20 DUP4 ADD CALLDATALOAD PUSH2 0x1601 DUP2 PUSH2 0x15C7 JUMP JUMPDEST DUP1 SWAP2 POP POP SWAP3 POP SWAP3 SWAP1 POP JUMP JUMPDEST PUSH1 0x0 PUSH1 0x20 DUP3 DUP5 SUB SLT ISZERO PUSH2 0x161E JUMPI PUSH1 0x0 DUP1 REVERT JUMPDEST DUP2 CALLDATALOAD PUSH2 0x142B DUP2 PUSH2 0x15C7 JUMP JUMPDEST PUSH4 0x4E487B71 PUSH1 0xE0 SHL PUSH1 0x0 MSTORE PUSH1 0x32 PUSH1 0x4 MSTORE PUSH1 0x24 PUSH1 0x0 REVERT JUMPDEST PUSH4 0x4E487B71 PUSH1 0xE0 SHL PUSH1 0x0 MSTORE PUSH1 0x11 PUSH1 0x4 MSTORE PUSH1 0x24 PUSH1 0x0 REVERT JUMPDEST PUSH1 0x0 DUP3 DUP3 LT ISZERO PUSH2 0x1667 JUMPI PUSH2 0x1667 PUSH2 0x163F JUMP JUMPDEST POP SUB SWAP1 JUMP JUMPDEST PUSH1 0x0 DUP3 NOT DUP3 GT ISZERO PUSH2 0x167F JUMPI PUSH2 0x167F PUSH2 0x163F JUMP JUMPDEST POP ADD SWAP1 JUMP JUMPDEST PUSH1 0x0 PUSH1 0x20 DUP3 DUP5 SUB SLT ISZERO PUSH2 0x1696 JUMPI PUSH1 0x0 DUP1 REVERT JUMPDEST DUP2 MLOAD DUP1 ISZERO ISZERO DUP2 EQ PUSH2 0x142B JUMPI PUSH1 0x0 DUP1 REVERT JUMPDEST PUSH1 0x20 DUP1 DUP3 MSTORE PUSH1 0x1F SWAP1 DUP3 ADD MSTORE PUSH32 0x5265656E7472616E637947756172643A207265656E7472616E742063616C6C00 PUSH1 0x40 DUP3 ADD MSTORE PUSH1 0x60 ADD SWAP1 JUMP JUMPDEST PUSH1 0x0 PUSH1 0x20 DUP3 DUP5 SUB SLT ISZERO PUSH2 0x16EF JUMPI PUSH1 0x0 DUP1 REVERT JUMPDEST POP MLOAD SWAP2 SWAP1 POP JUMP JUMPDEST PUSH1 0x0 PUSH1 0x0 NOT DUP3 EQ ISZERO PUSH2 0x170A JUMPI PUSH2 0x170A PUSH2 0x163F JUMP JUMPDEST POP PUSH1 0x1 ADD SWAP1 JUMP JUMPDEST PUSH1 0x0 DUP2 PUSH1 0x0 NOT DIV DUP4 GT DUP3 ISZERO ISZERO AND ISZERO PUSH2 0x172B JUMPI PUSH2 0x172B PUSH2 0x163F JUMP JUMPDEST POP MUL SWAP1 JUMP JUMPDEST PUSH1 0x0 DUP3 PUSH2 0x174D JUMPI PUSH4 0x4E487B71 PUSH1 0xE0 SHL PUSH1 0x0 MSTORE PUSH1 0x12 PUSH1 0x4 MSTORE PUSH1 0x24 PUSH1 0x0 REVERT JUMPDEST POP DIV SWAP1 JUMP JUMPDEST PUSH1 0x0 JUMPDEST DUP4 DUP2 LT ISZERO PUSH2 0x176D JUMPI DUP2 DUP2 ADD MLOAD DUP4 DUP3 ADD MSTORE PUSH1 0x20 ADD PUSH2 0x1755 JUMP JUMPDEST DUP4 DUP2 GT ISZERO PUSH2 0x121D JUMPI POP POP PUSH1 0x0 SWAP2 ADD MSTORE JUMP JUMPDEST PUSH1 0x0 DUP3 MLOAD PUSH2 0x1790 DUP2 DUP5 PUSH1 0x20 DUP8 ADD PUSH2 0x1752 JUMP JUMPDEST SWAP2 SWAP1 SWAP2 ADD SWAP3 SWAP2 POP POP JUMP JUMPDEST PUSH1 0x20 DUP2 MSTORE PUSH1 0x0 DUP3 MLOAD DUP1 PUSH1 0x20 DUP5 ADD MSTORE PUSH2 0x17B9 DUP2 PUSH1 0x40 DUP6 ADD PUSH1 0x20 DUP8 ADD PUSH2 0x1752 JUMP JUMPDEST PUSH1 0x1F ADD PUSH1 0x1F NOT AND SWAP2 SWAP1 SWAP2 ADD PUSH1 0x40 ADD SWAP3 SWAP2 POP POP JUMP INVALID LOG2 PUSH5 0x6970667358 0x22 SLT KECCAK256 PUSH1 0x87 GASLIMIT CREATE2 0xE3 0x4F AND PUSH8 0xF67B3B4D47CE1317 0xED 0xCC PUSH18 0x5AB6AA394D8BD275AC968B4E7C64736F6C63 NUMBER STOP ADDMOD 0xC STOP CALLER "
				},
				"gasEstimates": {
					"creation": {
						"codeDepositCost": "1229400",
						"executionCost": "infinite",
						"totalCost": "infinite"
					},
					"external": {
						"MaxAllocPoint()": "294",
						"WETH()": "2404",
						"WETHPerSecond()": "2330",
						"add(uint256,address)": "infinite",
						"closeWithdraw()": "26594",
						"deposit(uint256,uint256)": "infinite",
						"devaddr()": "2381",
						"emergencyWithdraw(uint256)": "infinite",
						"getMultiplier(uint256,uint256)": "infinite",
						"massUpdatePools()": "infinite",
						"maxWETHPerSecond()": "273",
						"openWithdraw()": "26622",
						"owner()": "2365",
						"pendingWETH(uint256,address)": "infinite",
						"poolInfo(uint256)": "11121",
						"poolLength()": "2339",
						"renounceOwnership()": "infinite",
						"set(uint256,uint256)": "infinite",
						"setWETHPerSecond(uint256)": "infinite",
						"startTime()": "infinite",
						"supplyRewards(uint256)": "infinite",
						"totalAllocPoint()": "2330",
						"totalWETHdistributed()": "2373",
						"transferOwnership(address)": "infinite",
						"updatePool(uint256)": "infinite",
						"userInfo(uint256,address)": "4866",
						"withdraw(uint256,uint256)": "infinite",
						"withdrawable()": "2400"
					},
					"internal": {
						"checkForDuplicate(contract IERC20)": "infinite",
						"safeWETHTransfer(address,uint256)": "infinite"
					}
				},
				"methodIdentifiers": {
					"MaxAllocPoint()": "f4b83c4c",
					"WETH()": "ad5c4648",
					"WETHPerSecond()": "41249061",
					"add(uint256,address)": "2b8bbbe8",
					"closeWithdraw()": "7b020dad",
					"deposit(uint256,uint256)": "e2bbb158",
					"devaddr()": "d49e77cd",
					"emergencyWithdraw(uint256)": "5312ea8e",
					"getMultiplier(uint256,uint256)": "8dbb1e3a",
					"massUpdatePools()": "630b5ba1",
					"maxWETHPerSecond()": "9112f2b2",
					"openWithdraw()": "845105e2",
					"owner()": "8da5cb5b",
					"pendingWETH(uint256,address)": "9bd16d7b",
					"poolInfo(uint256)": "1526fe27",
					"poolLength()": "081e3eda",
					"renounceOwnership()": "715018a6",
					"set(uint256,uint256)": "1ab06ee5",
					"setWETHPerSecond(uint256)": "0332e936",
					"startTime()": "78e97925",
					"supplyRewards(uint256)": "2377b2a8",
					"totalAllocPoint()": "17caf6f1",
					"totalWETHdistributed()": "b9ac9686",
					"transferOwnership(address)": "f2fde38b",
					"updatePool(uint256)": "51eb05a6",
					"userInfo(uint256,address)": "93f1a40b",
					"withdraw(uint256,uint256)": "441a3e70",
					"withdrawable()": "50188301"
				}
			},
			"storageLayout": {
				"storage": [
					{
						"astId": 7,
						"contract": "contracts/final/GMDstaking.sol:GMDstaking",
						"label": "_owner",
						"offset": 0,
						"slot": "0",
						"type": "t_address"
					},
					{
						"astId": 123,
						"contract": "contracts/final/GMDstaking.sol:GMDstaking",
						"label": "_status",
						"offset": 0,
						"slot": "1",
						"type": "t_uint256"
					},
					{
						"astId": 1215,
						"contract": "contracts/final/GMDstaking.sol:GMDstaking",
						"label": "WETH",
						"offset": 0,
						"slot": "2",
						"type": "t_contract(IERC20)230"
					},
					{
						"astId": 1217,
						"contract": "contracts/final/GMDstaking.sol:GMDstaking",
						"label": "devaddr",
						"offset": 0,
						"slot": "3",
						"type": "t_address"
					},
					{
						"astId": 1219,
						"contract": "contracts/final/GMDstaking.sol:GMDstaking",
						"label": "WETHPerSecond",
						"offset": 0,
						"slot": "4",
						"type": "t_uint256"
					},
					{
						"astId": 1222,
						"contract": "contracts/final/GMDstaking.sol:GMDstaking",
						"label": "totalWETHdistributed",
						"offset": 0,
						"slot": "5",
						"type": "t_uint256"
					},
					{
						"astId": 1232,
						"contract": "contracts/final/GMDstaking.sol:GMDstaking",
						"label": "poolInfo",
						"offset": 0,
						"slot": "6",
						"type": "t_array(t_struct(PoolInfo)1209_storage)dyn_storage"
					},
					{
						"astId": 1239,
						"contract": "contracts/final/GMDstaking.sol:GMDstaking",
						"label": "userInfo",
						"offset": 0,
						"slot": "7",
						"type": "t_mapping(t_uint256,t_mapping(t_address,t_struct(UserInfo)1199_storage))"
					},
					{
						"astId": 1242,
						"contract": "contracts/final/GMDstaking.sol:GMDstaking",
						"label": "totalAllocPoint",
						"offset": 0,
						"slot": "8",
						"type": "t_uint256"
					},
					{
						"astId": 1247,
						"contract": "contracts/final/GMDstaking.sol:GMDstaking",
						"label": "withdrawable",
						"offset": 0,
						"slot": "9",
						"type": "t_bool"
					}
				],
				"types": {
					"t_address": {
						"encoding": "inplace",
						"label": "address",
						"numberOfBytes": "20"
					},
					"t_array(t_struct(PoolInfo)1209_storage)dyn_storage": {
						"base": "t_struct(PoolInfo)1209_storage",
						"encoding": "dynamic_array",
						"label": "struct GMDstaking.PoolInfo[]",
						"numberOfBytes": "32"
					},
					"t_bool": {
						"encoding": "inplace",
						"label": "bool",
						"numberOfBytes": "1"
					},
					"t_contract(IERC20)230": {
						"encoding": "inplace",
						"label": "contract IERC20",
						"numberOfBytes": "20"
					},
					"t_mapping(t_address,t_struct(UserInfo)1199_storage)": {
						"encoding": "mapping",
						"key": "t_address",
						"label": "mapping(address => struct GMDstaking.UserInfo)",
						"numberOfBytes": "32",
						"value": "t_struct(UserInfo)1199_storage"
					},
					"t_mapping(t_uint256,t_mapping(t_address,t_struct(UserInfo)1199_storage))": {
						"encoding": "mapping",
						"key": "t_uint256",
						"label": "mapping(uint256 => mapping(address => struct GMDstaking.UserInfo))",
						"numberOfBytes": "32",
						"value": "t_mapping(t_address,t_struct(UserInfo)1199_storage)"
					},
					"t_struct(PoolInfo)1209_storage": {
						"encoding": "inplace",
						"label": "struct GMDstaking.PoolInfo",
						"members": [
							{
								"astId": 1202,
								"contract": "contracts/final/GMDstaking.sol:GMDstaking",
								"label": "lpToken",
								"offset": 0,
								"slot": "0",
								"type": "t_contract(IERC20)230"
							},
							{
								"astId": 1204,
								"contract": "contracts/final/GMDstaking.sol:GMDstaking",
								"label": "allocPoint",
								"offset": 0,
								"slot": "1",
								"type": "t_uint256"
							},
							{
								"astId": 1206,
								"contract": "contracts/final/GMDstaking.sol:GMDstaking",
								"label": "lastRewardTime",
								"offset": 0,
								"slot": "2",
								"type": "t_uint256"
							},
							{
								"astId": 1208,
								"contract": "contracts/final/GMDstaking.sol:GMDstaking",
								"label": "accWETHPerShare",
								"offset": 0,
								"slot": "3",
								"type": "t_uint256"
							}
						],
						"numberOfBytes": "128"
					},
					"t_struct(UserInfo)1199_storage": {
						"encoding": "inplace",
						"label": "struct GMDstaking.UserInfo",
						"members": [
							{
								"astId": 1196,
								"contract": "contracts/final/GMDstaking.sol:GMDstaking",
								"label": "amount",
								"offset": 0,
								"slot": "0",
								"type": "t_uint256"
							},
							{
								"astId": 1198,
								"contract": "contracts/final/GMDstaking.sol:GMDstaking",
								"label": "rewardDebt",
								"offset": 0,
								"slot": "1",
								"type": "t_uint256"
							}
						],
						"numberOfBytes": "64"
					},
					"t_uint256": {
						"encoding": "inplace",
						"label": "uint256",
						"numberOfBytes": "32"
					}
				}
			},
			"userdoc": {
				"kind": "user",
				"methods": {},
				"version": 1
			}
		}
	}
}