{
	"gmdBTC_flat.sol": {
		"gmdBTC": {
			"abi": [
				{
					"anonymous": false,
					"inputs": [
						{
							"indexed": true,
							"internalType": "address",
							"name": "owner",
							"type": "address"
						},
						{
							"indexed": true,
							"internalType": "address",
							"name": "spender",
							"type": "address"
						},
						{
							"indexed": false,
							"internalType": "uint256",
							"name": "value",
							"type": "uint256"
						}
					],
					"name": "Approval",
					"type": "event"
				},
				{
					"anonymous": false,
					"inputs": [
						{
							"indexed": true,
							"internalType": "address",
							"name": "previousOwner",
							"type": "address"
						},
						{
							"indexed": true,
							"internalType": "address",
							"name": "newOwner",
							"type": "address"
						}
					],
					"name": "OwnershipTransferred",
					"type": "event"
				},
				{
					"anonymous": false,
					"inputs": [
						{
							"indexed": true,
							"internalType": "address",
							"name": "from",
							"type": "address"
						},
						{
							"indexed": true,
							"internalType": "address",
							"name": "to",
							"type": "address"
						},
						{
							"indexed": false,
							"internalType": "uint256",
							"name": "value",
							"type": "uint256"
						}
					],
					"name": "Transfer",
					"type": "event"
				},
				{
					"inputs": [
						{
							"internalType": "address",
							"name": "owner",
							"type": "address"
						},
						{
							"internalType": "address",
							"name": "spender",
							"type": "address"
						}
					],
					"name": "allowance",
					"outputs": [
						{
							"internalType": "uint256",
							"name": "",
							"type": "uint256"
						}
					],
					"stateMutability": "view",
					"type": "function"
				},
				{
					"inputs": [
						{
							"internalType": "address",
							"name": "spender",
							"type": "address"
						},
						{
							"internalType": "uint256",
							"name": "amount",
							"type": "uint256"
						}
					],
					"name": "approve",
					"outputs": [
						{
							"internalType": "bool",
							"name": "",
							"type": "bool"
						}
					],
					"stateMutability": "nonpayable",
					"type": "function"
				},
				{
					"inputs": [
						{
							"internalType": "address",
							"name": "account",
							"type": "address"
						}
					],
					"name": "balanceOf",
					"outputs": [
						{
							"internalType": "uint256",
							"name": "",
							"type": "uint256"
						}
					],
					"stateMutability": "view",
					"type": "function"
				},
				{
					"inputs": [
						{
							"internalType": "address",
							"name": "_from",
							"type": "address"
						},
						{
							"internalType": "uint256",
							"name": "_amount",
							"type": "uint256"
						}
					],
					"name": "burn",
					"outputs": [],
					"stateMutability": "nonpayable",
					"type": "function"
				},
				{
					"inputs": [],
					"name": "decimals",
					"outputs": [
						{
							"internalType": "uint8",
							"name": "",
							"type": "uint8"
						}
					],
					"stateMutability": "view",
					"type": "function"
				},
				{
					"inputs": [
						{
							"internalType": "address",
							"name": "spender",
							"type": "address"
						},
						{
							"internalType": "uint256",
							"name": "subtractedValue",
							"type": "uint256"
						}
					],
					"name": "decreaseAllowance",
					"outputs": [
						{
							"internalType": "bool",
							"name": "",
							"type": "bool"
						}
					],
					"stateMutability": "nonpayable",
					"type": "function"
				},
				{
					"inputs": [
						{
							"internalType": "address",
							"name": "spender",
							"type": "address"
						},
						{
							"internalType": "uint256",
							"name": "addedValue",
							"type": "uint256"
						}
					],
					"name": "increaseAllowance",
					"outputs": [
						{
							"internalType": "bool",
							"name": "",
							"type": "bool"
						}
					],
					"stateMutability": "nonpayable",
					"type": "function"
				},
				{
					"inputs": [
						{
							"internalType": "address",
							"name": "recipient",
							"type": "address"
						},
						{
							"internalType": "uint256",
							"name": "_amount",
							"type": "uint256"
						}
					],
					"name": "mint",
					"outputs": [],
					"stateMutability": "nonpayable",
					"type": "function"
				},
				{
					"inputs": [],
					"name": "name",
					"outputs": [
						{
							"internalType": "string",
							"name": "",
							"type": "string"
						}
					],
					"stateMutability": "view",
					"type": "function"
				},
				{
					"inputs": [],
					"name": "owner",
					"outputs": [
						{
							"internalType": "address",
							"name": "",
							"type": "address"
						}
					],
					"stateMutability": "view",
					"type": "function"
				},
				{
					"inputs": [],
					"name": "renounceOwnership",
					"outputs": [],
					"stateMutability": "nonpayable",
					"type": "function"
				},
				{
					"inputs": [],
					"name": "symbol",
					"outputs": [
						{
							"internalType": "string",
							"name": "",
							"type": "string"
						}
					],
					"stateMutability": "view",
					"type": "function"
				},
				{
					"inputs": [],
					"name": "totalSupply",
					"outputs": [
						{
							"internalType": "uint256",
							"name": "",
							"type": "uint256"
						}
					],
					"stateMutability": "view",
					"type": "function"
				},
				{
					"inputs": [
						{
							"internalType": "address",
							"name": "to",
							"type": "address"
						},
						{
							"internalType": "uint256",
							"name": "amount",
							"type": "uint256"
						}
					],
					"name": "transfer",
					"outputs": [
						{
							"internalType": "bool",
							"name": "",
							"type": "bool"
						}
					],
					"stateMutability": "nonpayable",
					"type": "function"
				},
				{
					"inputs": [
						{
							"internalType": "address",
							"name": "from",
							"type": "address"
						},
						{
							"internalType": "address",
							"name": "to",
							"type": "address"
						},
						{
							"internalType": "uint256",
							"name": "amount",
							"type": "uint256"
						}
					],
					"name": "transferFrom",
					"outputs": [
						{
							"internalType": "bool",
							"name": "",
							"type": "bool"
						}
					],
					"stateMutability": "nonpayable",
					"type": "function"
				},
				{
					"inputs": [
						{
							"internalType": "address",
							"name": "newOwner",
							"type": "address"
						}
					],
					"name": "transferOwnership",
					"outputs": [],
					"stateMutability": "nonpayable",
					"type": "function"
				}
			],
			"devdoc": {
				"kind": "dev",
				"methods": {
					"allowance(address,address)": {
						"details": "See {IERC20-allowance}."
					},
					"approve(address,uint256)": {
						"details": "See {IERC20-approve}. NOTE: If `amount` is the maximum `uint256`, the allowance is not updated on `transferFrom`. This is semantically equivalent to an infinite approval. Requirements: - `spender` cannot be the zero address."
					},
					"balanceOf(address)": {
						"details": "See {IERC20-balanceOf}."
					},
					"decimals()": {
						"details": "Returns the number of decimals used to get its user representation. For example, if `decimals` equals `2`, a balance of `505` tokens should be displayed to a user as `5.05` (`505 / 10 ** 2`). Tokens usually opt for a value of 18, imitating the relationship between Ether and Wei. This is the value {ERC20} uses, unless this function is overridden; NOTE: This information is only used for _display_ purposes: it in no way affects any of the arithmetic of the contract, including {IERC20-balanceOf} and {IERC20-transfer}."
					},
					"decreaseAllowance(address,uint256)": {
						"details": "Atomically decreases the allowance granted to `spender` by the caller. This is an alternative to {approve} that can be used as a mitigation for problems described in {IERC20-approve}. Emits an {Approval} event indicating the updated allowance. Requirements: - `spender` cannot be the zero address. - `spender` must have allowance for the caller of at least `subtractedValue`."
					},
					"increaseAllowance(address,uint256)": {
						"details": "Atomically increases the allowance granted to `spender` by the caller. This is an alternative to {approve} that can be used as a mitigation for problems described in {IERC20-approve}. Emits an {Approval} event indicating the updated allowance. Requirements: - `spender` cannot be the zero address."
					},
					"name()": {
						"details": "Returns the name of the token."
					},
					"owner()": {
						"details": "Returns the address of the current owner."
					},
					"renounceOwnership()": {
						"details": "Leaves the contract without owner. It will not be possible to call `onlyOwner` functions anymore. Can only be called by the current owner. NOTE: Renouncing ownership will leave the contract without an owner, thereby removing any functionality that is only available to the owner."
					},
					"symbol()": {
						"details": "Returns the symbol of the token, usually a shorter version of the name."
					},
					"totalSupply()": {
						"details": "See {IERC20-totalSupply}."
					},
					"transfer(address,uint256)": {
						"details": "See {IERC20-transfer}. Requirements: - `to` cannot be the zero address. - the caller must have a balance of at least `amount`."
					},
					"transferFrom(address,address,uint256)": {
						"details": "See {IERC20-transferFrom}. Emits an {Approval} event indicating the updated allowance. This is not required by the EIP. See the note at the beginning of {ERC20}. NOTE: Does not update the allowance if the current allowance is the maximum `uint256`. Requirements: - `from` and `to` cannot be the zero address. - `from` must have a balance of at least `amount`. - the caller must have allowance for ``from``'s tokens of at least `amount`."
					},
					"transferOwnership(address)": {
						"details": "Transfers ownership of the contract to a new account (`newOwner`). Can only be called by the current owner."
					}
				},
				"version": 1
			},
			"evm": {
				"assembly": "    /* \"gmdBTC_flat.sol\":26407:26726  contract gmdBTC is ERC20(\"gmdBTC\", \"gmdBTC\"), Ownable {... */\n  mstore(0x40, 0x80)\n  callvalue\n  dup1\n  iszero\n  tag_1\n  jumpi\n  0x00\n  dup1\n  revert\ntag_1:\n  pop\n    /* \"gmdBTC_flat.sol\":15698:15811  constructor(string memory name_, string memory symbol_) {... */\n  0x40\n  dup1\n  mload\n  dup1\n  dup3\n  add\n  dup3\n  mstore\n  0x06\n  dup1\n  dup3\n  mstore\n  shl(0xd0, 0x676d64425443)\n  0x20\n  dup1\n  dup5\n  add\n  dup3\n  dup2\n  mstore\n  dup6\n  mload\n  dup1\n  dup8\n  add\n  swap1\n  swap7\n  mstore\n  swap3\n  dup6\n  mstore\n  dup5\n  add\n  mstore\n    /* \"gmdBTC_flat.sol\":15764:15777  _name = name_ */\n  dup2\n  mload\n    /* \"gmdBTC_flat.sol\":15698:15811  constructor(string memory name_, string memory symbol_) {... */\n  swap2\n  swap3\n  swap2\n    /* \"gmdBTC_flat.sol\":15764:15777  _name = name_ */\n  tag_5\n  swap2\n    /* \"gmdBTC_flat.sol\":15764:15769  _name */\n  0x03\n  swap2\n    /* \"gmdBTC_flat.sol\":15764:15777  _name = name_ */\n  tag_6\n  jump\t// in\ntag_5:\n  pop\n    /* \"gmdBTC_flat.sol\":15787:15804  _symbol = symbol_ */\n  dup1\n  mload\n  tag_7\n  swap1\n    /* \"gmdBTC_flat.sol\":15787:15794  _symbol */\n  0x04\n  swap1\n    /* \"gmdBTC_flat.sol\":15787:15804  _symbol = symbol_ */\n  0x20\n  dup5\n  add\n  swap1\n  tag_6\n  jump\t// in\ntag_7:\n  pop\n    /* \"gmdBTC_flat.sol\":15698:15811  constructor(string memory name_, string memory symbol_) {... */\n  pop\n  pop\n    /* \"gmdBTC_flat.sol\":8605:8637  _transferOwnership(_msgSender()) */\n  tag_9\n    /* \"gmdBTC_flat.sol\":8624:8636  _msgSender() */\n  tag_10\n    /* \"gmdBTC_flat.sol\":8624:8634  _msgSender */\n  shl(0x20, tag_11)\n    /* \"gmdBTC_flat.sol\":8624:8636  _msgSender() */\n  0x20\n  shr\n  jump\t// in\ntag_10:\n    /* \"gmdBTC_flat.sol\":8605:8623  _transferOwnership */\n  tag_12\n    /* \"gmdBTC_flat.sol\":8605:8637  _transferOwnership(_msgSender()) */\n  jump\t// in\ntag_9:\n    /* \"gmdBTC_flat.sol\":26407:26726  contract gmdBTC is ERC20(\"gmdBTC\", \"gmdBTC\"), Ownable {... */\n  jump(tag_27)\n    /* \"gmdBTC_flat.sol\":7473:7569  function _msgSender() internal view virtual returns (address) {... */\ntag_11:\n    /* \"gmdBTC_flat.sol\":7552:7562  msg.sender */\n  caller\n  swap1\n    /* \"gmdBTC_flat.sol\":7473:7569  function _msgSender() internal view virtual returns (address) {... */\n  jump\t// out\n    /* \"gmdBTC_flat.sol\":10102:10289  function _transferOwnership(address newOwner) internal virtual {... */\ntag_12:\n    /* \"gmdBTC_flat.sol\":10194:10200  _owner */\n  0x05\n  dup1\n  sload\n  sub(shl(0xa0, 0x01), 0x01)\n    /* \"gmdBTC_flat.sol\":10210:10227  _owner = newOwner */\n  dup4\n  dup2\n  and\n  not(sub(shl(0xa0, 0x01), 0x01))\n  dup4\n  and\n  dup2\n  or\n  swap1\n  swap4\n  sstore\n    /* \"gmdBTC_flat.sol\":10242:10282  OwnershipTransferred(oldOwner, newOwner) */\n  mload(0x40)\n    /* \"gmdBTC_flat.sol\":10194:10200  _owner */\n  swap2\n  and\n  swap2\n    /* \"gmdBTC_flat.sol\":10210:10227  _owner = newOwner */\n  swap1\n    /* \"gmdBTC_flat.sol\":10194:10200  _owner */\n  dup3\n  swap1\n    /* \"gmdBTC_flat.sol\":10242:10282  OwnershipTransferred(oldOwner, newOwner) */\n  0x8be0079c531659141344cd1fd0a4f28419497f9722a3daafe3b4186f6b6457e0\n  swap1\n    /* \"gmdBTC_flat.sol\":10175:10191  address oldOwner */\n  0x00\n  swap1\n    /* \"gmdBTC_flat.sol\":10242:10282  OwnershipTransferred(oldOwner, newOwner) */\n  log3\n    /* \"gmdBTC_flat.sol\":10165:10289  {... */\n  pop\n    /* \"gmdBTC_flat.sol\":10102:10289  function _transferOwnership(address newOwner) internal virtual {... */\n  pop\n  jump\t// out\n    /* \"gmdBTC_flat.sol\":26407:26726  contract gmdBTC is ERC20(\"gmdBTC\", \"gmdBTC\"), Ownable {... */\ntag_6:\n  dup3\n  dup1\n  sload\n  tag_16\n  swap1\n  tag_17\n  jump\t// in\ntag_16:\n  swap1\n  0x00\n  mstore\n  keccak256(0x00, 0x20)\n  swap1\n  0x1f\n  add\n  0x20\n  swap1\n  div\n  dup2\n  add\n  swap3\n  dup3\n  tag_19\n  jumpi\n  0x00\n  dup6\n  sstore\n  jump(tag_22)\ntag_19:\n  dup3\n  0x1f\n  lt\n  tag_20\n  jumpi\n  dup1\n  mload\n  not(0xff)\n  and\n  dup4\n  dup1\n  add\n  or\n  dup6\n  sstore\n  jump(tag_22)\ntag_20:\n  dup3\n  dup1\n  add\n  0x01\n  add\n  dup6\n  sstore\n  dup3\n  iszero\n  tag_22\n  jumpi\n  swap2\n  dup3\n  add\ntag_21:\n  dup3\n  dup2\n  gt\n  iszero\n  tag_22\n  jumpi\n  dup3\n  mload\n  dup3\n  sstore\n  swap2\n  0x20\n  add\n  swap2\n  swap1\n  0x01\n  add\n  swap1\n  jump(tag_21)\ntag_22:\n  pop\n  tag_23\n  swap3\n  swap2\n  pop\n  tag_24\n  jump\t// in\ntag_23:\n  pop\n  swap1\n  jump\t// out\ntag_24:\ntag_25:\n  dup1\n  dup3\n  gt\n  iszero\n  tag_23\n  jumpi\n  0x00\n  dup2\n  sstore\n  0x01\n  add\n  jump(tag_25)\n    /* \"#utility.yul\":14:394   */\ntag_17:\n    /* \"#utility.yul\":93:94   */\n  0x01\n    /* \"#utility.yul\":89:101   */\n  dup2\n  dup2\n  shr\n  swap1\n    /* \"#utility.yul\":136:148   */\n  dup3\n  and\n  dup1\n    /* \"#utility.yul\":157:218   */\n  tag_29\n  jumpi\n    /* \"#utility.yul\":211:215   */\n  0x7f\n    /* \"#utility.yul\":203:209   */\n  dup3\n    /* \"#utility.yul\":199:216   */\n  and\n    /* \"#utility.yul\":189:216   */\n  swap2\n  pop\n    /* \"#utility.yul\":157:218   */\ntag_29:\n    /* \"#utility.yul\":264:266   */\n  0x20\n    /* \"#utility.yul\":256:262   */\n  dup3\n    /* \"#utility.yul\":253:267   */\n  lt\n    /* \"#utility.yul\":233:251   */\n  dup2\n    /* \"#utility.yul\":230:268   */\n  eq\n    /* \"#utility.yul\":227:388   */\n  iszero\n  tag_30\n  jumpi\n    /* \"#utility.yul\":310:320   */\n  0x4e487b71\n    /* \"#utility.yul\":305:308   */\n  0xe0\n    /* \"#utility.yul\":301:321   */\n  shl\n    /* \"#utility.yul\":298:299   */\n  0x00\n    /* \"#utility.yul\":291:322   */\n  mstore\n    /* \"#utility.yul\":345:349   */\n  0x22\n    /* \"#utility.yul\":342:343   */\n  0x04\n    /* \"#utility.yul\":335:350   */\n  mstore\n    /* \"#utility.yul\":373:377   */\n  0x24\n    /* \"#utility.yul\":370:371   */\n  0x00\n    /* \"#utility.yul\":363:378   */\n  revert\n    /* \"#utility.yul\":227:388   */\ntag_30:\n  pop\n    /* \"#utility.yul\":14:394   */\n  swap2\n  swap1\n  pop\n  jump\t// out\ntag_27:\n    /* \"gmdBTC_flat.sol\":26407:26726  contract gmdBTC is ERC20(\"gmdBTC\", \"gmdBTC\"), Ownable {... */\n  dataSize(sub_0)\n  dup1\n  dataOffset(sub_0)\n  0x00\n  codecopy\n  0x00\n  return\nstop\n\nsub_0: assembly {\n        /* \"gmdBTC_flat.sol\":26407:26726  contract gmdBTC is ERC20(\"gmdBTC\", \"gmdBTC\"), Ownable {... */\n      mstore(0x40, 0x80)\n      callvalue\n      dup1\n      iszero\n      tag_1\n      jumpi\n      0x00\n      dup1\n      revert\n    tag_1:\n      pop\n      jumpi(tag_2, lt(calldatasize, 0x04))\n      shr(0xe0, calldataload(0x00))\n      dup1\n      0x715018a6\n      gt\n      tag_19\n      jumpi\n      dup1\n      0xa457c2d7\n      gt\n      tag_20\n      jumpi\n      dup1\n      0xa457c2d7\n      eq\n      tag_15\n      jumpi\n      dup1\n      0xa9059cbb\n      eq\n      tag_16\n      jumpi\n      dup1\n      0xdd62ed3e\n      eq\n      tag_17\n      jumpi\n      dup1\n      0xf2fde38b\n      eq\n      tag_18\n      jumpi\n      0x00\n      dup1\n      revert\n    tag_20:\n      dup1\n      0x715018a6\n      eq\n      tag_11\n      jumpi\n      dup1\n      0x8da5cb5b\n      eq\n      tag_12\n      jumpi\n      dup1\n      0x95d89b41\n      eq\n      tag_13\n      jumpi\n      dup1\n      0x9dc29fac\n      eq\n      tag_14\n      jumpi\n      0x00\n      dup1\n      revert\n    tag_19:\n      dup1\n      0x313ce567\n      gt\n      tag_21\n      jumpi\n      dup1\n      0x313ce567\n      eq\n      tag_7\n      jumpi\n      dup1\n      0x39509351\n      eq\n      tag_8\n      jumpi\n      dup1\n      0x40c10f19\n      eq\n      tag_9\n      jumpi\n      dup1\n      0x70a08231\n      eq\n      tag_10\n      jumpi\n      0x00\n      dup1\n      revert\n    tag_21:\n      dup1\n      0x06fdde03\n      eq\n      tag_3\n      jumpi\n      dup1\n      0x095ea7b3\n      eq\n      tag_4\n      jumpi\n      dup1\n      0x18160ddd\n      eq\n      tag_5\n      jumpi\n      dup1\n      0x23b872dd\n      eq\n      tag_6\n      jumpi\n    tag_2:\n      0x00\n      dup1\n      revert\n        /* \"gmdBTC_flat.sol\":15876:15974  function name() public view virtual override returns (string memory) {... */\n    tag_3:\n      tag_22\n      tag_23\n      jump\t// in\n    tag_22:\n      mload(0x40)\n      tag_24\n      swap2\n      swap1\n      tag_25\n      jump\t// in\n    tag_24:\n      mload(0x40)\n      dup1\n      swap2\n      sub\n      swap1\n      return\n        /* \"gmdBTC_flat.sol\":18153:18350  function approve(address spender, uint256 amount) public virtual override returns (bool) {... */\n    tag_4:\n      tag_26\n      tag_27\n      calldatasize\n      0x04\n      tag_28\n      jump\t// in\n    tag_27:\n      tag_29\n      jump\t// in\n    tag_26:\n      mload(0x40)\n        /* \"#utility.yul\":1218:1232   */\n      swap1\n      iszero\n        /* \"#utility.yul\":1211:1233   */\n      iszero\n        /* \"#utility.yul\":1193:1234   */\n      dup2\n      mstore\n        /* \"#utility.yul\":1181:1183   */\n      0x20\n        /* \"#utility.yul\":1166:1184   */\n      add\n        /* \"gmdBTC_flat.sol\":18153:18350  function approve(address spender, uint256 amount) public virtual override returns (bool) {... */\n      tag_24\n        /* \"#utility.yul\":1053:1240   */\n      jump\n        /* \"gmdBTC_flat.sol\":16964:17070  function totalSupply() public view virtual override returns (uint256) {... */\n    tag_5:\n        /* \"gmdBTC_flat.sol\":17051:17063  _totalSupply */\n      sload(0x02)\n        /* \"gmdBTC_flat.sol\":16964:17070  function totalSupply() public view virtual override returns (uint256) {... */\n    tag_32:\n      mload(0x40)\n        /* \"#utility.yul\":1391:1416   */\n      swap1\n      dup2\n      mstore\n        /* \"#utility.yul\":1379:1381   */\n      0x20\n        /* \"#utility.yul\":1364:1382   */\n      add\n        /* \"gmdBTC_flat.sol\":16964:17070  function totalSupply() public view virtual override returns (uint256) {... */\n      tag_24\n        /* \"#utility.yul\":1245:1422   */\n      jump\n        /* \"gmdBTC_flat.sol\":18912:19198  function transferFrom(... */\n    tag_6:\n      tag_26\n      tag_37\n      calldatasize\n      0x04\n      tag_38\n      jump\t// in\n    tag_37:\n      tag_39\n      jump\t// in\n        /* \"gmdBTC_flat.sol\":16813:16904  function decimals() public view virtual override returns (uint8) {... */\n    tag_7:\n      mload(0x40)\n        /* \"gmdBTC_flat.sol\":16895:16897  18 */\n      0x12\n        /* \"#utility.yul\":1902:1938   */\n      dup2\n      mstore\n        /* \"#utility.yul\":1890:1892   */\n      0x20\n        /* \"#utility.yul\":1875:1893   */\n      add\n        /* \"gmdBTC_flat.sol\":16813:16904  function decimals() public view virtual override returns (uint8) {... */\n      tag_24\n        /* \"#utility.yul\":1760:1944   */\n      jump\n        /* \"gmdBTC_flat.sol\":19593:19827  function increaseAllowance(address spender, uint256 addedValue) public virtual returns (bool) {... */\n    tag_8:\n      tag_26\n      tag_46\n      calldatasize\n      0x04\n      tag_28\n      jump\t// in\n    tag_46:\n      tag_47\n      jump\t// in\n        /* \"gmdBTC_flat.sol\":26611:26723  function mint(address recipient, uint256 _amount) external onlyOwner {... */\n    tag_9:\n      tag_49\n      tag_50\n      calldatasize\n      0x04\n      tag_28\n      jump\t// in\n    tag_50:\n      tag_51\n      jump\t// in\n    tag_49:\n      stop\n        /* \"gmdBTC_flat.sol\":17128:17253  function balanceOf(address account) public view virtual override returns (uint256) {... */\n    tag_10:\n      tag_32\n      tag_53\n      calldatasize\n      0x04\n      tag_54\n      jump\t// in\n    tag_53:\n      sub(shl(0xa0, 0x01), 0x01)\n        /* \"gmdBTC_flat.sol\":17228:17246  _balances[account] */\n      and\n        /* \"gmdBTC_flat.sol\":17202:17209  uint256 */\n      0x00\n        /* \"gmdBTC_flat.sol\":17228:17246  _balances[account] */\n      swap1\n      dup2\n      mstore\n      0x20\n      dup2\n      swap1\n      mstore\n      0x40\n      swap1\n      keccak256\n      sload\n      swap1\n        /* \"gmdBTC_flat.sol\":17128:17253  function balanceOf(address account) public view virtual override returns (uint256) {... */\n      jump\n        /* \"gmdBTC_flat.sol\":9500:9601  function renounceOwnership() public virtual onlyOwner {... */\n    tag_11:\n      tag_49\n      tag_58\n      jump\t// in\n        /* \"gmdBTC_flat.sol\":8870:8955  function owner() public view virtual returns (address) {... */\n    tag_12:\n        /* \"gmdBTC_flat.sol\":8942:8948  _owner */\n      sload(0x05)\n        /* \"gmdBTC_flat.sol\":8870:8955  function owner() public view virtual returns (address) {... */\n      mload(0x40)\n      sub(shl(0xa0, 0x01), 0x01)\n        /* \"gmdBTC_flat.sol\":8942:8948  _owner */\n      swap1\n      swap2\n      and\n        /* \"#utility.yul\":2286:2337   */\n      dup2\n      mstore\n        /* \"#utility.yul\":2274:2276   */\n      0x20\n        /* \"#utility.yul\":2259:2277   */\n      add\n        /* \"gmdBTC_flat.sol\":8870:8955  function owner() public view virtual returns (address) {... */\n      tag_24\n        /* \"#utility.yul\":2140:2343   */\n      jump\n        /* \"gmdBTC_flat.sol\":16087:16189  function symbol() public view virtual override returns (string memory) {... */\n    tag_13:\n      tag_22\n      tag_64\n      jump\t// in\n        /* \"gmdBTC_flat.sol\":26501:26605  function burn(address _from, uint256 _amount) external onlyOwner  {... */\n    tag_14:\n      tag_49\n      tag_67\n      calldatasize\n      0x04\n      tag_28\n      jump\t// in\n    tag_67:\n      tag_68\n      jump\t// in\n        /* \"gmdBTC_flat.sol\":20314:20741  function decreaseAllowance(address spender, uint256 subtractedValue) public virtual returns (bool) {... */\n    tag_15:\n      tag_26\n      tag_70\n      calldatasize\n      0x04\n      tag_28\n      jump\t// in\n    tag_70:\n      tag_71\n      jump\t// in\n        /* \"gmdBTC_flat.sol\":17449:17638  function transfer(address to, uint256 amount) public virtual override returns (bool) {... */\n    tag_16:\n      tag_26\n      tag_74\n      calldatasize\n      0x04\n      tag_28\n      jump\t// in\n    tag_74:\n      tag_75\n      jump\t// in\n        /* \"gmdBTC_flat.sol\":17696:17845  function allowance(address owner, address spender) public view virtual override returns (uint256) {... */\n    tag_17:\n      tag_32\n      tag_78\n      calldatasize\n      0x04\n      tag_79\n      jump\t// in\n    tag_78:\n      tag_80\n      jump\t// in\n        /* \"gmdBTC_flat.sol\":9750:9948  function transferOwnership(address newOwner) public virtual onlyOwner {... */\n    tag_18:\n      tag_49\n      tag_83\n      calldatasize\n      0x04\n      tag_54\n      jump\t// in\n    tag_83:\n      tag_84\n      jump\t// in\n        /* \"gmdBTC_flat.sol\":15876:15974  function name() public view virtual override returns (string memory) {... */\n    tag_23:\n        /* \"gmdBTC_flat.sol\":15930:15943  string memory */\n      0x60\n        /* \"gmdBTC_flat.sol\":15962:15967  _name */\n      0x03\n        /* \"gmdBTC_flat.sol\":15955:15967  return _name */\n      dup1\n      sload\n      tag_86\n      swap1\n      tag_87\n      jump\t// in\n    tag_86:\n      dup1\n      0x1f\n      add\n      0x20\n      dup1\n      swap2\n      div\n      mul\n      0x20\n      add\n      mload(0x40)\n      swap1\n      dup2\n      add\n      0x40\n      mstore\n      dup1\n      swap3\n      swap2\n      swap1\n      dup2\n      dup2\n      mstore\n      0x20\n      add\n      dup3\n      dup1\n      sload\n      tag_88\n      swap1\n      tag_87\n      jump\t// in\n    tag_88:\n      dup1\n      iszero\n      tag_89\n      jumpi\n      dup1\n      0x1f\n      lt\n      tag_90\n      jumpi\n      0x0100\n      dup1\n      dup4\n      sload\n      div\n      mul\n      dup4\n      mstore\n      swap2\n      0x20\n      add\n      swap2\n      jump(tag_89)\n    tag_90:\n      dup3\n      add\n      swap2\n      swap1\n      0x00\n      mstore\n      keccak256(0x00, 0x20)\n      swap1\n    tag_91:\n      dup2\n      sload\n      dup2\n      mstore\n      swap1\n      0x01\n      add\n      swap1\n      0x20\n      add\n      dup1\n      dup4\n      gt\n      tag_91\n      jumpi\n      dup3\n      swap1\n      sub\n      0x1f\n      and\n      dup3\n      add\n      swap2\n    tag_89:\n      pop\n      pop\n      pop\n      pop\n      pop\n      swap1\n      pop\n        /* \"gmdBTC_flat.sol\":15876:15974  function name() public view virtual override returns (string memory) {... */\n      swap1\n      jump\t// out\n        /* \"gmdBTC_flat.sol\":18153:18350  function approve(address spender, uint256 amount) public virtual override returns (bool) {... */\n    tag_29:\n        /* \"gmdBTC_flat.sol\":18236:18240  bool */\n      0x00\n        /* \"gmdBTC_flat.sol\":7552:7562  msg.sender */\n      caller\n        /* \"gmdBTC_flat.sol\":18290:18322  _approve(owner, spender, amount) */\n      tag_95\n        /* \"gmdBTC_flat.sol\":7552:7562  msg.sender */\n      dup2\n        /* \"gmdBTC_flat.sol\":18306:18313  spender */\n      dup6\n        /* \"gmdBTC_flat.sol\":18315:18321  amount */\n      dup6\n        /* \"gmdBTC_flat.sol\":18290:18298  _approve */\n      tag_96\n        /* \"gmdBTC_flat.sol\":18290:18322  _approve(owner, spender, amount) */\n      jump\t// in\n    tag_95:\n      pop\n        /* \"gmdBTC_flat.sol\":18339:18343  true */\n      0x01\n      swap4\n        /* \"gmdBTC_flat.sol\":18153:18350  function approve(address spender, uint256 amount) public virtual override returns (bool) {... */\n      swap3\n      pop\n      pop\n      pop\n      jump\t// out\n        /* \"gmdBTC_flat.sol\":18912:19198  function transferFrom(... */\n    tag_39:\n        /* \"gmdBTC_flat.sol\":19039:19043  bool */\n      0x00\n        /* \"gmdBTC_flat.sol\":7552:7562  msg.sender */\n      caller\n        /* \"gmdBTC_flat.sol\":19095:19133  _spendAllowance(from, spender, amount) */\n      tag_100\n        /* \"gmdBTC_flat.sol\":19111:19115  from */\n      dup6\n        /* \"gmdBTC_flat.sol\":7552:7562  msg.sender */\n      dup3\n        /* \"gmdBTC_flat.sol\":19126:19132  amount */\n      dup6\n        /* \"gmdBTC_flat.sol\":19095:19110  _spendAllowance */\n      tag_101\n        /* \"gmdBTC_flat.sol\":19095:19133  _spendAllowance(from, spender, amount) */\n      jump\t// in\n    tag_100:\n        /* \"gmdBTC_flat.sol\":19143:19170  _transfer(from, to, amount) */\n      tag_102\n        /* \"gmdBTC_flat.sol\":19153:19157  from */\n      dup6\n        /* \"gmdBTC_flat.sol\":19159:19161  to */\n      dup6\n        /* \"gmdBTC_flat.sol\":19163:19169  amount */\n      dup6\n        /* \"gmdBTC_flat.sol\":19143:19152  _transfer */\n      tag_103\n        /* \"gmdBTC_flat.sol\":19143:19170  _transfer(from, to, amount) */\n      jump\t// in\n    tag_102:\n      pop\n        /* \"gmdBTC_flat.sol\":19187:19191  true */\n      0x01\n      swap5\n        /* \"gmdBTC_flat.sol\":18912:19198  function transferFrom(... */\n      swap4\n      pop\n      pop\n      pop\n      pop\n      jump\t// out\n        /* \"gmdBTC_flat.sol\":19593:19827  function increaseAllowance(address spender, uint256 addedValue) public virtual returns (bool) {... */\n    tag_47:\n        /* \"gmdBTC_flat.sol\":19681:19685  bool */\n      0x00\n        /* \"gmdBTC_flat.sol\":7552:7562  msg.sender */\n      caller\n        /* \"gmdBTC_flat.sol\":19735:19799  _approve(owner, spender, allowance(owner, spender) + addedValue) */\n      tag_95\n        /* \"gmdBTC_flat.sol\":7552:7562  msg.sender */\n      dup2\n        /* \"gmdBTC_flat.sol\":19751:19758  spender */\n      dup6\n        /* \"gmdBTC_flat.sol\":19788:19798  addedValue */\n      dup6\n        /* \"gmdBTC_flat.sol\":19760:19785  allowance(owner, spender) */\n      tag_108\n        /* \"gmdBTC_flat.sol\":7552:7562  msg.sender */\n      dup4\n        /* \"gmdBTC_flat.sol\":19751:19758  spender */\n      dup4\n        /* \"gmdBTC_flat.sol\":19760:19769  allowance */\n      tag_80\n        /* \"gmdBTC_flat.sol\":19760:19785  allowance(owner, spender) */\n      jump\t// in\n    tag_108:\n        /* \"gmdBTC_flat.sol\":19760:19798  allowance(owner, spender) + addedValue */\n      tag_109\n      swap2\n      swap1\n      tag_110\n      jump\t// in\n    tag_109:\n        /* \"gmdBTC_flat.sol\":19735:19743  _approve */\n      tag_96\n        /* \"gmdBTC_flat.sol\":19735:19799  _approve(owner, spender, allowance(owner, spender) + addedValue) */\n      jump\t// in\n        /* \"gmdBTC_flat.sol\":26611:26723  function mint(address recipient, uint256 _amount) external onlyOwner {... */\n    tag_51:\n        /* \"gmdBTC_flat.sol\":8763:8776  _checkOwner() */\n      tag_112\n        /* \"gmdBTC_flat.sol\":8763:8774  _checkOwner */\n      tag_113\n        /* \"gmdBTC_flat.sol\":8763:8776  _checkOwner() */\n      jump\t// in\n    tag_112:\n        /* \"gmdBTC_flat.sol\":26690:26715  _mint(recipient, _amount) */\n      tag_115\n        /* \"gmdBTC_flat.sol\":26696:26705  recipient */\n      dup3\n        /* \"gmdBTC_flat.sol\":26707:26714  _amount */\n      dup3\n        /* \"gmdBTC_flat.sol\":26690:26695  _mint */\n      tag_116\n        /* \"gmdBTC_flat.sol\":26690:26715  _mint(recipient, _amount) */\n      jump\t// in\n    tag_115:\n        /* \"gmdBTC_flat.sol\":26611:26723  function mint(address recipient, uint256 _amount) external onlyOwner {... */\n      pop\n      pop\n      jump\t// out\n        /* \"gmdBTC_flat.sol\":9500:9601  function renounceOwnership() public virtual onlyOwner {... */\n    tag_58:\n        /* \"gmdBTC_flat.sol\":8763:8776  _checkOwner() */\n      tag_119\n        /* \"gmdBTC_flat.sol\":8763:8774  _checkOwner */\n      tag_113\n        /* \"gmdBTC_flat.sol\":8763:8776  _checkOwner() */\n      jump\t// in\n    tag_119:\n        /* \"gmdBTC_flat.sol\":9564:9594  _transferOwnership(address(0)) */\n      tag_121\n        /* \"gmdBTC_flat.sol\":9591:9592  0 */\n      0x00\n        /* \"gmdBTC_flat.sol\":9564:9582  _transferOwnership */\n      tag_122\n        /* \"gmdBTC_flat.sol\":9564:9594  _transferOwnership(address(0)) */\n      jump\t// in\n    tag_121:\n        /* \"gmdBTC_flat.sol\":9500:9601  function renounceOwnership() public virtual onlyOwner {... */\n      jump\t// out\n        /* \"gmdBTC_flat.sol\":16087:16189  function symbol() public view virtual override returns (string memory) {... */\n    tag_64:\n        /* \"gmdBTC_flat.sol\":16143:16156  string memory */\n      0x60\n        /* \"gmdBTC_flat.sol\":16175:16182  _symbol */\n      0x04\n        /* \"gmdBTC_flat.sol\":16168:16182  return _symbol */\n      dup1\n      sload\n      tag_86\n      swap1\n      tag_87\n      jump\t// in\n        /* \"gmdBTC_flat.sol\":26501:26605  function burn(address _from, uint256 _amount) external onlyOwner  {... */\n    tag_68:\n        /* \"gmdBTC_flat.sol\":8763:8776  _checkOwner() */\n      tag_131\n        /* \"gmdBTC_flat.sol\":8763:8774  _checkOwner */\n      tag_113\n        /* \"gmdBTC_flat.sol\":8763:8776  _checkOwner() */\n      jump\t// in\n    tag_131:\n        /* \"gmdBTC_flat.sol\":26577:26598  _burn(_from, _amount) */\n      tag_115\n        /* \"gmdBTC_flat.sol\":26583:26588  _from */\n      dup3\n        /* \"gmdBTC_flat.sol\":26590:26597  _amount */\n      dup3\n        /* \"gmdBTC_flat.sol\":26577:26582  _burn */\n      tag_134\n        /* \"gmdBTC_flat.sol\":26577:26598  _burn(_from, _amount) */\n      jump\t// in\n        /* \"gmdBTC_flat.sol\":20314:20741  function decreaseAllowance(address spender, uint256 subtractedValue) public virtual returns (bool) {... */\n    tag_71:\n        /* \"gmdBTC_flat.sol\":20407:20411  bool */\n      0x00\n        /* \"gmdBTC_flat.sol\":7552:7562  msg.sender */\n      caller\n        /* \"gmdBTC_flat.sol\":20407:20411  bool */\n      dup2\n        /* \"gmdBTC_flat.sol\":20488:20513  allowance(owner, spender) */\n      tag_137\n        /* \"gmdBTC_flat.sol\":7552:7562  msg.sender */\n      dup3\n        /* \"gmdBTC_flat.sol\":20505:20512  spender */\n      dup7\n        /* \"gmdBTC_flat.sol\":20488:20497  allowance */\n      tag_80\n        /* \"gmdBTC_flat.sol\":20488:20513  allowance(owner, spender) */\n      jump\t// in\n    tag_137:\n        /* \"gmdBTC_flat.sol\":20461:20513  uint256 currentAllowance = allowance(owner, spender) */\n      swap1\n      pop\n        /* \"gmdBTC_flat.sol\":20551:20566  subtractedValue */\n      dup4\n        /* \"gmdBTC_flat.sol\":20531:20547  currentAllowance */\n      dup2\n        /* \"gmdBTC_flat.sol\":20531:20566  currentAllowance >= subtractedValue */\n      lt\n      iszero\n        /* \"gmdBTC_flat.sol\":20523:20608  require(currentAllowance >= subtractedValue, \"ERC20: decreased allowance below zero\") */\n      tag_138\n      jumpi\n      mload(0x40)\n      shl(0xe5, 0x461bcd)\n      dup2\n      mstore\n        /* \"#utility.yul\":3465:3467   */\n      0x20\n        /* \"gmdBTC_flat.sol\":20523:20608  require(currentAllowance >= subtractedValue, \"ERC20: decreased allowance below zero\") */\n      0x04\n      dup3\n      add\n        /* \"#utility.yul\":3447:3468   */\n      mstore\n        /* \"#utility.yul\":3504:3506   */\n      0x25\n        /* \"#utility.yul\":3484:3502   */\n      0x24\n      dup3\n      add\n        /* \"#utility.yul\":3477:3507   */\n      mstore\n        /* \"#utility.yul\":3543:3577   */\n      0x45524332303a2064656372656173656420616c6c6f77616e63652062656c6f77\n        /* \"#utility.yul\":3523:3541   */\n      0x44\n      dup3\n      add\n        /* \"#utility.yul\":3516:3578   */\n      mstore\n      shl(0xd8, 0x207a65726f)\n        /* \"#utility.yul\":3594:3612   */\n      0x64\n      dup3\n      add\n        /* \"#utility.yul\":3587:3622   */\n      mstore\n        /* \"#utility.yul\":3639:3658   */\n      0x84\n      add\n        /* \"gmdBTC_flat.sol\":20523:20608  require(currentAllowance >= subtractedValue, \"ERC20: decreased allowance below zero\") */\n    tag_139:\n      mload(0x40)\n      dup1\n      swap2\n      sub\n      swap1\n      revert\n    tag_138:\n        /* \"gmdBTC_flat.sol\":20642:20702  _approve(owner, spender, currentAllowance - subtractedValue) */\n      tag_102\n        /* \"gmdBTC_flat.sol\":20651:20656  owner */\n      dup3\n        /* \"gmdBTC_flat.sol\":20658:20665  spender */\n      dup7\n        /* \"gmdBTC_flat.sol\":20686:20701  subtractedValue */\n      dup7\n        /* \"gmdBTC_flat.sol\":20667:20683  currentAllowance */\n      dup5\n        /* \"gmdBTC_flat.sol\":20667:20701  currentAllowance - subtractedValue */\n      sub\n        /* \"gmdBTC_flat.sol\":20642:20650  _approve */\n      tag_96\n        /* \"gmdBTC_flat.sol\":20642:20702  _approve(owner, spender, currentAllowance - subtractedValue) */\n      jump\t// in\n        /* \"gmdBTC_flat.sol\":17449:17638  function transfer(address to, uint256 amount) public virtual override returns (bool) {... */\n    tag_75:\n        /* \"gmdBTC_flat.sol\":17528:17532  bool */\n      0x00\n        /* \"gmdBTC_flat.sol\":7552:7562  msg.sender */\n      caller\n        /* \"gmdBTC_flat.sol\":17582:17610  _transfer(owner, to, amount) */\n      tag_95\n        /* \"gmdBTC_flat.sol\":7552:7562  msg.sender */\n      dup2\n        /* \"gmdBTC_flat.sol\":17599:17601  to */\n      dup6\n        /* \"gmdBTC_flat.sol\":17603:17609  amount */\n      dup6\n        /* \"gmdBTC_flat.sol\":17582:17591  _transfer */\n      tag_103\n        /* \"gmdBTC_flat.sol\":17582:17610  _transfer(owner, to, amount) */\n      jump\t// in\n        /* \"gmdBTC_flat.sol\":17696:17845  function allowance(address owner, address spender) public view virtual override returns (uint256) {... */\n    tag_80:\n      sub(shl(0xa0, 0x01), 0x01)\n        /* \"gmdBTC_flat.sol\":17811:17829  _allowances[owner] */\n      swap2\n      dup3\n      and\n        /* \"gmdBTC_flat.sol\":17785:17792  uint256 */\n      0x00\n        /* \"gmdBTC_flat.sol\":17811:17829  _allowances[owner] */\n      swap1\n      dup2\n      mstore\n        /* \"gmdBTC_flat.sol\":17811:17822  _allowances */\n      0x01\n        /* \"gmdBTC_flat.sol\":17811:17829  _allowances[owner] */\n      0x20\n      swap1\n      dup2\n      mstore\n      0x40\n      dup1\n      dup4\n      keccak256\n        /* \"gmdBTC_flat.sol\":17811:17838  _allowances[owner][spender] */\n      swap4\n      swap1\n      swap5\n      and\n      dup3\n      mstore\n      swap2\n      swap1\n      swap2\n      mstore\n      keccak256\n      sload\n      swap1\n        /* \"gmdBTC_flat.sol\":17696:17845  function allowance(address owner, address spender) public view virtual override returns (uint256) {... */\n      jump\t// out\n        /* \"gmdBTC_flat.sol\":9750:9948  function transferOwnership(address newOwner) public virtual onlyOwner {... */\n    tag_84:\n        /* \"gmdBTC_flat.sol\":8763:8776  _checkOwner() */\n      tag_147\n        /* \"gmdBTC_flat.sol\":8763:8774  _checkOwner */\n      tag_113\n        /* \"gmdBTC_flat.sol\":8763:8776  _checkOwner() */\n      jump\t// in\n    tag_147:\n      sub(shl(0xa0, 0x01), 0x01)\n        /* \"gmdBTC_flat.sol\":9838:9860  newOwner != address(0) */\n      dup2\n      and\n        /* \"gmdBTC_flat.sol\":9830:9903  require(newOwner != address(0), \"Ownable: new owner is the zero address\") */\n      tag_149\n      jumpi\n      mload(0x40)\n      shl(0xe5, 0x461bcd)\n      dup2\n      mstore\n        /* \"#utility.yul\":3871:3873   */\n      0x20\n        /* \"gmdBTC_flat.sol\":9830:9903  require(newOwner != address(0), \"Ownable: new owner is the zero address\") */\n      0x04\n      dup3\n      add\n        /* \"#utility.yul\":3853:3874   */\n      mstore\n        /* \"#utility.yul\":3910:3912   */\n      0x26\n        /* \"#utility.yul\":3890:3908   */\n      0x24\n      dup3\n      add\n        /* \"#utility.yul\":3883:3913   */\n      mstore\n        /* \"#utility.yul\":3949:3983   */\n      0x4f776e61626c653a206e6577206f776e657220697320746865207a65726f2061\n        /* \"#utility.yul\":3929:3947   */\n      0x44\n      dup3\n      add\n        /* \"#utility.yul\":3922:3984   */\n      mstore\n      shl(0xd0, 0x646472657373)\n        /* \"#utility.yul\":4000:4018   */\n      0x64\n      dup3\n      add\n        /* \"#utility.yul\":3993:4029   */\n      mstore\n        /* \"#utility.yul\":4046:4065   */\n      0x84\n      add\n        /* \"gmdBTC_flat.sol\":9830:9903  require(newOwner != address(0), \"Ownable: new owner is the zero address\") */\n      tag_139\n        /* \"#utility.yul\":3669:4071   */\n      jump\n        /* \"gmdBTC_flat.sol\":9830:9903  require(newOwner != address(0), \"Ownable: new owner is the zero address\") */\n    tag_149:\n        /* \"gmdBTC_flat.sol\":9913:9941  _transferOwnership(newOwner) */\n      tag_152\n        /* \"gmdBTC_flat.sol\":9932:9940  newOwner */\n      dup2\n        /* \"gmdBTC_flat.sol\":9913:9931  _transferOwnership */\n      tag_122\n        /* \"gmdBTC_flat.sol\":9913:9941  _transferOwnership(newOwner) */\n      jump\t// in\n    tag_152:\n        /* \"gmdBTC_flat.sol\":9750:9948  function transferOwnership(address newOwner) public virtual onlyOwner {... */\n      pop\n      jump\t// out\n        /* \"gmdBTC_flat.sol\":23830:24200  function _approve(... */\n    tag_96:\n      sub(shl(0xa0, 0x01), 0x01)\n        /* \"gmdBTC_flat.sol\":23961:23980  owner != address(0) */\n      dup4\n      and\n        /* \"gmdBTC_flat.sol\":23953:24021  require(owner != address(0), \"ERC20: approve from the zero address\") */\n      tag_155\n      jumpi\n      mload(0x40)\n      shl(0xe5, 0x461bcd)\n      dup2\n      mstore\n        /* \"#utility.yul\":4278:4280   */\n      0x20\n        /* \"gmdBTC_flat.sol\":23953:24021  require(owner != address(0), \"ERC20: approve from the zero address\") */\n      0x04\n      dup3\n      add\n        /* \"#utility.yul\":4260:4281   */\n      mstore\n        /* \"#utility.yul\":4317:4319   */\n      0x24\n        /* \"#utility.yul\":4297:4315   */\n      dup1\n      dup3\n      add\n        /* \"#utility.yul\":4290:4320   */\n      mstore\n        /* \"#utility.yul\":4356:4390   */\n      0x45524332303a20617070726f76652066726f6d20746865207a65726f20616464\n        /* \"#utility.yul\":4336:4354   */\n      0x44\n      dup3\n      add\n        /* \"#utility.yul\":4329:4391   */\n      mstore\n      shl(0xe0, 0x72657373)\n        /* \"#utility.yul\":4407:4425   */\n      0x64\n      dup3\n      add\n        /* \"#utility.yul\":4400:4434   */\n      mstore\n        /* \"#utility.yul\":4451:4470   */\n      0x84\n      add\n        /* \"gmdBTC_flat.sol\":23953:24021  require(owner != address(0), \"ERC20: approve from the zero address\") */\n      tag_139\n        /* \"#utility.yul\":4076:4476   */\n      jump\n        /* \"gmdBTC_flat.sol\":23953:24021  require(owner != address(0), \"ERC20: approve from the zero address\") */\n    tag_155:\n      sub(shl(0xa0, 0x01), 0x01)\n        /* \"gmdBTC_flat.sol\":24039:24060  spender != address(0) */\n      dup3\n      and\n        /* \"gmdBTC_flat.sol\":24031:24099  require(spender != address(0), \"ERC20: approve to the zero address\") */\n      tag_158\n      jumpi\n      mload(0x40)\n      shl(0xe5, 0x461bcd)\n      dup2\n      mstore\n        /* \"#utility.yul\":4683:4685   */\n      0x20\n        /* \"gmdBTC_flat.sol\":24031:24099  require(spender != address(0), \"ERC20: approve to the zero address\") */\n      0x04\n      dup3\n      add\n        /* \"#utility.yul\":4665:4686   */\n      mstore\n        /* \"#utility.yul\":4722:4724   */\n      0x22\n        /* \"#utility.yul\":4702:4720   */\n      0x24\n      dup3\n      add\n        /* \"#utility.yul\":4695:4725   */\n      mstore\n        /* \"#utility.yul\":4761:4795   */\n      0x45524332303a20617070726f766520746f20746865207a65726f206164647265\n        /* \"#utility.yul\":4741:4759   */\n      0x44\n      dup3\n      add\n        /* \"#utility.yul\":4734:4796   */\n      mstore\n      shl(0xf0, 0x7373)\n        /* \"#utility.yul\":4812:4830   */\n      0x64\n      dup3\n      add\n        /* \"#utility.yul\":4805:4837   */\n      mstore\n        /* \"#utility.yul\":4854:4873   */\n      0x84\n      add\n        /* \"gmdBTC_flat.sol\":24031:24099  require(spender != address(0), \"ERC20: approve to the zero address\") */\n      tag_139\n        /* \"#utility.yul\":4481:4879   */\n      jump\n        /* \"gmdBTC_flat.sol\":24031:24099  require(spender != address(0), \"ERC20: approve to the zero address\") */\n    tag_158:\n      sub(shl(0xa0, 0x01), 0x01)\n        /* \"gmdBTC_flat.sol\":24110:24128  _allowances[owner] */\n      dup4\n      dup2\n      and\n      0x00\n      dup2\n      dup2\n      mstore\n        /* \"gmdBTC_flat.sol\":24110:24121  _allowances */\n      0x01\n        /* \"gmdBTC_flat.sol\":24110:24128  _allowances[owner] */\n      0x20\n      swap1\n      dup2\n      mstore\n      0x40\n      dup1\n      dup4\n      keccak256\n        /* \"gmdBTC_flat.sol\":24110:24137  _allowances[owner][spender] */\n      swap5\n      dup8\n      and\n      dup1\n      dup5\n      mstore\n      swap5\n      dup3\n      mstore\n      swap2\n      dup3\n      swap1\n      keccak256\n        /* \"gmdBTC_flat.sol\":24110:24146  _allowances[owner][spender] = amount */\n      dup6\n      swap1\n      sstore\n        /* \"gmdBTC_flat.sol\":24161:24193  Approval(owner, spender, amount) */\n      swap1\n      mload\n        /* \"#utility.yul\":1391:1416   */\n      dup5\n      dup2\n      mstore\n        /* \"gmdBTC_flat.sol\":24161:24193  Approval(owner, spender, amount) */\n      0x8c5be1e5ebec7d5bd14f71427d1e84f3dd0314c0f7b2291e5b200ac8c7c3b925\n      swap2\n        /* \"#utility.yul\":1364:1382   */\n      add\n        /* \"gmdBTC_flat.sol\":24161:24193  Approval(owner, spender, amount) */\n    tag_161:\n      mload(0x40)\n      dup1\n      swap2\n      sub\n      swap1\n      log3\n        /* \"gmdBTC_flat.sol\":23830:24200  function _approve(... */\n      pop\n      pop\n      pop\n      jump\t// out\n        /* \"gmdBTC_flat.sol\":24481:24922  function _spendAllowance(... */\n    tag_101:\n        /* \"gmdBTC_flat.sol\":24611:24635  uint256 currentAllowance */\n      0x00\n        /* \"gmdBTC_flat.sol\":24638:24663  allowance(owner, spender) */\n      tag_163\n        /* \"gmdBTC_flat.sol\":24648:24653  owner */\n      dup5\n        /* \"gmdBTC_flat.sol\":24655:24662  spender */\n      dup5\n        /* \"gmdBTC_flat.sol\":24638:24647  allowance */\n      tag_80\n        /* \"gmdBTC_flat.sol\":24638:24663  allowance(owner, spender) */\n      jump\t// in\n    tag_163:\n        /* \"gmdBTC_flat.sol\":24611:24663  uint256 currentAllowance = allowance(owner, spender) */\n      swap1\n      pop\n      not(0x00)\n        /* \"gmdBTC_flat.sol\":24677:24693  currentAllowance */\n      dup2\n        /* \"gmdBTC_flat.sol\":24677:24714  currentAllowance != type(uint256).max */\n      eq\n        /* \"gmdBTC_flat.sol\":24673:24916  if (currentAllowance != type(uint256).max) {... */\n      tag_168\n      jumpi\n        /* \"gmdBTC_flat.sol\":24758:24764  amount */\n      dup2\n        /* \"gmdBTC_flat.sol\":24738:24754  currentAllowance */\n      dup2\n        /* \"gmdBTC_flat.sol\":24738:24764  currentAllowance >= amount */\n      lt\n      iszero\n        /* \"gmdBTC_flat.sol\":24730:24798  require(currentAllowance >= amount, \"ERC20: insufficient allowance\") */\n      tag_165\n      jumpi\n      mload(0x40)\n      shl(0xe5, 0x461bcd)\n      dup2\n      mstore\n        /* \"#utility.yul\":5086:5088   */\n      0x20\n        /* \"gmdBTC_flat.sol\":24730:24798  require(currentAllowance >= amount, \"ERC20: insufficient allowance\") */\n      0x04\n      dup3\n      add\n        /* \"#utility.yul\":5068:5089   */\n      mstore\n        /* \"#utility.yul\":5125:5127   */\n      0x1d\n        /* \"#utility.yul\":5105:5123   */\n      0x24\n      dup3\n      add\n        /* \"#utility.yul\":5098:5128   */\n      mstore\n        /* \"#utility.yul\":5164:5195   */\n      0x45524332303a20696e73756666696369656e7420616c6c6f77616e6365000000\n        /* \"#utility.yul\":5144:5162   */\n      0x44\n      dup3\n      add\n        /* \"#utility.yul\":5137:5196   */\n      mstore\n        /* \"#utility.yul\":5213:5231   */\n      0x64\n      add\n        /* \"gmdBTC_flat.sol\":24730:24798  require(currentAllowance >= amount, \"ERC20: insufficient allowance\") */\n      tag_139\n        /* \"#utility.yul\":4884:5237   */\n      jump\n        /* \"gmdBTC_flat.sol\":24730:24798  require(currentAllowance >= amount, \"ERC20: insufficient allowance\") */\n    tag_165:\n        /* \"gmdBTC_flat.sol\":24840:24891  _approve(owner, spender, currentAllowance - amount) */\n      tag_168\n        /* \"gmdBTC_flat.sol\":24849:24854  owner */\n      dup5\n        /* \"gmdBTC_flat.sol\":24856:24863  spender */\n      dup5\n        /* \"gmdBTC_flat.sol\":24884:24890  amount */\n      dup5\n        /* \"gmdBTC_flat.sol\":24865:24881  currentAllowance */\n      dup5\n        /* \"gmdBTC_flat.sol\":24865:24890  currentAllowance - amount */\n      sub\n        /* \"gmdBTC_flat.sol\":24840:24848  _approve */\n      tag_96\n        /* \"gmdBTC_flat.sol\":24840:24891  _approve(owner, spender, currentAllowance - amount) */\n      jump\t// in\n    tag_168:\n        /* \"gmdBTC_flat.sol\":24601:24922  {... */\n      pop\n        /* \"gmdBTC_flat.sol\":24481:24922  function _spendAllowance(... */\n      pop\n      pop\n      pop\n      jump\t// out\n        /* \"gmdBTC_flat.sol\":21195:21846  function _transfer(... */\n    tag_103:\n      sub(shl(0xa0, 0x01), 0x01)\n        /* \"gmdBTC_flat.sol\":21321:21339  from != address(0) */\n      dup4\n      and\n        /* \"gmdBTC_flat.sol\":21313:21381  require(from != address(0), \"ERC20: transfer from the zero address\") */\n      tag_170\n      jumpi\n      mload(0x40)\n      shl(0xe5, 0x461bcd)\n      dup2\n      mstore\n        /* \"#utility.yul\":5444:5446   */\n      0x20\n        /* \"gmdBTC_flat.sol\":21313:21381  require(from != address(0), \"ERC20: transfer from the zero address\") */\n      0x04\n      dup3\n      add\n        /* \"#utility.yul\":5426:5447   */\n      mstore\n        /* \"#utility.yul\":5483:5485   */\n      0x25\n        /* \"#utility.yul\":5463:5481   */\n      0x24\n      dup3\n      add\n        /* \"#utility.yul\":5456:5486   */\n      mstore\n        /* \"#utility.yul\":5522:5556   */\n      0x45524332303a207472616e736665722066726f6d20746865207a65726f206164\n        /* \"#utility.yul\":5502:5520   */\n      0x44\n      dup3\n      add\n        /* \"#utility.yul\":5495:5557   */\n      mstore\n      shl(0xd8, 0x6472657373)\n        /* \"#utility.yul\":5573:5591   */\n      0x64\n      dup3\n      add\n        /* \"#utility.yul\":5566:5601   */\n      mstore\n        /* \"#utility.yul\":5618:5637   */\n      0x84\n      add\n        /* \"gmdBTC_flat.sol\":21313:21381  require(from != address(0), \"ERC20: transfer from the zero address\") */\n      tag_139\n        /* \"#utility.yul\":5242:5643   */\n      jump\n        /* \"gmdBTC_flat.sol\":21313:21381  require(from != address(0), \"ERC20: transfer from the zero address\") */\n    tag_170:\n      sub(shl(0xa0, 0x01), 0x01)\n        /* \"gmdBTC_flat.sol\":21399:21415  to != address(0) */\n      dup3\n      and\n        /* \"gmdBTC_flat.sol\":21391:21455  require(to != address(0), \"ERC20: transfer to the zero address\") */\n      tag_173\n      jumpi\n      mload(0x40)\n      shl(0xe5, 0x461bcd)\n      dup2\n      mstore\n        /* \"#utility.yul\":5850:5852   */\n      0x20\n        /* \"gmdBTC_flat.sol\":21391:21455  require(to != address(0), \"ERC20: transfer to the zero address\") */\n      0x04\n      dup3\n      add\n        /* \"#utility.yul\":5832:5853   */\n      mstore\n        /* \"#utility.yul\":5889:5891   */\n      0x23\n        /* \"#utility.yul\":5869:5887   */\n      0x24\n      dup3\n      add\n        /* \"#utility.yul\":5862:5892   */\n      mstore\n        /* \"#utility.yul\":5928:5962   */\n      0x45524332303a207472616e7366657220746f20746865207a65726f2061646472\n        /* \"#utility.yul\":5908:5926   */\n      0x44\n      dup3\n      add\n        /* \"#utility.yul\":5901:5963   */\n      mstore\n      shl(0xe8, 0x657373)\n        /* \"#utility.yul\":5979:5997   */\n      0x64\n      dup3\n      add\n        /* \"#utility.yul\":5972:6005   */\n      mstore\n        /* \"#utility.yul\":6022:6041   */\n      0x84\n      add\n        /* \"gmdBTC_flat.sol\":21391:21455  require(to != address(0), \"ERC20: transfer to the zero address\") */\n      tag_139\n        /* \"#utility.yul\":5648:6047   */\n      jump\n        /* \"gmdBTC_flat.sol\":21391:21455  require(to != address(0), \"ERC20: transfer to the zero address\") */\n    tag_173:\n      sub(shl(0xa0, 0x01), 0x01)\n        /* \"gmdBTC_flat.sol\":21537:21552  _balances[from] */\n      dup4\n      and\n        /* \"gmdBTC_flat.sol\":21515:21534  uint256 fromBalance */\n      0x00\n        /* \"gmdBTC_flat.sol\":21537:21552  _balances[from] */\n      swap1\n      dup2\n      mstore\n      0x20\n      dup2\n      swap1\n      mstore\n      0x40\n      swap1\n      keccak256\n      sload\n        /* \"gmdBTC_flat.sol\":21570:21591  fromBalance >= amount */\n      dup2\n      dup2\n      lt\n      iszero\n        /* \"gmdBTC_flat.sol\":21562:21634  require(fromBalance >= amount, \"ERC20: transfer amount exceeds balance\") */\n      tag_178\n      jumpi\n      mload(0x40)\n      shl(0xe5, 0x461bcd)\n      dup2\n      mstore\n        /* \"#utility.yul\":6254:6256   */\n      0x20\n        /* \"gmdBTC_flat.sol\":21562:21634  require(fromBalance >= amount, \"ERC20: transfer amount exceeds balance\") */\n      0x04\n      dup3\n      add\n        /* \"#utility.yul\":6236:6257   */\n      mstore\n        /* \"#utility.yul\":6293:6295   */\n      0x26\n        /* \"#utility.yul\":6273:6291   */\n      0x24\n      dup3\n      add\n        /* \"#utility.yul\":6266:6296   */\n      mstore\n        /* \"#utility.yul\":6332:6366   */\n      0x45524332303a207472616e7366657220616d6f756e7420657863656564732062\n        /* \"#utility.yul\":6312:6330   */\n      0x44\n      dup3\n      add\n        /* \"#utility.yul\":6305:6367   */\n      mstore\n      shl(0xd0, 0x616c616e6365)\n        /* \"#utility.yul\":6383:6401   */\n      0x64\n      dup3\n      add\n        /* \"#utility.yul\":6376:6412   */\n      mstore\n        /* \"#utility.yul\":6429:6448   */\n      0x84\n      add\n        /* \"gmdBTC_flat.sol\":21562:21634  require(fromBalance >= amount, \"ERC20: transfer amount exceeds balance\") */\n      tag_139\n        /* \"#utility.yul\":6052:6454   */\n      jump\n        /* \"gmdBTC_flat.sol\":21562:21634  require(fromBalance >= amount, \"ERC20: transfer amount exceeds balance\") */\n    tag_178:\n      sub(shl(0xa0, 0x01), 0x01)\n        /* \"gmdBTC_flat.sol\":21668:21683  _balances[from] */\n      dup1\n      dup6\n      and\n        /* \"gmdBTC_flat.sol\":21668:21677  _balances */\n      0x00\n        /* \"gmdBTC_flat.sol\":21668:21683  _balances[from] */\n      swap1\n      dup2\n      mstore\n      0x20\n      dup2\n      swap1\n      mstore\n      0x40\n      dup1\n      dup3\n      keccak256\n        /* \"gmdBTC_flat.sol\":21686:21706  fromBalance - amount */\n      dup6\n      dup6\n      sub\n        /* \"gmdBTC_flat.sol\":21668:21706  _balances[from] = fromBalance - amount */\n      swap1\n      sstore\n        /* \"gmdBTC_flat.sol\":21726:21739  _balances[to] */\n      swap2\n      dup6\n      and\n      dup2\n      mstore\n      swap1\n      dup2\n      keccak256\n        /* \"gmdBTC_flat.sol\":21726:21749  _balances[to] += amount */\n      dup1\n      sload\n        /* \"gmdBTC_flat.sol\":21700:21706  amount */\n      dup5\n      swap3\n        /* \"gmdBTC_flat.sol\":21668:21677  _balances */\n      swap1\n        /* \"gmdBTC_flat.sol\":21726:21749  _balances[to] += amount */\n      tag_181\n      swap1\n        /* \"gmdBTC_flat.sol\":21700:21706  amount */\n      dup5\n      swap1\n        /* \"gmdBTC_flat.sol\":21726:21749  _balances[to] += amount */\n      tag_110\n      jump\t// in\n    tag_181:\n      swap3\n      pop\n      pop\n      dup2\n      swap1\n      sstore\n      pop\n        /* \"gmdBTC_flat.sol\":21780:21782  to */\n      dup3\n      sub(shl(0xa0, 0x01), 0x01)\n        /* \"gmdBTC_flat.sol\":21765:21791  Transfer(from, to, amount) */\n      and\n        /* \"gmdBTC_flat.sol\":21774:21778  from */\n      dup5\n      sub(shl(0xa0, 0x01), 0x01)\n        /* \"gmdBTC_flat.sol\":21765:21791  Transfer(from, to, amount) */\n      and\n      0xddf252ad1be2c89b69c2b068fc378daa952ba7f163c4a11628f55a4df523b3ef\n        /* \"gmdBTC_flat.sol\":21784:21790  amount */\n      dup5\n        /* \"gmdBTC_flat.sol\":21765:21791  Transfer(from, to, amount) */\n      mload(0x40)\n      tag_182\n      swap2\n        /* \"#utility.yul\":1391:1416   */\n      dup2\n      mstore\n        /* \"#utility.yul\":1379:1381   */\n      0x20\n        /* \"#utility.yul\":1364:1382   */\n      add\n      swap1\n        /* \"#utility.yul\":1245:1422   */\n      jump\n        /* \"gmdBTC_flat.sol\":21765:21791  Transfer(from, to, amount) */\n    tag_182:\n      mload(0x40)\n      dup1\n      swap2\n      sub\n      swap1\n      log3\n        /* \"gmdBTC_flat.sol\":21802:21839  _afterTokenTransfer(from, to, amount) */\n      tag_168\n        /* \"gmdBTC_flat.sol\":22831:23407  function _burn(address account, uint256 amount) internal virtual {... */\n      jump\n        /* \"gmdBTC_flat.sol\":9028:9158  function _checkOwner() internal view virtual {... */\n    tag_113:\n        /* \"gmdBTC_flat.sol\":8942:8948  _owner */\n      and(sub(shl(0xa0, 0x01), 0x01), sload(0x05))\n        /* \"gmdBTC_flat.sol\":7552:7562  msg.sender */\n      caller\n        /* \"gmdBTC_flat.sol\":9091:9114  owner() == _msgSender() */\n      eq\n        /* \"gmdBTC_flat.sol\":9083:9151  require(owner() == _msgSender(), \"Ownable: caller is not the owner\") */\n      tag_121\n      jumpi\n      mload(0x40)\n      shl(0xe5, 0x461bcd)\n      dup2\n      mstore\n        /* \"#utility.yul\":6661:6663   */\n      0x20\n        /* \"gmdBTC_flat.sol\":9083:9151  require(owner() == _msgSender(), \"Ownable: caller is not the owner\") */\n      0x04\n      dup3\n      add\n        /* \"#utility.yul\":6643:6664   */\n      dup2\n      swap1\n      mstore\n        /* \"#utility.yul\":6680:6698   */\n      0x24\n      dup3\n      add\n        /* \"#utility.yul\":6673:6703   */\n      mstore\n        /* \"#utility.yul\":6739:6773   */\n      0x4f776e61626c653a2063616c6c6572206973206e6f7420746865206f776e6572\n        /* \"#utility.yul\":6719:6737   */\n      0x44\n      dup3\n      add\n        /* \"#utility.yul\":6712:6774   */\n      mstore\n        /* \"#utility.yul\":6791:6809   */\n      0x64\n      add\n        /* \"gmdBTC_flat.sol\":9083:9151  require(owner() == _msgSender(), \"Ownable: caller is not the owner\") */\n      tag_139\n        /* \"#utility.yul\":6459:6815   */\n      jump\n        /* \"gmdBTC_flat.sol\":22122:22511  function _mint(address account, uint256 amount) internal virtual {... */\n    tag_116:\n      sub(shl(0xa0, 0x01), 0x01)\n        /* \"gmdBTC_flat.sol\":22205:22226  account != address(0) */\n      dup3\n      and\n        /* \"gmdBTC_flat.sol\":22197:22262  require(account != address(0), \"ERC20: mint to the zero address\") */\n      tag_192\n      jumpi\n      mload(0x40)\n      shl(0xe5, 0x461bcd)\n      dup2\n      mstore\n        /* \"#utility.yul\":7022:7024   */\n      0x20\n        /* \"gmdBTC_flat.sol\":22197:22262  require(account != address(0), \"ERC20: mint to the zero address\") */\n      0x04\n      dup3\n      add\n        /* \"#utility.yul\":7004:7025   */\n      mstore\n        /* \"#utility.yul\":7061:7063   */\n      0x1f\n        /* \"#utility.yul\":7041:7059   */\n      0x24\n      dup3\n      add\n        /* \"#utility.yul\":7034:7064   */\n      mstore\n        /* \"#utility.yul\":7100:7133   */\n      0x45524332303a206d696e7420746f20746865207a65726f206164647265737300\n        /* \"#utility.yul\":7080:7098   */\n      0x44\n      dup3\n      add\n        /* \"#utility.yul\":7073:7134   */\n      mstore\n        /* \"#utility.yul\":7151:7169   */\n      0x64\n      add\n        /* \"gmdBTC_flat.sol\":22197:22262  require(account != address(0), \"ERC20: mint to the zero address\") */\n      tag_139\n        /* \"#utility.yul\":6820:7175   */\n      jump\n        /* \"gmdBTC_flat.sol\":22197:22262  require(account != address(0), \"ERC20: mint to the zero address\") */\n    tag_192:\n        /* \"gmdBTC_flat.sol\":22349:22355  amount */\n      dup1\n        /* \"gmdBTC_flat.sol\":22333:22345  _totalSupply */\n      0x02\n      0x00\n        /* \"gmdBTC_flat.sol\":22333:22355  _totalSupply += amount */\n      dup3\n      dup3\n      sload\n      tag_196\n      swap2\n      swap1\n      tag_110\n      jump\t// in\n    tag_196:\n      swap1\n      swap2\n      sstore\n      pop\n      pop\n      sub(shl(0xa0, 0x01), 0x01)\n        /* \"gmdBTC_flat.sol\":22365:22383  _balances[account] */\n      dup3\n      and\n        /* \"gmdBTC_flat.sol\":22365:22374  _balances */\n      0x00\n        /* \"gmdBTC_flat.sol\":22365:22383  _balances[account] */\n      swap1\n      dup2\n      mstore\n      0x20\n      dup2\n      swap1\n      mstore\n      0x40\n      dup2\n      keccak256\n        /* \"gmdBTC_flat.sol\":22365:22393  _balances[account] += amount */\n      dup1\n      sload\n        /* \"gmdBTC_flat.sol\":22387:22393  amount */\n      dup4\n      swap3\n        /* \"gmdBTC_flat.sol\":22365:22374  _balances */\n      swap1\n        /* \"gmdBTC_flat.sol\":22365:22393  _balances[account] += amount */\n      tag_197\n      swap1\n        /* \"gmdBTC_flat.sol\":22387:22393  amount */\n      dup5\n      swap1\n        /* \"gmdBTC_flat.sol\":22365:22393  _balances[account] += amount */\n      tag_110\n      jump\t// in\n    tag_197:\n      swap1\n      swap2\n      sstore\n      pop\n      pop\n        /* \"gmdBTC_flat.sol\":22408:22445  Transfer(address(0), account, amount) */\n      mload(0x40)\n        /* \"#utility.yul\":1391:1416   */\n      dup2\n      dup2\n      mstore\n      sub(shl(0xa0, 0x01), 0x01)\n        /* \"gmdBTC_flat.sol\":22408:22445  Transfer(address(0), account, amount) */\n      dup4\n      and\n      swap1\n        /* \"gmdBTC_flat.sol\":22425:22426  0 */\n      0x00\n      swap1\n        /* \"gmdBTC_flat.sol\":22408:22445  Transfer(address(0), account, amount) */\n      0xddf252ad1be2c89b69c2b068fc378daa952ba7f163c4a11628f55a4df523b3ef\n      swap1\n        /* \"#utility.yul\":1379:1381   */\n      0x20\n        /* \"#utility.yul\":1364:1382   */\n      add\n        /* \"gmdBTC_flat.sol\":22408:22445  Transfer(address(0), account, amount) */\n      mload(0x40)\n      dup1\n      swap2\n      sub\n      swap1\n      log3\n        /* \"gmdBTC_flat.sol\":26611:26723  function mint(address recipient, uint256 _amount) external onlyOwner {... */\n      pop\n      pop\n      jump\t// out\n        /* \"gmdBTC_flat.sol\":10102:10289  function _transferOwnership(address newOwner) internal virtual {... */\n    tag_122:\n        /* \"gmdBTC_flat.sol\":10194:10200  _owner */\n      0x05\n      dup1\n      sload\n      sub(shl(0xa0, 0x01), 0x01)\n        /* \"gmdBTC_flat.sol\":10210:10227  _owner = newOwner */\n      dup4\n      dup2\n      and\n      not(sub(shl(0xa0, 0x01), 0x01))\n      dup4\n      and\n      dup2\n      or\n      swap1\n      swap4\n      sstore\n        /* \"gmdBTC_flat.sol\":10242:10282  OwnershipTransferred(oldOwner, newOwner) */\n      mload(0x40)\n        /* \"gmdBTC_flat.sol\":10194:10200  _owner */\n      swap2\n      and\n      swap2\n        /* \"gmdBTC_flat.sol\":10210:10227  _owner = newOwner */\n      swap1\n        /* \"gmdBTC_flat.sol\":10194:10200  _owner */\n      dup3\n      swap1\n        /* \"gmdBTC_flat.sol\":10242:10282  OwnershipTransferred(oldOwner, newOwner) */\n      0x8be0079c531659141344cd1fd0a4f28419497f9722a3daafe3b4186f6b6457e0\n      swap1\n        /* \"gmdBTC_flat.sol\":10175:10191  address oldOwner */\n      0x00\n      swap1\n        /* \"gmdBTC_flat.sol\":10242:10282  OwnershipTransferred(oldOwner, newOwner) */\n      log3\n        /* \"gmdBTC_flat.sol\":10165:10289  {... */\n      pop\n        /* \"gmdBTC_flat.sol\":10102:10289  function _transferOwnership(address newOwner) internal virtual {... */\n      pop\n      jump\t// out\n        /* \"gmdBTC_flat.sol\":22831:23407  function _burn(address account, uint256 amount) internal virtual {... */\n    tag_134:\n      sub(shl(0xa0, 0x01), 0x01)\n        /* \"gmdBTC_flat.sol\":22914:22935  account != address(0) */\n      dup3\n      and\n        /* \"gmdBTC_flat.sol\":22906:22973  require(account != address(0), \"ERC20: burn from the zero address\") */\n      tag_202\n      jumpi\n      mload(0x40)\n      shl(0xe5, 0x461bcd)\n      dup2\n      mstore\n        /* \"#utility.yul\":7382:7384   */\n      0x20\n        /* \"gmdBTC_flat.sol\":22906:22973  require(account != address(0), \"ERC20: burn from the zero address\") */\n      0x04\n      dup3\n      add\n        /* \"#utility.yul\":7364:7385   */\n      mstore\n        /* \"#utility.yul\":7421:7423   */\n      0x21\n        /* \"#utility.yul\":7401:7419   */\n      0x24\n      dup3\n      add\n        /* \"#utility.yul\":7394:7424   */\n      mstore\n        /* \"#utility.yul\":7460:7494   */\n      0x45524332303a206275726e2066726f6d20746865207a65726f20616464726573\n        /* \"#utility.yul\":7440:7458   */\n      0x44\n      dup3\n      add\n        /* \"#utility.yul\":7433:7495   */\n      mstore\n      shl(0xf8, 0x73)\n        /* \"#utility.yul\":7511:7529   */\n      0x64\n      dup3\n      add\n        /* \"#utility.yul\":7504:7535   */\n      mstore\n        /* \"#utility.yul\":7552:7571   */\n      0x84\n      add\n        /* \"gmdBTC_flat.sol\":22906:22973  require(account != address(0), \"ERC20: burn from the zero address\") */\n      tag_139\n        /* \"#utility.yul\":7180:7577   */\n      jump\n        /* \"gmdBTC_flat.sol\":22906:22973  require(account != address(0), \"ERC20: burn from the zero address\") */\n    tag_202:\n      sub(shl(0xa0, 0x01), 0x01)\n        /* \"gmdBTC_flat.sol\":23069:23087  _balances[account] */\n      dup3\n      and\n        /* \"gmdBTC_flat.sol\":23044:23066  uint256 accountBalance */\n      0x00\n        /* \"gmdBTC_flat.sol\":23069:23087  _balances[account] */\n      swap1\n      dup2\n      mstore\n      0x20\n      dup2\n      swap1\n      mstore\n      0x40\n      swap1\n      keccak256\n      sload\n        /* \"gmdBTC_flat.sol\":23105:23129  accountBalance >= amount */\n      dup2\n      dup2\n      lt\n      iszero\n        /* \"gmdBTC_flat.sol\":23097:23168  require(accountBalance >= amount, \"ERC20: burn amount exceeds balance\") */\n      tag_206\n      jumpi\n      mload(0x40)\n      shl(0xe5, 0x461bcd)\n      dup2\n      mstore\n        /* \"#utility.yul\":7784:7786   */\n      0x20\n        /* \"gmdBTC_flat.sol\":23097:23168  require(accountBalance >= amount, \"ERC20: burn amount exceeds balance\") */\n      0x04\n      dup3\n      add\n        /* \"#utility.yul\":7766:7787   */\n      mstore\n        /* \"#utility.yul\":7823:7825   */\n      0x22\n        /* \"#utility.yul\":7803:7821   */\n      0x24\n      dup3\n      add\n        /* \"#utility.yul\":7796:7826   */\n      mstore\n        /* \"#utility.yul\":7862:7896   */\n      0x45524332303a206275726e20616d6f756e7420657863656564732062616c616e\n        /* \"#utility.yul\":7842:7860   */\n      0x44\n      dup3\n      add\n        /* \"#utility.yul\":7835:7897   */\n      mstore\n      shl(0xf0, 0x6365)\n        /* \"#utility.yul\":7913:7931   */\n      0x64\n      dup3\n      add\n        /* \"#utility.yul\":7906:7938   */\n      mstore\n        /* \"#utility.yul\":7955:7974   */\n      0x84\n      add\n        /* \"gmdBTC_flat.sol\":23097:23168  require(accountBalance >= amount, \"ERC20: burn amount exceeds balance\") */\n      tag_139\n        /* \"#utility.yul\":7582:7980   */\n      jump\n        /* \"gmdBTC_flat.sol\":23097:23168  require(accountBalance >= amount, \"ERC20: burn amount exceeds balance\") */\n    tag_206:\n      sub(shl(0xa0, 0x01), 0x01)\n        /* \"gmdBTC_flat.sol\":23202:23220  _balances[account] */\n      dup4\n      and\n        /* \"gmdBTC_flat.sol\":23202:23211  _balances */\n      0x00\n        /* \"gmdBTC_flat.sol\":23202:23220  _balances[account] */\n      swap1\n      dup2\n      mstore\n      0x20\n      dup2\n      swap1\n      mstore\n      0x40\n      dup2\n      keccak256\n        /* \"gmdBTC_flat.sol\":23223:23246  accountBalance - amount */\n      dup4\n      dup4\n      sub\n        /* \"gmdBTC_flat.sol\":23202:23246  _balances[account] = accountBalance - amount */\n      swap1\n      sstore\n        /* \"gmdBTC_flat.sol\":23266:23278  _totalSupply */\n      0x02\n        /* \"gmdBTC_flat.sol\":23266:23288  _totalSupply -= amount */\n      dup1\n      sload\n        /* \"gmdBTC_flat.sol\":23240:23246  amount */\n      dup5\n      swap3\n        /* \"gmdBTC_flat.sol\":23202:23211  _balances */\n      swap1\n        /* \"gmdBTC_flat.sol\":23266:23288  _totalSupply -= amount */\n      tag_209\n      swap1\n        /* \"gmdBTC_flat.sol\":23240:23246  amount */\n      dup5\n      swap1\n        /* \"gmdBTC_flat.sol\":23266:23288  _totalSupply -= amount */\n      tag_210\n      jump\t// in\n    tag_209:\n      swap1\n      swap2\n      sstore\n      pop\n      pop\n        /* \"gmdBTC_flat.sol\":23304:23341  Transfer(account, address(0), amount) */\n      mload(0x40)\n        /* \"#utility.yul\":1391:1416   */\n      dup3\n      dup2\n      mstore\n        /* \"gmdBTC_flat.sol\":23330:23331  0 */\n      0x00\n      swap1\n      sub(shl(0xa0, 0x01), 0x01)\n        /* \"gmdBTC_flat.sol\":23304:23341  Transfer(account, address(0), amount) */\n      dup6\n      and\n      swap1\n      0xddf252ad1be2c89b69c2b068fc378daa952ba7f163c4a11628f55a4df523b3ef\n      swap1\n        /* \"#utility.yul\":1379:1381   */\n      0x20\n        /* \"#utility.yul\":1364:1382   */\n      add\n        /* \"gmdBTC_flat.sol\":23304:23341  Transfer(account, address(0), amount) */\n      tag_161\n        /* \"#utility.yul\":1245:1422   */\n      jump\n        /* \"#utility.yul\":14:611   */\n    tag_25:\n        /* \"#utility.yul\":126:130   */\n      0x00\n        /* \"#utility.yul\":155:157   */\n      0x20\n        /* \"#utility.yul\":184:186   */\n      dup1\n        /* \"#utility.yul\":173:182   */\n      dup4\n        /* \"#utility.yul\":166:187   */\n      mstore\n        /* \"#utility.yul\":216:222   */\n      dup4\n        /* \"#utility.yul\":210:223   */\n      mload\n        /* \"#utility.yul\":259:265   */\n      dup1\n        /* \"#utility.yul\":254:256   */\n      dup3\n        /* \"#utility.yul\":243:252   */\n      dup6\n        /* \"#utility.yul\":239:257   */\n      add\n        /* \"#utility.yul\":232:266   */\n      mstore\n        /* \"#utility.yul\":284:285   */\n      0x00\n        /* \"#utility.yul\":294:434   */\n    tag_219:\n        /* \"#utility.yul\":308:314   */\n      dup2\n        /* \"#utility.yul\":305:306   */\n      dup2\n        /* \"#utility.yul\":302:315   */\n      lt\n        /* \"#utility.yul\":294:434   */\n      iszero\n      tag_221\n      jumpi\n        /* \"#utility.yul\":403:417   */\n      dup6\n      dup2\n      add\n        /* \"#utility.yul\":399:422   */\n      dup4\n      add\n        /* \"#utility.yul\":393:423   */\n      mload\n        /* \"#utility.yul\":369:386   */\n      dup6\n      dup3\n      add\n        /* \"#utility.yul\":388:390   */\n      0x40\n        /* \"#utility.yul\":365:391   */\n      add\n        /* \"#utility.yul\":358:424   */\n      mstore\n        /* \"#utility.yul\":323:333   */\n      dup3\n      add\n        /* \"#utility.yul\":294:434   */\n      jump(tag_219)\n    tag_221:\n        /* \"#utility.yul\":452:458   */\n      dup2\n        /* \"#utility.yul\":449:450   */\n      dup2\n        /* \"#utility.yul\":446:459   */\n      gt\n        /* \"#utility.yul\":443:534   */\n      iszero\n      tag_222\n      jumpi\n        /* \"#utility.yul\":522:523   */\n      0x00\n        /* \"#utility.yul\":517:519   */\n      0x40\n        /* \"#utility.yul\":508:514   */\n      dup4\n        /* \"#utility.yul\":497:506   */\n      dup8\n        /* \"#utility.yul\":493:515   */\n      add\n        /* \"#utility.yul\":489:520   */\n      add\n        /* \"#utility.yul\":482:524   */\n      mstore\n        /* \"#utility.yul\":443:534   */\n    tag_222:\n      pop\n        /* \"#utility.yul\":595:597   */\n      0x1f\n        /* \"#utility.yul\":574:589   */\n      add\n      not(0x1f)\n        /* \"#utility.yul\":570:599   */\n      and\n        /* \"#utility.yul\":555:600   */\n      swap3\n      swap1\n      swap3\n      add\n        /* \"#utility.yul\":602:604   */\n      0x40\n        /* \"#utility.yul\":551:605   */\n      add\n      swap4\n        /* \"#utility.yul\":14:611   */\n      swap3\n      pop\n      pop\n      pop\n      jump\t// out\n        /* \"#utility.yul\":616:789   */\n    tag_215:\n        /* \"#utility.yul\":684:704   */\n      dup1\n      calldataload\n      sub(shl(0xa0, 0x01), 0x01)\n        /* \"#utility.yul\":733:764   */\n      dup2\n      and\n        /* \"#utility.yul\":723:765   */\n      dup2\n      eq\n        /* \"#utility.yul\":713:783   */\n      tag_224\n      jumpi\n        /* \"#utility.yul\":779:780   */\n      0x00\n        /* \"#utility.yul\":776:777   */\n      dup1\n        /* \"#utility.yul\":769:781   */\n      revert\n        /* \"#utility.yul\":713:783   */\n    tag_224:\n        /* \"#utility.yul\":616:789   */\n      swap2\n      swap1\n      pop\n      jump\t// out\n        /* \"#utility.yul\":794:1048   */\n    tag_28:\n        /* \"#utility.yul\":862:868   */\n      0x00\n        /* \"#utility.yul\":870:876   */\n      dup1\n        /* \"#utility.yul\":923:925   */\n      0x40\n        /* \"#utility.yul\":911:920   */\n      dup4\n        /* \"#utility.yul\":902:909   */\n      dup6\n        /* \"#utility.yul\":898:921   */\n      sub\n        /* \"#utility.yul\":894:926   */\n      slt\n        /* \"#utility.yul\":891:943   */\n      iszero\n      tag_226\n      jumpi\n        /* \"#utility.yul\":939:940   */\n      0x00\n        /* \"#utility.yul\":936:937   */\n      dup1\n        /* \"#utility.yul\":929:941   */\n      revert\n        /* \"#utility.yul\":891:943   */\n    tag_226:\n        /* \"#utility.yul\":962:991   */\n      tag_227\n        /* \"#utility.yul\":981:990   */\n      dup4\n        /* \"#utility.yul\":962:991   */\n      tag_215\n      jump\t// in\n    tag_227:\n        /* \"#utility.yul\":952:991   */\n      swap5\n        /* \"#utility.yul\":1038:1040   */\n      0x20\n        /* \"#utility.yul\":1023:1041   */\n      swap4\n      swap1\n      swap4\n      add\n        /* \"#utility.yul\":1010:1042   */\n      calldataload\n      swap4\n      pop\n      pop\n      pop\n        /* \"#utility.yul\":794:1048   */\n      jump\t// out\n        /* \"#utility.yul\":1427:1755   */\n    tag_38:\n        /* \"#utility.yul\":1504:1510   */\n      0x00\n        /* \"#utility.yul\":1512:1518   */\n      dup1\n        /* \"#utility.yul\":1520:1526   */\n      0x00\n        /* \"#utility.yul\":1573:1575   */\n      0x60\n        /* \"#utility.yul\":1561:1570   */\n      dup5\n        /* \"#utility.yul\":1552:1559   */\n      dup7\n        /* \"#utility.yul\":1548:1571   */\n      sub\n        /* \"#utility.yul\":1544:1576   */\n      slt\n        /* \"#utility.yul\":1541:1593   */\n      iszero\n      tag_231\n      jumpi\n        /* \"#utility.yul\":1589:1590   */\n      0x00\n        /* \"#utility.yul\":1586:1587   */\n      dup1\n        /* \"#utility.yul\":1579:1591   */\n      revert\n        /* \"#utility.yul\":1541:1593   */\n    tag_231:\n        /* \"#utility.yul\":1612:1641   */\n      tag_232\n        /* \"#utility.yul\":1631:1640   */\n      dup5\n        /* \"#utility.yul\":1612:1641   */\n      tag_215\n      jump\t// in\n    tag_232:\n        /* \"#utility.yul\":1602:1641   */\n      swap3\n      pop\n        /* \"#utility.yul\":1660:1698   */\n      tag_233\n        /* \"#utility.yul\":1694:1696   */\n      0x20\n        /* \"#utility.yul\":1683:1692   */\n      dup6\n        /* \"#utility.yul\":1679:1697   */\n      add\n        /* \"#utility.yul\":1660:1698   */\n      tag_215\n      jump\t// in\n    tag_233:\n        /* \"#utility.yul\":1650:1698   */\n      swap2\n      pop\n        /* \"#utility.yul\":1745:1747   */\n      0x40\n        /* \"#utility.yul\":1734:1743   */\n      dup5\n        /* \"#utility.yul\":1730:1748   */\n      add\n        /* \"#utility.yul\":1717:1749   */\n      calldataload\n        /* \"#utility.yul\":1707:1749   */\n      swap1\n      pop\n        /* \"#utility.yul\":1427:1755   */\n      swap3\n      pop\n      swap3\n      pop\n      swap3\n      jump\t// out\n        /* \"#utility.yul\":1949:2135   */\n    tag_54:\n        /* \"#utility.yul\":2008:2014   */\n      0x00\n        /* \"#utility.yul\":2061:2063   */\n      0x20\n        /* \"#utility.yul\":2049:2058   */\n      dup3\n        /* \"#utility.yul\":2040:2047   */\n      dup5\n        /* \"#utility.yul\":2036:2059   */\n      sub\n        /* \"#utility.yul\":2032:2064   */\n      slt\n        /* \"#utility.yul\":2029:2081   */\n      iszero\n      tag_236\n      jumpi\n        /* \"#utility.yul\":2077:2078   */\n      0x00\n        /* \"#utility.yul\":2074:2075   */\n      dup1\n        /* \"#utility.yul\":2067:2079   */\n      revert\n        /* \"#utility.yul\":2029:2081   */\n    tag_236:\n        /* \"#utility.yul\":2100:2129   */\n      tag_237\n        /* \"#utility.yul\":2119:2128   */\n      dup3\n        /* \"#utility.yul\":2100:2129   */\n      tag_215\n      jump\t// in\n    tag_237:\n        /* \"#utility.yul\":2090:2129   */\n      swap4\n        /* \"#utility.yul\":1949:2135   */\n      swap3\n      pop\n      pop\n      pop\n      jump\t// out\n        /* \"#utility.yul\":2348:2608   */\n    tag_79:\n        /* \"#utility.yul\":2416:2422   */\n      0x00\n        /* \"#utility.yul\":2424:2430   */\n      dup1\n        /* \"#utility.yul\":2477:2479   */\n      0x40\n        /* \"#utility.yul\":2465:2474   */\n      dup4\n        /* \"#utility.yul\":2456:2463   */\n      dup6\n        /* \"#utility.yul\":2452:2475   */\n      sub\n        /* \"#utility.yul\":2448:2480   */\n      slt\n        /* \"#utility.yul\":2445:2497   */\n      iszero\n      tag_240\n      jumpi\n        /* \"#utility.yul\":2493:2494   */\n      0x00\n        /* \"#utility.yul\":2490:2491   */\n      dup1\n        /* \"#utility.yul\":2483:2495   */\n      revert\n        /* \"#utility.yul\":2445:2497   */\n    tag_240:\n        /* \"#utility.yul\":2516:2545   */\n      tag_241\n        /* \"#utility.yul\":2535:2544   */\n      dup4\n        /* \"#utility.yul\":2516:2545   */\n      tag_215\n      jump\t// in\n    tag_241:\n        /* \"#utility.yul\":2506:2545   */\n      swap2\n      pop\n        /* \"#utility.yul\":2564:2602   */\n      tag_242\n        /* \"#utility.yul\":2598:2600   */\n      0x20\n        /* \"#utility.yul\":2587:2596   */\n      dup5\n        /* \"#utility.yul\":2583:2601   */\n      add\n        /* \"#utility.yul\":2564:2602   */\n      tag_215\n      jump\t// in\n    tag_242:\n        /* \"#utility.yul\":2554:2602   */\n      swap1\n      pop\n        /* \"#utility.yul\":2348:2608   */\n      swap3\n      pop\n      swap3\n      swap1\n      pop\n      jump\t// out\n        /* \"#utility.yul\":2613:2993   */\n    tag_87:\n        /* \"#utility.yul\":2692:2693   */\n      0x01\n        /* \"#utility.yul\":2688:2700   */\n      dup2\n      dup2\n      shr\n      swap1\n        /* \"#utility.yul\":2735:2747   */\n      dup3\n      and\n      dup1\n        /* \"#utility.yul\":2756:2817   */\n      tag_244\n      jumpi\n        /* \"#utility.yul\":2810:2814   */\n      0x7f\n        /* \"#utility.yul\":2802:2808   */\n      dup3\n        /* \"#utility.yul\":2798:2815   */\n      and\n        /* \"#utility.yul\":2788:2815   */\n      swap2\n      pop\n        /* \"#utility.yul\":2756:2817   */\n    tag_244:\n        /* \"#utility.yul\":2863:2865   */\n      0x20\n        /* \"#utility.yul\":2855:2861   */\n      dup3\n        /* \"#utility.yul\":2852:2866   */\n      lt\n        /* \"#utility.yul\":2832:2850   */\n      dup2\n        /* \"#utility.yul\":2829:2867   */\n      eq\n        /* \"#utility.yul\":2826:2987   */\n      iszero\n      tag_245\n      jumpi\n        /* \"#utility.yul\":2909:2919   */\n      0x4e487b71\n        /* \"#utility.yul\":2904:2907   */\n      0xe0\n        /* \"#utility.yul\":2900:2920   */\n      shl\n        /* \"#utility.yul\":2897:2898   */\n      0x00\n        /* \"#utility.yul\":2890:2921   */\n      mstore\n        /* \"#utility.yul\":2944:2948   */\n      0x22\n        /* \"#utility.yul\":2941:2942   */\n      0x04\n        /* \"#utility.yul\":2934:2949   */\n      mstore\n        /* \"#utility.yul\":2972:2976   */\n      0x24\n        /* \"#utility.yul\":2969:2970   */\n      0x00\n        /* \"#utility.yul\":2962:2977   */\n      revert\n        /* \"#utility.yul\":2826:2987   */\n    tag_245:\n      pop\n        /* \"#utility.yul\":2613:2993   */\n      swap2\n      swap1\n      pop\n      jump\t// out\n        /* \"#utility.yul\":2998:3125   */\n    tag_216:\n        /* \"#utility.yul\":3059:3069   */\n      0x4e487b71\n        /* \"#utility.yul\":3054:3057   */\n      0xe0\n        /* \"#utility.yul\":3050:3070   */\n      shl\n        /* \"#utility.yul\":3047:3048   */\n      0x00\n        /* \"#utility.yul\":3040:3071   */\n      mstore\n        /* \"#utility.yul\":3090:3094   */\n      0x11\n        /* \"#utility.yul\":3087:3088   */\n      0x04\n        /* \"#utility.yul\":3080:3095   */\n      mstore\n        /* \"#utility.yul\":3114:3118   */\n      0x24\n        /* \"#utility.yul\":3111:3112   */\n      0x00\n        /* \"#utility.yul\":3104:3119   */\n      revert\n        /* \"#utility.yul\":3130:3258   */\n    tag_110:\n        /* \"#utility.yul\":3170:3173   */\n      0x00\n        /* \"#utility.yul\":3201:3202   */\n      dup3\n        /* \"#utility.yul\":3197:3203   */\n      not\n        /* \"#utility.yul\":3194:3195   */\n      dup3\n        /* \"#utility.yul\":3191:3204   */\n      gt\n        /* \"#utility.yul\":3188:3227   */\n      iszero\n      tag_249\n      jumpi\n        /* \"#utility.yul\":3207:3225   */\n      tag_249\n      tag_216\n      jump\t// in\n    tag_249:\n      pop\n        /* \"#utility.yul\":3243:3252   */\n      add\n      swap1\n        /* \"#utility.yul\":3130:3258   */\n      jump\t// out\n        /* \"#utility.yul\":7985:8110   */\n    tag_210:\n        /* \"#utility.yul\":8025:8029   */\n      0x00\n        /* \"#utility.yul\":8053:8054   */\n      dup3\n        /* \"#utility.yul\":8050:8051   */\n      dup3\n        /* \"#utility.yul\":8047:8055   */\n      lt\n        /* \"#utility.yul\":8044:8078   */\n      iszero\n      tag_264\n      jumpi\n        /* \"#utility.yul\":8058:8076   */\n      tag_264\n      tag_216\n      jump\t// in\n    tag_264:\n      pop\n        /* \"#utility.yul\":8095:8104   */\n      sub\n      swap1\n        /* \"#utility.yul\":7985:8110   */\n      jump\t// out\n\n    auxdata: 0xa2646970667358221220c2d9f19eb244994a6e9697dd7ff6845846720fd8be03f00b5040369f7318756664736f6c634300080c0033\n}\n",
				"bytecode": {
					"linkReferences": {},
					"object": "60806040523480156200001157600080fd5b50604080518082018252600680825265676d6442544360d01b6020808401828152855180870190965292855284015281519192916200005391600391620000e2565b50805162000069906004906020840190620000e2565b50505062000086620000806200008c60201b60201c565b62000090565b620001c5565b3390565b600580546001600160a01b038381166001600160a01b0319831681179093556040519116919082907f8be0079c531659141344cd1fd0a4f28419497f9722a3daafe3b4186f6b6457e090600090a35050565b828054620000f09062000188565b90600052602060002090601f0160209004810192826200011457600085556200015f565b82601f106200012f57805160ff19168380011785556200015f565b828001600101855582156200015f579182015b828111156200015f57825182559160200191906001019062000142565b506200016d92915062000171565b5090565b5b808211156200016d576000815560010162000172565b600181811c908216806200019d57607f821691505b60208210811415620001bf57634e487b7160e01b600052602260045260246000fd5b50919050565b610ce280620001d56000396000f3fe608060405234801561001057600080fd5b50600436106101005760003560e01c8063715018a611610097578063a457c2d711610066578063a457c2d714610209578063a9059cbb1461021c578063dd62ed3e1461022f578063f2fde38b1461024257600080fd5b8063715018a6146101cb5780638da5cb5b146101d357806395d89b41146101ee5780639dc29fac146101f657600080fd5b8063313ce567116100d3578063313ce5671461016b578063395093511461017a57806340c10f191461018d57806370a08231146101a257600080fd5b806306fdde0314610105578063095ea7b31461012357806318160ddd1461014657806323b872dd14610158575b600080fd5b61010d610255565b60405161011a9190610b00565b60405180910390f35b610136610131366004610b71565b6102e7565b604051901515815260200161011a565b6002545b60405190815260200161011a565b610136610166366004610b9b565b6102ff565b6040516012815260200161011a565b610136610188366004610b71565b610323565b6101a061019b366004610b71565b610345565b005b61014a6101b0366004610bd7565b6001600160a01b031660009081526020819052604090205490565b6101a061035b565b6005546040516001600160a01b03909116815260200161011a565b61010d61036f565b6101a0610204366004610b71565b61037e565b610136610217366004610b71565b610390565b61013661022a366004610b71565b610410565b61014a61023d366004610bf9565b61041e565b6101a0610250366004610bd7565b610449565b60606003805461026490610c2c565b80601f016020809104026020016040519081016040528092919081815260200182805461029090610c2c565b80156102dd5780601f106102b2576101008083540402835291602001916102dd565b820191906000526020600020905b8154815290600101906020018083116102c057829003601f168201915b5050505050905090565b6000336102f58185856104c2565b5060019392505050565b60003361030d8582856105e7565b610318858585610661565b506001949350505050565b6000336102f5818585610336838361041e565b6103409190610c7d565b6104c2565b61034d61082f565b6103578282610889565b5050565b61036361082f565b61036d6000610968565b565b60606004805461026490610c2c565b61038661082f565b61035782826109ba565b6000338161039e828661041e565b9050838110156104035760405162461bcd60e51b815260206004820152602560248201527f45524332303a2064656372656173656420616c6c6f77616e63652062656c6f77604482015264207a65726f60d81b60648201526084015b60405180910390fd5b61031882868684036104c2565b6000336102f5818585610661565b6001600160a01b03918216600090815260016020908152604080832093909416825291909152205490565b61045161082f565b6001600160a01b0381166104b65760405162461bcd60e51b815260206004820152602660248201527f4f776e61626c653a206e6577206f776e657220697320746865207a65726f206160448201526564647265737360d01b60648201526084016103fa565b6104bf81610968565b50565b6001600160a01b0383166105245760405162461bcd60e51b8152602060048201526024808201527f45524332303a20617070726f76652066726f6d20746865207a65726f206164646044820152637265737360e01b60648201526084016103fa565b6001600160a01b0382166105855760405162461bcd60e51b815260206004820152602260248201527f45524332303a20617070726f766520746f20746865207a65726f206164647265604482015261737360f01b60648201526084016103fa565b6001600160a01b0383811660008181526001602090815260408083209487168084529482529182902085905590518481527f8c5be1e5ebec7d5bd14f71427d1e84f3dd0314c0f7b2291e5b200ac8c7c3b92591015b60405180910390a3505050565b60006105f3848461041e565b9050600019811461065b578181101561064e5760405162461bcd60e51b815260206004820152601d60248201527f45524332303a20696e73756666696369656e7420616c6c6f77616e636500000060448201526064016103fa565b61065b84848484036104c2565b50505050565b6001600160a01b0383166106c55760405162461bcd60e51b815260206004820152602560248201527f45524332303a207472616e736665722066726f6d20746865207a65726f206164604482015264647265737360d81b60648201526084016103fa565b6001600160a01b0382166107275760405162461bcd60e51b815260206004820152602360248201527f45524332303a207472616e7366657220746f20746865207a65726f206164647260448201526265737360e81b60648201526084016103fa565b6001600160a01b0383166000908152602081905260409020548181101561079f5760405162461bcd60e51b815260206004820152602660248201527f45524332303a207472616e7366657220616d6f756e7420657863656564732062604482015265616c616e636560d01b60648201526084016103fa565b6001600160a01b038085166000908152602081905260408082208585039055918516815290812080548492906107d6908490610c7d565b92505081905550826001600160a01b0316846001600160a01b03167fddf252ad1be2c89b69c2b068fc378daa952ba7f163c4a11628f55a4df523b3ef8460405161082291815260200190565b60405180910390a361065b565b6005546001600160a01b0316331461036d5760405162461bcd60e51b815260206004820181905260248201527f4f776e61626c653a2063616c6c6572206973206e6f7420746865206f776e657260448201526064016103fa565b6001600160a01b0382166108df5760405162461bcd60e51b815260206004820152601f60248201527f45524332303a206d696e7420746f20746865207a65726f20616464726573730060448201526064016103fa565b80600260008282546108f19190610c7d565b90915550506001600160a01b0382166000908152602081905260408120805483929061091e908490610c7d565b90915550506040518181526001600160a01b038316906000907fddf252ad1be2c89b69c2b068fc378daa952ba7f163c4a11628f55a4df523b3ef9060200160405180910390a35050565b600580546001600160a01b038381166001600160a01b0319831681179093556040519116919082907f8be0079c531659141344cd1fd0a4f28419497f9722a3daafe3b4186f6b6457e090600090a35050565b6001600160a01b038216610a1a5760405162461bcd60e51b815260206004820152602160248201527f45524332303a206275726e2066726f6d20746865207a65726f206164647265736044820152607360f81b60648201526084016103fa565b6001600160a01b03821660009081526020819052604090205481811015610a8e5760405162461bcd60e51b815260206004820152602260248201527f45524332303a206275726e20616d6f756e7420657863656564732062616c616e604482015261636560f01b60648201526084016103fa565b6001600160a01b0383166000908152602081905260408120838303905560028054849290610abd908490610c95565b90915550506040518281526000906001600160a01b038516907fddf252ad1be2c89b69c2b068fc378daa952ba7f163c4a11628f55a4df523b3ef906020016105da565b600060208083528351808285015260005b81811015610b2d57858101830151858201604001528201610b11565b81811115610b3f576000604083870101525b50601f01601f1916929092016040019392505050565b80356001600160a01b0381168114610b6c57600080fd5b919050565b60008060408385031215610b8457600080fd5b610b8d83610b55565b946020939093013593505050565b600080600060608486031215610bb057600080fd5b610bb984610b55565b9250610bc760208501610b55565b9150604084013590509250925092565b600060208284031215610be957600080fd5b610bf282610b55565b9392505050565b60008060408385031215610c0c57600080fd5b610c1583610b55565b9150610c2360208401610b55565b90509250929050565b600181811c90821680610c4057607f821691505b60208210811415610c6157634e487b7160e01b600052602260045260246000fd5b50919050565b634e487b7160e01b600052601160045260246000fd5b60008219821115610c9057610c90610c67565b500190565b600082821015610ca757610ca7610c67565b50039056fea2646970667358221220c2d9f19eb244994a6e9697dd7ff6845846720fd8be03f00b5040369f7318756664736f6c634300080c0033",
					"opcodes": "PUSH1 0x80 PUSH1 0x40 MSTORE CALLVALUE DUP1 ISZERO PUSH3 0x11 JUMPI PUSH1 0x0 DUP1 REVERT JUMPDEST POP PUSH1 0x40 DUP1 MLOAD DUP1 DUP3 ADD DUP3 MSTORE PUSH1 0x6 DUP1 DUP3 MSTORE PUSH6 0x676D64425443 PUSH1 0xD0 SHL PUSH1 0x20 DUP1 DUP5 ADD DUP3 DUP2 MSTORE DUP6 MLOAD DUP1 DUP8 ADD SWAP1 SWAP7 MSTORE SWAP3 DUP6 MSTORE DUP5 ADD MSTORE DUP2 MLOAD SWAP2 SWAP3 SWAP2 PUSH3 0x53 SWAP2 PUSH1 0x3 SWAP2 PUSH3 0xE2 JUMP JUMPDEST POP DUP1 MLOAD PUSH3 0x69 SWAP1 PUSH1 0x4 SWAP1 PUSH1 0x20 DUP5 ADD SWAP1 PUSH3 0xE2 JUMP JUMPDEST POP POP POP PUSH3 0x86 PUSH3 0x80 PUSH3 0x8C PUSH1 0x20 SHL PUSH1 0x20 SHR JUMP JUMPDEST PUSH3 0x90 JUMP JUMPDEST PUSH3 0x1C5 JUMP JUMPDEST CALLER SWAP1 JUMP JUMPDEST PUSH1 0x5 DUP1 SLOAD PUSH1 0x1 PUSH1 0x1 PUSH1 0xA0 SHL SUB DUP4 DUP2 AND PUSH1 0x1 PUSH1 0x1 PUSH1 0xA0 SHL SUB NOT DUP4 AND DUP2 OR SWAP1 SWAP4 SSTORE PUSH1 0x40 MLOAD SWAP2 AND SWAP2 SWAP1 DUP3 SWAP1 PUSH32 0x8BE0079C531659141344CD1FD0A4F28419497F9722A3DAAFE3B4186F6B6457E0 SWAP1 PUSH1 0x0 SWAP1 LOG3 POP POP JUMP JUMPDEST DUP3 DUP1 SLOAD PUSH3 0xF0 SWAP1 PUSH3 0x188 JUMP JUMPDEST SWAP1 PUSH1 0x0 MSTORE PUSH1 0x20 PUSH1 0x0 KECCAK256 SWAP1 PUSH1 0x1F ADD PUSH1 0x20 SWAP1 DIV DUP2 ADD SWAP3 DUP3 PUSH3 0x114 JUMPI PUSH1 0x0 DUP6 SSTORE PUSH3 0x15F JUMP JUMPDEST DUP3 PUSH1 0x1F LT PUSH3 0x12F JUMPI DUP1 MLOAD PUSH1 0xFF NOT AND DUP4 DUP1 ADD OR DUP6 SSTORE PUSH3 0x15F JUMP JUMPDEST DUP3 DUP1 ADD PUSH1 0x1 ADD DUP6 SSTORE DUP3 ISZERO PUSH3 0x15F JUMPI SWAP2 DUP3 ADD JUMPDEST DUP3 DUP2 GT ISZERO PUSH3 0x15F JUMPI DUP3 MLOAD DUP3 SSTORE SWAP2 PUSH1 0x20 ADD SWAP2 SWAP1 PUSH1 0x1 ADD SWAP1 PUSH3 0x142 JUMP JUMPDEST POP PUSH3 0x16D SWAP3 SWAP2 POP PUSH3 0x171 JUMP JUMPDEST POP SWAP1 JUMP JUMPDEST JUMPDEST DUP1 DUP3 GT ISZERO PUSH3 0x16D JUMPI PUSH1 0x0 DUP2 SSTORE PUSH1 0x1 ADD PUSH3 0x172 JUMP JUMPDEST PUSH1 0x1 DUP2 DUP2 SHR SWAP1 DUP3 AND DUP1 PUSH3 0x19D JUMPI PUSH1 0x7F DUP3 AND SWAP2 POP JUMPDEST PUSH1 0x20 DUP3 LT DUP2 EQ ISZERO PUSH3 0x1BF JUMPI PUSH4 0x4E487B71 PUSH1 0xE0 SHL PUSH1 0x0 MSTORE PUSH1 0x22 PUSH1 0x4 MSTORE PUSH1 0x24 PUSH1 0x0 REVERT JUMPDEST POP SWAP2 SWAP1 POP JUMP JUMPDEST PUSH2 0xCE2 DUP1 PUSH3 0x1D5 PUSH1 0x0 CODECOPY PUSH1 0x0 RETURN INVALID PUSH1 0x80 PUSH1 0x40 MSTORE CALLVALUE DUP1 ISZERO PUSH2 0x10 JUMPI PUSH1 0x0 DUP1 REVERT JUMPDEST POP PUSH1 0x4 CALLDATASIZE LT PUSH2 0x100 JUMPI PUSH1 0x0 CALLDATALOAD PUSH1 0xE0 SHR DUP1 PUSH4 0x715018A6 GT PUSH2 0x97 JUMPI DUP1 PUSH4 0xA457C2D7 GT PUSH2 0x66 JUMPI DUP1 PUSH4 0xA457C2D7 EQ PUSH2 0x209 JUMPI DUP1 PUSH4 0xA9059CBB EQ PUSH2 0x21C JUMPI DUP1 PUSH4 0xDD62ED3E EQ PUSH2 0x22F JUMPI DUP1 PUSH4 0xF2FDE38B EQ PUSH2 0x242 JUMPI PUSH1 0x0 DUP1 REVERT JUMPDEST DUP1 PUSH4 0x715018A6 EQ PUSH2 0x1CB JUMPI DUP1 PUSH4 0x8DA5CB5B EQ PUSH2 0x1D3 JUMPI DUP1 PUSH4 0x95D89B41 EQ PUSH2 0x1EE JUMPI DUP1 PUSH4 0x9DC29FAC EQ PUSH2 0x1F6 JUMPI PUSH1 0x0 DUP1 REVERT JUMPDEST DUP1 PUSH4 0x313CE567 GT PUSH2 0xD3 JUMPI DUP1 PUSH4 0x313CE567 EQ PUSH2 0x16B JUMPI DUP1 PUSH4 0x39509351 EQ PUSH2 0x17A JUMPI DUP1 PUSH4 0x40C10F19 EQ PUSH2 0x18D JUMPI DUP1 PUSH4 0x70A08231 EQ PUSH2 0x1A2 JUMPI PUSH1 0x0 DUP1 REVERT JUMPDEST DUP1 PUSH4 0x6FDDE03 EQ PUSH2 0x105 JUMPI DUP1 PUSH4 0x95EA7B3 EQ PUSH2 0x123 JUMPI DUP1 PUSH4 0x18160DDD EQ PUSH2 0x146 JUMPI DUP1 PUSH4 0x23B872DD EQ PUSH2 0x158 JUMPI JUMPDEST PUSH1 0x0 DUP1 REVERT JUMPDEST PUSH2 0x10D PUSH2 0x255 JUMP JUMPDEST PUSH1 0x40 MLOAD PUSH2 0x11A SWAP2 SWAP1 PUSH2 0xB00 JUMP JUMPDEST PUSH1 0x40 MLOAD DUP1 SWAP2 SUB SWAP1 RETURN JUMPDEST PUSH2 0x136 PUSH2 0x131 CALLDATASIZE PUSH1 0x4 PUSH2 0xB71 JUMP JUMPDEST PUSH2 0x2E7 JUMP JUMPDEST PUSH1 0x40 MLOAD SWAP1 ISZERO ISZERO DUP2 MSTORE PUSH1 0x20 ADD PUSH2 0x11A JUMP JUMPDEST PUSH1 0x2 SLOAD JUMPDEST PUSH1 0x40 MLOAD SWAP1 DUP2 MSTORE PUSH1 0x20 ADD PUSH2 0x11A JUMP JUMPDEST PUSH2 0x136 PUSH2 0x166 CALLDATASIZE PUSH1 0x4 PUSH2 0xB9B JUMP JUMPDEST PUSH2 0x2FF JUMP JUMPDEST PUSH1 0x40 MLOAD PUSH1 0x12 DUP2 MSTORE PUSH1 0x20 ADD PUSH2 0x11A JUMP JUMPDEST PUSH2 0x136 PUSH2 0x188 CALLDATASIZE PUSH1 0x4 PUSH2 0xB71 JUMP JUMPDEST PUSH2 0x323 JUMP JUMPDEST PUSH2 0x1A0 PUSH2 0x19B CALLDATASIZE PUSH1 0x4 PUSH2 0xB71 JUMP JUMPDEST PUSH2 0x345 JUMP JUMPDEST STOP JUMPDEST PUSH2 0x14A PUSH2 0x1B0 CALLDATASIZE PUSH1 0x4 PUSH2 0xBD7 JUMP JUMPDEST PUSH1 0x1 PUSH1 0x1 PUSH1 0xA0 SHL SUB AND PUSH1 0x0 SWAP1 DUP2 MSTORE PUSH1 0x20 DUP2 SWAP1 MSTORE PUSH1 0x40 SWAP1 KECCAK256 SLOAD SWAP1 JUMP JUMPDEST PUSH2 0x1A0 PUSH2 0x35B JUMP JUMPDEST PUSH1 0x5 SLOAD PUSH1 0x40 MLOAD PUSH1 0x1 PUSH1 0x1 PUSH1 0xA0 SHL SUB SWAP1 SWAP2 AND DUP2 MSTORE PUSH1 0x20 ADD PUSH2 0x11A JUMP JUMPDEST PUSH2 0x10D PUSH2 0x36F JUMP JUMPDEST PUSH2 0x1A0 PUSH2 0x204 CALLDATASIZE PUSH1 0x4 PUSH2 0xB71 JUMP JUMPDEST PUSH2 0x37E JUMP JUMPDEST PUSH2 0x136 PUSH2 0x217 CALLDATASIZE PUSH1 0x4 PUSH2 0xB71 JUMP JUMPDEST PUSH2 0x390 JUMP JUMPDEST PUSH2 0x136 PUSH2 0x22A CALLDATASIZE PUSH1 0x4 PUSH2 0xB71 JUMP JUMPDEST PUSH2 0x410 JUMP JUMPDEST PUSH2 0x14A PUSH2 0x23D CALLDATASIZE PUSH1 0x4 PUSH2 0xBF9 JUMP JUMPDEST PUSH2 0x41E JUMP JUMPDEST PUSH2 0x1A0 PUSH2 0x250 CALLDATASIZE PUSH1 0x4 PUSH2 0xBD7 JUMP JUMPDEST PUSH2 0x449 JUMP JUMPDEST PUSH1 0x60 PUSH1 0x3 DUP1 SLOAD PUSH2 0x264 SWAP1 PUSH2 0xC2C JUMP JUMPDEST DUP1 PUSH1 0x1F ADD PUSH1 0x20 DUP1 SWAP2 DIV MUL PUSH1 0x20 ADD PUSH1 0x40 MLOAD SWAP1 DUP2 ADD PUSH1 0x40 MSTORE DUP1 SWAP3 SWAP2 SWAP1 DUP2 DUP2 MSTORE PUSH1 0x20 ADD DUP3 DUP1 SLOAD PUSH2 0x290 SWAP1 PUSH2 0xC2C JUMP JUMPDEST DUP1 ISZERO PUSH2 0x2DD JUMPI DUP1 PUSH1 0x1F LT PUSH2 0x2B2 JUMPI PUSH2 0x100 DUP1 DUP4 SLOAD DIV MUL DUP4 MSTORE SWAP2 PUSH1 0x20 ADD SWAP2 PUSH2 0x2DD JUMP JUMPDEST DUP3 ADD SWAP2 SWAP1 PUSH1 0x0 MSTORE PUSH1 0x20 PUSH1 0x0 KECCAK256 SWAP1 JUMPDEST DUP2 SLOAD DUP2 MSTORE SWAP1 PUSH1 0x1 ADD SWAP1 PUSH1 0x20 ADD DUP1 DUP4 GT PUSH2 0x2C0 JUMPI DUP3 SWAP1 SUB PUSH1 0x1F AND DUP3 ADD SWAP2 JUMPDEST POP POP POP POP POP SWAP1 POP SWAP1 JUMP JUMPDEST PUSH1 0x0 CALLER PUSH2 0x2F5 DUP2 DUP6 DUP6 PUSH2 0x4C2 JUMP JUMPDEST POP PUSH1 0x1 SWAP4 SWAP3 POP POP POP JUMP JUMPDEST PUSH1 0x0 CALLER PUSH2 0x30D DUP6 DUP3 DUP6 PUSH2 0x5E7 JUMP JUMPDEST PUSH2 0x318 DUP6 DUP6 DUP6 PUSH2 0x661 JUMP JUMPDEST POP PUSH1 0x1 SWAP5 SWAP4 POP POP POP POP JUMP JUMPDEST PUSH1 0x0 CALLER PUSH2 0x2F5 DUP2 DUP6 DUP6 PUSH2 0x336 DUP4 DUP4 PUSH2 0x41E JUMP JUMPDEST PUSH2 0x340 SWAP2 SWAP1 PUSH2 0xC7D JUMP JUMPDEST PUSH2 0x4C2 JUMP JUMPDEST PUSH2 0x34D PUSH2 0x82F JUMP JUMPDEST PUSH2 0x357 DUP3 DUP3 PUSH2 0x889 JUMP JUMPDEST POP POP JUMP JUMPDEST PUSH2 0x363 PUSH2 0x82F JUMP JUMPDEST PUSH2 0x36D PUSH1 0x0 PUSH2 0x968 JUMP JUMPDEST JUMP JUMPDEST PUSH1 0x60 PUSH1 0x4 DUP1 SLOAD PUSH2 0x264 SWAP1 PUSH2 0xC2C JUMP JUMPDEST PUSH2 0x386 PUSH2 0x82F JUMP JUMPDEST PUSH2 0x357 DUP3 DUP3 PUSH2 0x9BA JUMP JUMPDEST PUSH1 0x0 CALLER DUP2 PUSH2 0x39E DUP3 DUP7 PUSH2 0x41E JUMP JUMPDEST SWAP1 POP DUP4 DUP2 LT ISZERO PUSH2 0x403 JUMPI PUSH1 0x40 MLOAD PUSH3 0x461BCD PUSH1 0xE5 SHL DUP2 MSTORE PUSH1 0x20 PUSH1 0x4 DUP3 ADD MSTORE PUSH1 0x25 PUSH1 0x24 DUP3 ADD MSTORE PUSH32 0x45524332303A2064656372656173656420616C6C6F77616E63652062656C6F77 PUSH1 0x44 DUP3 ADD MSTORE PUSH5 0x207A65726F PUSH1 0xD8 SHL PUSH1 0x64 DUP3 ADD MSTORE PUSH1 0x84 ADD JUMPDEST PUSH1 0x40 MLOAD DUP1 SWAP2 SUB SWAP1 REVERT JUMPDEST PUSH2 0x318 DUP3 DUP7 DUP7 DUP5 SUB PUSH2 0x4C2 JUMP JUMPDEST PUSH1 0x0 CALLER PUSH2 0x2F5 DUP2 DUP6 DUP6 PUSH2 0x661 JUMP JUMPDEST PUSH1 0x1 PUSH1 0x1 PUSH1 0xA0 SHL SUB SWAP2 DUP3 AND PUSH1 0x0 SWAP1 DUP2 MSTORE PUSH1 0x1 PUSH1 0x20 SWAP1 DUP2 MSTORE PUSH1 0x40 DUP1 DUP4 KECCAK256 SWAP4 SWAP1 SWAP5 AND DUP3 MSTORE SWAP2 SWAP1 SWAP2 MSTORE KECCAK256 SLOAD SWAP1 JUMP JUMPDEST PUSH2 0x451 PUSH2 0x82F JUMP JUMPDEST PUSH1 0x1 PUSH1 0x1 PUSH1 0xA0 SHL SUB DUP2 AND PUSH2 0x4B6 JUMPI PUSH1 0x40 MLOAD PUSH3 0x461BCD PUSH1 0xE5 SHL DUP2 MSTORE PUSH1 0x20 PUSH1 0x4 DUP3 ADD MSTORE PUSH1 0x26 PUSH1 0x24 DUP3 ADD MSTORE PUSH32 0x4F776E61626C653A206E6577206F776E657220697320746865207A65726F2061 PUSH1 0x44 DUP3 ADD MSTORE PUSH6 0x646472657373 PUSH1 0xD0 SHL PUSH1 0x64 DUP3 ADD MSTORE PUSH1 0x84 ADD PUSH2 0x3FA JUMP JUMPDEST PUSH2 0x4BF DUP2 PUSH2 0x968 JUMP JUMPDEST POP JUMP JUMPDEST PUSH1 0x1 PUSH1 0x1 PUSH1 0xA0 SHL SUB DUP4 AND PUSH2 0x524 JUMPI PUSH1 0x40 MLOAD PUSH3 0x461BCD PUSH1 0xE5 SHL DUP2 MSTORE PUSH1 0x20 PUSH1 0x4 DUP3 ADD MSTORE PUSH1 0x24 DUP1 DUP3 ADD MSTORE PUSH32 0x45524332303A20617070726F76652066726F6D20746865207A65726F20616464 PUSH1 0x44 DUP3 ADD MSTORE PUSH4 0x72657373 PUSH1 0xE0 SHL PUSH1 0x64 DUP3 ADD MSTORE PUSH1 0x84 ADD PUSH2 0x3FA JUMP JUMPDEST PUSH1 0x1 PUSH1 0x1 PUSH1 0xA0 SHL SUB DUP3 AND PUSH2 0x585 JUMPI PUSH1 0x40 MLOAD PUSH3 0x461BCD PUSH1 0xE5 SHL DUP2 MSTORE PUSH1 0x20 PUSH1 0x4 DUP3 ADD MSTORE PUSH1 0x22 PUSH1 0x24 DUP3 ADD MSTORE PUSH32 0x45524332303A20617070726F766520746F20746865207A65726F206164647265 PUSH1 0x44 DUP3 ADD MSTORE PUSH2 0x7373 PUSH1 0xF0 SHL PUSH1 0x64 DUP3 ADD MSTORE PUSH1 0x84 ADD PUSH2 0x3FA JUMP JUMPDEST PUSH1 0x1 PUSH1 0x1 PUSH1 0xA0 SHL SUB DUP4 DUP2 AND PUSH1 0x0 DUP2 DUP2 MSTORE PUSH1 0x1 PUSH1 0x20 SWAP1 DUP2 MSTORE PUSH1 0x40 DUP1 DUP4 KECCAK256 SWAP5 DUP8 AND DUP1 DUP5 MSTORE SWAP5 DUP3 MSTORE SWAP2 DUP3 SWAP1 KECCAK256 DUP6 SWAP1 SSTORE SWAP1 MLOAD DUP5 DUP2 MSTORE PUSH32 0x8C5BE1E5EBEC7D5BD14F71427D1E84F3DD0314C0F7B2291E5B200AC8C7C3B925 SWAP2 ADD JUMPDEST PUSH1 0x40 MLOAD DUP1 SWAP2 SUB SWAP1 LOG3 POP POP POP JUMP JUMPDEST PUSH1 0x0 PUSH2 0x5F3 DUP5 DUP5 PUSH2 0x41E JUMP JUMPDEST SWAP1 POP PUSH1 0x0 NOT DUP2 EQ PUSH2 0x65B JUMPI DUP2 DUP2 LT ISZERO PUSH2 0x64E JUMPI PUSH1 0x40 MLOAD PUSH3 0x461BCD PUSH1 0xE5 SHL DUP2 MSTORE PUSH1 0x20 PUSH1 0x4 DUP3 ADD MSTORE PUSH1 0x1D PUSH1 0x24 DUP3 ADD MSTORE PUSH32 0x45524332303A20696E73756666696369656E7420616C6C6F77616E6365000000 PUSH1 0x44 DUP3 ADD MSTORE PUSH1 0x64 ADD PUSH2 0x3FA JUMP JUMPDEST PUSH2 0x65B DUP5 DUP5 DUP5 DUP5 SUB PUSH2 0x4C2 JUMP JUMPDEST POP POP POP POP JUMP JUMPDEST PUSH1 0x1 PUSH1 0x1 PUSH1 0xA0 SHL SUB DUP4 AND PUSH2 0x6C5 JUMPI PUSH1 0x40 MLOAD PUSH3 0x461BCD PUSH1 0xE5 SHL DUP2 MSTORE PUSH1 0x20 PUSH1 0x4 DUP3 ADD MSTORE PUSH1 0x25 PUSH1 0x24 DUP3 ADD MSTORE PUSH32 0x45524332303A207472616E736665722066726F6D20746865207A65726F206164 PUSH1 0x44 DUP3 ADD MSTORE PUSH5 0x6472657373 PUSH1 0xD8 SHL PUSH1 0x64 DUP3 ADD MSTORE PUSH1 0x84 ADD PUSH2 0x3FA JUMP JUMPDEST PUSH1 0x1 PUSH1 0x1 PUSH1 0xA0 SHL SUB DUP3 AND PUSH2 0x727 JUMPI PUSH1 0x40 MLOAD PUSH3 0x461BCD PUSH1 0xE5 SHL DUP2 MSTORE PUSH1 0x20 PUSH1 0x4 DUP3 ADD MSTORE PUSH1 0x23 PUSH1 0x24 DUP3 ADD MSTORE PUSH32 0x45524332303A207472616E7366657220746F20746865207A65726F2061646472 PUSH1 0x44 DUP3 ADD MSTORE PUSH3 0x657373 PUSH1 0xE8 SHL PUSH1 0x64 DUP3 ADD MSTORE PUSH1 0x84 ADD PUSH2 0x3FA JUMP JUMPDEST PUSH1 0x1 PUSH1 0x1 PUSH1 0xA0 SHL SUB DUP4 AND PUSH1 0x0 SWAP1 DUP2 MSTORE PUSH1 0x20 DUP2 SWAP1 MSTORE PUSH1 0x40 SWAP1 KECCAK256 SLOAD DUP2 DUP2 LT ISZERO PUSH2 0x79F JUMPI PUSH1 0x40 MLOAD PUSH3 0x461BCD PUSH1 0xE5 SHL DUP2 MSTORE PUSH1 0x20 PUSH1 0x4 DUP3 ADD MSTORE PUSH1 0x26 PUSH1 0x24 DUP3 ADD MSTORE PUSH32 0x45524332303A207472616E7366657220616D6F756E7420657863656564732062 PUSH1 0x44 DUP3 ADD MSTORE PUSH6 0x616C616E6365 PUSH1 0xD0 SHL PUSH1 0x64 DUP3 ADD MSTORE PUSH1 0x84 ADD PUSH2 0x3FA JUMP JUMPDEST PUSH1 0x1 PUSH1 0x1 PUSH1 0xA0 SHL SUB DUP1 DUP6 AND PUSH1 0x0 SWAP1 DUP2 MSTORE PUSH1 0x20 DUP2 SWAP1 MSTORE PUSH1 0x40 DUP1 DUP3 KECCAK256 DUP6 DUP6 SUB SWAP1 SSTORE SWAP2 DUP6 AND DUP2 MSTORE SWAP1 DUP2 KECCAK256 DUP1 SLOAD DUP5 SWAP3 SWAP1 PUSH2 0x7D6 SWAP1 DUP5 SWAP1 PUSH2 0xC7D JUMP JUMPDEST SWAP3 POP POP DUP2 SWAP1 SSTORE POP DUP3 PUSH1 0x1 PUSH1 0x1 PUSH1 0xA0 SHL SUB AND DUP5 PUSH1 0x1 PUSH1 0x1 PUSH1 0xA0 SHL SUB AND PUSH32 0xDDF252AD1BE2C89B69C2B068FC378DAA952BA7F163C4A11628F55A4DF523B3EF DUP5 PUSH1 0x40 MLOAD PUSH2 0x822 SWAP2 DUP2 MSTORE PUSH1 0x20 ADD SWAP1 JUMP JUMPDEST PUSH1 0x40 MLOAD DUP1 SWAP2 SUB SWAP1 LOG3 PUSH2 0x65B JUMP JUMPDEST PUSH1 0x5 SLOAD PUSH1 0x1 PUSH1 0x1 PUSH1 0xA0 SHL SUB AND CALLER EQ PUSH2 0x36D JUMPI PUSH1 0x40 MLOAD PUSH3 0x461BCD PUSH1 0xE5 SHL DUP2 MSTORE PUSH1 0x20 PUSH1 0x4 DUP3 ADD DUP2 SWAP1 MSTORE PUSH1 0x24 DUP3 ADD MSTORE PUSH32 0x4F776E61626C653A2063616C6C6572206973206E6F7420746865206F776E6572 PUSH1 0x44 DUP3 ADD MSTORE PUSH1 0x64 ADD PUSH2 0x3FA JUMP JUMPDEST PUSH1 0x1 PUSH1 0x1 PUSH1 0xA0 SHL SUB DUP3 AND PUSH2 0x8DF JUMPI PUSH1 0x40 MLOAD PUSH3 0x461BCD PUSH1 0xE5 SHL DUP2 MSTORE PUSH1 0x20 PUSH1 0x4 DUP3 ADD MSTORE PUSH1 0x1F PUSH1 0x24 DUP3 ADD MSTORE PUSH32 0x45524332303A206D696E7420746F20746865207A65726F206164647265737300 PUSH1 0x44 DUP3 ADD MSTORE PUSH1 0x64 ADD PUSH2 0x3FA JUMP JUMPDEST DUP1 PUSH1 0x2 PUSH1 0x0 DUP3 DUP3 SLOAD PUSH2 0x8F1 SWAP2 SWAP1 PUSH2 0xC7D JUMP JUMPDEST SWAP1 SWAP2 SSTORE POP POP PUSH1 0x1 PUSH1 0x1 PUSH1 0xA0 SHL SUB DUP3 AND PUSH1 0x0 SWAP1 DUP2 MSTORE PUSH1 0x20 DUP2 SWAP1 MSTORE PUSH1 0x40 DUP2 KECCAK256 DUP1 SLOAD DUP4 SWAP3 SWAP1 PUSH2 0x91E SWAP1 DUP5 SWAP1 PUSH2 0xC7D JUMP JUMPDEST SWAP1 SWAP2 SSTORE POP POP PUSH1 0x40 MLOAD DUP2 DUP2 MSTORE PUSH1 0x1 PUSH1 0x1 PUSH1 0xA0 SHL SUB DUP4 AND SWAP1 PUSH1 0x0 SWAP1 PUSH32 0xDDF252AD1BE2C89B69C2B068FC378DAA952BA7F163C4A11628F55A4DF523B3EF SWAP1 PUSH1 0x20 ADD PUSH1 0x40 MLOAD DUP1 SWAP2 SUB SWAP1 LOG3 POP POP JUMP JUMPDEST PUSH1 0x5 DUP1 SLOAD PUSH1 0x1 PUSH1 0x1 PUSH1 0xA0 SHL SUB DUP4 DUP2 AND PUSH1 0x1 PUSH1 0x1 PUSH1 0xA0 SHL SUB NOT DUP4 AND DUP2 OR SWAP1 SWAP4 SSTORE PUSH1 0x40 MLOAD SWAP2 AND SWAP2 SWAP1 DUP3 SWAP1 PUSH32 0x8BE0079C531659141344CD1FD0A4F28419497F9722A3DAAFE3B4186F6B6457E0 SWAP1 PUSH1 0x0 SWAP1 LOG3 POP POP JUMP JUMPDEST PUSH1 0x1 PUSH1 0x1 PUSH1 0xA0 SHL SUB DUP3 AND PUSH2 0xA1A JUMPI PUSH1 0x40 MLOAD PUSH3 0x461BCD PUSH1 0xE5 SHL DUP2 MSTORE PUSH1 0x20 PUSH1 0x4 DUP3 ADD MSTORE PUSH1 0x21 PUSH1 0x24 DUP3 ADD MSTORE PUSH32 0x45524332303A206275726E2066726F6D20746865207A65726F20616464726573 PUSH1 0x44 DUP3 ADD MSTORE PUSH1 0x73 PUSH1 0xF8 SHL PUSH1 0x64 DUP3 ADD MSTORE PUSH1 0x84 ADD PUSH2 0x3FA JUMP JUMPDEST PUSH1 0x1 PUSH1 0x1 PUSH1 0xA0 SHL SUB DUP3 AND PUSH1 0x0 SWAP1 DUP2 MSTORE PUSH1 0x20 DUP2 SWAP1 MSTORE PUSH1 0x40 SWAP1 KECCAK256 SLOAD DUP2 DUP2 LT ISZERO PUSH2 0xA8E JUMPI PUSH1 0x40 MLOAD PUSH3 0x461BCD PUSH1 0xE5 SHL DUP2 MSTORE PUSH1 0x20 PUSH1 0x4 DUP3 ADD MSTORE PUSH1 0x22 PUSH1 0x24 DUP3 ADD MSTORE PUSH32 0x45524332303A206275726E20616D6F756E7420657863656564732062616C616E PUSH1 0x44 DUP3 ADD MSTORE PUSH2 0x6365 PUSH1 0xF0 SHL PUSH1 0x64 DUP3 ADD MSTORE PUSH1 0x84 ADD PUSH2 0x3FA JUMP JUMPDEST PUSH1 0x1 PUSH1 0x1 PUSH1 0xA0 SHL SUB DUP4 AND PUSH1 0x0 SWAP1 DUP2 MSTORE PUSH1 0x20 DUP2 SWAP1 MSTORE PUSH1 0x40 DUP2 KECCAK256 DUP4 DUP4 SUB SWAP1 SSTORE PUSH1 0x2 DUP1 SLOAD DUP5 SWAP3 SWAP1 PUSH2 0xABD SWAP1 DUP5 SWAP1 PUSH2 0xC95 JUMP JUMPDEST SWAP1 SWAP2 SSTORE POP POP PUSH1 0x40 MLOAD DUP3 DUP2 MSTORE PUSH1 0x0 SWAP1 PUSH1 0x1 PUSH1 0x1 PUSH1 0xA0 SHL SUB DUP6 AND SWAP1 PUSH32 0xDDF252AD1BE2C89B69C2B068FC378DAA952BA7F163C4A11628F55A4DF523B3EF SWAP1 PUSH1 0x20 ADD PUSH2 0x5DA JUMP JUMPDEST PUSH1 0x0 PUSH1 0x20 DUP1 DUP4 MSTORE DUP4 MLOAD DUP1 DUP3 DUP6 ADD MSTORE PUSH1 0x0 JUMPDEST DUP2 DUP2 LT ISZERO PUSH2 0xB2D JUMPI DUP6 DUP2 ADD DUP4 ADD MLOAD DUP6 DUP3 ADD PUSH1 0x40 ADD MSTORE DUP3 ADD PUSH2 0xB11 JUMP JUMPDEST DUP2 DUP2 GT ISZERO PUSH2 0xB3F JUMPI PUSH1 0x0 PUSH1 0x40 DUP4 DUP8 ADD ADD MSTORE JUMPDEST POP PUSH1 0x1F ADD PUSH1 0x1F NOT AND SWAP3 SWAP1 SWAP3 ADD PUSH1 0x40 ADD SWAP4 SWAP3 POP POP POP JUMP JUMPDEST DUP1 CALLDATALOAD PUSH1 0x1 PUSH1 0x1 PUSH1 0xA0 SHL SUB DUP2 AND DUP2 EQ PUSH2 0xB6C JUMPI PUSH1 0x0 DUP1 REVERT JUMPDEST SWAP2 SWAP1 POP JUMP JUMPDEST PUSH1 0x0 DUP1 PUSH1 0x40 DUP4 DUP6 SUB SLT ISZERO PUSH2 0xB84 JUMPI PUSH1 0x0 DUP1 REVERT JUMPDEST PUSH2 0xB8D DUP4 PUSH2 0xB55 JUMP JUMPDEST SWAP5 PUSH1 0x20 SWAP4 SWAP1 SWAP4 ADD CALLDATALOAD SWAP4 POP POP POP JUMP JUMPDEST PUSH1 0x0 DUP1 PUSH1 0x0 PUSH1 0x60 DUP5 DUP7 SUB SLT ISZERO PUSH2 0xBB0 JUMPI PUSH1 0x0 DUP1 REVERT JUMPDEST PUSH2 0xBB9 DUP5 PUSH2 0xB55 JUMP JUMPDEST SWAP3 POP PUSH2 0xBC7 PUSH1 0x20 DUP6 ADD PUSH2 0xB55 JUMP JUMPDEST SWAP2 POP PUSH1 0x40 DUP5 ADD CALLDATALOAD SWAP1 POP SWAP3 POP SWAP3 POP SWAP3 JUMP JUMPDEST PUSH1 0x0 PUSH1 0x20 DUP3 DUP5 SUB SLT ISZERO PUSH2 0xBE9 JUMPI PUSH1 0x0 DUP1 REVERT JUMPDEST PUSH2 0xBF2 DUP3 PUSH2 0xB55 JUMP JUMPDEST SWAP4 SWAP3 POP POP POP JUMP JUMPDEST PUSH1 0x0 DUP1 PUSH1 0x40 DUP4 DUP6 SUB SLT ISZERO PUSH2 0xC0C JUMPI PUSH1 0x0 DUP1 REVERT JUMPDEST PUSH2 0xC15 DUP4 PUSH2 0xB55 JUMP JUMPDEST SWAP2 POP PUSH2 0xC23 PUSH1 0x20 DUP5 ADD PUSH2 0xB55 JUMP JUMPDEST SWAP1 POP SWAP3 POP SWAP3 SWAP1 POP JUMP JUMPDEST PUSH1 0x1 DUP2 DUP2 SHR SWAP1 DUP3 AND DUP1 PUSH2 0xC40 JUMPI PUSH1 0x7F DUP3 AND SWAP2 POP JUMPDEST PUSH1 0x20 DUP3 LT DUP2 EQ ISZERO PUSH2 0xC61 JUMPI PUSH4 0x4E487B71 PUSH1 0xE0 SHL PUSH1 0x0 MSTORE PUSH1 0x22 PUSH1 0x4 MSTORE PUSH1 0x24 PUSH1 0x0 REVERT JUMPDEST POP SWAP2 SWAP1 POP JUMP JUMPDEST PUSH4 0x4E487B71 PUSH1 0xE0 SHL PUSH1 0x0 MSTORE PUSH1 0x11 PUSH1 0x4 MSTORE PUSH1 0x24 PUSH1 0x0 REVERT JUMPDEST PUSH1 0x0 DUP3 NOT DUP3 GT ISZERO PUSH2 0xC90 JUMPI PUSH2 0xC90 PUSH2 0xC67 JUMP JUMPDEST POP ADD SWAP1 JUMP JUMPDEST PUSH1 0x0 DUP3 DUP3 LT ISZERO PUSH2 0xCA7 JUMPI PUSH2 0xCA7 PUSH2 0xC67 JUMP JUMPDEST POP SUB SWAP1 JUMP INVALID LOG2 PUSH5 0x6970667358 0x22 SLT KECCAK256 0xC2 0xD9 CALL SWAP15 0xB2 DIFFICULTY SWAP10 0x4A PUSH15 0x9697DD7FF6845846720FD8BE03F00B POP BLOCKHASH CALLDATASIZE SWAP16 PUSH20 0x18756664736F6C634300080C0033000000000000 "
				},
				"gasEstimates": {
					"creation": {
						"codeDepositCost": "659600",
						"executionCost": "infinite",
						"totalCost": "infinite"
					},
					"external": {
						"allowance(address,address)": "infinite",
						"approve(address,uint256)": "24648",
						"balanceOf(address)": "2629",
						"burn(address,uint256)": "53219",
						"decimals()": "200",
						"decreaseAllowance(address,uint256)": "26973",
						"increaseAllowance(address,uint256)": "27024",
						"mint(address,uint256)": "infinite",
						"name()": "infinite",
						"owner()": "2346",
						"renounceOwnership()": "infinite",
						"symbol()": "infinite",
						"totalSupply()": "2349",
						"transfer(address,uint256)": "51226",
						"transferFrom(address,address,uint256)": "infinite",
						"transferOwnership(address)": "28424"
					}
				},
				"methodIdentifiers": {
					"allowance(address,address)": "dd62ed3e",
					"approve(address,uint256)": "095ea7b3",
					"balanceOf(address)": "70a08231",
					"burn(address,uint256)": "9dc29fac",
					"decimals()": "313ce567",
					"decreaseAllowance(address,uint256)": "a457c2d7",
					"increaseAllowance(address,uint256)": "39509351",
					"mint(address,uint256)": "40c10f19",
					"name()": "06fdde03",
					"owner()": "8da5cb5b",
					"renounceOwnership()": "715018a6",
					"symbol()": "95d89b41",
					"totalSupply()": "18160ddd",
					"transfer(address,uint256)": "a9059cbb",
					"transferFrom(address,address,uint256)": "23b872dd",
					"transferOwnership(address)": "f2fde38b"
				}
			},
			"storageLayout": {
				"storage": [
					{
						"astId": 555,
						"contract": "gmdBTC_flat.sol:gmdBTC",
						"label": "_balances",
						"offset": 0,
						"slot": "0",
						"type": "t_mapping(t_address,t_uint256)"
					},
					{
						"astId": 561,
						"contract": "gmdBTC_flat.sol:gmdBTC",
						"label": "_allowances",
						"offset": 0,
						"slot": "1",
						"type": "t_mapping(t_address,t_mapping(t_address,t_uint256))"
					},
					{
						"astId": 563,
						"contract": "gmdBTC_flat.sol:gmdBTC",
						"label": "_totalSupply",
						"offset": 0,
						"slot": "2",
						"type": "t_uint256"
					},
					{
						"astId": 565,
						"contract": "gmdBTC_flat.sol:gmdBTC",
						"label": "_name",
						"offset": 0,
						"slot": "3",
						"type": "t_string_storage"
					},
					{
						"astId": 567,
						"contract": "gmdBTC_flat.sol:gmdBTC",
						"label": "_symbol",
						"offset": 0,
						"slot": "4",
						"type": "t_string_storage"
					},
					{
						"astId": 338,
						"contract": "gmdBTC_flat.sol:gmdBTC",
						"label": "_owner",
						"offset": 0,
						"slot": "5",
						"type": "t_address"
					}
				],
				"types": {
					"t_address": {
						"encoding": "inplace",
						"label": "address",
						"numberOfBytes": "20"
					},
					"t_mapping(t_address,t_mapping(t_address,t_uint256))": {
						"encoding": "mapping",
						"key": "t_address",
						"label": "mapping(address => mapping(address => uint256))",
						"numberOfBytes": "32",
						"value": "t_mapping(t_address,t_uint256)"
					},
					"t_mapping(t_address,t_uint256)": {
						"encoding": "mapping",
						"key": "t_address",
						"label": "mapping(address => uint256)",
						"numberOfBytes": "32",
						"value": "t_uint256"
					},
					"t_string_storage": {
						"encoding": "bytes",
						"label": "string",
						"numberOfBytes": "32"
					},
					"t_uint256": {
						"encoding": "inplace",
						"label": "uint256",
						"numberOfBytes": "32"
					}
				}
			},
			"userdoc": {
				"kind": "user",
				"methods": {},
				"version": 1
			}
		}
	}
}