{
	"data": {
		"bytecode": {
			"linkReferences": {},
			"object": "608060405260006002556101f46003819055600480546001600160a01b03199081167382af49447d8a07e3bd95bd0d56f35241523fbab11790915560058054821673ff970a61a04b1ca14834a43f5de4533ebddb5cc8179055600680548216732f2a2543b76a4166549f7aab2e75bef0aefc5b0f17905560078054821673f42ae1d54fd613c9bb14810b0588faaa09a426ca179055600880548216731addd80e6039594ee970e5872d247bf0414c8903179055600a8054821673a906f338cb21815cbc4bc87ace9e68c87ef8d8f1179055600b8054821673321f653eed006ad1c29d174e17d96351bde22649179055600c80549091167306e31ad70174d7db1eb06fcda75aa254e311bc3f179055600d553480156200011d57600080fd5b5060405162004390380380620043908339810160408190526200014091620006c1565b6200014b3362000654565b60018081905550600e604051806101600160405280600560009054906101000a90046001600160a01b03166001600160a01b03168152602001856001600160a01b031681526020016000815260200160008152602001428152602001600081526020016101f481526020016105dc815260200160001515815260200160001515815260200160001515815250908060018154018082558091505060019003906000526020600020906009020160009091909190915060008201518160000160006101000a8154816001600160a01b0302191690836001600160a01b0316021790555060208201518160010160006101000a8154816001600160a01b0302191690836001600160a01b0316021790555060408201518160020155606082015181600301556080820151816004015560a0820151816005015560c0820151816006015560e082015181600701556101008201518160080160006101000a81548160ff0219169083151502179055506101208201518160080160016101000a81548160ff0219169083151502179055506101408201518160080160026101000a81548160ff0219169083151502179055505050600e604051806101600160405280600460009054906101000a90046001600160a01b03166001600160a01b03168152602001846001600160a01b0316815260200160008152602001600081526020014281526020016000815260200160fa81526020016102bc815260200160001515815260200160001515815260200160001515815250908060018154018082558091505060019003906000526020600020906009020160009091909190915060008201518160000160006101000a8154816001600160a01b0302191690836001600160a01b0316021790555060208201518160010160006101000a8154816001600160a01b0302191690836001600160a01b0316021790555060408201518160020155606082015181600301556080820151816004015560a0820151816005015560c0820151816006015560e082015181600701556101008201518160080160006101000a81548160ff0219169083151502179055506101208201518160080160016101000a81548160ff0219169083151502179055506101408201518160080160026101000a81548160ff0219169083151502179055505050600e604051806101600160405280600660009054906101000a90046001600160a01b03166001600160a01b03168152602001836001600160a01b0316815260200160008152602001600081526020014281526020016000815260200160fa81526020016102bc815260200160001515815260200160001515815260200160001515815250908060018154018082558091505060019003906000526020600020906009020160009091909190915060008201518160000160006101000a8154816001600160a01b0302191690836001600160a01b0316021790555060208201518160010160006101000a8154816001600160a01b0302191690836001600160a01b0316021790555060408201518160020155606082015181600301556080820151816004015560a0820151816005015560c0820151816006015560e082015181600701556101008201518160080160006101000a81548160ff0219169083151502179055506101208201518160080160016101000a81548160ff0219169083151502179055506101408201518160080160026101000a81548160ff02191690831515021790555050505050506200070b565b600080546001600160a01b038381166001600160a01b0319831681178455604051919092169283917f8be0079c531659141344cd1fd0a4f28419497f9722a3daafe3b4186f6b6457e09190a35050565b80516001600160a01b0381168114620006bc57600080fd5b919050565b600080600060608486031215620006d757600080fd5b620006e284620006a4565b9250620006f260208501620006a4565b91506200070260408501620006a4565b90509250925092565b613c75806200071b6000396000f3fe60806040526004361061026b5760003560e01c8063932acf2211610144578063ce848d28116100b6578063f0fa55a91161007a578063f0fa55a914610740578063f2a3013e14610760578063f2fde38b14610780578063f39c9f0e146107a0578063f8491e4b146107b6578063ff75bb77146107d657600080fd5b8063ce848d28146106b6578063e02ae075146106d6578063e2f608e8146106f6578063e8ebb1e41461070b578063eaa4f0b21461072b57600080fd5b8063ad5c464811610108578063ad5c46481461060e578063ad6c2a601461062e578063c20632ba14610643578063c909f15214610663578063ce18acd414610683578063ce694a601461069657600080fd5b8063932acf221461057957806398e8220f14610599578063a230561b146105b9578063a5235957146105d9578063a695f120146105ee57600080fd5b8063421ef1ed116101dd578063715018a6116101a1578063715018a6146104c6578063741bef1a146104db578063820e13df146104fb578063863f95ce1461051b57806389a302711461053b5780638da5cb5b1461055b57600080fd5b8063421ef1ed146104495780634dede3de1461045e578063542cd7001461047e578063644e0a4e146104915780636bc832e4146104a657600080fd5b806323972aef1161022f57806323972aef1461038f57806331b62ba3146103af5780633bdd7d26146103cf5780633d47b41c146103ef5780633e032a3b146104135780633e4cfc671461042957600080fd5b806304a2ce7e146102775780630ec689aa14610299578063143d51f6146102d65780631526fe27146102f65780631b50f4b71461037a57600080fd5b3661027257005b600080fd5b34801561028357600080fd5b5061029761029236600461392b565b6107f6565b005b3480156102a557600080fd5b50600a546102b9906001600160a01b031681565b6040516001600160a01b0390911681526020015b60405180910390f35b3480156102e257600080fd5b506008546102b9906001600160a01b031681565b34801561030257600080fd5b5061031661031136600461392b565b610875565b604080516001600160a01b039c8d1681529b909a1660208c0152988a01979097526060890195909552608088019390935260a087019190915260c086015260e0850152151561010084015215156101208301521515610140820152610160016102cd565b34801561038657600080fd5b506102976108f3565b34801561039b57600080fd5b506102976103aa366004613944565b610a35565b3480156103bb57600080fd5b506009546102b9906001600160a01b031681565b3480156103db57600080fd5b506102976103ea36600461392b565b610f44565b3480156103fb57600080fd5b50610405600d5481565b6040519081526020016102cd565b34801561041f57600080fd5b5061040560035481565b34801561043557600080fd5b5061029761044436600461392b565b61102a565b34801561045557600080fd5b50610405611084565b34801561046a57600080fd5b506006546102b9906001600160a01b031681565b61029761048c366004613944565b6110f6565b34801561049d57600080fd5b506104056116ca565b3480156104b257600080fd5b506102976104c136600461392b565b611761565b3480156104d257600080fd5b506102976117ba565b3480156104e757600080fd5b50600c546102b9906001600160a01b031681565b34801561050757600080fd5b50610297610516366004613944565b6117cc565b34801561052757600080fd5b5061029761053636600461397b565b611801565b34801561054757600080fd5b506005546102b9906001600160a01b031681565b34801561056757600080fd5b506000546001600160a01b03166102b9565b34801561058557600080fd5b50610297610594366004613998565b61187f565b3480156105a557600080fd5b506104056105b43660046139c4565b6119cf565b3480156105c557600080fd5b506102976105d4366004613944565b611b24565b3480156105e557600080fd5b50610297611bf0565b3480156105fa57600080fd5b506007546102b9906001600160a01b031681565b34801561061a57600080fd5b506004546102b9906001600160a01b031681565b34801561063a57600080fd5b50610297611c8d565b34801561064f57600080fd5b5061029761065e3660046139fc565b611c9d565b34801561066f57600080fd5b5061029761067e36600461392b565b611fba565b61029761069136600461392b565b612048565b3480156106a257600080fd5b506104056106b136600461392b565b612550565b3480156106c257600080fd5b506104056106d1366004613998565b612617565b3480156106e257600080fd5b506104056106f1366004613944565b61271c565b34801561070257600080fd5b50610405612bb9565b34801561071757600080fd5b50610297610726366004613998565b612bf3565b34801561073757600080fd5b50610297612c5f565b34801561074c57600080fd5b5061029761075b36600461392b565b612cff565b34801561076c57600080fd5b5061029761077b366004613a42565b612d5a565b34801561078c57600080fd5b5061029761079b36600461397b565b612e0b565b3480156107ac57600080fd5b5061040560025481565b3480156107c257600080fd5b506104056107d136600461392b565b612e81565b3480156107e257600080fd5b506104056107f136600461392b565b612f4c565b6107fe613010565b6001600e828154811061081357610813613a72565b60009182526020822060099190910201600801805460ff191692151592909217909155600e80548390811061084a5761084a613a72565b906000526020600020906009020160080160016101000a81548160ff02191690831515021790555050565b600e818154811061088557600080fd5b60009182526020909120600990910201805460018201546002830154600384015460048501546005860154600687015460078801546008909801546001600160a01b0397881699509690951696939592949193909260ff80821691610100810482169162010000909104168b565b6108fb613010565b600a60009054906101000a90046001600160a01b03166001600160a01b0316635fe3945f6040518163ffffffff1660e01b8152600401600060405180830381600087803b15801561094b57600080fd5b505af115801561095f573d6000803e3d6000fd5b5050600a546007546040516370a0823160e01b81523060048201526001600160a01b03928316945063ef8c599493509116906370a0823190602401602060405180830381865afa1580156109b7573d6000803e3d6000fd5b505050506040513d601f19601f820116820180604052508101906109db9190613a88565b6040518263ffffffff1660e01b81526004016109f991815260200190565b600060405180830381600087803b158015610a1357600080fd5b505af1158015610a27573d6000803e3d6000fd5b50505050610a3361306a565b565b60026001541415610a615760405162461bcd60e51b8152600401610a5890613aa1565b60405180910390fd5b60026001558181610a7e57610a7b8364e8d4a51000613280565b90505b8160021415610a9957610a96836402540be400613280565b90505b6000600e8381548110610aae57610aae613a72565b60009182526020822060016009909202010154600e80546001600160a01b0390921693509085908110610ae357610ae3613a72565b60009182526020909120600990910201546040516370a0823160e01b81523360048201526001600160a01b03909116915081906370a0823190602401602060405180830381865afa158015610b3c573d6000803e3d6000fd5b505050506040513d601f19601f82011682018060405250810190610b609190613a88565b851115610b7f5760405162461bcd60e51b8152600401610a5890613ad8565b600e8481548110610b9257610b92613a72565b600091825260209091206008600990920201015460ff16610be45760405162461bcd60e51b815260206004820152600c60248201526b6e6f74207374616b61626c6560a01b6044820152606401610a58565b600e8481548110610bf757610bf7613a72565b90600052602060002090600902016005015483600e8681548110610c1d57610c1d613a72565b906000526020600020906009020160030154610c399190613b17565b1115610c875760405162461bcd60e51b815260206004820181905260248201527f63616e74206465706f736974206d6f7265207468616e207661756c74206361706044820152606401610a58565b600e8481548110610c9a57610c9a613a72565b906000526020600020906009020160080160029054906101000a900460ff1615610cc757610cc78461328c565b6000600e8581548110610cdc57610cdc613a72565b90600052602060002090600902016003015490506000836001600160a01b03166318160ddd6040518163ffffffff1660e01b8152600401602060405180830381865afa158015610d30573d6000803e3d6000fd5b505050506040513d601f19601f82011682018060405250810190610d549190613a88565b90506000600e8781548110610d6b57610d6b613a72565b906000526020600020906009020160060154620186a0610d8b9190613b2f565b90506000610da6620186a0610da08985613280565b9061332e565b9050821580610db3575083155b15610e1d576040516340c10f1960e01b8152336004820152602481018290526001600160a01b038716906340c10f1990604401600060405180830381600087803b158015610e0057600080fd5b505af1158015610e14573d6000803e3d6000fd5b50505050610e92565b6000610e2d85610da08487613280565b6040516340c10f1960e01b8152336004820152602481018290529091506001600160a01b038816906340c10f1990604401600060405180830381600087803b158015610e7857600080fd5b505af1158015610e8c573d6000803e3d6000fd5b50505050505b610ec981600e8a81548110610ea957610ea9613a72565b90600052602060002090600902016003015461333a90919063ffffffff16565b600e8981548110610edc57610edc613a72565b906000526020600020906009020160030181905550610efa88613346565b610f0f6001600160a01b03861633308c6133da565b610f19898661344b565b50600a54610f35906001600160a01b03878116911660006134ed565b50506001805550505050505050565b610f4c613010565b600e8181548110610f5f57610f5f613a72565b906000526020600020906009020160080160029054906101000a900460ff16610fb85760405162461bcd60e51b815260206004820152600b60248201526a1b9bdd081cdd185c9d195960aa1b6044820152606401610a58565b610fc18161328c565b6000600e8281548110610fd657610fd6613a72565b906000526020600020906009020160080160026101000a81548160ff02191690831515021790555042600e828154811061101257611012613a72565b90600052602060002090600902016004018190555050565b611032613010565b6000600e828154811061104757611047613a72565b906000526020600020906009020160080160006101000a81548160ff0219169083151502179055506001600e828154811061084a5761084a613a72565b6008546040516370a0823160e01b81523060048201526000916001600160a01b0316906370a0823190602401602060405180830381865afa1580156110cd573d6000803e3d6000fd5b505050506040513d601f19601f820116820180604052508101906110f19190613a88565b905090565b600260015414156111195760405162461bcd60e51b8152600401610a5890613aa1565b60026001819055506000600e828154811061113657611136613a72565b60009182526020822060016009909202010154600e80546001600160a01b039092169350908490811061116b5761116b613a72565b60009182526020909120600990910201546040516370a0823160e01b81523360048201526001600160a01b039182169250908316906370a0823190602401602060405180830381865afa1580156111c6573d6000803e3d6000fd5b505050506040513d601f19601f820116820180604052508101906111ea9190613a88565b8411156112095760405162461bcd60e51b8152600401610a5890613ad8565b600e838154811061121c5761121c613a72565b906000526020600020906009020160080160019054906101000a900460ff166112875760405162461bcd60e51b815260206004820152601a60248201527f77697468647261772077696e646f77206e6f74206f70656e65640000000000006044820152606401610a58565b600e838154811061129a5761129a613a72565b906000526020600020906009020160080160029054906101000a900460ff16156112c7576112c78361328c565b6000826001600160a01b03166318160ddd6040518163ffffffff1660e01b8152600401602060405180830381865afa158015611307573d6000803e3d6000fd5b505050506040513d601f19601f8201168201806040525081019061132b9190613a88565b9050600061136a82610da0600e888154811061134957611349613a72565b9060005260206000209060090201600301548961328090919063ffffffff16565b90506113a381600e878154811061138357611383613a72565b90600052602060002090600902016003015461360290919063ffffffff16565b600e86815481106113b6576113b6613a72565b9060005260206000209060090201600301819055506113d485613346565b604051632770a7eb60e21b8152336004820152602481018790526001600160a01b03851690639dc29fac90604401600060405180830381600087803b15801561141c57600080fd5b505af1158015611430573d6000803e3d6000fd5b50506003548392506000915061144990620186a0613b2f565b905060006114d5620186a0610da084600c60009054906101000a90046001600160a01b03166001600160a01b03166365f910fa6040518163ffffffff1660e01b8152600401602060405180830381865afa1580156114ab573d6000803e3d6000fd5b505050506040513d601f19601f820116820180604052508101906114cf9190613a88565b90613280565b600c546040516341976e0960e01b81526001600160a01b038981166004830152929350600092909116906341976e0990602401602060405180830381865afa158015611525573d6000803e3d6000fd5b505050506040513d601f19601f820116820180604052508101906115499190613a88565b905060006115736c0c9f2c9cd04674edea40000000610da08581866114cf8c64e8d4a51000613280565b905061158081898761360e565b506004546001600160a01b038981169116146115cd5760405162461bcd60e51b815260206004820152600c60248201526b1b9bdd08195d1a081c1bdbdb60a21b6044820152606401610a58565b60048054604051632e1a7d4d60e01b81529182018790526001600160a01b031690632e1a7d4d90602401600060405180830381600087803b15801561161157600080fd5b505af1158015611625573d6000803e3d6000fd5b50506040516000925033915087908381818185875af1925050503d806000811461166b576040519150601f19603f3d011682016040523d82523d6000602084013e611670565b606091505b50509050806116b85760405162461bcd60e51b81526020600482015260146024820152732330b4b632b2103a379039b2b7321022ba3432b960611b6044820152606401610a58565b50506001805550505050505050505050565b600080600c60009054906101000a90046001600160a01b03166001600160a01b03166365f910fa6040518163ffffffff1660e01b8152600401602060405180830381865afa158015611720573d6000803e3d6000fd5b505050506040513d601f19601f820116820180604052508101906117449190613a88565b905061175b81610da064e8d4a510006114cf612bb9565b91505090565b611769613010565b6103848110801561177a5750600081115b6117b55760405162461bcd60e51b815260206004820152600c60248201526b6e6f7420696e2072616e676560a01b6044820152606401610a58565b600d55565b6117c2613010565b610a336000613655565b6117d4613010565b80600e83815481106117e8576117e8613a72565b9060005260206000209060090201600501819055505050565b611809613010565b6040516370a0823160e01b815230600482015261187b906001600160a01b038316906370a0823190602401602060405180830381865afa158015611851573d6000803e3d6000fd5b505050506040513d601f19601f820116820180604052508101906118759190613a88565b8261344b565b5050565b611887613010565b61188f6116ca565b6008546040516370a0823160e01b815230600482015283916001600160a01b0316906370a0823190602401602060405180830381865afa1580156118d7573d6000803e3d6000fd5b505050506040513d601f19601f820116820180604052508101906118fb9190613a88565b6119059190613b2f565b10156119435760405162461bcd60e51b815260206004820152600d60248201526c62656c6f77206261636b696e6760981b6044820152606401610a58565b61194f8183600061360e565b506040516370a0823160e01b815230600482015261187b9033906001600160a01b038516906370a0823190602401602060405180830381865afa15801561199a573d6000803e3d6000fd5b505050506040513d601f19601f820116820180604052508101906119be9190613a88565b6001600160a01b03851691906136a5565b60006119d9613010565b6119e16116ca565b6008546040516370a0823160e01b815230600482015286916001600160a01b0316906370a0823190602401602060405180830381865afa158015611a29573d6000803e3d6000fd5b505050506040513d601f19601f82011682018060405250810190611a4d9190613a88565b611a579190613b2f565b1015611a955760405162461bcd60e51b815260206004820152600d60248201526c62656c6f77206261636b696e6760981b6044820152606401610a58565b600a546040516303cea95560e21b81526001600160a01b038581166004830152602482018790526044820185905230606483015290911690630f3aa554906084015b6020604051808303816000875af1158015611af6573d6000803e3d6000fd5b505050506040513d601f19601f82011682018060405250810190611b1a9190613a88565b90505b9392505050565b611b2c613010565b6101f481118015611b3e575061064081105b611b7e5760405162461bcd60e51b815260206004820152601160248201527020617072206e6f7420696e2072616e676560781b6044820152606401610a58565b80600e8381548110611b9257611b92613a72565b906000526020600020906009020160070181905550600e8281548110611bba57611bba613a72565b906000526020600020906009020160080160029054906101000a900460ff1615611be757611be78261328c565b61187b82613346565b611bf8613010565b60005b600e54811015611c8a576001600e8281548110611c1a57611c1a613a72565b60009182526020822060099190910201600801805460ff191692151592909217909155600e805483908110611c5157611c51613a72565b906000526020600020906009020160080160016101000a81548160ff02191690831515021790555080611c8390613b46565b9050611bfb565b50565b611c95613010565b610a3361306a565b611ca5613010565b6102bc821115611cf75760405162461bcd60e51b815260206004820152601b60248201527f6f7574206f662072616e67652e204665657320746f6f206869676800000000006044820152606401610a58565b6101f481118015611d09575061064081105b611d495760405162461bcd60e51b815260206004820152601160248201527020617072206e6f7420696e2072616e676560781b6044820152606401610a58565b611d52836136d5565b611d955760405162461bcd60e51b81526020600482015260146024820152731c1bdbdb08185b1c9958591e4818dc99585d195960621b6044820152606401610a58565b60408051610160810182526001600160a01b03958616815293851660208501908152600091850182815260608601838152426080880190815260a0880185815260c0890197885260e08901968752610100808a018781526101208b018881526101408c01898152600e80546001810182559a529b5160099099027fbb7b4a454dc3493923482f07822329ed19e8244eff582cc204f8554c3620c3fd810180549a8f166001600160a01b03199b8c1617905597517fbb7b4a454dc3493923482f07822329ed19e8244eff582cc204f8554c3620c3fe8901805491909e16991698909817909b5593517fbb7b4a454dc3493923482f07822329ed19e8244eff582cc204f8554c3620c3ff86015591517fbb7b4a454dc3493923482f07822329ed19e8244eff582cc204f8554c3620c400850155517fbb7b4a454dc3493923482f07822329ed19e8244eff582cc204f8554c3620c401840155517fbb7b4a454dc3493923482f07822329ed19e8244eff582cc204f8554c3620c40283015593517fbb7b4a454dc3493923482f07822329ed19e8244eff582cc204f8554c3620c40382015591517fbb7b4a454dc3493923482f07822329ed19e8244eff582cc204f8554c3620c40483015593517fbb7b4a454dc3493923482f07822329ed19e8244eff582cc204f8554c3620c4059091018054945193511515620100000262ff00001994151590930261ff00199215159290921661ffff19909516949094171791909116179055565b611fc2613010565b600e8181548110611fd557611fd5613a72565b906000526020600020906009020160080160029054906101000a900460ff16156120335760405162461bcd60e51b815260206004820152600f60248201526e185b1c9958591e481cdd185c9d1959608a1b6044820152606401610a58565b6001600e8281548110610fd657610fd6613a72565b6002600154141561206b5760405162461bcd60e51b8152600401610a5890613aa1565b6002600155346120bd5760405162461bcd60e51b815260206004820152601f60248201527f526577617264526f757465723a20696e76616c6964206d73672e76616c7565006044820152606401610a58565b60003490506000600e83815481106120d7576120d7613a72565b60009182526020909120600990910201546004546001600160a01b0391821692501681146121365760405162461bcd60e51b815260206004820152600c60248201526b1b9bdd08195d1a081c1bdbdb60a21b6044820152606401610a58565b60008290506000600e858154811061215057612150613a72565b906000526020600020906009020160010160009054906101000a90046001600160a01b03169050600e858154811061218a5761218a613a72565b600091825260209091206008600990920201015460ff166121dc5760405162461bcd60e51b815260206004820152600c60248201526b6e6f74207374616b61626c6560a01b6044820152606401610a58565b600e85815481106121ef576121ef613a72565b90600052602060002090600902016005015482600e878154811061221557612215613a72565b9060005260206000209060090201600301546122319190613b17565b111561227f5760405162461bcd60e51b815260206004820181905260248201527f63616e74206465706f736974206d6f7265207468616e207661756c74206361706044820152606401610a58565b600e858154811061229257612292613a72565b906000526020600020906009020160080160029054906101000a900460ff16156122bf576122bf8561328c565b6000600e86815481106122d4576122d4613a72565b90600052602060002090600902016003015490506000826001600160a01b03166318160ddd6040518163ffffffff1660e01b8152600401602060405180830381865afa158015612328573d6000803e3d6000fd5b505050506040513d601f19601f8201168201806040525081019061234c9190613a88565b90506000600e888154811061236357612363613a72565b906000526020600020906009020160060154620186a06123839190613b2f565b90506000612398620186a0610da08885613280565b90508215806123a5575083155b1561240f576040516340c10f1960e01b8152336004820152602481018290526001600160a01b038616906340c10f1990604401600060405180830381600087803b1580156123f257600080fd5b505af1158015612406573d6000803e3d6000fd5b50505050612484565b600061241f85610da08487613280565b6040516340c10f1960e01b8152336004820152602481018290529091506001600160a01b038716906340c10f1990604401600060405180830381600087803b15801561246a57600080fd5b505af115801561247e573d6000803e3d6000fd5b50505050505b61249b81600e8b81548110610ea957610ea9613a72565b600e8a815481106124ae576124ae613a72565b9060005260206000209060090201600301819055506124cc89613346565b6004805460408051630d0e30db60e41b815290516001600160a01b039092169263d0e30db0928c92808301926000929182900301818588803b15801561251157600080fd5b505af1158015612525573d6000803e3d6000fd5b5050505050612534888861344b565b50600a54610f35906001600160a01b03898116911660006134ed565b600080600e838154811061256657612566613a72565b906000526020600020906009020160010160009054906101000a90046001600160a01b031690506000816001600160a01b03166318160ddd6040518163ffffffff1660e01b8152600401602060405180830381865afa1580156125cd573d6000803e3d6000fd5b505050506040513d601f19601f820116820180604052508101906125f19190613a88565b9050600061260e82610da0670de0b6b3a76400006114cf89612e81565b95945050505050565b600080600e838154811061262d5761262d613a72565b906000526020600020906009020160010160009054906101000a90046001600160a01b031690506000816001600160a01b03166318160ddd6040518163ffffffff1660e01b8152600401602060405180830381865afa158015612694573d6000803e3d6000fd5b505050506040513d601f19601f820116820180604052508101906126b89190613a88565b9050600061271282610da06126cc88612e81565b6040516370a0823160e01b81526001600160a01b038b811660048301528816906370a0823190602401602060405180830381865afa1580156114ab573d6000803e3d6000fd5b9695505050505050565b6000600260015414156127415760405162461bcd60e51b8152600401610a5890613aa1565b60026001819055506000600e838154811061275e5761275e613a72565b60009182526020822060016009909202010154600e80546001600160a01b039092169350908590811061279357612793613a72565b60009182526020909120600990910201546040516370a0823160e01b81523360048201526001600160a01b039182169250908316906370a0823190602401602060405180830381865afa1580156127ee573d6000803e3d6000fd5b505050506040513d601f19601f820116820180604052508101906128129190613a88565b8511156128315760405162461bcd60e51b8152600401610a5890613ad8565b600e848154811061284457612844613a72565b906000526020600020906009020160080160019054906101000a900460ff166128af5760405162461bcd60e51b815260206004820152601a60248201527f77697468647261772077696e646f77206e6f74206f70656e65640000000000006044820152606401610a58565b600e84815481106128c2576128c2613a72565b906000526020600020906009020160080160029054906101000a900460ff16156128ef576128ef8461328c565b6000826001600160a01b03166318160ddd6040518163ffffffff1660e01b8152600401602060405180830381865afa15801561292f573d6000803e3d6000fd5b505050506040513d601f19601f820116820180604052508101906129539190613a88565b9050600061299282610da0600e898154811061297157612971613a72565b9060005260206000209060090201600301548a61328090919063ffffffff16565b90506129ab81600e888154811061138357611383613a72565b600e87815481106129be576129be613a72565b9060005260206000209060090201600301819055506129dc86613346565b604051632770a7eb60e21b8152336004820152602481018890526001600160a01b03851690639dc29fac90604401600060405180830381600087803b158015612a2457600080fd5b505af1158015612a38573d6000803e3d6000fd5b50839250505086612a5557612a528264e8d4a5100061332e565b90505b8660021415612a7057612a6d826402540be40061332e565b90505b6000600354620186a0612a839190613b2f565b90506000612ae5620186a0610da084600c60009054906101000a90046001600160a01b03166001600160a01b03166365f910fa6040518163ffffffff1660e01b8152600401602060405180830381865afa1580156114ab573d6000803e3d6000fd5b600c546040516341976e0960e01b81526001600160a01b038981166004830152929350600092909116906341976e0990602401602060405180830381865afa158015612b35573d6000803e3d6000fd5b505050506040513d601f19601f82011682018060405250810190612b599190613a88565b90506000612b836c0c9f2c9cd04674edea40000000610da08581866114cf8c64e8d4a51000613280565b9050612b9081898761360e565b50612ba56001600160a01b03891633876136a5565b505060018055509098975050505050505050565b600080805b600e54811015612bed57612bdb612bd482612f4c565b839061333a565b9150612be681613b46565b9050612bbe565b50919050565b612bfb613010565b6008546001600160a01b0383811691161415612c4b5760405162461bcd60e51b815260206004820152600f60248201526e6e6f20676c7020647261696e696e6760881b6044820152606401610a58565b61187b6001600160a01b03831633836136a5565b612c67613010565b60005b600e54811015611c8a576000600e8281548110612c8957612c89613a72565b906000526020600020906009020160080160006101000a81548160ff0219169083151502179055506001600e8281548110612cc657612cc6613a72565b906000526020600020906009020160080160016101000a81548160ff02191690831515021790555080612cf890613b46565b9050612c6a565b612d07613010565b60c88110158015612d1a57506103e88111155b612d555760405162461bcd60e51b815260206004820152600c60248201526b6e6f7420696e2072616e676560a01b6044820152606401610a58565b600355565b612d62613010565b6040516370a0823160e01b815230600482015282906001600160a01b038316906370a0823190602401602060405180830381865afa158015612da8573d6000803e3d6000fd5b505050506040513d601f19601f82011682018060405250810190612dcc9190613a88565b1015612dd757600080fd5b612ded612de4838361344b565b6002549061333a565b600255600a5461187b906001600160a01b03838116911660006134ed565b612e13613010565b6001600160a01b038116612e785760405162461bcd60e51b815260206004820152602660248201527f4f776e61626c653a206e6577206f776e657220697320746865207a65726f206160448201526564647265737360d01b6064820152608401610a58565b611c8a81613655565b60008060009050600e8381548110612e9b57612e9b613a72565b906000526020600020906009020160080160029054906101000a900460ff1615612f35576000612ef8600e8581548110612ed757612ed7613a72565b9060005260206000209060090201600401544261360290919063ffffffff16565b9050612f3181600e8681548110612f1157612f11613a72565b90600052602060002090600902016002015461328090919063ffffffff16565b9150505b611b1d81600e8581548110610ea957610ea9613a72565b600080600e8381548110612f6257612f62613a72565b6000918252602082206009919091020154600c546040516341976e0960e01b81526001600160a01b039283166004820181905294509116906341976e0990602401602060405180830381865afa158015612fc0573d6000803e3d6000fd5b505050506040513d601f19601f82011682018060405250810190612fe49190613a88565b90506000612ff185612e81565b905060006127126c0c9f2c9cd04674edea40000000610da08585613280565b6000546001600160a01b03163314610a335760405162461bcd60e51b815260206004820181905260248201527f4f776e61626c653a2063616c6c6572206973206e6f7420746865206f776e65726044820152606401610a58565b600a60009054906101000a90046001600160a01b03166001600160a01b031663d294f0936040518163ffffffff1660e01b8152600401600060405180830381600087803b1580156130ba57600080fd5b505af11580156130ce573d6000803e3d6000fd5b5050600480546040516370a0823160e01b81523092810192909252600093506001600160a01b031691506370a0823190602401602060405180830381865afa15801561311e573d6000803e3d6000fd5b505050506040513d601f19601f820116820180604052508101906131429190613a88565b905060006131616103e8610da0600d548561328090919063ffffffff16565b60045490915061317b9082906001600160a01b031661344b565b506004546001600160a01b031663a9059cbb61319f6000546001600160a01b031690565b600480546040516370a0823160e01b815230928101929092526001600160a01b0316906370a0823190602401602060405180830381865afa1580156131e8573d6000803e3d6000fd5b505050506040513d601f19601f8201168201806040525081019061320c9190613a88565b6040516001600160e01b031960e085901b1681526001600160a01b03909216600483015260248201526044016020604051808303816000875af1158015613257573d6000803e3d6000fd5b505050506040513d601f19601f8201168201806040525081019061327b9190613b61565b505050565b6000611b1d8284613b83565b60006132a4600e8381548110612ed757612ed7613a72565b905042600e83815481106132ba576132ba613a72565b90600052602060002090600902016004018190555060006132e882600e8581548110612f1157612f11613a72565b905061330181600e8581548110610ea957610ea9613a72565b600e848154811061331457613314613a72565b906000526020600020906009020160030181905550505050565b6000611b1d8284613ba2565b6000611b1d8284613b17565b6133af6301e13380610da0612710610da0600e868154811061336a5761336a613a72565b906000526020600020906009020160070154600e878154811061338f5761338f613a72565b90600052602060002090600902016003015461328090919063ffffffff16565b600e82815481106133c2576133c2613a72565b90600052602060002090600902016002018190555050565b6040516001600160a01b03808516602483015283166044820152606481018290526134459085906323b872dd60e01b906084015b60408051601f198184030181529190526020810180516001600160e01b03166001600160e01b031990931692909217909152613745565b50505050565b600b54600090613468906001600160a01b038481169116856134ed565b600a5460405163364e231160e01b81526001600160a01b0384811660048301526024820186905260006044830181905260648301529091169063364e2311906084016020604051808303816000875af11580156134c9573d6000803e3d6000fd5b505050506040513d601f19601f82011682018060405250810190611b1d9190613a88565b8015806135675750604051636eb1769f60e11b81523060048201526001600160a01b03838116602483015284169063dd62ed3e90604401602060405180830381865afa158015613541573d6000803e3d6000fd5b505050506040513d601f19601f820116820180604052508101906135659190613a88565b155b6135d25760405162461bcd60e51b815260206004820152603660248201527f5361666545524332303a20617070726f76652066726f6d206e6f6e2d7a65726f60448201527520746f206e6f6e2d7a65726f20616c6c6f77616e636560501b6064820152608401610a58565b6040516001600160a01b03831660248201526044810182905261327b90849063095ea7b360e01b9060640161340e565b6000611b1d8284613b2f565b600a546040516303cea95560e21b81526001600160a01b03848116600483015260248201869052604482018490523060648301526000921690630f3aa55490608401611ad7565b600080546001600160a01b038381166001600160a01b0319831681178455604051919092169283917f8be0079c531659141344cd1fd0a4f28419497f9722a3daafe3b4186f6b6457e09190a35050565b6040516001600160a01b03831660248201526044810182905261327b90849063a9059cbb60e01b9060640161340e565b6000805b600e5481101561373c57826001600160a01b0316600e828154811061370057613700613a72565b60009182526020909120600160099092020101546001600160a01b0316141561372c5750600092915050565b61373581613b46565b90506136d9565b50600192915050565b600061379a826040518060400160405280602081526020017f5361666545524332303a206c6f772d6c6576656c2063616c6c206661696c6564815250856001600160a01b03166138179092919063ffffffff16565b80519091501561327b57808060200190518101906137b89190613b61565b61327b5760405162461bcd60e51b815260206004820152602a60248201527f5361666545524332303a204552433230206f7065726174696f6e20646964206e6044820152691bdd081cdd58d8d9595960b21b6064820152608401610a58565b6060611b1a8484600085856001600160a01b0385163b6138795760405162461bcd60e51b815260206004820152601d60248201527f416464726573733a2063616c6c20746f206e6f6e2d636f6e74726163740000006044820152606401610a58565b600080866001600160a01b031685876040516138959190613bf0565b60006040518083038185875af1925050503d80600081146138d2576040519150601f19603f3d011682016040523d82523d6000602084013e6138d7565b606091505b50915091506138e78282866138f2565b979650505050505050565b60608315613901575081611b1d565b8251156139115782518084602001fd5b8160405162461bcd60e51b8152600401610a589190613c0c565b60006020828403121561393d57600080fd5b5035919050565b6000806040838503121561395757600080fd5b50508035926020909101359150565b6001600160a01b0381168114611c8a57600080fd5b60006020828403121561398d57600080fd5b8135611b1d81613966565b600080604083850312156139ab57600080fd5b82356139b681613966565b946020939093013593505050565b6000806000606084860312156139d957600080fd5b8335925060208401356139eb81613966565b929592945050506040919091013590565b60008060008060808587031215613a1257600080fd5b8435613a1d81613966565b93506020850135613a2d81613966565b93969395505050506040820135916060013590565b60008060408385031215613a5557600080fd5b823591506020830135613a6781613966565b809150509250929050565b634e487b7160e01b600052603260045260246000fd5b600060208284031215613a9a57600080fd5b5051919050565b6020808252601f908201527f5265656e7472616e637947756172643a207265656e7472616e742063616c6c00604082015260600190565b6020808252600f908201526e62616c616e636520746f6f206c6f7760881b604082015260600190565b634e487b7160e01b600052601160045260246000fd5b60008219821115613b2a57613b2a613b01565b500190565b600082821015613b4157613b41613b01565b500390565b6000600019821415613b5a57613b5a613b01565b5060010190565b600060208284031215613b7357600080fd5b81518015158114611b1d57600080fd5b6000816000190483118215151615613b9d57613b9d613b01565b500290565b600082613bbf57634e487b7160e01b600052601260045260246000fd5b500490565b60005b83811015613bdf578181015183820152602001613bc7565b838111156134455750506000910152565b60008251613c02818460208701613bc4565b9190910192915050565b6020815260008251806020840152613c2b816040850160208701613bc4565b601f01601f1916919091016040019291505056fea26469706673582212203d5dd84c7628e0b2fd534371c22c33f82a3a50aa4b07f18fa60d472914a6895d64736f6c634300080c0033",
			"opcodes": "PUSH1 0x80 PUSH1 0x40 MSTORE PUSH1 0x0 PUSH1 0x2 SSTORE PUSH2 0x1F4 PUSH1 0x3 DUP2 SWAP1 SSTORE PUSH1 0x4 DUP1 SLOAD PUSH1 0x1 PUSH1 0x1 PUSH1 0xA0 SHL SUB NOT SWAP1 DUP2 AND PUSH20 0x82AF49447D8A07E3BD95BD0D56F35241523FBAB1 OR SWAP1 SWAP2 SSTORE PUSH1 0x5 DUP1 SLOAD DUP3 AND PUSH20 0xFF970A61A04B1CA14834A43F5DE4533EBDDB5CC8 OR SWAP1 SSTORE PUSH1 0x6 DUP1 SLOAD DUP3 AND PUSH20 0x2F2A2543B76A4166549F7AAB2E75BEF0AEFC5B0F OR SWAP1 SSTORE PUSH1 0x7 DUP1 SLOAD DUP3 AND PUSH20 0xF42AE1D54FD613C9BB14810B0588FAAA09A426CA OR SWAP1 SSTORE PUSH1 0x8 DUP1 SLOAD DUP3 AND PUSH20 0x1ADDD80E6039594EE970E5872D247BF0414C8903 OR SWAP1 SSTORE PUSH1 0xA DUP1 SLOAD DUP3 AND PUSH20 0xA906F338CB21815CBC4BC87ACE9E68C87EF8D8F1 OR SWAP1 SSTORE PUSH1 0xB DUP1 SLOAD DUP3 AND PUSH20 0x321F653EED006AD1C29D174E17D96351BDE22649 OR SWAP1 SSTORE PUSH1 0xC DUP1 SLOAD SWAP1 SWAP2 AND PUSH20 0x6E31AD70174D7DB1EB06FCDA75AA254E311BC3F OR SWAP1 SSTORE PUSH1 0xD SSTORE CALLVALUE DUP1 ISZERO PUSH3 0x11D JUMPI PUSH1 0x0 DUP1 REVERT JUMPDEST POP PUSH1 0x40 MLOAD PUSH3 0x4390 CODESIZE SUB DUP1 PUSH3 0x4390 DUP4 CODECOPY DUP2 ADD PUSH1 0x40 DUP2 SWAP1 MSTORE PUSH3 0x140 SWAP2 PUSH3 0x6C1 JUMP JUMPDEST PUSH3 0x14B CALLER PUSH3 0x654 JUMP JUMPDEST PUSH1 0x1 DUP1 DUP2 SWAP1 SSTORE POP PUSH1 0xE PUSH1 0x40 MLOAD DUP1 PUSH2 0x160 ADD PUSH1 0x40 MSTORE DUP1 PUSH1 0x5 PUSH1 0x0 SWAP1 SLOAD SWAP1 PUSH2 0x100 EXP SWAP1 DIV PUSH1 0x1 PUSH1 0x1 PUSH1 0xA0 SHL SUB AND PUSH1 0x1 PUSH1 0x1 PUSH1 0xA0 SHL SUB AND DUP2 MSTORE PUSH1 0x20 ADD DUP6 PUSH1 0x1 PUSH1 0x1 PUSH1 0xA0 SHL SUB AND DUP2 MSTORE PUSH1 0x20 ADD PUSH1 0x0 DUP2 MSTORE PUSH1 0x20 ADD PUSH1 0x0 DUP2 MSTORE PUSH1 0x20 ADD TIMESTAMP DUP2 MSTORE PUSH1 0x20 ADD PUSH1 0x0 DUP2 MSTORE PUSH1 0x20 ADD PUSH2 0x1F4 DUP2 MSTORE PUSH1 0x20 ADD PUSH2 0x5DC DUP2 MSTORE PUSH1 0x20 ADD PUSH1 0x0 ISZERO ISZERO DUP2 MSTORE PUSH1 0x20 ADD PUSH1 0x0 ISZERO ISZERO DUP2 MSTORE PUSH1 0x20 ADD PUSH1 0x0 ISZERO ISZERO DUP2 MSTORE POP SWAP1 DUP1 PUSH1 0x1 DUP2 SLOAD ADD DUP1 DUP3 SSTORE DUP1 SWAP2 POP POP PUSH1 0x1 SWAP1 SUB SWAP1 PUSH1 0x0 MSTORE PUSH1 0x20 PUSH1 0x0 KECCAK256 SWAP1 PUSH1 0x9 MUL ADD PUSH1 0x0 SWAP1 SWAP2 SWAP1 SWAP2 SWAP1 SWAP2 POP PUSH1 0x0 DUP3 ADD MLOAD DUP2 PUSH1 0x0 ADD PUSH1 0x0 PUSH2 0x100 EXP DUP2 SLOAD DUP2 PUSH1 0x1 PUSH1 0x1 PUSH1 0xA0 SHL SUB MUL NOT AND SWAP1 DUP4 PUSH1 0x1 PUSH1 0x1 PUSH1 0xA0 SHL SUB AND MUL OR SWAP1 SSTORE POP PUSH1 0x20 DUP3 ADD MLOAD DUP2 PUSH1 0x1 ADD PUSH1 0x0 PUSH2 0x100 EXP DUP2 SLOAD DUP2 PUSH1 0x1 PUSH1 0x1 PUSH1 0xA0 SHL SUB MUL NOT AND SWAP1 DUP4 PUSH1 0x1 PUSH1 0x1 PUSH1 0xA0 SHL SUB AND MUL OR SWAP1 SSTORE POP PUSH1 0x40 DUP3 ADD MLOAD DUP2 PUSH1 0x2 ADD SSTORE PUSH1 0x60 DUP3 ADD MLOAD DUP2 PUSH1 0x3 ADD SSTORE PUSH1 0x80 DUP3 ADD MLOAD DUP2 PUSH1 0x4 ADD SSTORE PUSH1 0xA0 DUP3 ADD MLOAD DUP2 PUSH1 0x5 ADD SSTORE PUSH1 0xC0 DUP3 ADD MLOAD DUP2 PUSH1 0x6 ADD SSTORE PUSH1 0xE0 DUP3 ADD MLOAD DUP2 PUSH1 0x7 ADD SSTORE PUSH2 0x100 DUP3 ADD MLOAD DUP2 PUSH1 0x8 ADD PUSH1 0x0 PUSH2 0x100 EXP DUP2 SLOAD DUP2 PUSH1 0xFF MUL NOT AND SWAP1 DUP4 ISZERO ISZERO MUL OR SWAP1 SSTORE POP PUSH2 0x120 DUP3 ADD MLOAD DUP2 PUSH1 0x8 ADD PUSH1 0x1 PUSH2 0x100 EXP DUP2 SLOAD DUP2 PUSH1 0xFF MUL NOT AND SWAP1 DUP4 ISZERO ISZERO MUL OR SWAP1 SSTORE POP PUSH2 0x140 DUP3 ADD MLOAD DUP2 PUSH1 0x8 ADD PUSH1 0x2 PUSH2 0x100 EXP DUP2 SLOAD DUP2 PUSH1 0xFF MUL NOT AND SWAP1 DUP4 ISZERO ISZERO MUL OR SWAP1 SSTORE POP POP POP PUSH1 0xE PUSH1 0x40 MLOAD DUP1 PUSH2 0x160 ADD PUSH1 0x40 MSTORE DUP1 PUSH1 0x4 PUSH1 0x0 SWAP1 SLOAD SWAP1 PUSH2 0x100 EXP SWAP1 DIV PUSH1 0x1 PUSH1 0x1 PUSH1 0xA0 SHL SUB AND PUSH1 0x1 PUSH1 0x1 PUSH1 0xA0 SHL SUB AND DUP2 MSTORE PUSH1 0x20 ADD DUP5 PUSH1 0x1 PUSH1 0x1 PUSH1 0xA0 SHL SUB AND DUP2 MSTORE PUSH1 0x20 ADD PUSH1 0x0 DUP2 MSTORE PUSH1 0x20 ADD PUSH1 0x0 DUP2 MSTORE PUSH1 0x20 ADD TIMESTAMP DUP2 MSTORE PUSH1 0x20 ADD PUSH1 0x0 DUP2 MSTORE PUSH1 0x20 ADD PUSH1 0xFA DUP2 MSTORE PUSH1 0x20 ADD PUSH2 0x2BC DUP2 MSTORE PUSH1 0x20 ADD PUSH1 0x0 ISZERO ISZERO DUP2 MSTORE PUSH1 0x20 ADD PUSH1 0x0 ISZERO ISZERO DUP2 MSTORE PUSH1 0x20 ADD PUSH1 0x0 ISZERO ISZERO DUP2 MSTORE POP SWAP1 DUP1 PUSH1 0x1 DUP2 SLOAD ADD DUP1 DUP3 SSTORE DUP1 SWAP2 POP POP PUSH1 0x1 SWAP1 SUB SWAP1 PUSH1 0x0 MSTORE PUSH1 0x20 PUSH1 0x0 KECCAK256 SWAP1 PUSH1 0x9 MUL ADD PUSH1 0x0 SWAP1 SWAP2 SWAP1 SWAP2 SWAP1 SWAP2 POP PUSH1 0x0 DUP3 ADD MLOAD DUP2 PUSH1 0x0 ADD PUSH1 0x0 PUSH2 0x100 EXP DUP2 SLOAD DUP2 PUSH1 0x1 PUSH1 0x1 PUSH1 0xA0 SHL SUB MUL NOT AND SWAP1 DUP4 PUSH1 0x1 PUSH1 0x1 PUSH1 0xA0 SHL SUB AND MUL OR SWAP1 SSTORE POP PUSH1 0x20 DUP3 ADD MLOAD DUP2 PUSH1 0x1 ADD PUSH1 0x0 PUSH2 0x100 EXP DUP2 SLOAD DUP2 PUSH1 0x1 PUSH1 0x1 PUSH1 0xA0 SHL SUB MUL NOT AND SWAP1 DUP4 PUSH1 0x1 PUSH1 0x1 PUSH1 0xA0 SHL SUB AND MUL OR SWAP1 SSTORE POP PUSH1 0x40 DUP3 ADD MLOAD DUP2 PUSH1 0x2 ADD SSTORE PUSH1 0x60 DUP3 ADD MLOAD DUP2 PUSH1 0x3 ADD SSTORE PUSH1 0x80 DUP3 ADD MLOAD DUP2 PUSH1 0x4 ADD SSTORE PUSH1 0xA0 DUP3 ADD MLOAD DUP2 PUSH1 0x5 ADD SSTORE PUSH1 0xC0 DUP3 ADD MLOAD DUP2 PUSH1 0x6 ADD SSTORE PUSH1 0xE0 DUP3 ADD MLOAD DUP2 PUSH1 0x7 ADD SSTORE PUSH2 0x100 DUP3 ADD MLOAD DUP2 PUSH1 0x8 ADD PUSH1 0x0 PUSH2 0x100 EXP DUP2 SLOAD DUP2 PUSH1 0xFF MUL NOT AND SWAP1 DUP4 ISZERO ISZERO MUL OR SWAP1 SSTORE POP PUSH2 0x120 DUP3 ADD MLOAD DUP2 PUSH1 0x8 ADD PUSH1 0x1 PUSH2 0x100 EXP DUP2 SLOAD DUP2 PUSH1 0xFF MUL NOT AND SWAP1 DUP4 ISZERO ISZERO MUL OR SWAP1 SSTORE POP PUSH2 0x140 DUP3 ADD MLOAD DUP2 PUSH1 0x8 ADD PUSH1 0x2 PUSH2 0x100 EXP DUP2 SLOAD DUP2 PUSH1 0xFF MUL NOT AND SWAP1 DUP4 ISZERO ISZERO MUL OR SWAP1 SSTORE POP POP POP PUSH1 0xE PUSH1 0x40 MLOAD DUP1 PUSH2 0x160 ADD PUSH1 0x40 MSTORE DUP1 PUSH1 0x6 PUSH1 0x0 SWAP1 SLOAD SWAP1 PUSH2 0x100 EXP SWAP1 DIV PUSH1 0x1 PUSH1 0x1 PUSH1 0xA0 SHL SUB AND PUSH1 0x1 PUSH1 0x1 PUSH1 0xA0 SHL SUB AND DUP2 MSTORE PUSH1 0x20 ADD DUP4 PUSH1 0x1 PUSH1 0x1 PUSH1 0xA0 SHL SUB AND DUP2 MSTORE PUSH1 0x20 ADD PUSH1 0x0 DUP2 MSTORE PUSH1 0x20 ADD PUSH1 0x0 DUP2 MSTORE PUSH1 0x20 ADD TIMESTAMP DUP2 MSTORE PUSH1 0x20 ADD PUSH1 0x0 DUP2 MSTORE PUSH1 0x20 ADD PUSH1 0xFA DUP2 MSTORE PUSH1 0x20 ADD PUSH2 0x2BC DUP2 MSTORE PUSH1 0x20 ADD PUSH1 0x0 ISZERO ISZERO DUP2 MSTORE PUSH1 0x20 ADD PUSH1 0x0 ISZERO ISZERO DUP2 MSTORE PUSH1 0x20 ADD PUSH1 0x0 ISZERO ISZERO DUP2 MSTORE POP SWAP1 DUP1 PUSH1 0x1 DUP2 SLOAD ADD DUP1 DUP3 SSTORE DUP1 SWAP2 POP POP PUSH1 0x1 SWAP1 SUB SWAP1 PUSH1 0x0 MSTORE PUSH1 0x20 PUSH1 0x0 KECCAK256 SWAP1 PUSH1 0x9 MUL ADD PUSH1 0x0 SWAP1 SWAP2 SWAP1 SWAP2 SWAP1 SWAP2 POP PUSH1 0x0 DUP3 ADD MLOAD DUP2 PUSH1 0x0 ADD PUSH1 0x0 PUSH2 0x100 EXP DUP2 SLOAD DUP2 PUSH1 0x1 PUSH1 0x1 PUSH1 0xA0 SHL SUB MUL NOT AND SWAP1 DUP4 PUSH1 0x1 PUSH1 0x1 PUSH1 0xA0 SHL SUB AND MUL OR SWAP1 SSTORE POP PUSH1 0x20 DUP3 ADD MLOAD DUP2 PUSH1 0x1 ADD PUSH1 0x0 PUSH2 0x100 EXP DUP2 SLOAD DUP2 PUSH1 0x1 PUSH1 0x1 PUSH1 0xA0 SHL SUB MUL NOT AND SWAP1 DUP4 PUSH1 0x1 PUSH1 0x1 PUSH1 0xA0 SHL SUB AND MUL OR SWAP1 SSTORE POP PUSH1 0x40 DUP3 ADD MLOAD DUP2 PUSH1 0x2 ADD SSTORE PUSH1 0x60 DUP3 ADD MLOAD DUP2 PUSH1 0x3 ADD SSTORE PUSH1 0x80 DUP3 ADD MLOAD DUP2 PUSH1 0x4 ADD SSTORE PUSH1 0xA0 DUP3 ADD MLOAD DUP2 PUSH1 0x5 ADD SSTORE PUSH1 0xC0 DUP3 ADD MLOAD DUP2 PUSH1 0x6 ADD SSTORE PUSH1 0xE0 DUP3 ADD MLOAD DUP2 PUSH1 0x7 ADD SSTORE PUSH2 0x100 DUP3 ADD MLOAD DUP2 PUSH1 0x8 ADD PUSH1 0x0 PUSH2 0x100 EXP DUP2 SLOAD DUP2 PUSH1 0xFF MUL NOT AND SWAP1 DUP4 ISZERO ISZERO MUL OR SWAP1 SSTORE POP PUSH2 0x120 DUP3 ADD MLOAD DUP2 PUSH1 0x8 ADD PUSH1 0x1 PUSH2 0x100 EXP DUP2 SLOAD DUP2 PUSH1 0xFF MUL NOT AND SWAP1 DUP4 ISZERO ISZERO MUL OR SWAP1 SSTORE POP PUSH2 0x140 DUP3 ADD MLOAD DUP2 PUSH1 0x8 ADD PUSH1 0x2 PUSH2 0x100 EXP DUP2 SLOAD DUP2 PUSH1 0xFF MUL NOT AND SWAP1 DUP4 ISZERO ISZERO MUL OR SWAP1 SSTORE POP POP POP POP POP POP PUSH3 0x70B JUMP JUMPDEST PUSH1 0x0 DUP1 SLOAD PUSH1 0x1 PUSH1 0x1 PUSH1 0xA0 SHL SUB DUP4 DUP2 AND PUSH1 0x1 PUSH1 0x1 PUSH1 0xA0 SHL SUB NOT DUP4 AND DUP2 OR DUP5 SSTORE PUSH1 0x40 MLOAD SWAP2 SWAP1 SWAP3 AND SWAP3 DUP4 SWAP2 PUSH32 0x8BE0079C531659141344CD1FD0A4F28419497F9722A3DAAFE3B4186F6B6457E0 SWAP2 SWAP1 LOG3 POP POP JUMP JUMPDEST DUP1 MLOAD PUSH1 0x1 PUSH1 0x1 PUSH1 0xA0 SHL SUB DUP2 AND DUP2 EQ PUSH3 0x6BC JUMPI PUSH1 0x0 DUP1 REVERT JUMPDEST SWAP2 SWAP1 POP JUMP JUMPDEST PUSH1 0x0 DUP1 PUSH1 0x0 PUSH1 0x60 DUP5 DUP7 SUB SLT ISZERO PUSH3 0x6D7 JUMPI PUSH1 0x0 DUP1 REVERT JUMPDEST PUSH3 0x6E2 DUP5 PUSH3 0x6A4 JUMP JUMPDEST SWAP3 POP PUSH3 0x6F2 PUSH1 0x20 DUP6 ADD PUSH3 0x6A4 JUMP JUMPDEST SWAP2 POP PUSH3 0x702 PUSH1 0x40 DUP6 ADD PUSH3 0x6A4 JUMP JUMPDEST SWAP1 POP SWAP3 POP SWAP3 POP SWAP3 JUMP JUMPDEST PUSH2 0x3C75 DUP1 PUSH3 0x71B PUSH1 0x0 CODECOPY PUSH1 0x0 RETURN INVALID PUSH1 0x80 PUSH1 0x40 MSTORE PUSH1 0x4 CALLDATASIZE LT PUSH2 0x26B JUMPI PUSH1 0x0 CALLDATALOAD PUSH1 0xE0 SHR DUP1 PUSH4 0x932ACF22 GT PUSH2 0x144 JUMPI DUP1 PUSH4 0xCE848D28 GT PUSH2 0xB6 JUMPI DUP1 PUSH4 0xF0FA55A9 GT PUSH2 0x7A JUMPI DUP1 PUSH4 0xF0FA55A9 EQ PUSH2 0x740 JUMPI DUP1 PUSH4 0xF2A3013E EQ PUSH2 0x760 JUMPI DUP1 PUSH4 0xF2FDE38B EQ PUSH2 0x780 JUMPI DUP1 PUSH4 0xF39C9F0E EQ PUSH2 0x7A0 JUMPI DUP1 PUSH4 0xF8491E4B EQ PUSH2 0x7B6 JUMPI DUP1 PUSH4 0xFF75BB77 EQ PUSH2 0x7D6 JUMPI PUSH1 0x0 DUP1 REVERT JUMPDEST DUP1 PUSH4 0xCE848D28 EQ PUSH2 0x6B6 JUMPI DUP1 PUSH4 0xE02AE075 EQ PUSH2 0x6D6 JUMPI DUP1 PUSH4 0xE2F608E8 EQ PUSH2 0x6F6 JUMPI DUP1 PUSH4 0xE8EBB1E4 EQ PUSH2 0x70B JUMPI DUP1 PUSH4 0xEAA4F0B2 EQ PUSH2 0x72B JUMPI PUSH1 0x0 DUP1 REVERT JUMPDEST DUP1 PUSH4 0xAD5C4648 GT PUSH2 0x108 JUMPI DUP1 PUSH4 0xAD5C4648 EQ PUSH2 0x60E JUMPI DUP1 PUSH4 0xAD6C2A60 EQ PUSH2 0x62E JUMPI DUP1 PUSH4 0xC20632BA EQ PUSH2 0x643 JUMPI DUP1 PUSH4 0xC909F152 EQ PUSH2 0x663 JUMPI DUP1 PUSH4 0xCE18ACD4 EQ PUSH2 0x683 JUMPI DUP1 PUSH4 0xCE694A60 EQ PUSH2 0x696 JUMPI PUSH1 0x0 DUP1 REVERT JUMPDEST DUP1 PUSH4 0x932ACF22 EQ PUSH2 0x579 JUMPI DUP1 PUSH4 0x98E8220F EQ PUSH2 0x599 JUMPI DUP1 PUSH4 0xA230561B EQ PUSH2 0x5B9 JUMPI DUP1 PUSH4 0xA5235957 EQ PUSH2 0x5D9 JUMPI DUP1 PUSH4 0xA695F120 EQ PUSH2 0x5EE JUMPI PUSH1 0x0 DUP1 REVERT JUMPDEST DUP1 PUSH4 0x421EF1ED GT PUSH2 0x1DD JUMPI DUP1 PUSH4 0x715018A6 GT PUSH2 0x1A1 JUMPI DUP1 PUSH4 0x715018A6 EQ PUSH2 0x4C6 JUMPI DUP1 PUSH4 0x741BEF1A EQ PUSH2 0x4DB JUMPI DUP1 PUSH4 0x820E13DF EQ PUSH2 0x4FB JUMPI DUP1 PUSH4 0x863F95CE EQ PUSH2 0x51B JUMPI DUP1 PUSH4 0x89A30271 EQ PUSH2 0x53B JUMPI DUP1 PUSH4 0x8DA5CB5B EQ PUSH2 0x55B JUMPI PUSH1 0x0 DUP1 REVERT JUMPDEST DUP1 PUSH4 0x421EF1ED EQ PUSH2 0x449 JUMPI DUP1 PUSH4 0x4DEDE3DE EQ PUSH2 0x45E JUMPI DUP1 PUSH4 0x542CD700 EQ PUSH2 0x47E JUMPI DUP1 PUSH4 0x644E0A4E EQ PUSH2 0x491 JUMPI DUP1 PUSH4 0x6BC832E4 EQ PUSH2 0x4A6 JUMPI PUSH1 0x0 DUP1 REVERT JUMPDEST DUP1 PUSH4 0x23972AEF GT PUSH2 0x22F JUMPI DUP1 PUSH4 0x23972AEF EQ PUSH2 0x38F JUMPI DUP1 PUSH4 0x31B62BA3 EQ PUSH2 0x3AF JUMPI DUP1 PUSH4 0x3BDD7D26 EQ PUSH2 0x3CF JUMPI DUP1 PUSH4 0x3D47B41C EQ PUSH2 0x3EF JUMPI DUP1 PUSH4 0x3E032A3B EQ PUSH2 0x413 JUMPI DUP1 PUSH4 0x3E4CFC67 EQ PUSH2 0x429 JUMPI PUSH1 0x0 DUP1 REVERT JUMPDEST DUP1 PUSH4 0x4A2CE7E EQ PUSH2 0x277 JUMPI DUP1 PUSH4 0xEC689AA EQ PUSH2 0x299 JUMPI DUP1 PUSH4 0x143D51F6 EQ PUSH2 0x2D6 JUMPI DUP1 PUSH4 0x1526FE27 EQ PUSH2 0x2F6 JUMPI DUP1 PUSH4 0x1B50F4B7 EQ PUSH2 0x37A JUMPI PUSH1 0x0 DUP1 REVERT JUMPDEST CALLDATASIZE PUSH2 0x272 JUMPI STOP JUMPDEST PUSH1 0x0 DUP1 REVERT JUMPDEST CALLVALUE DUP1 ISZERO PUSH2 0x283 JUMPI PUSH1 0x0 DUP1 REVERT JUMPDEST POP PUSH2 0x297 PUSH2 0x292 CALLDATASIZE PUSH1 0x4 PUSH2 0x392B JUMP JUMPDEST PUSH2 0x7F6 JUMP JUMPDEST STOP JUMPDEST CALLVALUE DUP1 ISZERO PUSH2 0x2A5 JUMPI PUSH1 0x0 DUP1 REVERT JUMPDEST POP PUSH1 0xA SLOAD PUSH2 0x2B9 SWAP1 PUSH1 0x1 PUSH1 0x1 PUSH1 0xA0 SHL SUB AND DUP2 JUMP JUMPDEST PUSH1 0x40 MLOAD PUSH1 0x1 PUSH1 0x1 PUSH1 0xA0 SHL SUB SWAP1 SWAP2 AND DUP2 MSTORE PUSH1 0x20 ADD JUMPDEST PUSH1 0x40 MLOAD DUP1 SWAP2 SUB SWAP1 RETURN JUMPDEST CALLVALUE DUP1 ISZERO PUSH2 0x2E2 JUMPI PUSH1 0x0 DUP1 REVERT JUMPDEST POP PUSH1 0x8 SLOAD PUSH2 0x2B9 SWAP1 PUSH1 0x1 PUSH1 0x1 PUSH1 0xA0 SHL SUB AND DUP2 JUMP JUMPDEST CALLVALUE DUP1 ISZERO PUSH2 0x302 JUMPI PUSH1 0x0 DUP1 REVERT JUMPDEST POP PUSH2 0x316 PUSH2 0x311 CALLDATASIZE PUSH1 0x4 PUSH2 0x392B JUMP JUMPDEST PUSH2 0x875 JUMP JUMPDEST PUSH1 0x40 DUP1 MLOAD PUSH1 0x1 PUSH1 0x1 PUSH1 0xA0 SHL SUB SWAP13 DUP14 AND DUP2 MSTORE SWAP12 SWAP1 SWAP11 AND PUSH1 0x20 DUP13 ADD MSTORE SWAP9 DUP11 ADD SWAP8 SWAP1 SWAP8 MSTORE PUSH1 0x60 DUP10 ADD SWAP6 SWAP1 SWAP6 MSTORE PUSH1 0x80 DUP9 ADD SWAP4 SWAP1 SWAP4 MSTORE PUSH1 0xA0 DUP8 ADD SWAP2 SWAP1 SWAP2 MSTORE PUSH1 0xC0 DUP7 ADD MSTORE PUSH1 0xE0 DUP6 ADD MSTORE ISZERO ISZERO PUSH2 0x100 DUP5 ADD MSTORE ISZERO ISZERO PUSH2 0x120 DUP4 ADD MSTORE ISZERO ISZERO PUSH2 0x140 DUP3 ADD MSTORE PUSH2 0x160 ADD PUSH2 0x2CD JUMP JUMPDEST CALLVALUE DUP1 ISZERO PUSH2 0x386 JUMPI PUSH1 0x0 DUP1 REVERT JUMPDEST POP PUSH2 0x297 PUSH2 0x8F3 JUMP JUMPDEST CALLVALUE DUP1 ISZERO PUSH2 0x39B JUMPI PUSH1 0x0 DUP1 REVERT JUMPDEST POP PUSH2 0x297 PUSH2 0x3AA CALLDATASIZE PUSH1 0x4 PUSH2 0x3944 JUMP JUMPDEST PUSH2 0xA35 JUMP JUMPDEST CALLVALUE DUP1 ISZERO PUSH2 0x3BB JUMPI PUSH1 0x0 DUP1 REVERT JUMPDEST POP PUSH1 0x9 SLOAD PUSH2 0x2B9 SWAP1 PUSH1 0x1 PUSH1 0x1 PUSH1 0xA0 SHL SUB AND DUP2 JUMP JUMPDEST CALLVALUE DUP1 ISZERO PUSH2 0x3DB JUMPI PUSH1 0x0 DUP1 REVERT JUMPDEST POP PUSH2 0x297 PUSH2 0x3EA CALLDATASIZE PUSH1 0x4 PUSH2 0x392B JUMP JUMPDEST PUSH2 0xF44 JUMP JUMPDEST CALLVALUE DUP1 ISZERO PUSH2 0x3FB JUMPI PUSH1 0x0 DUP1 REVERT JUMPDEST POP PUSH2 0x405 PUSH1 0xD SLOAD DUP2 JUMP JUMPDEST PUSH1 0x40 MLOAD SWAP1 DUP2 MSTORE PUSH1 0x20 ADD PUSH2 0x2CD JUMP JUMPDEST CALLVALUE DUP1 ISZERO PUSH2 0x41F JUMPI PUSH1 0x0 DUP1 REVERT JUMPDEST POP PUSH2 0x405 PUSH1 0x3 SLOAD DUP2 JUMP JUMPDEST CALLVALUE DUP1 ISZERO PUSH2 0x435 JUMPI PUSH1 0x0 DUP1 REVERT JUMPDEST POP PUSH2 0x297 PUSH2 0x444 CALLDATASIZE PUSH1 0x4 PUSH2 0x392B JUMP JUMPDEST PUSH2 0x102A JUMP JUMPDEST CALLVALUE DUP1 ISZERO PUSH2 0x455 JUMPI PUSH1 0x0 DUP1 REVERT JUMPDEST POP PUSH2 0x405 PUSH2 0x1084 JUMP JUMPDEST CALLVALUE DUP1 ISZERO PUSH2 0x46A JUMPI PUSH1 0x0 DUP1 REVERT JUMPDEST POP PUSH1 0x6 SLOAD PUSH2 0x2B9 SWAP1 PUSH1 0x1 PUSH1 0x1 PUSH1 0xA0 SHL SUB AND DUP2 JUMP JUMPDEST PUSH2 0x297 PUSH2 0x48C CALLDATASIZE PUSH1 0x4 PUSH2 0x3944 JUMP JUMPDEST PUSH2 0x10F6 JUMP JUMPDEST CALLVALUE DUP1 ISZERO PUSH2 0x49D JUMPI PUSH1 0x0 DUP1 REVERT JUMPDEST POP PUSH2 0x405 PUSH2 0x16CA JUMP JUMPDEST CALLVALUE DUP1 ISZERO PUSH2 0x4B2 JUMPI PUSH1 0x0 DUP1 REVERT JUMPDEST POP PUSH2 0x297 PUSH2 0x4C1 CALLDATASIZE PUSH1 0x4 PUSH2 0x392B JUMP JUMPDEST PUSH2 0x1761 JUMP JUMPDEST CALLVALUE DUP1 ISZERO PUSH2 0x4D2 JUMPI PUSH1 0x0 DUP1 REVERT JUMPDEST POP PUSH2 0x297 PUSH2 0x17BA JUMP JUMPDEST CALLVALUE DUP1 ISZERO PUSH2 0x4E7 JUMPI PUSH1 0x0 DUP1 REVERT JUMPDEST POP PUSH1 0xC SLOAD PUSH2 0x2B9 SWAP1 PUSH1 0x1 PUSH1 0x1 PUSH1 0xA0 SHL SUB AND DUP2 JUMP JUMPDEST CALLVALUE DUP1 ISZERO PUSH2 0x507 JUMPI PUSH1 0x0 DUP1 REVERT JUMPDEST POP PUSH2 0x297 PUSH2 0x516 CALLDATASIZE PUSH1 0x4 PUSH2 0x3944 JUMP JUMPDEST PUSH2 0x17CC JUMP JUMPDEST CALLVALUE DUP1 ISZERO PUSH2 0x527 JUMPI PUSH1 0x0 DUP1 REVERT JUMPDEST POP PUSH2 0x297 PUSH2 0x536 CALLDATASIZE PUSH1 0x4 PUSH2 0x397B JUMP JUMPDEST PUSH2 0x1801 JUMP JUMPDEST CALLVALUE DUP1 ISZERO PUSH2 0x547 JUMPI PUSH1 0x0 DUP1 REVERT JUMPDEST POP PUSH1 0x5 SLOAD PUSH2 0x2B9 SWAP1 PUSH1 0x1 PUSH1 0x1 PUSH1 0xA0 SHL SUB AND DUP2 JUMP JUMPDEST CALLVALUE DUP1 ISZERO PUSH2 0x567 JUMPI PUSH1 0x0 DUP1 REVERT JUMPDEST POP PUSH1 0x0 SLOAD PUSH1 0x1 PUSH1 0x1 PUSH1 0xA0 SHL SUB AND PUSH2 0x2B9 JUMP JUMPDEST CALLVALUE DUP1 ISZERO PUSH2 0x585 JUMPI PUSH1 0x0 DUP1 REVERT JUMPDEST POP PUSH2 0x297 PUSH2 0x594 CALLDATASIZE PUSH1 0x4 PUSH2 0x3998 JUMP JUMPDEST PUSH2 0x187F JUMP JUMPDEST CALLVALUE DUP1 ISZERO PUSH2 0x5A5 JUMPI PUSH1 0x0 DUP1 REVERT JUMPDEST POP PUSH2 0x405 PUSH2 0x5B4 CALLDATASIZE PUSH1 0x4 PUSH2 0x39C4 JUMP JUMPDEST PUSH2 0x19CF JUMP JUMPDEST CALLVALUE DUP1 ISZERO PUSH2 0x5C5 JUMPI PUSH1 0x0 DUP1 REVERT JUMPDEST POP PUSH2 0x297 PUSH2 0x5D4 CALLDATASIZE PUSH1 0x4 PUSH2 0x3944 JUMP JUMPDEST PUSH2 0x1B24 JUMP JUMPDEST CALLVALUE DUP1 ISZERO PUSH2 0x5E5 JUMPI PUSH1 0x0 DUP1 REVERT JUMPDEST POP PUSH2 0x297 PUSH2 0x1BF0 JUMP JUMPDEST CALLVALUE DUP1 ISZERO PUSH2 0x5FA JUMPI PUSH1 0x0 DUP1 REVERT JUMPDEST POP PUSH1 0x7 SLOAD PUSH2 0x2B9 SWAP1 PUSH1 0x1 PUSH1 0x1 PUSH1 0xA0 SHL SUB AND DUP2 JUMP JUMPDEST CALLVALUE DUP1 ISZERO PUSH2 0x61A JUMPI PUSH1 0x0 DUP1 REVERT JUMPDEST POP PUSH1 0x4 SLOAD PUSH2 0x2B9 SWAP1 PUSH1 0x1 PUSH1 0x1 PUSH1 0xA0 SHL SUB AND DUP2 JUMP JUMPDEST CALLVALUE DUP1 ISZERO PUSH2 0x63A JUMPI PUSH1 0x0 DUP1 REVERT JUMPDEST POP PUSH2 0x297 PUSH2 0x1C8D JUMP JUMPDEST CALLVALUE DUP1 ISZERO PUSH2 0x64F JUMPI PUSH1 0x0 DUP1 REVERT JUMPDEST POP PUSH2 0x297 PUSH2 0x65E CALLDATASIZE PUSH1 0x4 PUSH2 0x39FC JUMP JUMPDEST PUSH2 0x1C9D JUMP JUMPDEST CALLVALUE DUP1 ISZERO PUSH2 0x66F JUMPI PUSH1 0x0 DUP1 REVERT JUMPDEST POP PUSH2 0x297 PUSH2 0x67E CALLDATASIZE PUSH1 0x4 PUSH2 0x392B JUMP JUMPDEST PUSH2 0x1FBA JUMP JUMPDEST PUSH2 0x297 PUSH2 0x691 CALLDATASIZE PUSH1 0x4 PUSH2 0x392B JUMP JUMPDEST PUSH2 0x2048 JUMP JUMPDEST CALLVALUE DUP1 ISZERO PUSH2 0x6A2 JUMPI PUSH1 0x0 DUP1 REVERT JUMPDEST POP PUSH2 0x405 PUSH2 0x6B1 CALLDATASIZE PUSH1 0x4 PUSH2 0x392B JUMP JUMPDEST PUSH2 0x2550 JUMP JUMPDEST CALLVALUE DUP1 ISZERO PUSH2 0x6C2 JUMPI PUSH1 0x0 DUP1 REVERT JUMPDEST POP PUSH2 0x405 PUSH2 0x6D1 CALLDATASIZE PUSH1 0x4 PUSH2 0x3998 JUMP JUMPDEST PUSH2 0x2617 JUMP JUMPDEST CALLVALUE DUP1 ISZERO PUSH2 0x6E2 JUMPI PUSH1 0x0 DUP1 REVERT JUMPDEST POP PUSH2 0x405 PUSH2 0x6F1 CALLDATASIZE PUSH1 0x4 PUSH2 0x3944 JUMP JUMPDEST PUSH2 0x271C JUMP JUMPDEST CALLVALUE DUP1 ISZERO PUSH2 0x702 JUMPI PUSH1 0x0 DUP1 REVERT JUMPDEST POP PUSH2 0x405 PUSH2 0x2BB9 JUMP JUMPDEST CALLVALUE DUP1 ISZERO PUSH2 0x717 JUMPI PUSH1 0x0 DUP1 REVERT JUMPDEST POP PUSH2 0x297 PUSH2 0x726 CALLDATASIZE PUSH1 0x4 PUSH2 0x3998 JUMP JUMPDEST PUSH2 0x2BF3 JUMP JUMPDEST CALLVALUE DUP1 ISZERO PUSH2 0x737 JUMPI PUSH1 0x0 DUP1 REVERT JUMPDEST POP PUSH2 0x297 PUSH2 0x2C5F JUMP JUMPDEST CALLVALUE DUP1 ISZERO PUSH2 0x74C JUMPI PUSH1 0x0 DUP1 REVERT JUMPDEST POP PUSH2 0x297 PUSH2 0x75B CALLDATASIZE PUSH1 0x4 PUSH2 0x392B JUMP JUMPDEST PUSH2 0x2CFF JUMP JUMPDEST CALLVALUE DUP1 ISZERO PUSH2 0x76C JUMPI PUSH1 0x0 DUP1 REVERT JUMPDEST POP PUSH2 0x297 PUSH2 0x77B CALLDATASIZE PUSH1 0x4 PUSH2 0x3A42 JUMP JUMPDEST PUSH2 0x2D5A JUMP JUMPDEST CALLVALUE DUP1 ISZERO PUSH2 0x78C JUMPI PUSH1 0x0 DUP1 REVERT JUMPDEST POP PUSH2 0x297 PUSH2 0x79B CALLDATASIZE PUSH1 0x4 PUSH2 0x397B JUMP JUMPDEST PUSH2 0x2E0B JUMP JUMPDEST CALLVALUE DUP1 ISZERO PUSH2 0x7AC JUMPI PUSH1 0x0 DUP1 REVERT JUMPDEST POP PUSH2 0x405 PUSH1 0x2 SLOAD DUP2 JUMP JUMPDEST CALLVALUE DUP1 ISZERO PUSH2 0x7C2 JUMPI PUSH1 0x0 DUP1 REVERT JUMPDEST POP PUSH2 0x405 PUSH2 0x7D1 CALLDATASIZE PUSH1 0x4 PUSH2 0x392B JUMP JUMPDEST PUSH2 0x2E81 JUMP JUMPDEST CALLVALUE DUP1 ISZERO PUSH2 0x7E2 JUMPI PUSH1 0x0 DUP1 REVERT JUMPDEST POP PUSH2 0x405 PUSH2 0x7F1 CALLDATASIZE PUSH1 0x4 PUSH2 0x392B JUMP JUMPDEST PUSH2 0x2F4C JUMP JUMPDEST PUSH2 0x7FE PUSH2 0x3010 JUMP JUMPDEST PUSH1 0x1 PUSH1 0xE DUP3 DUP2 SLOAD DUP2 LT PUSH2 0x813 JUMPI PUSH2 0x813 PUSH2 0x3A72 JUMP JUMPDEST PUSH1 0x0 SWAP2 DUP3 MSTORE PUSH1 0x20 DUP3 KECCAK256 PUSH1 0x9 SWAP2 SWAP1 SWAP2 MUL ADD PUSH1 0x8 ADD DUP1 SLOAD PUSH1 0xFF NOT AND SWAP3 ISZERO ISZERO SWAP3 SWAP1 SWAP3 OR SWAP1 SWAP2 SSTORE PUSH1 0xE DUP1 SLOAD DUP4 SWAP1 DUP2 LT PUSH2 0x84A JUMPI PUSH2 0x84A PUSH2 0x3A72 JUMP JUMPDEST SWAP1 PUSH1 0x0 MSTORE PUSH1 0x20 PUSH1 0x0 KECCAK256 SWAP1 PUSH1 0x9 MUL ADD PUSH1 0x8 ADD PUSH1 0x1 PUSH2 0x100 EXP DUP2 SLOAD DUP2 PUSH1 0xFF MUL NOT AND SWAP1 DUP4 ISZERO ISZERO MUL OR SWAP1 SSTORE POP POP JUMP JUMPDEST PUSH1 0xE DUP2 DUP2 SLOAD DUP2 LT PUSH2 0x885 JUMPI PUSH1 0x0 DUP1 REVERT JUMPDEST PUSH1 0x0 SWAP2 DUP3 MSTORE PUSH1 0x20 SWAP1 SWAP2 KECCAK256 PUSH1 0x9 SWAP1 SWAP2 MUL ADD DUP1 SLOAD PUSH1 0x1 DUP3 ADD SLOAD PUSH1 0x2 DUP4 ADD SLOAD PUSH1 0x3 DUP5 ADD SLOAD PUSH1 0x4 DUP6 ADD SLOAD PUSH1 0x5 DUP7 ADD SLOAD PUSH1 0x6 DUP8 ADD SLOAD PUSH1 0x7 DUP9 ADD SLOAD PUSH1 0x8 SWAP1 SWAP9 ADD SLOAD PUSH1 0x1 PUSH1 0x1 PUSH1 0xA0 SHL SUB SWAP8 DUP9 AND SWAP10 POP SWAP7 SWAP1 SWAP6 AND SWAP7 SWAP4 SWAP6 SWAP3 SWAP5 SWAP2 SWAP4 SWAP1 SWAP3 PUSH1 0xFF DUP1 DUP3 AND SWAP2 PUSH2 0x100 DUP2 DIV DUP3 AND SWAP2 PUSH3 0x10000 SWAP1 SWAP2 DIV AND DUP12 JUMP JUMPDEST PUSH2 0x8FB PUSH2 0x3010 JUMP JUMPDEST PUSH1 0xA PUSH1 0x0 SWAP1 SLOAD SWAP1 PUSH2 0x100 EXP SWAP1 DIV PUSH1 0x1 PUSH1 0x1 PUSH1 0xA0 SHL SUB AND PUSH1 0x1 PUSH1 0x1 PUSH1 0xA0 SHL SUB AND PUSH4 0x5FE3945F PUSH1 0x40 MLOAD DUP2 PUSH4 0xFFFFFFFF AND PUSH1 0xE0 SHL DUP2 MSTORE PUSH1 0x4 ADD PUSH1 0x0 PUSH1 0x40 MLOAD DUP1 DUP4 SUB DUP2 PUSH1 0x0 DUP8 DUP1 EXTCODESIZE ISZERO DUP1 ISZERO PUSH2 0x94B JUMPI PUSH1 0x0 DUP1 REVERT JUMPDEST POP GAS CALL ISZERO DUP1 ISZERO PUSH2 0x95F JUMPI RETURNDATASIZE PUSH1 0x0 DUP1 RETURNDATACOPY RETURNDATASIZE PUSH1 0x0 REVERT JUMPDEST POP POP PUSH1 0xA SLOAD PUSH1 0x7 SLOAD PUSH1 0x40 MLOAD PUSH4 0x70A08231 PUSH1 0xE0 SHL DUP2 MSTORE ADDRESS PUSH1 0x4 DUP3 ADD MSTORE PUSH1 0x1 PUSH1 0x1 PUSH1 0xA0 SHL SUB SWAP3 DUP4 AND SWAP5 POP PUSH4 0xEF8C5994 SWAP4 POP SWAP2 AND SWAP1 PUSH4 0x70A08231 SWAP1 PUSH1 0x24 ADD PUSH1 0x20 PUSH1 0x40 MLOAD DUP1 DUP4 SUB DUP2 DUP7 GAS STATICCALL ISZERO DUP1 ISZERO PUSH2 0x9B7 JUMPI RETURNDATASIZE PUSH1 0x0 DUP1 RETURNDATACOPY RETURNDATASIZE PUSH1 0x0 REVERT JUMPDEST POP POP POP POP PUSH1 0x40 MLOAD RETURNDATASIZE PUSH1 0x1F NOT PUSH1 0x1F DUP3 ADD AND DUP3 ADD DUP1 PUSH1 0x40 MSTORE POP DUP2 ADD SWAP1 PUSH2 0x9DB SWAP2 SWAP1 PUSH2 0x3A88 JUMP JUMPDEST PUSH1 0x40 MLOAD DUP3 PUSH4 0xFFFFFFFF AND PUSH1 0xE0 SHL DUP2 MSTORE PUSH1 0x4 ADD PUSH2 0x9F9 SWAP2 DUP2 MSTORE PUSH1 0x20 ADD SWAP1 JUMP JUMPDEST PUSH1 0x0 PUSH1 0x40 MLOAD DUP1 DUP4 SUB DUP2 PUSH1 0x0 DUP8 DUP1 EXTCODESIZE ISZERO DUP1 ISZERO PUSH2 0xA13 JUMPI PUSH1 0x0 DUP1 REVERT JUMPDEST POP GAS CALL ISZERO DUP1 ISZERO PUSH2 0xA27 JUMPI RETURNDATASIZE PUSH1 0x0 DUP1 RETURNDATACOPY RETURNDATASIZE PUSH1 0x0 REVERT JUMPDEST POP POP POP POP PUSH2 0xA33 PUSH2 0x306A JUMP JUMPDEST JUMP JUMPDEST PUSH1 0x2 PUSH1 0x1 SLOAD EQ ISZERO PUSH2 0xA61 JUMPI PUSH1 0x40 MLOAD PUSH3 0x461BCD PUSH1 0xE5 SHL DUP2 MSTORE PUSH1 0x4 ADD PUSH2 0xA58 SWAP1 PUSH2 0x3AA1 JUMP JUMPDEST PUSH1 0x40 MLOAD DUP1 SWAP2 SUB SWAP1 REVERT JUMPDEST PUSH1 0x2 PUSH1 0x1 SSTORE DUP2 DUP2 PUSH2 0xA7E JUMPI PUSH2 0xA7B DUP4 PUSH5 0xE8D4A51000 PUSH2 0x3280 JUMP JUMPDEST SWAP1 POP JUMPDEST DUP2 PUSH1 0x2 EQ ISZERO PUSH2 0xA99 JUMPI PUSH2 0xA96 DUP4 PUSH5 0x2540BE400 PUSH2 0x3280 JUMP JUMPDEST SWAP1 POP JUMPDEST PUSH1 0x0 PUSH1 0xE DUP4 DUP2 SLOAD DUP2 LT PUSH2 0xAAE JUMPI PUSH2 0xAAE PUSH2 0x3A72 JUMP JUMPDEST PUSH1 0x0 SWAP2 DUP3 MSTORE PUSH1 0x20 DUP3 KECCAK256 PUSH1 0x1 PUSH1 0x9 SWAP1 SWAP3 MUL ADD ADD SLOAD PUSH1 0xE DUP1 SLOAD PUSH1 0x1 PUSH1 0x1 PUSH1 0xA0 SHL SUB SWAP1 SWAP3 AND SWAP4 POP SWAP1 DUP6 SWAP1 DUP2 LT PUSH2 0xAE3 JUMPI PUSH2 0xAE3 PUSH2 0x3A72 JUMP JUMPDEST PUSH1 0x0 SWAP2 DUP3 MSTORE PUSH1 0x20 SWAP1 SWAP2 KECCAK256 PUSH1 0x9 SWAP1 SWAP2 MUL ADD SLOAD PUSH1 0x40 MLOAD PUSH4 0x70A08231 PUSH1 0xE0 SHL DUP2 MSTORE CALLER PUSH1 0x4 DUP3 ADD MSTORE PUSH1 0x1 PUSH1 0x1 PUSH1 0xA0 SHL SUB SWAP1 SWAP2 AND SWAP2 POP DUP2 SWAP1 PUSH4 0x70A08231 SWAP1 PUSH1 0x24 ADD PUSH1 0x20 PUSH1 0x40 MLOAD DUP1 DUP4 SUB DUP2 DUP7 GAS STATICCALL ISZERO DUP1 ISZERO PUSH2 0xB3C JUMPI RETURNDATASIZE PUSH1 0x0 DUP1 RETURNDATACOPY RETURNDATASIZE PUSH1 0x0 REVERT JUMPDEST POP POP POP POP PUSH1 0x40 MLOAD RETURNDATASIZE PUSH1 0x1F NOT PUSH1 0x1F DUP3 ADD AND DUP3 ADD DUP1 PUSH1 0x40 MSTORE POP DUP2 ADD SWAP1 PUSH2 0xB60 SWAP2 SWAP1 PUSH2 0x3A88 JUMP JUMPDEST DUP6 GT ISZERO PUSH2 0xB7F JUMPI PUSH1 0x40 MLOAD PUSH3 0x461BCD PUSH1 0xE5 SHL DUP2 MSTORE PUSH1 0x4 ADD PUSH2 0xA58 SWAP1 PUSH2 0x3AD8 JUMP JUMPDEST PUSH1 0xE DUP5 DUP2 SLOAD DUP2 LT PUSH2 0xB92 JUMPI PUSH2 0xB92 PUSH2 0x3A72 JUMP JUMPDEST PUSH1 0x0 SWAP2 DUP3 MSTORE PUSH1 0x20 SWAP1 SWAP2 KECCAK256 PUSH1 0x8 PUSH1 0x9 SWAP1 SWAP3 MUL ADD ADD SLOAD PUSH1 0xFF AND PUSH2 0xBE4 JUMPI PUSH1 0x40 MLOAD PUSH3 0x461BCD PUSH1 0xE5 SHL DUP2 MSTORE PUSH1 0x20 PUSH1 0x4 DUP3 ADD MSTORE PUSH1 0xC PUSH1 0x24 DUP3 ADD MSTORE PUSH12 0x6E6F74207374616B61626C65 PUSH1 0xA0 SHL PUSH1 0x44 DUP3 ADD MSTORE PUSH1 0x64 ADD PUSH2 0xA58 JUMP JUMPDEST PUSH1 0xE DUP5 DUP2 SLOAD DUP2 LT PUSH2 0xBF7 JUMPI PUSH2 0xBF7 PUSH2 0x3A72 JUMP JUMPDEST SWAP1 PUSH1 0x0 MSTORE PUSH1 0x20 PUSH1 0x0 KECCAK256 SWAP1 PUSH1 0x9 MUL ADD PUSH1 0x5 ADD SLOAD DUP4 PUSH1 0xE DUP7 DUP2 SLOAD DUP2 LT PUSH2 0xC1D JUMPI PUSH2 0xC1D PUSH2 0x3A72 JUMP JUMPDEST SWAP1 PUSH1 0x0 MSTORE PUSH1 0x20 PUSH1 0x0 KECCAK256 SWAP1 PUSH1 0x9 MUL ADD PUSH1 0x3 ADD SLOAD PUSH2 0xC39 SWAP2 SWAP1 PUSH2 0x3B17 JUMP JUMPDEST GT ISZERO PUSH2 0xC87 JUMPI PUSH1 0x40 MLOAD PUSH3 0x461BCD PUSH1 0xE5 SHL DUP2 MSTORE PUSH1 0x20 PUSH1 0x4 DUP3 ADD DUP2 SWAP1 MSTORE PUSH1 0x24 DUP3 ADD MSTORE PUSH32 0x63616E74206465706F736974206D6F7265207468616E207661756C7420636170 PUSH1 0x44 DUP3 ADD MSTORE PUSH1 0x64 ADD PUSH2 0xA58 JUMP JUMPDEST PUSH1 0xE DUP5 DUP2 SLOAD DUP2 LT PUSH2 0xC9A JUMPI PUSH2 0xC9A PUSH2 0x3A72 JUMP JUMPDEST SWAP1 PUSH1 0x0 MSTORE PUSH1 0x20 PUSH1 0x0 KECCAK256 SWAP1 PUSH1 0x9 MUL ADD PUSH1 0x8 ADD PUSH1 0x2 SWAP1 SLOAD SWAP1 PUSH2 0x100 EXP SWAP1 DIV PUSH1 0xFF AND ISZERO PUSH2 0xCC7 JUMPI PUSH2 0xCC7 DUP5 PUSH2 0x328C JUMP JUMPDEST PUSH1 0x0 PUSH1 0xE DUP6 DUP2 SLOAD DUP2 LT PUSH2 0xCDC JUMPI PUSH2 0xCDC PUSH2 0x3A72 JUMP JUMPDEST SWAP1 PUSH1 0x0 MSTORE PUSH1 0x20 PUSH1 0x0 KECCAK256 SWAP1 PUSH1 0x9 MUL ADD PUSH1 0x3 ADD SLOAD SWAP1 POP PUSH1 0x0 DUP4 PUSH1 0x1 PUSH1 0x1 PUSH1 0xA0 SHL SUB AND PUSH4 0x18160DDD PUSH1 0x40 MLOAD DUP2 PUSH4 0xFFFFFFFF AND PUSH1 0xE0 SHL DUP2 MSTORE PUSH1 0x4 ADD PUSH1 0x20 PUSH1 0x40 MLOAD DUP1 DUP4 SUB DUP2 DUP7 GAS STATICCALL ISZERO DUP1 ISZERO PUSH2 0xD30 JUMPI RETURNDATASIZE PUSH1 0x0 DUP1 RETURNDATACOPY RETURNDATASIZE PUSH1 0x0 REVERT JUMPDEST POP POP POP POP PUSH1 0x40 MLOAD RETURNDATASIZE PUSH1 0x1F NOT PUSH1 0x1F DUP3 ADD AND DUP3 ADD DUP1 PUSH1 0x40 MSTORE POP DUP2 ADD SWAP1 PUSH2 0xD54 SWAP2 SWAP1 PUSH2 0x3A88 JUMP JUMPDEST SWAP1 POP PUSH1 0x0 PUSH1 0xE DUP8 DUP2 SLOAD DUP2 LT PUSH2 0xD6B JUMPI PUSH2 0xD6B PUSH2 0x3A72 JUMP JUMPDEST SWAP1 PUSH1 0x0 MSTORE PUSH1 0x20 PUSH1 0x0 KECCAK256 SWAP1 PUSH1 0x9 MUL ADD PUSH1 0x6 ADD SLOAD PUSH3 0x186A0 PUSH2 0xD8B SWAP2 SWAP1 PUSH2 0x3B2F JUMP JUMPDEST SWAP1 POP PUSH1 0x0 PUSH2 0xDA6 PUSH3 0x186A0 PUSH2 0xDA0 DUP10 DUP6 PUSH2 0x3280 JUMP JUMPDEST SWAP1 PUSH2 0x332E JUMP JUMPDEST SWAP1 POP DUP3 ISZERO DUP1 PUSH2 0xDB3 JUMPI POP DUP4 ISZERO JUMPDEST ISZERO PUSH2 0xE1D JUMPI PUSH1 0x40 MLOAD PUSH4 0x40C10F19 PUSH1 0xE0 SHL DUP2 MSTORE CALLER PUSH1 0x4 DUP3 ADD MSTORE PUSH1 0x24 DUP2 ADD DUP3 SWAP1 MSTORE PUSH1 0x1 PUSH1 0x1 PUSH1 0xA0 SHL SUB DUP8 AND SWAP1 PUSH4 0x40C10F19 SWAP1 PUSH1 0x44 ADD PUSH1 0x0 PUSH1 0x40 MLOAD DUP1 DUP4 SUB DUP2 PUSH1 0x0 DUP8 DUP1 EXTCODESIZE ISZERO DUP1 ISZERO PUSH2 0xE00 JUMPI PUSH1 0x0 DUP1 REVERT JUMPDEST POP GAS CALL ISZERO DUP1 ISZERO PUSH2 0xE14 JUMPI RETURNDATASIZE PUSH1 0x0 DUP1 RETURNDATACOPY RETURNDATASIZE PUSH1 0x0 REVERT JUMPDEST POP POP POP POP PUSH2 0xE92 JUMP JUMPDEST PUSH1 0x0 PUSH2 0xE2D DUP6 PUSH2 0xDA0 DUP5 DUP8 PUSH2 0x3280 JUMP JUMPDEST PUSH1 0x40 MLOAD PUSH4 0x40C10F19 PUSH1 0xE0 SHL DUP2 MSTORE CALLER PUSH1 0x4 DUP3 ADD MSTORE PUSH1 0x24 DUP2 ADD DUP3 SWAP1 MSTORE SWAP1 SWAP2 POP PUSH1 0x1 PUSH1 0x1 PUSH1 0xA0 SHL SUB DUP9 AND SWAP1 PUSH4 0x40C10F19 SWAP1 PUSH1 0x44 ADD PUSH1 0x0 PUSH1 0x40 MLOAD DUP1 DUP4 SUB DUP2 PUSH1 0x0 DUP8 DUP1 EXTCODESIZE ISZERO DUP1 ISZERO PUSH2 0xE78 JUMPI PUSH1 0x0 DUP1 REVERT JUMPDEST POP GAS CALL ISZERO DUP1 ISZERO PUSH2 0xE8C JUMPI RETURNDATASIZE PUSH1 0x0 DUP1 RETURNDATACOPY RETURNDATASIZE PUSH1 0x0 REVERT JUMPDEST POP POP POP POP POP JUMPDEST PUSH2 0xEC9 DUP2 PUSH1 0xE DUP11 DUP2 SLOAD DUP2 LT PUSH2 0xEA9 JUMPI PUSH2 0xEA9 PUSH2 0x3A72 JUMP JUMPDEST SWAP1 PUSH1 0x0 MSTORE PUSH1 0x20 PUSH1 0x0 KECCAK256 SWAP1 PUSH1 0x9 MUL ADD PUSH1 0x3 ADD SLOAD PUSH2 0x333A SWAP1 SWAP2 SWAP1 PUSH4 0xFFFFFFFF AND JUMP JUMPDEST PUSH1 0xE DUP10 DUP2 SLOAD DUP2 LT PUSH2 0xEDC JUMPI PUSH2 0xEDC PUSH2 0x3A72 JUMP JUMPDEST SWAP1 PUSH1 0x0 MSTORE PUSH1 0x20 PUSH1 0x0 KECCAK256 SWAP1 PUSH1 0x9 MUL ADD PUSH1 0x3 ADD DUP2 SWAP1 SSTORE POP PUSH2 0xEFA DUP9 PUSH2 0x3346 JUMP JUMPDEST PUSH2 0xF0F PUSH1 0x1 PUSH1 0x1 PUSH1 0xA0 SHL SUB DUP7 AND CALLER ADDRESS DUP13 PUSH2 0x33DA JUMP JUMPDEST PUSH2 0xF19 DUP10 DUP7 PUSH2 0x344B JUMP JUMPDEST POP PUSH1 0xA SLOAD PUSH2 0xF35 SWAP1 PUSH1 0x1 PUSH1 0x1 PUSH1 0xA0 SHL SUB DUP8 DUP2 AND SWAP2 AND PUSH1 0x0 PUSH2 0x34ED JUMP JUMPDEST POP POP PUSH1 0x1 DUP1 SSTORE POP POP POP POP POP POP POP JUMP JUMPDEST PUSH2 0xF4C PUSH2 0x3010 JUMP JUMPDEST PUSH1 0xE DUP2 DUP2 SLOAD DUP2 LT PUSH2 0xF5F JUMPI PUSH2 0xF5F PUSH2 0x3A72 JUMP JUMPDEST SWAP1 PUSH1 0x0 MSTORE PUSH1 0x20 PUSH1 0x0 KECCAK256 SWAP1 PUSH1 0x9 MUL ADD PUSH1 0x8 ADD PUSH1 0x2 SWAP1 SLOAD SWAP1 PUSH2 0x100 EXP SWAP1 DIV PUSH1 0xFF AND PUSH2 0xFB8 JUMPI PUSH1 0x40 MLOAD PUSH3 0x461BCD PUSH1 0xE5 SHL DUP2 MSTORE PUSH1 0x20 PUSH1 0x4 DUP3 ADD MSTORE PUSH1 0xB PUSH1 0x24 DUP3 ADD MSTORE PUSH11 0x1B9BDD081CDD185C9D1959 PUSH1 0xAA SHL PUSH1 0x44 DUP3 ADD MSTORE PUSH1 0x64 ADD PUSH2 0xA58 JUMP JUMPDEST PUSH2 0xFC1 DUP2 PUSH2 0x328C JUMP JUMPDEST PUSH1 0x0 PUSH1 0xE DUP3 DUP2 SLOAD DUP2 LT PUSH2 0xFD6 JUMPI PUSH2 0xFD6 PUSH2 0x3A72 JUMP JUMPDEST SWAP1 PUSH1 0x0 MSTORE PUSH1 0x20 PUSH1 0x0 KECCAK256 SWAP1 PUSH1 0x9 MUL ADD PUSH1 0x8 ADD PUSH1 0x2 PUSH2 0x100 EXP DUP2 SLOAD DUP2 PUSH1 0xFF MUL NOT AND SWAP1 DUP4 ISZERO ISZERO MUL OR SWAP1 SSTORE POP TIMESTAMP PUSH1 0xE DUP3 DUP2 SLOAD DUP2 LT PUSH2 0x1012 JUMPI PUSH2 0x1012 PUSH2 0x3A72 JUMP JUMPDEST SWAP1 PUSH1 0x0 MSTORE PUSH1 0x20 PUSH1 0x0 KECCAK256 SWAP1 PUSH1 0x9 MUL ADD PUSH1 0x4 ADD DUP2 SWAP1 SSTORE POP POP JUMP JUMPDEST PUSH2 0x1032 PUSH2 0x3010 JUMP JUMPDEST PUSH1 0x0 PUSH1 0xE DUP3 DUP2 SLOAD DUP2 LT PUSH2 0x1047 JUMPI PUSH2 0x1047 PUSH2 0x3A72 JUMP JUMPDEST SWAP1 PUSH1 0x0 MSTORE PUSH1 0x20 PUSH1 0x0 KECCAK256 SWAP1 PUSH1 0x9 MUL ADD PUSH1 0x8 ADD PUSH1 0x0 PUSH2 0x100 EXP DUP2 SLOAD DUP2 PUSH1 0xFF MUL NOT AND SWAP1 DUP4 ISZERO ISZERO MUL OR SWAP1 SSTORE POP PUSH1 0x1 PUSH1 0xE DUP3 DUP2 SLOAD DUP2 LT PUSH2 0x84A JUMPI PUSH2 0x84A PUSH2 0x3A72 JUMP JUMPDEST PUSH1 0x8 SLOAD PUSH1 0x40 MLOAD PUSH4 0x70A08231 PUSH1 0xE0 SHL DUP2 MSTORE ADDRESS PUSH1 0x4 DUP3 ADD MSTORE PUSH1 0x0 SWAP2 PUSH1 0x1 PUSH1 0x1 PUSH1 0xA0 SHL SUB AND SWAP1 PUSH4 0x70A08231 SWAP1 PUSH1 0x24 ADD PUSH1 0x20 PUSH1 0x40 MLOAD DUP1 DUP4 SUB DUP2 DUP7 GAS STATICCALL ISZERO DUP1 ISZERO PUSH2 0x10CD JUMPI RETURNDATASIZE PUSH1 0x0 DUP1 RETURNDATACOPY RETURNDATASIZE PUSH1 0x0 REVERT JUMPDEST POP POP POP POP PUSH1 0x40 MLOAD RETURNDATASIZE PUSH1 0x1F NOT PUSH1 0x1F DUP3 ADD AND DUP3 ADD DUP1 PUSH1 0x40 MSTORE POP DUP2 ADD SWAP1 PUSH2 0x10F1 SWAP2 SWAP1 PUSH2 0x3A88 JUMP JUMPDEST SWAP1 POP SWAP1 JUMP JUMPDEST PUSH1 0x2 PUSH1 0x1 SLOAD EQ ISZERO PUSH2 0x1119 JUMPI PUSH1 0x40 MLOAD PUSH3 0x461BCD PUSH1 0xE5 SHL DUP2 MSTORE PUSH1 0x4 ADD PUSH2 0xA58 SWAP1 PUSH2 0x3AA1 JUMP JUMPDEST PUSH1 0x2 PUSH1 0x1 DUP2 SWAP1 SSTORE POP PUSH1 0x0 PUSH1 0xE DUP3 DUP2 SLOAD DUP2 LT PUSH2 0x1136 JUMPI PUSH2 0x1136 PUSH2 0x3A72 JUMP JUMPDEST PUSH1 0x0 SWAP2 DUP3 MSTORE PUSH1 0x20 DUP3 KECCAK256 PUSH1 0x1 PUSH1 0x9 SWAP1 SWAP3 MUL ADD ADD SLOAD PUSH1 0xE DUP1 SLOAD PUSH1 0x1 PUSH1 0x1 PUSH1 0xA0 SHL SUB SWAP1 SWAP3 AND SWAP4 POP SWAP1 DUP5 SWAP1 DUP2 LT PUSH2 0x116B JUMPI PUSH2 0x116B PUSH2 0x3A72 JUMP JUMPDEST PUSH1 0x0 SWAP2 DUP3 MSTORE PUSH1 0x20 SWAP1 SWAP2 KECCAK256 PUSH1 0x9 SWAP1 SWAP2 MUL ADD SLOAD PUSH1 0x40 MLOAD PUSH4 0x70A08231 PUSH1 0xE0 SHL DUP2 MSTORE CALLER PUSH1 0x4 DUP3 ADD MSTORE PUSH1 0x1 PUSH1 0x1 PUSH1 0xA0 SHL SUB SWAP2 DUP3 AND SWAP3 POP SWAP1 DUP4 AND SWAP1 PUSH4 0x70A08231 SWAP1 PUSH1 0x24 ADD PUSH1 0x20 PUSH1 0x40 MLOAD DUP1 DUP4 SUB DUP2 DUP7 GAS STATICCALL ISZERO DUP1 ISZERO PUSH2 0x11C6 JUMPI RETURNDATASIZE PUSH1 0x0 DUP1 RETURNDATACOPY RETURNDATASIZE PUSH1 0x0 REVERT JUMPDEST POP POP POP POP PUSH1 0x40 MLOAD RETURNDATASIZE PUSH1 0x1F NOT PUSH1 0x1F DUP3 ADD AND DUP3 ADD DUP1 PUSH1 0x40 MSTORE POP DUP2 ADD SWAP1 PUSH2 0x11EA SWAP2 SWAP1 PUSH2 0x3A88 JUMP JUMPDEST DUP5 GT ISZERO PUSH2 0x1209 JUMPI PUSH1 0x40 MLOAD PUSH3 0x461BCD PUSH1 0xE5 SHL DUP2 MSTORE PUSH1 0x4 ADD PUSH2 0xA58 SWAP1 PUSH2 0x3AD8 JUMP JUMPDEST PUSH1 0xE DUP4 DUP2 SLOAD DUP2 LT PUSH2 0x121C JUMPI PUSH2 0x121C PUSH2 0x3A72 JUMP JUMPDEST SWAP1 PUSH1 0x0 MSTORE PUSH1 0x20 PUSH1 0x0 KECCAK256 SWAP1 PUSH1 0x9 MUL ADD PUSH1 0x8 ADD PUSH1 0x1 SWAP1 SLOAD SWAP1 PUSH2 0x100 EXP SWAP1 DIV PUSH1 0xFF AND PUSH2 0x1287 JUMPI PUSH1 0x40 MLOAD PUSH3 0x461BCD PUSH1 0xE5 SHL DUP2 MSTORE PUSH1 0x20 PUSH1 0x4 DUP3 ADD MSTORE PUSH1 0x1A PUSH1 0x24 DUP3 ADD MSTORE PUSH32 0x77697468647261772077696E646F77206E6F74206F70656E6564000000000000 PUSH1 0x44 DUP3 ADD MSTORE PUSH1 0x64 ADD PUSH2 0xA58 JUMP JUMPDEST PUSH1 0xE DUP4 DUP2 SLOAD DUP2 LT PUSH2 0x129A JUMPI PUSH2 0x129A PUSH2 0x3A72 JUMP JUMPDEST SWAP1 PUSH1 0x0 MSTORE PUSH1 0x20 PUSH1 0x0 KECCAK256 SWAP1 PUSH1 0x9 MUL ADD PUSH1 0x8 ADD PUSH1 0x2 SWAP1 SLOAD SWAP1 PUSH2 0x100 EXP SWAP1 DIV PUSH1 0xFF AND ISZERO PUSH2 0x12C7 JUMPI PUSH2 0x12C7 DUP4 PUSH2 0x328C JUMP JUMPDEST PUSH1 0x0 DUP3 PUSH1 0x1 PUSH1 0x1 PUSH1 0xA0 SHL SUB AND PUSH4 0x18160DDD PUSH1 0x40 MLOAD DUP2 PUSH4 0xFFFFFFFF AND PUSH1 0xE0 SHL DUP2 MSTORE PUSH1 0x4 ADD PUSH1 0x20 PUSH1 0x40 MLOAD DUP1 DUP4 SUB DUP2 DUP7 GAS STATICCALL ISZERO DUP1 ISZERO PUSH2 0x1307 JUMPI RETURNDATASIZE PUSH1 0x0 DUP1 RETURNDATACOPY RETURNDATASIZE PUSH1 0x0 REVERT JUMPDEST POP POP POP POP PUSH1 0x40 MLOAD RETURNDATASIZE PUSH1 0x1F NOT PUSH1 0x1F DUP3 ADD AND DUP3 ADD DUP1 PUSH1 0x40 MSTORE POP DUP2 ADD SWAP1 PUSH2 0x132B SWAP2 SWAP1 PUSH2 0x3A88 JUMP JUMPDEST SWAP1 POP PUSH1 0x0 PUSH2 0x136A DUP3 PUSH2 0xDA0 PUSH1 0xE DUP9 DUP2 SLOAD DUP2 LT PUSH2 0x1349 JUMPI PUSH2 0x1349 PUSH2 0x3A72 JUMP JUMPDEST SWAP1 PUSH1 0x0 MSTORE PUSH1 0x20 PUSH1 0x0 KECCAK256 SWAP1 PUSH1 0x9 MUL ADD PUSH1 0x3 ADD SLOAD DUP10 PUSH2 0x3280 SWAP1 SWAP2 SWAP1 PUSH4 0xFFFFFFFF AND JUMP JUMPDEST SWAP1 POP PUSH2 0x13A3 DUP2 PUSH1 0xE DUP8 DUP2 SLOAD DUP2 LT PUSH2 0x1383 JUMPI PUSH2 0x1383 PUSH2 0x3A72 JUMP JUMPDEST SWAP1 PUSH1 0x0 MSTORE PUSH1 0x20 PUSH1 0x0 KECCAK256 SWAP1 PUSH1 0x9 MUL ADD PUSH1 0x3 ADD SLOAD PUSH2 0x3602 SWAP1 SWAP2 SWAP1 PUSH4 0xFFFFFFFF AND JUMP JUMPDEST PUSH1 0xE DUP7 DUP2 SLOAD DUP2 LT PUSH2 0x13B6 JUMPI PUSH2 0x13B6 PUSH2 0x3A72 JUMP JUMPDEST SWAP1 PUSH1 0x0 MSTORE PUSH1 0x20 PUSH1 0x0 KECCAK256 SWAP1 PUSH1 0x9 MUL ADD PUSH1 0x3 ADD DUP2 SWAP1 SSTORE POP PUSH2 0x13D4 DUP6 PUSH2 0x3346 JUMP JUMPDEST PUSH1 0x40 MLOAD PUSH4 0x2770A7EB PUSH1 0xE2 SHL DUP2 MSTORE CALLER PUSH1 0x4 DUP3 ADD MSTORE PUSH1 0x24 DUP2 ADD DUP8 SWAP1 MSTORE PUSH1 0x1 PUSH1 0x1 PUSH1 0xA0 SHL SUB DUP6 AND SWAP1 PUSH4 0x9DC29FAC SWAP1 PUSH1 0x44 ADD PUSH1 0x0 PUSH1 0x40 MLOAD DUP1 DUP4 SUB DUP2 PUSH1 0x0 DUP8 DUP1 EXTCODESIZE ISZERO DUP1 ISZERO PUSH2 0x141C JUMPI PUSH1 0x0 DUP1 REVERT JUMPDEST POP GAS CALL ISZERO DUP1 ISZERO PUSH2 0x1430 JUMPI RETURNDATASIZE PUSH1 0x0 DUP1 RETURNDATACOPY RETURNDATASIZE PUSH1 0x0 REVERT JUMPDEST POP POP PUSH1 0x3 SLOAD DUP4 SWAP3 POP PUSH1 0x0 SWAP2 POP PUSH2 0x1449 SWAP1 PUSH3 0x186A0 PUSH2 0x3B2F JUMP JUMPDEST SWAP1 POP PUSH1 0x0 PUSH2 0x14D5 PUSH3 0x186A0 PUSH2 0xDA0 DUP5 PUSH1 0xC PUSH1 0x0 SWAP1 SLOAD SWAP1 PUSH2 0x100 EXP SWAP1 DIV PUSH1 0x1 PUSH1 0x1 PUSH1 0xA0 SHL SUB AND PUSH1 0x1 PUSH1 0x1 PUSH1 0xA0 SHL SUB AND PUSH4 0x65F910FA PUSH1 0x40 MLOAD DUP2 PUSH4 0xFFFFFFFF AND PUSH1 0xE0 SHL DUP2 MSTORE PUSH1 0x4 ADD PUSH1 0x20 PUSH1 0x40 MLOAD DUP1 DUP4 SUB DUP2 DUP7 GAS STATICCALL ISZERO DUP1 ISZERO PUSH2 0x14AB JUMPI RETURNDATASIZE PUSH1 0x0 DUP1 RETURNDATACOPY RETURNDATASIZE PUSH1 0x0 REVERT JUMPDEST POP POP POP POP PUSH1 0x40 MLOAD RETURNDATASIZE PUSH1 0x1F NOT PUSH1 0x1F DUP3 ADD AND DUP3 ADD DUP1 PUSH1 0x40 MSTORE POP DUP2 ADD SWAP1 PUSH2 0x14CF SWAP2 SWAP1 PUSH2 0x3A88 JUMP JUMPDEST SWAP1 PUSH2 0x3280 JUMP JUMPDEST PUSH1 0xC SLOAD PUSH1 0x40 MLOAD PUSH4 0x41976E09 PUSH1 0xE0 SHL DUP2 MSTORE PUSH1 0x1 PUSH1 0x1 PUSH1 0xA0 SHL SUB DUP10 DUP2 AND PUSH1 0x4 DUP4 ADD MSTORE SWAP3 SWAP4 POP PUSH1 0x0 SWAP3 SWAP1 SWAP2 AND SWAP1 PUSH4 0x41976E09 SWAP1 PUSH1 0x24 ADD PUSH1 0x20 PUSH1 0x40 MLOAD DUP1 DUP4 SUB DUP2 DUP7 GAS STATICCALL ISZERO DUP1 ISZERO PUSH2 0x1525 JUMPI RETURNDATASIZE PUSH1 0x0 DUP1 RETURNDATACOPY RETURNDATASIZE PUSH1 0x0 REVERT JUMPDEST POP POP POP POP PUSH1 0x40 MLOAD RETURNDATASIZE PUSH1 0x1F NOT PUSH1 0x1F DUP3 ADD AND DUP3 ADD DUP1 PUSH1 0x40 MSTORE POP DUP2 ADD SWAP1 PUSH2 0x1549 SWAP2 SWAP1 PUSH2 0x3A88 JUMP JUMPDEST SWAP1 POP PUSH1 0x0 PUSH2 0x1573 PUSH13 0xC9F2C9CD04674EDEA40000000 PUSH2 0xDA0 DUP6 DUP2 DUP7 PUSH2 0x14CF DUP13 PUSH5 0xE8D4A51000 PUSH2 0x3280 JUMP JUMPDEST SWAP1 POP PUSH2 0x1580 DUP2 DUP10 DUP8 PUSH2 0x360E JUMP JUMPDEST POP PUSH1 0x4 SLOAD PUSH1 0x1 PUSH1 0x1 PUSH1 0xA0 SHL SUB DUP10 DUP2 AND SWAP2 AND EQ PUSH2 0x15CD JUMPI PUSH1 0x40 MLOAD PUSH3 0x461BCD PUSH1 0xE5 SHL DUP2 MSTORE PUSH1 0x20 PUSH1 0x4 DUP3 ADD MSTORE PUSH1 0xC PUSH1 0x24 DUP3 ADD MSTORE PUSH12 0x1B9BDD08195D1A081C1BDBDB PUSH1 0xA2 SHL PUSH1 0x44 DUP3 ADD MSTORE PUSH1 0x64 ADD PUSH2 0xA58 JUMP JUMPDEST PUSH1 0x4 DUP1 SLOAD PUSH1 0x40 MLOAD PUSH4 0x2E1A7D4D PUSH1 0xE0 SHL DUP2 MSTORE SWAP2 DUP3 ADD DUP8 SWAP1 MSTORE PUSH1 0x1 PUSH1 0x1 PUSH1 0xA0 SHL SUB AND SWAP1 PUSH4 0x2E1A7D4D SWAP1 PUSH1 0x24 ADD PUSH1 0x0 PUSH1 0x40 MLOAD DUP1 DUP4 SUB DUP2 PUSH1 0x0 DUP8 DUP1 EXTCODESIZE ISZERO DUP1 ISZERO PUSH2 0x1611 JUMPI PUSH1 0x0 DUP1 REVERT JUMPDEST POP GAS CALL ISZERO DUP1 ISZERO PUSH2 0x1625 JUMPI RETURNDATASIZE PUSH1 0x0 DUP1 RETURNDATACOPY RETURNDATASIZE PUSH1 0x0 REVERT JUMPDEST POP POP PUSH1 0x40 MLOAD PUSH1 0x0 SWAP3 POP CALLER SWAP2 POP DUP8 SWAP1 DUP4 DUP2 DUP2 DUP2 DUP6 DUP8 GAS CALL SWAP3 POP POP POP RETURNDATASIZE DUP1 PUSH1 0x0 DUP2 EQ PUSH2 0x166B JUMPI PUSH1 0x40 MLOAD SWAP2 POP PUSH1 0x1F NOT PUSH1 0x3F RETURNDATASIZE ADD AND DUP3 ADD PUSH1 0x40 MSTORE RETURNDATASIZE DUP3 MSTORE RETURNDATASIZE PUSH1 0x0 PUSH1 0x20 DUP5 ADD RETURNDATACOPY PUSH2 0x1670 JUMP JUMPDEST PUSH1 0x60 SWAP2 POP JUMPDEST POP POP SWAP1 POP DUP1 PUSH2 0x16B8 JUMPI PUSH1 0x40 MLOAD PUSH3 0x461BCD PUSH1 0xE5 SHL DUP2 MSTORE PUSH1 0x20 PUSH1 0x4 DUP3 ADD MSTORE PUSH1 0x14 PUSH1 0x24 DUP3 ADD MSTORE PUSH20 0x2330B4B632B2103A379039B2B7321022BA3432B9 PUSH1 0x61 SHL PUSH1 0x44 DUP3 ADD MSTORE PUSH1 0x64 ADD PUSH2 0xA58 JUMP JUMPDEST POP POP PUSH1 0x1 DUP1 SSTORE POP POP POP POP POP POP POP POP POP POP JUMP JUMPDEST PUSH1 0x0 DUP1 PUSH1 0xC PUSH1 0x0 SWAP1 SLOAD SWAP1 PUSH2 0x100 EXP SWAP1 DIV PUSH1 0x1 PUSH1 0x1 PUSH1 0xA0 SHL SUB AND PUSH1 0x1 PUSH1 0x1 PUSH1 0xA0 SHL SUB AND PUSH4 0x65F910FA PUSH1 0x40 MLOAD DUP2 PUSH4 0xFFFFFFFF AND PUSH1 0xE0 SHL DUP2 MSTORE PUSH1 0x4 ADD PUSH1 0x20 PUSH1 0x40 MLOAD DUP1 DUP4 SUB DUP2 DUP7 GAS STATICCALL ISZERO DUP1 ISZERO PUSH2 0x1720 JUMPI RETURNDATASIZE PUSH1 0x0 DUP1 RETURNDATACOPY RETURNDATASIZE PUSH1 0x0 REVERT JUMPDEST POP POP POP POP PUSH1 0x40 MLOAD RETURNDATASIZE PUSH1 0x1F NOT PUSH1 0x1F DUP3 ADD AND DUP3 ADD DUP1 PUSH1 0x40 MSTORE POP DUP2 ADD SWAP1 PUSH2 0x1744 SWAP2 SWAP1 PUSH2 0x3A88 JUMP JUMPDEST SWAP1 POP PUSH2 0x175B DUP2 PUSH2 0xDA0 PUSH5 0xE8D4A51000 PUSH2 0x14CF PUSH2 0x2BB9 JUMP JUMPDEST SWAP2 POP POP SWAP1 JUMP JUMPDEST PUSH2 0x1769 PUSH2 0x3010 JUMP JUMPDEST PUSH2 0x384 DUP2 LT DUP1 ISZERO PUSH2 0x177A JUMPI POP PUSH1 0x0 DUP2 GT JUMPDEST PUSH2 0x17B5 JUMPI PUSH1 0x40 MLOAD PUSH3 0x461BCD PUSH1 0xE5 SHL DUP2 MSTORE PUSH1 0x20 PUSH1 0x4 DUP3 ADD MSTORE PUSH1 0xC PUSH1 0x24 DUP3 ADD MSTORE PUSH12 0x6E6F7420696E2072616E6765 PUSH1 0xA0 SHL PUSH1 0x44 DUP3 ADD MSTORE PUSH1 0x64 ADD PUSH2 0xA58 JUMP JUMPDEST PUSH1 0xD SSTORE JUMP JUMPDEST PUSH2 0x17C2 PUSH2 0x3010 JUMP JUMPDEST PUSH2 0xA33 PUSH1 0x0 PUSH2 0x3655 JUMP JUMPDEST PUSH2 0x17D4 PUSH2 0x3010 JUMP JUMPDEST DUP1 PUSH1 0xE DUP4 DUP2 SLOAD DUP2 LT PUSH2 0x17E8 JUMPI PUSH2 0x17E8 PUSH2 0x3A72 JUMP JUMPDEST SWAP1 PUSH1 0x0 MSTORE PUSH1 0x20 PUSH1 0x0 KECCAK256 SWAP1 PUSH1 0x9 MUL ADD PUSH1 0x5 ADD DUP2 SWAP1 SSTORE POP POP POP JUMP JUMPDEST PUSH2 0x1809 PUSH2 0x3010 JUMP JUMPDEST PUSH1 0x40 MLOAD PUSH4 0x70A08231 PUSH1 0xE0 SHL DUP2 MSTORE ADDRESS PUSH1 0x4 DUP3 ADD MSTORE PUSH2 0x187B SWAP1 PUSH1 0x1 PUSH1 0x1 PUSH1 0xA0 SHL SUB DUP4 AND SWAP1 PUSH4 0x70A08231 SWAP1 PUSH1 0x24 ADD PUSH1 0x20 PUSH1 0x40 MLOAD DUP1 DUP4 SUB DUP2 DUP7 GAS STATICCALL ISZERO DUP1 ISZERO PUSH2 0x1851 JUMPI RETURNDATASIZE PUSH1 0x0 DUP1 RETURNDATACOPY RETURNDATASIZE PUSH1 0x0 REVERT JUMPDEST POP POP POP POP PUSH1 0x40 MLOAD RETURNDATASIZE PUSH1 0x1F NOT PUSH1 0x1F DUP3 ADD AND DUP3 ADD DUP1 PUSH1 0x40 MSTORE POP DUP2 ADD SWAP1 PUSH2 0x1875 SWAP2 SWAP1 PUSH2 0x3A88 JUMP JUMPDEST DUP3 PUSH2 0x344B JUMP JUMPDEST POP POP JUMP JUMPDEST PUSH2 0x1887 PUSH2 0x3010 JUMP JUMPDEST PUSH2 0x188F PUSH2 0x16CA JUMP JUMPDEST PUSH1 0x8 SLOAD PUSH1 0x40 MLOAD PUSH4 0x70A08231 PUSH1 0xE0 SHL DUP2 MSTORE ADDRESS PUSH1 0x4 DUP3 ADD MSTORE DUP4 SWAP2 PUSH1 0x1 PUSH1 0x1 PUSH1 0xA0 SHL SUB AND SWAP1 PUSH4 0x70A08231 SWAP1 PUSH1 0x24 ADD PUSH1 0x20 PUSH1 0x40 MLOAD DUP1 DUP4 SUB DUP2 DUP7 GAS STATICCALL ISZERO DUP1 ISZERO PUSH2 0x18D7 JUMPI RETURNDATASIZE PUSH1 0x0 DUP1 RETURNDATACOPY RETURNDATASIZE PUSH1 0x0 REVERT JUMPDEST POP POP POP POP PUSH1 0x40 MLOAD RETURNDATASIZE PUSH1 0x1F NOT PUSH1 0x1F DUP3 ADD AND DUP3 ADD DUP1 PUSH1 0x40 MSTORE POP DUP2 ADD SWAP1 PUSH2 0x18FB SWAP2 SWAP1 PUSH2 0x3A88 JUMP JUMPDEST PUSH2 0x1905 SWAP2 SWAP1 PUSH2 0x3B2F JUMP JUMPDEST LT ISZERO PUSH2 0x1943 JUMPI PUSH1 0x40 MLOAD PUSH3 0x461BCD PUSH1 0xE5 SHL DUP2 MSTORE PUSH1 0x20 PUSH1 0x4 DUP3 ADD MSTORE PUSH1 0xD PUSH1 0x24 DUP3 ADD MSTORE PUSH13 0x62656C6F77206261636B696E67 PUSH1 0x98 SHL PUSH1 0x44 DUP3 ADD MSTORE PUSH1 0x64 ADD PUSH2 0xA58 JUMP JUMPDEST PUSH2 0x194F DUP2 DUP4 PUSH1 0x0 PUSH2 0x360E JUMP JUMPDEST POP PUSH1 0x40 MLOAD PUSH4 0x70A08231 PUSH1 0xE0 SHL DUP2 MSTORE ADDRESS PUSH1 0x4 DUP3 ADD MSTORE PUSH2 0x187B SWAP1 CALLER SWAP1 PUSH1 0x1 PUSH1 0x1 PUSH1 0xA0 SHL SUB DUP6 AND SWAP1 PUSH4 0x70A08231 SWAP1 PUSH1 0x24 ADD PUSH1 0x20 PUSH1 0x40 MLOAD DUP1 DUP4 SUB DUP2 DUP7 GAS STATICCALL ISZERO DUP1 ISZERO PUSH2 0x199A JUMPI RETURNDATASIZE PUSH1 0x0 DUP1 RETURNDATACOPY RETURNDATASIZE PUSH1 0x0 REVERT JUMPDEST POP POP POP POP PUSH1 0x40 MLOAD RETURNDATASIZE PUSH1 0x1F NOT PUSH1 0x1F DUP3 ADD AND DUP3 ADD DUP1 PUSH1 0x40 MSTORE POP DUP2 ADD SWAP1 PUSH2 0x19BE SWAP2 SWAP1 PUSH2 0x3A88 JUMP JUMPDEST PUSH1 0x1 PUSH1 0x1 PUSH1 0xA0 SHL SUB DUP6 AND SWAP2 SWAP1 PUSH2 0x36A5 JUMP JUMPDEST PUSH1 0x0 PUSH2 0x19D9 PUSH2 0x3010 JUMP JUMPDEST PUSH2 0x19E1 PUSH2 0x16CA JUMP JUMPDEST PUSH1 0x8 SLOAD PUSH1 0x40 MLOAD PUSH4 0x70A08231 PUSH1 0xE0 SHL DUP2 MSTORE ADDRESS PUSH1 0x4 DUP3 ADD MSTORE DUP7 SWAP2 PUSH1 0x1 PUSH1 0x1 PUSH1 0xA0 SHL SUB AND SWAP1 PUSH4 0x70A08231 SWAP1 PUSH1 0x24 ADD PUSH1 0x20 PUSH1 0x40 MLOAD DUP1 DUP4 SUB DUP2 DUP7 GAS STATICCALL ISZERO DUP1 ISZERO PUSH2 0x1A29 JUMPI RETURNDATASIZE PUSH1 0x0 DUP1 RETURNDATACOPY RETURNDATASIZE PUSH1 0x0 REVERT JUMPDEST POP POP POP POP PUSH1 0x40 MLOAD RETURNDATASIZE PUSH1 0x1F NOT PUSH1 0x1F DUP3 ADD AND DUP3 ADD DUP1 PUSH1 0x40 MSTORE POP DUP2 ADD SWAP1 PUSH2 0x1A4D SWAP2 SWAP1 PUSH2 0x3A88 JUMP JUMPDEST PUSH2 0x1A57 SWAP2 SWAP1 PUSH2 0x3B2F JUMP JUMPDEST LT ISZERO PUSH2 0x1A95 JUMPI PUSH1 0x40 MLOAD PUSH3 0x461BCD PUSH1 0xE5 SHL DUP2 MSTORE PUSH1 0x20 PUSH1 0x4 DUP3 ADD MSTORE PUSH1 0xD PUSH1 0x24 DUP3 ADD MSTORE PUSH13 0x62656C6F77206261636B696E67 PUSH1 0x98 SHL PUSH1 0x44 DUP3 ADD MSTORE PUSH1 0x64 ADD PUSH2 0xA58 JUMP JUMPDEST PUSH1 0xA SLOAD PUSH1 0x40 MLOAD PUSH4 0x3CEA955 PUSH1 0xE2 SHL DUP2 MSTORE PUSH1 0x1 PUSH1 0x1 PUSH1 0xA0 SHL SUB DUP6 DUP2 AND PUSH1 0x4 DUP4 ADD MSTORE PUSH1 0x24 DUP3 ADD DUP8 SWAP1 MSTORE PUSH1 0x44 DUP3 ADD DUP6 SWAP1 MSTORE ADDRESS PUSH1 0x64 DUP4 ADD MSTORE SWAP1 SWAP2 AND SWAP1 PUSH4 0xF3AA554 SWAP1 PUSH1 0x84 ADD JUMPDEST PUSH1 0x20 PUSH1 0x40 MLOAD DUP1 DUP4 SUB DUP2 PUSH1 0x0 DUP8 GAS CALL ISZERO DUP1 ISZERO PUSH2 0x1AF6 JUMPI RETURNDATASIZE PUSH1 0x0 DUP1 RETURNDATACOPY RETURNDATASIZE PUSH1 0x0 REVERT JUMPDEST POP POP POP POP PUSH1 0x40 MLOAD RETURNDATASIZE PUSH1 0x1F NOT PUSH1 0x1F DUP3 ADD AND DUP3 ADD DUP1 PUSH1 0x40 MSTORE POP DUP2 ADD SWAP1 PUSH2 0x1B1A SWAP2 SWAP1 PUSH2 0x3A88 JUMP JUMPDEST SWAP1 POP JUMPDEST SWAP4 SWAP3 POP POP POP JUMP JUMPDEST PUSH2 0x1B2C PUSH2 0x3010 JUMP JUMPDEST PUSH2 0x1F4 DUP2 GT DUP1 ISZERO PUSH2 0x1B3E JUMPI POP PUSH2 0x640 DUP2 LT JUMPDEST PUSH2 0x1B7E JUMPI PUSH1 0x40 MLOAD PUSH3 0x461BCD PUSH1 0xE5 SHL DUP2 MSTORE PUSH1 0x20 PUSH1 0x4 DUP3 ADD MSTORE PUSH1 0x11 PUSH1 0x24 DUP3 ADD MSTORE PUSH17 0x20617072206E6F7420696E2072616E6765 PUSH1 0x78 SHL PUSH1 0x44 DUP3 ADD MSTORE PUSH1 0x64 ADD PUSH2 0xA58 JUMP JUMPDEST DUP1 PUSH1 0xE DUP4 DUP2 SLOAD DUP2 LT PUSH2 0x1B92 JUMPI PUSH2 0x1B92 PUSH2 0x3A72 JUMP JUMPDEST SWAP1 PUSH1 0x0 MSTORE PUSH1 0x20 PUSH1 0x0 KECCAK256 SWAP1 PUSH1 0x9 MUL ADD PUSH1 0x7 ADD DUP2 SWAP1 SSTORE POP PUSH1 0xE DUP3 DUP2 SLOAD DUP2 LT PUSH2 0x1BBA JUMPI PUSH2 0x1BBA PUSH2 0x3A72 JUMP JUMPDEST SWAP1 PUSH1 0x0 MSTORE PUSH1 0x20 PUSH1 0x0 KECCAK256 SWAP1 PUSH1 0x9 MUL ADD PUSH1 0x8 ADD PUSH1 0x2 SWAP1 SLOAD SWAP1 PUSH2 0x100 EXP SWAP1 DIV PUSH1 0xFF AND ISZERO PUSH2 0x1BE7 JUMPI PUSH2 0x1BE7 DUP3 PUSH2 0x328C JUMP JUMPDEST PUSH2 0x187B DUP3 PUSH2 0x3346 JUMP JUMPDEST PUSH2 0x1BF8 PUSH2 0x3010 JUMP JUMPDEST PUSH1 0x0 JUMPDEST PUSH1 0xE SLOAD DUP2 LT ISZERO PUSH2 0x1C8A JUMPI PUSH1 0x1 PUSH1 0xE DUP3 DUP2 SLOAD DUP2 LT PUSH2 0x1C1A JUMPI PUSH2 0x1C1A PUSH2 0x3A72 JUMP JUMPDEST PUSH1 0x0 SWAP2 DUP3 MSTORE PUSH1 0x20 DUP3 KECCAK256 PUSH1 0x9 SWAP2 SWAP1 SWAP2 MUL ADD PUSH1 0x8 ADD DUP1 SLOAD PUSH1 0xFF NOT AND SWAP3 ISZERO ISZERO SWAP3 SWAP1 SWAP3 OR SWAP1 SWAP2 SSTORE PUSH1 0xE DUP1 SLOAD DUP4 SWAP1 DUP2 LT PUSH2 0x1C51 JUMPI PUSH2 0x1C51 PUSH2 0x3A72 JUMP JUMPDEST SWAP1 PUSH1 0x0 MSTORE PUSH1 0x20 PUSH1 0x0 KECCAK256 SWAP1 PUSH1 0x9 MUL ADD PUSH1 0x8 ADD PUSH1 0x1 PUSH2 0x100 EXP DUP2 SLOAD DUP2 PUSH1 0xFF MUL NOT AND SWAP1 DUP4 ISZERO ISZERO MUL OR SWAP1 SSTORE POP DUP1 PUSH2 0x1C83 SWAP1 PUSH2 0x3B46 JUMP JUMPDEST SWAP1 POP PUSH2 0x1BFB JUMP JUMPDEST POP JUMP JUMPDEST PUSH2 0x1C95 PUSH2 0x3010 JUMP JUMPDEST PUSH2 0xA33 PUSH2 0x306A JUMP JUMPDEST PUSH2 0x1CA5 PUSH2 0x3010 JUMP JUMPDEST PUSH2 0x2BC DUP3 GT ISZERO PUSH2 0x1CF7 JUMPI PUSH1 0x40 MLOAD PUSH3 0x461BCD PUSH1 0xE5 SHL DUP2 MSTORE PUSH1 0x20 PUSH1 0x4 DUP3 ADD MSTORE PUSH1 0x1B PUSH1 0x24 DUP3 ADD MSTORE PUSH32 0x6F7574206F662072616E67652E204665657320746F6F20686967680000000000 PUSH1 0x44 DUP3 ADD MSTORE PUSH1 0x64 ADD PUSH2 0xA58 JUMP JUMPDEST PUSH2 0x1F4 DUP2 GT DUP1 ISZERO PUSH2 0x1D09 JUMPI POP PUSH2 0x640 DUP2 LT JUMPDEST PUSH2 0x1D49 JUMPI PUSH1 0x40 MLOAD PUSH3 0x461BCD PUSH1 0xE5 SHL DUP2 MSTORE PUSH1 0x20 PUSH1 0x4 DUP3 ADD MSTORE PUSH1 0x11 PUSH1 0x24 DUP3 ADD MSTORE PUSH17 0x20617072206E6F7420696E2072616E6765 PUSH1 0x78 SHL PUSH1 0x44 DUP3 ADD MSTORE PUSH1 0x64 ADD PUSH2 0xA58 JUMP JUMPDEST PUSH2 0x1D52 DUP4 PUSH2 0x36D5 JUMP JUMPDEST PUSH2 0x1D95 JUMPI PUSH1 0x40 MLOAD PUSH3 0x461BCD PUSH1 0xE5 SHL DUP2 MSTORE PUSH1 0x20 PUSH1 0x4 DUP3 ADD MSTORE PUSH1 0x14 PUSH1 0x24 DUP3 ADD MSTORE PUSH20 0x1C1BDBDB08185B1C9958591E4818DC99585D1959 PUSH1 0x62 SHL PUSH1 0x44 DUP3 ADD MSTORE PUSH1 0x64 ADD PUSH2 0xA58 JUMP JUMPDEST PUSH1 0x40 DUP1 MLOAD PUSH2 0x160 DUP2 ADD DUP3 MSTORE PUSH1 0x1 PUSH1 0x1 PUSH1 0xA0 SHL SUB SWAP6 DUP7 AND DUP2 MSTORE SWAP4 DUP6 AND PUSH1 0x20 DUP6 ADD SWAP1 DUP2 MSTORE PUSH1 0x0 SWAP2 DUP6 ADD DUP3 DUP2 MSTORE PUSH1 0x60 DUP7 ADD DUP4 DUP2 MSTORE TIMESTAMP PUSH1 0x80 DUP9 ADD SWAP1 DUP2 MSTORE PUSH1 0xA0 DUP9 ADD DUP6 DUP2 MSTORE PUSH1 0xC0 DUP10 ADD SWAP8 DUP9 MSTORE PUSH1 0xE0 DUP10 ADD SWAP7 DUP8 MSTORE PUSH2 0x100 DUP1 DUP11 ADD DUP8 DUP2 MSTORE PUSH2 0x120 DUP12 ADD DUP9 DUP2 MSTORE PUSH2 0x140 DUP13 ADD DUP10 DUP2 MSTORE PUSH1 0xE DUP1 SLOAD PUSH1 0x1 DUP2 ADD DUP3 SSTORE SWAP11 MSTORE SWAP12 MLOAD PUSH1 0x9 SWAP1 SWAP10 MUL PUSH32 0xBB7B4A454DC3493923482F07822329ED19E8244EFF582CC204F8554C3620C3FD DUP2 ADD DUP1 SLOAD SWAP11 DUP16 AND PUSH1 0x1 PUSH1 0x1 PUSH1 0xA0 SHL SUB NOT SWAP12 DUP13 AND OR SWAP1 SSTORE SWAP8 MLOAD PUSH32 0xBB7B4A454DC3493923482F07822329ED19E8244EFF582CC204F8554C3620C3FE DUP10 ADD DUP1 SLOAD SWAP2 SWAP1 SWAP15 AND SWAP10 AND SWAP9 SWAP1 SWAP9 OR SWAP1 SWAP12 SSTORE SWAP4 MLOAD PUSH32 0xBB7B4A454DC3493923482F07822329ED19E8244EFF582CC204F8554C3620C3FF DUP7 ADD SSTORE SWAP2 MLOAD PUSH32 0xBB7B4A454DC3493923482F07822329ED19E8244EFF582CC204F8554C3620C400 DUP6 ADD SSTORE MLOAD PUSH32 0xBB7B4A454DC3493923482F07822329ED19E8244EFF582CC204F8554C3620C401 DUP5 ADD SSTORE MLOAD PUSH32 0xBB7B4A454DC3493923482F07822329ED19E8244EFF582CC204F8554C3620C402 DUP4 ADD SSTORE SWAP4 MLOAD PUSH32 0xBB7B4A454DC3493923482F07822329ED19E8244EFF582CC204F8554C3620C403 DUP3 ADD SSTORE SWAP2 MLOAD PUSH32 0xBB7B4A454DC3493923482F07822329ED19E8244EFF582CC204F8554C3620C404 DUP4 ADD SSTORE SWAP4 MLOAD PUSH32 0xBB7B4A454DC3493923482F07822329ED19E8244EFF582CC204F8554C3620C405 SWAP1 SWAP2 ADD DUP1 SLOAD SWAP5 MLOAD SWAP4 MLOAD ISZERO ISZERO PUSH3 0x10000 MUL PUSH3 0xFF0000 NOT SWAP5 ISZERO ISZERO SWAP1 SWAP4 MUL PUSH2 0xFF00 NOT SWAP3 ISZERO ISZERO SWAP3 SWAP1 SWAP3 AND PUSH2 0xFFFF NOT SWAP1 SWAP6 AND SWAP5 SWAP1 SWAP5 OR OR SWAP2 SWAP1 SWAP2 AND OR SWAP1 SSTORE JUMP JUMPDEST PUSH2 0x1FC2 PUSH2 0x3010 JUMP JUMPDEST PUSH1 0xE DUP2 DUP2 SLOAD DUP2 LT PUSH2 0x1FD5 JUMPI PUSH2 0x1FD5 PUSH2 0x3A72 JUMP JUMPDEST SWAP1 PUSH1 0x0 MSTORE PUSH1 0x20 PUSH1 0x0 KECCAK256 SWAP1 PUSH1 0x9 MUL ADD PUSH1 0x8 ADD PUSH1 0x2 SWAP1 SLOAD SWAP1 PUSH2 0x100 EXP SWAP1 DIV PUSH1 0xFF AND ISZERO PUSH2 0x2033 JUMPI PUSH1 0x40 MLOAD PUSH3 0x461BCD PUSH1 0xE5 SHL DUP2 MSTORE PUSH1 0x20 PUSH1 0x4 DUP3 ADD MSTORE PUSH1 0xF PUSH1 0x24 DUP3 ADD MSTORE PUSH15 0x185B1C9958591E481CDD185C9D1959 PUSH1 0x8A SHL PUSH1 0x44 DUP3 ADD MSTORE PUSH1 0x64 ADD PUSH2 0xA58 JUMP JUMPDEST PUSH1 0x1 PUSH1 0xE DUP3 DUP2 SLOAD DUP2 LT PUSH2 0xFD6 JUMPI PUSH2 0xFD6 PUSH2 0x3A72 JUMP JUMPDEST PUSH1 0x2 PUSH1 0x1 SLOAD EQ ISZERO PUSH2 0x206B JUMPI PUSH1 0x40 MLOAD PUSH3 0x461BCD PUSH1 0xE5 SHL DUP2 MSTORE PUSH1 0x4 ADD PUSH2 0xA58 SWAP1 PUSH2 0x3AA1 JUMP JUMPDEST PUSH1 0x2 PUSH1 0x1 SSTORE CALLVALUE PUSH2 0x20BD JUMPI PUSH1 0x40 MLOAD PUSH3 0x461BCD PUSH1 0xE5 SHL DUP2 MSTORE PUSH1 0x20 PUSH1 0x4 DUP3 ADD MSTORE PUSH1 0x1F PUSH1 0x24 DUP3 ADD MSTORE PUSH32 0x526577617264526F757465723A20696E76616C6964206D73672E76616C756500 PUSH1 0x44 DUP3 ADD MSTORE PUSH1 0x64 ADD PUSH2 0xA58 JUMP JUMPDEST PUSH1 0x0 CALLVALUE SWAP1 POP PUSH1 0x0 PUSH1 0xE DUP4 DUP2 SLOAD DUP2 LT PUSH2 0x20D7 JUMPI PUSH2 0x20D7 PUSH2 0x3A72 JUMP JUMPDEST PUSH1 0x0 SWAP2 DUP3 MSTORE PUSH1 0x20 SWAP1 SWAP2 KECCAK256 PUSH1 0x9 SWAP1 SWAP2 MUL ADD SLOAD PUSH1 0x4 SLOAD PUSH1 0x1 PUSH1 0x1 PUSH1 0xA0 SHL SUB SWAP2 DUP3 AND SWAP3 POP AND DUP2 EQ PUSH2 0x2136 JUMPI PUSH1 0x40 MLOAD PUSH3 0x461BCD PUSH1 0xE5 SHL DUP2 MSTORE PUSH1 0x20 PUSH1 0x4 DUP3 ADD MSTORE PUSH1 0xC PUSH1 0x24 DUP3 ADD MSTORE PUSH12 0x1B9BDD08195D1A081C1BDBDB PUSH1 0xA2 SHL PUSH1 0x44 DUP3 ADD MSTORE PUSH1 0x64 ADD PUSH2 0xA58 JUMP JUMPDEST PUSH1 0x0 DUP3 SWAP1 POP PUSH1 0x0 PUSH1 0xE DUP6 DUP2 SLOAD DUP2 LT PUSH2 0x2150 JUMPI PUSH2 0x2150 PUSH2 0x3A72 JUMP JUMPDEST SWAP1 PUSH1 0x0 MSTORE PUSH1 0x20 PUSH1 0x0 KECCAK256 SWAP1 PUSH1 0x9 MUL ADD PUSH1 0x1 ADD PUSH1 0x0 SWAP1 SLOAD SWAP1 PUSH2 0x100 EXP SWAP1 DIV PUSH1 0x1 PUSH1 0x1 PUSH1 0xA0 SHL SUB AND SWAP1 POP PUSH1 0xE DUP6 DUP2 SLOAD DUP2 LT PUSH2 0x218A JUMPI PUSH2 0x218A PUSH2 0x3A72 JUMP JUMPDEST PUSH1 0x0 SWAP2 DUP3 MSTORE PUSH1 0x20 SWAP1 SWAP2 KECCAK256 PUSH1 0x8 PUSH1 0x9 SWAP1 SWAP3 MUL ADD ADD SLOAD PUSH1 0xFF AND PUSH2 0x21DC JUMPI PUSH1 0x40 MLOAD PUSH3 0x461BCD PUSH1 0xE5 SHL DUP2 MSTORE PUSH1 0x20 PUSH1 0x4 DUP3 ADD MSTORE PUSH1 0xC PUSH1 0x24 DUP3 ADD MSTORE PUSH12 0x6E6F74207374616B61626C65 PUSH1 0xA0 SHL PUSH1 0x44 DUP3 ADD MSTORE PUSH1 0x64 ADD PUSH2 0xA58 JUMP JUMPDEST PUSH1 0xE DUP6 DUP2 SLOAD DUP2 LT PUSH2 0x21EF JUMPI PUSH2 0x21EF PUSH2 0x3A72 JUMP JUMPDEST SWAP1 PUSH1 0x0 MSTORE PUSH1 0x20 PUSH1 0x0 KECCAK256 SWAP1 PUSH1 0x9 MUL ADD PUSH1 0x5 ADD SLOAD DUP3 PUSH1 0xE DUP8 DUP2 SLOAD DUP2 LT PUSH2 0x2215 JUMPI PUSH2 0x2215 PUSH2 0x3A72 JUMP JUMPDEST SWAP1 PUSH1 0x0 MSTORE PUSH1 0x20 PUSH1 0x0 KECCAK256 SWAP1 PUSH1 0x9 MUL ADD PUSH1 0x3 ADD SLOAD PUSH2 0x2231 SWAP2 SWAP1 PUSH2 0x3B17 JUMP JUMPDEST GT ISZERO PUSH2 0x227F JUMPI PUSH1 0x40 MLOAD PUSH3 0x461BCD PUSH1 0xE5 SHL DUP2 MSTORE PUSH1 0x20 PUSH1 0x4 DUP3 ADD DUP2 SWAP1 MSTORE PUSH1 0x24 DUP3 ADD MSTORE PUSH32 0x63616E74206465706F736974206D6F7265207468616E207661756C7420636170 PUSH1 0x44 DUP3 ADD MSTORE PUSH1 0x64 ADD PUSH2 0xA58 JUMP JUMPDEST PUSH1 0xE DUP6 DUP2 SLOAD DUP2 LT PUSH2 0x2292 JUMPI PUSH2 0x2292 PUSH2 0x3A72 JUMP JUMPDEST SWAP1 PUSH1 0x0 MSTORE PUSH1 0x20 PUSH1 0x0 KECCAK256 SWAP1 PUSH1 0x9 MUL ADD PUSH1 0x8 ADD PUSH1 0x2 SWAP1 SLOAD SWAP1 PUSH2 0x100 EXP SWAP1 DIV PUSH1 0xFF AND ISZERO PUSH2 0x22BF JUMPI PUSH2 0x22BF DUP6 PUSH2 0x328C JUMP JUMPDEST PUSH1 0x0 PUSH1 0xE DUP7 DUP2 SLOAD DUP2 LT PUSH2 0x22D4 JUMPI PUSH2 0x22D4 PUSH2 0x3A72 JUMP JUMPDEST SWAP1 PUSH1 0x0 MSTORE PUSH1 0x20 PUSH1 0x0 KECCAK256 SWAP1 PUSH1 0x9 MUL ADD PUSH1 0x3 ADD SLOAD SWAP1 POP PUSH1 0x0 DUP3 PUSH1 0x1 PUSH1 0x1 PUSH1 0xA0 SHL SUB AND PUSH4 0x18160DDD PUSH1 0x40 MLOAD DUP2 PUSH4 0xFFFFFFFF AND PUSH1 0xE0 SHL DUP2 MSTORE PUSH1 0x4 ADD PUSH1 0x20 PUSH1 0x40 MLOAD DUP1 DUP4 SUB DUP2 DUP7 GAS STATICCALL ISZERO DUP1 ISZERO PUSH2 0x2328 JUMPI RETURNDATASIZE PUSH1 0x0 DUP1 RETURNDATACOPY RETURNDATASIZE PUSH1 0x0 REVERT JUMPDEST POP POP POP POP PUSH1 0x40 MLOAD RETURNDATASIZE PUSH1 0x1F NOT PUSH1 0x1F DUP3 ADD AND DUP3 ADD DUP1 PUSH1 0x40 MSTORE POP DUP2 ADD SWAP1 PUSH2 0x234C SWAP2 SWAP1 PUSH2 0x3A88 JUMP JUMPDEST SWAP1 POP PUSH1 0x0 PUSH1 0xE DUP9 DUP2 SLOAD DUP2 LT PUSH2 0x2363 JUMPI PUSH2 0x2363 PUSH2 0x3A72 JUMP JUMPDEST SWAP1 PUSH1 0x0 MSTORE PUSH1 0x20 PUSH1 0x0 KECCAK256 SWAP1 PUSH1 0x9 MUL ADD PUSH1 0x6 ADD SLOAD PUSH3 0x186A0 PUSH2 0x2383 SWAP2 SWAP1 PUSH2 0x3B2F JUMP JUMPDEST SWAP1 POP PUSH1 0x0 PUSH2 0x2398 PUSH3 0x186A0 PUSH2 0xDA0 DUP9 DUP6 PUSH2 0x3280 JUMP JUMPDEST SWAP1 POP DUP3 ISZERO DUP1 PUSH2 0x23A5 JUMPI POP DUP4 ISZERO JUMPDEST ISZERO PUSH2 0x240F JUMPI PUSH1 0x40 MLOAD PUSH4 0x40C10F19 PUSH1 0xE0 SHL DUP2 MSTORE CALLER PUSH1 0x4 DUP3 ADD MSTORE PUSH1 0x24 DUP2 ADD DUP3 SWAP1 MSTORE PUSH1 0x1 PUSH1 0x1 PUSH1 0xA0 SHL SUB DUP7 AND SWAP1 PUSH4 0x40C10F19 SWAP1 PUSH1 0x44 ADD PUSH1 0x0 PUSH1 0x40 MLOAD DUP1 DUP4 SUB DUP2 PUSH1 0x0 DUP8 DUP1 EXTCODESIZE ISZERO DUP1 ISZERO PUSH2 0x23F2 JUMPI PUSH1 0x0 DUP1 REVERT JUMPDEST POP GAS CALL ISZERO DUP1 ISZERO PUSH2 0x2406 JUMPI RETURNDATASIZE PUSH1 0x0 DUP1 RETURNDATACOPY RETURNDATASIZE PUSH1 0x0 REVERT JUMPDEST POP POP POP POP PUSH2 0x2484 JUMP JUMPDEST PUSH1 0x0 PUSH2 0x241F DUP6 PUSH2 0xDA0 DUP5 DUP8 PUSH2 0x3280 JUMP JUMPDEST PUSH1 0x40 MLOAD PUSH4 0x40C10F19 PUSH1 0xE0 SHL DUP2 MSTORE CALLER PUSH1 0x4 DUP3 ADD MSTORE PUSH1 0x24 DUP2 ADD DUP3 SWAP1 MSTORE SWAP1 SWAP2 POP PUSH1 0x1 PUSH1 0x1 PUSH1 0xA0 SHL SUB DUP8 AND SWAP1 PUSH4 0x40C10F19 SWAP1 PUSH1 0x44 ADD PUSH1 0x0 PUSH1 0x40 MLOAD DUP1 DUP4 SUB DUP2 PUSH1 0x0 DUP8 DUP1 EXTCODESIZE ISZERO DUP1 ISZERO PUSH2 0x246A JUMPI PUSH1 0x0 DUP1 REVERT JUMPDEST POP GAS CALL ISZERO DUP1 ISZERO PUSH2 0x247E JUMPI RETURNDATASIZE PUSH1 0x0 DUP1 RETURNDATACOPY RETURNDATASIZE PUSH1 0x0 REVERT JUMPDEST POP POP POP POP POP JUMPDEST PUSH2 0x249B DUP2 PUSH1 0xE DUP12 DUP2 SLOAD DUP2 LT PUSH2 0xEA9 JUMPI PUSH2 0xEA9 PUSH2 0x3A72 JUMP JUMPDEST PUSH1 0xE DUP11 DUP2 SLOAD DUP2 LT PUSH2 0x24AE JUMPI PUSH2 0x24AE PUSH2 0x3A72 JUMP JUMPDEST SWAP1 PUSH1 0x0 MSTORE PUSH1 0x20 PUSH1 0x0 KECCAK256 SWAP1 PUSH1 0x9 MUL ADD PUSH1 0x3 ADD DUP2 SWAP1 SSTORE POP PUSH2 0x24CC DUP10 PUSH2 0x3346 JUMP JUMPDEST PUSH1 0x4 DUP1 SLOAD PUSH1 0x40 DUP1 MLOAD PUSH4 0xD0E30DB PUSH1 0xE4 SHL DUP2 MSTORE SWAP1 MLOAD PUSH1 0x1 PUSH1 0x1 PUSH1 0xA0 SHL SUB SWAP1 SWAP3 AND SWAP3 PUSH4 0xD0E30DB0 SWAP3 DUP13 SWAP3 DUP1 DUP4 ADD SWAP3 PUSH1 0x0 SWAP3 SWAP2 DUP3 SWAP1 SUB ADD DUP2 DUP6 DUP9 DUP1 EXTCODESIZE ISZERO DUP1 ISZERO PUSH2 0x2511 JUMPI PUSH1 0x0 DUP1 REVERT JUMPDEST POP GAS CALL ISZERO DUP1 ISZERO PUSH2 0x2525 JUMPI RETURNDATASIZE PUSH1 0x0 DUP1 RETURNDATACOPY RETURNDATASIZE PUSH1 0x0 REVERT JUMPDEST POP POP POP POP POP PUSH2 0x2534 DUP9 DUP9 PUSH2 0x344B JUMP JUMPDEST POP PUSH1 0xA SLOAD PUSH2 0xF35 SWAP1 PUSH1 0x1 PUSH1 0x1 PUSH1 0xA0 SHL SUB DUP10 DUP2 AND SWAP2 AND PUSH1 0x0 PUSH2 0x34ED JUMP JUMPDEST PUSH1 0x0 DUP1 PUSH1 0xE DUP4 DUP2 SLOAD DUP2 LT PUSH2 0x2566 JUMPI PUSH2 0x2566 PUSH2 0x3A72 JUMP JUMPDEST SWAP1 PUSH1 0x0 MSTORE PUSH1 0x20 PUSH1 0x0 KECCAK256 SWAP1 PUSH1 0x9 MUL ADD PUSH1 0x1 ADD PUSH1 0x0 SWAP1 SLOAD SWAP1 PUSH2 0x100 EXP SWAP1 DIV PUSH1 0x1 PUSH1 0x1 PUSH1 0xA0 SHL SUB AND SWAP1 POP PUSH1 0x0 DUP2 PUSH1 0x1 PUSH1 0x1 PUSH1 0xA0 SHL SUB AND PUSH4 0x18160DDD PUSH1 0x40 MLOAD DUP2 PUSH4 0xFFFFFFFF AND PUSH1 0xE0 SHL DUP2 MSTORE PUSH1 0x4 ADD PUSH1 0x20 PUSH1 0x40 MLOAD DUP1 DUP4 SUB DUP2 DUP7 GAS STATICCALL ISZERO DUP1 ISZERO PUSH2 0x25CD JUMPI RETURNDATASIZE PUSH1 0x0 DUP1 RETURNDATACOPY RETURNDATASIZE PUSH1 0x0 REVERT JUMPDEST POP POP POP POP PUSH1 0x40 MLOAD RETURNDATASIZE PUSH1 0x1F NOT PUSH1 0x1F DUP3 ADD AND DUP3 ADD DUP1 PUSH1 0x40 MSTORE POP DUP2 ADD SWAP1 PUSH2 0x25F1 SWAP2 SWAP1 PUSH2 0x3A88 JUMP JUMPDEST SWAP1 POP PUSH1 0x0 PUSH2 0x260E DUP3 PUSH2 0xDA0 PUSH8 0xDE0B6B3A7640000 PUSH2 0x14CF DUP10 PUSH2 0x2E81 JUMP JUMPDEST SWAP6 SWAP5 POP POP POP POP POP JUMP JUMPDEST PUSH1 0x0 DUP1 PUSH1 0xE DUP4 DUP2 SLOAD DUP2 LT PUSH2 0x262D JUMPI PUSH2 0x262D PUSH2 0x3A72 JUMP JUMPDEST SWAP1 PUSH1 0x0 MSTORE PUSH1 0x20 PUSH1 0x0 KECCAK256 SWAP1 PUSH1 0x9 MUL ADD PUSH1 0x1 ADD PUSH1 0x0 SWAP1 SLOAD SWAP1 PUSH2 0x100 EXP SWAP1 DIV PUSH1 0x1 PUSH1 0x1 PUSH1 0xA0 SHL SUB AND SWAP1 POP PUSH1 0x0 DUP2 PUSH1 0x1 PUSH1 0x1 PUSH1 0xA0 SHL SUB AND PUSH4 0x18160DDD PUSH1 0x40 MLOAD DUP2 PUSH4 0xFFFFFFFF AND PUSH1 0xE0 SHL DUP2 MSTORE PUSH1 0x4 ADD PUSH1 0x20 PUSH1 0x40 MLOAD DUP1 DUP4 SUB DUP2 DUP7 GAS STATICCALL ISZERO DUP1 ISZERO PUSH2 0x2694 JUMPI RETURNDATASIZE PUSH1 0x0 DUP1 RETURNDATACOPY RETURNDATASIZE PUSH1 0x0 REVERT JUMPDEST POP POP POP POP PUSH1 0x40 MLOAD RETURNDATASIZE PUSH1 0x1F NOT PUSH1 0x1F DUP3 ADD AND DUP3 ADD DUP1 PUSH1 0x40 MSTORE POP DUP2 ADD SWAP1 PUSH2 0x26B8 SWAP2 SWAP1 PUSH2 0x3A88 JUMP JUMPDEST SWAP1 POP PUSH1 0x0 PUSH2 0x2712 DUP3 PUSH2 0xDA0 PUSH2 0x26CC DUP9 PUSH2 0x2E81 JUMP JUMPDEST PUSH1 0x40 MLOAD PUSH4 0x70A08231 PUSH1 0xE0 SHL DUP2 MSTORE PUSH1 0x1 PUSH1 0x1 PUSH1 0xA0 SHL SUB DUP12 DUP2 AND PUSH1 0x4 DUP4 ADD MSTORE DUP9 AND SWAP1 PUSH4 0x70A08231 SWAP1 PUSH1 0x24 ADD PUSH1 0x20 PUSH1 0x40 MLOAD DUP1 DUP4 SUB DUP2 DUP7 GAS STATICCALL ISZERO DUP1 ISZERO PUSH2 0x14AB JUMPI RETURNDATASIZE PUSH1 0x0 DUP1 RETURNDATACOPY RETURNDATASIZE PUSH1 0x0 REVERT JUMPDEST SWAP7 SWAP6 POP POP POP POP POP POP JUMP JUMPDEST PUSH1 0x0 PUSH1 0x2 PUSH1 0x1 SLOAD EQ ISZERO PUSH2 0x2741 JUMPI PUSH1 0x40 MLOAD PUSH3 0x461BCD PUSH1 0xE5 SHL DUP2 MSTORE PUSH1 0x4 ADD PUSH2 0xA58 SWAP1 PUSH2 0x3AA1 JUMP JUMPDEST PUSH1 0x2 PUSH1 0x1 DUP2 SWAP1 SSTORE POP PUSH1 0x0 PUSH1 0xE DUP4 DUP2 SLOAD DUP2 LT PUSH2 0x275E JUMPI PUSH2 0x275E PUSH2 0x3A72 JUMP JUMPDEST PUSH1 0x0 SWAP2 DUP3 MSTORE PUSH1 0x20 DUP3 KECCAK256 PUSH1 0x1 PUSH1 0x9 SWAP1 SWAP3 MUL ADD ADD SLOAD PUSH1 0xE DUP1 SLOAD PUSH1 0x1 PUSH1 0x1 PUSH1 0xA0 SHL SUB SWAP1 SWAP3 AND SWAP4 POP SWAP1 DUP6 SWAP1 DUP2 LT PUSH2 0x2793 JUMPI PUSH2 0x2793 PUSH2 0x3A72 JUMP JUMPDEST PUSH1 0x0 SWAP2 DUP3 MSTORE PUSH1 0x20 SWAP1 SWAP2 KECCAK256 PUSH1 0x9 SWAP1 SWAP2 MUL ADD SLOAD PUSH1 0x40 MLOAD PUSH4 0x70A08231 PUSH1 0xE0 SHL DUP2 MSTORE CALLER PUSH1 0x4 DUP3 ADD MSTORE PUSH1 0x1 PUSH1 0x1 PUSH1 0xA0 SHL SUB SWAP2 DUP3 AND SWAP3 POP SWAP1 DUP4 AND SWAP1 PUSH4 0x70A08231 SWAP1 PUSH1 0x24 ADD PUSH1 0x20 PUSH1 0x40 MLOAD DUP1 DUP4 SUB DUP2 DUP7 GAS STATICCALL ISZERO DUP1 ISZERO PUSH2 0x27EE JUMPI RETURNDATASIZE PUSH1 0x0 DUP1 RETURNDATACOPY RETURNDATASIZE PUSH1 0x0 REVERT JUMPDEST POP POP POP POP PUSH1 0x40 MLOAD RETURNDATASIZE PUSH1 0x1F NOT PUSH1 0x1F DUP3 ADD AND DUP3 ADD DUP1 PUSH1 0x40 MSTORE POP DUP2 ADD SWAP1 PUSH2 0x2812 SWAP2 SWAP1 PUSH2 0x3A88 JUMP JUMPDEST DUP6 GT ISZERO PUSH2 0x2831 JUMPI PUSH1 0x40 MLOAD PUSH3 0x461BCD PUSH1 0xE5 SHL DUP2 MSTORE PUSH1 0x4 ADD PUSH2 0xA58 SWAP1 PUSH2 0x3AD8 JUMP JUMPDEST PUSH1 0xE DUP5 DUP2 SLOAD DUP2 LT PUSH2 0x2844 JUMPI PUSH2 0x2844 PUSH2 0x3A72 JUMP JUMPDEST SWAP1 PUSH1 0x0 MSTORE PUSH1 0x20 PUSH1 0x0 KECCAK256 SWAP1 PUSH1 0x9 MUL ADD PUSH1 0x8 ADD PUSH1 0x1 SWAP1 SLOAD SWAP1 PUSH2 0x100 EXP SWAP1 DIV PUSH1 0xFF AND PUSH2 0x28AF JUMPI PUSH1 0x40 MLOAD PUSH3 0x461BCD PUSH1 0xE5 SHL DUP2 MSTORE PUSH1 0x20 PUSH1 0x4 DUP3 ADD MSTORE PUSH1 0x1A PUSH1 0x24 DUP3 ADD MSTORE PUSH32 0x77697468647261772077696E646F77206E6F74206F70656E6564000000000000 PUSH1 0x44 DUP3 ADD MSTORE PUSH1 0x64 ADD PUSH2 0xA58 JUMP JUMPDEST PUSH1 0xE DUP5 DUP2 SLOAD DUP2 LT PUSH2 0x28C2 JUMPI PUSH2 0x28C2 PUSH2 0x3A72 JUMP JUMPDEST SWAP1 PUSH1 0x0 MSTORE PUSH1 0x20 PUSH1 0x0 KECCAK256 SWAP1 PUSH1 0x9 MUL ADD PUSH1 0x8 ADD PUSH1 0x2 SWAP1 SLOAD SWAP1 PUSH2 0x100 EXP SWAP1 DIV PUSH1 0xFF AND ISZERO PUSH2 0x28EF JUMPI PUSH2 0x28EF DUP5 PUSH2 0x328C JUMP JUMPDEST PUSH1 0x0 DUP3 PUSH1 0x1 PUSH1 0x1 PUSH1 0xA0 SHL SUB AND PUSH4 0x18160DDD PUSH1 0x40 MLOAD DUP2 PUSH4 0xFFFFFFFF AND PUSH1 0xE0 SHL DUP2 MSTORE PUSH1 0x4 ADD PUSH1 0x20 PUSH1 0x40 MLOAD DUP1 DUP4 SUB DUP2 DUP7 GAS STATICCALL ISZERO DUP1 ISZERO PUSH2 0x292F JUMPI RETURNDATASIZE PUSH1 0x0 DUP1 RETURNDATACOPY RETURNDATASIZE PUSH1 0x0 REVERT JUMPDEST POP POP POP POP PUSH1 0x40 MLOAD RETURNDATASIZE PUSH1 0x1F NOT PUSH1 0x1F DUP3 ADD AND DUP3 ADD DUP1 PUSH1 0x40 MSTORE POP DUP2 ADD SWAP1 PUSH2 0x2953 SWAP2 SWAP1 PUSH2 0x3A88 JUMP JUMPDEST SWAP1 POP PUSH1 0x0 PUSH2 0x2992 DUP3 PUSH2 0xDA0 PUSH1 0xE DUP10 DUP2 SLOAD DUP2 LT PUSH2 0x2971 JUMPI PUSH2 0x2971 PUSH2 0x3A72 JUMP JUMPDEST SWAP1 PUSH1 0x0 MSTORE PUSH1 0x20 PUSH1 0x0 KECCAK256 SWAP1 PUSH1 0x9 MUL ADD PUSH1 0x3 ADD SLOAD DUP11 PUSH2 0x3280 SWAP1 SWAP2 SWAP1 PUSH4 0xFFFFFFFF AND JUMP JUMPDEST SWAP1 POP PUSH2 0x29AB DUP2 PUSH1 0xE DUP9 DUP2 SLOAD DUP2 LT PUSH2 0x1383 JUMPI PUSH2 0x1383 PUSH2 0x3A72 JUMP JUMPDEST PUSH1 0xE DUP8 DUP2 SLOAD DUP2 LT PUSH2 0x29BE JUMPI PUSH2 0x29BE PUSH2 0x3A72 JUMP JUMPDEST SWAP1 PUSH1 0x0 MSTORE PUSH1 0x20 PUSH1 0x0 KECCAK256 SWAP1 PUSH1 0x9 MUL ADD PUSH1 0x3 ADD DUP2 SWAP1 SSTORE POP PUSH2 0x29DC DUP7 PUSH2 0x3346 JUMP JUMPDEST PUSH1 0x40 MLOAD PUSH4 0x2770A7EB PUSH1 0xE2 SHL DUP2 MSTORE CALLER PUSH1 0x4 DUP3 ADD MSTORE PUSH1 0x24 DUP2 ADD DUP9 SWAP1 MSTORE PUSH1 0x1 PUSH1 0x1 PUSH1 0xA0 SHL SUB DUP6 AND SWAP1 PUSH4 0x9DC29FAC SWAP1 PUSH1 0x44 ADD PUSH1 0x0 PUSH1 0x40 MLOAD DUP1 DUP4 SUB DUP2 PUSH1 0x0 DUP8 DUP1 EXTCODESIZE ISZERO DUP1 ISZERO PUSH2 0x2A24 JUMPI PUSH1 0x0 DUP1 REVERT JUMPDEST POP GAS CALL ISZERO DUP1 ISZERO PUSH2 0x2A38 JUMPI RETURNDATASIZE PUSH1 0x0 DUP1 RETURNDATACOPY RETURNDATASIZE PUSH1 0x0 REVERT JUMPDEST POP DUP4 SWAP3 POP POP POP DUP7 PUSH2 0x2A55 JUMPI PUSH2 0x2A52 DUP3 PUSH5 0xE8D4A51000 PUSH2 0x332E JUMP JUMPDEST SWAP1 POP JUMPDEST DUP7 PUSH1 0x2 EQ ISZERO PUSH2 0x2A70 JUMPI PUSH2 0x2A6D DUP3 PUSH5 0x2540BE400 PUSH2 0x332E JUMP JUMPDEST SWAP1 POP JUMPDEST PUSH1 0x0 PUSH1 0x3 SLOAD PUSH3 0x186A0 PUSH2 0x2A83 SWAP2 SWAP1 PUSH2 0x3B2F JUMP JUMPDEST SWAP1 POP PUSH1 0x0 PUSH2 0x2AE5 PUSH3 0x186A0 PUSH2 0xDA0 DUP5 PUSH1 0xC PUSH1 0x0 SWAP1 SLOAD SWAP1 PUSH2 0x100 EXP SWAP1 DIV PUSH1 0x1 PUSH1 0x1 PUSH1 0xA0 SHL SUB AND PUSH1 0x1 PUSH1 0x1 PUSH1 0xA0 SHL SUB AND PUSH4 0x65F910FA PUSH1 0x40 MLOAD DUP2 PUSH4 0xFFFFFFFF AND PUSH1 0xE0 SHL DUP2 MSTORE PUSH1 0x4 ADD PUSH1 0x20 PUSH1 0x40 MLOAD DUP1 DUP4 SUB DUP2 DUP7 GAS STATICCALL ISZERO DUP1 ISZERO PUSH2 0x14AB JUMPI RETURNDATASIZE PUSH1 0x0 DUP1 RETURNDATACOPY RETURNDATASIZE PUSH1 0x0 REVERT JUMPDEST PUSH1 0xC SLOAD PUSH1 0x40 MLOAD PUSH4 0x41976E09 PUSH1 0xE0 SHL DUP2 MSTORE PUSH1 0x1 PUSH1 0x1 PUSH1 0xA0 SHL SUB DUP10 DUP2 AND PUSH1 0x4 DUP4 ADD MSTORE SWAP3 SWAP4 POP PUSH1 0x0 SWAP3 SWAP1 SWAP2 AND SWAP1 PUSH4 0x41976E09 SWAP1 PUSH1 0x24 ADD PUSH1 0x20 PUSH1 0x40 MLOAD DUP1 DUP4 SUB DUP2 DUP7 GAS STATICCALL ISZERO DUP1 ISZERO PUSH2 0x2B35 JUMPI RETURNDATASIZE PUSH1 0x0 DUP1 RETURNDATACOPY RETURNDATASIZE PUSH1 0x0 REVERT JUMPDEST POP POP POP POP PUSH1 0x40 MLOAD RETURNDATASIZE PUSH1 0x1F NOT PUSH1 0x1F DUP3 ADD AND DUP3 ADD DUP1 PUSH1 0x40 MSTORE POP DUP2 ADD SWAP1 PUSH2 0x2B59 SWAP2 SWAP1 PUSH2 0x3A88 JUMP JUMPDEST SWAP1 POP PUSH1 0x0 PUSH2 0x2B83 PUSH13 0xC9F2C9CD04674EDEA40000000 PUSH2 0xDA0 DUP6 DUP2 DUP7 PUSH2 0x14CF DUP13 PUSH5 0xE8D4A51000 PUSH2 0x3280 JUMP JUMPDEST SWAP1 POP PUSH2 0x2B90 DUP2 DUP10 DUP8 PUSH2 0x360E JUMP JUMPDEST POP PUSH2 0x2BA5 PUSH1 0x1 PUSH1 0x1 PUSH1 0xA0 SHL SUB DUP10 AND CALLER DUP8 PUSH2 0x36A5 JUMP JUMPDEST POP POP PUSH1 0x1 DUP1 SSTORE POP SWAP1 SWAP9 SWAP8 POP POP POP POP POP POP POP POP JUMP JUMPDEST PUSH1 0x0 DUP1 DUP1 JUMPDEST PUSH1 0xE SLOAD DUP2 LT ISZERO PUSH2 0x2BED JUMPI PUSH2 0x2BDB PUSH2 0x2BD4 DUP3 PUSH2 0x2F4C JUMP JUMPDEST DUP4 SWAP1 PUSH2 0x333A JUMP JUMPDEST SWAP2 POP PUSH2 0x2BE6 DUP2 PUSH2 0x3B46 JUMP JUMPDEST SWAP1 POP PUSH2 0x2BBE JUMP JUMPDEST POP SWAP2 SWAP1 POP JUMP JUMPDEST PUSH2 0x2BFB PUSH2 0x3010 JUMP JUMPDEST PUSH1 0x8 SLOAD PUSH1 0x1 PUSH1 0x1 PUSH1 0xA0 SHL SUB DUP4 DUP2 AND SWAP2 AND EQ ISZERO PUSH2 0x2C4B JUMPI PUSH1 0x40 MLOAD PUSH3 0x461BCD PUSH1 0xE5 SHL DUP2 MSTORE PUSH1 0x20 PUSH1 0x4 DUP3 ADD MSTORE PUSH1 0xF PUSH1 0x24 DUP3 ADD MSTORE PUSH15 0x6E6F20676C7020647261696E696E67 PUSH1 0x88 SHL PUSH1 0x44 DUP3 ADD MSTORE PUSH1 0x64 ADD PUSH2 0xA58 JUMP JUMPDEST PUSH2 0x187B PUSH1 0x1 PUSH1 0x1 PUSH1 0xA0 SHL SUB DUP4 AND CALLER DUP4 PUSH2 0x36A5 JUMP JUMPDEST PUSH2 0x2C67 PUSH2 0x3010 JUMP JUMPDEST PUSH1 0x0 JUMPDEST PUSH1 0xE SLOAD DUP2 LT ISZERO PUSH2 0x1C8A JUMPI PUSH1 0x0 PUSH1 0xE DUP3 DUP2 SLOAD DUP2 LT PUSH2 0x2C89 JUMPI PUSH2 0x2C89 PUSH2 0x3A72 JUMP JUMPDEST SWAP1 PUSH1 0x0 MSTORE PUSH1 0x20 PUSH1 0x0 KECCAK256 SWAP1 PUSH1 0x9 MUL ADD PUSH1 0x8 ADD PUSH1 0x0 PUSH2 0x100 EXP DUP2 SLOAD DUP2 PUSH1 0xFF MUL NOT AND SWAP1 DUP4 ISZERO ISZERO MUL OR SWAP1 SSTORE POP PUSH1 0x1 PUSH1 0xE DUP3 DUP2 SLOAD DUP2 LT PUSH2 0x2CC6 JUMPI PUSH2 0x2CC6 PUSH2 0x3A72 JUMP JUMPDEST SWAP1 PUSH1 0x0 MSTORE PUSH1 0x20 PUSH1 0x0 KECCAK256 SWAP1 PUSH1 0x9 MUL ADD PUSH1 0x8 ADD PUSH1 0x1 PUSH2 0x100 EXP DUP2 SLOAD DUP2 PUSH1 0xFF MUL NOT AND SWAP1 DUP4 ISZERO ISZERO MUL OR SWAP1 SSTORE POP DUP1 PUSH2 0x2CF8 SWAP1 PUSH2 0x3B46 JUMP JUMPDEST SWAP1 POP PUSH2 0x2C6A JUMP JUMPDEST PUSH2 0x2D07 PUSH2 0x3010 JUMP JUMPDEST PUSH1 0xC8 DUP2 LT ISZERO DUP1 ISZERO PUSH2 0x2D1A JUMPI POP PUSH2 0x3E8 DUP2 GT ISZERO JUMPDEST PUSH2 0x2D55 JUMPI PUSH1 0x40 MLOAD PUSH3 0x461BCD PUSH1 0xE5 SHL DUP2 MSTORE PUSH1 0x20 PUSH1 0x4 DUP3 ADD MSTORE PUSH1 0xC PUSH1 0x24 DUP3 ADD MSTORE PUSH12 0x6E6F7420696E2072616E6765 PUSH1 0xA0 SHL PUSH1 0x44 DUP3 ADD MSTORE PUSH1 0x64 ADD PUSH2 0xA58 JUMP JUMPDEST PUSH1 0x3 SSTORE JUMP JUMPDEST PUSH2 0x2D62 PUSH2 0x3010 JUMP JUMPDEST PUSH1 0x40 MLOAD PUSH4 0x70A08231 PUSH1 0xE0 SHL DUP2 MSTORE ADDRESS PUSH1 0x4 DUP3 ADD MSTORE DUP3 SWAP1 PUSH1 0x1 PUSH1 0x1 PUSH1 0xA0 SHL SUB DUP4 AND SWAP1 PUSH4 0x70A08231 SWAP1 PUSH1 0x24 ADD PUSH1 0x20 PUSH1 0x40 MLOAD DUP1 DUP4 SUB DUP2 DUP7 GAS STATICCALL ISZERO DUP1 ISZERO PUSH2 0x2DA8 JUMPI RETURNDATASIZE PUSH1 0x0 DUP1 RETURNDATACOPY RETURNDATASIZE PUSH1 0x0 REVERT JUMPDEST POP POP POP POP PUSH1 0x40 MLOAD RETURNDATASIZE PUSH1 0x1F NOT PUSH1 0x1F DUP3 ADD AND DUP3 ADD DUP1 PUSH1 0x40 MSTORE POP DUP2 ADD SWAP1 PUSH2 0x2DCC SWAP2 SWAP1 PUSH2 0x3A88 JUMP JUMPDEST LT ISZERO PUSH2 0x2DD7 JUMPI PUSH1 0x0 DUP1 REVERT JUMPDEST PUSH2 0x2DED PUSH2 0x2DE4 DUP4 DUP4 PUSH2 0x344B JUMP JUMPDEST PUSH1 0x2 SLOAD SWAP1 PUSH2 0x333A JUMP JUMPDEST PUSH1 0x2 SSTORE PUSH1 0xA SLOAD PUSH2 0x187B SWAP1 PUSH1 0x1 PUSH1 0x1 PUSH1 0xA0 SHL SUB DUP4 DUP2 AND SWAP2 AND PUSH1 0x0 PUSH2 0x34ED JUMP JUMPDEST PUSH2 0x2E13 PUSH2 0x3010 JUMP JUMPDEST PUSH1 0x1 PUSH1 0x1 PUSH1 0xA0 SHL SUB DUP2 AND PUSH2 0x2E78 JUMPI PUSH1 0x40 MLOAD PUSH3 0x461BCD PUSH1 0xE5 SHL DUP2 MSTORE PUSH1 0x20 PUSH1 0x4 DUP3 ADD MSTORE PUSH1 0x26 PUSH1 0x24 DUP3 ADD MSTORE PUSH32 0x4F776E61626C653A206E6577206F776E657220697320746865207A65726F2061 PUSH1 0x44 DUP3 ADD MSTORE PUSH6 0x646472657373 PUSH1 0xD0 SHL PUSH1 0x64 DUP3 ADD MSTORE PUSH1 0x84 ADD PUSH2 0xA58 JUMP JUMPDEST PUSH2 0x1C8A DUP2 PUSH2 0x3655 JUMP JUMPDEST PUSH1 0x0 DUP1 PUSH1 0x0 SWAP1 POP PUSH1 0xE DUP4 DUP2 SLOAD DUP2 LT PUSH2 0x2E9B JUMPI PUSH2 0x2E9B PUSH2 0x3A72 JUMP JUMPDEST SWAP1 PUSH1 0x0 MSTORE PUSH1 0x20 PUSH1 0x0 KECCAK256 SWAP1 PUSH1 0x9 MUL ADD PUSH1 0x8 ADD PUSH1 0x2 SWAP1 SLOAD SWAP1 PUSH2 0x100 EXP SWAP1 DIV PUSH1 0xFF AND ISZERO PUSH2 0x2F35 JUMPI PUSH1 0x0 PUSH2 0x2EF8 PUSH1 0xE DUP6 DUP2 SLOAD DUP2 LT PUSH2 0x2ED7 JUMPI PUSH2 0x2ED7 PUSH2 0x3A72 JUMP JUMPDEST SWAP1 PUSH1 0x0 MSTORE PUSH1 0x20 PUSH1 0x0 KECCAK256 SWAP1 PUSH1 0x9 MUL ADD PUSH1 0x4 ADD SLOAD TIMESTAMP PUSH2 0x3602 SWAP1 SWAP2 SWAP1 PUSH4 0xFFFFFFFF AND JUMP JUMPDEST SWAP1 POP PUSH2 0x2F31 DUP2 PUSH1 0xE DUP7 DUP2 SLOAD DUP2 LT PUSH2 0x2F11 JUMPI PUSH2 0x2F11 PUSH2 0x3A72 JUMP JUMPDEST SWAP1 PUSH1 0x0 MSTORE PUSH1 0x20 PUSH1 0x0 KECCAK256 SWAP1 PUSH1 0x9 MUL ADD PUSH1 0x2 ADD SLOAD PUSH2 0x3280 SWAP1 SWAP2 SWAP1 PUSH4 0xFFFFFFFF AND JUMP JUMPDEST SWAP2 POP POP JUMPDEST PUSH2 0x1B1D DUP2 PUSH1 0xE DUP6 DUP2 SLOAD DUP2 LT PUSH2 0xEA9 JUMPI PUSH2 0xEA9 PUSH2 0x3A72 JUMP JUMPDEST PUSH1 0x0 DUP1 PUSH1 0xE DUP4 DUP2 SLOAD DUP2 LT PUSH2 0x2F62 JUMPI PUSH2 0x2F62 PUSH2 0x3A72 JUMP JUMPDEST PUSH1 0x0 SWAP2 DUP3 MSTORE PUSH1 0x20 DUP3 KECCAK256 PUSH1 0x9 SWAP2 SWAP1 SWAP2 MUL ADD SLOAD PUSH1 0xC SLOAD PUSH1 0x40 MLOAD PUSH4 0x41976E09 PUSH1 0xE0 SHL DUP2 MSTORE PUSH1 0x1 PUSH1 0x1 PUSH1 0xA0 SHL SUB SWAP3 DUP4 AND PUSH1 0x4 DUP3 ADD DUP2 SWAP1 MSTORE SWAP5 POP SWAP2 AND SWAP1 PUSH4 0x41976E09 SWAP1 PUSH1 0x24 ADD PUSH1 0x20 PUSH1 0x40 MLOAD DUP1 DUP4 SUB DUP2 DUP7 GAS STATICCALL ISZERO DUP1 ISZERO PUSH2 0x2FC0 JUMPI RETURNDATASIZE PUSH1 0x0 DUP1 RETURNDATACOPY RETURNDATASIZE PUSH1 0x0 REVERT JUMPDEST POP POP POP POP PUSH1 0x40 MLOAD RETURNDATASIZE PUSH1 0x1F NOT PUSH1 0x1F DUP3 ADD AND DUP3 ADD DUP1 PUSH1 0x40 MSTORE POP DUP2 ADD SWAP1 PUSH2 0x2FE4 SWAP2 SWAP1 PUSH2 0x3A88 JUMP JUMPDEST SWAP1 POP PUSH1 0x0 PUSH2 0x2FF1 DUP6 PUSH2 0x2E81 JUMP JUMPDEST SWAP1 POP PUSH1 0x0 PUSH2 0x2712 PUSH13 0xC9F2C9CD04674EDEA40000000 PUSH2 0xDA0 DUP6 DUP6 PUSH2 0x3280 JUMP JUMPDEST PUSH1 0x0 SLOAD PUSH1 0x1 PUSH1 0x1 PUSH1 0xA0 SHL SUB AND CALLER EQ PUSH2 0xA33 JUMPI PUSH1 0x40 MLOAD PUSH3 0x461BCD PUSH1 0xE5 SHL DUP2 MSTORE PUSH1 0x20 PUSH1 0x4 DUP3 ADD DUP2 SWAP1 MSTORE PUSH1 0x24 DUP3 ADD MSTORE PUSH32 0x4F776E61626C653A2063616C6C6572206973206E6F7420746865206F776E6572 PUSH1 0x44 DUP3 ADD MSTORE PUSH1 0x64 ADD PUSH2 0xA58 JUMP JUMPDEST PUSH1 0xA PUSH1 0x0 SWAP1 SLOAD SWAP1 PUSH2 0x100 EXP SWAP1 DIV PUSH1 0x1 PUSH1 0x1 PUSH1 0xA0 SHL SUB AND PUSH1 0x1 PUSH1 0x1 PUSH1 0xA0 SHL SUB AND PUSH4 0xD294F093 PUSH1 0x40 MLOAD DUP2 PUSH4 0xFFFFFFFF AND PUSH1 0xE0 SHL DUP2 MSTORE PUSH1 0x4 ADD PUSH1 0x0 PUSH1 0x40 MLOAD DUP1 DUP4 SUB DUP2 PUSH1 0x0 DUP8 DUP1 EXTCODESIZE ISZERO DUP1 ISZERO PUSH2 0x30BA JUMPI PUSH1 0x0 DUP1 REVERT JUMPDEST POP GAS CALL ISZERO DUP1 ISZERO PUSH2 0x30CE JUMPI RETURNDATASIZE PUSH1 0x0 DUP1 RETURNDATACOPY RETURNDATASIZE PUSH1 0x0 REVERT JUMPDEST POP POP PUSH1 0x4 DUP1 SLOAD PUSH1 0x40 MLOAD PUSH4 0x70A08231 PUSH1 0xE0 SHL DUP2 MSTORE ADDRESS SWAP3 DUP2 ADD SWAP3 SWAP1 SWAP3 MSTORE PUSH1 0x0 SWAP4 POP PUSH1 0x1 PUSH1 0x1 PUSH1 0xA0 SHL SUB AND SWAP2 POP PUSH4 0x70A08231 SWAP1 PUSH1 0x24 ADD PUSH1 0x20 PUSH1 0x40 MLOAD DUP1 DUP4 SUB DUP2 DUP7 GAS STATICCALL ISZERO DUP1 ISZERO PUSH2 0x311E JUMPI RETURNDATASIZE PUSH1 0x0 DUP1 RETURNDATACOPY RETURNDATASIZE PUSH1 0x0 REVERT JUMPDEST POP POP POP POP PUSH1 0x40 MLOAD RETURNDATASIZE PUSH1 0x1F NOT PUSH1 0x1F DUP3 ADD AND DUP3 ADD DUP1 PUSH1 0x40 MSTORE POP DUP2 ADD SWAP1 PUSH2 0x3142 SWAP2 SWAP1 PUSH2 0x3A88 JUMP JUMPDEST SWAP1 POP PUSH1 0x0 PUSH2 0x3161 PUSH2 0x3E8 PUSH2 0xDA0 PUSH1 0xD SLOAD DUP6 PUSH2 0x3280 SWAP1 SWAP2 SWAP1 PUSH4 0xFFFFFFFF AND JUMP JUMPDEST PUSH1 0x4 SLOAD SWAP1 SWAP2 POP PUSH2 0x317B SWAP1 DUP3 SWAP1 PUSH1 0x1 PUSH1 0x1 PUSH1 0xA0 SHL SUB AND PUSH2 0x344B JUMP JUMPDEST POP PUSH1 0x4 SLOAD PUSH1 0x1 PUSH1 0x1 PUSH1 0xA0 SHL SUB AND PUSH4 0xA9059CBB PUSH2 0x319F PUSH1 0x0 SLOAD PUSH1 0x1 PUSH1 0x1 PUSH1 0xA0 SHL SUB AND SWAP1 JUMP JUMPDEST PUSH1 0x4 DUP1 SLOAD PUSH1 0x40 MLOAD PUSH4 0x70A08231 PUSH1 0xE0 SHL DUP2 MSTORE ADDRESS SWAP3 DUP2 ADD SWAP3 SWAP1 SWAP3 MSTORE PUSH1 0x1 PUSH1 0x1 PUSH1 0xA0 SHL SUB AND SWAP1 PUSH4 0x70A08231 SWAP1 PUSH1 0x24 ADD PUSH1 0x20 PUSH1 0x40 MLOAD DUP1 DUP4 SUB DUP2 DUP7 GAS STATICCALL ISZERO DUP1 ISZERO PUSH2 0x31E8 JUMPI RETURNDATASIZE PUSH1 0x0 DUP1 RETURNDATACOPY RETURNDATASIZE PUSH1 0x0 REVERT JUMPDEST POP POP POP POP PUSH1 0x40 MLOAD RETURNDATASIZE PUSH1 0x1F NOT PUSH1 0x1F DUP3 ADD AND DUP3 ADD DUP1 PUSH1 0x40 MSTORE POP DUP2 ADD SWAP1 PUSH2 0x320C SWAP2 SWAP1 PUSH2 0x3A88 JUMP JUMPDEST PUSH1 0x40 MLOAD PUSH1 0x1 PUSH1 0x1 PUSH1 0xE0 SHL SUB NOT PUSH1 0xE0 DUP6 SWAP1 SHL AND DUP2 MSTORE PUSH1 0x1 PUSH1 0x1 PUSH1 0xA0 SHL SUB SWAP1 SWAP3 AND PUSH1 0x4 DUP4 ADD MSTORE PUSH1 0x24 DUP3 ADD MSTORE PUSH1 0x44 ADD PUSH1 0x20 PUSH1 0x40 MLOAD DUP1 DUP4 SUB DUP2 PUSH1 0x0 DUP8 GAS CALL ISZERO DUP1 ISZERO PUSH2 0x3257 JUMPI RETURNDATASIZE PUSH1 0x0 DUP1 RETURNDATACOPY RETURNDATASIZE PUSH1 0x0 REVERT JUMPDEST POP POP POP POP PUSH1 0x40 MLOAD RETURNDATASIZE PUSH1 0x1F NOT PUSH1 0x1F DUP3 ADD AND DUP3 ADD DUP1 PUSH1 0x40 MSTORE POP DUP2 ADD SWAP1 PUSH2 0x327B SWAP2 SWAP1 PUSH2 0x3B61 JUMP JUMPDEST POP POP POP JUMP JUMPDEST PUSH1 0x0 PUSH2 0x1B1D DUP3 DUP5 PUSH2 0x3B83 JUMP JUMPDEST PUSH1 0x0 PUSH2 0x32A4 PUSH1 0xE DUP4 DUP2 SLOAD DUP2 LT PUSH2 0x2ED7 JUMPI PUSH2 0x2ED7 PUSH2 0x3A72 JUMP JUMPDEST SWAP1 POP TIMESTAMP PUSH1 0xE DUP4 DUP2 SLOAD DUP2 LT PUSH2 0x32BA JUMPI PUSH2 0x32BA PUSH2 0x3A72 JUMP JUMPDEST SWAP1 PUSH1 0x0 MSTORE PUSH1 0x20 PUSH1 0x0 KECCAK256 SWAP1 PUSH1 0x9 MUL ADD PUSH1 0x4 ADD DUP2 SWAP1 SSTORE POP PUSH1 0x0 PUSH2 0x32E8 DUP3 PUSH1 0xE DUP6 DUP2 SLOAD DUP2 LT PUSH2 0x2F11 JUMPI PUSH2 0x2F11 PUSH2 0x3A72 JUMP JUMPDEST SWAP1 POP PUSH2 0x3301 DUP2 PUSH1 0xE DUP6 DUP2 SLOAD DUP2 LT PUSH2 0xEA9 JUMPI PUSH2 0xEA9 PUSH2 0x3A72 JUMP JUMPDEST PUSH1 0xE DUP5 DUP2 SLOAD DUP2 LT PUSH2 0x3314 JUMPI PUSH2 0x3314 PUSH2 0x3A72 JUMP JUMPDEST SWAP1 PUSH1 0x0 MSTORE PUSH1 0x20 PUSH1 0x0 KECCAK256 SWAP1 PUSH1 0x9 MUL ADD PUSH1 0x3 ADD DUP2 SWAP1 SSTORE POP POP POP POP JUMP JUMPDEST PUSH1 0x0 PUSH2 0x1B1D DUP3 DUP5 PUSH2 0x3BA2 JUMP JUMPDEST PUSH1 0x0 PUSH2 0x1B1D DUP3 DUP5 PUSH2 0x3B17 JUMP JUMPDEST PUSH2 0x33AF PUSH4 0x1E13380 PUSH2 0xDA0 PUSH2 0x2710 PUSH2 0xDA0 PUSH1 0xE DUP7 DUP2 SLOAD DUP2 LT PUSH2 0x336A JUMPI PUSH2 0x336A PUSH2 0x3A72 JUMP JUMPDEST SWAP1 PUSH1 0x0 MSTORE PUSH1 0x20 PUSH1 0x0 KECCAK256 SWAP1 PUSH1 0x9 MUL ADD PUSH1 0x7 ADD SLOAD PUSH1 0xE DUP8 DUP2 SLOAD DUP2 LT PUSH2 0x338F JUMPI PUSH2 0x338F PUSH2 0x3A72 JUMP JUMPDEST SWAP1 PUSH1 0x0 MSTORE PUSH1 0x20 PUSH1 0x0 KECCAK256 SWAP1 PUSH1 0x9 MUL ADD PUSH1 0x3 ADD SLOAD PUSH2 0x3280 SWAP1 SWAP2 SWAP1 PUSH4 0xFFFFFFFF AND JUMP JUMPDEST PUSH1 0xE DUP3 DUP2 SLOAD DUP2 LT PUSH2 0x33C2 JUMPI PUSH2 0x33C2 PUSH2 0x3A72 JUMP JUMPDEST SWAP1 PUSH1 0x0 MSTORE PUSH1 0x20 PUSH1 0x0 KECCAK256 SWAP1 PUSH1 0x9 MUL ADD PUSH1 0x2 ADD DUP2 SWAP1 SSTORE POP POP JUMP JUMPDEST PUSH1 0x40 MLOAD PUSH1 0x1 PUSH1 0x1 PUSH1 0xA0 SHL SUB DUP1 DUP6 AND PUSH1 0x24 DUP4 ADD MSTORE DUP4 AND PUSH1 0x44 DUP3 ADD MSTORE PUSH1 0x64 DUP2 ADD DUP3 SWAP1 MSTORE PUSH2 0x3445 SWAP1 DUP6 SWAP1 PUSH4 0x23B872DD PUSH1 0xE0 SHL SWAP1 PUSH1 0x84 ADD JUMPDEST PUSH1 0x40 DUP1 MLOAD PUSH1 0x1F NOT DUP2 DUP5 SUB ADD DUP2 MSTORE SWAP2 SWAP1 MSTORE PUSH1 0x20 DUP2 ADD DUP1 MLOAD PUSH1 0x1 PUSH1 0x1 PUSH1 0xE0 SHL SUB AND PUSH1 0x1 PUSH1 0x1 PUSH1 0xE0 SHL SUB NOT SWAP1 SWAP4 AND SWAP3 SWAP1 SWAP3 OR SWAP1 SWAP2 MSTORE PUSH2 0x3745 JUMP JUMPDEST POP POP POP POP JUMP JUMPDEST PUSH1 0xB SLOAD PUSH1 0x0 SWAP1 PUSH2 0x3468 SWAP1 PUSH1 0x1 PUSH1 0x1 PUSH1 0xA0 SHL SUB DUP5 DUP2 AND SWAP2 AND DUP6 PUSH2 0x34ED JUMP JUMPDEST PUSH1 0xA SLOAD PUSH1 0x40 MLOAD PUSH4 0x364E2311 PUSH1 0xE0 SHL DUP2 MSTORE PUSH1 0x1 PUSH1 0x1 PUSH1 0xA0 SHL SUB DUP5 DUP2 AND PUSH1 0x4 DUP4 ADD MSTORE PUSH1 0x24 DUP3 ADD DUP7 SWAP1 MSTORE PUSH1 0x0 PUSH1 0x44 DUP4 ADD DUP2 SWAP1 MSTORE PUSH1 0x64 DUP4 ADD MSTORE SWAP1 SWAP2 AND SWAP1 PUSH4 0x364E2311 SWAP1 PUSH1 0x84 ADD PUSH1 0x20 PUSH1 0x40 MLOAD DUP1 DUP4 SUB DUP2 PUSH1 0x0 DUP8 GAS CALL ISZERO DUP1 ISZERO PUSH2 0x34C9 JUMPI RETURNDATASIZE PUSH1 0x0 DUP1 RETURNDATACOPY RETURNDATASIZE PUSH1 0x0 REVERT JUMPDEST POP POP POP POP PUSH1 0x40 MLOAD RETURNDATASIZE PUSH1 0x1F NOT PUSH1 0x1F DUP3 ADD AND DUP3 ADD DUP1 PUSH1 0x40 MSTORE POP DUP2 ADD SWAP1 PUSH2 0x1B1D SWAP2 SWAP1 PUSH2 0x3A88 JUMP JUMPDEST DUP1 ISZERO DUP1 PUSH2 0x3567 JUMPI POP PUSH1 0x40 MLOAD PUSH4 0x6EB1769F PUSH1 0xE1 SHL DUP2 MSTORE ADDRESS PUSH1 0x4 DUP3 ADD MSTORE PUSH1 0x1 PUSH1 0x1 PUSH1 0xA0 SHL SUB DUP4 DUP2 AND PUSH1 0x24 DUP4 ADD MSTORE DUP5 AND SWAP1 PUSH4 0xDD62ED3E SWAP1 PUSH1 0x44 ADD PUSH1 0x20 PUSH1 0x40 MLOAD DUP1 DUP4 SUB DUP2 DUP7 GAS STATICCALL ISZERO DUP1 ISZERO PUSH2 0x3541 JUMPI RETURNDATASIZE PUSH1 0x0 DUP1 RETURNDATACOPY RETURNDATASIZE PUSH1 0x0 REVERT JUMPDEST POP POP POP POP PUSH1 0x40 MLOAD RETURNDATASIZE PUSH1 0x1F NOT PUSH1 0x1F DUP3 ADD AND DUP3 ADD DUP1 PUSH1 0x40 MSTORE POP DUP2 ADD SWAP1 PUSH2 0x3565 SWAP2 SWAP1 PUSH2 0x3A88 JUMP JUMPDEST ISZERO JUMPDEST PUSH2 0x35D2 JUMPI PUSH1 0x40 MLOAD PUSH3 0x461BCD PUSH1 0xE5 SHL DUP2 MSTORE PUSH1 0x20 PUSH1 0x4 DUP3 ADD MSTORE PUSH1 0x36 PUSH1 0x24 DUP3 ADD MSTORE PUSH32 0x5361666545524332303A20617070726F76652066726F6D206E6F6E2D7A65726F PUSH1 0x44 DUP3 ADD MSTORE PUSH22 0x20746F206E6F6E2D7A65726F20616C6C6F77616E6365 PUSH1 0x50 SHL PUSH1 0x64 DUP3 ADD MSTORE PUSH1 0x84 ADD PUSH2 0xA58 JUMP JUMPDEST PUSH1 0x40 MLOAD PUSH1 0x1 PUSH1 0x1 PUSH1 0xA0 SHL SUB DUP4 AND PUSH1 0x24 DUP3 ADD MSTORE PUSH1 0x44 DUP2 ADD DUP3 SWAP1 MSTORE PUSH2 0x327B SWAP1 DUP5 SWAP1 PUSH4 0x95EA7B3 PUSH1 0xE0 SHL SWAP1 PUSH1 0x64 ADD PUSH2 0x340E JUMP JUMPDEST PUSH1 0x0 PUSH2 0x1B1D DUP3 DUP5 PUSH2 0x3B2F JUMP JUMPDEST PUSH1 0xA SLOAD PUSH1 0x40 MLOAD PUSH4 0x3CEA955 PUSH1 0xE2 SHL DUP2 MSTORE PUSH1 0x1 PUSH1 0x1 PUSH1 0xA0 SHL SUB DUP5 DUP2 AND PUSH1 0x4 DUP4 ADD MSTORE PUSH1 0x24 DUP3 ADD DUP7 SWAP1 MSTORE PUSH1 0x44 DUP3 ADD DUP5 SWAP1 MSTORE ADDRESS PUSH1 0x64 DUP4 ADD MSTORE PUSH1 0x0 SWAP3 AND SWAP1 PUSH4 0xF3AA554 SWAP1 PUSH1 0x84 ADD PUSH2 0x1AD7 JUMP JUMPDEST PUSH1 0x0 DUP1 SLOAD PUSH1 0x1 PUSH1 0x1 PUSH1 0xA0 SHL SUB DUP4 DUP2 AND PUSH1 0x1 PUSH1 0x1 PUSH1 0xA0 SHL SUB NOT DUP4 AND DUP2 OR DUP5 SSTORE PUSH1 0x40 MLOAD SWAP2 SWAP1 SWAP3 AND SWAP3 DUP4 SWAP2 PUSH32 0x8BE0079C531659141344CD1FD0A4F28419497F9722A3DAAFE3B4186F6B6457E0 SWAP2 SWAP1 LOG3 POP POP JUMP JUMPDEST PUSH1 0x40 MLOAD PUSH1 0x1 PUSH1 0x1 PUSH1 0xA0 SHL SUB DUP4 AND PUSH1 0x24 DUP3 ADD MSTORE PUSH1 0x44 DUP2 ADD DUP3 SWAP1 MSTORE PUSH2 0x327B SWAP1 DUP5 SWAP1 PUSH4 0xA9059CBB PUSH1 0xE0 SHL SWAP1 PUSH1 0x64 ADD PUSH2 0x340E JUMP JUMPDEST PUSH1 0x0 DUP1 JUMPDEST PUSH1 0xE SLOAD DUP2 LT ISZERO PUSH2 0x373C JUMPI DUP3 PUSH1 0x1 PUSH1 0x1 PUSH1 0xA0 SHL SUB AND PUSH1 0xE DUP3 DUP2 SLOAD DUP2 LT PUSH2 0x3700 JUMPI PUSH2 0x3700 PUSH2 0x3A72 JUMP JUMPDEST PUSH1 0x0 SWAP2 DUP3 MSTORE PUSH1 0x20 SWAP1 SWAP2 KECCAK256 PUSH1 0x1 PUSH1 0x9 SWAP1 SWAP3 MUL ADD ADD SLOAD PUSH1 0x1 PUSH1 0x1 PUSH1 0xA0 SHL SUB AND EQ ISZERO PUSH2 0x372C JUMPI POP PUSH1 0x0 SWAP3 SWAP2 POP POP JUMP JUMPDEST PUSH2 0x3735 DUP2 PUSH2 0x3B46 JUMP JUMPDEST SWAP1 POP PUSH2 0x36D9 JUMP JUMPDEST POP PUSH1 0x1 SWAP3 SWAP2 POP POP JUMP JUMPDEST PUSH1 0x0 PUSH2 0x379A DUP3 PUSH1 0x40 MLOAD DUP1 PUSH1 0x40 ADD PUSH1 0x40 MSTORE DUP1 PUSH1 0x20 DUP2 MSTORE PUSH1 0x20 ADD PUSH32 0x5361666545524332303A206C6F772D6C6576656C2063616C6C206661696C6564 DUP2 MSTORE POP DUP6 PUSH1 0x1 PUSH1 0x1 PUSH1 0xA0 SHL SUB AND PUSH2 0x3817 SWAP1 SWAP3 SWAP2 SWAP1 PUSH4 0xFFFFFFFF AND JUMP JUMPDEST DUP1 MLOAD SWAP1 SWAP2 POP ISZERO PUSH2 0x327B JUMPI DUP1 DUP1 PUSH1 0x20 ADD SWAP1 MLOAD DUP2 ADD SWAP1 PUSH2 0x37B8 SWAP2 SWAP1 PUSH2 0x3B61 JUMP JUMPDEST PUSH2 0x327B JUMPI PUSH1 0x40 MLOAD PUSH3 0x461BCD PUSH1 0xE5 SHL DUP2 MSTORE PUSH1 0x20 PUSH1 0x4 DUP3 ADD MSTORE PUSH1 0x2A PUSH1 0x24 DUP3 ADD MSTORE PUSH32 0x5361666545524332303A204552433230206F7065726174696F6E20646964206E PUSH1 0x44 DUP3 ADD MSTORE PUSH10 0x1BDD081CDD58D8D95959 PUSH1 0xB2 SHL PUSH1 0x64 DUP3 ADD MSTORE PUSH1 0x84 ADD PUSH2 0xA58 JUMP JUMPDEST PUSH1 0x60 PUSH2 0x1B1A DUP5 DUP5 PUSH1 0x0 DUP6 DUP6 PUSH1 0x1 PUSH1 0x1 PUSH1 0xA0 SHL SUB DUP6 AND EXTCODESIZE PUSH2 0x3879 JUMPI PUSH1 0x40 MLOAD PUSH3 0x461BCD PUSH1 0xE5 SHL DUP2 MSTORE PUSH1 0x20 PUSH1 0x4 DUP3 ADD MSTORE PUSH1 0x1D PUSH1 0x24 DUP3 ADD MSTORE PUSH32 0x416464726573733A2063616C6C20746F206E6F6E2D636F6E7472616374000000 PUSH1 0x44 DUP3 ADD MSTORE PUSH1 0x64 ADD PUSH2 0xA58 JUMP JUMPDEST PUSH1 0x0 DUP1 DUP7 PUSH1 0x1 PUSH1 0x1 PUSH1 0xA0 SHL SUB AND DUP6 DUP8 PUSH1 0x40 MLOAD PUSH2 0x3895 SWAP2 SWAP1 PUSH2 0x3BF0 JUMP JUMPDEST PUSH1 0x0 PUSH1 0x40 MLOAD DUP1 DUP4 SUB DUP2 DUP6 DUP8 GAS CALL SWAP3 POP POP POP RETURNDATASIZE DUP1 PUSH1 0x0 DUP2 EQ PUSH2 0x38D2 JUMPI PUSH1 0x40 MLOAD SWAP2 POP PUSH1 0x1F NOT PUSH1 0x3F RETURNDATASIZE ADD AND DUP3 ADD PUSH1 0x40 MSTORE RETURNDATASIZE DUP3 MSTORE RETURNDATASIZE PUSH1 0x0 PUSH1 0x20 DUP5 ADD RETURNDATACOPY PUSH2 0x38D7 JUMP JUMPDEST PUSH1 0x60 SWAP2 POP JUMPDEST POP SWAP2 POP SWAP2 POP PUSH2 0x38E7 DUP3 DUP3 DUP7 PUSH2 0x38F2 JUMP JUMPDEST SWAP8 SWAP7 POP POP POP POP POP POP POP JUMP JUMPDEST PUSH1 0x60 DUP4 ISZERO PUSH2 0x3901 JUMPI POP DUP2 PUSH2 0x1B1D JUMP JUMPDEST DUP3 MLOAD ISZERO PUSH2 0x3911 JUMPI DUP3 MLOAD DUP1 DUP5 PUSH1 0x20 ADD REVERT JUMPDEST DUP2 PUSH1 0x40 MLOAD PUSH3 0x461BCD PUSH1 0xE5 SHL DUP2 MSTORE PUSH1 0x4 ADD PUSH2 0xA58 SWAP2 SWAP1 PUSH2 0x3C0C JUMP JUMPDEST PUSH1 0x0 PUSH1 0x20 DUP3 DUP5 SUB SLT ISZERO PUSH2 0x393D JUMPI PUSH1 0x0 DUP1 REVERT JUMPDEST POP CALLDATALOAD SWAP2 SWAP1 POP JUMP JUMPDEST PUSH1 0x0 DUP1 PUSH1 0x40 DUP4 DUP6 SUB SLT ISZERO PUSH2 0x3957 JUMPI PUSH1 0x0 DUP1 REVERT JUMPDEST POP POP DUP1 CALLDATALOAD SWAP3 PUSH1 0x20 SWAP1 SWAP2 ADD CALLDATALOAD SWAP2 POP JUMP JUMPDEST PUSH1 0x1 PUSH1 0x1 PUSH1 0xA0 SHL SUB DUP2 AND DUP2 EQ PUSH2 0x1C8A JUMPI PUSH1 0x0 DUP1 REVERT JUMPDEST PUSH1 0x0 PUSH1 0x20 DUP3 DUP5 SUB SLT ISZERO PUSH2 0x398D JUMPI PUSH1 0x0 DUP1 REVERT JUMPDEST DUP2 CALLDATALOAD PUSH2 0x1B1D DUP2 PUSH2 0x3966 JUMP JUMPDEST PUSH1 0x0 DUP1 PUSH1 0x40 DUP4 DUP6 SUB SLT ISZERO PUSH2 0x39AB JUMPI PUSH1 0x0 DUP1 REVERT JUMPDEST DUP3 CALLDATALOAD PUSH2 0x39B6 DUP2 PUSH2 0x3966 JUMP JUMPDEST SWAP5 PUSH1 0x20 SWAP4 SWAP1 SWAP4 ADD CALLDATALOAD SWAP4 POP POP POP JUMP JUMPDEST PUSH1 0x0 DUP1 PUSH1 0x0 PUSH1 0x60 DUP5 DUP7 SUB SLT ISZERO PUSH2 0x39D9 JUMPI PUSH1 0x0 DUP1 REVERT JUMPDEST DUP4 CALLDATALOAD SWAP3 POP PUSH1 0x20 DUP5 ADD CALLDATALOAD PUSH2 0x39EB DUP2 PUSH2 0x3966 JUMP JUMPDEST SWAP3 SWAP6 SWAP3 SWAP5 POP POP POP PUSH1 0x40 SWAP2 SWAP1 SWAP2 ADD CALLDATALOAD SWAP1 JUMP JUMPDEST PUSH1 0x0 DUP1 PUSH1 0x0 DUP1 PUSH1 0x80 DUP6 DUP8 SUB SLT ISZERO PUSH2 0x3A12 JUMPI PUSH1 0x0 DUP1 REVERT JUMPDEST DUP5 CALLDATALOAD PUSH2 0x3A1D DUP2 PUSH2 0x3966 JUMP JUMPDEST SWAP4 POP PUSH1 0x20 DUP6 ADD CALLDATALOAD PUSH2 0x3A2D DUP2 PUSH2 0x3966 JUMP JUMPDEST SWAP4 SWAP7 SWAP4 SWAP6 POP POP POP POP PUSH1 0x40 DUP3 ADD CALLDATALOAD SWAP2 PUSH1 0x60 ADD CALLDATALOAD SWAP1 JUMP JUMPDEST PUSH1 0x0 DUP1 PUSH1 0x40 DUP4 DUP6 SUB SLT ISZERO PUSH2 0x3A55 JUMPI PUSH1 0x0 DUP1 REVERT JUMPDEST DUP3 CALLDATALOAD SWAP2 POP PUSH1 0x20 DUP4 ADD CALLDATALOAD PUSH2 0x3A67 DUP2 PUSH2 0x3966 JUMP JUMPDEST DUP1 SWAP2 POP POP SWAP3 POP SWAP3 SWAP1 POP JUMP JUMPDEST PUSH4 0x4E487B71 PUSH1 0xE0 SHL PUSH1 0x0 MSTORE PUSH1 0x32 PUSH1 0x4 MSTORE PUSH1 0x24 PUSH1 0x0 REVERT JUMPDEST PUSH1 0x0 PUSH1 0x20 DUP3 DUP5 SUB SLT ISZERO PUSH2 0x3A9A JUMPI PUSH1 0x0 DUP1 REVERT JUMPDEST POP MLOAD SWAP2 SWAP1 POP JUMP JUMPDEST PUSH1 0x20 DUP1 DUP3 MSTORE PUSH1 0x1F SWAP1 DUP3 ADD MSTORE PUSH32 0x5265656E7472616E637947756172643A207265656E7472616E742063616C6C00 PUSH1 0x40 DUP3 ADD MSTORE PUSH1 0x60 ADD SWAP1 JUMP JUMPDEST PUSH1 0x20 DUP1 DUP3 MSTORE PUSH1 0xF SWAP1 DUP3 ADD MSTORE PUSH15 0x62616C616E636520746F6F206C6F77 PUSH1 0x88 SHL PUSH1 0x40 DUP3 ADD MSTORE PUSH1 0x60 ADD SWAP1 JUMP JUMPDEST PUSH4 0x4E487B71 PUSH1 0xE0 SHL PUSH1 0x0 MSTORE PUSH1 0x11 PUSH1 0x4 MSTORE PUSH1 0x24 PUSH1 0x0 REVERT JUMPDEST PUSH1 0x0 DUP3 NOT DUP3 GT ISZERO PUSH2 0x3B2A JUMPI PUSH2 0x3B2A PUSH2 0x3B01 JUMP JUMPDEST POP ADD SWAP1 JUMP JUMPDEST PUSH1 0x0 DUP3 DUP3 LT ISZERO PUSH2 0x3B41 JUMPI PUSH2 0x3B41 PUSH2 0x3B01 JUMP JUMPDEST POP SUB SWAP1 JUMP JUMPDEST PUSH1 0x0 PUSH1 0x0 NOT DUP3 EQ ISZERO PUSH2 0x3B5A JUMPI PUSH2 0x3B5A PUSH2 0x3B01 JUMP JUMPDEST POP PUSH1 0x1 ADD SWAP1 JUMP JUMPDEST PUSH1 0x0 PUSH1 0x20 DUP3 DUP5 SUB SLT ISZERO PUSH2 0x3B73 JUMPI PUSH1 0x0 DUP1 REVERT JUMPDEST DUP2 MLOAD DUP1 ISZERO ISZERO DUP2 EQ PUSH2 0x1B1D JUMPI PUSH1 0x0 DUP1 REVERT JUMPDEST PUSH1 0x0 DUP2 PUSH1 0x0 NOT DIV DUP4 GT DUP3 ISZERO ISZERO AND ISZERO PUSH2 0x3B9D JUMPI PUSH2 0x3B9D PUSH2 0x3B01 JUMP JUMPDEST POP MUL SWAP1 JUMP JUMPDEST PUSH1 0x0 DUP3 PUSH2 0x3BBF JUMPI PUSH4 0x4E487B71 PUSH1 0xE0 SHL PUSH1 0x0 MSTORE PUSH1 0x12 PUSH1 0x4 MSTORE PUSH1 0x24 PUSH1 0x0 REVERT JUMPDEST POP DIV SWAP1 JUMP JUMPDEST PUSH1 0x0 JUMPDEST DUP4 DUP2 LT ISZERO PUSH2 0x3BDF JUMPI DUP2 DUP2 ADD MLOAD DUP4 DUP3 ADD MSTORE PUSH1 0x20 ADD PUSH2 0x3BC7 JUMP JUMPDEST DUP4 DUP2 GT ISZERO PUSH2 0x3445 JUMPI POP POP PUSH1 0x0 SWAP2 ADD MSTORE JUMP JUMPDEST PUSH1 0x0 DUP3 MLOAD PUSH2 0x3C02 DUP2 DUP5 PUSH1 0x20 DUP8 ADD PUSH2 0x3BC4 JUMP JUMPDEST SWAP2 SWAP1 SWAP2 ADD SWAP3 SWAP2 POP POP JUMP JUMPDEST PUSH1 0x20 DUP2 MSTORE PUSH1 0x0 DUP3 MLOAD DUP1 PUSH1 0x20 DUP5 ADD MSTORE PUSH2 0x3C2B DUP2 PUSH1 0x40 DUP6 ADD PUSH1 0x20 DUP8 ADD PUSH2 0x3BC4 JUMP JUMPDEST PUSH1 0x1F ADD PUSH1 0x1F NOT AND SWAP2 SWAP1 SWAP2 ADD PUSH1 0x40 ADD SWAP3 SWAP2 POP POP JUMP INVALID LOG2 PUSH5 0x6970667358 0x22 SLT KECCAK256 RETURNDATASIZE 0x5D 0xD8 0x4C PUSH23 0x28E0B2FD534371C22C33F82A3A50AA4B07F18FA60D4729 EQ 0xA6 DUP10 0x5D PUSH5 0x736F6C6343 STOP ADDMOD 0xC STOP CALLER "
		},
		"gasEstimates": {
			"creation": {
				"codeDepositCost": "3095400",
				"executionCost": "infinite",
				"totalCost": "infinite"
			},
			"external": {
				"EsGMX()": "2460",
				"GDpriceToStakedtoken(uint256)": "infinite",
				"GLPbackingNeeded()": "infinite",
				"GLPinVault()": "infinite",
				"USDC()": "2459",
				"WBTC()": "2394",
				"WETH()": "2371",
				"_GLPRouter()": "2395",
				"addPool(address,address,uint256,uint256)": "infinite",
				"compoundPercentage()": "2407",
				"convertDust(address)": "infinite",
				"currentPoolTotal(uint256)": "infinite",
				"cycleRewardsETH()": "infinite",
				"cycleRewardsETHandEsGMX()": "infinite",
				"displayStakedBalance(address,uint256)": "infinite",
				"enter(uint256,uint256)": "infinite",
				"enterETH(uint256)": "infinite",
				"fsGLP()": "2417",
				"gdUSDC()": "2394",
				"leave(uint256,uint256)": "infinite",
				"leaveETH(uint256,uint256)": "infinite",
				"openAllVault()": "infinite",
				"openAllWithdraw()": "infinite",
				"openVault(uint256)": "55399",
				"openWithdraw(uint256)": "55521",
				"owner()": "2475",
				"pauseReward(uint256)": "infinite",
				"poolInfo(uint256)": "21935",
				"priceFeed()": "2393",
				"recoverTreasuryTokens(address,uint256)": "infinite",
				"recoverTreasuryTokensFromGLP(address,uint256)": "infinite",
				"renounceOwnership()": "infinite",
				"setAPR(uint256,uint256)": "infinite",
				"setCompoundPercentage(uint256)": "24676",
				"setPoolCap(uint256,uint256)": "26812",
				"setSlippage(uint256)": "24592",
				"slippage()": "2429",
				"startReward(uint256)": "57725",
				"swapGLPout(uint256,address,uint256)": "infinite",
				"totalUSDvault(uint256)": "infinite",
				"totalUSDvaults()": "infinite",
				"transferOwnership(address)": "infinite",
				"treasuryMint(uint256,address)": "infinite",
				"treasuryMintedGLP()": "2405"
			},
			"internal": {
				"_cycleRewardsETH()": "infinite",
				"checkDuplicate(contract GDtoken)": "infinite",
				"swapGLPto(uint256,address,uint256)": "infinite",
				"swaptoGLP(uint256,address)": "infinite",
				"updatePool(uint256)": "infinite",
				"updatePoolRate(uint256)": "infinite"
			}
		},
		"methodIdentifiers": {
			"EsGMX()": "a695f120",
			"GDpriceToStakedtoken(uint256)": "ce694a60",
			"GLPbackingNeeded()": "644e0a4e",
			"GLPinVault()": "421ef1ed",
			"USDC()": "89a30271",
			"WBTC()": "4dede3de",
			"WETH()": "ad5c4648",
			"_GLPRouter()": "0ec689aa",
			"addPool(address,address,uint256,uint256)": "c20632ba",
			"compoundPercentage()": "3d47b41c",
			"convertDust(address)": "863f95ce",
			"currentPoolTotal(uint256)": "f8491e4b",
			"cycleRewardsETH()": "ad6c2a60",
			"cycleRewardsETHandEsGMX()": "1b50f4b7",
			"displayStakedBalance(address,uint256)": "ce848d28",
			"enter(uint256,uint256)": "23972aef",
			"enterETH(uint256)": "ce18acd4",
			"fsGLP()": "143d51f6",
			"gdUSDC()": "31b62ba3",
			"leave(uint256,uint256)": "e02ae075",
			"leaveETH(uint256,uint256)": "542cd700",
			"openAllVault()": "a5235957",
			"openAllWithdraw()": "eaa4f0b2",
			"openVault(uint256)": "04a2ce7e",
			"openWithdraw(uint256)": "3e4cfc67",
			"owner()": "8da5cb5b",
			"pauseReward(uint256)": "3bdd7d26",
			"poolInfo(uint256)": "1526fe27",
			"priceFeed()": "741bef1a",
			"recoverTreasuryTokens(address,uint256)": "e8ebb1e4",
			"recoverTreasuryTokensFromGLP(address,uint256)": "932acf22",
			"renounceOwnership()": "715018a6",
			"setAPR(uint256,uint256)": "a230561b",
			"setCompoundPercentage(uint256)": "6bc832e4",
			"setPoolCap(uint256,uint256)": "820e13df",
			"setSlippage(uint256)": "f0fa55a9",
			"slippage()": "3e032a3b",
			"startReward(uint256)": "c909f152",
			"swapGLPout(uint256,address,uint256)": "98e8220f",
			"totalUSDvault(uint256)": "ff75bb77",
			"totalUSDvaults()": "e2f608e8",
			"transferOwnership(address)": "f2fde38b",
			"treasuryMint(uint256,address)": "f2a3013e",
			"treasuryMintedGLP()": "f39c9f0e"
		}
	},
	"abi": [
		{
			"inputs": [
				{
					"internalType": "contract GDtoken",
					"name": "_gdUSDC",
					"type": "address"
				},
				{
					"internalType": "contract GDtoken",
					"name": "_gdETH",
					"type": "address"
				},
				{
					"internalType": "contract GDtoken",
					"name": "_gdBTC",
					"type": "address"
				}
			],
			"stateMutability": "nonpayable",
			"type": "constructor"
		},
		{
			"anonymous": false,
			"inputs": [
				{
					"indexed": true,
					"internalType": "address",
					"name": "previousOwner",
					"type": "address"
				},
				{
					"indexed": true,
					"internalType": "address",
					"name": "newOwner",
					"type": "address"
				}
			],
			"name": "OwnershipTransferred",
			"type": "event"
		},
		{
			"inputs": [],
			"name": "EsGMX",
			"outputs": [
				{
					"internalType": "contract IERC20",
					"name": "",
					"type": "address"
				}
			],
			"stateMutability": "view",
			"type": "function"
		},
		{
			"inputs": [
				{
					"internalType": "uint256",
					"name": "_pid",
					"type": "uint256"
				}
			],
			"name": "GDpriceToStakedtoken",
			"outputs": [
				{
					"internalType": "uint256",
					"name": "",
					"type": "uint256"
				}
			],
			"stateMutability": "view",
			"type": "function"
		},
		{
			"inputs": [],
			"name": "GLPbackingNeeded",
			"outputs": [
				{
					"internalType": "uint256",
					"name": "",
					"type": "uint256"
				}
			],
			"stateMutability": "view",
			"type": "function"
		},
		{
			"inputs": [],
			"name": "GLPinVault",
			"outputs": [
				{
					"internalType": "uint256",
					"name": "",
					"type": "uint256"
				}
			],
			"stateMutability": "view",
			"type": "function"
		},
		{
			"inputs": [],
			"name": "USDC",
			"outputs": [
				{
					"internalType": "contract IERC20",
					"name": "",
					"type": "address"
				}
			],
			"stateMutability": "view",
			"type": "function"
		},
		{
			"inputs": [],
			"name": "WBTC",
			"outputs": [
				{
					"internalType": "contract IERC20",
					"name": "",
					"type": "address"
				}
			],
			"stateMutability": "view",
			"type": "function"
		},
		{
			"inputs": [],
			"name": "WETH",
			"outputs": [
				{
					"internalType": "contract IWETH",
					"name": "",
					"type": "address"
				}
			],
			"stateMutability": "view",
			"type": "function"
		},
		{
			"inputs": [],
			"name": "_GLPRouter",
			"outputs": [
				{
					"internalType": "contract GLPRouter",
					"name": "",
					"type": "address"
				}
			],
			"stateMutability": "view",
			"type": "function"
		},
		{
			"inputs": [
				{
					"internalType": "contract IERC20",
					"name": "_lptoken",
					"type": "address"
				},
				{
					"internalType": "contract GDtoken",
					"name": "_GDlptoken",
					"type": "address"
				},
				{
					"internalType": "uint256",
					"name": "_fees",
					"type": "uint256"
				},
				{
					"internalType": "uint256",
					"name": "_apr",
					"type": "uint256"
				}
			],
			"name": "addPool",
			"outputs": [],
			"stateMutability": "nonpayable",
			"type": "function"
		},
		{
			"inputs": [],
			"name": "compoundPercentage",
			"outputs": [
				{
					"internalType": "uint256",
					"name": "",
					"type": "uint256"
				}
			],
			"stateMutability": "view",
			"type": "function"
		},
		{
			"inputs": [
				{
					"internalType": "address",
					"name": "_token",
					"type": "address"
				}
			],
			"name": "convertDust",
			"outputs": [],
			"stateMutability": "nonpayable",
			"type": "function"
		},
		{
			"inputs": [
				{
					"internalType": "uint256",
					"name": "_pid",
					"type": "uint256"
				}
			],
			"name": "currentPoolTotal",
			"outputs": [
				{
					"internalType": "uint256",
					"name": "",
					"type": "uint256"
				}
			],
			"stateMutability": "view",
			"type": "function"
		},
		{
			"inputs": [],
			"name": "cycleRewardsETH",
			"outputs": [],
			"stateMutability": "nonpayable",
			"type": "function"
		},
		{
			"inputs": [],
			"name": "cycleRewardsETHandEsGMX",
			"outputs": [],
			"stateMutability": "nonpayable",
			"type": "function"
		},
		{
			"inputs": [
				{
					"internalType": "address",
					"name": "_address",
					"type": "address"
				},
				{
					"internalType": "uint256",
					"name": "_pid",
					"type": "uint256"
				}
			],
			"name": "displayStakedBalance",
			"outputs": [
				{
					"internalType": "uint256",
					"name": "",
					"type": "uint256"
				}
			],
			"stateMutability": "view",
			"type": "function"
		},
		{
			"inputs": [
				{
					"internalType": "uint256",
					"name": "_amountin",
					"type": "uint256"
				},
				{
					"internalType": "uint256",
					"name": "_pid",
					"type": "uint256"
				}
			],
			"name": "enter",
			"outputs": [],
			"stateMutability": "nonpayable",
			"type": "function"
		},
		{
			"inputs": [
				{
					"internalType": "uint256",
					"name": "_pid",
					"type": "uint256"
				}
			],
			"name": "enterETH",
			"outputs": [],
			"stateMutability": "payable",
			"type": "function"
		},
		{
			"inputs": [],
			"name": "fsGLP",
			"outputs": [
				{
					"internalType": "contract IERC20",
					"name": "",
					"type": "address"
				}
			],
			"stateMutability": "view",
			"type": "function"
		},
		{
			"inputs": [],
			"name": "gdUSDC",
			"outputs": [
				{
					"internalType": "contract GDtoken",
					"name": "",
					"type": "address"
				}
			],
			"stateMutability": "view",
			"type": "function"
		},
		{
			"inputs": [
				{
					"internalType": "uint256",
					"name": "_share",
					"type": "uint256"
				},
				{
					"internalType": "uint256",
					"name": "_pid",
					"type": "uint256"
				}
			],
			"name": "leave",
			"outputs": [
				{
					"internalType": "uint256",
					"name": "",
					"type": "uint256"
				}
			],
			"stateMutability": "nonpayable",
			"type": "function"
		},
		{
			"inputs": [
				{
					"internalType": "uint256",
					"name": "_share",
					"type": "uint256"
				},
				{
					"internalType": "uint256",
					"name": "_pid",
					"type": "uint256"
				}
			],
			"name": "leaveETH",
			"outputs": [],
			"stateMutability": "payable",
			"type": "function"
		},
		{
			"inputs": [],
			"name": "openAllVault",
			"outputs": [],
			"stateMutability": "nonpayable",
			"type": "function"
		},
		{
			"inputs": [],
			"name": "openAllWithdraw",
			"outputs": [],
			"stateMutability": "nonpayable",
			"type": "function"
		},
		{
			"inputs": [
				{
					"internalType": "uint256",
					"name": "_pid",
					"type": "uint256"
				}
			],
			"name": "openVault",
			"outputs": [],
			"stateMutability": "nonpayable",
			"type": "function"
		},
		{
			"inputs": [
				{
					"internalType": "uint256",
					"name": "_pid",
					"type": "uint256"
				}
			],
			"name": "openWithdraw",
			"outputs": [],
			"stateMutability": "nonpayable",
			"type": "function"
		},
		{
			"inputs": [],
			"name": "owner",
			"outputs": [
				{
					"internalType": "address",
					"name": "",
					"type": "address"
				}
			],
			"stateMutability": "view",
			"type": "function"
		},
		{
			"inputs": [
				{
					"internalType": "uint256",
					"name": "_pid",
					"type": "uint256"
				}
			],
			"name": "pauseReward",
			"outputs": [],
			"stateMutability": "nonpayable",
			"type": "function"
		},
		{
			"inputs": [
				{
					"internalType": "uint256",
					"name": "",
					"type": "uint256"
				}
			],
			"name": "poolInfo",
			"outputs": [
				{
					"internalType": "contract IERC20",
					"name": "lpToken",
					"type": "address"
				},
				{
					"internalType": "contract GDtoken",
					"name": "GDlptoken",
					"type": "address"
				},
				{
					"internalType": "uint256",
					"name": "EarnRateSec",
					"type": "uint256"
				},
				{
					"internalType": "uint256",
					"name": "totalStaked",
					"type": "uint256"
				},
				{
					"internalType": "uint256",
					"name": "lastUpdate",
					"type": "uint256"
				},
				{
					"internalType": "uint256",
					"name": "vaultcap",
					"type": "uint256"
				},
				{
					"internalType": "uint256",
					"name": "glpFees",
					"type": "uint256"
				},
				{
					"internalType": "uint256",
					"name": "APR",
					"type": "uint256"
				},
				{
					"internalType": "bool",
					"name": "stakable",
					"type": "bool"
				},
				{
					"internalType": "bool",
					"name": "withdrawable",
					"type": "bool"
				},
				{
					"internalType": "bool",
					"name": "rewardStart",
					"type": "bool"
				}
			],
			"stateMutability": "view",
			"type": "function"
		},
		{
			"inputs": [],
			"name": "priceFeed",
			"outputs": [
				{
					"internalType": "contract GLPPriceFeed",
					"name": "",
					"type": "address"
				}
			],
			"stateMutability": "view",
			"type": "function"
		},
		{
			"inputs": [
				{
					"internalType": "address",
					"name": "_token",
					"type": "address"
				},
				{
					"internalType": "uint256",
					"name": "_amount",
					"type": "uint256"
				}
			],
			"name": "recoverTreasuryTokens",
			"outputs": [],
			"stateMutability": "nonpayable",
			"type": "function"
		},
		{
			"inputs": [
				{
					"internalType": "address",
					"name": "_token",
					"type": "address"
				},
				{
					"internalType": "uint256",
					"name": "GLPamount",
					"type": "uint256"
				}
			],
			"name": "recoverTreasuryTokensFromGLP",
			"outputs": [],
			"stateMutability": "nonpayable",
			"type": "function"
		},
		{
			"inputs": [],
			"name": "renounceOwnership",
			"outputs": [],
			"stateMutability": "nonpayable",
			"type": "function"
		},
		{
			"inputs": [
				{
					"internalType": "uint256",
					"name": "_pid",
					"type": "uint256"
				},
				{
					"internalType": "uint256",
					"name": "_apr",
					"type": "uint256"
				}
			],
			"name": "setAPR",
			"outputs": [],
			"stateMutability": "nonpayable",
			"type": "function"
		},
		{
			"inputs": [
				{
					"internalType": "uint256",
					"name": "_percent",
					"type": "uint256"
				}
			],
			"name": "setCompoundPercentage",
			"outputs": [],
			"stateMutability": "nonpayable",
			"type": "function"
		},
		{
			"inputs": [
				{
					"internalType": "uint256",
					"name": "_pid",
					"type": "uint256"
				},
				{
					"internalType": "uint256",
					"name": "_vaultcap",
					"type": "uint256"
				}
			],
			"name": "setPoolCap",
			"outputs": [],
			"stateMutability": "nonpayable",
			"type": "function"
		},
		{
			"inputs": [
				{
					"internalType": "uint256",
					"name": "_slippage",
					"type": "uint256"
				}
			],
			"name": "setSlippage",
			"outputs": [],
			"stateMutability": "nonpayable",
			"type": "function"
		},
		{
			"inputs": [],
			"name": "slippage",
			"outputs": [
				{
					"internalType": "uint256",
					"name": "",
					"type": "uint256"
				}
			],
			"stateMutability": "view",
			"type": "function"
		},
		{
			"inputs": [
				{
					"internalType": "uint256",
					"name": "_pid",
					"type": "uint256"
				}
			],
			"name": "startReward",
			"outputs": [],
			"stateMutability": "nonpayable",
			"type": "function"
		},
		{
			"inputs": [
				{
					"internalType": "uint256",
					"name": "_amount",
					"type": "uint256"
				},
				{
					"internalType": "address",
					"name": "token",
					"type": "address"
				},
				{
					"internalType": "uint256",
					"name": "min_receive",
					"type": "uint256"
				}
			],
			"name": "swapGLPout",
			"outputs": [
				{
					"internalType": "uint256",
					"name": "",
					"type": "uint256"
				}
			],
			"stateMutability": "nonpayable",
			"type": "function"
		},
		{
			"inputs": [
				{
					"internalType": "uint256",
					"name": "_pid",
					"type": "uint256"
				}
			],
			"name": "totalUSDvault",
			"outputs": [
				{
					"internalType": "uint256",
					"name": "",
					"type": "uint256"
				}
			],
			"stateMutability": "view",
			"type": "function"
		},
		{
			"inputs": [],
			"name": "totalUSDvaults",
			"outputs": [
				{
					"internalType": "uint256",
					"name": "",
					"type": "uint256"
				}
			],
			"stateMutability": "view",
			"type": "function"
		},
		{
			"inputs": [
				{
					"internalType": "address",
					"name": "newOwner",
					"type": "address"
				}
			],
			"name": "transferOwnership",
			"outputs": [],
			"stateMutability": "nonpayable",
			"type": "function"
		},
		{
			"inputs": [
				{
					"internalType": "uint256",
					"name": "_amount",
					"type": "uint256"
				},
				{
					"internalType": "address",
					"name": "_token",
					"type": "address"
				}
			],
			"name": "treasuryMint",
			"outputs": [],
			"stateMutability": "nonpayable",
			"type": "function"
		},
		{
			"inputs": [],
			"name": "treasuryMintedGLP",
			"outputs": [
				{
					"internalType": "uint256",
					"name": "",
					"type": "uint256"
				}
			],
			"stateMutability": "view",
			"type": "function"
		},
		{
			"stateMutability": "payable",
			"type": "receive"
		}
	]
}